:100000000C9488190C94B9190C94B9190C94B91959
:100010000C94B9190C94B9190C94B9190C94B91918
:100020000C94B9190C94B9190C94B9190C94B91908
:100030000C94B9190C94B9190C94B9190C94B919F8
:100040000C94B9190C9401CB0C94B9190C94B919EE
:100050000C94B9190C94B9190C94FEB70C949EA386
:100060000C94B9190C94CA510C94C0510C94B91940
:100070000C94B9190C94B9190C94B9190C94B919B8
:100080000C94B9190C94B9190C94B9190C94B919A8
:100090000C94B9190C94B9190C94B9190C94B91998
:1000A0000C94B9190C94B9190C94B9190C94B91988
:1000B0000C94B9190C94B9190C94B9190C94B91978
:1000C0000C94B9190C94B9190C94B9190C948F3378
:1000D0000C9459330C94B9190C94B9190C94B9199E
:1000E0000C94B919084AD73B3BCE016E84BCBFFDC6
:1000F000C12F3D6C74319ABD56833DDA3D00C77FF8
:1001000011BED9E4BB4C3E916BAAAABE0000008090
:100110003F05A84CCDB2D44EB93836A9020C50B91F
:10012000918688083CA6AAAA2ABE000000803F004B
:100130000C9490F60D9440060C94623E0D94460784
:100140000C945C520D943F050C9472A20C943134C3
:100150000C94CBF60C9429F60D9479040D94800937
:100160000C946C520D9495060D948B0B0D949C0978
:100170000C9402F70C9495A10C94C3FB0C9445F6D7
:100180000C9468520C9460520D9482060C94FC33CB
:100190000C9441F60C9416F70D9409050C94C3F6D3
:1001A0000C9498F60C9408520C9433F60C9453F675
:1001B0000C9425340C9449F60C9435340D940D06AA
:1001C0000D94AD050C94109E0C94EA400D945309C7
:1001D0000C941CF60C94F8F60C94929E0C94B4FAC1
:1001E0000D94EA050C9499FB0C94FDF50D94C90946
:1001F0000D94A9030C9429340C9464520D94210697
:100200000C947D400C9470520D946B0E0C940CF772
:100210000C94B1A20C9439340C941A340C943BF61F
:100220000C94B13E0C9484A20C94DFF60C942D3403
:100230000C9420F70C94B1F60C9437520C9474A1E2
:100240000C94FCA00C9437F60C944FF60C944B34A1
:100250000C9455520D94D6050D94D6090C94A7F61E
:100260000C9486520C9414F60D94B5090C948E528D
:100270000C94D5F60C94CD330C9446520C94E9F6BC
:100280000D94B2180C94F4A10C9420F60D94DD0397
:100290000C94B53E0C9422410C94FCFD0C949DF6FC
:1002A0000D948D030C9474520C94A9400D94140277
:1002B0000D94B70A0C942BFD0C9421340C947AFF06
:1002C0000C9423F60C94D9A10C9402F60C9493F997
:1002D0000C942AF70C9418F60C94DFA00C940B34B1
:1002E0000C9453340C94939E0C947BA30C947B52EB
:1002F0000C9440340C942DF60D9483090D94AB09A5
:100300000D947A090D945A030D94C80A0C94BBF607
:100310000D9494184E414E494E495459494E46CD7C
:10032000CCCC3D0AD7233C17B7D13877CC2B3295AC
:1003300095E6241FB14F0A000020410000C842008A
:10034000401C4620BCBE4CCA1B0E5AAEC59D740054
:10035000407A10F35A00A0724E18090010A5D4E894
:100360000000E87648170000E40B54020000CA9A27
:100370003B000000E1F50500008096980000004079
:10038000420F000000A086010000001027000000BE
:1003900000E803000000006400000000000A000004
:1003A0000000000100000000002C76D888DC674FB8
:1003B0000823DFC1DFAE59E1B1B796E5E3E453C6E8
:1003C0003AE651997696E8E6C28426EB898C9B62E0
:1003D000ED407C6FFCEFBC9C9F40F2BAA56FA5F48A
:1003E00090055A2AF75C936B6CF9676DC11BFCE0B2
:1003F000E40D47FEF520E6B500D0ED902E03009405
:100400003577050080841E080000204E0A00000099
:10041000C80C333333330F986E12831141EF8D21A3
:1004200014893BE65516CFFEE6DB18D1844B381B0A
:10043000F77C1D901DA4BBE424203284725E2281CF
:1004400000C9F124ECA1E53D27434F4D4D554E49E0
:10045000434154494F4E0044525952554E00455263
:10046000524F525300494E464F004543484F0045B6
:1004700072726F722077726974696E6720746F2070
:10048000454550524F4D210A0053544F505045445A
:100490002E20005072696E7465722073746F7070D4
:1004A00065642064756520746F206572726F727365
:1004B0002E2046697820746865206572726F7220FC
:1004C000616E6420757365204D39393920746F2051
:1004D000726573746172742E202854656D70657234
:1004E00061747572652069732072657365742E205E
:1004F0005365742069742061667465722072657337
:1005000074617274696E67290A004E6F20436865D2
:10051000636B73756D2077697468206C696E6520F4
:100520006E756D6265722C204C617374204C696E1F
:10053000653A20004E6F20436865636B73756D20CC
:1005400077697468206C696E65206E756D6265727E
:100550002C204C617374204C696E653A20006368EE
:1005600065636B73756D206D69736D617463682C61
:10057000204C617374204C696E653A20004C696EA2
:1005800065204E756D626572206973206E6F7420F0
:100590004C617374204C696E65204E756D62657296
:1005A0002B312C204C617374204C696E653A20000D
:1005B0004D3131300053657269616C207374617420
:1005C0007573206D69736D617463680A0077616982
:1005D000740A0053442072656164206572726F7200
:1005E0000A002121204B494C4C20636175736564DE
:1005F00020627920746F6F206D75636820696E6169
:1006000063746976652074696D65202D2063757249
:1006100072656E7420636F6D6D616E643A20004880
:100620006F74656E642049646C652054696D656FF4
:10063000757400486F74656E642049646C6520545D
:10064000696D656F75740A003D3D6F6E46696C613A
:100650006D656E7452756E6F75743D3D0070617599
:100660007365004D363030002066696C616D656ED3
:10067000745F72756E6F7574200066696C616D656C
:100680006E745F72756E6F757420540046696C618C
:100690006D656E7452756E6F75742054002A2A2A27
:1006A000496E6974696E67206361726420697320A2
:1006B0004F4B2A2A2A004D6564696120496E736593
:1006C00072746564004D656469612052656D6F7672
:1006D0006564004D313030305300627573793A20D3
:1006E00070617573656420666F7220696E707574D1
:1006F0000A00627573793A207061757365642066CB
:100700006F7220757365720A00627573793A207092
:10071000726F63657373696E670A002A2A2A6B69B0
:100720006C6C2A2A2A00706F7765726F6666004BC0
:10073000494C4C45442E20005072696E74657220FD
:1007400068616C7465642E206B696C6C2829206369
:10075000616C6C6564210A006563686F3A004572DC
:10076000726F723A0042696C696E656172204C6505
:1007700076656C696E6720477269643A0A002F2FAC
:10078000616374696F6E3A0070726F6D70745F00B0
:10079000656E640053656E64204D31303820746F8F
:1007A00020726573756D650A00496E7365727420F9
:1007B00066696C616D656E7420616E642073656E30
:1007C00064204D3130380A005265686561742066D6
:1007D000696E69736865642E00526568656174208E
:1007E000446F6E6500526568656174696E672E2E90
:1007F0002E005265686561740048656174657220F9
:1008000054696D656F75740053656E64204D3130A9
:100810003820746F2068656174206E6F7A7A6C6519
:100820000A004E6F7A7A6C65205061726B656400C5
:10083000486F74656E6420746F6F20636F6C640A18
:10084000007061757365640050617573650044697B
:100850007361626C6552756E6F7574005075726766
:10086000654D6F7265005061757365640073686FE4
:100870007700627574746F6E00626567696E004C14
:100880006F61642046696C616D656E74004C6F61C8
:10089000642046696C616D656E74205400496E7306
:1008A0006572742066696C616D656E7420616E643A
:1008B0002073656E64204D3130380A00726573759F
:1008C0006D656400526573756D696E670057616987
:1008D00074696E6720666F72206865617475702E2A
:1008E0000A004C656176696E6720473236003F53D7
:1008F000706563696669656420582C5920636F6F61
:100900007264696E617465206F7574206F66206211
:100910006F756E64732E0A003F28522965706561F9
:10092000742076616C7565206E6F7420706C6175D3
:100930007369626C653B206D75737420626520611C
:1009400074206C6561737420312E0A003F2852298F
:100950006570656174206D757374206265207370B5
:1009600065636966696564207768656E206E6F747B
:10097000207573696E6720616E204C43442E0A0017
:100980003F537065636966696564206E6F7A7A6C3F
:10099000652074656D7065726174757265206E6F27
:1009A0007420706C61757369626C652E0A003F5328
:1009B00070656369666965642066696C616D656E02
:1009C000742073697A65206E6F7420706C61757322
:1009D00069626C652E0A003F5370656369666965DC
:1009E00064207072696D65206C656E677468206E36
:1009F0006F7420706C61757369626C652E0A003FBC
:100A00005072696D65206C656E677468206D7573D2
:100A10007420626520737065636966696564207718
:100A200068656E206E6F74207573696E6720616EE5
:100A3000204C43442E0A003F537065636966696524
:100A400064206E6F7A7A6C652073697A65206E6FA8
:100A50007420706C61757369626C652E0A003F5278
:100A6000657472616374696F6E204D756C74697022
:100A70006C696572206D7573742062652073706592
:100A80006369666965642E0A003F53706563696631
:100A90006965642052657472616374696F6E204D7C
:100AA000756C7469706C696572206E6F7420706CFF
:100AB00061757369626C652E0A003F5370656369E6
:100AC00066696564206C617965722068656967682C
:100AD00074206E6F7420706C61757369626C652E22
:100AE0000A0043292E0A003F5370656369666965F1
:100AF00064206265642074656D70657261747572DE
:100B000065206E6F7420706C61757369626C65200E
:100B10002834302D00473236207374617274696E48
:100B2000672E2E2E0A004F46460A00466164652055
:100B30004865696768742000426564204C65766585
:100B40006C696E6720004661696C656420746F2073
:100B5000656E61626C6520426564204C6576656CEB
:100B6000696E670A00496E76616C6964206D657311
:100B7000682E0A0050726F62696E6720506F696E4E
:100B8000740025532025692F2569002E0A002F00A7
:100B900050726F62696E67206D65736820706F694F
:100BA0006E742000202844525952554E2900473275
:100BB00039204175746F20426564204C6576656C00
:100BC000696E67003F20284C2C522C462C4229206D
:100BD0006F7574206F6620626F756E64732E0A00E5
:100BE0003F2856296572626F7365206C6576656C67
:100BF00020696D706C61757369626C652028302D99
:100C000034292E0A00426164205A2076616C756591
:100C10000A004E6F2062696C696E656172206772AE
:100C200069640A00446576696174696F6E002553D2
:100C30003A2025730046696E6973686564210A006D
:100C40003A207A3A2000206F662000476F696E676D
:100C500020746F3A20580043570A00206469723AA2
:100C60000020616E676C653A005374617274207283
:100C700061646975733A004D343820506F696E7441
:100C80000025533A2025642F256400506F73697442
:100C9000696F6E696E67207468652070726F626537
:100CA0002E2E2E0A003F4C656773206F66206D6FF5
:100CB00076656D656E7420696D706C6175736962BF
:100CC0006C652028302D3135292E0A003F20285808
:100CD0002C5929206F7574206F6620626F756E64C1
:100CE000732E0A0050726F6265206F7574206F66F4
:100CF00020626F756E6473003F53616D706C652088
:100D000073697A65206E6F7420706C6175736962A7
:100D10006C652028342D3530292E0A004D343820BA
:100D20005A2D50726F626520526570656174616200
:100D3000696C69747920546573740A003F285629D8
:100D40006572626F7365206C6576656C20696D7085
:100D50006C61757369626C652028302D34292E0A08
:100D6000005374616E6461726420446576696174D5
:100D7000696F6E3A20002052616E67653A2000204C
:100D80004D61783A2000204D696E3A200020536969
:100D9000676D613A20004D65616E3A2000574152FF
:100DA0004E494E4721204C6F77205A204A65726B7E
:100DB000206D6179206C65616420746F20756E7799
:100DC000616E746564207061757365732E0A004FDF
:100DD0004646004F4E0020204D61783A200020000A
:100DE00020204D696E3A2000536F667420656E6452
:100DF00073746F70733A20003D3D4F6E506F77658E
:100E0000724C6F7373526573756D653D3D004D3265
:100E1000342053256C642054256C64004739322EED
:100E20003920452573004731204625640047393273
:100E30002E39205A2573004731205A30204632304F
:100E40003000473120582573205925732046333010
:100E50003030004D34323020532569205A2573003C
:100E60004D3130362050256920532569004D3230F0
:100E700030204425730047323852305859004739E2
:100E8000322E39204530205A300A47315A25730016
:100E90004D31303920532569004D313930205325EB
:100EA00069004D343230205330205A300020496ED2
:100EB00076616C696420657874727564657220006F
:100EC00047322F47332062616420706172616D6523
:100ED000746572730A00536C6565702E2E2E005A6D
:100EE0002050726F62652050617374204265640AFD
:100EF000005A2050726F6265205061737420426501
:100F000064004732384C30004D3131372050726F19
:100F10006265206661696C65642E0A4732380A0092
:100F200070726F62655F726577697065004732390C
:100F3000205265747279696E670050726F62696ED3
:100F400067204661696C6564004D31313720426528
:100F500064206C6576656C696E67206661696C6596
:100F6000642E0A4730205A31300A4D333030205039
:100F7000323520533838300A4D3330302050353038
:100F80002053300A4D33303020503235205338381A
:100F9000300A4D333030205035302053300A4D3335
:100FA00030302050323520533838300A4D3330300D
:100FB000205035302053300A4734205331007072AE
:100FC0006F62655F6661696C6564004D3131372021
:100FD000426564206C6576656C696E6720646F6E2F
:100FE000652E00205A3A200020593A2000426564BC
:100FF00020583A20004D65736820706F696E742028
:101000006F7574206F662072616E67650A004D30DF
:101010002053746F70004D312053746F7000436F14
:101020006E74696E756500436C69636B20746F2024
:10103000526573756D652E2E2E004E6F204D6F76A6
:10104000652E00456E642066696C65206C6973745A
:101050000A00426567696E2066696C65206C697379
:10106000740A004E6F206D656469610A00526573F1
:10107000756D696E6720534400286E6F2066696C39
:1010800065290043757272656E742066696C653AF5
:1010900020005072696E742074696D653A20000AF0
:1010A00053746174733A2046696C616D656E742087
:1010B000757365643A20002C204C6F6E67657374FD
:1010C000206A6F623A2000546F74616C2074696DFD
:1010D000653A200053746174733A20002C204661F5
:1010E000696C65643A20002C2046696E69736865F6
:1010F000643A20005072696E74733A200053746130
:1011000074733A2000436F6F6C696E672E2E2E0049
:1011100048656174696E672E2E2E004520255300A8
:101120006F6B006F6666006A0465045E04570449CD
:101130000444454255473A004D3131332053004273
:10114000656420436F6F6C696E672E2E2E004265BA
:10115000642048656174696E672E2E2E00444458E1
:10116000203130532050726F204F46462E002F2FD3
:1011700000205200416363656C65726174696F6E33
:101180003A2050004D32303620580046523A002066
:10119000466C6F773A200020643A0020693A0020BC
:1011A000703A00496E76616C696420657874727576
:1011B0006465720A0020643A0020693A0020703A9F
:1011C0000064697300656E0043290A0061626C6502
:1011D0006420286D696E2074656D702000436F6C0B
:1011E000642065787472756465732061726520008F
:1011F000504944204175746F74756E6500504944C0
:10120000204175746F74756E65206661696C6564E4
:101210002120426164206865617465722069640AF6
:101220000046696C616D656E742072756E6F7574C1
:101230002064697374616E636520286D6D293A209E
:101240000046696C616D656E742072756E6F7574A1
:1012500020004D34323120696E636F7272656374A1
:1012600020706172616D6574657220757361676568
:101270000A004D65736820706F696E74206F757415
:10128000206F662072616E67650A004F666673653F
:101290007473204170706C696564004572723A2005
:1012A000546F6F206661722100546F6F2066617207
:1012B0002066726F6D207265666572656E6365206B
:1012C000706F696E740A00454550524F4D204F4B68
:1012D0000A00506F7765722D6C6F737320726563AF
:1012E0006F7665727920004D383400446F6E65204A
:1012F0007072696E74696E672066696C650A004D6C
:101300003737004D3331004361703A004D45415449
:101310005041434B00434F4F4C45525F54454D5055
:1013200045524154555245004348414D4245525F54
:1013300054454D5045524154555245004241425941
:101340005354455050494E470041524353004D4F6E
:1013500054494F4E5F4D4F44455300544845524DFC
:10136000414C5F50524F54454354494F4E004C4FEF
:101370004E475F46494C454E414D45004155544FFF
:101380005245504F52545F53445F53544154555348
:101390000053445F5752495445005245504541540B
:1013A000005344434152440050524F4D50545F53F8
:1013B0005550504F525400454D455247454E4359A4
:1013C0005F50415253455200434153455F4C49479A
:1013D00048545F4252494748544E45535300544F76
:1013E00047474C455F4C494748545300534F465478
:1013F000574152455F504F574552004255494C4462
:101400005F50455243454E54004C4556454C494E5D
:10141000475F44415441005A5F50524F4245005289
:10142000554E4F5554004155544F4C4556454C0070
:101430005052494E545F4A4F420050524F47524516
:101440005353004155544F5245504F52545F5445E9
:101450004D5000564F4C554D45545249430045455B
:1014600050524F4D0042494E4152595F46494C45FA
:101470005F5452414E534645520053455249414CE8
:101480005F584F4E5F584F4646004649524D5741B0
:1014900052455F4E414D453A4D61726C696E203246
:1014A0002E302E375F4457372E3320426F6E6474D0
:1014B0006563682053534D44414220284170722097
:1014C000323420323032312032333A30373A31360A
:1014D0002920534F555243455F434F44455F555272
:1014E0004C3A68747470733A2F2F67697468756228
:1014F0002E636F6D2F496E73616E697479417574D7
:101500006F6D6174696F6E2F4D61726C696E2F74AF
:101510007265652F437265616C6974794477696E91
:101520005F322E302050524F544F434F4C5F564540
:101530005253494F4E3A312E30204D414348494E87
:10154000455F545950453A44445820313053205057
:10155000726F2045585452554445525F434F554E83
:10156000543A3120555549443A63656465326132D5
:10157000662D343161322D343734382D39623132B1
:101580002D6335356336326633363766660A00506A
:10159000726F6265204F6666736574205A005072E0
:1015A0006F6265204F6666736574205A00290A00D1
:1015B00020746F20003F5A206F7574206F66207270
:1015C000616E6765202800290A0020746F20003FA3
:1015D00059206F7574206F662072616E67652028D0
:1015E0002D00290A0020746F20003F58206F757469
:1015F000206F662072616E676520282D0050726F23
:101600006265204F666673657420580043616E6E94
:101610006F74206F70656E2073756264697220004C
:101620002569730025696D20256973002569682087
:1016300025696D2025697300256964202569682066
:1016400025696D2025697300256979202569642045
:101650002569682025696D20256973003D3D447723
:10166000696E20496E697420436F6D706C65746596
:101670003D3D002A2A2A4E6F7A7A6C6554656D705A
:101680005374617475735B325D203D003D3D486568
:101690006174696E6720446F6E65204368616E6790
:1016A000652046696C616D656E743D3D0020207358
:1016B0007461727470726F677265737320003D3D60
:1016C0007761697477617920353D3D003D3D7761F3
:1016D000697477617920343D3D003D3D77616974DF
:1016E00077617920333D3D003D3D776169747761D5
:1016F0007920313D3D003D3D6F6E5072696E7454EE
:10170000696D657253746F707065643D3D003D3D59
:101710006F6E466163746F727952657365743D3D97
:1017200000270A0A0000272027002027002D006E2E
:101730006F74696669636174696F6E200063616EBE
:1017400063656C005072696E742041626F727465DB
:1017500064004469736D6973730055492041626F79
:101760007274656400726573756D65004D32340086
:101770002A2A2A43506C617920546F6E652A2A2ADE
:10178000003D3D6F6E5072696E7454696D657250A4
:1017900061757365643D3D00486F6D696E672046F5
:1017A00061696C6564006F70656E0054524947470B
:1017B00045524544003A200066696C616D656E745F
:1017C000007A5F6D696E00795F6D696E00785F6D9C
:1017D000696E005265706F7274696E6720656E6421
:1017E00073746F70207374617475730A0020746F62
:1017F0006F206C6F6E6720657874727573696F6E99
:101800002070726576656E7465640A0020636F6C83
:101810006420657874727573696F6E207072657676
:10182000656E7465640A00486F6D652025732573C5
:101830002573204669727374005761726E696E6712
:101840003A20486F6D696E672042756D702044695B
:101850007669736F72203C20310A00020204000096
:101860000000000000000000000000809D43000018
:101870009B430000C84300000041000000410000FD
:1018800000400000000100000001000080005555EC
:1018900055000000400033333300AAAA2A004992C1
:1018A000240000002000C7711C0099991900D1453F
:1018B0001700555515003BB11300244912001111B2
:1018C0001100000010000F0F0F00E3380E004379E5
:1018D0000D00CCCC0C00C3300C00E8A20B0064213E
:1018E0000B00AAAA0A00703D0A009DD80900427B9D
:1018F000090092240900DCD30800888808001042FF
:10190000080000000800F0C1070087870700755035
:101910000700711C07003EEB0600A1BC06006990A1
:10192000060066660600703E06006118060017F4A1
:10193000050074D105005BB00500B290050062722D
:1019400005005555050078390500B81E0500050548
:1019500005004EEC040087D40400A1BD040090A74C
:10196000040049920400C17D0400EE690400C756DA
:101970000400444404005C320400082104004110C7
:101980000400000004003FF00300F8E0030026D24A
:101990000300C3C30300CCB503003AA803000A9BAD
:1019A0000300388E0300C08103009F750300D069D7
:1019B0000300505E03001D53030034480300913DB3
:1019C00003003333030016290300381F0300971563
:1019D0000300300C0300030303000BFA020049F17B
:1019E0000200BAE802005CE002002DD802002DD00F
:1019F000020059C80200B0C0020031B90200DAB1D9
:101A00000200AAAA0200A0A30200BC9C0200FA9550
:101A100002005C8F0200DF88020082820200457CA7
:101A200002002776020027700200436A02007C64ED
:101A30000200D05E02003F590200C8530200FFFDC1
:101A4000FCFAF8F6F4F2F0EEECEAE9E7E5E3E1E0BF
:101A5000DEDCDAD9D7D5D4D2D0CFCDCBCAC8C7C572
:101A6000C3C2C0BFBDBCBAB9B7B6B4B3B2B0AFADF4
:101A7000ACAAA9A8A6A5A4A2A1A09E9D9C9A99984B
:101A80009795949392908F8E8D8B8A898887868480
:101A9000838281807F7E7D7B7A7978777675747397
:101AA0007271706F6E6D6C6B6A696867666564638E
:101AB0006261605F5E5D5C5B5A5958585756555479
:101AC00053525150504F4E4D4C4B4A4A494847464D
:101AD00046454443424241403F3E3E3D3C3B3B3A0B
:101AE00039383837363535343332323130302F2EBD
:101AF0002E2D2C2B2B2A2929282727262525242360
:101B00002322212120201F1E1E1D1C1C1B1B1A19F5
:101B1000191818171616151514131312121111107F
:101B20000F0F0E0E0D0D0C0C0B0A0A090908080701
:101B300007060605050404030302020100003D3DFB
:101B40006F6E5072696E7454696D65725374617210
:101B50007465643D3D0000809D4300009B43000090
:101B6000C8430000000000000000000000003D3DF0
:101B70006F6E53746F726553657474696E67733DED
:101B80003D003D3D6F6E436F6E66696775726174AF
:101B9000696F6E53746F72655772697474656E3DC8
:101BA0003D0053657474696E67732053746F72657A
:101BB00064000A20696E6974207A70726F62655FD2
:101BC0007A6F6666736574203D20003D3D6F6E43FD
:101BD0006F6E66696775726174696F6E53746F7248
:101BE00065526561643D3D00454550524F4D204969
:101BF0006E697469616C697A65640A003B20003A19
:101C00000A0020204D363033200020440020204D93
:101C100034313220530046696C616D656E742072F8
:101C2000756E6F75742073656E736F723A00205510
:101C3000004C0046696C616D656E74206C6F616468
:101C40002F756E6C6F6164206C656E677468733A93
:101C50000020204D3835312058005A2D50726F62C7
:101C600065204F66667365740020204D3431332043
:101C70005300506F7765722D4C6F737320526563FC
:101C80006F766572793A0020440020490020204D8B
:101C900033303420500020440020490020204D33B0
:101CA00030312050005049442073657474696E6768
:101CB000733A00204A00202047323920572049003B
:101CC00020204D3432302053004175746F2042651E
:101CD00064204C6576656C696E673A0020204D3251
:101CE0003036205800486F6D65206F6666736574E6
:101CF0003A0020580020530020204D323035204239
:101D000000416476616E6365643A20423C6D696EA1
:101D10005F7365676D656E745F74696D655F75731C
:101D20003E20533C6D696E5F6665656472617465E3
:101D30003E20543C6D696E5F74726176656C5F66BF
:101D4000656564726174653E20583C6D61785F78AA
:101D50005F6A65726B3E20593C6D61785F795F6A9E
:101D600065726B3E205A3C6D61785F7A5F6A65727E
:101D70006B3E20453C6D61785F655F6A65726B3EC6
:101D80000020540020520020204D323034205000DA
:101D9000416363656C65726174696F6E2028756E4E
:101DA0006974732F7332293A20503C7072696E74D3
:101DB0005F616363656C3E20523C7265747261635F
:101DC000745F616363656C3E20543C747261766538
:101DD0006C5F616363656C3E0020204D32303120C2
:101DE00058004D6178696D756D20416363656C6560
:101DF000726174696F6E2028756E6974732F733207
:101E0000293A0020204D3230332058004D61786946
:101E10006D756D20666565647261746573202875E3
:101E20006E6974732F73293A005374657073207050
:101E3000657220756E69743A0020440020204D328E
:101E400030302053002044697361626C65640A007D
:101E500046696C616D656E742073657474696E6734
:101E6000733A0020286D6D29002020473231202050
:101E700020203B20556E69747320696E206D6D00C3
:101E80003D3D6F6E4C6F616453657474696E67732A
:101E90003D3D000000FA430000FA430000204100ED
:101EA000008C420000A0420000A0420000C8430095
:101EB00080CF43EE020000EE020000640000003C10
:101EC00000000024F4D43050C38E20C2A2401782F8
:101ED0008B7011127A910D816CD90AA861E108C743
:101EE000586607615143061E4B5D05C145A7041A9C
:101EF000411104093D9803713931034036DB026515
:101F0000339102D4305402802E1D02632CEE0175F1
:101F10002AC501B028A001102781018F2564012B5B
:101F2000244B01E0223401AC211F018D200D0180E2
:101F30001FFC00841EED00971DDF00B81CD200E6D8
:101F40001BC600201BBC00641AB200B219A8000A0C
:101F500019A0006A189900D117910040178B00B59D
:101F600016840031167E00B31579003A157300C748
:101F7000146F0058146A00EE13660088136300257E
:101F8000135E00C7125B006C12570015125400C19B
:101F900011510070114F0021114B00D61049008DD6
:101FA0001047004610440002104200C00F4000805D
:101FB0000F3E00420F3C00060F3B00CB0E38009353
:101FC0000E37005C0E3500270E3400F30D3200C1D1
:101FD0000D3100900D3000600D2E00320D2D0005EA
:101FE0000D2C00D90C2B00AE0C2900850C29005CAF
:101FF0000C2700350C27000E0C2600E80B2400C42B
:102000000B2400A00B23007D0B23005A0B21003969
:102010000B2100180B2000F80A1F00D90A1E00BB74
:102020000A1E009D0A1D00800A1D00630A1C00474D
:102030000A1B002C0A1B00110A1A00F7091A00DDFE
:10204000091900C4091900AB091900920917007B8E
:10205000091800630917004C0916003609160020FC
:102060000916000A091500F5081500E0081400CC4F
:10207000081400B8081400A4081400900813007D88
:102080000812006B081300580812004608120034AA
:10209000081100230811001208110001081100F0B6
:1020A000071000E0071000D0071000C0071000B0B4
:1020B000070F00A107100091070E0083070F00749F
:1020C000070F0065070E0057070E0049070E003B7B
:1020D000070D002E070E0020070D0013070D000648
:1020E000070D00F9060C00ED060D00E0060C00D40B
:1020F000060C00C8060C00BC060C00B0060C00A4C0
:10210000060B0099060C008D060B0082060B00776B
:10211000060B006C060B0061060A0057060B004C0C
:10212000060A0042060A0038060A002E060A0024A3
:10213000060A001A060A001006090007060A00FD32
:10214000050900F4050900EB050900E2050900D9BD
:10215000050900D0050900C7050900BE050900B53D
:10216000050800AD050800A50509009C05080094B8
:102170000508008C050800840508007C050800742B
:102180000508006C050700650508005D0507005699
:102190000508004E05070047050700400508003800
:1021A000050700310507002A050700230507001C65
:1021B000050600160507000F0507000805060002C2
:1021C000050700FB040600F5040700EE040600E81E
:1021D000040600E2040700DB040600D5040600CF75
:1021E000040600C9040600C3040600BD040600B7C7
:1021F000040600B1040500AC040600A6040600A015
:102200000405009B04060095040500900406008A5E
:1022100004050085040500800406007A04050075A5
:10222000040500700405006B0405006604050061E8
:102230000405005C04050057040500520405004D28
:1022400004050048040500430405003E0404003A68
:1022500004050035040500300404002C04050027A3
:10226000040400230405001E0404001A04040016DC
:10227000040500110404000D040400090405000411
:1022800004040000040400FC030400F8030400F448
:10229000030400F0030400EC030400E8030400E47A
:1022A000030400E0030400DC030400D8030400D4AA
:1022B000030400D0030400CC030400C8030300C5DA
:1022C00003030024F404D9201BC40C5C0E9804C43E
:1022D000095F0265077101F405F900FB04B30048CA
:1022E000048700C10369005803550003034500BE7D
:1022F000023A008402310053022A00290225000418
:10230000022000E4011C00C8011900AF0117009869
:1023100001140084011300710110006101100051CB
:10232000010E0043010D0036010B002B010B0020B4
:10233000010B00150109000C01090003010800FB55
:10234000000800F3000800EB000700E4000600DED0
:10235000000600D8000600D2000600CC000500C729
:10236000000500C2000500BD000400B9000400B56E
:10237000000400B1000400AD000400A9000400A5A1
:10238000000300A20003009F0004009B00030098CC
:102390000003009500020093000300900003008DED
:1023A0000002008B00030088000200860002008407
:1023B000000300810002007F0002007D0002007B1C
:1023C000000200790002007700010076000200742C
:1023D00000020072000100710002006F0002006D37
:1023E0000001006C0002006A000100690002006741
:1023F0000001006600010065000100640002006247
:1024000000010061000100600001005F0002005D4A
:102410000001005C0001005B0001005A000100594E
:10242000000100580001005700010056000100554E
:10243000000100540001005300000053000100524D
:1024400000010051000100500001004F0001004E4A
:102450000000004E0001004D0001004C0001004B47
:102460000000004B0001004A000100490001004843
:10247000000000480001004700010046000000463F
:102480000001004500000045000100440001004338
:102490000000004300010042000000420001004132
:1024A00000000041000100400001003F0000003F2B
:1024B0000001003E0000003E0001003D0000003D24
:1024C0000001003C0000003C0000003C0001003B1B
:1024D0000000003B0001003A0000003A0001003912
:1024E000000000390001003800000038000000380A
:1024F0000001003700000037000100360000003600
:1025000000000036000100350000003500000035F5
:1025100000010034000000340000003400010033EA
:1025200000000033000000330001003200000032E0
:1025300000000032000100310000003100000031D5
:102540000001003000000030000000300001002FCA
:102550000000002F0000002F0000002F0001002EBF
:102560000000002E0000002E0001002D0000002DB4
:102570000000002D0000002D0001002C0000002CA8
:102580000000002C0000002C0001002B0000002B9C
:102590000000002B0000002B0001002A0000002A90
:1025A0000000002A0000002A000100290000002984
:1025B0000000002900000029000000290001002877
:1025C000000000280000002800000028000000286B
:1025D000000100270000002700000027000000275E
:1025E0000000002700010026000000260000002651
:1025F0000000002600000026000100250000002544
:102600000000002500000025000000250000002536
:102610000001002400000024000000240000002429
:10262000000000240001002300000023000000231C
:10263000000000230000002300000023000000230E
:102640000001002200000022000000220000002201
:1026500000000022000000220001002100000021F3
:1026600000000021000000210000002100000021E6
:1026700000000021000100200000002000000020D8
:1026800000000020000000200000002000000020CA
:10269000000000200001001F0000001F0000001FBC
:1026A0000000001F0000001F0000001F0000001FAE
:1026B0000001001E0000001E0000001E0000001EA1
:1026C000000000393000003325000087190000B0F9
:1026D0000F0000DB080000BD040000740200003F92
:1026E00001000020436F756E7420583A0023646522
:1026F00066696E652044454641554C545F00006252
:102700006564004B6420004B6920004B7020005032
:102710004944204175746F74756E652066696E69F1
:1027200073686564212050757420746865206C613D
:102730007374204B702C204B6920616E64204B64B5
:1027400020636F6E7374616E74732066726F6D2098
:1027500062656C6F7720696E746F20436F6E666977
:102760006775726174696F6E2E680A005049442063
:102770004175746F74756E65206661696C6564215E
:102780002074696D656F75740A0050494420417565
:10279000746F74756E65206661696C656421205480
:1027A000656D706572617475726520746F6F2068F5
:1027B0006967680A00204B643A2000204B693A2080
:1027C00000204B703A200020436C617373696320D2
:1027D000504944200A00204E6F206F76657273685E
:1027E0006F6F740A002054753A2000204B753A2010
:1027F00000206D61783A2000206D696E3A2000203B
:10280000643A200020626961733A200050494420F4
:102810004175746F74756E652073746172740A000B
:10282000504944204175746F74756E652066616906
:102830006C6564212054656D706572617475726594
:1028400020746F6F20686967680A004265640045FC
:102850003100626564002C2073797374656D207398
:10286000746F7070656421204865617465725F499A
:10287000443A200048656174696E67204661696C5E
:1028800065640048656174696E67206661696C659E
:1028900064004D3131322053687574646F776E0077
:1028A0001000C90210012C01400122017001180121
:1028B000B0010E01F00104015002FA00B002F00074
:1028C0003003E600D003DC009004D2007005C8009D
:1028D000A006BE000008B400B009AA00D00BA000FA
:1028E000600E960060118C0000158200201978009F
:1028F000C01D6E00A0226400B0275A00902C50002A
:1029000000314600E0343C0010383200903A280094
:10291000603C1E00A03D1400803E0A00203F0000E5
:10292000544845524D414C2052554E415741590053
:10293000546865726D616C2052756E6177617900C3
:102940004572723A204D415854454D50004D415802
:1029500054454D502074726967676572656400451F
:1029600072723A204D494E54454D50004D494E54D7
:10297000454D502074726967676572656400202F49
:10298000002042403A0020403A0020573A002057A9
:102990003A00496E76616C6964206578747275647A
:1029A00065720A007C3C3E5E2B3D3F2F5B5D3B2CFD
:1029B0002A225C0043616E6E6F74206F70656E201A
:1029C0007375626469722000534420496E697420F3
:1029D0004661696C0053442063617264206F6B0A26
:1029E000006F70656E526F6F74206661696C65640C
:1029F0000A00766F6C756D652E696E69742066616C
:102A0000696C65640A004E6F2053442063617264F0
:102A10000A000A4D3234004D3233202573002E0A4D
:102A2000006F70656E206661696C65642C20466974
:102A30006C653A200046696C652073656C6563744B
:102A400065640A002053697A653A200046696C651E
:102A5000206F70656E65643A2000454E44205355E2
:102A600042524F5554494E450A002220706F730060
:102A70002220706172656E743A2200535542524FA3
:102A80005554494E452043414C4C20746172676552
:102A9000743A220053756263616C6C204F766572E4
:102AA000666C6F77004578636565646564206D6169
:102AB0007820535542524F5554494E452064657015
:102AC00074683A002E0A0044656C6574696F6E2064
:102AD0006661696C65642C2046696C653A20004625
:102AE000696C652064656C657465643A00534420C4
:102AF0007072696E74696E67206279746520004E29
:102B00006F74205344207072696E74696E670A0096
:102B100057726974696E6720746F2066696C653AD4
:102B20002000667265736800646F696E67002066D6
:102B3000696C653A20004E6F7720002F6175746FC5
:102B400025632E67002020506C616E6E65724275A1
:102B50006666657242797465733A20002046726534
:102B600065204D656D6F72793A2000436F6D706915
:102B70006C65643A20417072203234203230323138
:102B80000A00204C61737420557064617465643A66
:102B900020323032312D30342D3138207C204175B7
:102BA00074686F723A20426F6E6474656368202F98
:102BB00020496E73616E6974794175746F6D6174CB
:102BC000696F6E0A00322E302E375F4457372E332E
:102BD0000A004D61726C696E0020536F66747761F4
:102BE00072652052657365740A00205761746368CA
:102BF000646F672052657365740A002042726F77B4
:102C00006E206F75742052657365740A00204578D4
:102C10007465726E616C2052657365740A00506F42
:102C200077657255700A0073746172740A004732D6
:102C3000385859004D31303031006572726F722052
:102C400077726974696E6720746F2066696C650AB3
:102C500000446F6E6520736176696E672066696CEB
:102C6000652E0A004D323900456E6473746F7073BF
:102C7000002553202563202563202563202563003C
:102C8000205A3A0020593A0020583A00656E647381
:102C9000746F7073206869743A2000300B0000F084
:102CA0000C3200900E6400001096006011C800B055
:102CB00012FA00E0132C0100155E010016900100CD
:102CC00017C201F017F40100000A0B02090C0D0EE7
:102CD00008070304010000000000000000000000DD
:102CE00000000000000000000000000000000000E4
:102CF00000000012111000000000000000000000A1
:102D000000000000000000000000000000FFFFFFC6
:102D100050726F62696E67204661696C656400205D
:102D20005A3A200020593A200042656420583A203F
:102D3000003D3D6F6E55736572436F6E6669726DCF
:102D400052657175697265643D3D00220A00556ED9
:102D50006B6E6F776E20636F6D6D616E643A2022CB
:102D6000002042002050006F6B00204500205A00D8
:102D7000205900204D393220580020453A00205A71
:102D80003A0020593A00583A0020746F6F206C6F57
:102D90006E6720657874727573696F6E20707265E6
:102DA00076656E7465640A0020636F6C64206578D4
:102DB00074727573696F6E2070726576656E746576
:102DC000640A0043616E6E6F7420656E74657220D4
:102DD0007375626469723A20004D323520500A4D95
:102DE000323400526573756D650055492050617528
:102DF0007365004E6F204D61746368203A00506720
:102E00005570005067446F776E0049732046696CB7
:102E10006520004973204469722000476F55704453
:102E2000697200486173204D656469610046696C90
:102E3000656E616D652053656C6563746564004DF6
:102E40003130303043004D313030300046696C61F4
:102E50006D656E7420537461742030202D20330012
:102E600046696C616D656E74205374617420302006
:102E70002D20320046696C616D656E74205374615B
:102E8000742030202D2031002046696C616D656E04
:102E90007420526573706F6E7365204E6F005265BB
:102EA00073756D652059657320647572696E67204E
:102EB0007072696E74000A204E6F2046696C616DF5
:102EC000656E7400496E76616C6964204F70746938
:102ED0006F6E004D3530300053746F72652053654E
:102EE0007474696E677300426564205049442053CE
:102EF000746172746564004D3939390A4D32383065
:102F000050305331363000424C546F756368205254
:102F100065736574004D3530320A4D3530300049E7
:102F20006E697420454550524F4D00486F74656E70
:102F30006420504944205374617274656400456E86
:102F4000676C69736820416C7265616479205365B0
:102F500074004368696E657365204E6F7420537505
:102F600070706F7274656400496E4C616E6743687F
:102F70006F696365000A202A2A2A72656364617496
:102F80002E646174615B305D203D004732380A4732
:102F900031204631303030205A313000556E737553
:102FA00070706F72746564204F7074696F6E205317
:102FB000656C65637465640047323652323535009E
:102FC0004D3139305335350A4732380A4732390ADC
:102FD0004D3430300A4D313034533231350A4732B6
:102FE000380A4D313039533231350A4D343230538D
:102FF000310A473158313030593130304635303070
:10300000300A47315A300A4D3530300A4D313137A8
:1030100020536574205A204F6666736574004731EB
:10302000204631303030205A302E30004732380AB6
:103030004731204631303030205A302E30004D3567
:103040003030005A204F6666736574203A2025732D
:10305000004D353030005A204F6666736574203A53
:10306000202573004732380A473146313530305A0F
:10307000302E30004732385A0A4731463135303029
:103080005A302E30004D3834004731463130303020
:103090005A302E30004732380A473146313030300E
:1030A0005A302E30004D616E75616C5365745465F5
:1030B0006D70005A204F6666736574203A20257340
:1030C0000053746F7020547269676765726564009D
:1030D00053746F70204E6F0053746F705072696E2E
:1030E000740048616E646C652044617461204164C1
:1030F0006A75737420322053657474696E67205347
:10310000637265656E200048616E646C6520446181
:103110007461205072696E7446696C652033205367
:10312000657474696E672053637265656E2000482C
:10313000616E646C652044617461205072696E74C4
:1031400046696C6520322053657474696E6720533C
:10315000637265656E20004D38340048616E646CA2
:10316000652044617461205072696E7446696C65B3
:1031700020506F73740048616E646C652044617404
:1031800061205072696E7446696C652050726500EA
:10319000426567696E537769746368003D3D2043FB
:1031A0006865636B6B65793D3D007265636461744E
:1031B0002E61646472203D3D007265636461742E0B
:1031C000646174615B305D203D3D007761697477B7
:1031D0006179203D3D0020202A2A2A2A2A2A2A52C3
:1031E00054535F48616E646C65446174612A2A2A95
:1031F0002A2A2A2A2A2000526573656E643A200022
:1032000000002200250028002B002E003100340091
:1032100002010000050108010B010000210024004B
:1032200027002A002D0030003300010100000401B6
:1032300007010A0105050505070508080808020237
:1032400002020A0A08080404040401010101010140
:1032500001010303030303030303040707070C0C23
:103260000C0C0C0C0C0C02020202060606060606EA
:1032700006060B0B0B0B0B0B0B0B0102102020088F
:1032800008102040102040800201020108040201C1
:103290000102040810204080804020100804020130
:1032A0008004020180402010080402010804020189
:1032B0000102040810204080010204081020408010
:1032C000444458203130532050726F20526561645D
:1032D000792E005072696E74696E672E2E2E005022
:1032E00072696E7420506175736564006E6F7469E5
:1032F0006669636174696F6E20005049442054759B
:103300006E652046696E69736865640040018801D6
:1033100011241FBECFEFD1E2DEBFCDBF00E00CBF56
:1033200014E0A0E0B2E0EAEFF2E502E00BBF02C079
:1033300007900D92A030B107D9F725E1A0E0B4E0E5
:1033400001C01D92AD3DB207E1F719E1C7E8D9E12F
:1033500000E006C021970109802FFE010F94AA25E5
:10336000C638D10780E00807A9F70F94C8130D9459
:103370006B290C9400009F92AF92BF92CF92DF9284
:10338000EF92FF920F931F93CF93DF9300D01F9282
:103390001F92CDB7DEB7EEE3FAE10027BB27462F39
:1033A000572FA82FAA2341F4A52F542FB85FAA2383
:1033B00019F4A52F5527B85FA03138F45295A2957E
:1033C000452F4F70507FA42BBC5FA03428F4550FBD
:1033D000AA1F550FAA1FBE5FA03818F4550FAA1FC9
:1033E000B395550FAA1FEA0FF01F449151E0AA2789
:1033F000B85081F1C8F0B0FF02C0440F551FB1FFB3
:1034000004C0440F551F440F551FB2FF06C052950C
:103410004295142F1F70407F512BB3FF1BC0A52F67
:10342000542F44270C942A1AB195B0FF02C0559529
:103430004795B1FF04C05595479555954795B2FFFF
:1034400005C05295407F4295452B5F70B3FF02C087
:10345000452F5527DD24CC24BB24B2E0649FD0182F
:10346000C108B00AB00B749FC018B108B00B849F9C
:10347000B018B109659FC018B108B00B759FB0189E
:10348000B109859FB0196A9FB018B1097A9FB01928
:103490004D9DA12C99243327992722275D9DA00CAF
:1034A000911C301F901F201FAD9D900C311D901F4F
:1034B000201F4C9DA00C911C301F901F201F5C9D55
:1034C000900C311D901F201FAC9D300D911D201FB1
:1034D0004B9D900C311D901F201F5B9D300D911D49
:1034E000201FAB9D900D211D4B9F300D911D201F66
:1034F0005B9F900D211DAB9F200DB1E0BB24CC2420
:10350000DD24639FD018C108B00AB00B739FC018A8
:10351000B108B00B839FB018B109699FC018B108FA
:10352000B00B799FB018B109899FB019629FB0188C
:10353000B109729FB019D61AC70AB80A20F0B1E0D3
:103540003B0F901F201F1124792F632F90E0822FB3
:103550000F900F900F900F900F90DF91CF911F91D0
:103560000F91FF90EF90DF90CF90BF90AF909F9022
:103570000895AF92BF92CF92DF92EF92FF920F9396
:103580001F93CF93DF93C7E3DCE006EE18E087E4F8
:10359000A82E8CE0B82EC12CD12C7601C394699151
:1035A0007991899199910F94F41E288939894A89D2
:1035B0005B890F94551F0F942627F801619371932F
:1035C000819391938F01C616D706E806F90610F489
:1035D0006B017C01AC16BD0611F76FEF7FEFCB01DD
:1035E000A70196010F9433252093F6083093F7082E
:1035F0004093F8085093F908DF91CF911F910F91F4
:10360000FF90EF90DF90CF90BF90AF900895CF9252
:10361000DF92EF92FF928091F207882309F457C05E
:10362000C090EE07D090EF07E090F007F090F10720
:1036300020E030E0A901C701B6010F94EF1E8823F6
:1036400009F445C020E030E040E05FE3C701B60187
:103650000F94551F9B01AC010F94551F2BED3FE0BC
:1036600049E450E40F94551F9B01AC0160E070E009
:1036700080E89FE30F94AD266B017C01C092330C70
:10368000D092340CE092350CF092360C60916502C9
:1036900070916602072E000C880B990B0F94F61E92
:1036A0002AE037ED43E25CE30F94551FA701960132
:1036B0000F94551F609361027093620280936302BE
:1036C00090936402FF90EF90DF90CF900895C12C0B
:1036D000D12C80E8E82E8FE3F82ED0CF0F931F93E4
:1036E000CF93DF9350E0FC01E40FF51F8081440F7E
:1036F000551F440F551F44565A4FEA01882329F19C
:1037000088819981AA81BB81EB01088119812A8175
:103710003B810097A105B10569F40C591F4F2F4F4C
:103720003F4FDA010D931D932D933C9313978FEF29
:10373000808306C0081B190B2A0B3B0B37FDF7CF04
:10374000DF91CF911F910F910895188219821A82EB
:103750001B82F6CFCF93DF9324E0829FC001112418
:10376000EC01C753D74FFC01E150F84F8D50984FF3
:10377000DC012D913D914D915C916081718182813F
:1037800093810F94B325688379838A839B83DF9128
:10379000CF9108958091970590919805A0919905F2
:1037A000B0919A058093410290934202A093430204
:1037B000B09344028091950590919605909368028C
:1037C0008093670208958091410290914202A091F6
:1037D0004302B09144028093970590939805A0937B
:1037E0009905B0939A058091670290916802909331
:1037F00096058093950584E690E090936802809307
:10380000670208958091361290913712891B877054
:1038100089F480918A0D81110DC080917F0C909167
:10382000800C892B39F481E09091A506911103C099
:1038300080E0089581E00895CF93DF93DB01F901E3
:103840009C919130C1F0943080F094509C938830DA
:10385000D1F480819181009771F0019791838083E9
:10386000480F591FEA01188206C08C3539F49C5F55
:103870009C93943041F4DF91CF9108958B3339F7C5
:1038800081E08C93F8CF20813181B9016F5F7F4F48
:1038900071836083420F531FEA0188838081918185
:1038A0008F3591056CF7E7CF0F931F9381E000915F
:1038B000DA131091DB132091DC133091DD1340916A
:1038C000D6135091D7136091D8137091D913041760
:1038D00015072607370708F480E01F910F91089518
:1038E00090E080E00895282F9091ED07833021F437
:1038F00095FD0FC094FD0FC0892F90E0B0E0A0E0CF
:1039000004C0B695A795979587952A95D2F78170AB
:10391000089581E0089580E00895FC016591759116
:103920008591949108958F929F92AF92BF92CF927A
:10393000DF92EF92FF92CF93DF93EC018090C50866
:103940009090C608A090C708B090C80820E030E06A
:10395000A901C501B4010F94EF1E882309F454C0D6
:10396000C880D980EA80FB80A7019601C501B40117
:103970000F94EF1E18160CF04CC02091BD0830912A
:10398000BE084091BF085091C008C701B6010F940E
:10399000EF1E882331F1C092BD08D092BE08E0929C
:1039A000BF08F092C0082091C1083091C208409130
:1039B000C3085091C408688179818A819B810F94E2
:1039C000551F9B01AC0160E070E080E89FE30F941D
:1039D000B22560930F0270931002809311029093AE
:1039E000120260910F027091100280911102909169
:1039F0001202DF91CF91FF90EF90DF90CF90BF90B8
:103A0000AF909F908F90089560E070E080E89FE312
:103A1000F0CF60E070E0CB01ECCFCF92DF92EF927D
:103A2000FF92CF93DF93EC01CC80DD80EE80FF80AE
:103A300027E137EB41ED58EBC701B6010F9413288E
:103A400087FD23C023E030E04BE953E4C701B60112
:103A50000F94EF1E1816CCF0C880D980EA80FB8046
:103A600027E137EB41ED58EBC701B6010F9413285E
:103A700087FD0BC0C1E023E030E84DE953E4C70106
:103A8000B6010F94EF1E18160CF4C0E08C2FDF91D6
:103A9000CF91FF90EF90DF90CF9008952FEB280FFC
:103AA0002A3108F047C0E22FF0E080913405909170
:103AB0003505A0913605B091370504C0B695A79598
:103AC000979587952A95D2F780FD02C08170089559
:103AD000EA5EFA4FE081EE2341F1809183079091F5
:103AE0008407E80FF92FF11D808190ED980F9A302F
:103AF00030F08E3251F4818180538A3098F4F09303
:103B00000505E093040581E008958D3211F08B32B4
:103B100049F4818190ED980F9A3088F38E3211F438
:103B20008281EACFF0E0E0E0EACF10920505109242
:103B30000405E9CF80E008950E944E1D882341F0DE
:103B400081E02091040530910505232B09F480E0E4
:103B500008958F929F92AF92BF92CF92DF92EF9291
:103B6000FF92C090D305D090D405E090D505F09099
:103B7000D60520E030E0A901C701B6010F94EF1E81
:103B80008823E1F1A701960160E070E080E89FE3FF
:103B90000F94AD266B017C018090D7059090D805DD
:103BA000A090D905B090DA0520E030E0A901C50168
:103BB000B4010F94EF1E882329F1A501940160E060
:103BC00070E080E89FE30F94AD26C092DA04D092B3
:103BD000DB04E092DC04F092DD046093DE04709379
:103BE000DF048093E0049093E104FF90EF90DF9076
:103BF000CF90BF90AF909F908F900895C12CD12C03
:103C00007601CACF60E070E0CB01DFCF129A089551
:103C10005F9A8091310C8E7F8093310C8A9A8091CB
:103C2000310C8D7F8093310C8091080180958170DB
:103C3000809306018091310C8B7F8093310C0C9422
:103C4000061E269A2E9A08958C3221E0920714F0CF
:103C50008CE291E09093E7118093E6110C946EF75B
:103C6000EFE0F6E0108211821282138214820C942B
:103C70006EF74F925F926F927F928F929F92AF9268
:103C8000BF92CF92DF92EF92FF920F931F93CF9349
:103C9000DF93EC012091CB053091CC054091CD050F
:103CA0005091CE05688179818A819B810F94B225DC
:103CB0006B017C012091CF053091D0054091D10559
:103CC0005091D2056C817D818E819F810F94B225A8
:103CD0004B015C01A70196016091030270910402FF
:103CE00080910502909106020F94EF1E882309F43B
:103CF00050C0C0920302D0920402E0920502F092FA
:103D000006022091DA043091DB044091DC045091EA
:103D1000DD04C701B6010F94551F2B013C010F9420
:103D200055276B017C0120E030E0A9010F94EF1EC4
:103D300087FD70C020E030E040E450E4C701B601E8
:103D40000F94132818162CF4C12CD12CC0E4EC2E9F
:103D5000FE2CA7019601C301B2010F94B225609316
:103D6000D2047093D3048093D4049093D504C701F4
:103D7000B6010F941F276093D004062E000C770B1A
:103D80006F5F7F4F6430710514F064E070E0609302
:103D9000CE04D09101021091D004A501940160914C
:103DA0000702709108028091090290910A020F9413
:103DB000EF1E811133C0D11381C02091B604309120
:103DC000B7044091B8045091B9046091D204709145
:103DD000D3048091D4049091D5040F94551F209161
:103DE000BA043091BB044091BC045091BD040F94BF
:103DF000B325DF91CF911F910F91FF90EF90DF904E
:103E0000CF90BF90AF909F908F907F906F905F907A
:103E10004F900895C12CD12C76019BCF8092070240
:103E200090920802A0920902B0920A022091DE0448
:103E30003091DF044091E0045091E104C501B401E8
:103E40000F94551F4B015C010F9455276B017C01AA
:103E500020E030E0A9010F94EF1E87FDF3C020E0C1
:103E600030E040E450E4C701B6010F94132818165F
:103E70002CF4C12CD12CB0E4EB2EFE2CA701960122
:103E8000C501B4010F94B2256093D6047093D70492
:103E90008093D8049093D904C701B6010F941F27CB
:103EA0006093D104062E000C770B6F5F7F4F643058
:103EB000710514F064E070E06093CF04C091D10408
:103EC000D11305C0809102028C1709F470C0809153
:103ED000D0049091D10490930202809301020C2EA1
:103EE000000CDD0B25E01203C0011124FC01EC0FD6
:103EF000FD1FEE0FFF1FEE0FFF1FE757F84F20814A
:103F00003181428153812093CA043093CB04409382
:103F1000CC045093CD040091CF04002E000C110B63
:103F2000FC01E00FF11FEE0FFF1FEE0FFF1FE75721
:103F3000F84F60817181828193810F94B2256093E3
:103F4000C6047093C7048093C8049093C904209159
:103F5000CE0435E02303F0011124CE0FDF1FCC0F78
:103F6000DD1FCC0FDD1FC757D84F288139814A810B
:103F70005B812093C2043093C3044093C4045093E4
:103F8000C504E00FF11FEE0FFF1FEE0FFF1FE757F5
:103F9000F84F60817181828193810F94B225609383
:103FA000BE047093BF048093C0049093C1048090BA
:103FB000D6049090D704A090D804B090D904209152
:103FC000C6043091C7044091C8045091C904C5018A
:103FD000B4010F94551F2091CA043091CB04409135
:103FE000CC045091CD040F94B3256B017C01C09299
:103FF000BA04D092BB04E092BC04F092BD042091BC
:10400000BE043091BF044091C0045091C104C50169
:10401000B4010F94551F2091C2043091C304409104
:10402000C4045091C5040F94B325A70196010F94C1
:10403000B2256093B6047093B7048093B80490934C
:10404000B904BBCEC12CD12C760118CFCF92DF9210
:10405000EF92FF92CF93DF93EC0108960E94931C9E
:104060006B017C0120E030E0A9010F94EF1E20E0FD
:1040700030E0A901882359F0CE010E94391E9B012E
:10408000AC01C701B6010F94551F9B01AC016885B7
:1040900079858A859B850F94B225688779878A8779
:1040A0009B87DF91CF91FF90EF90DF90CF900895A5
:1040B0002F923F924F925F926F927F928F929F9238
:1040C000AF92BF92CF92DF92EF92FF920F931F9326
:1040D000CF93DF93D62FC72FFC0180809180A280E1
:1040E000B380C501B40120E831E541E050E00F9410
:1040F0003325C9016DE671E00F9496256B017C01B3
:10410000C501B40120E13EE040E050E00F943325CA
:10411000CA01B90128E130E040E050E00F943325B6
:10412000362E272E062F172F8CE3482E512C612C6C
:10413000712CC501B401A30192010F943325B62E51
:10414000A72ECA01B901A30192010F943325CB0117
:10415000C114D10479F1AF92BF927F936F932F92E4
:104160003F92FF92EF92DF92CF9288E496E19F9385
:104170008F93CF93DF930F94861E8DB79EB70E96C5
:104180000FB6F8949EBF0FBE8DBF8D2F9C2FDF9171
:10419000CF911F910F91FF90EF90DF90CF90BF9044
:1041A000AF909F908F907F906F905F904F903F90D7
:1041B0002F900895E114F104C9F0AF92BF927F935C
:1041C0006F932F923F92FF92EF9288E396E19F9335
:1041D0008F93CF93DF930F94861EEDB7FEB73C9677
:1041E0000FB6F894FEBF0FBEEDBFCFCF012BB9F0D5
:1041F000AF92BF927F936F932F923F928CE296E1A2
:104200009F938F93CF93DF930F94861E8DB79EB7A6
:104210000A960FB6F8949EBF0FBE8DBFB6CF892BFE
:10422000A9F0AF92BF927F936F9384E296E19F9340
:104230008F93CF93DF930F94861EEDB7FEB738961A
:104240000FB6F894FEBF0FBEEDBF9FCFAF92BF92E7
:1042500080E296E19F938F93CF93DF930F94861E16
:104260000F900F900F900F900F900F908ECFEF92B6
:10427000FF920F931F93CF93DF93CDB7DEB78C01DF
:10428000EDB6FEB60F943C1E01962DB73EB7281B27
:10429000390B0FB6F8943EBF0FBE2DBF8DB79EB73A
:1042A0000196B8010F94351E0E94C0F20FB6F89423
:1042B000FEBE0FBEEDBEDF91CF911F910F91FF901B
:1042C000EF9008958C38910514F08CE890E090936D
:1042D0007C1180937B110C9436B8AB01BC014093E8
:1042E000DA135093DB136093DC137093DD1382E4D5
:1042F00095E10C94EEA82F923F924F925F926F92AD
:104300007F928F929F92AF92BF92CF92DF92EF9265
:10431000FF920F931F93CF93DF93CDB7DEB76097D4
:104320000FB6F894DEBF0FBECDBF8B876C87042F0E
:10433000122F282F30E03E872D87462F50E05A87D6
:10434000498785E0982E929EC001939E900D11247E
:10435000988B8F87FA01E80FF91FEE0FFF1FEE0F02
:10436000FF1FE757F84F60817181828193819B0124
:10437000AC010F94A528882309F445C14B85400F53
:104380006C85610F949EC0011124E985FA85E80FC0
:10439000F91FEE0FFF1FEE0FFF1FE757F84FC0800A
:1043A000D180E280F380040F909EA0011124E98562
:1043B000FA85E40FF51FEE0FFF1FEE0FFF1FE75703
:1043C000F84F0081918082807380262F30E0EF8546
:1043D000F889E20FF31FEE0FFF1FEE0FFF1FE757E5
:1043E000F84F20807181798372817A8373817B8316
:1043F000610F70E0EF85F889E60FF71FEE0FFF1FE2
:10440000EE0FFF1FE757F84FF88BEF87F081FC8323
:10441000EF85F889F181FD83EF85F889F281FE83CC
:10442000EF85F889F381FF83FC01E20FF31FEE0FA4
:10443000FF1FEE0FFF1FE757F84F20812887A1804D
:10444000B2806380FA01E60FF71FEE0FFF1FEE0F39
:10445000FF1FE757F84F4080518032801381202F93
:10446000392D482D572D602F792D882D972D0F949C
:10447000A528882321F000E0912C812C712C960135
:10448000A701B601C7010F94A528882321F0C02EEB
:10449000D92CE82CF72C2C813D814E815F816C81D9
:1044A0007D818E819F810F94A528882321F01C8215
:1044B0001D821E821F82222D39814A815B81622DDD
:1044C00079818A819B810F94A528882339F02C80DB
:1044D0003D8139834E814A835F815B839201432D05
:1044E000512FB201832D912F0F94A528882321F0FD
:1044F000412C512C312C10E028853A2D4B2D562D76
:1045000068857A2D8B2D962D0F94A528882321F070
:104510004886A52CB32C612E85E02D853E85829F93
:10452000F001839FF00D112449855A85E40FF51F92
:10453000EE0FFF1FEE0FFF1FE757F84FFA87E987CF
:104540009601A701B601C7010F94B325202F392D7D
:10455000482D572D0F94B2256B017C01222D3981F6
:104560004A815B81622D79818A819B810F94B32579
:104570002C813D814E815F810F94B2259B01AC015E
:10458000C701B6010F94B3256B017C0128853A2D34
:104590004B2D562D68857A2D8B2D962D0F94B32596
:1045A0009201432D512F0F94B2259B01AC01C701FD
:1045B000B6010F94B32520E030E040E450E40F94BE
:1045C000AD26E985FA8560837183828393836C8548
:1045D0008B8560960FB6F894DEBF0FBECDBFDF911E
:1045E000CF911F910F91FF90EF90DF90CF90BF90F0
:1045F000AF909F908F907F906F905F904F903F9083
:104600002F900C9471F160960FB6F894DEBF0FBE38
:10461000CDBFDF91CF911F910F91FF90EF90DF9071
:10462000CF90BF90AF909F908F907F906F905F9052
:104630004F903F902F90089580910405909105052B
:10464000009731F04AE050E070E060E00D940A1D00
:1046500060E070E0CB01089580910405909105051C
:10466000009731F04AE050E070E060E00D94DC1B10
:1046700060E070E0CB010895CF93DF93EB010E94DF
:104680009C1D882319F00E942C23EB01CE01DF91A1
:10469000CF9108950E942C2397FD0CC00E942C23DB
:1046A0006F3F71058105910509F034F40E942C23B8
:1046B000862F089580E008958FEF0895CF93C62F39
:1046C0000E949C1D882319F0CF910C944A238C2FB3
:1046D000CF9108958091040590910505892B41F0B3
:1046E0000E944A2391E0811101C090E0892F089532
:1046F00091E0FCCFCF93DF93C82FD62F0E949C1D53
:10470000882321F0DF91CF910C946A238C2F0E9493
:104710004E1D811101C08D2FDF91CF9108950E9410
:104720002C23CB010895CF93DF93EB010E949C1DB6
:10473000882321F0DF91CF910C948F23CE01DF915C
:10474000CF9108950F931F93CF938091040590917B
:1047500005050097E9F0FC018F01C1912C2F2F7DF9
:1047600081F0C53411F0C536B9F7F801108270E058
:1047700060E00F947E1AF801C083CF911F910F91D2
:10478000089570E060E0CF911F910F910D947E1A13
:1047900060E070E0CB01F1CFCF92DF92EF92FF9219
:1047A0006A017B010E949C1D882331F0FF90EF90ED
:1047B000DF90CF900C94A223C701B601FF90EF9039
:1047C000DF90CF9008954F925F926F927F928F9279
:1047D0009F92AF92BF92CF92DF92EF92FF921F9380
:1047E000CF93DF9300D01F92CDB7DEB719821A8224
:1047F0001B821C82CE0101964C0180E7C82E87E007
:10480000D82E91E2E92E9CE0F92E29ECA22E28E088
:10481000B22E10E088E5810F0E949C1DF401819367
:104820004F01882309F4E0C00E94A2232B013C0120
:10483000812F0E94731C882309F4CCC0F7012081CA
:10484000318142815381C301B2010F94B325F60136
:1048500060837183828393831F5FF4E0CF0ED11C4A
:1048600084E0E80EF11C94E0A90EB11C133091F61F
:1048700085E40E949C1D8C83882309F4C0C00E949B
:10488000A2236B017C0183E00E94731C882371F0DA
:1048900020912D0C30912E0C40912F0C5091300C0A
:1048A000C701B6010F94B3256B017C01C0927C0750
:1048B000D0927D07E0927E07F0927F078091CA0533
:1048C000882359F18091DE1382FF27C08C818823D1
:1048D00021F18981811103C08A818823F1F02DECB7
:1048E0003CEC4CE45DE360911408709115088091F4
:1048F0001608909117080F94B3259B01AC016091A5
:10490000290C70912A0C80912B0C90912C0C0F94F7
:104910001328181614F40E94B7F040E050E0BA01D2
:1049200086E40E94CC2320E030E0A9010F941328F4
:10493000181684F40E94A22320E030E040E752E4FD
:104940000F94AD266093410270934202809343021C
:10495000909344028091DF0B83FD28C080919006E4
:10496000882321F120912D0C30912E0C40912F0C99
:104970005091300C60917C0770917D0780917E078B
:1049800090917F070F94B22520919D0630919E064D
:1049900040919F065091A0060F94B32560939D0609
:1049A00070939E0680939F069093A0060F900F90A1
:1049B0000F900F90DF91CF911F91FF90EF90DF90BC
:1049C000CF90BF90AF909F908F907F906F905F90AF
:1049D0004F900895F5012081318142815381C301B7
:1049E000B2010F94B22533CFF70180819181A2816A
:1049F000B381F60180839183A283B3832DCF80910D
:104A00002D0C90912E0CA0912F0CB091300C809316
:104A10007C0790937D07A0937E07B0937F074ECFCE
:104A2000CF92DF92EF92FF926B017C0183E3C81675
:104A3000D104E104F10470F082E3C81AD108E1085E
:104A4000F10862E370E080E090E00E942FF70E949E
:104A5000B0BBECCFC701B6010E942FF7FF90EF90DB
:104A6000DF90CF900C94B0BB0F931F93CF93DF9345
:104A70000BE41CE0CFE5D1E1F801219131914191A6
:104A800051918F0160E070E080E89FE30F94AD26C4
:104A90006993799389939993F1E1CF36DF0761F7B1
:104AA0000E94F6EEDF91CF911F910F910C94B91AED
:104AB000CF92DF92EF92FF92CF93DF932091320C4F
:104AC000222329F1EC0108960E94931C6B017C01C2
:104AD00020E030E0A9010F94EF1E20E030E0A901B2
:104AE000882359F0CE010E94391E9B01AC01C701F9
:104AF000B6010F94551F9B01AC01688579858A85A5
:104B00009B850F94B325688779878A879B87DF9178
:104B1000CF91FF90EF90DF90CF9008952F923F922A
:104B20004F925F926F927F928F929F92AF92BF92BD
:104B3000CF92DF92EF92FF920F931F93CF93DF9369
:104B4000CDB7DEB76C970FB6F894DEBF0FBECDBF02
:104B50008C015B015A834983FC01EA5BFF4F208192
:104B600031814281538129873A874B875C87CA010B
:104B7000B9010F94F41E6B017C01D5012D913D917B
:104B80004D915C910F94551F0F9491262B013C0180
:104B9000E981FA812081318142815381C701B601C7
:104BA0000F94551F0F9491264B015C01C301B20174
:104BB0000F942627698B7A8B8B8B9C8B68377105BA
:104BC0008105910540F428E730E040E050E0298B72
:104BD0003A8B4B8B5C8BC501B4010F9426276D87F4
:104BE0007E878F87988B683771058105910540F422
:104BF00048E750E060E070E04D875E876F87788B14
:104C0000F801EE5AFF4F4080518062807380C301EB
:104C1000B2010F94F61E69837A838B839C83698922
:104C20007A898B899C890F94F41E6D8B7E8B8F8B78
:104C3000988F20E030E0A90169817A818B819C8185
:104C40000F94EF1E882309F4E1C1A7019601C70163
:104C5000B6010F94551F4B015C012D893E894F8988
:104C6000588DCA01B9010F94551F9B01AC01C501B4
:104C7000B4010F94B2254B015C0129813A814B812B
:104C80005C81CA01B9010F94B3259B01AC01C50138
:104C9000B4010F94AD260F9491260F9426276D83AF
:104CA0007E838F83988766277727CB0164197509E0
:104CB000860997090F94F61E4B015C016D857E8570
:104CC0008F8598890F94F41E2B013C0120E030E081
:104CD000A901C501B4010F94EF1E882309F49AC1FC
:104CE000A3019201C301B2010F94551F698F7A8FFE
:104CF0008B8F9C8FA7019601C701B6010F94551F9A
:104D00009B01AC01698D7A8D8B8D9C8D0F94B225A2
:104D10006B017C01A5019401C501B4010F94B32579
:104D20009B01AC01C701B6010F94AD260F94552726
:104D3000D80195968D909D90AD90BC9098977501F7
:104D400064012D813E814F815885C21AD30AE40A3D
:104D5000F50A0F942627C61AD70AE80AF90AF7FEB9
:104D60008EC02D893E894F89588DCA01B9010F9493
:104D7000551F6B017C0129813A814B815C81CA01FD
:104D8000B9010F94B32569877A878B879C8720E0C8
:104D900030E0A90169817A818B819C810F94EF1E9B
:104DA000882309F43BC1C501B4010F94F41E298581
:104DB0003A854B855C850F94551FA70196010F948A
:104DC000B2256D837E838F839887A3019201C301EF
:104DD000B2010F94551F9B01AC016D817E818F81C3
:104DE00098850F94B3252B013C0120E030E040E88A
:104DF00050E469817A818B819C810F94551F9B01BE
:104E0000AC01C301B2010F94AD260F9491262B0182
:104E10003C0120E030E0A9010F94132818161CF083
:104E2000412C512C3201C301B2010F9426276D830E
:104E30007E838F83988786169706A806B90620F486
:104E40008D829E82AF82B8866D817E818F819885AA
:104E50000F94F41E29853A854B855C850F94551F68
:104E6000A70196010F94B3250F9461280F9426276C
:104E700069877A878B879C87C12CD12C76016985BD
:104E80007A858B859C8529893A894B895C89621B47
:104E9000730B840B950B0F94F41E29813A814B817F
:104EA0005C810F94AD2620E034E244EF59E40F9486
:104EB000551F0F9426274B015C0169857A858B85E8
:104EC0009C852D853E854F855889621B730B840B0D
:104ED000950B0F94F41E29813A814B815C810F94CC
:104EE000AD2620E034E244EF59E40F94551F0F94AF
:104EF00026272B013C013FE683169104A104B1044F
:104F000008F090C0F401EE0FFF1FEE0FFF1FEE57E9
:104F1000F74E85919591A591B4918983292E3A2ECA
:104F2000BD8B4FE6441651046104710408F083C040
:104F3000F201EE0FFF1FEE0FFF1FEE57F74E4591E8
:104F40005591659174919A01CB014D815E816F817C
:104F50007885D80199964D935D936D937C939C973A
:104F60004C0D5D1D6E1D7F1DF80145A756A767A757
:104F700070ABE65BFF4F49895A896B897C89408316
:104F8000518362837383D5968D929D92AD92BC922C
:104F9000D897F80141AE52AE63AE74AEFD9649812A
:104FA0004083218232825D8953833496208331830A
:104FB0008283938369857A858B859C85D1966D9351
:104FC0007D938D939C93D4973D962D853E854F85FB
:104FD000588920833183428353836C960FB6F894AB
:104FE000DEBF0FBECDBFDF91CF911F910F91FF901C
:104FF000EF90DF90CF90BF90AF909F908F907F9079
:105000006F905F904F903F902F90089560E070E018
:10501000CB0141CE60E070E0CB0188CE60E070E073
:10502000CB01F3CEC501B4010E94BB196983272EC1
:10503000382E9D8B76CFC301B2010E94BB199B0114
:1050400084CF8091361290913712891B877019F4A2
:1050500090E080E0089590913312992351F08330CD
:1050600030F48FEF890F19F080933312F1CF109243
:105070003312809137122CE5829FC0011124815098
:10508000974FFC01208120FDE3CF209137122F5F45
:105090002770209334123091371220913512321339
:1050A00004C02091341220933512089590916F001E
:1050B00081E091FD02C080E0089590916F009D7F96
:1050C00090936F00089580FF04C090919B0590FD20
:1050D0008E7F81FF05C090919B05969590FD8D7FF9
:1050E00082FF06C090919B059695969590FD8B7FCB
:1050F00008958F929F92AF92BF92CF92DF92EF92DC
:10510000FF92CF93DF9320914502222309F49EC0A2
:10511000EC0180919B05C82ED12CF12CE12C80FF55
:105120002CC08090470290904802A0904902B09015
:105130004A02288139814A815B81C501B4010F94FB
:105140001328181624F488829982AA82BB82809040
:10515000530290905402A0905502B09056022881BC
:1051600039814A815B81C501B4010F94EF1E87FF2D
:1051700004C088829982AA82BB82D701C601B695F3
:10518000A7959795879580FF2CC080904B029090B3
:105190004C02A0904D02B0904E022C813D814E8178
:1051A0005F81C501B4010F941328181624F48C8272
:1051B0009D82AE82BF828090570290905802A0904C
:1051C0005902B0905A022C813D814E815F81C50108
:1051D000B4010F94EF1E87FF04C08C829D82AE82C3
:1051E000BF8282E0F694E794D794C7948A95D1F76A
:1051F000C0FE2CC0C0904F02D0905002E0905102EF
:10520000F0905202288539854A855B85C701B60131
:105210000F941328181624F4C886D986EA86FB86CC
:10522000C0905B02D0905C02E0905D02F0905E0264
:10523000288539854A855B85C701B6010F94EF1E25
:1052400087FF04C0C886D986EA86FB86DF91CF91A6
:10525000FF90EF90DF90CF90BF90AF909F908F9096
:105260000895CF92DF92EF92FF920F931F93C12C7C
:10527000D12C76018C012DE23CE049E25CE065E254
:105280007CE081E29CE00E94F2ED1F910F91FF9083
:10529000EF90DF90CF9008950C94F6EE8091A206E7
:1052A000811105C080918107882309F463C0809132
:1052B0008805659B59C081608093880590910301A2
:1052C0008091880591FF52C082608093880580910B
:1052D00088054B994DC08460809388058091EF05C7
:1052E00080FF10C08091A30680FF0CC080918805CC
:1052F00080FF08C08091800781608093800780E0F4
:105300000E9410C08091EF05869580FF11C08091AA
:10531000A306869580FF0CC08091880581FF08C098
:105320008091800782608093800781E00E9410C096
:105330008091EF058695869580FF1CC08091A3061D
:105340008695869580FF16C080918107882391F00D
:105350008091880582FF0EC08091800784608093D1
:10536000800782E00C9410C08E7FA6CF8D7FADCFDA
:105370008B7FB2CF08958091A206811104C08091E5
:105380008107882331F062E070E080E090E00C94C7
:10539000102508950F931F9380911D11813019F5E9
:1053A0000E9462F70091A4051091A5052091A60521
:1053B0003091A705601B710B820B930B28EE33E035
:1053C00040E050E00F9433256091A8057091A90545
:1053D0008091AA059091AB05620F731F841F951FE2
:1053E0001F910F9108956091AC057091AD0580916A
:1053F000AE059091AF05D6CF10921D111092A40565
:105400001092A5051092A6051092A7051092AC0562
:105410001092AD051092AE051092AF051092A8053E
:105420001092A9051092AA051092AB050895CF928B
:10543000DF92EF92FF92CF93DF93C62FFC01C080E3
:10544000D180E280F38020E030E0A901C701B601FD
:105450000F94EF1E20E030E0A90187FD14C020E08A
:1054600030E048EC52E4C701B6010F94132824E65B
:1054700030E040E050E0181634F0C701B6010F9458
:105480001F279B01AC01C230A0F4D0E0C650D74F1B
:10549000AFEFB0E00F94742524E630E040E050E038
:1054A0000F9455252F3F310519F010F02FEF30E004
:1054B0002883DF91CF91FF90EF90DF90CF900895F8
:1054C0008091090180FD06C08091DE1383FB88274F
:1054D00080F9089580E00895CF92DF92EF92FF92D5
:1054E000FC01C080D180E280F380663019F5109213
:1054F00014061092150610921606109217061092B6
:1055000018060E9436B820E030E0A901C701B601B4
:105510000F94EF1E87FF1DC0C12CD12C7601C7014F
:10552000B6010F942028CB01FF90EF90DF90CF9031
:105530000C9462210E94301E20E030E0A901C701D6
:10554000B6010F94EF1E87FF15C0C12CD12C760138
:1055500021C020E030E04CE053E4C701B6010F94D5
:1055600013281816E4F6C12CD12C9CE0E92E93E404
:10557000F92ED5CF20E030E046E953E4C701B6016B
:105580000F941328181634F4C12CD12C86E9E82E78
:1055900083E4F82EC701B6010F942028CB01FF90B9
:1055A000EF90DF90CF900C94241E9091310C977067
:1055B00081E0973009F080E008952091860520FF72
:1055C00014C020E83EE3629FA001639F500D729FCC
:1055D000500D1124CA019695879596958795009749
:1055E00031F08A950000E9F708950C94102508958C
:1055F000CF93DF931092E00B1092830C1092850CE6
:105600001092840C1092850510928405CFEFDFEF85
:105610008091DE1385FD07C00E944FA4D0935D12D8
:10562000C0935C12F5CF8FEF9FEF90935D12809344
:105630005C12DF91CF9108958F929F92AF92BF92AB
:10564000CF92DF92EF92FF920F931F93CF93DF934E
:1056500010923905109238052FE3209333051092EC
:1056600032051092310510923005109234051092D7
:10567000350510923605109237059C01F90190818D
:105680002F5F3F4F9032D1F39E34C9F4818190ED6A
:10569000980F9A3020F08D3211F08B3281F43296CF
:1056A0009F012F5F3F4F808180538A3008F47BC079
:1056B0009F012F5F3F4F8081803209F476C0F093C5
:1056C0008407E09383078F010F5F1F4FC0816AE259
:1056D00070E0C8010F940129009731F0FC01319767
:1056E00080818032E1F31182CD3429F0C43519F084
:1056F000C73409F04BC0F80180810F5F1F4F803223
:10570000D1F380538A3008F041C0C093330530E0B4
:1057100020E04AE0DF011196429FC001439F900DB7
:1057200011249C01205331098081280F311D87FDF0
:105730003A95818190ED980F9A30C8F130933205F7
:10574000209331058E3261F4329690E04AE0DF0119
:1057500031968C9150ED580F5A3058F19093300596
:10576000CD01DC0101964C914032D9F3CD3489F55D
:105770002E31310539F018F52731310519F02C316A
:10578000310539F5B0933905A0933805DF91CF91F4
:105790001F910F91FF90EF90DF90CF90BF90AF904F
:1057A0009F908F900895F9017BCFF90181CFFD0182
:1057B000B1CF949F800D112490ED980FC8CF25375D
:1057C000310538F027373105E8F2203A83E0380711
:1057D000C9F2D091830740E050E0BA0110E000E048
:1057E000C12CD12C7601C394FD0131968C91882374
:1057F00009F47FC08132E1F4CD34D1F42032310597
:10580000B9F4409334055093350560933605709391
:105810003705F0933905E093380563E270E0CF0176
:105820000F940129009709F4B1CFFC011082AECF8B
:1058300081548A3108F058C0DF019D91903291F077
:10584000A0EDA90FAA30E8F09E3271F49181905337
:105850009A30B8F00115110519F48F0101501109A2
:1058600090E013C0FD01E8CF9D3211F09B3291F71B
:105870009181A0EDA90FAA3020F09E3259F79281B4
:10588000E6CF9E2F9D1B309759F3A82FB0E046011D
:10589000570104C0880C991CAA1CBB1C8A95D2F71E
:1058A000482959296A297B29AA5EBA4F9C9380818D
:1058B0008154DF018A3108F497CFDF018191882379
:1058C00009F492CF90ED980F9A30B8F393ED980FBA
:1058D000923098F38B3289F3CD010196EC91E0324E
:1058E00009F082CFDC01F8CF0115110501F78D0118
:1058F000DECF10933905009338054093340550935B
:105900003505609336057093370540CF4F925F920F
:105910006F927F928F929F92AF92BF92CF92DF92BF
:10592000EF92FF92CF93DF9300D000D01F921F928F
:10593000CDB7DEB75C01DB01CD90DD90ED90FC9042
:10594000E0913112F0913212FE83ED8384819581D2
:10595000A681B78189839A83AB83BC839C01AD0107
:10596000C701B6010F94B2252B013C01F5018080DF
:105970009180A280B380AD81BE818D919D910D906B
:10598000BC91A02D8D839E83AF83B88727E137EB31
:1059900041ED58EBC301B2010F94132887FDD1C02C
:1059A00023E030E04BE953E4C301B2010F94EF1E52
:1059B00018160CF4C6C02D813E814F815885C50153
:1059C000B4010F94B2252B013C0127E137EB41EDE7
:1059D00058EB0F94132887FDB4C023E030E84DE95D
:1059E00053E4C301B2010F94EF1E18160CF4A9C0C2
:1059F00020E030E0A9016D817E818F8198850F9430
:105A0000B3252B013C0120E030E040E251E40F944B
:105A1000EF1E87FF06C0412C512C30E2632E31E48B
:105A2000732E27E137EB41ED58E3C301B2010F9428
:105A3000B2259B01AC01C501B4010F94132887FD69
:105A400080C020E030E84DE953E46D817E818F8194
:105A500098850F94B3252B013C0120E030E041E90B
:105A600053E40F941328181634F4412C512C21E9D7
:105A7000622E23E4722E27E137EB41ED58E3C30198
:105A8000B2010F94B3259B01AC01C501B4010F9481
:105A9000EF1E18160CF455C020E030E0A901698112
:105AA0007A818B819C810F94B3254B015C0120E0AE
:105AB00030E040EA51E40F94EF1E87FF06C0812CCE
:105AC000912C90EAA92E91E4B92E27E137EB41ED14
:105AD00058E3C501B4010F94B2259B01AC01C70185
