:100000000C94161A0C94471A0C94471A0C94471A1D
:100010000C94471A0C94471A0C94471A0C94471ADC
:100020000C94471A0C94471A0C94471A0C94471ACC
:100030000C94471A0C94471A0C94471A0C94471ABC
:100040000C94471A0C9499D10C94471A0C94471AA3
:100050000C94471A0C94471A0C946CBA0C940CA686
:100060000C94471A0C944A520C9440520C94471A20
:100070000C94471A0C94471A0C94471A0C94471A7C
:100080000C94471A0C94471A0C94471A0C94471A6C
:100090000C94471A0C94471A0C94471A0C94471A5C
:1000A0000C94471A0C94471A0C94471A0C94471A4C
:1000B0000C94471A0C94471A0C94471A0C94471A3C
:1000C0000C94471A0C94471A0C94471A0C94113448
:1000D0000C94DB330C94471A0C94471A0C94471A6F
:1000E0000C94471A084AD73B3BCE016E84BCBFFD37
:1000F000C12F3D6C74319ABD56833DDA3D00C77FF8
:1001000011BED9E4BB4C3E916BAAAABE0000008090
:100110003F05A84CCDB2D44EB93836A9020C50B91F
:10012000918688083CA6AAAA2ABE000000803F004B
:100130000C946A410D94A7080C9430F70C94C49E5B
:100140000C943EA30C94E4520D947D040C94E05264
:100150000C946FF90D940F000C9483A20D94A803D6
:100160000C9488520C94FD400C94C6520C94F0529E
:100170000C949E9E0C9479A20D9440050C94A89E1C
:100180000C9497A20C94479F0D94B7080C94EBFB2A
:100190000C9446A20C9444F90C94949E0C946CFD1F
:1001A0000D9404030C94AC9E0C948D9E0C94BA9EFA
:1001B0000C94A49E0D94A4010C948DA20C94C234B2
:1001C0000C94B69E0C94E8520C94BAA30C94D8A24A
:1001D0000C940E530C94A3340D94D8010C94DC525F
:1001E0000C94BAA20D943A030D94AA070C94899E1C
:1001F0000C944BA20C941FA50C94CEA20D949004C9
:100200000C94E23E0C949A9E0D9474020C94739E8E
:100210000C94A7340C947E340C94DAFA0C94B29EAD
:100220000D94510C0C945AF80C945FA20C94D53494
:100230000C94B3340D94CB070C946E9E0C949C34A8
:100240000C94AF340C94B7520C94A6A20C943EA21A
:100250000C94FB520C94CA9F0C94BB340C94F2A4E3
:100260000C948D340D9455010C94353F0C94C99F1A
:100270000D943B040C9471A20D94D1030D94E503ED
:100280000C94F4520D9488010D944A070C9469A2C1
:100290000D9471070C94C4A20C94EC520D94920727
:1002A0000D947A090C94AB340D94B7190C94D55273
:1002B0000C94E0A40D947A070D941C040C9429412D
:1002C0000C94859E0C945BA30C94A2410C94CD34A9
:1002D0000C94919E0C944F340C94C09E0D9477070F
:1002E0000C9406530C9403A40C9455A20D949919E4
:1002F0000D94BE070D9408040C9462A40C9447A4BA
:100300000C94313F0C94B0A20D94A0070C9442A51C
:100310000C94B7344E414E494E495459494E46CD3E
:10032000CCCC3D0AD7233C17B7D13877CC2B3295AC
:1003300095E6241FB14F0A000020410000C842008A
:10034000401C4620BCBE4CCA1B0E5AAEC59D740054
:10035000407A10F35A00A0724E18090010A5D4E894
:100360000000E87648170000E40B54020000CA9A27
:100370003B000000E1F50500008096980000004079
:10038000420F000000A086010000001027000000BE
:1003900000E803000000006400000000000A000004
:1003A0000000000100000000002C76D888DC674FB8
:1003B0000823DFC1DFAE59E1B1B796E5E3E453C6E8
:1003C0003AE651997696E8E6C28426EB898C9B62E0
:1003D000ED407C6FFCEFBC9C9F40F2BAA56FA5F48A
:1003E00090055A2AF75C936B6CF9676DC11BFCE0B2
:1003F000E40D47FEF520E6B500D0ED902E03009405
:100400003577050080841E080000204E0A00000099
:10041000C80C333333330F986E12831141EF8D21A3
:1004200014893BE65516CFFEE6DB18D1844B381B0A
:10043000F77C1D901DA4BBE424203284725E2281CF
:1004400000C9F124ECA1E53D27434F4D4D554E49E0
:10045000434154494F4E0044525952554E00455263
:10046000524F525300494E464F004543484F0045B6
:1004700072726F722077726974696E6720746F2070
:10048000454550524F4D210A0053544F505045445A
:100490002E20005072696E7465722073746F7070D4
:1004A00065642064756520746F206572726F727365
:1004B0002E2046697820746865206572726F7220FC
:1004C000616E6420757365204D39393920746F2051
:1004D000726573746172742E202854656D70657234
:1004E00061747572652069732072657365742E205E
:1004F0005365742069742061667465722072657337
:1005000074617274696E67290A004E6F20436865D2
:10051000636B73756D2077697468206C696E6520F4
:100520006E756D6265722C204C617374204C696E1F
:10053000653A20004E6F20436865636B73756D20CC
:1005400077697468206C696E65206E756D6265727E
:100550002C204C617374204C696E653A20006368EE
:1005600065636B73756D206D69736D617463682C61
:10057000204C617374204C696E653A20004C696EA2
:1005800065204E756D626572206973206E6F7420F0
:100590004C617374204C696E65204E756D62657296
:1005A0002B312C204C617374204C696E653A20000D
:1005B0004D3131300053657269616C207374617420
:1005C0007573206D69736D617463680A0077616982
:1005D000740A0053442072656164206572726F7200
:1005E0000A002121204B494C4C20636175736564DE
:1005F00020627920746F6F206D75636820696E6169
:1006000063746976652074696D65202D2063757249
:1006100072656E7420636F6D6D616E643A20004880
:100620006F74656E642049646C652054696D656FF4
:10063000757400486F74656E642049646C6520545D
:10064000696D656F75740A003D3D6F6E46696C613A
:100650006D656E7452756E6F75743D3D0070617599
:100660007365004D363030002066696C616D656ED3
:10067000745F72756E6F7574200066696C616D656C
:100680006E745F72756E6F757420540046696C618C
:100690006D656E7452756E6F75742054002A2A2A27
:1006A000496E6974696E67206361726420697320A2
:1006B0004F4B2A2A2A004D6564696120496E736593
:1006C00072746564004D656469612052656D6F7672
:1006D0006564004D313030305300627573793A20D3
:1006E00070617573656420666F7220696E707574D1
:1006F0000A00627573793A207061757365642066CB
:100700006F7220757365720A00627573793A207092
:10071000726F63657373696E670A002A2A2A6B69B0
:100720006C6C2A2A2A00706F7765726F6666004BC0
:10073000494C4C45442E20005072696E74657220FD
:1007400068616C7465642E206B696C6C2829206369
:10075000616C6C6564210A006563686F3A004572DC
:10076000726F723A0042696C696E656172204C6505
:1007700076656C696E6720477269643A0A002F2FAC
:10078000616374696F6E3A0070726F6D70745F00B0
:10079000656E640053656E64204D31303820746F8F
:1007A00020726573756D650A00496E7365727420F9
:1007B00066696C616D656E7420616E642073656E30
:1007C00064204D3130380A005265686561742066D6
:1007D000696E69736865642E00526568656174208E
:1007E000446F6E6500526568656174696E672E2E90
:1007F0002E005265686561740048656174657220F9
:1008000054696D656F75740053656E64204D3130A9
:100810003820746F2068656174206E6F7A7A6C6519
:100820000A004E6F7A7A6C65205061726B656400C5
:10083000486F74656E6420746F6F20636F6C640A18
:10084000007061757365640050617573650044697B
:100850007361626C6552756E6F7574005075726766
:10086000654D6F7265005061757365640073686FE4
:100870007700627574746F6E00626567696E004C14
:100880006F61642046696C616D656E74004C6F61C8
:10089000642046696C616D656E74205400496E7306
:1008A0006572742066696C616D656E7420616E643A
:1008B0002073656E64204D3130380A00726573759F
:1008C0006D656400526573756D696E670057616987
:1008D00074696E6720666F72206865617475702E2A
:1008E0000A004C656176696E6720473236003F53D7
:1008F000706563696669656420582C5920636F6F61
:100900007264696E617465206F7574206F66206211
:100910006F756E64732E0A003F28522965706561F9
:10092000742076616C7565206E6F7420706C6175D3
:100930007369626C653B206D75737420626520611C
:1009400074206C6561737420312E0A003F2852298F
:100950006570656174206D757374206265207370B5
:1009600065636966696564207768656E206E6F747B
:10097000207573696E6720616E204C43442E0A0017
:100980003F537065636966696564206E6F7A7A6C3F
:10099000652074656D7065726174757265206E6F27
:1009A0007420706C61757369626C652E0A003F5328
:1009B00070656369666965642066696C616D656E02
:1009C000742073697A65206E6F7420706C61757322
:1009D00069626C652E0A003F5370656369666965DC
:1009E00064207072696D65206C656E677468206E36
:1009F0006F7420706C61757369626C652E0A003FBC
:100A00005072696D65206C656E677468206D7573D2
:100A10007420626520737065636966696564207718
:100A200068656E206E6F74207573696E6720616EE5
:100A3000204C43442E0A003F537065636966696524
:100A400064206E6F7A7A6C652073697A65206E6FA8
:100A50007420706C61757369626C652E0A003F5278
:100A6000657472616374696F6E204D756C74697022
:100A70006C696572206D7573742062652073706592
:100A80006369666965642E0A003F53706563696631
:100A90006965642052657472616374696F6E204D7C
:100AA000756C7469706C696572206E6F7420706CFF
:100AB00061757369626C652E0A003F5370656369E6
:100AC00066696564206C617965722068656967682C
:100AD00074206E6F7420706C61757369626C652E22
:100AE0000A0043292E0A003F5370656369666965F1
:100AF00064206265642074656D70657261747572DE
:100B000065206E6F7420706C61757369626C65200E
:100B10002834302D00473236207374617274696E48
:100B2000672E2E2E0A004F46460A00466164652055
:100B30004865696768742000426564204C65766585
:100B40006C696E6720004661696C656420746F2073
:100B5000656E61626C6520426564204C6576656CEB
:100B6000696E670A00496E76616C6964206D657311
:100B7000682E0A0050726F62696E6720506F696E4E
:100B8000740025532025692F2569002E0A002F00A7
:100B900050726F62696E67206D65736820706F694F
:100BA0006E742000202844525952554E2900473275
:100BB00039204175746F20426564204C6576656C00
:100BC000696E67003F20284C2C522C462C4229206D
:100BD0006F7574206F6620626F756E64732E0A00E5
:100BE0003F2856296572626F7365206C6576656C67
:100BF00020696D706C61757369626C652028302D99
:100C000034292E0A00426164205A2076616C756591
:100C10000A004E6F2062696C696E656172206772AE
:100C200069640A00446576696174696F6E002553D2
:100C30003A2025730046696E6973686564210A006D
:100C40003A207A3A2000206F662000476F696E676D
:100C500020746F3A20580043570A00206469723AA2
:100C60000020616E676C653A005374617274207283
:100C700061646975733A004D343820506F696E7441
:100C80000025533A2025642F256400506F73697442
:100C9000696F6E696E67207468652070726F626537
:100CA0002E2E2E0A003F4C656773206F66206D6FF5
:100CB00076656D656E7420696D706C6175736962BF
:100CC0006C652028302D3135292E0A003F20285808
:100CD0002C5929206F7574206F6620626F756E64C1
:100CE000732E0A0050726F6265206F7574206F66F4
:100CF00020626F756E6473003F53616D706C652088
:100D000073697A65206E6F7420706C6175736962A7
:100D10006C652028342D3530292E0A004D343820BA
:100D20005A2D50726F626520526570656174616200
:100D3000696C69747920546573740A003F285629D8
:100D40006572626F7365206C6576656C20696D7085
:100D50006C61757369626C652028302D34292E0A08
:100D6000005374616E6461726420446576696174D5
:100D7000696F6E3A20002052616E67653A2000204C
:100D80004D61783A2000204D696E3A200020536969
:100D9000676D613A20004D65616E3A2000574152FF
:100DA0004E494E4721204C6F77205A204A65726B7E
:100DB000206D6179206C65616420746F20756E7799
:100DC000616E746564207061757365732E0A004FDF
:100DD0004646004F4E0020204D61783A200020000A
:100DE00020204D696E3A2000536F667420656E6452
:100DF00073746F70733A20003D3D4F6E506F77658E
:100E0000724C6F7373526573756D653D3D004D3265
:100E1000342053256C642054256C64004739322EED
:100E20003920452573004731204625640047393273
:100E30002E39205A2573004731205A30204632304F
:100E40003000473120582573205925732046333010
:100E50003030004D34323020532569205A2573003C
:100E60004D3130362050256920532569004D3230F0
:100E700030204425730047323852305859004739E2
:100E8000322E39204530205A300A47315A25730016
:100E90004D31303920532569004D313930205325EB
:100EA00069004D343230205330205A300020496ED2
:100EB00076616C696420657874727564657220006F
:100EC00047322F47332062616420706172616D6523
:100ED000746572730A00536C6565702E2E2E005A6D
:100EE0002050726F62652050617374204265640AFD
:100EF000005A2050726F6265205061737420426501
:100F000064004732384C30004D3131372050726F19
:100F10006265206661696C65642E0A4732380A0092
:100F200070726F62655F726577697065004732390C
:100F3000205265747279696E670050726F62696ED3
:100F400067204661696C6564004D31313720426528
:100F500064206C6576656C696E67206661696C6596
:100F6000642E0A4730205A31300A4D333030205039
:100F7000323520533838300A4D3330302050353038
:100F80002053300A4D33303020503235205338381A
:100F9000300A4D333030205035302053300A4D3335
:100FA00030302050323520533838300A4D3330300D
:100FB000205035302053300A4734205331007072AE
:100FC0006F62655F6661696C6564004D3131372021
:100FD000426564206C6576656C696E6720646F6E2F
:100FE000652E00205A3A200020593A2000426564BC
:100FF00020583A20004D65736820706F696E742028
:101000006F7574206F662072616E67650A004D30DF
:101010002053746F70004D312053746F7000436F14
:101020006E74696E756500436C69636B20746F2024
:10103000526573756D652E2E2E004E6F204D6F76A6
:10104000652E00456E642066696C65206C6973745A
:101050000A00426567696E2066696C65206C697379
:10106000740A004E6F206D656469610A00526573F1
:10107000756D696E6720534400286E6F2066696C39
:1010800065290043757272656E742066696C653AF5
:1010900020005072696E742074696D653A20000AF0
:1010A00053746174733A2046696C616D656E742087
:1010B000757365643A20002C204C6F6E67657374FD
:1010C000206A6F623A2000546F74616C2074696DFD
:1010D000653A200053746174733A20002C204661F5
:1010E000696C65643A20002C2046696E69736865F6
:1010F000643A20005072696E74733A200053746130
:1011000074733A2000436F6F6C696E672E2E2E0049
:1011100048656174696E672E2E2E004520255300A8
:101120006F6B006F6666006A0465045E04570449CD
:101130000444454255473A004D3131332053004273
:10114000656420436F6F6C696E672E2E2E004265BA
:10115000642048656174696E672E2E2E00444458E1
:10116000203130532050726F204F46462E002F2FD3
:1011700000205200416363656C65726174696F6E33
:101180003A2050004D32303620580046523A002066
:10119000466C6F773A200020643A0020693A0020BC
:1011A000703A00496E76616C696420657874727576
:1011B0006465720A0020643A0020693A0020703A9F
:1011C0000064697300656E0043290A0061626C6502
:1011D0006420286D696E2074656D702000436F6C0B
:1011E000642065787472756465732061726520008F
:1011F000504944204175746F74756E6500504944C0
:10120000204175746F74756E65206661696C6564E4
:101210002120426164206865617465722069640AF6
:101220000046696C616D656E742072756E6F7574C1
:101230002064697374616E636520286D6D293A209E
:101240000046696C616D656E742072756E6F7574A1
:1012500020004D34323120696E636F7272656374A1
:1012600020706172616D6574657220757361676568
:101270000A004D65736820706F696E74206F757415
:10128000206F662072616E67650A004F666673653F
:101290007473204170706C696564004572723A2005
:1012A000546F6F206661722100546F6F2066617207
:1012B0002066726F6D207265666572656E6365206B
:1012C000706F696E740A00454550524F4D204F4B68
:1012D0000A00506F7765722D6C6F737320726563AF
:1012E0006F7665727920004D383400446F6E65204A
:1012F0007072696E74696E672066696C650A004D6C
:101300003737004D3331004361703A004D45415449
:101310005041434B00434F4F4C45525F54454D5055
:1013200045524154555245004348414D4245525F54
:1013300054454D5045524154555245004241425941
:101340005354455050494E470041524353004D4F6E
:1013500054494F4E5F4D4F44455300544845524DFC
:10136000414C5F50524F54454354494F4E004C4FEF
:101370004E475F46494C454E414D45004155544FFF
:101380005245504F52545F53445F53544154555348
:101390000053445F5752495445005245504541540B
:1013A000005344434152440050524F4D50545F53F8
:1013B0005550504F525400454D455247454E4359A4
:1013C0005F50415253455200434153455F4C49479A
:1013D00048545F4252494748544E45535300544F76
:1013E00047474C455F4C494748545300534F465478
:1013F000574152455F504F574552004255494C4462
:101400005F50455243454E54004C4556454C494E5D
:10141000475F44415441005A5F50524F4245005289
:10142000554E4F5554004155544F4C4556454C0070
:101430005052494E545F4A4F420050524F47524516
:101440005353004155544F5245504F52545F5445E9
:101450004D5000564F4C554D45545249430045455B
:1014600050524F4D0042494E4152595F46494C45FA
:101470005F5452414E534645520053455249414CE8
:101480005F584F4E5F584F4646004649524D5741B0
:1014900052455F4E414D453A4D61726C696E203246
:1014A0002E302E375F4457372E3320426F6E6474D0
:1014B0006563682053534D444E422028417072208A
:1014C000323920323032312031313A30343A303210
:1014D0002920534F555243455F434F44455F555272
:1014E0004C3A68747470733A2F2F67697468756228
:1014F0002E636F6D2F496E73616E697479417574D7
:101500006F6D6174696F6E2F4D61726C696E2F74AF
:101510007265652F437265616C6974794477696E91
:101520005F322E302050524F544F434F4C5F564540
:101530005253494F4E3A312E30204D414348494E87
:10154000455F545950453A44445820313053205057
:10155000726F2045585452554445525F434F554E83
:10156000543A3120555549443A63656465326132D5
:10157000662D343161322D343734382D39623132B1
:101580002D6335356336326633363766660A00506A
:10159000726F6265204F6666736574205A005072E0
:1015A0006F6265204F6666736574205A00290A00D1
:1015B00020746F20003F5A206F7574206F66207270
:1015C000616E6765202800290A0020746F20003FA3
:1015D00059206F7574206F662072616E67652028D0
:1015E0002D00290A0020746F20003F58206F757469
:1015F000206F662072616E676520282D0050726F23
:101600006265204F666673657420580043616E6E94
:101610006F74206F70656E2073756264697220004C
:101620002569730025696D20256973002569682087
:1016300025696D2025697300256964202569682066
:1016400025696D2025697300256979202569642045
:101650002569682025696D20256973003D3D447723
:10166000696E20496E697420436F6D706C65746596
:101670003D3D002A2A2A4E6F7A7A6C6554656D705A
:101680005374617475735B325D203D003D3D486568
:101690006174696E6720446F6E65204368616E6790
:1016A000652046696C616D656E743D3D0020207358
:1016B0007461727470726F677265737320003D3D60
:1016C0007761697477617920353D3D003D3D7761F3
:1016D000697477617920343D3D003D3D77616974DF
:1016E00077617920333D3D003D3D776169747761D5
:1016F0007920313D3D003D3D6F6E5072696E7454EE
:10170000696D657253746F707065643D3D003D3D59
:101710006F6E466163746F727952657365743D3D97
:1017200000270A0A0000272027002027002D006E2E
:101730006F74696669636174696F6E200063616EBE
:1017400063656C005072696E742041626F727465DB
:1017500064004469736D6973730055492041626F79
:101760007274656400726573756D65004D32340086
:101770002A2A2A43506C617920546F6E652A2A2ADE
:10178000003D3D6F6E5072696E7454696D657250A4
:1017900061757365643D3D00486F6D696E672046F5
:1017A00061696C6564006F70656E0054524947470B
:1017B00045524544003A200066696C616D656E745F
:1017C000007A5F6D696E00795F6D696E00785F6D9C
:1017D000696E005265706F7274696E6720656E6421
:1017E00073746F70207374617475730A0020746F62
:1017F0006F206C6F6E6720657874727573696F6E99
:101800002070726576656E7465640A0020636F6C83
:101810006420657874727573696F6E207072657676
:10182000656E7465640A00486F6D652025732573C5
:101830002573204669727374005761726E696E6712
:101840003A20486F6D696E672042756D702044695B
:101850007669736F72203C20310A00020204000096
:101860000000000000000000000000809D43000018
:101870009B430000C84300000041000000410000FD
:1018800000400000000100000001000080005555EC
:1018900055000000400033333300AAAA2A004992C1
:1018A000240000002000C7711C0099991900D1453F
:1018B0001700555515003BB11300244912001111B2
:1018C0001100000010000F0F0F00E3380E004379E5
:1018D0000D00CCCC0C00C3300C00E8A20B0064213E
:1018E0000B00AAAA0A00703D0A009DD80900427B9D
:1018F000090092240900DCD30800888808001042FF
:10190000080000000800F0C1070087870700755035
:101910000700711C07003EEB0600A1BC06006990A1
:10192000060066660600703E06006118060017F4A1
:10193000050074D105005BB00500B290050062722D
:1019400005005555050078390500B81E0500050548
:1019500005004EEC040087D40400A1BD040090A74C
:10196000040049920400C17D0400EE690400C756DA
:101970000400444404005C320400082104004110C7
:101980000400000004003FF00300F8E0030026D24A
:101990000300C3C30300CCB503003AA803000A9BAD
:1019A0000300388E0300C08103009F750300D069D7
:1019B0000300505E03001D53030034480300913DB3
:1019C00003003333030016290300381F0300971563
:1019D0000300300C0300030303000BFA020049F17B
:1019E0000200BAE802005CE002002DD802002DD00F
:1019F000020059C80200B0C0020031B90200DAB1D9
:101A00000200AAAA0200A0A30200BC9C0200FA9550
:101A100002005C8F0200DF88020082820200457CA7
:101A200002002776020027700200436A02007C64ED
:101A30000200D05E02003F590200C8530200FFFDC1
:101A4000FCFAF8F6F4F2F0EEECEAE9E7E5E3E1E0BF
:101A5000DEDCDAD9D7D5D4D2D0CFCDCBCAC8C7C572
:101A6000C3C2C0BFBDBCBAB9B7B6B4B3B2B0AFADF4
:101A7000ACAAA9A8A6A5A4A2A1A09E9D9C9A99984B
:101A80009795949392908F8E8D8B8A898887868480
:101A9000838281807F7E7D7B7A7978777675747397
:101AA0007271706F6E6D6C6B6A696867666564638E
:101AB0006261605F5E5D5C5B5A5958585756555479
:101AC00053525150504F4E4D4C4B4A4A494847464D
:101AD00046454443424241403F3E3E3D3C3B3B3A0B
:101AE00039383837363535343332323130302F2EBD
:101AF0002E2D2C2B2B2A2929282727262525242360
:101B00002322212120201F1E1E1D1C1C1B1B1A19F5
:101B1000191818171616151514131312121111107F
:101B20000F0F0E0E0D0D0C0C0B0A0A090908080701
:101B300007060605050404030302020100003D3DFB
:101B40006F6E5072696E7454696D65725374617210
:101B50007465643D3D0000809D4300009B43000090
:101B6000C8430000000000000000000000003D3DF0
:101B70006F6E53746F726553657474696E67733DED
:101B80003D003D3D6F6E436F6E66696775726174AF
:101B9000696F6E53746F72655772697474656E3DC8
:101BA0003D0053657474696E67732053746F72657A
:101BB00064000A20696E6974207A70726F62655FD2
:101BC0007A6F6666736574203D20003D3D6F6E43FD
:101BD0006F6E66696775726174696F6E53746F7248
:101BE00065526561643D3D00454550524F4D204969
:101BF0006E697469616C697A65640A003B20003A19
:101C00000A0020204D363033200020440020204D93
:101C100034313220530046696C616D656E742072F8
:101C2000756E6F75742073656E736F723A00205510
:101C3000004C0046696C616D656E74206C6F616468
:101C40002F756E6C6F6164206C656E677468733A93
:101C50000020204D3835312058005A2D50726F62C7
:101C600065204F66667365740020204D3431332043
:101C70005300506F7765722D4C6F737320526563FC
:101C80006F766572793A0020440020490020204D8B
:101C900033303420500020440020490020204D33B0
:101CA00030312050005049442073657474696E6768
:101CB000733A00204A00202047323920572049003B
:101CC00020204D3432302053004175746F2042651E
:101CD00064204C6576656C696E673A0020204D3251
:101CE0003036205800486F6D65206F6666736574E6
:101CF0003A0020580020530020204D323035204239
:101D000000416476616E6365643A20423C6D696EA1
:101D10005F7365676D656E745F74696D655F75731C
:101D20003E20533C6D696E5F6665656472617465E3
:101D30003E20543C6D696E5F74726176656C5F66BF
:101D4000656564726174653E20583C6D61785F78AA
:101D50005F6A65726B3E20593C6D61785F795F6A9E
:101D600065726B3E205A3C6D61785F7A5F6A65727E
:101D70006B3E20453C6D61785F655F6A65726B3EC6
:101D80000020540020520020204D323034205000DA
:101D9000416363656C65726174696F6E2028756E4E
:101DA0006974732F7332293A20503C7072696E74D3
:101DB0005F616363656C3E20523C7265747261635F
:101DC000745F616363656C3E20543C747261766538
:101DD0006C5F616363656C3E0020204D32303120C2
:101DE00058004D6178696D756D20416363656C6560
:101DF000726174696F6E2028756E6974732F733207
:101E0000293A0020204D3230332058004D61786946
:101E10006D756D20666565647261746573202875E3
:101E20006E6974732F73293A005374657073207050
:101E3000657220756E69743A0020440020204D328E
:101E400030302053002044697361626C65640A007D
:101E500046696C616D656E742073657474696E6734
:101E6000733A0020286D6D29002020473231202050
:101E700020203B20556E69747320696E206D6D00C3
:101E80003D3D6F6E4C6F616453657474696E67732A
:101E90003D3D000000FA430000FA430000204100ED
:101EA000008C420000A0420000A0420000C8430095
:101EB00080CF43EE020000EE020000640000003C10
:101EC00000000024F4D43050C38E20C2A2401782F8
:101ED0008B7011127A910D816CD90AA861E108C743
:101EE000586607615143061E4B5D05C145A7041A9C
:101EF000411104093D9803713931034036DB026515
:101F0000339102D4305402802E1D02632CEE0175F1
:101F10002AC501B028A001102781018F2564012B5B
:101F2000244B01E0223401AC211F018D200D0180E2
:101F30001FFC00841EED00971DDF00B81CD200E6D8
:101F40001BC600201BBC00641AB200B219A8000A0C
:101F500019A0006A189900D117910040178B00B59D
:101F600016840031167E00B31579003A157300C748
:101F7000146F0058146A00EE13660088136300257E
:101F8000135E00C7125B006C12570015125400C19B
:101F900011510070114F0021114B00D61049008DD6
:101FA0001047004610440002104200C00F4000805D
:101FB0000F3E00420F3C00060F3B00CB0E38009353
:101FC0000E37005C0E3500270E3400F30D3200C1D1
:101FD0000D3100900D3000600D2E00320D2D0005EA
:101FE0000D2C00D90C2B00AE0C2900850C29005CAF
:101FF0000C2700350C27000E0C2600E80B2400C42B
:102000000B2400A00B23007D0B23005A0B21003969
:102010000B2100180B2000F80A1F00D90A1E00BB74
:102020000A1E009D0A1D00800A1D00630A1C00474D
:102030000A1B002C0A1B00110A1A00F7091A00DDFE
:10204000091900C4091900AB091900920917007B8E
:10205000091800630917004C0916003609160020FC
:102060000916000A091500F5081500E0081400CC4F
:10207000081400B8081400A4081400900813007D88
:102080000812006B081300580812004608120034AA
:10209000081100230811001208110001081100F0B6
:1020A000071000E0071000D0071000C0071000B0B4
:1020B000070F00A107100091070E0083070F00749F
:1020C000070F0065070E0057070E0049070E003B7B
:1020D000070D002E070E0020070D0013070D000648
:1020E000070D00F9060C00ED060D00E0060C00D40B
:1020F000060C00C8060C00BC060C00B0060C00A4C0
:10210000060B0099060C008D060B0082060B00776B
:10211000060B006C060B0061060A0057060B004C0C
:10212000060A0042060A0038060A002E060A0024A3
:10213000060A001A060A001006090007060A00FD32
:10214000050900F4050900EB050900E2050900D9BD
:10215000050900D0050900C7050900BE050900B53D
:10216000050800AD050800A50509009C05080094B8
:102170000508008C050800840508007C050800742B
:102180000508006C050700650508005D0507005699
:102190000508004E05070047050700400508003800
:1021A000050700310507002A050700230507001C65
:1021B000050600160507000F0507000805060002C2
:1021C000050700FB040600F5040700EE040600E81E
:1021D000040600E2040700DB040600D5040600CF75
:1021E000040600C9040600C3040600BD040600B7C7
:1021F000040600B1040500AC040600A6040600A015
:102200000405009B04060095040500900406008A5E
:1022100004050085040500800406007A04050075A5
:10222000040500700405006B0405006604050061E8
:102230000405005C04050057040500520405004D28
:1022400004050048040500430405003E0404003A68
:1022500004050035040500300404002C04050027A3
:10226000040400230405001E0404001A04040016DC
:10227000040500110404000D040400090405000411
:1022800004040000040400FC030400F8030400F448
:10229000030400F0030400EC030400E8030400E47A
:1022A000030400E0030400DC030400D8030400D4AA
:1022B000030400D0030400CC030400C8030300C5DA
:1022C00003030024F404D9201BC40C5C0E9804C43E
:1022D000095F0265077101F405F900FB04B30048CA
:1022E000048700C10369005803550003034500BE7D
:1022F000023A008402310053022A00290225000418
:10230000022000E4011C00C8011900AF0117009869
:1023100001140084011300710110006101100051CB
:10232000010E0043010D0036010B002B010B0020B4
:10233000010B00150109000C01090003010800FB55
:10234000000800F3000800EB000700E4000600DED0
:10235000000600D8000600D2000600CC000500C729
:10236000000500C2000500BD000400B9000400B56E
:10237000000400B1000400AD000400A9000400A5A1
:10238000000300A20003009F0004009B00030098CC
:102390000003009500020093000300900003008DED
:1023A0000002008B00030088000200860002008407
:1023B000000300810002007F0002007D0002007B1C
:1023C000000200790002007700010076000200742C
:1023D00000020072000100710002006F0002006D37
:1023E0000001006C0002006A000100690002006741
:1023F0000001006600010065000100640002006247
:1024000000010061000100600001005F0002005D4A
:102410000001005C0001005B0001005A000100594E
:10242000000100580001005700010056000100554E
:10243000000100540001005300000053000100524D
:1024400000010051000100500001004F0001004E4A
:102450000000004E0001004D0001004C0001004B47
:102460000000004B0001004A000100490001004843
:10247000000000480001004700010046000000463F
:102480000001004500000045000100440001004338
:102490000000004300010042000000420001004132
:1024A00000000041000100400001003F0000003F2B
:1024B0000001003E0000003E0001003D0000003D24
:1024C0000001003C0000003C0000003C0001003B1B
:1024D0000000003B0001003A0000003A0001003912
:1024E000000000390001003800000038000000380A
:1024F0000001003700000037000100360000003600
:1025000000000036000100350000003500000035F5
:1025100000010034000000340000003400010033EA
:1025200000000033000000330001003200000032E0
:1025300000000032000100310000003100000031D5
:102540000001003000000030000000300001002FCA
:102550000000002F0000002F0000002F0001002EBF
:102560000000002E0000002E0001002D0000002DB4
:102570000000002D0000002D0001002C0000002CA8
:102580000000002C0000002C0001002B0000002B9C
:102590000000002B0000002B0001002A0000002A90
:1025A0000000002A0000002A000100290000002984
:1025B0000000002900000029000000290001002877
:1025C000000000280000002800000028000000286B
:1025D000000100270000002700000027000000275E
:1025E0000000002700010026000000260000002651
:1025F0000000002600000026000100250000002544
:102600000000002500000025000000250000002536
:102610000001002400000024000000240000002429
:10262000000000240001002300000023000000231C
:10263000000000230000002300000023000000230E
:102640000001002200000022000000220000002201
:1026500000000022000000220001002100000021F3
:1026600000000021000000210000002100000021E6
:1026700000000021000100200000002000000020D8
:1026800000000020000000200000002000000020CA
:10269000000000200001001F0000001F0000001FBC
:1026A0000000001F0000001F0000001F0000001FAE
:1026B0000001001E0000001E0000001E0000001EA1
:1026C000000000393000003325000087190000B0F9
:1026D0000F0000DB080000BD040000740200003F92
:1026E00001000020436F756E7420583A0023646522
:1026F00066696E652044454641554C545F00006252
:102700006564004B6420004B6920004B7020005032
:102710004944204175746F74756E652066696E69F1
:1027200073686564212050757420746865206C613D
:102730007374204B702C204B6920616E64204B64B5
:1027400020636F6E7374616E74732066726F6D2098
:1027500062656C6F7720696E746F20436F6E666977
:102760006775726174696F6E2E680A005049442063
:102770004175746F74756E65206661696C6564215E
:102780002074696D656F75740A0050494420417565
:10279000746F74756E65206661696C656421205480
:1027A000656D706572617475726520746F6F2068F5
:1027B0006967680A00204B643A2000204B693A2080
:1027C00000204B703A200020436C617373696320D2
:1027D000504944200A00204E6F206F76657273685E
:1027E0006F6F740A002054753A2000204B753A2010
:1027F00000206D61783A2000206D696E3A2000203B
:10280000643A200020626961733A200050494420F4
:102810004175746F74756E652073746172740A000B
:10282000504944204175746F74756E652066616906
:102830006C6564212054656D706572617475726594
:1028400020746F6F20686967680A004265640045FC
:102850003100626564002C2073797374656D207398
:10286000746F7070656421204865617465725F499A
:10287000443A200048656174696E67204661696C5E
:1028800065640048656174696E67206661696C659E
:1028900064004D3131322053687574646F776E0077
:1028A0001000C90210012C01400122017001180121
:1028B000B0010E01F00104015002FA00B002F00074
:1028C0003003E600D003DC009004D2007005C8009D
:1028D000A006BE000008B400B009AA00D00BA000FA
:1028E000600E960060118C0000158200201978009F
:1028F000C01D6E00A0226400B0275A00902C50002A
:1029000000314600E0343C0010383200903A280094
:10291000603C1E00A03D1400803E0A00203F0000E5
:10292000544845524D414C2052554E415741590053
:10293000546865726D616C2052756E6177617900C3
:102940004572723A204D415854454D50004D415802
:1029500054454D502074726967676572656400451F
:1029600072723A204D494E54454D50004D494E54D7
:10297000454D502074726967676572656400202F49
:10298000002042403A0020403A0020573A002057A9
:102990003A00496E76616C6964206578747275647A
:1029A00065720A007C3C3E5E2B3D3F2F5B5D3B2CFD
:1029B0002A225C0043616E6E6F74206F70656E201A
:1029C0007375626469722000534420496E697420F3
:1029D0004661696C0053442063617264206F6B0A26
:1029E000006F70656E526F6F74206661696C65640C
:1029F0000A00766F6C756D652E696E69742066616C
:102A0000696C65640A004E6F2053442063617264F0
:102A10000A000A4D3234004D3233202573002E0A4D
:102A2000006F70656E206661696C65642C20466974
:102A30006C653A200046696C652073656C6563744B
:102A400065640A002053697A653A200046696C651E
:102A5000206F70656E65643A2000454E44205355E2
:102A600042524F5554494E450A002220706F730060
:102A70002220706172656E743A2200535542524FA3
:102A80005554494E452043414C4C20746172676552
:102A9000743A220053756263616C6C204F766572E4
:102AA000666C6F77004578636565646564206D6169
:102AB0007820535542524F5554494E452064657015
:102AC00074683A002E0A0044656C6574696F6E2064
:102AD0006661696C65642C2046696C653A20004625
:102AE000696C652064656C657465643A00534420C4
:102AF0007072696E74696E67206279746520004E29
:102B00006F74205344207072696E74696E670A0096
:102B100057726974696E6720746F2066696C653AD4
:102B20002000667265736800646F696E67002066D6
:102B3000696C653A20004E6F7720002F6175746FC5
:102B400025632E67002020506C616E6E65724275A1
:102B50006666657242797465733A20002046726534
:102B600065204D656D6F72793A2000436F6D706915
:102B70006C65643A20417072203239203230323133
:102B80000A00204C61737420557064617465643A66
:102B900020323032312D30342D3138207C204175B7
:102BA00074686F723A20426F6E6474656368202F98
:102BB00020496E73616E6974794175746F6D6174CB
:102BC000696F6E0A00322E302E375F4457372E332E
:102BD0000A004D61726C696E0020536F66747761F4
:102BE00072652052657365740A00205761746368CA
:102BF000646F672052657365740A002042726F77B4
:102C00006E206F75742052657365740A00204578D4
:102C10007465726E616C2052657365740A00506F42
:102C200077657255700A0073746172740A004739CF
:102C3000310A47315A350A4739300A4D38340A4D7E
:102C400031303453300A4D3134305330004D31304F
:102C50003031006572726F722077726974696E67C5
:102C600020746F2066696C650A00446F6E6520737E
:102C70006176696E672066696C652E0A004D32398F
:102C800000456E6473746F707300255320256320B4
:102C9000256320256320256300205A3A0020593AF5
:102CA0000020583A00656E6473746F707320686911
:102CB000743A200000000A0B02090C0D0E080703ED
:102CC00004010000000000000000000000000000FF
:102CD00000000000000000000000000000000000F4
:102CE00012111000000000000000000000000000B1
:102CF000000000000000000000006001F40170010D
:102D0000EA019001E001B001D601D001CC0100023E
:102D1000C2013002B8016002AE019002A401D002EB
:102D20009A012003900170038601C0037C013004E6
:102D30007201A004680120055E01B005540160061F
:102D40004A0120074001F0073601F0082C01100A63
:102D50002201500B1801C00C0E01500E040130105E
:102D6000FA002012F0005014E600C016DC007019C2
:102D7000D200501CC800501FBE007022B400B02505
:102D8000AA00F028A000202C9600302F8C001032D2
:102D90008200A0347800F0366E00E0386400803A9B
:102DA0005A00403B5500E03B5000F03C4600C03D1F
:102DB0003C00603E3200E03E2800303F1E00503FA5
:102DC0001900703F1400A03F0A00C03F0000D03F30
:102DD000F6FFE03FECFFFFFFFF50726F62696E6726
:102DE000204661696C656400205A3A200020593AF7
:102DF000200042656420583A20003D3D6F6E5573B7
:102E00006572436F6E6669726D5265717569726540
:102E1000643D3D00220A00556E6B6E6F776E206335
:102E20006F6D6D616E643A202200204200205000D8
:102E30006F6B00204500205A00205900204D393288
:102E400020580020453A00205A3A0020593A0058AC
:102E50003A0020746F6F206C6F6E67206578747213
:102E60007573696F6E2070726576656E7465640A3D
:102E70000020636F6C6420657874727573696F6E7F
:102E80002070726576656E7465640A0043616E6ECB
:102E90006F7420656E746572207375626469723A2E
:102EA00020004D323520500A4D3234005265737582
:102EB0006D65005549205061757365004E6F204D5A
:102EC00061746368203A004D32320A4D323100524B
:102ED0006566726573680050675570005067446F8F
:102EE000776E0049732046696C6520004973204461
:102EF00069722000476F5570446972004861732001
:102F00004D656469610046696C656E616D6520534D
:102F1000656C6563746564004D3130303043004D3D
:102F2000313030300046696C616D656E74205374C9
:102F300061742030202D20330046696C616D656E10
:102F40007420537461742030202D20320046696C47
:102F5000616D656E7420537461742030202D2031B2
:102F6000002046696C616D656E7420526573706FE8
:102F70006E7365204E6F00526573756D65205965DF
:102F80007320647572696E67207072696E74000ACE
:102F9000204E6F2046696C616D656E7400496E76D7
:102FA000616C6964204F7074696F6E004D3530300C
:102FB0000053746F72652053657474696E67730093
:102FC0004265642050494420537461727465640002
:102FD0004D3939390A4D323830503053313630009E
:102FE000424C546F756368205265736574004D35AB
:102FF00030320A4D35303000496E697420454550F5
:10300000524F4D00486F74656E6420504944205300
:1030100074617274656400456E676C697368204101
:103020006C726561647920536574004368696E65EC
:103030007365204E6F7420537570706F7274656481
:1030400000496E4C616E6743686F696365000A20D2
:103050002A2A2A7265636461742E646174615B302C
:103060005D203D004732380A47312046313030304C
:10307000205A313000556E737570706F72746564CC
:10308000204F7074696F6E2053656C65637465645E
:103090000047323652323535004D313930533535EF
:1030A0000A4732380A4732390A4D3430300A4D3136
:1030B0003034533231350A4732380A4D31303953C2
:1030C0003231350A4D34323053310A4731583130BC
:1030D000305931303046353030300A47315A300AB5
:1030E0004D3530300A4D31313720536574205A2028
:1030F0004F666673657400473120463130303020AA
:103100005A302E30004732380A47312046313030AD
:1031100030205A302E30004D353030005A204F6666
:1031200066736574203A202573004D353030005A9F
:10313000204F6666736574203A2025730047323845
:103140000A473146313530305A302E300047323858
:103150005A0A473146313530305A302E30004D381A
:103160003400473146313030305A302E300047324B
:10317000380A473146313030305A302E30004D61F8
:103180006E75616C53657454656D70005265717530
:103190006573746564204F66667365742042657953
:1031A0006F6E64204C696D697473005A204F6666B7
:1031B000736574203A20257300526F756E64696ED2
:1031C0006720746F20737465700052657175657344
:1031D000746564204F6666736574200053746F7065
:1031E000205472696767657265640053746F70205C
:1031F0004E6F0053746F705072696E740048616E48
:10320000646C6520446174612041646A7573742044
:10321000322053657474696E672053637265656EFE
:10322000200048616E646C652044617461205072B6
:10323000696E7446696C6520332053657474696ED9
:10324000672053637265656E200048616E646C652B
:103250002044617461205072696E7446696C652007
:10326000322053657474696E672053637265656EAE
:1032700020004D38340048616E646C6520446174F0
:1032800061205072696E7446696C6520506F73746A
:103290000048616E646C65204461746120507269FD
:1032A0006E7446696C652050726500426567696E90
:1032B000537769746368003D3D20436865636B6BB9
:1032C00065793D3D007265636461742E616464726A
:1032D000203D3D007265636461742E646174615BBE
:1032E000305D203D3D0077616974776179203D3D17
:1032F0000020202A2A2A2A2A2A2A5254535F486167
:103300006E646C65446174612A2A2A2A2A2A2A2A50
:103310002000526573656E643A200000002200258B
:103320000028002B002E00310034000201000005AF
:103330000108010B0100002100240027002A002DB4
:10334000003000330001010000040107010A0105FB
:10335000050505070508080808020202020A0A080E
:103360000804040404010101010101010103030334
:103370000303030303040707070C0C0C0C0C0C0CD1
:103380000C0202020206060606060606060B0B0BD8
:103390000B0B0B0B0B010210202008081020401013
:1033A0002040800201020108040201010204081009
:1033B0002040808040201008040201800402018027
:1033C0004020100804020108040201010204081050
:1033D00020408001020408102040804444582031DD
:1033E00030532050726F2052656164792E00507204
:1033F000696E74696E672E2E2E005072696E74208D
:10340000506175736564006E6F7469666963617499
:10341000696F6E20005049442054756E65204669DE
:103420006E697368656400005401760111241FBE43
:10343000CFEFD1E2DEBFCDBF00E00CBF13E0A0E0D4
:10344000B2E0E4E0F5E502E00BBF02C007900D92A8
:10345000AE3FB107D9F725E1AEEFB3E001C01D9251
:10346000AB3DB207E1F71AE1C5E1DAE100E006C0E1
:1034700021970109802FFE010F94AF26C431D10797
:1034800080E00807A9F70F94CD140D94702A0C94CE
:1034900000009F92AF92BF92CF92DF92EF92FF9285
:1034A0000F931F93CF93DF9300D01F921F92CDB73E
:1034B000DEB7EEE3FAE10027BB27462F572FA82FF0
:1034C000AA2341F4A52F542FB85FAA2319F4A52FDE
:1034D0005527B85FA03138F45295A295452F4F700B
:1034E000507FA42BBC5FA03428F4550FAA1F550FA2
:1034F000AA1FBE5FA03818F4550FAA1FB395550F29
:10350000AA1FEA0FF01F449151E0AA27B85081F199
:10351000C8F0B0FF02C0440F551FB1FF04C0440FF4
:10352000551F440F551FB2FF06C052954295142FE8
:103530001F70407F512BB3FF1BC0A52F542F442772
:103540000C94B81AB195B0FF02C055954795B1FFDC
:1035500004C05595479555954795B2FF05C05295BE
:10356000407F4295452B5F70B3FF02C0452F552722
:10357000DD24CC24BB24B2E0649FD018C108B00A7B
:10358000B00B749FC018B108B00B849FB018B1097C
:10359000659FC018B108B00B759FB018B109859F21
:1035A000B0196A9FB018B1097A9FB0194D9DA12C2E
:1035B00099243327992722275D9DA00C911C301F49
:1035C000901F201FAD9D900C311D901F201F4C9D02
:1035D000A00C911C301F901F201F5C9D900C311D72
:1035E000901F201FAC9D300D911D201F4B9D900CF6
:1035F000311D901F201F5B9D300D911D201FAB9D25
:10360000900D211D4B9F300D911D201F5B9F900D34
:10361000211DAB9F200DB1E0BB24CC24DD24639F92
:10362000D018C108B00AB00B739FC018B108B00B16
:10363000839FB018B109699FC018B108B00B799F7A
:10364000B018B109899FB019629FB018B109729F73
:10365000B019D61AC70AB80A20F0B1E03B0F901F84
:10366000201F1124792F632F90E0822F0F900F904D
:103670000F900F900F90DF91CF911F910F91FF90BE
:10368000EF90DF90CF90BF90AF909F900895AF9252
:10369000BF92CF92DF92EF92FF920F931F93CF933F
:1036A000DF93C1E3DCE004EE18E081E4A82E8CE0B7
:1036B000B82EC12CD12C7601C3946991799189914E
:1036C00099910F94F91F288939894A895B890F9448
:1036D0005A200F942B28F801619371938193919351
:1036E0008F01C616D706E806F90610F46B017C01B7
:1036F000AC16BD0611F76FEF7FEFCB01A701960166
:103700000F9438262093F4083093F5084093F60878
:103710005093F708DF91CF911F910F91FF90EF9099
:10372000DF90CF90BF90AF900895CF92DF92EF924D
:10373000FF928091F007882309F457C0C090EC07EE
:10374000D090ED07E090EE07F090EF0720E030E03A
:10375000A901C701B6010F94F41F882309F445C0DD
:1037600020E030E040E05FE3C701B6010F945A204B
:103770009B01AC010F945A202BED3FE049E450E44B
:103780000F945A209B01AC0160E070E080E89FE359
:103790000F94B2276B017C01C092790CD0927A0C05
:1037A000E0927B0CF0927C0C609165027091660255
:1037B000072E000C880B990B0F94FB1F2AE037EDA6
:1037C00043E25CE30F945A20A70196010F945A201C
:1037D000609361027093620280936302909364022B
:1037E000FF90EF90DF90CF900895C12CD12C80E80E
:1037F000E82E8FE3F82ED0CF0F931F93CF93DF9354
:1038000050E0FC01E40FF51F8081440F551F440F69
:10381000551F46565A4FEA01882329F1888199811C
:10382000AA81BB81EB01088119812A813B81009724
:10383000A105B10569F40C591F4F2F4F3F4FDA0115
:103840000D931D932D933C9313978FEF808306C0A8
:10385000081B190B2A0B3B0B37FDF7CFDF91CF91DC
:103860001F910F910895188219821A821B82F6CF38
:10387000CF93DF9324E0829FC0011124EC01C95350
:10388000D74FFC01E350F84F8F50984FDC012D913A
:103890003D914D915C9160817181828193810F9402
:1038A000B826688379838A839B83DF91CF910895BB
:1038B0008091950590919605A0919705B0919805F6
:1038C0008093410290934202A0934302B09344023A
:1038D000809193059091940590936802809367027C
:1038E00008958091410290914202A0914302B091CB
:1038F00044028093950590939605A0939705B09305
:103900009805809167029091680290939405809346
:10391000930584E690E0909368028093670208958F
:103920008091351290913612891B877089F48091AD
:10393000890D81110DC080917D0C90917E0C892B99
:1039400039F481E09091A306911103C080E00895BD
:1039500081E00895CF93DF93DB01F9019C919130D1
:10396000C1F0943080F094509C938830D1F48081E1
:103970009181009771F0019791838083480F591FBF
:10398000EA01188206C08C3539F49C5F9C93943010
:1039900041F4DF91CF9108958B3339F781E08C9317
:1039A000F8CF20813181B9016F5F7F4F71836083D0
:1039B000420F531FEA018883808191818F359105E1
:1039C0006CF7E7CF0F931F9381E00091D91310910B
:1039D000DA132091DB133091DC134091D513509111
:1039E000D6136091D7137091D813041715072607C3
:1039F000370708F480E01F910F91089590E080E070
:103A00000895282F9091EB07833021F495FD0FC086
:103A100094FD0FC0892F90E0B0E0A0E004C0B695FF
:103A2000A795979587952A95D2F78170089581E09B
:103A3000089580E00895FC016591759185919491B8
:103A400008958F929F92AF92BF92CF92DF92EF92A2
:103A5000FF92CF93DF93EC018090C3089090C4084D
:103A6000A090C508B090C60820E030E0A901C501CB
:103A7000B4010F94F41F882309F454C0C880D9807E
:103A8000EA80FB80A7019601C501B4010F94F41FE1
:103A900018160CF04CC02091BB083091BC08409126
:103AA000BD085091BE08C701B6010F94F41F8823CA
:103AB00031F1C092BB08D092BC08E092BD08F092F0
:103AC000BE082091BF083091C0084091C1085091B4
:103AD000C208688179818A819B810F945A209B0159
:103AE000AC0160E070E080E89FE30F94B72660933C
:103AF0000F02709310028093110290931202609152
:103B00000F02709110028091110290911202DF91C8
:103B1000CF91FF90EF90DF90CF90BF90AF909F90AC
:103B20008F90089560E070E080E89FE3F0CF60E060
:103B300070E0CB01ECCFCF92DF92EF92FF92CF9368
:103B4000DF93EC01CC80DD80EE80FF8027E137EB56
:103B500041ED58EBC701B6010F94182987FD23C02A
:103B600023E030E04BE953E4C701B6010F94F41FA2
:103B70001816CCF0C880D980EA80FB8027E137EBAB
:103B800041ED58EBC701B6010F94182987FD0BC012
:103B9000C1E023E030E84DE953E4C701B6010F94DA
:103BA000F41F18160CF4C0E08C2FDF91CF91FF901A
:103BB000EF90DF90CF9008952FEB280F2A3108F077
:103BC00047C0E22FF0E08091320590913305A0913B
:103BD0003405B091350504C0B695A795979587959E
:103BE0002A95D2F780FD02C081700895EC5EFA4FED
:103BF000E081EE2341F18091810790918207E80FE7
:103C0000F92FF11D808190ED980F9A3030F08E32AF
:103C100051F4818180538A3098F4F0930305E09346
:103C2000020581E008958D3211F08B3249F48181D3
:103C300090ED980F9A3088F38E3211F48281EACF9A
:103C4000F0E0E0E0EACF1092030510920205E9CF20
:103C500080E008950E94DC1D882341F081E02091DE
:103C6000020530910305232B09F480E008958F921B
:103C70009F92AF92BF92CF92DF92EF92FF92C0904D
:103C8000D105D090D205E090D305F090D40520E086
:103C900030E0A901C701B6010F94F41F8823E1F1B8
:103CA000A701960160E070E080E89FE30F94B227DF
:103CB0006B017C018090D5059090D605A090D7052A
:103CC000B090D80520E030E0A901C501B4010F94FF
:103CD000F41F882329F1A501940160E070E080E8D9
:103CE0009FE30F94B227C092D804D092D904E092F7
:103CF000DA04F092DB046093DC047093DD048093BB
:103D0000DE049093DF04FF90EF90DF90CF90BF90A0
:103D1000AF909F908F900895C12CD12C7601CACF7F
:103D200060E070E0CB01DFCF129A08955F9A809136
:103D30002F0C8E7F80932F0C8A9A80912F0C8D7F71
:103D400080932F0C809108018095817080930601EB
:103D500080912F0C8B7F80932F0C0C94941E269AAD
:103D60002E9A0895833B21E0920714F083EB91E0B3
:103D70009093E6118093E5110C94AAEDEDE0F6E046
:103D8000108211821282138214820C94AAED4F9237
:103D90005F926F927F928F929F92AF92BF92CF92DB
:103DA000DF92EF92FF920F931F93CF93DF93EC017B
:103DB0002091C9053091CA054091CB055091CC05A1
:103DC000688179818A819B810F94B7266B017C0180
:103DD0002091CD053091CE054091CF055091D00571
:103DE0006C817D818E819F810F94B7264B015C0190
:103DF000A70196016091030270910402809105026F
:103E0000909106020F94F41F882309F450C0C092C9
:103E10000302D0920402E0920502F0920602209181
:103E2000D8043091D9044091DA045091DB04C701E1
:103E3000B6010F945A202B013C010F945A286B01B4
:103E40007C0120E030E0A9010F94F41F87FD70C0D1
:103E500020E030E040E450E4C701B6010F94182997
:103E600018162CF4C12CD12CC0E4EC2EFE2CA7018A
:103E70009601C301B2010F94B7266093D0047093EA
:103E8000D1048093D2049093D304C701B6010F9458
:103E900024286093CE04062E000C770B6F5F7F4FB3
:103EA0006430710514F064E070E06093CC04D0914C
:103EB00001021091CE04A501940160910702709156
:103EC00008028091090290910A020F94F41F811157
:103ED00033C0D11381C02091B4043091B504409116
:103EE000B6045091B7046091D0047091D1048091D0
:103EF000D2049091D3040F945A202091B8043091A9
:103F0000B9044091BA045091BB040F94B826DF91D4
:103F1000CF911F910F91FF90EF90DF90CF90BF90C6
:103F2000AF909F908F907F906F905F904F9008958B
:103F3000C12CD12C76019BCF80920702909208026F
:103F4000A0920902B0920A022091DC043091DD04B3
:103F50004091DE045091DF04C501B4010F945A2052
:103F60004B015C010F945A286B017C0120E030E08A
:103F7000A9010F94F41F87FDF3C020E030E040E476
:103F800050E4C701B6010F94182918162CF4C12C5F
:103F9000D12CB0E4EB2EFE2CA7019601C501B40193
:103FA0000F94B7266093D4047093D5048093D604FD
:103FB0009093D704C701B6010F9424286093CF04CF
:103FC000062E000C770B6F5F7F4F6430710514F085
:103FD00064E070E06093CD04C091CF04D11305C0BC
:103FE000809102028C1709F470C08091CE049091E8
:103FF000CF0490930202809301020C2E000CDD0B83
:1040000025E01203C0011124FC01EC0FFD1FEE0F8F
:10401000FF1FEE0FFF1FE957F84F208131814281CA
:1040200053812093C8043093C9044093CA04509329
:10403000CB040091CD04002E000C110BFC01E00F0D
:10404000F11FEE0FFF1FEE0FFF1FE957F84F6081C2
:104050007181828193810F94B7266093C404709319
:10406000C5048093C6049093C7042091CC0435E026
:104070002303F0011124CE0FDF1FCC0FDD1FCC0F67
:10408000DD1FC957D84F288139814A815B81209330
:10409000C0043093C1044093C2045093C304E00FA2
:1040A000F11FEE0FFF1FEE0FFF1FE957F84F608162
:1040B0007181828193810F94B7266093BC047093C1
:1040C000BD048093BE049093BF048090D40490906C
:1040D000D504A090D604B090D7042091C4043091A8
:1040E000C5044091C6045091C704C501B4010F94A2
:1040F0005A202091C8043091C9044091CA045091BB
:10410000CB040F94B8266B017C01C092B804D09206
:10411000B904E092BA04F092BB042091BC0430913F
:10412000BD044091BE045091BF04C501B4010F9479
:104130005A202091C0043091C1044091C204509192
:10414000C3040F94B826A70196010F94B726609375
:10415000B4047093B5048093B6049093B704BBCEB7
:10416000C12CD12C760118CFCF92DF92EF92FF9223
:10417000CF93DF93EC0108960E94211D6B017C0117
:1041800020E030E0A9010F94F41F20E030E0A90105
:10419000882359F0CE010E94C71E9B01AC01C701C4
:1041A000B6010F945A209B01AC01688579858A85F8
:1041B0009B850F94B726688779878A879B87DF91CD
:1041C000CF91FF90EF90DF90CF9008952F923F9284
:1041D0004F925F926F927F928F929F92AF92BF9217
:1041E000CF92DF92EF92FF920F931F93CF93DF93C3
:1041F000D62FC72FFC0180809180A280B380C5019B
:10420000B40120E831E541E050E00F943826C901BF
:104210006DE671E00F949B266B017C01C501B40132
:1042200020E13EE040E050E00F943826CA01B90199
:1042300028E130E040E050E00F943826362E272E5B
:10424000062F172F8CE3482E512C612C712CC501A1
:10425000B401A30192010F943826B62EA72ECA01ED
:10426000B901A30192010F943826CB01C114D104E6
:1042700079F1AF92BF927F936F932F923F92FF920B
:10428000EF92DF92CF9288E496E19F938F93CF9342
:10429000DF930F948B1F8DB79EB70E960FB6F894D1
:1042A0009EBF0FBE8DBF8D2F9C2FDF91CF911F9191
:1042B0000F91FF90EF90DF90CF90BF90AF909F90C5
:1042C0008F907F906F905F904F903F902F900895C8
:1042D000E114F104C9F0AF92BF927F936F932F92D4
:1042E0003F92FF92EF9288E396E19F938F93CF9353
:1042F000DF930F948B1FEDB7FEB73C960FB6F89483
:10430000FEBF0FBEEDBFCFCF012BB9F0AF92BF9272
:104310007F936F932F923F928CE296E19F938F93BE
:10432000CF93DF930F948B1F8DB79EB70A960FB66E
:10433000F8949EBF0FBE8DBFB6CF892BA9F0AF9268
:10434000BF927F936F9384E296E19F938F93CF9375
:10435000DF930F948B1FEDB7FEB738960FB6F89426
:10436000FEBF0FBEEDBF9FCFAF92BF9280E296E13E
:104370009F938F93CF93DF930F948B1F0F900F908A
:104380000F900F900F900F908ECFEF92FF920F93A0
:104390001F93CF93DF93CDB7DEB78C01EDB6FEB69A
:1043A0000F94411F01962DB73EB7281B390B0FB64E
:1043B000F8943EBF0FBE2DBF8DB79EB70196B801D2
:1043C0000F943A1F0F9405110FB6F894FEBE0FBE5E
:1043D000EDBEDF91CF911F910F91FF90EF90089567
:1043E0008C38910514F08CE890E090937B118093C9
:1043F0007A110C94A4BAAB01BC014093D913509329
:10440000DA136093DB137093DC1381E495E10C9471
:104410005CAB2F923F924F925F926F927F928F92FE
:104420009F92AF92BF92CF92DF92EF92FF920F9343
:104430001F93CF93DF93CDB7DEB760970FB6F89495
:10444000DEBF0FBECDBF8B876C87042F122F282FA6
:1044500030E03E872D87462F50E05A87498785E018
:10446000982E929EC001939E900D1124988B8F8759
:10447000FA01E80FF91FEE0FFF1FEE0FFF1FE957BC
:10448000F84F60817181828193819B01AC010F940F
:10449000AA29882309F445C14B85400F6C85610F1B
:1044A000949EC0011124E985FA85E80FF91FEE0FEB
:1044B000FF1FEE0FFF1FE957F84FC080D180E28049
:1044C000F380040F909EA0011124E985FA85E40F82
:1044D000F51FEE0FFF1FEE0FFF1FE957F84F00818A
:1044E000918082807380262F30E0EF85F889E20F7B
:1044F000F31FEE0FFF1FEE0FFF1FE957F84F20804D
:104500007181798372817A8373817B83610F70E01B
:10451000EF85F889E60FF71FEE0FFF1FEE0FFF1F65
:10452000E957F84FF88BEF87F081FC83EF85F88926
:10453000F181FD83EF85F889F281FE83EF85F889AB
:10454000F381FF83FC01E20FF31FEE0FFF1FEE0F5D
:10455000FF1FE957F84F20812887A180B280638030
:10456000FA01E60FF71FEE0FFF1FEE0FFF1FE957CF
:10457000F84F4080518032801381202F392D482DF3
:10458000572D602F792D882D972D0F94AA298823D8
:1045900021F000E0912C812C712C9601A701B6012D
:1045A000C7010F94AA29882321F0C02ED92CE82C0A
:1045B000F72C2C813D814E815F816C817D818E81C4
:1045C0009F810F94AA29882321F01C821D821E82BC
:1045D0001F82222D39814A815B81622D79818A81F6
:1045E0009B810F94AA29882339F02C803D8139833F
:1045F0004E814A835F815B839201432D512FB2012B
:10460000832D912F0F94AA29882321F0412C512C1E
:10461000312C10E028853A2D4B2D562D68857A2DAA
:104620008B2D962D0F94AA29882321F04886A52C3E
:10463000B32C612E85E02D853E85829FF001839FFE
:10464000F00D112449855A85E40FF51FEE0FFF1F69
:10465000EE0FFF1FE957F84FFA87E9879601A70188
:10466000B601C7010F94B826202F392D482D572D9C
:104670000F94B7266B017C01222D39814A815B8121
:10468000622D79818A819B810F94B8262C813D818E
:104690004E815F810F94B7269B01AC01C701B60123
:1046A0000F94B8266B017C0128853A2D4B2D562D91
:1046B00068857A2D8B2D962D0F94B8269201432D67
:1046C000512F0F94B7269B01AC01C701B6010F947F
:1046D000B82620E030E040E450E40F94B227E985AA
:1046E000FA8560837183828393836C858B85609662
:1046F0000FB6F894DEBF0FBECDBFDF91CF911F91F3
:104700000F91FF90EF90DF90CF90BF90AF909F9070
:104710008F907F906F905F904F903F902F900D946F
:10472000630F60960FB6F894DEBF0FBECDBFDF916A
:10473000CF911F910F91FF90EF90DF90CF90BF909E
:10474000AF909F908F907F906F905F904F903F9031
:104750002F9008958091020590910305009731F004
:104760004AE050E070E060E00D940F1E60E070E001
:10477000CB0108958091020590910305009731F0D7
:104780004AE050E070E060E00D94E11C60E070E011
:10479000CB010895CF93DF93EB010E942A1E88235B
:1047A00019F00E94BA23EB01CE01DF91CF91089559
:1047B0000E94BA2397FD0CC00E94BA236F3F710577
:1047C0008105910509F034F40E94BA23862F0895DB
:1047D00080E008958FEF0895CF93C62F0E942A1E80
:1047E000882319F0CF910C94D8238C2FCF91089562
:1047F0008091020590910305892B41F00E94D823F6
:1048000091E0811101C090E0892F089591E0FCCFE3
:10481000CF93DF93C82FD62F0E942A1E882321F022
:10482000DF91CF910C94F8238C2F0E94DC1D811115
:1048300001C08D2FDF91CF9108950E94BA23CB0143
:104840000895CF93DF93EB010E942A1E882321F065
:10485000DF91CF910C941D24CE01DF91CF9108956B
:104860000F931F93CF9380910205909103050097BA
:10487000E9F0FC018F01C1912C2F2F7D81F0C5340F
:1048800011F0C536B9F7F801108270E060E00F94BE
:10489000831BF801C083CF911F910F91089570E0A1
:1048A00060E0CF911F910F910D94831B60E070E049
:1048B000CB01F1CFCF92DF92EF92FF926A017B01A1
:1048C0000E942A1E882331F0FF90EF90DF90CF9056
:1048D0000C943024C701B601FF90EF90DF90CF9089
:1048E00008954F925F926F927F928F929F92AF92B4
:1048F000BF92CF92DF92EF92FF921F93CF93DF93FD
:1049000000D01F92CDB7DEB719821A821B821C829B
:10491000CE0101964C018EE6C82E87E0D82E9FE18D
:10492000E92E9CE0F92E27ECA22E28E0B22E10E012
:1049300088E5810F0E942A1EF40181934F0188238C
:1049400009F4E0C00E9430242B013C01812F0E9419
:10495000011D882309F4CCC0F701208131814281F7
:104960005381C301B2010F94B826F60160837183AD
:10497000828393831F5FF4E0CF0ED11C84E0E80EA6
:10498000F11C94E0A90EB11C133091F685E40E944D
:104990002A1E8C83882309F4C0C00E9430246B0136
:1049A0007C0183E00E94011D882371F020912B0C73
:1049B00030912C0C40912D0C50912E0CC701B6015A
:1049C0000F94B8266B017C01C0927A07D0927B07C6
:1049D000E0927C07F0927D078091C805882359F109
:1049E0008091DD1382FF27C08C81882321F189818A
:1049F000811103C08A818823F1F02DEC3CEC4CE45A
:104A00005DE36091120870911308809114089091F1
:104A100015080F94B8269B01AC016091270C70918A
:104A2000280C8091290C90912A0C0F9418291816A3
:104A300014F40F94A90E40E050E0BA0186E40E94FD
:104A40005A2420E030E0A9010F941829181684F4A4
:104A50000E94302420E030E040E752E40F94B22777
:104A60006093410270934202809343029093440208
:104A70008091DD0B83FD28C080918E06882321F173
:104A800020912B0C30912C0C40912D0C50912E0C20
:104A900060917A0770917B0780917C0790917D07E8
:104AA0000F94B72620919B0630919C0640919D065D
:104AB00050919E060F94B82660939B0670939C06B7
:104AC00080939D0690939E060F900F900F900F90ED
:104AD000DF91CF911F91FF90EF90DF90CF90BF902B
:104AE000AF909F908F907F906F905F904F900895C0
:104AF000F5012081318142815381C301B2010F94BC
:104B0000B72633CFF70180819181A281B381F6016D
:104B100080839183A283B3832DCF80912B0C9091BE
:104B20002C0CA0912D0CB0912E0C80937A079093B1
:104B30007B07A0937C07B0937D074ECFCF92DF9287
:104B4000EF92FF926B017C0183E3C816D104E1046C
:104B5000F10470F082E3C81AD108E108F10862E3B9
:104B600070E080E090E00E94DDA20E941EBEECCFCB
:104B7000C701B6010E94DDA2FF90EF90DF90CF90B9
:104B80000C941EBE0F931F93CF93DF9305E41CE09C
:104B9000CEE5D1E1F80121913191419151918F01FF
:104BA00060E070E080E89FE30F94B2276993799307
:104BB00089939993F1E1CE36DF0761F70F94E80C02
:104BC000DF91CF911F910F910C94471BCF92DF92F1
:104BD000EF92FF92CF93DF932091300C222329F1A3
:104BE000EC0108960E94211D6B017C0120E030E061
:104BF000A9010F94F41F20E030E0A901882359F0A7
:104C0000CE010E94C71E9B01AC01C701B6010F94E3
:104C10005A209B01AC01688579858A859B850F9414
:104C2000B826688779878A879B87DF91CF91FF9025
:104C3000EF90DF90CF9008952F923F924F925F9226
:104C40006F927F928F929F92AF92BF92CF92DF929C
:104C5000EF92FF920F931F93CF93DF93CDB7DEB701
:104C60006C970FB6F894DEBF0FBECDBF8C015B0111
:104C70005A834983FC01EA5BFF4F208131814281E5
:104C8000538129873A874B875C87CA01B9010F9402
:104C9000F91F6B017C01D5012D913D914D915C91E6
:104CA0000F945A200F9496272B013C01E981FA8139
:104CB0002081318142815381C701B6010F945A206E
:104CC0000F9496274B015C01C301B2010F942B286E
:104CD000698B7A8B8B8B9C8B68377105810591056D
:104CE00040F428E730E040E050E0298B3A8B4B8BD2
:104CF0005C8BC501B4010F942B286D877E878F874D
:104D0000988B683771058105910540F448E750E0BC
:104D100060E070E04D875E876F87788BF801EE5A10
:104D2000FF4F4080518062807380C301B2010F94B5
:104D3000FB1F69837A838B839C8369897A898B893A
:104D40009C890F94F91F6D8B7E8B8F8B988F20E041
:104D500030E0A90169817A818B819C810F94F41FD5
:104D6000882309F4E1C1A7019601C701B6010F9498
:104D70005A204B015C012D893E894F89588DCA010B
:104D8000B9010F945A209B01AC01C501B4010F94E5
:104D9000B7264B015C0129813A814B815C81CA01B4
:104DA000B9010F94B8269B01AC01C501B4010F9461
:104DB000B2270F9496270F942B286D837E838F83C1
:104DC000988766277727CB016419750986099709A3
:104DD0000F94FB1F4B015C016D857E858F85988943
:104DE0000F94F91F2B013C0120E030E0A901C5011F
:104DF000B4010F94F41F882309F49AC1A30192010E
:104E0000C301B2010F945A20698F7A8F8B8F9C8FC8
:104E1000A7019601C701B6010F945A209B01AC016E
:104E2000698D7A8D8B8D9C8D0F94B7266B017C01DB
:104E3000A5019401C501B4010F94B8269B01AC01F2
:104E4000C701B6010F94B2270F945A28D80195963E
:104E50008D909D90AD90BC909897750164012D81C7
:104E60003E814F815885C21AD30AE40AF50A0F948D
:104E70002B28C61AD70AE80AF90AF7FE8EC02D8930
:104E80003E894F89588DCA01B9010F945A206B0190
:104E90007C0129813A814B815C81CA01B9010F945F
:104EA000B82669877A878B879C8720E030E0A90144
:104EB00069817A818B819C810F94F41F882309F486
:104EC0003BC1C501B4010F94F91F29853A854B8573
:104ED0005C850F945A20A70196010F94B7266D8325
:104EE0007E838F839887A3019201C301B2010F943F
:104EF0005A209B01AC016D817E818F8198850F9432
:104F0000B8262B013C0120E030E040E850E4698104
:104F10007A818B819C810F945A209B01AC01C30143
:104F2000B2010F94B2270F9496272B013C0120E089
:104F300030E0A9010F94182918161CF0412C512CAF
:104F40003201C301B2010F942B286D837E838F83BE
:104F5000988786169706A806B90620F48D829E8249
:104F6000AF82B8866D817E818F8198850F94F91FFD
:104F700029853A854B855C850F945A20A7019601B7
:104F80000F94B8260F9466290F942B2869877A8787
:104F90008B879C87C12CD12C760169857A858B857E
:104FA0009C8529893A894B895C89621B730B840B28
:104FB000950B0F94F91F29813A814B815C810F94E5
:104FC000B22720E034E244EF59E40F945A200F94C2
:104FD0002B284B015C0169857A858B859C852D8505
:104FE0003E854F855889621B730B840B950B0F947C
:104FF000F91F29813A814B815C810F94B22720E00F
:1050000034E244EF59E40F945A200F942B282B01DB
:105010003C013FE683169104A104B10408F090C05E
:10502000F401EE0FFF1FEE0FFF1FEE57F74E8591B5
:105030009591A591B4918983292E3A2EBD8B4FE687
:10504000441651046104710408F083C0F201EE0FAC
:10505000FF1FEE0FFF1FEE57F74E459155916591DB
:1050600074919A01CB014D815E816F817885D80161
:1050700099964D935D936D937C939C974C0D5D1D1C
:105080006E1D7F1DF80145A756A767A770ABE65BAD
:10509000FF4F49895A896B897C8940835183628398
:1050A0007383D5968D929D92AD92BC92D897F8015C
:1050B00041AE52AE63AE74AEFD964981408321820B
:1050C00032825D8953833496208331838283938334
:1050D00069857A858B859C85D1966D937D938D931B
:1050E0009C93D4973D962D853E854F855889208386
:1050F0003183428353836C960FB6F894DEBF0FBEA4
:10510000CDBFDF91CF911F910F91FF90EF90DF9076
:10511000CF90BF90AF909F908F907F906F905F9057
:105120004F903F902F90089560E070E0CB0141CE0A
:1051300060E070E0CB0188CE60E070E0CB01F3CEA0
:10514000C501B4010E94491A6983272E382E9D8B10
:1051500076CFC301B2010E94491A9B0184CF80918E
:10516000351290913612891B877019F490E080E017
:10517000089590913212992351F0833030F48FEFDB
:10518000890F19F080933212F1CF10923212809170
:1051900036122CE5829FC00111248350974FFC01E9
:1051A000208120FDE3CF209136122F5F27702093BE
:1051B00033123091361220913412321304C02091F0
:1051C000331220933412089590916F0081E091FD85
:1051D00002C080E0089590916F009D7F90936F00D2
:1051E000089580FF04C09091990590FD8E7F81FF06
:1051F00005C090919905969590FD8D7F82FF06C020
:10520000909199059695969590FD8B7F08958F9234
:105210009F92AF92BF92CF92DF92EF92FF92CF9385
:10522000DF9320914502222309F49EC0EC01809176
:105230009905C82ED12CF12CE12C80FF2CC0809038
:10524000470290904802A0904902B0904A022881FB
:1052500039814A815B81C501B4010F941829181660
:1052600024F488829982AA82BB8280905302909013
:105270005402A0905502B0905602288139814A818B
:105280005B81C501B4010F94F41F87FF04C08882BD
:105290009982AA82BB82D701C601B695A795979538
:1052A000879580FF2CC080904B0290904C02A0907C
:1052B0004D02B0904E022C813D814E815F81C5012F
:1052C000B4010F941829181624F48C829D82AE82A2
:1052D000BF828090570290905802A0905902B090DF
:1052E0005A022C813D814E815F81C501B4010F942A
:1052F000F41F87FF04C08C829D82AE82BF8282E051
:10530000F694E794D794C7948A95D1F7C0FE2CC041
:10531000C0904F02D0905002E0905102F0905202A3
:10532000288539854A855B85C701B6010F94182900
:10533000181624F4C886D986EA86FB86C0905B02DC
:10534000D0905C02E0905D02F0905E022885398585
:105350004A855B85C701B6010F94F41F87FF04C01F
:10536000C886D986EA86FB86DF91CF91FF90EF90C1
:10537000DF90CF90BF90AF909F908F900895CF9285
:10538000DF92EF92FF920F931F93C12CD12C7601E5
:105390008C012BE23CE047E25CE063E27CE08FE1E1
:1053A0009CE00E940DF51F910F91FF90EF90DF9010
:1053B000CF9008950D94E80C8091A006811105C04E
:1053C00080917F07882309F463C080918605659BDF
:1053D00059C0816080938605909103018091860574
:1053E00091FF52C0826080938605809186054B9B19
:1053F0004DC08460809386058091ED0580FF10C0CC
:105400008091A10680FF0CC08091860580FF08C0B6
:1054100080917E07816080937E0780E00E94A8C60D
:105420008091ED05869580FF11C08091A10686953B
:1054300080FF0CC08091860581FF08C080917E07A7
:10544000826080937E0781E00E94A8C68091ED056E
:105450008695869580FF1CC08091A10686958695CD
:1054600080FF16C080917F07882391F08091860588
:1054700082FF0EC080917E07846080937E0782E069
:105480000C94A8C68E7FA6CF8D7FADCF8B7FB2CF79
:1054900008958091A006811104C080917F07882320
:1054A00031F062E070E080E090E00C949E25089579
:1054B0000F931F9380911C11813019F50E9410A346
:1054C0000091A2051091A3052091A4053091A50596
:1054D000601B710B820B930B28EE33E040E050E031
:1054E0000F9438266091A6057091A7058091A805B4
:1054F0009091A905620F731F841F951F1F910F9133
:1055000008956091AA057091AB058091AC059091CA
:10551000AD05D6CF10921C111092A2051092A305D2
:105520001092A4051092A5051092AA051092AB0541
:105530001092AC051092AD051092A6051092A70529
:105540001092A8051092A9050895CF92DF92EF92CC
:10555000FF92CF93DF93C62FFC01C080D180E28001
:10556000F38020E030E0A901C701B6010F94F41FD9
:1055700020E030E0A90187FD14C020E030E048ECD5
:1055800052E4C701B6010F94182924E630E040E048
:1055900050E0181634F0C701B6010F9424289B017F
:1055A000AC01C230A0F4D0E0C850D74FAFEFB0E0AC
:1055B0000F94792624E630E040E050E00F945A261C
:1055C0002F3F310519F010F02FEF30E02883DF91E5
:1055D000CF91FF90EF90DF90CF90089580910901D7
:1055E00080FD06C08091DD1383FB882780F9089534
:1055F00080E00895CF92DF92EF92FF92FC01C0808D
:10560000D180E280F380663019F510921206109274
:1056100013061092140610921506109216060E9498
:10562000A4BA20E030E0A901C701B6010F94F41F2D
:1056300087FF1DC0C12CD12C7601C701B6010F9484
:105640002529CB01FF90EF90DF90CF900C94F021B3
:105650000E94BE1E20E030E0A901C701B6010F94F0
:10566000F41F87FF15C0C12CD12C760122C020E089
:1056700030E04CE053E4C701B6010F941829181626
:10568000E4F6C12CD12C9CE0E92E93E4F92ED5CF81
:1056900020E030E849ED53E4C701B6010F94182922
:1056A00018163CF4C12C80E8D82E89EDE82E83E44E
:1056B000F82EC701B6010F942529CB01FF90EF907A
:1056C000DF90CF900C94B21E90912F0C977081E0D8
:1056D000973009F080E008952091840520FF14C0E0
:1056E00020E83EE3629FA001639F500D729F500D22
:1056F0001124CA019695879596958795009731F064
:105700008A950000E9F708950C949E250895CF939B
:10571000DF931092DE0B10927F0C1092810C10928E
:10572000800C1092830510928205CFEFDFEF8091FD
:10573000DD1385FD07C00E94BDA6D0935C12C09307
:105740005B12F5CF8FEF9FEF90935C1280935B120B
:10575000DF91CF9108958F929F92AF92BF92CF9297
:10576000DF92EF92FF920F931F93CF93DF931092EC
:105770003705109236052FE320933105109230053E
:1057800010922F0510922E051092320510923305BB
:1057900010923405109235059C01F90190812F5F1C
:1057A0003F4F9032D1F39E34C9F4818190ED980F30
:1057B0009A3020F08D3211F08B3281F432969F01B5
:1057C0002F5F3F4F808180538A3008F47BC09F0158
:1057D0002F5F3F4F8081803209F476C0F0938207BB
:1057E000E09381078F010F5F1F4FC0816AE270E075
:1057F000C8010F94062A009731F0FC01319780818F
:105800008032E1F31182CD3429F0C43519F0C73468
:1058100009F04BC0F80180810F5F1F4F8032D1F338
:1058200080538A3008F041C0C093310530E020E059
:105830004AE0DF011196429FC001439F900D112461
:105840009C01205331098081280F311D87FD3A9535
:10585000818190ED980F9A30C8F1309330052093F4
:105860002F058E3261F4329690E04AE0DF013196E6
:105870008C9150ED580F5A3058F190932E05CD0170
:10588000DC0101964C914032D9F3CD3489F52E31AB
:10589000310539F018F52731310519F02C31310572
:1058A00039F5B0933705A0933605DF91CF911F915D
:1058B0000F91FF90EF90DF90CF90BF90AF909F90AF
:1058C0008F900895F9017BCFF90181CFFD01B1CF10
:1058D000949F800D112490ED980FC8CF2537310586
:1058E00038F027373105E8F2203A83E03807C9F26B
:1058F000D091810740E050E0BA0110E000E0C12CF7
:10590000D12C7601C394FD0131968C91882309F442
:105910007FC08132E1F4CD34D1F420323105B9F4C5
:1059200040933205509333056093340570933505E9
:10593000F0933705E093360563E270E0CF010F94F2
:10594000062A009709F4B1CFFC011082AECF815432
:105950008A3108F058C0DF019D91903291F0A0ED9E
:10596000A90FAA30E8F09E3271F4918190539A30D9
:10597000B8F00115110519F48F010150110990E0DB
:1059800013C0FD01E8CF9D3211F09B3291F7918158
:10599000A0EDA90FAA3020F09E3259F79281E6CFF0
:1059A0009E2F9D1B309759F3A82FB0E04601570159
:1059B00004C0880C991CAA1CBB1C8A95D2F74829E4
:1059C00059296A297B29AC5EBA4F9C938081815406
:1059D000DF018A3108F497CFDF018191882309F430
:1059E00092CF90ED980F9A30B8F393ED980F9230D4
:1059F00098F38B3289F3CD010196EC91E03209F0F6
:105A000082CFDC01F8CF0115110501F78D01DECF42
:105A100010933705009336054093320550933305B4
:105A2000609334057093350540CF4F925F926F922B
:105A30007F928F929F92AF92BF92CF92DF92EF921E
:105A4000FF92CF93DF9300D000D01F921F92CDB76B
:105A5000DEB75C01DB01CD90DD90ED90FC90E09134
:105A60003012F0913112FE83ED8384819581A681FD
:105A7000B78189839A83AB83BC839C01AD01C70145
:105A8000B6010F94B7262B013C01F501808091806F
:105A9000A280B380AD81BE818D919D910D90BC910E
:105AA000A02D8D839E83AF83B88727E137EB41ED2F
:105AB00058EBC301B2010F94182987FDD1C023E030
:105AC00030E04BE953E4C301B2010F94F41F181600
:105AD0000CF4C6C02D813E814F815885C501B401AB
