:100000000C9477230C94A8230C94A8230C94A82375
:100010000C94A8230C94A8230C94A8230C94A82334
:100020000C94A8230C94A8230C94A8230C94A82324
:100030000C94A8230D944F4C0C94A8230C94A82343
:100040000C94A8230C94B4E80C94A8230C94A82333
:100050000C94A8230C94A8230C947BE50D94054CD8
:100060000C94A8230C94755B0C946B5B0C94A823E4
:100070000C94A8230C94A8230C94A8230C94A823D4
:100080000C94A8230C94A8230C94A8230C94A823C4
:100090000C94A8230C94A8230C94A8230C94A823B4
:1000A0000C94A8230C94A8230C94A8230C94A823A4
:1000B0000C94A8230C94A8230C94A8230C94A82394
:1000C0000C94A8230C94A8230C94A8230C94A82384
:1000D0000C94A8230C94A8230C94A8230C94A82374
:1000E0000C94A823084AD73B3BCE016E84BCBFFDCD
:1000F000C12F3D6C74319ABD56833DDA3D00C77FF8
:1001000011BED9E4BB4C3E916BAAAABE0000008090
:100110003F05A84CCDB2D44EB93836A9020C50B91F
:10012000918688083CA6AAAA2ABE000000803F004B
:100130000D9455460C942E8C0C94E4C40C9407D961
:100140000D94FA450C94308D0C948DB20C94DE8D88
:100150000C94F6C40C94628E0C9421890C94DF915B
:100160000C94689A0D945F460C94E5940C946CCEB4
:100170000C94918B0D94A2450D947C250C94F695CE
:100180000C94E08D0C94AFB20C94028D0D948746C4
:100190000C94A2C00C9487980C94ECB00C946C2630
:1001A0000C9424900C940F960D9475450C9471AB9F
:1001B0000D945F450C9400980C94EAC40D9432465B
:1001C0000C9428960C94D3910C94005C0C94C38BE3
:1001D0000C94EE960D9480450C94FC8D0C94A19596
:1001E0000C94DBAA0C94BB8C0C9427240D94A3577D
:1001F0000C94F4970C94428F0C942AD80C94D28BC4
:100200000C9404A30C946B890D9418460C94DD9502
:100210000C94A88C0C94B35B0C94ADC50C94E8962C
:100220000C942A900C9480B70C94A2D50D9432575C
:100230000D9473460C94FAA20C9428900D943C46AD
:100240000D948A450C9468B90C948ED70D949845FA
:100250000C94FD970C9481B40C94DD940C941B5C6D
:100260000C94FACD0C947EA30C941EBC0C946B8E53
:100270000C940F5C0C94F0C40C94008F0C94C994F3
:100280000C94CCC40C94FA8B0C94135C0C94ED8DF0
:100290000C94F6D60C94928F0C94BF8D0C94EB2991
:1002A0000C94CB8D0C942D920C944DCE0C94E6971F
:1002B0000D94F5450D9471450C940B980C94FA9798
:1002C0000C9484890C94EDBA0C94D1940C944196BE
:1002D0000C9408C50C94398E0D9420460C94868C91
:1002E0000C94F28D0D9479450C94A3D50C94018E49
:1002F0000C94AA230C94538E0C9426900C94F6968E
:100300000C9420D50C94DFD90C94E9940C94ADCEC8
:100310000C94A5920C94B68D0C9497B20C9441A5B4
:100320000D9490450C94FFA20C9422900C94C3D889
:100330000C94F15B0C944CA70C9410AC0C9480952D
:100340000C943B9C0D944A250D9404460C94F19713
:100350000C94958C0C94315C0C94198D0C940AA01F
:100360000C94A33A0C94FE880C94395C0C9413986A
:100370000C94D8C40C941F5C0C94A9DA0D94A64577
:100380000C94A0D90C94688E0C9420900C94AD23FE
:100390000C9460290C9473C50D947D460C94658E65
:1003A0000C94EB8B0C94F7AE0C94EB8C0C94FBC27E
:1003B0000C940EC50C9422D90D947D450C94A9ACD7
:1003C0000C94075C0C946C980C94CD940C94069847
:1003D0000D9486450C94A9950C94E25B0D941D2513
:1003E0000D949E450C940A970C94FDC80D94944569
:1003F0000C9471A80C94418C0C940B5C0C94109888
:100400000C94B2D90D9473260C9435920C94E1940B
:100410000C94D5940C94548C0C9431920C94158CAF
:100420000C941E900D94B0450C94D48C0C94FCC488
:100430000C94ED940D9428460D945A450C946D8CB3
:100440000C94DD8F0D9446460C9484260C94FF96F4
:100450000C94D2C40C94FBA90C94A2D80C94C6C4DE
:100460000C949A900D9485570C94DBCD0C94F797CF
:100470000C9402C50C9469980C94AA8B0C94175C8C
:100480000C94D9940C94DEC40C94469D0C94F6CE36
:100490000C94CE8F0D94AC450C940D980C94E28D79
:1004A0000C94265C0C9489290C9403980D94ED45CA
:1004B0000D940E460C941C900C940DD80C944C96F4
:1004C0000C94F78D0C9486AD0C9409A30C94954272
:1004D0000C94518F0C942C890D9469460C94CCCEBD
:1004E0004E414E494E495459494E46CDCCCC3D0A19
:1004F000D7233C17B7D13877CC2B329595E6241FFC
:10050000B14F0A000020410000C84200401C4620B4
:10051000BCBE4CCA1B0E5AAEC59D7400407A10F387
:100520005A00A0724E18090010A5D4E80000E87621
:1005300048170000E40B54020000CA9A3B00000078
:10054000E1F505000080969800000040420F000091
:1005500000A08601000000102700000000E8030052
:100560000000006400000000000A0000000000011C
:1005700000000000002C76D888DC674F0823DFC11C
:10058000DFAE59E1B1B796E5E3E453C63AE65199D7
:100590007696E8E6C28426EB898C9B62ED407C6F00
:1005A000FCEFBC9C9F40F2BAA56FA5F490055A2AB7
:1005B000F75C936B6CF9676DC11BFCE0E40D47FEC3
:1005C000F520E6B500D0ED902E03009435770500B8
:1005D00080841E080000204E0A000000C80C33333F
:1005E00033330F986E12831141EF8D2114893BE64E
:1005F0005516CFFEE6DB18D1844B381BF77C1D90D7
:100600001DA4BBE424203284725E228100C9F1243F
:10061000ECA1E53D27434F4D4D554E4943415449CB
:100620004F4E0044525952554E004552524F52536C
:1006300000494E464F004543484F004572726F7265
:100640002077726974696E6720746F204545505237
:100650004F4D210A0053544F505045442E20005016
:1006600072696E7465722073746F70706564206453
:10067000756520746F206572726F72732E204669E3
:100680007820746865206572726F7220616E6420D4
:10069000757365204D39393920746F207265737414
:1006A0006172742E202854656D7065726174757264
:1006B000652069732072657365742E2053657420FC
:1006C00069742061667465722072657374617274F6
:1006D000696E67290A004E6F20436865636B737506
:1006E0006D2077697468206C696E65206E756D6227
:1006F00065722C204C617374204C696E653A200041
:100700004E6F20436865636B73756D2077697468FD
:10071000206C696E65206E756D6265722C204C616F
:100720007374204C696E653A2000636865636B736F
:10073000756D206D69736D617463682C204C6173F5
:1007400074204C696E653A20004C696E65204E75C8
:100750006D626572206973206E6F74204C617374D2
:10076000204C696E65204E756D6265722B312C20B0
:100770004C617374204C696E653A20004D31313004
:100780000053657269616C20737461747573206DB8
:1007900069736D617463680A00776169740A005354
:1007A000442072656164206572726F720A00486F3E
:1007B00074656E642049646C652054696D656F755D
:1007C0007400486F74656E642049646C65205469D8
:1007D0006D656F75740A002121204B494C4C2063D4
:1007E0006175736564206279204B494C4C206275B9
:1007F00074746F6E2F70696E0A002121204B494C72
:100800004C2063617573656420627920746F6F207A
:100810006D75636820696E616374697665207469BB
:100820006D65202D2063757272656E7420636F6D27
:100830006D616E643A20007061757365004D3630ED
:1008400030002066696C616D656E745F72756E6FE5
:100850007574200066696C616D656E745F72756E8B
:100860006F757420540046696C616D656E745275C5
:100870006E6F75742054004D656469612052656D1A
:100880006F766564004D6564696120496E736572B9
:10089000746564004D313030305300627573793ABD
:1008A0002070617573656420666F7220696E707563
:1008B000740A00627573793A2070617573656420FB
:1008C000666F7220757365720A00627573793A20DB
:1008D00070726F63657373696E670A00506C65614F
:1008E0007365205265736574005052494E544552E9
:1008F0002048414C5445440025533A20255300706C
:100900006F7765726F6666004B494C4C45442E20EC
:10091000005072696E7465722068616C7465642E33
:10092000206B696C6C28292063616C6C6564210AFA
:10093000006563686F3A004572726F723A004269EF
:100940006C696E656172204C6576656C696E6720B6
:10095000477269643A0A005072696E74696E672062
:100960004F626A656374002553202569002F2F614B
:100970006374696F6E3A0073746172740070726FA1
:100980006D70745F00656E6400486F74656E6420FE
:10099000746F6F20636F6C640A0053656E64204D42
:1009A00031303820746F20726573756D650A0049A7
:1009B0006E736572742066696C616D656E7420611A
:1009C0006E642073656E64204D3130380A005265C4
:1009D0006865617420446F6E650052656865617476
:1009E000696E672E2E2E0052656865617400486539
:1009F000617465722054696D656F75740053656E1E
:100A000064204D31303820746F2068656174206E29
:100A10006F7A7A6C650A004E6F7A7A6C6520506145
:100A2000726B656400706175736564005061757305
:100A30006500726573756D656400526573756D69E7
:100A40006E67004732362043616E63656C656400F3
:100A50004732362048656174696E67204E6F7A7A36
:100A60006C65004732362048656174696E672042C4
:100A700065640057616974696E6720666F722068EB
:100A800065617475702E0A004669786564204C654E
:100A90006E677468205072696D6500446F6E6520E2
:100AA0005072696D696E67004D616E75616C207082
:100AB00072696D696E672E2E2E004C656176696EC7
:100AC0006720473236003F53706563696669656425
:100AD00020582C5920636F6F7264696E61746520B1
:100AE0006F7574206F6620626F756E64732E0A00D6
:100AF0003F28522965706561742076616C756520A8
:100B00006E6F7420706C61757369626C653B206DEB
:100B1000757374206265206174206C656173742044
:100B2000312E0A003F537065636966696564206E03
:100B30006F7A7A6C652074656D7065726174757218
:100B400065206E6F7420706C61757369626C652EC0
:100B50000A003F5370656369666965642066696C65
:100B6000616D656E742073697A65206E6F74207094
:100B70006C61757369626C652E0A003F5370656322
:100B80006966696564207072696D65206C656E6761
:100B90007468206E6F7420706C61757369626C6527
:100BA0002E0A003F537065636966696564206E6F45
:100BB0007A7A6C652073697A65206E6F7420706C28
:100BC00061757369626C652E0A003F5265747261CB
:100BD0006374696F6E204D756C7469706C696572B1
:100BE000206D757374206265207370656369666932
:100BF00065642E0A003F5370656369666965642009
:100C000052657472616374696F6E204D756C74699E
:100C1000706C696572206E6F7420706C6175736999
:100C2000626C652E0A003F5370656369666965648E
:100C3000206C6179657220686569676874206E6FE1
:100C40007420706C61757369626C652E0A004329AB
:100C50002E0A003F537065636966696564206265AA
:100C6000642074656D7065726174757265206E6F55
:100C70007420706C61757369626C65202834302D46
:100C800000473236207374617274696E672E2E2E9F
:100C90000A004F46460A0046616465204865696758
:100CA00068742000426564204C6576656C696E67E7
:100CB00020004661696C656420746F20656E616216
:100CC0006C6520426564204C6576656C696E670AC8
:100CD00000496E76616C6964206D6573682E0A0048
:100CE00050726F62696E6720506F696E7400255391
:100CF0002025692F2569002E0A002F0050726F628F
:100D0000696E67206D65736820706F696E7420006E
:100D1000202844525952554E2900473239204175F6
:100D2000746F20426564204C6576656C696E67005F
:100D30003F20284C2C522C462C4229206F757420C1
:100D40006F6620626F756E64732E0A003F28562905
:100D50006572626F7365206C6576656C20696D7075
:100D60006C61757369626C652028302D34292E0AF8
:100D700000426164205A2076616C75650A004E6FEE
:100D80002062696C696E65617220677269640A002D
:100D9000446576696174696F6E0025533A20257346
:100DA0000046696E6973686564210A003A207A3AE0
:100DB0002000206F662000476F696E6720746F3ACD
:100DC00020580043570A00206469723A0020616E7F
:100DD000676C653A0053746172742072616469755E
:100DE000733A004D343820506F696E740025533AC1
:100DF0002025642F256400506F736974696F6E69D4
:100E00006E67207468652070726F62652E2E2E0AE0
:100E1000003F4C656773206F66206D6F76656D656A
:100E20006E7420696D706C61757369626C652028E1
:100E3000302D3135292E0A003F2028582C592920E1
:100E40006F7574206F6620626F756E64732E0A0072
:100E500050726F6265206F7574206F6620626F75C7
:100E60006E6473003F53616D706C652073697A65C1
:100E7000206E6F7420706C61757369626C652028D8
:100E8000342D3530292E0A004D3438205A2D507219
:100E90006F6265205265706561746162696C697426
:100EA0007920546573740A003F2856296572626F71
:100EB0007365206C6576656C20696D706C61757307
:100EC00069626C652028302D34292E0A0053746124
:100ED0006E6461726420446576696174696F6E3A0C
:100EE00020002052616E67653A2000204D61783AFB
:100EF0002000204D696E3A2000205369676D613AE9
:100F000020004D65616E3A20002052004163636508
:100F10006C65726174696F6E3A2050005741524E91
:100F2000494E4721204C6F77205A204A65726B202A
:100F30006D6179206C65616420746F20756E7761D6
:100F40006E746564207061757365732E0A004F4678
:100F500046004F4E0020204D61783A2000200020AE
:100F6000204D696E3A2000536F667420656E64737D
:100F7000746F70733A20004D32342053256C642016
:100F800054256C64004739322E39204525730047BB
:100F90003120462564004739322E39205A25730006
:100FA0004731205A30204632303000473120582512
:100FB0007320592573204633303030004D343230A1
:100FC00020532569205A2573004D31303620502595
:100FD0006920532569004D32303020442573004785
:100FE000323852305859004739322E392045302096
:100FF0005A300A47315A2573004D31303920532574
:1010000069004D31393020532569004D343230208C
:101010005330205A300020496E76616C6964206537
:1010200078747275646572200047322F47332062EE
:10103000616420706172616D65746572730A00533A
:101040006C6565702E2E2E005A2050726F626520DE
:1010500050617374204265640A005A2050726F62B6
:1010600065205061737420426564004732384C300B
:10107000004D3131372050726F6265206661696CB6
:1010800065642E0A4732380A0070726F62655F72BB
:1010900065776970650047323920526574727969E5
:1010A0006E670050726F62696E67204661696C6599
:1010B00064004D31313720426564206C6576656C83
:1010C000696E67206661696C65642E0A4730205A34
:1010D00031300A4D333030205032352053383830DB
:1010E0000A4D333030205035302053300A4D3330E4
:1010F000302050323520533838300A4D33303020CC
:101100005035302053300A4D3330302050323520A6
:10111000533838300A4D333030205035302053307A
:101120000A47342053310070726F62655F666169EF
:101130006C6564004D31313720426564206C657602
:10114000656C696E6720646F6E652E00205A3A20C8
:101150000020593A200042656420583A20004D652D
:10116000736820706F696E74206F7574206F6620CD
:1011700072616E67650A004D302053746F70004DC8
:10118000312053746F7000436C69636B20746F205F
:10119000526573756D652E2E2E004E6F204D6F7645
:1011A000652E00456E642066696C65206C697374F9
:1011B0000A00426567696E2066696C65206C697318
:1011C000740A004E6F206D656469610A0052657390
:1011D000756D696E6720534400286E6F2066696CD8
:1011E00065290043757272656E742066696C653A94
:1011F00020005072696E742074696D653A20000A8F
:1012000053746174733A2046696C616D656E742025
:10121000757365643A20002C204C6F6E676573749B
:10122000206A6F623A2000546F74616C2074696D9B
:10123000653A200053746174733A20002C20466193
:10124000696C65643A20002C2046696E6973686594
:10125000643A20005072696E74733A2000537461CE
:1012600074733A2000436F6F6C696E672E2E2E00E8
:1012700048656174696E672E2E2E00452025530047
:101280006F6B006F666600360631062A0623061568
:101290000644454255473A004D3131332053004210
:1012A000656420436F6F6C696E672E2E2E00426559
:1012B000642048656174696E672E2E2E0044445880
:1012C00020435231305632204F46462E002F2F00F9
:1012D0004D31343520533C696E6465783E206F751E
:1012E00074206F662072616E67652028302D312969
:1012F0000A004D32303620580046523A0020466CE3
:101300006F773A200020643A0020693A0020703A52
:1013100000496E76616C69642065787472756465E5
:10132000720A0020643A0020693A0020703A006492
:10133000697300656E0043290A0061626C65642070
:10134000286D696E2074656D702000436F6C642099
:1013500065787472756465732061726520004669F2
:101360006C616D656E742072756E6F757420646942
:101370007374616E636520286D6D293A200046699B
:101380006C616D656E742072756E6F757420004DA2
:1013900034323120696E636F7272656374207061DC
:1013A00072616D657465722075736167650A004DC1
:1013B00065736820706F696E74206F7574206F6636
:1013C0002072616E67650A004F66667365747320EC
:1013D0004170706C696564004572723A20546F6F99
:1013E000206661722100546F6F2066617220667200
:1013F0006F6D207265666572656E636520706F69DA
:101400006E740A00454550524F4D204F4B0A005014
:101410006F7765722D6C6F7373207265636F76657D
:10142000727920004D383400446F6E652070726907
:101430006E74696E672066696C650A004D37370007
:101440004D3331004361703A004D454154504143A2
:101450004B00434F4F4C45525F54454D5045524110
:1014600054555245004348414D4245525F54454D05
:1014700050455241545552450042414259535445FA
:101480005050494E470041524353004D4F54494F2D
:101490004E5F4D4F44455300544845524D414C5FBB
:1014A00050524F54454354494F4E004C4F4E475FA6
:1014B00046494C454E414D45004155544F524550CB
:1014C0004F52545F53445F53544154555300534457
:1014D0005F575249544500524550454154005344CA
:1014E000434152440050524F4D50545F5355505059
:1014F0004F525400454D455247454E43595F504168
:101500005253455200434153455F4C494748545F4D
:101510004252494748544E45535300544F47474C55
:10152000455F4C494748545300534F465457415226
:10153000455F504F574552004255494C445F504516
:101540005243454E54004C4556454C494E475F4426
:10155000415441005A5F50524F42450052554E4F40
:101560005554004155544F4C4556454C0050524936
:101570004E545F4A4F420050524F4752455353001A
:101580004155544F5245504F52545F54454D5000B1
:10159000564F4C554D455452494300454550524FC6
:1015A0004D0042494E4152595F46494C455F5452A5
:1015B000414E534645520053455249414C5F584FA6
:1015C0004E5F584F4646004649524D574152455F7F
:1015D0004E414D453A4D61726C696E20322E302E6F
:1015E000375F4457372E3320426F6E6474656368EB
:1015F0002053534D444142202841707220323520FF
:10160000323032312030303A34323A3338292053B4
:101610004F555243455F434F44455F55524C3A68DE
:10162000747470733A2F2F6769746875622E636FD4
:101630006D2F496E73616E6974794175746F6D6158
:1016400074696F6E2F4D61726C696E2F747265656F
:101650002F437265616C6974794477696E5F322ECD
:10166000302050524F544F434F4C5F5645525349D0
:101670004F4E3A312E30204D414348494E455F543C
:101680005950453A4444582043523130563220454F
:10169000585452554445525F434F554E543A3120A9
:1016A000555549443A63656465326132662D34317B
:1016B00061322D343734382D396231322D6335356E
:1016C0006336326633363766660A0050726F62657B
:1016D000204F6666736574205A0050726F626520F1
:1016E0004F6666736574205A00290A0020746F20C3
:1016F000003F5A206F7574206F662072616E6765B7
:10170000202800290A0020746F20003F59206F759F
:1017100074206F662072616E676520282D00290A8B
:101720000020746F20003F58206F7574206F662072
:1017300072616E676520282D0050726F6265204FC0
:10174000666673657420580043616E6E6F74206F17
:1017500070656E207375626469722000256973007C
:1017600025696D20256973002569682025696D202C
:1017700025697300256964202569682025696D2025
:101780002569730025697920256964202569682009
:1017900025696D202569730023646566696E65207F
:1017A00044454641554C545F00626564004B6420DB
:1017B000004B6920004B7020005049442041757453
:1017C0006F74756E652066696E6973686564212043
:1017D00050757420746865206C617374204B702C94
:1017E000204B6920616E64204B6420636F6E7374BC
:1017F000616E74732066726F6D2062656C6F772006
:10180000696E746F20436F6E666967757261746983
:101810006F6E2E680A00504944204175746F7475CC
:101820006E65206661696C6564212074696D656F01
:1018300075740A00504944204175746F74756E6563
:10184000206661696C6564212054656D7065726104
:101850007475726520746F6F20686967680A00206C
:101860004B643A2000204B693A2000204B703A200C
:101870000020436C617373696320504944200A005F
:10188000204E6F206F76657273686F6F740A002048
:1018900054753A2000204B753A2000206D61783A4B
:1018A0002000206D696E3A200020643A20002062FA
:1018B0006961733A2000504944204175746F747512
:1018C0006E652073746172740A005049442041753A
:1018D000746F74756E65206661696C65642120544F
:1018E000656D706572617475726520746F6F2068C4
:1018F0006967680A00504944204175746F74756EB9
:101900006500504944204175746F74756E6520669A
:1019100061696C6564212042616420686561746559
:10192000722069640A004572723A20757466382024
:10193000666F6E74206E6F7420696E697469616C75
:10194000697A65642E004572723A20757466382093
:10195000666F6E74206E6F7420696E697469616C55
:10196000697A65642E004572723A20757466382073
:10197000666F6E74206E6F7420696E697469616C35
:10198000697A65642E00000C0F00FE07022503BB78
:10199000017FFE08FE08FE05080806000040F0C8AA
:1019A0008888987810050808060000C0F88888889C
:1019B0008888F80505050600012030F83020050864
:1019C000080600002070F820202020E00509090604
:1019D00000FF2070A8A8B8888870200705050700B8
:1019E00001D86C366CD80509090600FFF8A888886C
:1019F000888888A8F8050A0A0600FE205050505032
:101A000088A8A8887003030306000340A040FFFFD6
:101A1000FFFFFFFFFFFFFFFFFFFFFFFFFFFFFFFFD6
:101A2000FFFFFFFF0000000605FF01070706020099
:101A300080808080800080030303060105A0A0A0B1
:101A400005060606000050F85050F8500509090632
:101A500000FF2070A8A07028A870200507070600C6
:101A600000C8C8102040989805070706000040A04D
:101A7000A040A89068010303060205808080030946
:101A8000090601FF20404080808040402003090972
:101A90000601FF80404020202040408005070706C7
:101AA000000020A8702070A8200505050600012070
:101AB00020F820200203030601FFC0408005010139
:101AC000060003F8020202060100C0C0050707066F
:101AD0000000081010204040800507070600007035
:101AE0008898A8C8887003070706010040C04040D6
:101AF0004040E0050707060000708808102040F805
:101B0000050707060000F808103008887005070769
:101B100006000010305090F810100507070600006E
:101B2000F880F0080888700507070600003040803C
:101B3000F0888870050707060000F80810102020BC
:101B400020050707060000708888708888700507E0
:101B500007060000708888780810600205050601F5
:101B600000C0C000C0C00206060601FFC0C000C021
:101B70004080030505060101204080402005030345
:101B8000060002F800F80305050601018040204028
:101B90008005070706000070881020200020050738
:101BA000070600007088B8A8B8807005070706000F
:101BB00000708888F8888888050707060000F048C4
:101BC00048704848F005070706000070888080804C
:101BD0008870050707060000F04848484848F005A7
:101BE0000707060000F88080F08080F805070706E8
:101BF0000000F88080F080808005070706000070F4
:101C0000888080988870050707060000888888F813
:101C1000888888030707060100E04040404040E014
:101C20000507070600003810101010906005070720
:101C30000600008890A0C0A0908805070706000055
:101C4000808080808080F805070706000088D8A87B
:101C5000888888880507070600008888C8A89888AB
:101C6000880507070600007088888888887005073F
:101C700007060000F08888F08080800507070600CE
:101C80000070888888A89068050707060000F0881B
:101C900088F0A0908805070706000070888070080B
:101CA0008870050707060000F82020202020200566
:101CB0000707060000888888888888700507070657
:101CC0000000888888885050200507070600008893
:101CD000888888A8A8500507070600008888502033
:101CE000508888050707060000888850202020209B
:101CF000050707060000F80810204080F8030909CE
:101D00000601FFE080808080808080E00507070674
:101D10000000804040201010080309090601FFE080
:101D200020202020202020E005030306000520506D
:101D3000880501010600FEF8030303060105804043
:101D40002005050506000070087888780507070655
:101D500000008080F0888888F00505050600007086
:101D60008080887005070706000008087888888842
:101D7000780505050600007088F0807005070706E5
:101D80000000304840E04040400507070600FE7074
:101D90008888887808700507070600008080F0882A
:101DA0008888880307070601004000C0404040E0E3
:101DB0000409090601FE1000301010101090600593
:101DC000070706000080808890E0908803070706D8
:101DD0000100C04040404040E0050505060000D03D
:101DE000A8A8A8A8050505060000B0C88888880529
:101DF000050506000070888888700507070600FE44
:101E0000F0888888F080800507070600FE788888BB
:101E100088780808050505060000B0C880808005A0
:101E2000050506000078807008F005070706000029
:101E30002020F82020201805050506000088888845
:101E40009868050505060000888888502005050566
:101E50000600008888A8A8500505050600008850DF
:101E60002050880507070600FE888888502040809B
:101E7000050505060000F8102040F80309090601D1
:101E8000FF2040404080404040200109090602FFF9
:101E90008080808080808080800309090601FF8027
:101EA000404040204040408005030306000248A80F
:101EB00090FF554E4C4F41442046494C414D454EB4
:101EC00054004C4F41442046494C414D454E54002E
:101ED00046494C414D454E54204348414E474500EC
:101EE00042656400456E636C6F73757265002568AA
:101EF000753A25303268750025303268753A2530DC
:101F00003268750020202020202020002020202062
:101F1000001FE02010201020101020102020102082
:101F20001030300840048003001FE03FF03FF03FD6
:101F3000F01FE01FE03FF03FF03FF00FC0078003CD
:101F4000003FFFF038007030FC3020FC102078108B
:101F50002030102C00D02E31D02F7BD02F7BD02ED4
:101F600031D02C00D020301020781020FC1030FC14
:101F7000303800703FFFF03FFFF03800703186309E
:101F80002387102787902F87D02F03D02030102051
:101F900078102078102030102F03D02F87D027877B
:101FA000902387103186303800703FFFF01FFFF814
:101FB0001FFFF80410400208200208200410400807
:101FC00020801041001041000820800410400000D3
:101FD000001FFFF81FFFF8FFFFFF8000018E00E1E8
:101FE0009F01F19381399F81F99F81F99FB9F98F01
:101FF00028F18038018000019FFFF99174999B06B8
:10200000A99B54A99B56A99B54999FFFF9FFFFFFD9
:102010006E6F74696669636174696F6E20006361D5
:102020006E63656C005072696E742041626F7274E9
:102030006564004469736D6973730055492041629A
:102040006F72746564004D323520500A4D32340091
:10205000526573756D650055492050617573650053
:1020600050617573696E672E2E2E00726573756DE3
:1020700065004D32340000FE0003FF8007C7C00733
:1020800001E00000E00000F00000700400700E00AD
:10209000701F00703F80F00E00E00F01E007C7C026
:1020A00003FF8000FE0000FE0003FF8007C7C00F93
:1020B00001E00E00E03F80F01F00700E0070040091
:1020C000700000700000F00000E00701E007C7C0EA
:1020D00003FF8000FE000E000E000E000E000E003A
:1020E0000E000E000E007FC03F801F000E00040097
:1020F00004000E001F003F807FC00E000E000E0087
:102100000E000E000E000E000E00FFFFFF7F80FF8E
:10211000C0FFC0FFC07F807F80FFC0FFC0FFC03F07
:10212000001E000C0050726F6265205A204F6666D8
:102130007365740052756E6F7574204469737420F2
:102140006D6D004C6F6164206D6D00556E6C6F613C
:1021500064206D6D0046696C2E204469612E004537
:1021600020696E206D6D5E33004D33303320553164
:102170002045256920532569005049442041757444
:102180006F74756E65202A005049442D44202A0042
:102190005049442D49202A005049442D50202A00FE
:1021A00020082046616374002008204D61780020DB
:1021B00008204D696E004F6666004F6E00417574D1
:1021C0006F74656D70005654726176204D696E00B3
:1021D000566D696E00566D6178204500566D6178C8
:1021E000205A00566D6178205900566D617820584C
:1021F00000416D6178204500416D6178205A0041B1
:102200006D6178205900416D6178205800412D544E
:10221000726176656C00412D526574726163740061
:10222000416363656C0056652D4A65726B00565AB2
:102230002D4A65726B0056592D4A65726B005658CF
:102240002D4A65726B0050726F6265205A204F668E
:10225000667365740050726F62652059204F666620
:102260007365740050726F62652058204F66667304
:10227000657400452073746570732F6D6D005A206E
:1022800053746570732F6D6D0059205374657073AE
:102290002F6D6D00582053746570732F6D6D004164
:1022A0006476616E6365642053657474696E6773E8
:1022B000003F0043616E63656C00496E6974004DB8
:1022C00034323800496E697469616C697A652045F9
:1022D0004550524F4D0046696C616D656E740054F7
:1022E000656D7065726174757265005374657073A5
:1022F0002F6D6D0050726F6265204F666673657456
:1023000073004A65726B00416363656C657261744A
:10231000696F6E0056656C6F6369747900536574FC
:1023200020486F6D65204F66667365747300436F58
:102330006E66696775726174696F6E003F004E6505
:10234000787420506F696E7400446F6E65004E653E
:10235000787400486F6D696E672058595A003F00C5
:1023600043616E63656C204F626A656374004E4F13
:10237000005945530043616E63656C204F626A6586
:102380006374203D004D61696E00426564004E6FCC
:102390007A7A6C650046616E20537065656400430F
:1023A0006F6E66696775726174696F6E00526573EE
:1023B000746F72652044656661756C7473004C6F50
:1023C00061642053657474696E67730053746F722F
:1023D000652053657474696E677300507265686533
:1023E0006174202420436F6E6600506F7765722001
:1023F0004F7574616765004F6666004F6E005275D9
:102400006E6F75742053656E736F720050726F62D9
:1024100065205A204F666673657400416476616E6C
:102420006365642053657474696E6773004D6169F8
:102430006E004D37303220542564004D3630302048
:10244000423020542564004D373032203B25640053
:102450004D37303120542564004D373032004D3730
:102460003031004D363030204230004D61696E0011
:10247000436F6E74696E7565004F6666004F6E003F
:1024800052756E6F75742053656E736F7200507560
:10249000726765206D6F726500524553554D45203A
:1024A0004F5054494F4E533A005052494E542050C9
:1024B00041555345440020204E6F7A7A6C653A208E
:1024C000005061726B696E672E2E2E0000005761FE
:1024D000697420666F720066696C616D656E742048
:1024E0006368616E676500746F2073746172740055
:1024F0005761697420666F720066696C616D656E04
:102500007420756E6C6F616400004E6F7A7A6C6532
:102510002068656174696E6700506C656173652041
:10252000776169742E2E2E000050726573732062DD
:102530007574746F6E00746F2068656174206E6FBF
:102540007A7A6C650000496E736572742066696CF6
:10255000616D656E7400616E6420707265737320C6
:10256000627574746F6E00746F20636F6E74696E41
:102570007565005761697420666F720066696C61E9
:102580006D656E74206C6F616400005072657373CA
:1025900020427574746F6E00746F20726573756D70
:1025A00065207072696E7400005761697420666FEF
:1025B00072207072696E7400746F20726573756D2D
:1025C000652E2E2E00005761697420666F720066BA
:1025D000696C616D656E7420707572676500003E90
:1025E0002000256C642E25696D0045787472756431
:1025F000656420546F74616C003E20004C6F6E6700
:10260000657374204A6F622054696D65003E200036
:10261000546F74616C205072696E742054696D65DA
:1026200000436F6D706C65746564003A20005072F1
:10263000696E7420436F756E74003A200031353036
:102640000035004245443A2041544320313034475C
:10265000542D320052756E61776179205761746331
:10266000683A204F4E004D61782054656D700033FC
:102670003135004D696E2054656D7000350045316F
:102680003A204550434F53203130304B0050535582
:102690000047656E657269630050726F746F636F97
:1026A0006C00312E300042617564003235303030BC
:1026B0003000437265616C69747933442052414D36
:1026C00050530042696C696E656172204C65766595
:1026D0006C696E6700457874727564657273003159
:1026E000007777772E626F6E64746563682E73650A
:1026F0000044445820435231305632003230323197
:102700002D30342D313800322E302E375F4457377C
:102710002E33004D61726C696E005072696E746583
:102720007220537461747300546865726D697374B8
:102730006F727300426F61726420496E666F005061
:1027400072696E74657220496E666F004D61696EC4
:10275000004D313030300053746F70205072696E0C
:102760007400526573756D65205072696E74005007
:102770006F776572204F7574616765004D31393030
:102780005335350A4732380A4732390A4D3430302A
:102790000A4D313034533231350A4732380A4D311F
:1027A0003039533231350A4D34323053310A4731E2
:1027B000583130305931303046353030300A4731B9
:1027C0005A300A4D3530300A4D3131372053657457
:1027D000205A204F6666736574004D313036533190
:1027E00032380A4D33303343385332313545305562
:1027F0000A4D3530300A4D3131372050494420548C
:10280000756E6520446F6E65004D31393053353536
:102810000A4D313034533231350A4732380A4732A3
:10282000394C310A47312058313030593130304637
:10283000353030300A47315A30004D3530300A4D8E
:102840003131372053657474696E67732053746F28
:10285000726564005072657020666F72205A204164
:10286000646A757374005049442054756E65005352
:10287000657475700053746F726520536574746964
:102880006E6773004D61696E003F004261636B00CB
:1028900053746F70005072696E742066726F6D2091
:1028A0004D65646961004368616E6765204D6564CC
:1028B0006961004D32310041626F75742050726958
:1028C0006E746572004368616E67652046696C616D
:1028D0006D656E74004C6576656C696E6720546F2B
:1028E0006F6C7300436F6E66696775726174696FB0
:1028F0006E0054656D7065726174757265004D6F20
:1029000074696F6E00486F73742053746172740041
:10291000526573756D65205072696E740043616E07
:1029200063656C204F626A6563740054756E650060
:1029300053746F70205072696E74005061757365C6
:10294000205072696E74004E6F204D65646961009D
:10295000496E666F2053637265656E003F00537465
:10296000617274205072696E740043616E63656CAD
:10297000005072696E740043616E6E6F7420656EF4
:10298000746572207375626469723A2000022E2E9B
:10299000004D61696E002100486F74656E6420749B
:1029A0006F6F20636F6C64004261636B0050726FE5
:1029B0006365656400536F667420456E6473746F5D
:1029C0007073004D6F74696F6E0044697361626C5F
:1029D00065205374657070657273004D3834004D16
:1029E00034382050726F626520546573740047322A
:1029F000384F0A4D343820503130004C6576656CC4
:102A000020436F726E65727300466164652048658D
:102A100069676874004F6666004F6E004265642007
:102A20004C6576656C696E67004C6576656C204216
:102A30006564004732394E00486F6D65205A004783
:102A400032385A00486F6D652059004732385900B6
:102A5000486F6D6520580047323858004175746FD3
:102A600020486F6D6500473238004D61696E005037
:102A7000726568656174202420456E64005072653B
:102A8000686561742024204265640054656D70653A
:102A900072617475726500436F6F6C646F776E005E
:102AA0005072656865617420240046616E20537021
:102AB000656564207E00426564004E6F7A7A6C65BD
:102AC000004D61696E0050726F6265205A204F663A
:102AD0006673657400466C6F770046616E205370B4
:102AE000656564207E00426564004E6F7A7A6C658D
:102AF000005370656564004D61696E00486F6D69D3
:102B00006E67204661696C6564006F70656E005485
:102B10005249474745524544003A200066696C6176
:102B20006D656E74007A5F6D696E00795F6D696EB8
:102B300000785F6D696E005265706F7274696E67C0
:102B400020656E6473746F70207374617475730A9A
:102B50000020746F6F206C6F6E67206578747275DB
:102B600073696F6E2070726576656E7465640A00B5
:102B700020636F6C6420657874727573696F6E2062
:102B800070726576656E7465640A00486F6D6520C5
:102B9000257325732573204669727374005761721B
:102BA0006E696E673A20486F6D696E672042756D79
:102BB000702044697669736F72203C20310A0002EC
:102BC000020400000000000000000000000000807F
:102BD0009D4300009B430000C843000000410000EB
:102BE0000041000000400000000100000001000062
:102BF0008000555555000000400033333300AAAA29
:102C00002A004992240000002000C7711C009999F5
:102C10001900D1451700555515003BB11300244943
:102C2000120011111100000010000F0F0F00E33807
:102C30000E0043790D00CCCC0C00C3300C00E8A290
:102C40000B0064210B00AAAA0A00703D0A009DD85F
:102C50000900427B090092240900DCD3080088881F
:102C600008001042080000000800F0C10700878734
:102C7000070075500700711C07003EEB0600A1BC61
:102C800006006990060066660600703E0600611840
:102C9000060017F4050074D105005BB00500B29082
:102CA0000500627205005555050078390500B81E0B
:102CB0000500050505004EEC040087D40400A1BD05
:102CC000040090A7040049920400C17D0400EE694D
:102CD0000400C7560400444404005C320400082188
:102CE000040041100400000004003FF00300F8E07D
:102CF000030026D20300C3C30300CCB503003AA8E7
:102D000003000A9B0300388E0300C08103009F75F7
:102D10000300D0690300505E03001D5303003448D4
:102D20000300913D03003333030016290300381FCD
:102D3000030097150300300C0300030303000BFA94
:102D4000020049F10200BAE802005CE002002DD85E
:102D500002002DD0020059C80200B0C0020031B9F3
:102D60000200DAB10200AAAA0200A0A30200BC9CE1
:102D70000200FA9502005C8F0200DF880200828266
:102D80000200457C02002776020027700200436A99
:102D900002007C640200D05E02003F590200C8536A
:102DA0000200FFFDFCFAF8F6F4F2F0EEECEAE9E7D7
:102DB000E5E3E1E0DEDCDAD9D7D5D4D2D0CFCDCB94
:102DC000CAC8C7C5C3C2C0BFBDBCBAB9B7B6B4B321
:102DD000B2B0AFADACAAA9A8A6A5A4A2A1A09E9D81
:102DE0009C9A99989795949392908F8E8D8B8A89BF
:102DF00088878684838281807F7E7D7B7A797877DD
:102E0000767574737271706F6E6D6C6B6A696867DA
:102E1000666564636261605F5E5D5C5B5A595858C9
:102E20005756555453525150504F4E4D4C4B4A4AA1
:102E30004948474646454443424241403F3E3E3D65
:102E40003C3B3B3A3938383736353534333232311A
:102E500030302F2E2E2D2C2B2B2A292928272726C0
:102E6000252524232322212120201F1E1E1D1C1C5A
:102E70001B1B1A19191818171616151514131312E7
:102E8000121111100F0F0E0E0D0D0C0C0B0A0A096A
:102E900009080807070606050504040303020201E2
:102EA000000000809D4300009B430000C8430000D9
:102EB0000000000000000000000053657474696E9B
:102EC00067732053746F72656400454550524F4DCF
:102ED00020496E697469616C697A65640A003B20F7
:102EE000003A0A0020204D363033200020440020D4
:102EF000204D34313220530046696C616D656E742B
:102F00002072756E6F75742073656E736F723A0000
:102F10002055004C0046696C616D656E74206C6FC5
:102F200061642F756E6C6F6164206C656E67746888
:102F3000733A0020204D3835312058005A2D5072F8
:102F40006F6265204F66667365740020204D3431D2
:102F500033205300506F7765722D4C6F737320527E
:102F600065636F766572793A00204400204900203D
:102F7000204D3330342050002044002049002020D0
:102F80004D333031205000504944207365747469CA
:102F90006E67733A0020460020480020204D3134EF
:102FA000352053004D6174657269616C20686561FC
:102FB00074757020706172616D65746572733A002A
:102FC000204A002020473239205720490020204D38
:102FD0003432302053004175746F20426564204CB8
:102FE0006576656C696E673A0020204D3230362078
:102FF0005800486F6D65206F66667365743A0020EF
:10300000580020530020204D3230352042004164CA
:1030100076616E6365643A20423C6D696E5F7365EC
:10302000676D656E745F74696D655F75733E20537F
:103030003C6D696E5F66656564726174653E2054BF
:103040003C6D696E5F74726176656C5F6665656420
:10305000726174653E20583C6D61785F785F6A6587
:10306000726B3E20593C6D61785F795F6A65726B67
:103070003E205A3C6D61785F7A5F6A65726B3E20D4
:10308000453C6D61785F655F6A65726B3E002054F8
:103090000020520020204D32303420500041636324
:1030A000656C65726174696F6E2028756E697473E2
:1030B0002F7332293A20503C7072696E745F6163DD
:1030C00063656C3E20523C726574726163745F612B
:1030D0006363656C3E20543C74726176656C5F611D
:1030E0006363656C3E0020204D3230312058004D26
:1030F0006178696D756D20416363656C657261749B
:10310000696F6E2028756E6974732F7332293A00C7
:1031100020204D3230332058004D6178696D756D37
:10312000206665656472617465732028756E6974C4
:10313000732F73293A005374657073207065722081
:10314000756E69743A0020440020204D32303020E2
:1031500053002044697361626C65640A0046696CBF
:10316000616D656E742073657474696E67733A007F
:1031700020204D3134392043203B20556E69747333
:1031800020696E2043656C736975730A0020286D91
:103190006D29002020473231202020203B20556E11
:1031A00069747320696E206D6D000000FA430000A1
:1031B000FA4300002041000096420000A0420000B7
:1031C000A0420000C8430080CF43DC050000DC05BE
:1031D0000000640000004B00000024F4D43050C311
:1031E0008E20C2A24017828B7011127A910D816CD1
:1031F000D90AA861E108C7586607615143061E4B0A
:103200005D05C145A7041A411104093D98037139B0
:1032100031034036DB0265339102D4305402802EF4
:103220001D02632CEE01752AC501B028A0011027EC
:1032300081018F2564012B244B01E0223401AC2154
:103240001F018D200D01801FFC00841EED00971DC5
:10325000DF00B81CD200E61BC600201BBC00641AAD
:10326000B200B219A8000A19A0006A189900D11773
:10327000910040178B00B516840031167E00B315FF
:1032800079003A157300C7146F0058146A00EE13E2
:1032900066008813630025135E00C7125B006C1282
:1032A000570015125400C111510070114F00211127
:1032B0004B00D61049008D10470046104400021004
:1032C0004200C00F4000800F3E00420F3C00060F3E
:1032D0003B00CB0E3800930E37005C0E3500270EF6
:1032E0003400F30D3200C10D3100900D3000600D3F
:1032F0002E00320D2D00050D2C00D90C2B00AE0C2C
:103300002900850C29005C0C2700350C27000E0CC9
:103310002600E80B2400C40B2400A00B23007D0B27
:1033200023005A0B2100390B2100180B2000F80A4A
:103330001F00D90A1E00BB0A1E009D0A1D00800A3C
:103340001D00630A1C00470A1B002C0A1B00110AFF
:103350001A00F7091A00DD091900C4091900AB09A0
:103360001900920917007B091800630917004C091E
:10337000160036091600200916000A091500F5087E
:103380001500E0081400CC081400B8081400A408C4
:103390001400900813007D0812006B0813005808F1
:1033A0001200460812003408110023081100120808
:1033B000110001081100F0071000E0071000D0070D
:1033C0001000C0071000B0070F00A1071000910700
:1033D0000E0083070F0074070F0065070E005707E4
:1033E0000E0049070E003B070D002E070E002007B8
:1033F0000D0013070D0006070D00F9060C00ED0681
:103400000D00E0060C00D4060C00C8060C00BC063B
:103410000C00B0060C00A4060B0099060C008D06EB
:103420000B0082060B0077060B006C060B00610692
:103430000A0057060B004C060A0042060A0038062E
:103440000A002E060A0024060A001A060A001006C0
:10345000090007060A00FD050900F4050900EB054F
:103460000900E2050900D9050900D0050900C705D2
:103470000900BE050900B5050800AD050800A50551
:1034800009009C050800940508008C0508008405C7
:1034900008007C050800740508006C050700650538
:1034A00008005D050700560508004E0507004705A2
:1034B00007004005080038050700310507002A0508
:1034C0000700230507001C050600160507000F0569
:1034D00007000805060002050700FB040600F504C6
:1034E0000700EE040600E8040600E2040700DB041F
:1034F0000600D5040600CF040600C9040600C30474
:103500000600BD040600B7040600B1040500AC04C3
:103510000600A6040600A00405009B04060095040E
:103520000500900406008A04050085040500800457
:1035300006007A04050075040500700405006B049C
:10354000050066040500610405005C0405005704DD
:103550000500520405004D0405004804050043041D
:1035600005003E0404003A0405003504050030045B
:1035700004002C04050027040400230405001E0495
:1035800004001A04040016040500110404000D04CC
:103590000400090405000404040000040400FC0302
:1035A0000400F8030400F4030400F0030400EC0337
:1035B0000400E8030400E4030400E0030400DC0367
:1035C0000400D8030400D4030400D0030400CC0397
:1035D0000400C8030300C503030024F404D9201B1E
:1035E000C40C5C0E9804C4095F0265077101F40500
:1035F000F900FB04B30048048700C10369005803C5
:10360000550003034500BE023A0084023100530214
:103610002A002902250004022000E4011C00C80140
:103620001900AF0117009801140084011300710103
:1036300010006101100051010E0043010D00360120
:103640000B002B010B0020010B00150109000C01E0
:10365000090003010800FB000800F3000800EB006C
:103660000700E4000600DE000600D8000600D200D5
:103670000600CC000500C7000500C2000500BD0023
:103680000400B9000400B5000400B1000400AD005E
:103690000400A9000400A5000300A20003009F008D
:1036A00004009B00030098000300950002009300B3
:1036B0000300900003008D0002008B0003008800CF
:1036C00002008600020084000300810002007F00E7
:1036D00002007D0002007B000200790002007700FA
:1036E0000100760002007400020072000100710007
:1036F00002006F0002006D0001006C0002006A0011
:103700000100690002006700010066000100650019
:10371000010064000200620001006100010060001D
:1037200001005F0002005D0001005C0001005B0021
:1037300001005A0001005900010058000100570023
:103740000100560001005500010054000100530023
:103750000000530001005200010051000100500020
:1037600001004F0001004E0000004E0001004D001E
:1037700001004C0001004B0000004B0001004A001A
:103780000100490001004800000048000100470016
:103790000100460000004600010045000000450011
:1037A000010044000100430000004300010042000A
:1037B0000000420001004100000041000100400003
:1037C00001003F0000003F0001003E0000003E00FD
:1037D00001003D0000003D0001003C0000003C00F5
:1037E00000003C0001003B0000003B0001003A00EB
:1037F00000003A00010039000000390001003800E3
:1038000000003800000038000100370000003700D9
:1038100001003600000036000000360001003500CF
:1038200000003500000035000100340000003400C5
:1038300000003400010033000000330000003300BA
:1038400001003200000032000000320001003100AF
:1038500000003100000031000100300000003000A5
:103860000000300001002F0000002F0000002F009A
:1038700000002F0001002E0000002E0000002E008E
:1038800001002D0000002D0000002D0000002D0083
:1038900001002C0000002C0000002C0000002C0077
:1038A00001002B0000002B0000002B0000002B006B
:1038B00001002A0000002A0000002A0000002A005F
:1038C0000100290000002900000029000000290053
:1038D0000000290001002800000028000000280046
:1038E0000000280000002800010027000000270039
:1038F000000027000000270000002700010026002C
:10390000000026000000260000002600000026001F
:103910000100250000002500000025000000250012
:103920000000250000002500010024000000240004
:1039300000002400000024000000240001002300F7
:1039400000002300000023000000230000002300EB
:1039500000002300000023000100220000002200DC
:1039600000002200000022000000220000002200CF
:1039700001002100000021000000210000002100C2
:1039800000002100000021000000210001002000B3
:1039900000002000000020000000200000002000A7
:1039A00000002000000020000000200001001F0097
:1039B00000001F0000001F0000001F0000001F008B
:1039C00000001F0000001F0001001E0000001E007C
:1039D00000001E0000001E000000393000003325EA
:1039E000000087190000B00F0000DB080000BD04D4
:1039F0000000740200003F01000020436F756E74E8
:103A000020583A0042656400453100626564002C2C
:103A10002073797374656D2073746F7070656421A1
:103A2000204865617465725F49443A2000486561C9
:103A300074696E67204661696C65640048656174ED
:103A4000696E67206661696C6564004D31313220B2
:103A500053687574646F776E001000C90210012CF2
:103A6000014001220170011801B0010E01F00104B2
:103A7000015002FA00B002F0003003E600D003DC8F
:103A8000009004D2007005C800A006BE000008B473
:103A900000B009AA00D00BA000600E960060118C47
:103AA000000015820020197800C01D6E00A022645D
:103AB00000B0275A00902C500000314600E0343C02
:103AC0000010383200903A2800603C1E00A03D14DF
:103AD00000803E0A00203F0000544845524D414CB2
:103AE0002052554E4157415900546865726D616CC2
:103AF0002052756E61776179004572723A204D41AE
:103B00005854454D50004D415854454D5020747205
:103B100069676765726564004572723A204D494E67
:103B200054454D50004D494E54454D5020747269D6
:103B300067676572656400202F002042403A0020CC
:103B4000403A0020573A0020573A00496E76616C9F
:103B500069642065787472756465720A007C3C3E05
:103B60005E2B3D3F2F5B5D3B2C2A225C0043616E48
:103B70006E6F74206F70656E207375626469722059
:103B800000534420496E6974204661696C005344B7
:103B90002063617264206F6B0A006F70656E526FF4
:103BA0006F74206661696C65640A00766F6C756D70
:103BB000652E696E6974206661696C65640A004EE1
:103BC0006F20534420636172640A004142530050E5
:103BD0004C41000A4D3234004D3233202573002E03
:103BE0000A006F70656E206661696C65642C204602
:103BF000696C653A200046696C652073656C656385
:103C00007465640A002053697A653A200046696C3D
:103C100065206F70656E65643A2000454E44205300
:103C20005542524F5554494E450A002220706F7339
:103C3000002220706172656E743A22005355425220
:103C40004F5554494E452043414C4C207461726796
:103C500065743A220053756263616C6C204F76651F
:103C600072666C6F77004578636565646564206D86
:103C7000617820535542524F5554494E4520646552
:103C80007074683A002E0A0044656C6574696F6E42
:103C9000206661696C65642C2046696C653A200079
:103CA00046696C652064656C657465643A005344CC
:103CB000207072696E74696E672062797465200085
:103CC0004E6F74205344207072696E74696E670A77
:103CD000002F6175746F25632E67005772697469D0
:103CE0006E6720746F2066696C653A2000667265A5
:103CF000736800646F696E67002066696C653A20BE
:103D0000004E6F772000020000000000000000005D
:103D100000000000000000000000000000000000A3
:103D20000000000000000000000000000000000093
:103D30000000000000000000000000000000000083
:103D40000000000000000000000000000000000073
:103D50000000000000000000000000000000000063
:103D60000000000000000000000000000000000053
:103D70000000000000000000000000000000000043
:103D80000000000000000000000000000000000033
:103D90000000000000000000000000000000000023
:103DA0000000000000000000000000000000000013
:103DB0000000000000000000000000000000000003
:103DC000000000000000000003FFF0000000000001
:103DD00000000000000000001FFFE00000000000E5
:103DE00000000000000000003FC07C000000000058
:103DF00000000000000000007C0FFF8000000000B9
:103E00000000000000000000F87FFFE0000000005C
:103E10000000000000000001F0FFFF78000000003B
:103E20000000000000000001E1FFFFBC001FFF8355
:103E3000FFE1F00E3FFF0001E3FFFFEE001FFFC7B1
:103E4000FFF1F80E3FFFC001C3FF8FF7001E03CF45
:103E50000071FC0E3C03E001C3FE01FB801E03CE9B
:103E60000079DE0E3C01E001C7FC007DC01FFF8E23
:103E70000079CF0E3C01E001C7FC003EE01FFFCE01
:103E80000079C7CE3C01E001E7FC001F701E01CEA7
:103E90000079C1EE3C01E001E7FC000FB81E01CF44
:103EA0000079C0FE3C01E000E3FC0007F81FFFC7FB
:103EB000FFF1C07E3FFFC000F3FC0007DC1FFF875F
:103EC000FFE1C03E3FFF800073FE0003EC0FF800EF
:103ED000FF00000C1FF0000071FE0003EE00000068
:103EE000000000000000000039FF0003F6000000A1
:103EF000000000000000000618FF8003F70000002B
:103F000000000000000000071CFFC003F71FFFDFD8
:103F1000FF1FFE1C01C000030E7FE007F31FFFDF41
:103F2000FF3FFF1C01C00001863FF807FB00701C2B
:103F30000038079C01C00001C33FFFFFFB00701C5D
:103F40000038039C01C00000F39FFFFFFB00701FBF
:103F5000FF38001FFFC00000798FFFFFF780701F40
:103F6000FF38001FFFC000007CC7FFFFF780701CF8
:103F70000038079C01C000003F01FFFFED80701C6E
:103F80000038079C01C000001FE0FFFFED80701F9C
:103F9000FF3FFF1C01C000001FF03FFFCD00701F5E
:103FA000FF1FFE1C01C000000FFC0FFF1D000000E2
:103FB000000000000000000007FE01FC1B000000E4
:103FC000000000000000000003FF80003B00000034
:103FD000000000000000000001FFF000FB000000F6
:103FE000000000000000000000FFFFFFF0000000E4
:103FF0000000000000000000003FFFFFE0000000A4
:104000000000000000000000001FFFFFC0000000D3
:1040100000000000000000000007FFFF800000001B
:1040200000000000000000000001FFFF0000000091
:10403000000000000000000000003FF80000000049
:104040000000000000000000000000000000000070
:104050000000000000000000000000000000000060
:104060000000000000000000000000000000000050
:104070000000000000000000000000000000000040
:104080000000000000000000000000000000000030
:104090000000000000000000000000000000000020
:1040A0000000000000000000000000000000000010
:1040B0000000000000000000000000000000000000
:1040C00000000000000000000000000000000000F0
:1040D00000000000000000000000000000000000E0
:1040E00000000000000000000000000000000000D0
:1040F00000000000000000000000000000000000C0
:10410000000000000000006D61726C696E66772E21
:104110006F726700322E302E375F4457372E3300D0
:104120001FFFFFFFFFFFFF600000000001FF4000D6
:1041300000000000FF8000000000007F83CF00002F
:104140000C303F87FF80000C301F867980000C0008
:104150000F8C30C7838C30E78C30CFC7CC31F38CD9
:1041600030DCECEC33B98C30D86C6C33198C30D03B
:104170006C0C33198C30D86C0C33198C30DC6C0E11
:104180003B198C30CF7C079F198C30C77C038F196B
:1041900040000000000002600000000000061FFF59
:1041A000FFFFFFFFF870012C0190012701B00122F1
:1041B00001C0011D01F00118011002130130020EAF
:1041C000016002090190020401C002FF000003FA2D
:1041D000004003F5008003F000D003EB002004E66C
:1041E000007004E100E004DC004005D700C005D207
:1041F000004006CD00D006C8008007C3003008BECE
:1042000000F008B900C009B400B00AAF00B00BAAB2
:1042100000D00CA500000EA000500F9B00C010960F
:10422000005012910000148C00C0158700B0178256
:1042300000B0197D00D01B7800001E730040206E76
:104240000090226900F024640040275F0090295A02
:1042500000E02B5500102E500020304B001032464D
:1042600000E033410090353C0010373700703832A1
:1042700000A0392D00B03A2800A03B2300603C1E6E
:1042800000103D1900903D1400103E0F00703E0AD2
:1042900000C03E0500003F0000403FFBFF803FF6AE
:1042A000FFC03FF1FF2020506C616E6E6572427559
:1042B0006666657242797465733A200020467265BD
:1042C00065204D656D6F72793A2000436F6D70699E
:1042D0006C65643A204170722032352032303231C0
:1042E0000A00204C61737420557064617465643AEF
:1042F00020323032312D30342D3138207C20417540
:1043000074686F723A20426F6E6474656368202F20
:1043100020496E73616E6974794175746F6D617453
:10432000696F6E0A00322E302E375F4457372E33B6
:104330000A004D61726C696E0020536F667477617C
:1043400072652052657365740A0020576174636852
:10435000646F672052657365740A002042726F773C
:104360006E206F75742052657365740A002045785D
:104370007465726E616C2052657365740A00506FCB
:1043800077657255700A0073746172740A0047325F
:10439000385859004D31303031006572726F7220DB
:1043A00077726974696E6720746F2066696C650A3C
:1043B00000446F6E6520736176696E672066696C74
:1043C000652E0A004D323900456E6473746F707348
:1043D00000255320256320256320256320256300C5
:1043E000205A3A0020593A0020583A00656E64730A
:1043F000746F7073206869743A200000000A0B0221
:10440000090C0D0E08070304010000000000000065
:10441000000000000000000000000000000000009C
:104420000000000000000012111000000000000059
:10443000000000000000000000000000000000007C
:1044400000004D6F76652025736D6D004D6F7665AC
:1044500020302E316D6D004D6F766520316D6D0011
:104460004D6F76652031306D6D004D6F7665204162
:10447000786973004578747275646572004D6F7663
:1044800065205A004D6F76652059004D6F76652086
:104490005800CF3BCB3B4368616E67652046696C33
:1044A000616D656E7400556E6C6F61642046696C59
:1044B000616D656E74004C6F61642046696C616D5E
:1044C000656E74005072656865617420437573741D
:1044D0006F6D0050726568656174202400426163ED
:1044E0006B00FFFFFF50726F62696E672046616963
:1044F0006C656400205A3A200020593A2000426539
:104500006420583A200073686F7700627574746F86
:104510006E00626567696E0044697361626C655222
:10452000756E6F75740050757267654D6F726500BA
:1045300050617573656400436F6E74696E756500D4
:104540004C6F61642046696C616D656E7420540027
:10455000496E736572742066696C616D656E742056
:10456000616E642073656E64204D3130380A00221C
:104570000A00556E6B6E6F776E20636F6D6D616EA6
:10458000643A2022002042002050006F6B00444417
:1045900058204352313056322052656164792E00E2
:1045A0005072696E74696E672E2E2E005072696E9D
:1045B000742050617573656400204500205A002006
:1045C0005900204D393220580020453A00205A3AEF
:1045D0000020593A00583A0020746F6F206C6F6EBB
:1045E0006720657874727573696F6E207072657676
:1045F000656E7465640A0020636F6C64206578746E
:10460000727573696F6E2070726576656E7465641D
:104610000A00526573656E643A20006E6F746966B5
:1046200069636174696F6E20000000220025002814
:10463000002B002E003100340002010000050108AB
:10464000010B0100002100240027002A002D00306A
:1046500000330001010000040107010A01050505FE
:1046600005070508080808020202020A0A080804E9
:104670000404040101010101010101030303030317
:10468000030303040707070C0C0C0C0C0C0C0C02A6
:1046900002020206060606060606060B0B0B0B0BAD
:1046A0000B0B0B01021020200808102040102040A6
:1046B00080020102010804020101020408102040E6
:1046C0008080402010080402018004020180402004
:1046D000100804020108040201010204081020402D
:1046E00080010204081020408000F60032021124EC
:1046F0001FBECFEFD1E2DEBFCDBF00E00CBF13E0A5
:10470000A0E0B2E0E2EFFAED02E00BBF02C00790DA
:104710000D92A439B107D9F728E1A4E9B3E001C0AB
:104720001D92A835B207E1F713E2C6E7D3E200E035
:1047300006C021970109802FFE010F94CF69C5376C
:10474000D10780E00807A9F70F948F580D94676D83
:104750000C940000FC0184910895FC01808108956F
:104760001198000000009091020187FD90959170D2
:1047700090930001119A00000000000000001198C1
:10478000000000009091020186FD90959170909339
:104790000001119A000000000000000011980000C4
:1047A00000009091020185FD909591709093000119
:1047B000119A0000000000000000119800000000A5
:1047C0009091020184FD9095917090930001119A4F
:1047D000000000000000000011980000000090910F
:1047E000020183FD9095917090930001119A000051
:1047F00000000000000011980000000090910201EC
:1048000082FD9095917090930001119A0000000034
:10481000000000001198000000009091020181FD4D
:104820009095917090930001119A00000000000093
:1048300000001198000000008091020181708093B7
:104840000001119A0000000000000000089590E0AF
:1048500080E00895CF93DF93DB01F9019C919130C3
:10486000C1F0943080F094509C938830D1F48081D2
:104870009181009771F0019791838083480F591FB0
:10488000EA01188206C08C3539F49C5F9C93943001
:1048900041F4DF91CF9108958B3339F781E08C9308
:1048A000F8CF20813181B9016F5F7F4F71836083C1
:1048B000420F531FEA018883808191818F359105D2
:1048C0006CF7E7CF0F931F9381E000914916109189
:1048D0004A1620914B1630914C1640914516509136
:1048E000461660914716709148160417150726075B
:1048F000370708F480E01F910F91089590E080E061
:104900000895282F9091D008833021F495FD0FC091
:1049100094FD0FC0892F90E0B0E0A0E004C0B695F0
:10492000A795979587952A95D2F78170089581E08C
:10493000089580E00895CF92DF92EF92FF92CF9397
:10494000DF93EC01CC80DD80EE80FF8027E137EB48
:1049500041ED58EBC701B6010F94386C87FD23C0B9
:1049600023E030E04BE953E4C701B6010F94E6625F
:104970001816CCF0C880D980EA80FB8027E137EB9D
:1049800041ED58EBC701B6010F94386C87FD0BC0A1
:10499000C1E023E030E84DE953E4C701B6010F94CC
:1049A000E66218160CF4C0E08C2FDF91CF91FF90D7
:1049B000EF90DF90CF9008952F923F924F925F92A9
:1049C0006F927F928F929F92AF92BF92CF92DF921F
:1049D000EF92FF920F931F93CF93DF93CDB7DEB784
:1049E0002E970FB6F894DEBF0FBECDBFE82ED62EA1
:1049F000042F122F282F30E03C872B87462F50E0C2
:104A00005A87498765E0F62EF29EC001F39E900D0D
:104A100011249E878D87FA01E80FF91FEE0FFF1F03
:104A2000EE0FFF1FE95EF94F6081718182819381F2
:104A30009B01AC010F94CA6C882309F434C1E00EC9
:104A4000612F6D0DFE9CF0011124A985BA85AE0F72
:104A5000BF1FAA0FBB1FAA0FBB1FA95EB94FAC9007
:104A60001196BC9011971296CC9012971396DC90E9
:104A7000E00EFE9CA0011124A985BA85A40FB51FE4
:104A8000AA0FBB1FAA0FBB1FA95EB94FEC901196CE
:104A9000FC90119712960C91129713969C90862F6A
:104AA00090E0AD85BE85A80FB91FAA0FBB1FAA0F46
:104AB000BB1FA95EB94F8C9011967C9011971296EE
:104AC0006C90129713965C90610F70E0AD85BE8577
:104AD000A60FB71FAA0FBB1FAA0FBB1FA95EB94F16
:104AE0004C9011963C90119712961C911297139628
:104AF0002C90E80FF91FEE0FFF1FEE0FFF1FE95E6E
:104B0000F94FB081B98321812A8332813B8383812C
:104B10008C83FA01E60FF71FEE0FFF1FEE0FFF1F4A
:104B2000E95EF94F90819D83A181AE83B281BF83FD
:104B3000238128879701402F592DB701802F992D68
:104B40000F94CA6C882321F0E12CF12C00E0912C09
:104B50009501A601B501C6010F94CA6C882319F00E
:104B60005701C02ED92C242D332D412F522D642DC9
:104B7000732D812F922D0F94CA6C882321F0412C24
:104B8000312C10E0212C282D372D462D552D682D48
:104B9000772D862D952D0F94CA6C882321F0842CB7
:104BA000732C612E522C2D813E814F8158856D8151
:104BB0007E818F8198850F94CA6C882321F01D8295
:104BC0001E821F82188629813A814B815C8169810E
:104BD0007A818B819C810F94CA6C882341F03D813E
:104BE00039834E814A835F815B8388858C8385E02E
:104BF000EB85FC858E9FD0018F9FB00D11242985F8
:104C00003A85A20FB31FAA0FBB1FAA0FBB1FA95E35
:104C1000B94FBA87A9879501A601B501C6010F94BE
:104C2000D8699701402F592D0F94D7696B017C01EA
:104C3000282D372D462D552D682D772D862D952D18
:104C40000F94D869242D332D412F522D0F94D769FD
:104C50009B01AC01C701B6010F94D8696B017C01BF
:104C600029813A814B815C8169817A818B819C8128
:104C70000F94D8692D813E814F8158850F94D76953
:104C80009B01AC01C701B6010F94D86920E030E068
:104C900040E450E40F94D26AA985BA856D937D9360
:104CA0008D939C9313972E960FB6F894DEBF0FBE8C
:104CB000CDBFDF91CF911F910F91FF90EF90DF90CB
:104CC000CF90BF90AF909F908F907F906F905F90AC
:104CD0004F903F902F9008951092B70880915902FD
:104CE00090915A02A0915B02B0915C028093900671
:104CF00090939106A0939206B09393060895129A0A
:104D00000895269A2E9A0895AF92BF92CF92DF927D
:104D1000EF92FF920F931F93CF93DF936B01E90103
:104D20004A3009F4C1C0453109F073C0DB01129665
:104D3000ED91FC91F280C681D7818091020180952E
:104D400082708093000188E28A950000E9F7BF2C09
:104D5000B29420EFB22230E1A32EAF0C48E2E42E51
:104D600088EF0E94B0238E2D8A950000E9F7BFE1FD
:104D7000BF1508F485C08F2D807780680E94B0230E
:104D80008B2D0E94B0238E2D8A950000E9F780E8D4
:104D90000E94B02380E00E94B0238E2D8A950000EF
:104DA000E9F78AEF0E94B0238E2D8A950000E9F77B
:104DB0008E01005F1F4F8881807F0E94B023899100
:104DC0008295807F0E94B023C017D107A1F78E2D56
:104DD0008A950000E9F7F394E0E1BE0EFA10C0CF27
:104DE00080910201827080930001D6011296CD91CC
:104DF000DC91CE010F94EE4C811147C2DF91CF912F
:104E00001F910F91FF90EF90DF90CF90BF90AF90E8
:104E10000895FB0102811381423309F4F1C108F4C2
:104E2000F5C1463409F4E2C1473409F4E5C14B3316
:104E300029F589812B81D80112966C9112971396CE
:104E40004C91213009F438C2233009F002C238EF06
:104E5000380F582F91E0431708F490E041E05317C2
:104E600008F040E031E0561708F430E0592F542B99
:104E7000352309F016C2942309F013C281E0BECF96
:104E800080EE8F0D8068807F0E94B0238F2D8295E9
:104E9000807F0E94B0238E2D8A950000E9F780E87C
:104EA0000E94B02380E877CF8091010182608093D7
:104EB00001018091020182708093000180910101C3
:104EC00081608093010180910201817080930001D3
:104ED000099A119A80910201809582708093000155
:104EE00088E28A950000E9F788E790E0CEE9DFE004
:104EF000FE013197F1F70197D9F788EF0E94B023AF
:104F000018E2812F8A950000E9F780E20E94B02321
:104F100080E00E94B023812F8A950000E9F780E0AD
:104F20000E94B02380E80E94B023812F8A95000060
:104F3000E9F780E00E94B02380E10E94B023812F36
:104F40008A950000E9F7CE010197F1F7CE010197AC
:104F5000F1F7CE010197F1F7CE010197F1F7CE01FC
:104F60000197F1F7CE010197F1F7CE010197F1F723
:104F7000CE010197F1F7CE010197F1F7CE0101972C
:104F8000F1F7CE010197F1F7CE010197F1F7CE01CC
:104F90000197F1F7CE010197F1F72197F1F780E240
:104FA0000E94B02380E40E94B023812F8A950000E4
:104FB000E9F780E20E94B02380E60E94B0231A95B0
:104FC0000000E9F710E0D0E0C8E28D2F807780681C
:104FD0000E94B023812F0E94B0238C2F8A9500005D
:104FE000E9F780E80E94B02380E00E94B0238C2F74
:104FF0008A950000E9F78AEF0E94B0238C2F8A95EA
:105000000000E9F790E21198000000008091020191
:10501000817080930001119A0000000000000000E0
:1050200011980000000080910201817080930001BE
:10503000119A00000000000000001198000000001C
:1050400080910201817080930001119A000000009C
:1050500000000000119800000000809102018170A2
:1050600080930001119A00000000000000001198D8
:105070000000000080910201817080930001119A6C
:105080000000000000000000119800000000809166
:105090000201817080930001119A0000000000005D
:1050A000000011980000000080910201817080933F
:1050B0000001119A0000000000000000119800009B
:1050C000000080910201817080930001119A00001C
:1050D0000000000000001198000000008091020113
:1050E000817080930001119A000000000000000010
:1050F00011980000000080910201817080930001EE
:10510000119A00000000000000001198000000004B
:1051100080910201817080930001119A00000000CB
:1051200000000000119800000000809102018170D1
:1051300080930001119A0000000000000000119807
:105140000000000080910201817080930001119A9B
:105150000000000000000000119800000000809195
:105160000201817080930001119A0000000000008C
:10517000000011980000000080910201817080936E
:105180000001119A000000000000000011980000CA
:10519000000080910201817080930001119A00004B
:1051A0000000000000008C2F8A950000E9F7915064
:1051B00009F029CF88EF0E94B0238C2F8A95000038
:1051C000E9F7DF5F105FD03209F0FFCE80E00E9488
:1051D000B02380EC0E94B023CA950000E9F78091CB
:1051E000020182708093000181E008CED8011596FB
:1051F0008C91888381E002CEF80181818883FACF87
:10520000B901C8010F940B4D81E0F8CD443171F024
:10521000473109F033CE1882F80182818983858174
:1052200081508A8383818B8381E0E8CDD8011596F4
:105230004C91159750E0440F551F70E060E01696B2
:105240008D919C910F94086DC8010F94044D81E0DD
:10525000D5CD481708F412CE861708F40FCEFA8081
:10526000E12CD12C243070F41DC0BE01C8010F9474
:105270000B4D898198819D0D98838E0D8983FF0C3C
:1052800009F4FCCDF7FEF6CFF0CF4D8150E0440F8E
:10529000551F70E060E08E819F810F94086D81E062
:1052A000ADCDFA8030E0F901E554FD4FD0802954AE
:1052B0003D4FF901E080E6CF58E0580F382FCACDB6
:1052C000EF92FF920F931F93CF93DF93EC018B012B
:1052D0007A018A859B858617970731F088819981A5
:1052E0000F94E44E1B870A87B701888199810F9438
:1052F00038402E813F81820F932F911D9F838E8393
:1053000090E080E0DF91CF911F910F91FF90EF909F
:1053100008959F92AF92BF92CF92DF92EF92FF9249
:105320000F931F93CF93DF93EC018B01942EA52E47
:105330008A859B858617970731F0888199810F941C
:10534000E44E1B870A8788859985019649F5BC80BC
:105350000A818E81080FC880D980D6015596ED91BB
:10536000FC91C6011995B80EE92CFA2C10E0F70152
:1053700021917F01211127C08E819F81810F911D75
:105380009F838E8390E080E0DF91CF911F910F91FA
:10539000FF90EF90DF90CF90BF90AF909F900895D7
:1053A0000E811F81692D7A2D888199810F94384053
:1053B000800F912F911D288539852817390738F6D8
:1053C00081E090E0E1CF4B2D602FC6010F943C4F60
:1053D000080F180FCCCFDF92EF92FF920F931F931D
:1053E000CF93DF93EC01D62E1CAD0BAD7C0184E096
:1053F000E80EF11CE98DFA8DC7011995412F480F70
:105400002D2D602FC7010F943C4F9BAD890F8BAFA3
:1054100081E090E0DF91CF911F910F91FF90EF908D
:10542000DF900895AB01BC014093491650934A1692
:1054300060934B1670934C1682EB97E10C9491DFBE
:1054400080932F028032B8F590915D05891724F082
:1054500091E0980F90935D054091590550915A0540
:1054600060915B0570915C05082E04C07695679588
:10547000579547950A94D2F741704093191087FDCC
:105480001DC0282F082E000C330B3F938F9387E508
:1054900099E09F938F9387E699E09F938F931F9254
:1054A0000E9414C58DB79EB707960FB6F8949EBF9D
:1054B0000FBE8DBF089510921910E1CF0D944F3B90
:1054C0000F931F93CF93DF9300D01F92CDB7DEB71A
:1054D0009C010DE918E090E1E6ECF9E0D8010190BB
:1054E0000D929A95E1F7F901208131814281538132
:1054F000F80160857185828593850F94D869F801DC
:10550000608771878287938780E090E0A0EAB0E4AB
:1055100089839A83AB83BC83CE0101960F945E0985
:105520000F900F900F900F90DF91CF911F910F91DF
:1055300008952F923F924F925F926F927F928F9237
:105540009F92AF92BF92CF92DF92EF92FF921F9302
:10555000CF93DF93CDB7DEB72C970FB6F894DEBFAD
:105560000FBECDBF7A011901DC012D913D914D9106
:105570005C912D833E834F835887FB01408051808F
:10558000628073808090C6099090C709A090C80976
:10559000B090C909A50194016D817E818F819885A4
:1055A0000F94E66281110EC011E0A3019201609197
:1055B000CA097091CB098091CC099091CD090F94C3
:1055C000E662811110E0D1012D913D914D915C91E8
:1055D00029873A874B875C87F701C080D180E280BA
:1055E000F3802091130230911402409115025091E2
:1055F0001602C701B6010F94E662882309F44EC073
:10560000C0921302D0921402E0921502F092160298
:105610008091D2099091D309A091D409B091D50974
:105620004091CA095091CB096091CC097091CD0984
:1056300080929D0890929E08A0929F08B092A00828
:105640004093A1085093A2086093A3087093A40804
:10565000C092A508D092A608E092A708F092A808E8
:105660008093A9089093AA08A093AB08B093AC08C4
:1056700020E030E040E05FE3609147107091481017
:105680008091491090914A100F944C6369837A83FA
:105690008B839C83CE0101960F945E092D813E8100
:1056A0004F81588520939D0830939E0840939F0812
:1056B0005093A0084092A1085092A2086092A308BB
:1056C0007092A408D1012D913D914D915C91609112
:1056D000A9087091AA088091AB089091AC080F942A
:1056E000D8696093A9087093AA088093AB08909337
:1056F000AC0811112FC020E030E0A90169857A853E
:105700008B859C850F94E662811133C060E070E068
:1057100088EC92E469837A838B839C83CE01019623
:105720000F945E092C960FB6F894DEBF0FBECDBF66
:10573000DF91CF911F91FF90EF90DF90CF90BF90BE
:10574000AF909F908F907F906F905F904F903F9021
:105750002F9008952AEF3EE74AE25FE360914B10F5
:1057600070914C1080914D1090914E100F944C639D
:10577000D1CF60E070E080EA91E4CCCFCF93DF93AB
:1057800000D01F92CDB7DEB780E090E0A0EAB0E491
:1057900089839A83AB83BC8361E0CE0101960F9429
:1057A00061010F900F900F900F90DF91CF910895AE
:1057B00080911B0590911C05009731F04AE050E064
:1057C00070E060E00D94016160E070E0CB0108954D
:1057D0008091DA0982FF0BC063E683E49AE00E94BD
:1057E0002FC50F94F8460E942FCC81E0089580E0E9
:1057F000089580911B0590911C05009731F04AE0B7
:1058000050E070E060E00D94D35F60E070E0CB01A9
:1058100008950E94F92B97FD0CC00E94F92B6F3F51
:1058200071058105910509F034F40E94F92B862F4A
:10583000089580E008958FEF089580911B05909161
:105840001C05892B41F00E94092C91E0811101C0B7
:1058500090E0892F089591E0FCCFAF92BF92CF9254
:10586000DF92EF92FF920F931F93CF93DF93EC01A0
:105870005B018A01FB01199587FD16C0C82ED12C4A
:10588000F12CE12C2196F801C082D182E282F382D0
:10589000CE01DF91CF911F910F91FF90EF90DF909C
:1058A000CF90BF90AF900895982F907E903CA9F430
:1058B0008F7190E0B0E0A0E06C017D0156E0CC0C6F
:1058C000DD1CEE1CFF1C5A95D1F7CE010196F501A7
:1058D00019958F73C82A2296D6CF982F907F903E25
:1058E00011F58F7090E0B0E0A0E06C017D0136E032
:1058F000CC0CDD1CEE1CFF1C3A95D1F7CE010196B5
:10590000F50119958F73C82A46E0CC0CDD1CEE1CFE
:10591000FF1C4A95D1F7CE010296F50119958F73B8
:10592000C82A2396B0CF982F987F903F79F587703B
:1059300090E0B0E0A0E06C017D0186E0CC0CDD1CC5
:10594000EE1CFF1C8A95D1F7CE010196F501199541
:105950008F73C82A96E0CC0CDD1CEE1CFF1C9A95B8
:10596000D1F7CE010296F50119958F73C82A26E06A
:10597000CC0CDD1CEE1CFF1C2A95D1F7CE01039642
:10598000F50119958F73C82A24967DCF982F907CA6
:10599000903841F4807C803869F42196CE01F5017D
:1059A0001995F8CF8E7F8D3F28F02196CE01F50115
:1059B0001995F8CFC12CD12C760165CF9CE0899F39
:1059C000802D112491E0980F90935E052CE0280F14
:1059D0002093970830E02E5F3F4F40913B164217CF
:1059E000130619F014F080E0089520913D169217E7
:1059F000D0F7662341F08E5F0F94FE4D809197089B
:105A00008E5F0F94FE4D8091970890913B168917F9
:105A100050F320913D1690915E05291720F31092C6
:105A20003E1680933F1681E00895CF9380915105F3
:105A3000811154C010923E1610923F1610924016DB
:105A400010920C1610920B1610920E1610920D1644
:105A50001092101681E080930F1682E28093111647
:105A60001092161610921516EAE2F6E128E336E1D6
:105A70008FEF81932E173F07E1F7C1E0C093271600
:105A80002CEB30E030931D1620931C16C0931E168D
:105A900010921F161092201690E4909321161092E7
:105AA000221622EA31E0309339162093381622E28A
:105AB00032E030930A162093091697E190932E1640
:105AC00091E190932F1690E190932C1680932B16D2
:105AD00080932A160F94254DC093510581E0809341
