:100000000C94A7230C94D8230C94D8230C94D823B5
:100010000C94D8230C94D8230C94D8230C94D82374
:100020000C94D8230C94D8230C94D8230C94D82364
:100030000C94D8230D9483530C94D8230C94D82378
:100040000C94D8230C9432EF0C94D8230C94D8231E
:100050000C94D8230C94D8230C94F9EB0D943953B9
:100060000C94D8230C94095F0C94FF5E0C94D82355
:100070000C94D8230C94D8230C94D8230C94D82314
:100080000C94C8420C94D8230C94D8230C94D823F5
:100090000C94D8230C94D8230C94D8230C94D823F4
:1000A0000C94D8230C94D8230C949A420C94D82303
:1000B0000C94D8230C94D8230C94D8230C94D823D4
:1000C0000C94D8230C94D8230C94D8230C94D823C4
:1000D0000C94D8230C94D8230C94D8230C94D823B4
:1000E0000C94D823084AD73B3BCE016E84BCBFFD9D
:1000F000C12F3D6C74319ABD56833DDA3D00C77FF8
:1001000011BED9E4BB4C3E916BAAAABE0000008090
:100110003F05A84CCDB2D44EB93836A9020C50B91F
:10012000918688083CA6AAAA2ABE000000803F004B
:100130000C94D4CA0C949E9A0C943E920C94AD925A
:100140000C947D450D94042D0C9499DB0C945790E0
:100150000C94A8DF0C9424920D94B44C0D94D24CC2
:100160000C945CA70C949EA90D94C84C0C94F79425
:100170000D94D64C0D94DE5D0C94BDAE0C94C2CAA9
:100180000C94EC8F0C94DD230D94A94C0C9477BA4D
:100190000C94069A0C942D900C94539B0D94312D35
:1001A0000D945C4D0C9430960C9433B00C949F934A
:1001B0000C94B35F0C946E8D0C9403DE0D94704D13
:1001C0000C94C59E0C942E990D94894D0C944A99CB
:1001D0000C942B940C94408D0C94ECD40C944E9C69
:1001E0000D94294D0C94DD990C9443920C94F2CA11
:1001F0000C94D1D30C94DA230C94C2D40C94855F64
:100200000C94AF900C94C99C0D947A4D0C947B92F5
:100210000D944C4D0C947B940C9479940C94BCCA22
:100220000C94C68D0C946A9C0C9414C20C9476BDEC
:100230000D94384D0C945B910C94765F0C94DBA775
:100240000C94A7920C94FE990C9422920C948E9686
:100250000D94E04C0D94A54C0C94F8CA0C94475F97
:100260000C949B5F0C94D38F0D942E4D0D94AD4C3C
:100270000C943A940C940D920C94AF5F0C94A3A13F
:100280000C9444910D94934C0C943C900C94879452
:100290000C9483900C947D940D94B14C0C944B9BD6
:1002A0000C9483940C94E49C0D94BB4D0C94B9DE97
:1002B0000C94F1C80C9496DF0C946D9C0C949029CE
:1002C0000C945A9C0C94E3C00D94632D0C9483B849
:1002D0000C9449420C948A960C94D2B00C94A4923B
:1002E0000D94C44C0C9498DB0C94ECDC0C949FE0C3
:1002F0000C9457A70D94305E0C94EF930C94609C73
:100300000C94E2B60C94709C0C94EA900C9466A742
:100310000C94A5B80C949C260C940EAC0C94AD8D4A
:100320000C9443D40C94679B0C9498C60C9469CBA2
:100330000C942F920D94664D0C94C8CA0C9418DF3F
:100340000D94544D0D94BE4C0C94E0CA0C94369907
:100350000C9439920C94F8910C9448B20C94B9B363
:100360000C945C9B0C9426990C943C960C94AA9249
:100370000C9462D40C94459B0C948C3B0C9461A718
:100380000C946C9A0C942D910C9470900C94FECA61
:100390000C9433AD0C94A75F0C9405900C94549C72
:1003A0000C94F3CE0C94519C0C94B9290D94BA4C36
:1003B0000C9481940C9434920C946BB10D945A2E3D
:1003C0000C9492960D94E44C0C9420DE0C942A9993
:1003D0000C94AB5F0D94DA4C0C94A99A0C94729126
:1003E0000C9402970C9432990C94DACA0C94A35F83
:1003F0000C9495920C945D930C9464420C94C89266
:100400000C94E6CA0C947F420D948E4C0C94638D30
:100410000C943A990C9404CB0C94A3D40C94C890EB
:100420000C9484DD0D94424D0C9414900C94FDDEDC
:100430000C9457240C94945F0C9498A00D944E5EE9
:100440000C94D7900C94CD5F0C94539A0C94639CAD
:100450000C945EBF0C9496900C94AE930C942092E6
:100460000C9467A40C94FD900C94859A0C94CECABD
:100470000D94A74D0C9442990C9401920C94579CA6
:100480000C9416DB0C94BA5F0C94C69C0C94859467
:100490000C949DAF0C943A9A0C9498DE0C94C55F22
:1004A0000D94B14D0C945D9C0D94214D0C94AEB502
:1004B0000C941B2A0D949D4D0D94934D0C94689CA7
:1004C0000C947F940D94CC4C0C949F5F0C941691DB
:1004D0000C943E990C94B4260C94ECCA0C942E42C5
:1004E0000C94D5DF0C948DB80C94A3CB0C94439C46
:1004F0000C94F0D30C9446994E414E494E495459B0
:10050000494E46CDCCCC3D0AD7233C17B7D13877DE
:10051000CC2B329595E6241FB14F0A0000204100F4
:1005200000C84200401C4620BCBE4CCA1B0E5AAE3E
:10053000C59D7400407A10F35A00A0724E1809004D
:1005400010A5D4E80000E87648170000E40B540238
:100550000000CA9A3B000000E1F505000080969873
:1005600000000040420F000000A0860100000010C3
:100570002700000000E80300000000640000000005
:10058000000A00000000000100000000002C76D8E6
:1005900088DC674F0823DFC1DFAE59E1B1B796E5CC
:1005A000E3E453C63AE651997696E8E6C28426EB30
:1005B000898C9B62ED407C6FFCEFBC9C9F40F2BA43
:1005C000A56FA5F490055A2AF75C936B6CF9676DDB
:1005D000C11BFCE0E40D47FEF520E6B500D0ED9030
:1005E0002E0300943577050080841E080000204EFD
:1005F0000A000000C80C333333330F986E12831196
:1006000041EF8D2114893BE65516CFFEE6DB18D16C
:10061000844B381BF77C1D901DA4BBE4242032843E
:10062000725E228100C9F124ECA1E53D27434F4DC4
:100630004D554E49434154494F4E0044525952552D
:100640004E004552524F525300494E464F004543CB
:10065000484F004572726F722077726974696E67D5
:1006600020746F20454550524F4D210A0053544F7E
:10067000505045442E20005072696E74657220738C
:10068000746F707065642064756520746F20657286
:10069000726F72732E2046697820746865206572C7
:1006A000726F7220616E6420757365204D3939391F
:1006B00020746F20726573746172742E20285465E3
:1006C0006D706572617475726520697320726573EF
:1006D00065742E2053657420697420616674657298
:1006E0002072657374617274696E67290A004E6FB7
:1006F00020436865636B73756D2077697468206C3F
:10070000696E65206E756D6265722C204C61737424
:10071000204C696E653A20004E6F20436865636B1C
:1007200073756D2077697468206C696E65206E75CD
:100730006D6265722C204C617374204C696E653A51
:100740002000636865636B73756D206D69736D61FF
:100750007463682C204C617374204C696E653A2078
:10076000004C696E65204E756D626572206973205C
:100770006E6F74204C617374204C696E65204E75E9
:100780006D6265722B312C204C617374204C696E44
:10079000653A20004D3131300053657269616C203B
:1007A000737461747573206D69736D617463680A25
:1007B00000776169740A00534420726561642065A2
:1007C00072726F720A00486F74656E642049646CBF
:1007D000652054696D656F757400486F74656E644B
:1007E0002049646C652054696D656F75740A002139
:1007F00021204B494C4C20636175736564206279FC
:10080000204B494C4C20627574746F6E2F70696E6A
:100810000A002121204B494C4C20636175736564AB
:1008200020627920746F6F206D75636820696E6136
:1008300063746976652074696D65202D2063757217
:1008400072656E7420636F6D6D616E643A20007026
:1008500061757365004D363030002066696C616DDE
:10086000656E745F72756E6F7574200066696C6179
:100870006D656E745F72756E6F7574205400466995
:100880006C616D656E7452756E6F75742054004D99
:10089000656469612052656D6F766564004D6564BD
:1008A000696120496E736572746564004D31303042
:1008B000305300627573793A2070617573656420F6
:1008C000666F7220696E7075740A00627573793A8A
:1008D0002070617573656420666F72207573657230
:1008E0000A00627573793A2070726F636573736979
:1008F0006E670A00506C656173652052657365749C
:10090000005052494E5445522048414C54454400F1
:1009100025533A20255300706F7765726F66660025
:100920004B494C4C45442E20005072696E746572E0
:100930002068616C7465642E206B696C6C282920BA
:1009400063616C6C6564210A0053544F50504544F8
:100950002E20005072696E7465722073746F70700F
:1009600065642064756520746F206572726F7273A0
:100970002E2046697820746865206572726F722037
:10098000616E6420757365204D39393920746F208C
:10099000726573746172742E202854656D7065726F
:1009A00061747572652069732072657365742E2099
:1009B0005365742069742061667465722072657372
:1009C00074617274696E67290A006563686F3A0022
:1009D0004572726F723A0042696C696E656172208D
:1009E0004C6576656C696E6720477269643A0A00E7
:1009F00021212053544F502063616C6C6564206248
:100A0000656361757365206F6620424C546F756332
:100A100068206572726F72202D2072657374617226
:100A2000742077697468204D3939390A00212120F2
:100A300053544F502063616C6C6564206265636140
:100A4000757365206F6620424C546F75636820652E
:100A500072726F72202D20726573746172742077C8
:100A6000697468204D3939390A005072696E7469A9
:100A70006E67204F626A6563740025532025690004
:100A80002F2F616374696F6E3A0073746172740022
:100A900070726F6D70745F00656E6400486F74658E
:100AA0006E6420746F6F20636F6C640A0053656E10
:100AB00064204D31303820746F20726573756D6518
:100AC0000A00496E736572742066696C616D656EAB
:100AD0007420616E642073656E64204D3130380A75
:100AE0000052656865617420446F6E6500526568E8
:100AF000656174696E672E2E2E005265686561749B
:100B0000004865617465722054696D656F75740085
:100B100053656E64204D31303820746F20686561F4
:100B200074206E6F7A7A6C650A004E6F7A7A6C6503
:100B3000205061726B65640070617573656400506C
:100B40006175736500726573756D656400526573D8
:100B5000756D696E67004732362043616E63656C60
:100B60006564004732362048656174696E67204EBF
:100B70006F7A7A6C65004732362048656174696E19
:100B800067204265640057616974696E6720666F0B
:100B900072206865617475702E0A00466978656414
:100BA000204C656E677468205072696D6500446FF3
:100BB0006E65205072696D696E67004D616E75617A
:100BC0006C207072696D696E672E2E2E004C656107
:100BD00076696E6720473236003F537065636966F9
:100BE00069656420582C5920636F6F7264696E6167
:100BF0007465206F7574206F6620626F756E647304
:100C00002E0A003F28522965706561742076616C58
:100C10007565206E6F7420706C61757369626C65A8
:100C20003B206D757374206265206174206C656172
:100C3000737420312E0A003F5370656369666965DD
:100C400064206E6F7A7A6C652074656D7065726170
:100C500074757265206E6F7420706C617573696253
:100C60006C652E0A003F5370656369666965642090
:100C700066696C616D656E742073697A65206E6F4C
:100C80007420706C61757369626C652E0A003F5345
:100C90007065636966696564207072696D65206C52
:100CA000656E677468206E6F7420706C617573690F
:100CB000626C652E0A003F537065636966696564FE
:100CC000206E6F7A7A6C652073697A65206E6F7416
:100CD00020706C61757369626C652E0A003F526505
:100CE0007472616374696F6E204D756C7469706C99
:100CF000696572206D757374206265207370656319
:100D000069666965642E0A003F53706563696669A8
:100D100065642052657472616374696F6E204D75ED
:100D20006C7469706C696572206E6F7420706C6190
:100D3000757369626C652E0A003F5370656369665E
:100D4000696564206C61796572206865696768749B
:100D5000206E6F7420706C61757369626C652E0A09
:100D60000043292E0A003F53706563696669656414
:100D7000206265642074656D70657261747572655A
:100D8000206E6F7420706C61757369626C652028C9
:100D900034302D00473236207374617274696E6787
:100DA0002E2E2E0A004F46460A00466164652048F2
:100DB00065696768742000426564204C6576656CDF
:100DC000696E6720004661696C656420746F2065F8
:100DD0006E61626C6520426564204C6576656C6965
:100DE0006E670A00496E76616C6964206D65736890
:100DF0002E0A0050726F62696E6720506F696E74C0
:100E00000025532025692F2569002E0A002F005048
:100E1000726F62696E67206D65736820706F696EAE
:100E2000742000202844525952554E290047323927
:100E3000204175746F20426564204C6576656C694D
:100E40006E67003F20284C2C522C462C4229206FE4
:100E50007574206F6620626F756E64732E0A003F92
:100E60002856296572626F7365206C6576656C2003
:100E7000696D706C61757369626C652028302D3402
:100E8000292E0A00426164205A2076616C75650A39
:100E9000004E6F2062696C696E65617220677269CD
:100EA000640A00446576696174696F6E0025533A7F
:100EB0002025730046696E6973686564210A003AEB
:100EC000207A3A2000206F662000476F696E672005
:100ED000746F3A20580043570A00206469723A0040
:100EE00020616E676C653A005374617274207261A0
:100EF000646975733A004D343820506F696E740020
:100F000025533A2025642F256400506F7369746956
:100F10006F6E696E67207468652070726F62652EEF
:100F20002E2E0A003F4C656773206F66206D6F762A
:100F3000656D656E7420696D706C61757369626C46
:100F4000652028302D3135292E0A003F2028582CC5
:100F50005929206F7574206F6620626F756E6473F7
:100F60002E0A0050726F6265206F7574206F6620C4
:100F7000626F756E6473003F53616D706C652073B2
:100F8000697A65206E6F7420706C61757369626C2C
:100F9000652028342D3530292E0A004D3438205A4A
:100FA0002D50726F6265205265706561746162696F
:100FB0006C69747920546573740A003F285629655A
:100FC00072626F7365206C6576656C20696D706CFC
:100FD00061757369626C652028302D34292E0A00F2
:100FE0005374616E646172642044657669617469EA
:100FF0006F6E3A20002052616E67653A2000204DE6
:1010000061783A2000204D696E3A200020536967CC
:101010006D613A20004D65616E3A2000205200411A
:101020006363656C65726174696F6E3A2050005736
:1010300041524E494E4721204C6F77205A204A6535
:10104000726B206D6179206C65616420746F20750E
:101050006E77616E746564207061757365732E0AB6
:10106000004F4646004F4E0020204D61783A200048
:10107000200020204D696E3A2000536F6674206571
:101080006E6473746F70733A20004D3234205325B0
:101090006C642054256C64004739322E3920452574
:1010A0007300473120462564004739322E39205AD3
:1010B0002573004731205A30204632303000473106
:1010C0002058257320592573204633303030004D89
:1010D00034323020532569205A2573004D31303683
:1010E0002050256920532569004D32303020442599
:1010F000730047323852305859004739322E392060
:101100004530205A300A47315A2573004D31303965
:1011100020532569004D31393020532569004D3465
:101120003230205330205A300020496E76616C698D
:1011300064206578747275646572200047322F47A9
:10114000332062616420706172616D6574657273D1
:101150000A00536C6565702E2E2E005A2050726F57
:1011600062652050617374204265640A005A205001
:10117000726F62652050617374204265640047326B
:10118000384C30004D3131372050726F6265206627
:1011900061696C65642E0A4732380A0070726F62AA
:1011A000655F7265776970650047323920526574F2
:1011B0007279696E670050726F62696E672046616E
:1011C000696C6564004D31313720426564206C657F
:1011D00076656C696E67206661696C65642E0A4786
:1011E00030205A31300A4D333030205032352053C0
:1011F0003838300A4D333030205035302053300AE3
:101200004D3330302050323520533838300A4D338A
:101210003030205035302053300A4D33303020509C
:10122000323520533838300A4D3330302050353085
:101230002053300A47342053310070726F62655F6B
:101240006661696C6564004D313137204265642008
:101250006C6576656C696E6720646F6E652E002024
:101260005A3A200020593A200042656420583A201A
:10127000004D65736820706F696E74206F757420FF
:101280006F662072616E67650A004D302053746F7F
:1012900070004D312053746F7000436C69636B2094
:1012A000746F20526573756D652E2E2E004E6F2063
:1012B0004D6F76652E00456E642066696C65206C06
:1012C0006973740A00426567696E2066696C6520FF
:1012D0006C6973740A004E6F206D656469610A0061
:1012E000526573756D696E6720534400286E6F20D8
:1012F00066696C65290043757272656E7420666953
:101300006C653A20005072696E742074696D653A9C
:1013100020000A53746174733A2046696C616D65EC
:101320006E7420757365643A20002C204C6F6E67D4
:10133000657374206A6F623A2000546F74616C2088
:1013400074696D653A200053746174733A20002CFF
:10135000204661696C65643A20002C2046696E69FC
:10136000736865643A20005072696E74733A2000A5
:1013700053746174733A2000436F6F6C696E672E0B
:101380002E2E0048656174696E672E2E2E00452052
:101390002553006F6B006F6666004E0649064206D5
:1013A0003B062D0644454255473A004D3131332026
:1013B000530042656420436F6F6C696E672E2E2E5A
:1013C000004265642048656174696E672E2E2E00A8
:1013D00044445820435231305632204F46462E0066
:1013E0002F2F004D31343520533C696E6465783EB3
:1013F000206F7574206F662072616E6765202830DB
:101400002D31290A004D32303620580046523A001C
:1014100020466C6F773A20003A20002053657276A0
:101420006F2000206F7574206F662072616E676593
:101430000A00536572766F200020643A0020693AF2
:101440000020703A00496E76616C6964206578749A
:1014500072756465720A0020643A0020693A0020BF
:10146000703A0064697300656E0043290A00616286
:101470006C656420286D696E2074656D7020004372
:101480006F6C642065787472756465732061726531
:10149000200046696C616D656E742072756E6F75A3
:1014A000742064697374616E636520286D6D293AD8
:1014B000200046696C616D656E742072756E6F7583
:1014C0007420004D34323120696E636F727265632F
:1014D0007420706172616D657465722075736167E7
:1014E000650A004D65736820706F696E74206F75B2
:1014F00074206F662072616E67650A004F666673BE
:10150000657473204170706C696564004572723A4D
:1015100020546F6F206661722100546F6F206661E6
:10152000722066726F6D207265666572656E6365A6
:1015300020706F696E740A00454550524F4D204F20
:101540004B0A00506F7765722D6C6F737320726554
:10155000636F7665727920004D383400446F6E6594
:10156000207072696E74696E672066696C650A0026
:101570004D3737004D3331004361703A004D4541DE
:10158000545041434B00434F4F4C45525F54454DDF
:101590005045524154555245004348414D424552F1
:1015A0005F54454D504552415455524500424142C9
:1015B000595354455050494E470041524353004DF2
:1015C0004F54494F4E5F4D4F444553005448455288
:1015D0004D414C5F50524F54454354494F4E004C7F
:1015E0004F4E475F46494C454E414D45004155548D
:1015F0004F5245504F52545F53445F5354415455DA
:10160000530053445F575249544500524550454199
:1016100054005344434152440050524F4D50545F84
:10162000535550504F525400454D455247454E4337
:10163000595F50415253455200434153455F4C4915
:101640004748545F4252494748544E45535300540B
:101650004F47474C455F4C494748545300534F460A
:1016600054574152455F504F574552004255494CDF
:10167000445F50455243454E54004C4556454C49F5
:101680004E475F44415441005A5F50524F4245001B
:1016900052554E4F5554004155544F4C4556454CAC
:1016A000005052494E545F4A4F420050524F4752E9
:1016B000455353004155544F5245504F52545F5477
:1016C000454D5000564F4C554D45545249430045E9
:1016D0004550524F4D0042494E4152595F46494C88
:1016E000455F5452414E534645520053455249417D
:1016F0004C5F584F4E5F584F4646004649524D5733
:101700004152455F4E414D453A4D61726C696E20C4
:10171000322E302E375F4457372E3320426F6E649F
:10172000746563682053454D4442422028417072DD
:1017300020323520323032312030303A33353A30B1
:10174000302920534F555243455F434F44455F5521
:10175000524C3A68747470733A2F2F6769746875C5
:10176000622E636F6D2F496E73616E697479417576
:10177000746F6D6174696F6E2F4D61726C696E2F3D
:10178000747265652F437265616C69747944776919
:101790006E5F322E302050524F544F434F4C5F56A5
:1017A000455253494F4E3A312E30204D414348491E
:1017B0004E455F545950453A4444582043523130C5
:1017C00056322045585452554445525F434F554E6A
:1017D000543A3120555549443A6365646532613263
:1017E000662D343161322D343734382D396231323F
:1017F0002D6335356336326633363766660A0050F8
:10180000726F6265204F6666736574205A0050726D
:101810006F6265204F6666736574205A00290A005E
:1018200020746F20003F5A206F7574206F662072FD
:10183000616E6765202800290A0020746F20003F30
:1018400059206F7574206F662072616E676520285D
:101850002D00290A0020746F20003F58206F7574F6
:10186000206F662072616E676520282D0050726FB0
:101870006265204F666673657420580043616E6E22
:101880006F74206F70656E207375626469722000DA
:101890002569730025696D20256973002569682015
:1018A00025696D20256973002569642025696820F4
:1018B00025696D20256973002569792025696420D3
:1018C0002569682025696D20256973002364656694
:1018D000696E652044454641554C545F006265641D
:1018E000004B6420004B6920004B7020005049449D
:1018F000204175746F74756E652066696E697368D2
:101900006564212050757420746865206C6173745F
:10191000204B702C204B6920616E64204B64206347
:101920006F6E7374616E74732066726F6D20626582
:101930006C6F7720696E746F20436F6E6669677590
:10194000726174696F6E2E680A00504944204175B7
:10195000746F74756E65206661696C6564212074AE
:10196000696D656F75740A00504944204175746F44
:1019700074756E65206661696C6564212054656DBF
:10198000706572617475726520746F6F2068696725
:10199000680A00204B643A2000204B693A2000205E
:1019A0004B703A200020436C617373696320504987
:1019B00044200A00204E6F206F76657273686F6F47
:1019C000740A002054753A2000204B753A200020FC
:1019D0006D61783A2000206D696E3A200020643AEB
:1019E000200020626961733A20005049442041750B
:1019F000746F74756E652073746172740A00504957
:101A000044204175746F74756E65206661696C65FC
:101A100064212054656D70657261747572652074FF
:101A20006F6F20686967680A0050494420417574E7
:101A30006F74756E6500504944204175746F7475FC
:101A40006E65206661696C6564212042616420686E
:101A500065617465722069640A004572723A207586
:101A600074663820666F6E74206E6F7420696E69BC
:101A70007469616C697A65642E004572723A2075EA
:101A800074663820666F6E74206E6F7420696E699C
:101A90007469616C697A65642E004572723A2075CA
:101AA00074663820666F6E74206E6F7420696E697C
:101AB0007469616C697A65642E00000C0F00FE0782
:101AC000022503BB017FFE08FE08FE05080806008C
:101AD0000040F0C88888987810050808060000C003
:101AE000F88888888888F80505050600012030F800
:101AF00030200508080600002070F820202020E093
:101B00000509090600FF2070A8A8B888887020077A
:101B10000505070001D86C366CD80509090600FFD9
:101B2000F8A88888888888A8F8050A0A0600FE2090
:101B30005050505088A8A888700303030600034043
:101B4000A040FFFFFFFFFFFFFFFFFFFFFFFFFFFFC3
:101B5000FFFFFFFFFFFFFFFF0000000605FF01077B
:101B60000706020080808080800080030303060156
:101B700005A0A0A005060606000050F85050F85039
:101B80000509090600FF2070A8A07028A87020058C
:101B90000707060000C8C8102040989805070706E8
:101BA000000040A0A040A890680103030602058041
:101BB00080800309090601FF20404080808040406A
:101BC000200309090601FF8040402020204040807A
:101BD00005070706000020A8702070A8200505054D
:101BE0000600012020F820200203030601FFC04068
:101BF00080050101060003F8020202060100C0C0D0
:101C00000507070600000810102040408005070760
:101C1000060000708898A8C88870030707060100AE
:101C200040C040404040E0050707060000708808BB
:101C3000102040F8050707060000F8081030088853
:101C40007005070706000010305090F810100507C7
:101C500007060000F880F0080888700507070600EE
:101C600000304080F0888870050707060000F808FB
:101C70001010202020050707060000708888708853
:101C800088700507070600007088887808106002D1
:101C90000505060100C0C000C0C00206060601FF1F
:101CA000C0C000C0408003050506010120408040FF
:101CB00020050303060002F800F8030505060101EC
:101CC0008040204080050707060000708810202013
:101CD00000200507070600007088B8A8B8807005C6
:101CE0000707060000708888F888888805070706B7
:101CF0000000F04848704848F005070706000070EB
:101D0000888080808870050707060000F0484848F2
:101D10004848F0050707060000F88080F08080F84A
:101D2000050707060000F88080F08080800507071F
:101D300006000070888080988870050707060000FC
:101D4000888888F8888888030707060100E04040F3
:101D5000404040E0050707060000381010101090C2
:101D6000600507070600008890A0C0A090880507BE
:101D700007060000808080808080F8050707060045
:101D80000088D8A888888888050707060000888802
:101D9000C8A8988888050707060000708888888882
:101DA0008870050707060000F08888F080808005AD
:101DB000070706000070888888A89068050707064E
:101DC0000000F08888F0A0908805070706000070E2
:101DD000888070088870050707060000F82020201A
:101DE00020202005070706000088888888888870DA
:101DF00005070706000088888888505020050707D7
:101E000006000088888888A8A850050707060000F3
:101E10008888502050888805070706000088885069
:101E200020202020050707060000F8081020408029
:101E3000F80309090601FFE080808080808080E04F
:101E4000050707060000804040201010080309091C
:101E50000601FFE020202020202020E005030306CB
:101E600000052050880501010600FEF80303030663
:101E70000105804020050505060000700878887877
:101E80000507070600008080F0888888F0050505B2
:101E900006000070808088700507070600000808AB
:101EA00078888888780505050600007088F08070BD
:101EB000050707060000304840E04040400507079E
:101EC0000600FE70888888780870050707060000FD
:101ED0008080F0888888880307070601004000C0DA
:101EE000404040E00409090601FE100030101010C7
:101EF00010906005070706000080808890E09088B9
:101F0000030707060100C04040404040E0050505CA
:101F1000060000D0A8A8A8A8050505060000B0C8BE
:101F20008888880505050600007088888870050780
:101F3000070600FEF0888888F08080050707060005
:101F4000FE78888888780808050505060000B0C86E
:101F500080808005050506000078807008F0050780
:101F6000070600002020F82020201805050506009F
:101F700000888888986805050506000088888850CC
:101F8000200505050600008888A8A8500505050657
:101F9000000088502050880507070600FE888888C2
:101FA00050204080050505060000F8102040F80389
:101FB00009090601FF2040404080404040200109BF
:101FC000090602FF8080808080808080800309096C
:101FD0000601FF804040402040404080050303064A
:101FE000000248A890FF554E4C4F41442046494CB2
:101FF000414D454E54004C4F41442046494C414DC3
:10200000454E540046494C414D454E5420434841AD
:102010004E47450042656400456E636C6F73757290
:1020200065002568753A25303268750025303268BC
:10203000753A2530326875002020202020202000AD
:1020400020202020001FE020102010201010201041
:10205000202010201030300840048003001FE03F93
:10206000F03FF03FF01FE01FE03FF03FF03FF00F88
:10207000C0078003003FFFF038007030FC3020FCC8
:10208000102078102030102C00D02E31D02F7BD093
:102090002F7BD02E31D02C00D02030102078102073
:1020A000FC1030FC303800703FFFF03FFFF038008C
:1020B000703186302387102787902F87D02F03D049
:1020C0002030102078102078102030102F03D02FCF
:1020D00087D02787902387103186303800703FFFE4
:1020E000F01FFFF81FFFF80410400208200208202C
:1020F0000410400820801041001041000820800496
:1021000010400000001FFFF81FFFF8FFFFFF8000D6
:10211000018E00E19F01F19381399F81F99F81F93F
:102120009FB9F98F28F18038018000019FFFF99154
:1021300074999B06A99B54A99B56A99B54999FFFF0
:10214000F9FFFFFF6E6F74696669636174696F6E92
:10215000200063616E63656C005072696E7420418B
:10216000626F72746564004469736D6973730055BE
:10217000492041626F72746564004D323520500A07
:102180004D323400526573756D65005549205061BC
:102190007573650050617573696E672E2E2E00721F
:1021A0006573756D65004D32340000FE0003FF80DD
:1021B00007C7C00701E00000E00000F00000700465
:1021C00000700E00701F00703F80F00E00E00F01E5
:1021D000E007C7C003FF8000FE0000FE0003FF8091
:1021E00007C7C00F01E00E00E03F80F01F00700E37
:1021F00000700400700000700000F00000E00701B3
:10220000E007C7C003FF8000FE000E000E000E00B6
:102210000E000E000E000E000E007FC03F801F005B
:102220000E00040004000E001F003F807FC00E005F
:102230000E000E000E000E000E000E000E00FFFF3E
:10224000FF7F80FFC0FFC0FFC07F807F80FFC0FF97
:10225000C0FFC03F001E000C0050726F6265205A24
:10226000204F66667365740052756E6F75742044F6
:10227000697374206D6D004C6F6164206D6D005545
:102280006E6C6F6164206D6D0046696C2E20446930
:10229000612E004520696E206D6D5E33004D333038
:1022A0003320553120452569205325690050494484
:1022B000204175746F74756E65202A005049442D55
:1022C00044202A005049442D49202A005049442DD9
:1022D00050202A0020082046616374002008204D09
:1022E0006178002008204D696E004F6666004F6ED1
:1022F000004175746F74656D70005654726176207C
:102300004D696E00566D696E00566D61782045000E
:10231000566D6178205A00566D6178205900566DCF
:102320006178205800416D6178204500416D6178E9
:10233000205A00416D6178205900416D6178205824
:1023400000412D54726176656C00412D52657472A6
:1023500061637400416363656C0056652D4A657264
:102360006B00565A2D4A65726B0056592D4A65729C
:102370006B0056582D4A65726B0050726F62652073
:102380005A204F66667365740050726F62652059FB
:10239000204F66667365740050726F626520582026
:1023A0004F666673657400452073746570732F6D96
:1023B0006D005A2053746570732F6D6D0059205352
:1023C000746570732F6D6D00582053746570732F92
:1023D0006D6D00416476616E63656420536574744D
:1023E000696E6773003F0043616E63656C00496E00
:1023F0006974004D34323800496E697469616C69E2
:102400007A6520454550524F4D0046696C616D65B7
:102410006E740054656D70657261747572650053F9
:10242000746570732F6D6D0050726F6265204F661A
:102430006673657473004A65726B00416363656C13
:1024400065726174696F6E0056656C6F636974794B
:102450000053657420486F6D65204F666673657420
:102460007300436F6E66696775726174696F6E00A1
:102470003F004E65787420506F696E7400446F6E33
:1024800065004E65787400486F6D696E6720585915
:102490005A003F0043616E63656C204F626A65635A
:1024A00074004E4F005945530043616E63656C20C4
:1024B0004F626A656374203D004D61696E0053741C
:1024C0006F770053572D4D6F6465004465706C6FD6
:1024D000790053656C662D5465737400526573659D
:1024E0007400426564004E6F7A7A6C650046616ED6
:1024F00020537065656400436F6E6669677572612D
:1025000074696F6E00526573746F726520446566FE
:1025100061756C7473004C6F6164205365747469E9
:102520006E67730053746F72652053657474696EBF
:1025300067730050726568656174202420436F6E74
:102540006600506F776572204F7574616765004F44
:102550006666004F6E0052756E6F75742053656E1F
:10256000736F7200424C546F7563680050726F62F3
:1025700065205A204F666673657400416476616E0B
:102580006365642053657474696E6773004D616997
:102590006E004D37303220542564004D36303020E7
:1025A000423020542564004D373032203B256400F2
:1025B0004D37303120542564004D373032004D37CF
:1025C0003031004D363030204230004D61696E00B0
:1025D0004F6666004F6E0052756E6F7574205365BE
:1025E0006E736F72005075726765206D6F72650053
:1025F000436F6E74696E756500524553554D4520A5
:102600004F5054494F4E533A005052494E54205067
:1026100041555345440020204E6F7A7A6C653A202C
:10262000005061726B696E672E2E2E00000057619C
:10263000697420666F720066696C616D656E7420E6
:102640006368616E676500746F20737461727400F3
:102650005761697420666F720066696C616D656EA2
:102660007420756E6C6F616400004E6F7A7A6C65D1
:102670002068656174696E6700506C6561736520E0
:10268000776169742E2E2E0000507265737320627C
:102690007574746F6E00746F2068656174206E6F5E
:1026A0007A7A6C650000496E736572742066696C95
:1026B000616D656E7400616E642070726573732065
:1026C000627574746F6E00746F20636F6E74696EE0
:1026D0007565005761697420666F720066696C6188
:1026E0006D656E74206C6F61640000507265737369
:1026F00020427574746F6E00746F20726573756D0F
:1027000065207072696E7400005761697420666F8D
:1027100072207072696E7400746F20726573756DCB
:10272000652E2E2E00005761697420666F72006658
:10273000696C616D656E7420707572676500003E2E
:102740002000256C642E25696D00457874727564CF
:10275000656420546F74616C003E20004C6F6E679E
:10276000657374204A6F622054696D65003E2000D5
:10277000546F74616C205072696E742054696D6579
:1027800000436F6D706C65746564003A2000507290
:10279000696E7420436F756E74003A2000313530D5
:1027A0000035004245443A204154432031303447FB
:1027B000542D320052756E617761792057617463D0
:1027C000683A204F4E004D61782054656D7000339B
:1027D0003135004D696E2054656D7000350045310E
:1027E0003A204154432031303447542D3200505365
:1027F000550047656E657269630050726F746F6350
:102800006F6C00312E30004261756400323530301B
:10281000303000437265616C6974793344205241F1
:102820004D50530042696C696E656172204C65764B
:10283000656C696E670045787472756465727300C3
:1028400031007777772E626F6E64746563682E73DC
:102850006500444458204352313056320032303201
:10286000312D30342D313800322E302E375F445721
:10287000372E33004D61726C696E005072696E7450
:10288000657220537461747300546865726D697366
:10289000746F727300426F61726420496E666F00DC
:1028A0005072696E74657220496E666F004D616981
:1028B0006E004D313030300053746F7020507269AB
:1028C0006E7400526573756D65205072696E740088
:1028D000506F776572204F7574616765004D3139AF
:1028E000305335350A4732380A4732390A4D3430C9
:1028F000300A4D313034533231350A4732380A4DBF
:10290000313039533231350A4D34323053310A4780
:1029100031583130305931303046353030300A4757
:10292000315A300A4D3530300A4D31313720536538
:1029300074205A204F6666736574004D31303653EB
:102940003132380A4D333033433853323135453024
:10295000550A4D3530300A4D313137205049442029
:1029600054756E6520446F6E65004D3139305335B6
:10297000350A4D313034533231350A4732380A473F
:1029800032394C310A4731205831303059313030EA
:1029900046353030300A47315A30004D3530300A34
:1029A0004D3131372053657474696E6773205374E9
:1029B0006F726564005072657020666F72205A20D5
:1029C00041646A757374005049442054756E650003
:1029D00053746F72652053657474696E6773005326
:1029E00065747570004D61696E003F004261636BF4
:1029F0000053746F70005072696E742066726F6D50
:102A0000204D65646961004368616E6765204D65AE
:102A1000646961004D32310041626F7574205072FB
:102A2000696E746572004368616E67652046696C03
:102A3000616D656E74004C6576656C696E672054D7
:102A40006F6F6C7300436F6E66696775726174694E
:102A50006F6E0054656D7065726174757265004DBE
:102A60006F74696F6E00486F737420537461727471
:102A700000526573756D65205072696E74004E6FFB
:102A8000204D656469610043616E63656C204F622F
:102A90006A6563740054756E650053746F702050DE
:102AA00072696E74005061757365205072696E743E
:102AB00000496E666F2053637265656E003F005378
:102AC00074617274205072696E740043616E636544
:102AD0006C005072696E740043616E6E6F74206595
:102AE0006E746572207375626469723A2000022EFA
:102AF0002E004D61696E002100486F74656E642080
:102B0000746F6F20636F6C64004261636B0050727E
:102B10006F6365656400536F667420456E647374FB
:102B20006F7073004D6F74696F6E004469736162FA
:102B30006C65205374657070657273004D38340095
:102B40004D34382050726F626520546573740047AD
:102B500032384F0A4D343820503130004C6576659C
:102B60006C20436F726E6572730046616465204825
:102B70006569676874004F6666004F6E0042656461
:102B8000204C6576656C696E67004C6576656C20D7
:102B9000426564004732394E00486F6D65205A0027
:102BA0004732385A00486F6D65205900473238590E
:102BB00000486F6D652058004732385800417574E1
:102BC0006F20486F6D6500473238004D61696E00B7
:102BD00050726568656174202420456E64005072EF
:102BE00065686561742024204265640054656D70D9
:102BF0006572617475726500436F6F6C646F776E98
:102C0000005072656865617420240046616E20532F
:102C100070656564207E00426564004E6F7A7A6C50
:102C200065004D61696E0050726F6265205A204FD9
:102C3000666673657400466C6F770046616E20535C
:102C400070656564207E00426564004E6F7A7A6C20
:102C500065005370656564004D61696E00486F6D75
:102C6000696E67204661696C6564006F70656E000F
:102C7000545249474745524544003A200066696C22
:102C8000616D656E74007A5F6D696E00795F6D6964
:102C90006E00785F6D696E005265706F7274696E58
:102CA0006720656E6473746F7020737461747573DC
:102CB0000A0020746F6F206C6F6E672065787472E5
:102CC0007573696F6E2070726576656E7465640ADF
:102CD0000020636F6C6420657874727573696F6E21
:102CE0002070726576656E7465640A00486F6D6564
:102CF000202573257325732046697273740057610C
:102D0000726E696E673A20486F6D696E6720427512
:102D10006D702044697669736F72203C20310A001F
:102D2000020204000000000000000000000000009B
:102D3000809D4300009B430000C843000000410009
:102D400000004100000040FFFFFF00000001000004
:102D5000000100008000555555000000400033334D
:102D60003300AAAA2A004992240000002000C7715B
:102D70001C0099991900D1451700555515003BB114
:102D800013002449120011111100000010000F0F50
:102D90000F00E3380E0043790D00CCCC0C00C3309B
:102DA0000C00E8A20B0064210B00AAAA0A00703DE7
:102DB0000A009DD80900427B090092240900DCD357
:102DC0000800888808001042080000000800F0C1D0
:102DD00007008787070075500700711C07003EEB4E
:102DE0000600A1BC06006990060066660600703EFB
:102DF00006006118060017F4050074D105005BB0E9
:102E00000500B2900500627205005555050078393D
:102E10000500B81E0500050505004EEC040087D42A
:102E20000400A1BD040090A7040049920400C17DE4
:102E30000400EE690400C7560400444404005C32F8
:102E400004000821040041100400000004003FF0C9
:102E50000300F8E0030026D20300C3C30300CCB58F
:102E600003003AA803000A9B0300388E0300C081C8
:102E700003009F750300D0690300505E03001D53DB
:102E8000030034480300913D030033330300162947
:102E90000300381F030097150300300C03000303E1
:102EA00003000BFA020049F10200BAE802005CE0FC
:102EB00002002DD802002DD0020059C80200B0C077
:102EC000020031B90200DAB10200AAAA0200A0A3EE
:102ED0000200BC9C0200FA9502005C8F0200DF88B1
:102EE000020082820200457C0200277602002770E1
:102EF0000200436A02007C640200D05E02003F5977
:102F00000200C8530200FFFDFCFAF8F6F4F2F0EEFE
:102F1000ECEAE9E7E5E3E1E0DEDCDAD9D7D5D4D2C3
:102F2000D0CFCDCBCAC8C7C5C3C2C0BFBDBCBAB95C
:102F3000B7B6B4B3B2B0AFADACAAA9A8A6A5A4A2C7
:102F4000A1A09E9D9C9A99989795949392908F8E0C
:102F50008D8B8A8988878684838281807F7E7D7B32
:102F60007A797877767574737271706F6E6D6C6B39
:102F70006A696867666564636261605F5E5D5C5B29
:102F80005A5958585756555453525150504F4E4D08
:102F90004C4B4A4A494847464645444342424140D1
:102FA0003F3E3E3D3C3B3B3A393838373635353489
:102FB0003332323130302F2E2E2D2C2B2B2A292933
:102FC00028272726252524232322212120201F1ED0
:102FD0001E1D1C1C1B1B1A1919181817161615155F
:102FE00014131312121111100F0F0E0E0D0D0C0CE5
:102FF0000B0A0A0909080807070606050504040361
:1030000003020201000000809D4300009B4300007A
:10301000C8430000000000000000000000005365ED
:103020007474696E67732053746F726564004545EC
:1030300050524F4D20496E697469616C697A6564BC
:103040000A003B20003A0A0020204D363033200091
:1030500020440020204D34313220530046696C61F9
:103060006D656E742072756E6F75742073656E7306
:103070006F723A002055004C0046696C616D656EB8
:1030800074206C6F61642F756E6C6F6164206C6569
:103090006E677468733A0020204D3835312058002F
:1030A0005A2D50726F6265204F66667365740020FA
:1030B000204D343133205300506F7765722D4C6FA3
:1030C0007373205265636F766572793A002044000D
:1030D00020490020204D333034205000204400206F
:1030E000490020204D333031205000504944207396
:1030F000657474696E67733A0020460020480020AA
:10310000204D3134352053004D6174657269616C16
:103110002068656174757020706172616D65746599
:1031200072733A00204A0020204732392057204944
:103130000020204D3432302053004175746F2042FE
:103140006564204C6576656C696E673A0020204D99
:10315000323036205800486F6D65206F66667365A3
:10316000743A0020580020530020204D3230352082
:103170004200416476616E6365643A20423C6D6949
:103180006E5F7365676D656E745F74696D655F759D
:10319000733E20533C6D696E5F6665656472617451
:1031A000653E20543C6D696E5F74726176656C5F3C
:1031B00066656564726174653E20583C6D61785F38
:1031C000785F6A65726B3E20593C6D61785F795F0C
:1031D0006A65726B3E205A3C6D61785F7A5F6A6502
:1031E000726B3E20453C6D61785F655F6A65726B0E
:1031F0003E0020540020520020204D323034205018
:1032000000416363656C65726174696F6E20287537
:103210006E6974732F7332293A20503C7072696E54
:10322000745F616363656C3E20523C7265747261C9
:1032300063745F616363656C3E20543C74726176B5
:10324000656C5F616363656C3E0020204D323031F8
:103250002058004D6178696D756D20416363656C20
:1032600065726174696F6E2028756E6974732F734F
:1032700032293A0020204D3230332058004D6178F9
:10328000696D756D2066656564726174657320286B
:10329000756E6974732F73293A00537465707320C7
:1032A00070657220756E69743A0020440020204DCC
:1032B0003230302053002044697361626C65640AC7
:1032C0000046696C616D656E742073657474696E17
:1032D00067733A0020204D3134392043203B20557C
:1032E0006E69747320696E2043656C736975730A27
:1032F0000020286D6D290020204732312020202019
:103300003B20556E69747320696E206D6D0000005E
:10331000FA430000FA4300002041000096420000FA
:10332000A0420000A0420000C8430080CF43DC055B
:103330000000DC050000640000004B00000024F4E5
:10334000D43050C38E20C2A24017828B7011127AE3
:10335000910D816CD90AA861E108C75866076151CF
:1033600043061E4B5D05C145A7041A411104093DE2
:103370009803713931034036DB0265339102D43052
:103380005402802E1D02632CEE01752AC501B0285F
:10339000A001102781018F2564012B244B01E0221D
:1033A0003401AC211F018D200D01801FFC00841E03
:1033B000ED00971DDF00B81CD200E61BC600201BE5
:1033C000BC00641AB200B219A8000A19A0006A1859
:1033D0009900D117910040178B00B5168400311663
:1033E0007E00B31579003A157300C7146F005814A6
:1033F0006A00EE1366008813630025135E00C7128F
:103400005B006C12570015125400C111510070116D
:103410004F0021114B00D61049008D104700461077
:10342000440002104200C00F4000800F3E00420FD7
:103430003C00060F3B00CB0E3800930E37005C0EAD
:103440003500270E3400F30D3200C10D3100900D10
:103450003000600D2E00320D2D00050D2C00D90C12
:103460002B00AE0C2900850C29005C0C2700350CC4
:1034700027000E0C2600E80B2400C40B2400A00B30
:1034800023007D0B23005A0B2100390B2100180B60
:103490002000F80A1F00D90A1E00BB0A1E009D0A60
:1034A0001D00800A1D00630A1C00470A1B002C0A2D
:1034B0001B00110A1A00F7091A00DD091900C409D6
:1034C0001900AB091900920917007B09180063095C
:1034D00017004C09160036091600200916000A09C3
:1034E0001500F5081500E0081400CC081400B80811
:1034F0001400A4081400900813007D0812006B0843
:10350000130058081200460812003408110023085E
:1035100011001208110001081100F0071000E00767
:103520001000D0071000C0071000B0070F00A1075F
:10353000100091070E0083070F0074070F00650746
:103540000E0057070E0049070E003B070D002E071F
:103550000E0020070D0013070D0006070D00F906E9
:103560000C00ED060D00E0060C00D4060C00C806A9
:103570000C00BC060C00B0060C00A4060B0099065B
:103580000C008D060B0082060B0077060B006C0604
:103590000B0061060A0057060B004C060A004206A3
:1035A0000A0038060A002E060A0024060A001A0637
:1035B0000A001006090007060A00FD050900F405C7
:1035C0000900EB050900E2050900D9050900D0054D
:1035D0000900C7050900BE050900B5050800AD05CD
:1035E0000800A50509009C050800940508008C0545
:1035F0000800840508007C050800740508006C05B7
:103600000700650508005D050700560508004E0522
:103610000700470507004005080038050700310589
:1036200007002A050700230507001C0506001605EC
:1036300007000F0507000805060002050700FB0448
:103640000600F5040700EE040600E8040600E204A4
:103650000700DB040600D5040600CF040600C904F9
:103660000600C3040600BD040600B7040600B1044A
:103670000500AC040600A6040600A00405009B0497
:10368000060095040500900406008A0405008504E0
:103690000500800406007A04050075040500700426
:1036A00005006B04050066040500610405005C0468
:1036B000050057040500520405004D0405004804A8
:1036C0000500430405003E0404003A0405003504E7
:1036D0000500300404002C04050027040400230422
:1036E00005001E0404001A04040016040500110459
:1036F00004000D040400090405000404040000048F
:103700000400FC030400F8030400F4030400F003C5
:103710000400EC030400E8030400E4030400E003F5
:103720000400DC030400D8030400D4030400D00325
:103730000400CC030400C8030300C503030024F401
:1037400004D9201BC40C5C0E9804C4095F026507F1
:103750007101F405F900FB04B30048048700C103BC
:1037600069005803550003034500BE023A00840275
:10377000310053022A002902250004022000E4013E
:103780001C00C8011900AF01170098011400840142
:103790001300710110006101100051010E0043017E
:1037A0000D0036010B002B010B0020010B00150151
:1037B00009000C01090003010800FB000800F300E8
:1037C0000800EB000700E4000600DE000600D80059
:1037D0000600D2000600CC000500C7000500C200AC
:1037E0000500BD000400B9000400B5000400B100EC
:1037F0000400AD000400A9000400A5000300A2001D
:1038000003009F0004009B00030098000300950044
:10381000020093000300900003008D0002008B0063
:10382000030088000200860002008400030081007B
:1038300002007F0002007D0002007B000200790090
:10384000020077000100760002007400020072009E
:103850000100710002006F0002006D0001006C00A9
:1038600002006A00010069000200670001006600B2
:1038700001006500010064000200620001006100B7
:103880000100600001005F0002005D0001005C00BB
:1038900001005B0001005A000100590001005800BE
:1038A00001005700010056000100550001005400BE
:1038B00001005300000053000100520001005100BC
:1038C0000100500001004F0001004E0000004E00BA
:1038D00001004D0001004C0001004B0000004B00B6
:1038E00001004A00010049000100480000004800B2
:1038F00001004700010046000000460001004500AD
:1039000000004500010044000100430000004300A6
:10391000010042000000420001004100000041009F
:103920000100400001003F0000003F0001003E0098
:1039300000003E0001003D0000003D0001003C0091
:1039400000003C0000003C0001003B0000003B0088
:1039500001003A0000003A0001003900000039007F
:103960000100380000003800000038000100370076
:10397000000037000100360000003600000036006D
:103980000100350000003500000035000100340062
:103990000000340000003400010033000000330058
:1039A000000033000100320000003200000032004D
:1039B0000100310000003100000031000100300042
:1039C000000030000000300001002F0000002F0038
:1039D00000002F0000002F0001002E0000002E002C
:1039E00000002E0001002D0000002D0000002D0021
:1039F00000002D0001002C0000002C0000002C0015
:103A000000002C0001002B0000002B0000002B0008
:103A100000002B0001002A0000002A0000002A00FC
:103A200000002A00010029000000290000002900F0
:103A300000002900000029000100280000002800E3
:103A400000002800000028000000280001002700D6
:103A500000002700000027000000270000002700CA
:103A600001002600000026000000260000002600BD
:103A700000002600010025000000250000002500B0
:103A800000002500000025000000250001002400A2
:103A90000000240000002400000024000000240096
:103AA0000100230000002300000023000000230089
:103AB000000023000000230000002300010022007A
:103AC000000022000000220000002200000022006E
:103AD0000000220001002100000021000000210060
:103AE0000000210000002100000021000000210052
:103AF0000100200000002000000020000000200045
:103B00000000200000002000000020000000200035
:103B100001001F0000001F0000001F0000001F0028
:103B200000001F0000001F0000001F0001001E0019
:103B300000001E0000001E0000001E0000003930C2
:103B400000003325000087190000B00F0000DB08DB
:103B50000000BD040000740200003F01000020438B
:103B60006F756E7420583A004265640045310062FA
:103B70006564002C2073797374656D2073746F70A5
:103B800070656421204865617465725F49443A201C
:103B90000048656174696E67204661696C65640000
:103BA00048656174696E67206661696C6564004D83
:103BB0003131322053687574646F776E0054484514
:103BC000524D414C2052554E415741590054686561
:103BD000726D616C2052756E617761790045727209
:103BE0003A204D415854454D50004D415854454D93
:103BF0005020747269676765726564004572723A35
:103C0000204D494E54454D50004D494E54454D5060
:103C10002074726967676572656400202F00204216
:103C2000403A0020403A0020573A0020573A0049D5
:103C30006E76616C69642065787472756465720A69
:103C4000007C3C3E5E2B3D3F2F5B5D3B2C2A225C83
:103C50000043616E6E6F74206F70656E20737562C5
:103C60006469722000534420496E6974204661697A
:103C70006C0053442063617264206F6B0A006F70A4
:103C8000656E526F6F74206661696C65640A0076B8
:103C90006F6C756D652E696E6974206661696C65FF
:103CA000640A004E6F20534420636172640A000A64
:103CB0004D3234004D3233202573004142530050C1
:103CC0004C41002E0A006F70656E206661696C655C
:103CD000642C2046696C653A200046696C65207347
:103CE000656C65637465640A002053697A653A20DF
:103CF0000046696C65206F70656E65643A2000450A
:103D00004E4420535542524F5554494E450A0022C5
:103D100020706F73002220706172656E743A220009
:103D2000535542524F5554494E452043414C4C2027
:103D30007461726765743A220053756263616C6CDA
:103D4000204F766572666C6F7700457863656564B1
:103D50006564206D617820535542524F5554494E49
:103D6000452064657074683A002E0A0044656C65ED
:103D700074696F6E206661696C65642C2046696C9D
:103D8000653A200046696C652064656C65746564FD
:103D90003A005344207072696E74696E67206279CC
:103DA000746520004E6F74205344207072696E74E5
:103DB000696E670A002F6175746F25632E6700575F
:103DC000726974696E6720746F2066696C653A2049
:103DD00000667265736800646F696E6700206669CB
:103DE0006C653A20004E6F77200002000000000052
:103DF00000000000000000000000000000000000C3
:103E000000000000000000000000000000000000B2
:103E100000000000000000000000000000000000A2
:103E20000000000000000000000000000000000092
:103E30000000000000000000000000000000000082
:103E40000000000000000000000000000000000072
:103E50000000000000000000000000000000000062
:103E60000000000000000000000000000000000052
:103E70000000000000000000000000000000000042
:103E80000000000000000000000000000000000032
:103E90000000000000000000000000000000000022
:103EA00000000000000000000000000003FFF00020
:103EB0000000000000000000000000001FFFE00004
:103EC0000000000000000000000000003FC07C0077
:103ED0000000000000000000000000007C0FFF80D8
:103EE000000000000000000000000000F87FFFE07C
:103EF000000000000000000000000001F0FFFF785B
:103F0000000000000000000000000001E1FFFFBC15
:103F1000001FFF83FFE1F00E3FFF0001E3FFFFEE14
:103F2000001FFFC7FFF1F80E3FFFC001C3FF8FF76F
:103F3000001E03CF0071FC0E3C03E001C3FE01FB39
:103F4000801E03CE0079DE0E3C01E001C7FC007D3F
:103F5000C01FFF8E0079CF0E3C01E001C7FC003E80
:103F6000E01FFFCE0079C7CE3C01E001E7FC001F57
:103F7000701E01CE0079C1EE3C01E001E7FC000FAC
:103F8000B81E01CF0079C0FE3C01E000E3FC000751
:103F9000F81FFFC7FFF1C07E3FFFC000F3FC000722
:103FA000DC1FFF87FFE1C03E3FFF800073FE000380
:103FB000EC0FF800FF00000C1FF0000071FE000382
:103FC000EE000000000000000000000039FF0003C8
:103FD000F6000000000000000000000618FF80034B
:103FE000F700000000000000000000071CFFC003F5
:103FF000F71FFFDFFF1FFE1C01C000030E7FE0075D
:10400000F31FFFDFFF3FFF1C01C00001863FF807E1
:10401000FB00701C0038079C01C00001C33FFFFF7C
:10402000FB00701C0038039C01C00000F39FFFFFE1
:10403000FB00701FFF38001FFFC00000798FFFFFDB
:10404000F780701FFF38001FFFC000007CC7FFFF14
:10405000F780701C0038079C01C000003F01FFFF83
:10406000ED80701C0038079C01C000001FE0FFFFBE
:10407000ED80701FFF3FFF1C01C000001FF03FFFDD
:10408000CD00701FFF1FFE1C01C000000FFC0FFFC2
:104090001D000000000000000000000007FE01FC01
:1040A0001B000000000000000000000003FF800073
:1040B0003B000000000000000000000001FFF000D5
:1040C000FB000000000000000000000000FFFFFFF8
:1040D000F00000000000000000000000003FFFFFB3
:1040E000E00000000000000000000000001FFFFFD3
:1040F000C000000000000000000000000007FFFFFB
:104100008000000000000000000000000001FFFF30
:1041100000000000000000000000000000003FF868
:10412000000000000000000000000000000000008F
:10413000000000000000000000000000000000007F
:10414000000000000000000000000000000000006F
:10415000000000000000000000000000000000005F
:10416000000000000000000000000000000000004F
:10417000000000000000000000000000000000003F
:10418000000000000000000000000000000000002F
:10419000000000000000000000000000000000001F
:1041A000000000000000000000000000000000000F
:1041B00000000000000000000000000000000000FF
:1041C00000000000000000000000000000000000EF
:1041D00000000000000000000000000000000000DF
:1041E00000000000000000000000006D61726C69BA
:1041F0006E66772E6F726700322E302E375F44570F
:10420000372E33001FFFFFFFFFFFFF60000000009D
:1042100001FF400000000000FF8000000000007F60
:1042200083CF00000C303F87FF80000C301F867961
:1042300080000C000F8C30C7838C30E78C30CFC7E8
:10424000CC31F38C30DCECEC33B98C30D86C6C3383
:10425000198C30D06C0C33198C30D86C0C33198C11
:1042600030DC6C0E3B198C30CF7C079F198C30C72B
:104270007C038F1940000000000002600000000075
:1042800000061FFFFFFFFFFFF81000C90210012CFE
:10429000014001220170011801B0010E01F001047A
:1042A000015002FA00B002F0003003E600D003DC57
:1042B000009004D2007005C800A006BE000008B43B
:1042C00000B009AA00D00BA000600E960060118C0F
:1042D000000015820020197800C01D6E00A0226425
:1042E00000B0275A00902C500000314600E0343CCA
:1042F0000010383200903A2800603C1E00A03D14A7
:1043000000803E0A00203F00002020506C616E6E4D
:10431000657242756666657242797465733A20000B
:104320002046726565204D656D6F72793A200043B5
:104330006F6D70696C65643A20417072203235206F
:10434000323032310A00204C617374205570646140
:104350007465643A20323032312D30342D313820BA
:104360007C20417574686F723A20426F6E64746588
:104370006368202F20496E73616E6974794175748A
:104380006F6D6174696F6E0A00322E302E375F4494
:1043900057372E330A004D61726C696E0020536FDF
:1043A0006674776172652052657365740A002057E0
:1043B00061746368646F672052657365740A0020D6
:1043C00042726F776E206F75742052657365740A40
:1043D000002045787465726E616C20526573657457
:1043E0000A00506F77657255700A007374617274B9
:1043F0000A004732385859004D313030310065726B
:10440000726F722077726974696E6720746F2066AC
:10441000696C650A00446F6E6520736176696E672A
:104420002066696C652E0A004D323900456E647352
:10443000746F707300255320256320256320256346
:1044400020256300205A3A0020593A0020583A00AB
:10445000656E6473746F7073206869743A2000002D
:10446000000A0B02090C0D0E0807030401000000EE
:10447000000000000000000000000000000000003C
:1044800000000000000000000000001211100000F9
:10449000000000000000000000000000000000001C
:1044A0000000000000004D6F76652025736D6D00E3
:1044B0004D6F766520302E316D6D004D6F76652025
:1044C000316D6D004D6F76652031306D6D004D6F33
:1044D00076652041786973004578747275646572F9
:1044E000004D6F7665205A004D6F76652059004D5E
:1044F0006F7665205800BF3CBB3C4368616E6765C2
:104500002046696C616D656E7400556E6C6F6164F8
:104510002046696C616D656E74004C6F6164204665
:10452000696C616D656E74005072656865617420B8
:10453000437573746F6D00507265686561742024F3
:10454000004261636B0050726F62696E6720466162
:10455000696C656400205A3A200020593A200042D4
:10456000656420583A200073686F77006275747430
:104570006F6E00626567696E0044697361626C65A5
:1045800052756E6F75740050757267654D6F726508
:104590000050617573656400436F6E74696E756574
:1045A000004C6F61642046696C616D656E742054C7
:1045B00000496E736572742066696C616D656E7416
:1045C00020616E642073656E64204D3130380A00BE
:1045D000220A00556E6B6E6F776E20636F6D6D6192
:1045E0006E643A2022002042002050006F6B00448D
:1045F0004458204352313056322052656164792E3E
:10460000005072696E74696E672E2E2E00507269AA
:104610006E742050617573656400204500205A0057
:10462000205900204D393220580020453A00205AA8
:104630003A0020593A00583A0020746F6F206C6F8E
:104640006E6720657874727573696F6E207072651D
:1046500076656E7465640A0020636F6C642065780B
:1046600074727573696F6E2070726576656E7465AD
:10467000640A00526573656E643A20006E6F746957
:104680006669636174696F6E200000002200250076
:1046900028002B002E00310034000201000005012B
:1046A00008010B0100002100240027002A002D0032
:1046B0003000330001010000040107010A01050573
:1046C0000505070508080808020202020A0A080888
:1046D00004040404010101010101010103030303B6
:1046E00003030303040707070C0C0C0C0C0C0C0C45
:1046F0000202020206060606060606060B0B0B0B56
:104700000B0B0B0B0102102020080810204010207A
:104710004080020102010804020101020408102085
:104720004080804020100804020180040201804083
:1047300020100804020108040201010204081020EC
:10474000408001020408102040801E027A011124DA
:104750001FBECFEFD1E2DEBFCDBF00E00CBF13E044
:10476000A0E0B2E0ECE7F9EE02E00BBF02C0079078
:104770000D92AC38B107D9F728E1ACE8B3E001C03D
:104780001D92AF39B207E1F713E2C6EAD3E200E0C7
:1047900006C021970109802FFE010F941471C53ABC
:1047A000D10780E00807A9F70F94555F0D94AC740A
:1047B0000C940000FC0184910895FC01808108950F
:1047C0001198000000009091020187FD9095917072
:1047D00090930001119A0000000000000000119861
:1047E000000000009091020186FD909591709093D9
:1047F0000001119A00000000000000001198000064
:1048000000009091020185FD9095917090930001B8
:10481000119A000000000000000011980000000044
:104820009091020184FD9095917090930001119AEE
:1048300000000000000000001198000000009091AE
:10484000020183FD9095917090930001119A0000F0
:10485000000000000000119800000000909102018B
:1048600082FD9095917090930001119A00000000D4
:10487000000000001198000000009091020181FDED
:104880009095917090930001119A00000000000033
:104890000000119800000000809102018170809357
:1048A0000001119A0000000000000000089590E04F
:1048B00080E00895CF93DF93DB01F9019C91913063
:1048C000C1F0943080F094509C938830D1F4808172
:1048D0009181009771F0019791838083480F591F50
:1048E000EA01188206C08C3539F49C5F9C939430A1
:1048F00041F4DF91CF9108958B3339F781E08C93A8
:10490000F8CF20813181B9016F5F7F4F7183608360
:10491000420F531FEA018883808191818F35910571
:104920006CF7E7CF0F931F9381E0009190161091E1
:104930009116209192163091931640918C165091B9
:104940008D1660918E1670918F1604171507260725
:10495000370708F480E01F910F91089590E080E000
:104960000895282F9091CB08833021F495FD0FC036
:1049700094FD0FC0892F90E0B0E0A0E004C0B69590
:10498000A795979587952A95D2F78170089581E02C
:10499000089580E00895CF92DF92EF92FF92CF9337
:1049A000DF93EC01CC80DD80EE80FF8027E137EBE8
:1049B00041ED58EBC701B6010F947D7387FD23C00D
:1049C00023E030E04BE953E4C701B6010F942B6AB2
:1049D0001816CCF0C880D980EA80FB8027E137EB3D
:1049E00041ED58EBC701B6010F947D7387FD0BC0F5
:1049F000C1E023E030E84DE953E4C701B6010F946C
:104A00002B6A18160CF4C0E08C2FDF91CF91FF9029
:104A1000EF90DF90CF9008952F923F924F925F9248
:104A20006F927F928F929F92AF92BF92CF92DF92BE
:104A3000EF92FF920F931F93CF93DF93CDB7DEB723
:104A40002E970FB6F894DEBF0FBECDBFE82ED62E40
:104A5000042F122F282F30E03C872B87462F50E061
:104A60005A87498765E0F62EF29EC001F39E900DAD
:104A700011249E878D87FA01E80FF91FEE0FFF1FA3
:104A8000EE0FFF1FE25FF94F608171818281938198
:104A90009B01AC010F940F74882309F434C1E00E1C
:104AA000612F6D0DFE9CF0011124A985BA85AE0F12
:104AB000BF1FAA0FBB1FAA0FBB1FA25FB94FAC90AD
:104AC0001196BC9011971296CC9012971396DC9089
:104AD000E00EFE9CA0011124A985BA85A40FB51F84
:104AE000AA0FBB1FAA0FBB1FA25FB94FEC90119674
:104AF000FC90119712960C91129713969C90862F0A
:104B000090E0AD85BE85A80FB91FAA0FBB1FAA0FE5
:104B1000BB1FA25FB94F8C9011967C901197129693
:104B20006C90129713965C90610F70E0AD85BE8516
:104B3000A60FB71FAA0FBB1FAA0FBB1FA25FB94FBB
:104B40004C9011963C90119712961C9112971396C7
:104B50002C90E80FF91FEE0FFF1FEE0FFF1FE25F13
:104B6000F94FB081B98321812A8332813B838381CC
:104B70008C83FA01E60FF71FEE0FFF1FEE0FFF1FEA
:104B8000E25FF94F90819D83A181AE83B281BF83A3
:104B9000238128879701402F592DB701802F992D08
:104BA0000F940F74882321F0E12CF12C00E0912C5C
:104BB0009501A601B501C6010F940F74882319F061
:104BC0005701C02ED92C242D332D412F522D642D69
:104BD000732D812F922D0F940F74882321F0412C77
:104BE000312C10E0212C282D372D462D552D682DE8
:104BF000772D862D952D0F940F74882321F0842C0A
:104C0000732C612E522C2D813E814F8158856D81F0
:104C10007E818F8198850F940F74882321F01D82E7
:104C20001E821F82188629813A814B815C816981AD
:104C30007A818B819C810F940F74882341F03D8190
:104C400039834E814A835F815B8388858C8385E0CD
:104C5000EB85FC858E9FD0018F9FB00D1124298597
:104C60003A85A20FB31FAA0FBB1FAA0FBB1FA25FDB
:104C7000B94FBA87A9879501A601B501C6010F945E
:104C80001D719701402F592D0F941C716B017C01F0
:104C9000282D372D462D552D682D772D862D952DB8
:104CA0000F941D71242D332D412F522D0F941C7103
:104CB0009B01AC01C701B6010F941D716B017C0112
:104CC00029813A814B815C8169817A818B819C81C8
:104CD0000F941D712D813E814F8158850F941C7159
:104CE0009B01AC01C701B6010F941D7120E030E0BB
:104CF00040E450E40F941772A985BA856D937D93B3
:104D00008D939C9313972E960FB6F894DEBF0FBE2B
:104D1000CDBFDF91CF911F910F91FF90EF90DF906A
:104D2000CF90BF90AF909F908F907F906F905F904B
:104D30004F903F902F9008951092AE0880915902A5
:104D400090915A02A0915B02B0915C028093870619
:104D500090938806A0938906B0938A060895129AC4
:104D60000895269A2E9A0895AF92BF92CF92DF921D
:104D7000EF92FF920F931F93CF93DF936B01E901A3
:104D80004A3009F4C1C0453109F073C0DB01129605
:104D9000ED91FC91F280C681D781809102018095CE
:104DA00082708093000188E28A950000E9F7BF2CA9
:104DB000B29420EFB22230E1A32EAF0C48E2E42EF1
:104DC00088EF0E94E0238E2D8A950000E9F7BFE16D
:104DD000BF1508F485C08F2D807780680E94E0237E
:104DE0008B2D0E94E0238E2D8A950000E9F780E844
:104DF0000E94E02380E00E94E0238E2D8A9500002F
:104E0000E9F78AEF0E94E0238E2D8A950000E9F7EA
:104E10008E01005F1F4F8881807F0E94E02389916F
:104E20008295807F0E94E023C017D107A1F78E2DC5
:104E30008A950000E9F7F394E0E1BE0EFA10C0CFC6
:104E400080910201827080930001D6011296CD916B
:104E5000DC91CE010F942254811147C2DF91CF9192
:104E60001F910F91FF90EF90DF90CF90BF90AF9088
:104E70000895FB0102811381423309F4F1C108F462
:104E8000F5C1463409F4E2C1473409F4E5C14B33B6
:104E900029F589812B81D80112966C91129713966E
:104EA0004C91213009F438C2233009F002C238EFA6
:104EB000380F582F91E0431708F490E041E0531762
:104EC00008F040E031E0561708F430E0592F542B39
:104ED000352309F016C2942309F013C281E0BECF36
:104EE00080EE8F0D8068807F0E94E0238F2D829559
:104EF000807F0E94E0238E2D8A950000E9F780E8EC
:104F00000E94E02380E877CF809101018260809346
:104F10000101809102018270809300018091010162
:104F20008160809301018091020181708093000172
:104F3000099A119A809102018095827080930001F4
:104F400088E28A950000E9F788E790E0CEE9DFE0A3
:104F5000FE013197F1F70197D9F788EF0E94E0231E
:104F600018E2812F8A950000E9F780E20E94E02391
:104F700080E00E94E023812F8A950000E9F780E01D
:104F80000E94E02380E80E94E023812F8A950000A0
:104F9000E9F780E00E94E02380E10E94E023812F76
:104FA0008A950000E9F7CE010197F1F7CE0101974C
:104FB000F1F7CE010197F1F7CE010197F1F7CE019C
:104FC0000197F1F7CE010197F1F7CE010197F1F7C3
:104FD000CE010197F1F7CE010197F1F7CE010197CC
:104FE000F1F7CE010197F1F7CE010197F1F7CE016C
:104FF0000197F1F7CE010197F1F72197F1F780E2E0
:105000000E94E02380E40E94E023812F8A95000023
:10501000E9F780E20E94E02380E60E94E0231A95EF
:105020000000E9F710E0D0E0C8E28D2F80778068BB
:105030000E94E023812F0E94E0238C2F8A9500009C
:10504000E9F780E80E94E02380E00E94E0238C2FB3
:105050008A950000E9F78AEF0E94E0238C2F8A9559
:105060000000E9F790E21198000000008091020131
:10507000817080930001119A000000000000000080
:10508000119800000000809102018170809300015E
:10509000119A0000000000000000119800000000BC
:1050A00080910201817080930001119A000000003C
:1050B0000000000011980000000080910201817042
:1050C00080930001119A0000000000000000119878
:1050D0000000000080910201817080930001119A0C
:1050E0000000000000000000119800000000809106
:1050F0000201817080930001119A000000000000FD
:1051000000001198000000008091020181708093DE
:105110000001119A0000000000000000119800003A
:10512000000080910201817080930001119A0000BB
:1051300000000000000011980000000080910201B2
:10514000817080930001119A0000000000000000AF
:10515000119800000000809102018170809300018D
:10516000119A0000000000000000119800000000EB
:1051700080910201817080930001119A000000006B
:105180000000000011980000000080910201817071
:1051900080930001119A00000000000000001198A7
:1051A0000000000080910201817080930001119A3B
:1051B0000000000000000000119800000000809135
:1051C0000201817080930001119A0000000000002C
:1051D000000011980000000080910201817080930E
:1051E0000001119A0000000000000000119800006A
:1051F000000080910201817080930001119A0000EB
:105200000000000000008C2F8A950000E9F7915003
:1052100009F029CF88EF0E94E0238C2F8A950000A7
:10522000E9F7DF5F105FD03209F0FFCE80E00E9427
:10523000E02380EC0E94E023CA950000E9F780910A
:10524000020182708093000181E008CED80115969A
:105250008C91888381E002CEF80181818883FACF26
:10526000B901C8010F943F5481E0F8CD443171F089
:10527000473109F033CE1882F80182818983858114
:1052800081508A8383818B8381E0E8CDD801159694
:105290004C91159750E0440F551F70E060E0169652
:1052A0008D919C910F944D74C8010F94385481E0F6
:1052B000D5CD481708F412CE861708F40FCEFA8021
:1052C000E12CD12C243070F41DC0BE01C8010F9414
:1052D0003F54898198819D0D98838E0D8983FF0CA1
:1052E00009F4FCCDF7FEF6CFF0CF4D8150E0440F2E
:1052F000551F70E060E08E819F810F944D7481E0B6
:10530000ADCDFA8030E0F901E554FD4FD08029544D
:105310003D4FF901E080E6CF58E0580F382FCACD55
:10532000EF92FF920F931F93CF93DF93EC018B01CA
:105330007A018A859B858617970731F08881998144
:105340000F9418561B870A87B701888199810F949B
:105350006C472E813F81820F932F911D9F838E83F7
:1053600090E080E0DF91CF911F910F91FF90EF903F
:1053700008959F92AF92BF92CF92DF92EF92FF92E9
:105380000F931F93CF93DF93EC018B01942EA52EE7
:105390008A859B858617970731F0888199810F94BC
:1053A00018561B870A8788859985019649F5BC8020
:1053B0000A818E81080FC880D980D6015596ED915B
:1053C000FC91C6011995B80EE92CFA2C10E0F701F2
:1053D00021917F01211127C08E819F81810F911D15
:1053E0009F838E8390E080E0DF91CF911F910F919A
:1053F000FF90EF90DF90CF90BF90AF909F90089577
:105400000E811F81692D7A2D888199810F946C47B7
:10541000800F912F911D288539852817390738F677
:1054200081E090E0E1CF4B2D602FC6010F947056C4
:10543000080F180FCCCFDF92EF92FF920F931F93BC
:10544000CF93DF93EC01D62E1CAD0BAD7C0184E035
:10545000E80EF11CE98DFA8DC7011995412F480F0F
:105460002D2D602FC7010F9470569BAD890F8BAF08
:1054700081E090E0DF91CF911F910F91FF90EF902D
:10548000DF900895AB01BC014093901650939116A4
:10549000609392167093931689EF97E10C94EDE563
:1054A00080932F028032B8F590915405891724F02B
:1054B00091E0980F909354054091500550915105FB
:1054C0006091520570915305082E04C0769567953A
:1054D000579547950A94D2F741704093141087FD71
:1054E0001DC0282F082E000C330B3F938F938AE6A4
:1054F0009AE09F938F938AE79AE09F938F931F92EE
:105500000E940ACB8DB79EB707960FB6F8949EBF40
:105510000FBE8DBF089510921410E1CF0D94364345
:105520000F931F93CF93DF9300D01F92CDB7DEB7B9
:105530009C0105E918E090E1E1ECF9E0D801019067
:105540000D929A95E1F7F9012081318142815381D1
:10555000F80160857185828593850F941D71F8012E
:10556000608771878287938780E090E0A0EAB0E44B
:1055700089839A83AB83BC83CE0101960F94D80FA5
:105580000F900F900F900F90DF91CF911F910F917F
:1055900008952F923F924F925F926F927F928F92D7
:1055A0009F92AF92BF92CF92DF92EF92FF921F93A2
:1055B000CF93DF93CDB7DEB72C970FB6F894DEBF4D
:1055C0000FBECDBF7A011901DC012D913D914D91A6
:1055D0005C912D833E834F835887FB01408051802F
:1055E000628073808090C1099090C209A090C30925
:1055F000B090C409A50194016D817E818F81988549
:105600000F942B6A81110EC011E0A30192016091E9
:10561000C5097091C6098091C7099091C8090F9476
:105620002B6A811110E0D1012D913D914D915C913A
:1056300029873A874B875C87F701C080D180E28059
:10564000F380209113023091140240911502509181
:105650001602C701B6010F942B6A882309F44EC0C5
:10566000C0921302D0921402E0921502F092160238
:105670008091CD099091CE09A091CF09B091D00928
:105680004091C5095091C6096091C7097091C80938
:105690008092950890929608A0929708B0929808E8
:1056A0004093990850939A0860939B0870939C08C4
:1056B000C0929D08D0929E08E0929F08F092A008A8
:1056C0008093A1089093A208A093A308B093A40884
:1056D00020E030E040E05FE36091421070914310C1
:1056E00080914410909145100F94916A69837A8358
:1056F0008B839C83CE0101960F94D80F2D813E8120
:105700004F815885209395083093960840939708C9
:10571000509398084092990850929A0860929B087A
:1057200070929C08D1012D913D914D915C916091B9
:10573000A1087091A2088091A3089091A4080F94E9
:105740001D716093A1087093A2088093A3089093A1
:10575000A40811112FC020E030E0A90169857A85E5
:105760008B859C850F942B6A811133C060E070E0BB
:1057700088EC92E469837A838B839C83CE010196C3
:105780000F94D80F2C960FB6F894DEBF0FBECDBF86
:10579000DF91CF911F91FF90EF90DF90CF90BF905E
:1057A000AF909F908F907F906F905F904F903F90C1
:1057B0002F9008952AEF3EE74AE25FE3609146109A
:1057C0007091471080914810909149100F94916A00
:1057D000D1CF60E070E080EA91E4CCCFCF93DF934B
:1057E00000D01F92CDB7DEB780E090E0A0EAB0E431
:1057F00089839A83AB83BC8361E0CE0101960F94C9
:10580000DB070F900F900F900F90DF91CF910895CD
:105810008091120590911305009731F04AE050E015
:1058200070E060E00D94466860E070E0CB010895A0
:105830008091D50982FF0BC063E686E59BE00E945C
:1058400025CB0F942C4E0E9425D281E0089580E054
:1058500008958091120590911305009731F04AE068
:1058600050E070E060E00D94186760E070E0CB01FC
:1058700008950E94292C97FD0CC00E94292C6F3F8F
:1058800071058105910509F034F40E94292C862FB9
:10589000089580E008958FEF08958091120590910A
:1058A0001305892B41F00E94392C91E0811101C030
:1058B00090E0892F089591E0FCCFCF92DF92EF9294
:1058C000FF920F931F93CF93DF936B017A01EC014B
:1058D000C256DB4F28813CE0389F8001399F100D74
:1058E000112427FF24C0FB011182108288818F5F61
:1058F000888388819801280F311D87FD3A95C90159
:1059000020910D16F6012817190629F024F0888138
:105910008C300CF43CC080819181049680349C4989
:1059200008F475C0F60180819181049672C0888167
:105930009801280F311D87FD3A95C90120910D1658
:105940002817190699F294F28881A801480F511D71
:1059500087FD5A95FA01EE0FFF1FE40FF51FEB5379
:10596000FA4E808187FFC2CF8881F801E80FF11DD0
:1059700087FDFA95CF01EE0FFF1FE80FF91FEB53DC
:10598000FA4E808160E08F770F945E4CAFCF8081BC
:1059900091812881A801420F511D27FD5A959A0136
:1059A000FA01EE0FFF1FE20FF31FEB53FA4E2181B6
:1059B0003281820F931FF701918380838881980140
:1059C000280F311D87FD3A95F901EE0FFF1FE20FF9
:1059D000F31FEB53FA4E808187FF20C08881080FA8
:1059E000111D87FD1A95F801EE0FFF1FE00FF11F43
:1059F000EB53FA4E808161E08F77DF91CF911F9159
:105A00000F91FF90EF90DF90CF900D945E4C80E46B
:105A10009CE9F701918380838FEF8883DF91CF9199
:105A20001F910F91FF90EF90DF90CF900895AF926C
:105A3000BF92CF92DF92EF92FF920F931F93CF937B
:105A4000DF93EC015B018A01FB01199587FD16C00C
:105A5000C82ED12CF12CE12C2196F801C082D182E4
:105A6000E282F382CE01DF91CF911F910F91FF90DF
:105A7000EF90DF90CF90BF90AF900895982F907ED9
:105A8000903CA9F48F7190E0B0E0A0E06C017D0142
:105A900056E0CC0CDD1CEE1CFF1C5A95D1F7CE0154
:105AA0000196F50119958F73C82A2296D6CF982FA3
:105AB000907F903E11F58F7090E0B0E0A0E06C0117
:105AC0007D0136E0CC0CDD1CEE1CFF1C3A95D1F7B5
:105AD000CE010196F50119958F73C82A46E0CC0CCA
