:100000000C945E210C948F210C948F210C948F21E1
:100010000C948F210C948F210C948F210C948F21A0
:100020000C948F210C948F210C948F210C948F2190
:100030000C948F210D944B380C948F210C948F21AC
:100040000C948F210C949AD80C948F210C948F21AE
:100050000C948F210C948F210C9461D50D94013850
:100060000C948F210C948E4C0C94844C0C948F2106
:100070000C948F210C948F210C948F210C948F2140
:100080000C948F210C948F210C948F210C948F2130
:100090000C948F210C948F210C948F210C948F2120
:1000A0000C948F210C948F210C948F210C948F2110
:1000B0000C948F210C948F210C948F210C948F2100
:1000C0000C948F210C948F210C948F210C948F21F0
:1000D0000C948F210C948F210C948F210C948F21E0
:1000E0000C948F21084AD73B3BCE016E84BCBFFDE8
:1000F000C12F3D6C74319ABD56833DDA3D00C77FF8
:1001000011BED9E4BB4C3E916BAAAABE0000008090
:100110003F05A84CCDB2D44EB93836A9020C50B91F
:10012000918688083CA6AAAA2ABE000000803F004B
:100130000C948C7F0C9454850C94007B0C94FB4C99
:100140000C9431B00C94524D0C94DEC80C94618622
:100150000C9484C30C9464860C9457A70D9442327B
:100160000C94E9830C945D850C948F780C947E79C3
:100170000C941FB00C9467820C94FAC90D946D31E5
:100180000C94117D0C9449B00D94F1310C941C7FAA
:100190000C9479BD0D9486310C940D7D0C94EB7804
:1001A0000C94817D0D9479310C94F77A0C9401B004
:1001B0000C94D87A0C943DC90C94C4810C94384D9D
:1001C0000C94079F0C94244D0C94194D0C949A2276
:1001D0000D9424320D9479320D9471310C94BDC874
:1001E0000C940F7D0C945EBC0C9491210C9494960D
:1001F0000C9422C90C9413B00D9420130C9499B351
:100200000D948C310C9435340C940A4D0C94669DED
:100210000C94D0810C942BB00C944FBD0D942E32C5
:100220000D947F130C94B3820C94C1790C946B865B
:100230000C9455860C9499760C94B0810C9453B020
:100240000C944AB10C94C67E0C94BC810C94BBC92E
:100250000D9483320C9471860C94FE820C94E5828A
:100260000C949EA00D9481440C948FB30C94C4CA3A
:100270000C9404790C94AA790C945AC50C945B865E
:100280000C9443B00C9477820D945B310C94887A73
:100290000C949F250D94A2310C94A38E0C9425B040
:1002A0000C94304D0D9465320C94EFBC0C9407C443
:1002B0000C9494B30C94A3380C9442990D9451323D
:1002C0000C948C830C94767B0C947DBC0C942A79D2
:1002D0000D945B320C940DB00C94FB7A0C94942129
:1002E0000C940A980C940E220C947F820C94617BDF
:1002F0000C94097D0D9482310C94187F0C946B76CC
:100300000C9474970D941C320C94D4810C94388303
:100310000D942E440C9452860C94A8780C94CA86A2
:100320000C9488A80C943DB00C94878D0C944A4D85
:100330000C9419B00D949F440C9476250C945C7920
:100340000C940F7B0C948B7B0C9469860C94178314
:100350000C94248C0D9456310C94344D0C94C47C24
:100360000C94E47A0C947A7C0C9482220C94EF79AD
:100370000C9459830C941F9A0C94F97A0C9428C805
:100380000C9407B00C940B7D0C94204D0C94D0BCB5
:100390000C948E760C9446890C946E860D94AC3138
:1003A0000C9445910C94057D0C94737B0C94297CE2
:1003B0000D940A320C944C850C94C1780C9470A264
:1003C0000D9400320D94A8310C94D8790C94BB7C18
:1003D0000C94707B0D9414320C942BB40C9430BD9F
:1003E0000C940A950C94147F0C9417790C94C0818A
:1003F0000D9476140D947C310C949EB30C9445C8E6
:100400000D946F320C9458860C9484B70D949E31E1
:100410000C94B6B30C946B790C94A9980C940126A7
:100420000C942C4D0C94B4810C94947B0C94AA8461
:100430000C943F4D0C94907B0C94119F0C94CDC95F
:100440000D9490310C940A7B0C94B8810C94E58641
:100450000C9406C40D944D130C9422830C94D07804
:100460000C94CC810C94797B0C945E860C94477B25
:100470000C94077D0D949A310C94A9C70C9437B055
:100480000C94057B0C9408930C94909B0C94067A26
:100490000C94037D0C94CF7A0C9468850C946FA512
:1004A0000D9475310D94F6310C94D8760C94198B0B
:1004B0000C94CC820C940CAD0C9443790D9438328E
:1004C0000C94CC4C0C9444860C9491790D949431FA
:1004D0000C94A3830C9446850C94C8810C9465B449
:1004E0000C94284D0C94F1760C94FF760C94BA7E03
:1004F0000D94E9310C94C7860C946B7C0C944F8658
:100500004E414E494E495459494E46CDCCCC3D0AF8
:10051000D7233C17B7D13877CC2B329595E6241FDB
:10052000B14F0A000020410000C84200401C462094
:10053000BCBE4CCA1B0E5AAEC59D7400407A10F367
:100540005A00A0724E18090010A5D4E80000E87601
:1005500048170000E40B54020000CA9A3B00000058
:10056000E1F505000080969800000040420F000071
:1005700000A08601000000102700000000E8030032
:100580000000006400000000000A000000000001FC
:1005900000000000002C76D888DC674F0823DFC1FC
:1005A000DFAE59E1B1B796E5E3E453C63AE65199B7
:1005B0007696E8E6C28426EB898C9B62ED407C6FE0
:1005C000FCEFBC9C9F40F2BAA56FA5F490055A2A97
:1005D000F75C936B6CF9676DC11BFCE0E40D47FEA3
:1005E000F520E6B500D0ED902E0300943577050098
:1005F00080841E080000204E0A000000C80C33331F
:1006000033330F986E12831141EF8D2114893BE62D
:100610005516CFFEE6DB18D1844B381BF77C1D90B6
:100620001DA4BBE424203284725E228100C9F1241F
:10063000ECA1E53D27434F4D4D554E4943415449AB
:100640004F4E0044525952554E004552524F52534C
:1006500000494E464F004543484F004572726F7245
:100660002077726974696E6720746F204545505217
:100670004F4D210A0053544F505045442E200050F6
:1006800072696E7465722073746F70706564206433
:10069000756520746F206572726F72732E204669C3
:1006A0007820746865206572726F7220616E6420B4
:1006B000757365204D39393920746F2072657374F4
:1006C0006172742E202854656D7065726174757244
:1006D000652069732072657365742E2053657420DC
:1006E00069742061667465722072657374617274D6
:1006F000696E67290A004E6F20436865636B7375E6
:100700006D2077697468206C696E65206E756D6206
:1007100065722C204C617374204C696E653A200020
:100720004E6F20436865636B73756D2077697468DD
:10073000206C696E65206E756D6265722C204C614F
:100740007374204C696E653A2000636865636B734F
:10075000756D206D69736D617463682C204C6173D5
:1007600074204C696E653A20004C696E65204E75A8
:100770006D626572206973206E6F74204C617374B2
:10078000204C696E65204E756D6265722B312C2090
:100790004C617374204C696E653A20004D313130E4
:1007A0000053657269616C20737461747573206D98
:1007B00069736D617463680A00776169740A005334
:1007C000442072656164206572726F720A00486F1E
:1007D00074656E642049646C652054696D656F753D
:1007E0007400486F74656E642049646C65205469B8
:1007F0006D656F75740A002121204B494C4C2063B4
:100800006175736564206279204B494C4C20627598
:1008100074746F6E2F70696E0A002121204B494C51
:100820004C2063617573656420627920746F6F205A
:100830006D75636820696E6163746976652074699B
:100840006D65202D2063757272656E7420636F6D07
:100850006D616E643A20007061757365004D3630CD
:1008600030002066696C616D656E745F72756E6FC5
:100870007574200066696C616D656E745F72756E6B
:100880006F757420540046696C616D656E745275A5
:100890006E6F75742054004D656469612052656DFA
:1008A0006F766564004D6564696120496E73657299
:1008B000746564004D313030305300627573793A9D
:1008C0002070617573656420666F7220696E707543
:1008D000740A00627573793A2070617573656420DB
:1008E000666F7220757365720A00627573793A20BB
:1008F00070726F63657373696E670A00506C65612F
:100900007365205265736574005052494E544552C8
:100910002048414C5445440025533A20255300704B
:100920006F7765726F6666004B494C4C45442E20CC
:10093000005072696E7465722068616C7465642E13
:10094000206B696C6C28292063616C6C6564210ADA
:10095000006563686F3A004572726F723A000A4D23
:100960006561737572656420706F696E74733A0A9D
:1009700000357835206D6573682E205A206F6666C5
:100980007365743A20005072696E74696E67204F07
:10099000626A656374002553202569002F2F616307
:1009A00074696F6E3A0073746172740070726F6D67
:1009B00070745F00656E6400486F74656E642074C7
:1009C0006F6F20636F6C640A0053656E64204D3155
:1009D000303820746F20726573756D650A00496E3A
:1009E000736572742066696C616D656E7420616EEA
:1009F000642073656E64204D3130380A005265689A
:100A000065617420446F6E65005265686561746944
:100A10006E672E2E2E005265686561740048656110
:100A20007465722054696D656F75740053656E64EA
:100A3000204D31303820746F2068656174206E6FEE
:100A40007A7A6C650A004E6F7A7A6C652050617212
:100A50006B656400706175736564005061757365E2
:100A600000726573756D656400526573756D696EAE
:100A700067004732362043616E63656C65640047EA
:100A800032362048656174696E67204E6F7A7A6CE1
:100A900065004732362048656174696E672042659B
:100AA000640057616974696E6720666F72206865BB
:100AB000617475702E0A004669786564204C656E15
:100AC000677468205072696D6500446F6E652050D0
:100AD00072696D696E67004D616E75616C20707230
:100AE000696D696E672E2E2E004C656176696E67A2
:100AF00020473236003F537065636966696564203C
:100B0000582C5920636F6F7264696E617465206F31
:100B10007574206F6620626F756E64732E0A003FD5
:100B200028522965706561742076616C7565206E48
:100B30006F7420706C61757369626C653B206D75B4
:100B40007374206265206174206C65617374203158
:100B50002E0A003F537065636966696564206E6F95
:100B60007A7A6C652074656D7065726174757265F2
:100B7000206E6F7420706C61757369626C652E0AEB
:100B8000003F5370656369666965642066696C61DE
:100B90006D656E742073697A65206E6F7420706C59
:100BA00061757369626C652E0A003F5370656369F5
:100BB00066696564207072696D65206C656E677426
:100BC00068206E6F7420706C61757369626C652E3D
:100BD0000A003F537065636966696564206E6F7AC9
:100BE0007A6C652073697A65206E6F7420706C6111
:100BF000757369626C652E0A003F52657472616399
:100C000074696F6E204D756C7469706C69657220C3
:100C10006D757374206265207370656369666965BC
:100C2000642E0A003F5370656369666965642052EB
:100C3000657472616374696F6E204D756C74697050
:100C40006C696572206E6F7420706C617573696277
:100C50006C652E0A003F53706563696669656420A0
:100C60006C6179657220686569676874206E6F745D
:100C700020706C61757369626C652E0A0043292EC1
:100C80000A003F5370656369666965642062656444
:100C90002074656D7065726174757265206E6F7415
:100CA00020706C61757369626C65202834302D008A
:100CB000473236207374617274696E672E2E2E0A65
:100CC000004F46460A0046616465204865696768CA
:100CD000742000426564204C6576656C696E6720FF
:100CE000004661696C656420746F20656E61626C9A
:100CF0006520426564204C6576656C696E670A0004
:100D00004D65736820426564204C6576656C20648F
:100D10006174613A0A00496E76616C6964206D65A0
:100D200073682E0A00206E6F7420656E746572659C
:100D3000642E0A0050726F62696E6720506F696E90
:100D4000740025532025692F256900206F66200037
:100D50004D424C2047323920706F696E7420002953
:100D60000A004A206F7574206F662072616E676595
:100D70002028302D00290A0049206F7574206F66E5
:100D80002072616E67652028302D004732384C3064
:100D9000004D6573682070726F62696E6720646FC2
:100DA0006E65004D6573682070726F62696E6720B2
:100DB000646F6E652E0A005374617274206D6573E2
:100DC000682070726F62696E67207769746820228C
:100DD000473239205331222066697273742E0A001B
:100DE0004732395332004732384C300A4732395390
:100DF0003200686173206E6F20646174612E0A0096
:100E00004D65736820426564204C6576656C696E3B
:100E100067200053206F7574206F662072616E67C3
:100E2000652028302D35292E0A004D657368207005
:100E30006F696E74206F7574206F662072616E67C3
:100E4000650A004D34323120696E636F72726563DA
:100E50007420706172616D6574657220757361676D
:100E6000650A004F4646004F4E0020204D61783AFB
:100E70002000200020204D696E3A2000536F6674D8
:100E800020656E6473746F70733A20004D323420A5
:100E900053256C642054256C64004739322E392068
:100EA00045257300473120462564004739322E39E5
:100EB000205A2573004731205A3020463230300006
:100EC0004731205825732059257320463330303060
:100ED000004D34323020532569205A2573004D319E
:100EE00030362050256920532569004D323030209E
:100EF0004425730047323852305859004739322E52
:100F000039204530205A300A47315A2573004D3177
:100F1000303920532569004D31393020532569007F
:100F20004D343230205330205A300020496E7661E3
:100F30006C6964206578747275646572200047324C
:100F40002F47332062616420706172616D65746542
:100F500072730A00536C6565702E2E2E004D6573FA
:100F60006820706F696E74206F7574206F662072D0
:100F7000616E67650A004D302053746F70004D310B
:100F80002053746F7000436C69636B20746F205240
:100F90006573756D652E2E2E004E6F204D6F766534
:100FA0002E00456E642066696C65206C6973740A56
:100FB00000426567696E2066696C65206C697374B0
:100FC0000A004E6F206D656469610A005265737591
:100FD0006D696E6720534400286E6F2066696C65EA
:100FE000290043757272656E742066696C653A20DB
:100FF000005072696E742074696D653A20000A535E
:10100000746174733A2046696C616D656E74207505
:101010007365643A20002C204C6F6E6765737420F2
:101020006A6F623A2000546F74616C2074696D6558
:101030003A200053746174733A20002C2046616991
:101040006C65643A20002C2046696E69736865649B
:101050003A20005072696E74733A200053746174C0
:10106000733A2000436F6F6C696E672E2E2E004816
:10107000656174696E672E2E2E0045202553006F22
:101080006B006F666600560651064A064306350633
:1010900044454255473A004D3131332053004265B3
:1010A0006420436F6F6C696E672E2E2E004265645C
:1010B0002048656174696E672E2E2E0044445820C6
:1010C000435231305632204F46462E002F2F004DCE
:1010D00031343520533C696E6465783E206F7574F9
:1010E000206F662072616E67652028302D31290AD5
:1010F00000205200416363656C65726174696F6EB4
:101100003A2050005741524E494E4721204C6F77AC
:10111000205A204A65726B206D6179206C6561648C
:1011200020746F20756E77616E74656420706175D0
:101130007365732E0A004D32303620580046523AFD
:101140000020466C6F773A20004D424C2041646A83
:10115000757374205A0020643A0020693A002070A8
:101160003A00496E76616C696420657874727564C2
:1011700065720A0020643A0020693A0020703A0043
:1011800064697300656E0043290A0061626C6564DE
:1011900020286D696E2074656D702000436F6C644B
:1011A00020657874727564657320617265200046ED
:1011B000696C616D656E742072756E6F75742064F4
:1011C000697374616E636520286D6D293A2000464D
:1011D000696C616D656E742072756E6F7574200038
:1011E0004F666673657473204170706C6965640046
:1011F0004572723A20546F6F206661722100546FFD
:101200006F206661722066726F6D2072656665720E
:10121000656E636520706F696E740A0045455052B3
:101220004F4D204F4B0A00506F7765722D6C6F73D6
:1012300073207265636F7665727920004D383400D3
:10124000446F6E65207072696E74696E672066699E
:101250006C650A004D3737004D3331004361703AF9
:10126000004D4541545041434B00434F4F4C455274
:101270005F54454D504552415455524500434841F5
:101280004D4245525F54454D50455241545552458B
:1012900000424142595354455050494E4700415233
:1012A0004353004D4F54494F4E5F4D4F44455300FB
:1012B000544845524D414C5F50524F544543544958
:1012C0004F4E004C4F4E475F46494C454E414D45B1
:1012D000004155544F5245504F52545F53445F5351
:1012E00054415455530053445F575249544500529A
:1012F0004550454154005344434152440050524FDD
:101300004D50545F535550504F525400454D455227
:1013100047454E43595F5041525345520043415354
:10132000455F4C494748545F4252494748544E45EF
:10133000535300544F47474C455F4C49474854531B
:1013400000534F4654574152455F504F5745520046
:101350004255494C445F50455243454E54004C451C
:1013600056454C494E475F44415441005A5F5052E4
:101370004F42450052554E4F5554004155544F4C25
:101380004556454C005052494E545F4A4F4200501A
:10139000524F4752455353004155544F5245504FB9
:1013A00052545F54454D5000564F4C554D45545284
:1013B000494300454550524F4D0042494E41525914
:1013C0005F46494C455F5452414E53464552005387
:1013D000455249414C5F584F4E5F584F4646004674
:1013E00049524D574152455F4E414D453A4D61720C
:1013F0006C696E20322E302E375F4457372E3320E3
:10140000426F6E64746563682053534D444E4E20A2
:101410002841707220323520323032312030303A5B
:1014200032363A35342920534F555243455F434FA6
:1014300044455F55524C3A68747470733A2F2F6765
:1014400069746875622E636F6D2F496E73616E6982
:1014500074794175746F6D6174696F6E2F4D61722F
:101460006C696E2F747265652F437265616C697467
:10147000794477696E5F322E302050524F544F437B
:101480004F4C5F56455253494F4E3A312E30204D06
:10149000414348494E455F545950453A44445820C9
:1014A0004352313056322045585452554445525FCC
:1014B000434F554E543A3120555549443A6365647B
:1014C00065326132662D343161322D343734382D36
:1014D000396231322D6335356336326633363766DD
:1014E000660A0043616E6E6F74206F70656E2073C4
:1014F000756264697220002569730025696D202575
:101500006973002569682025696D202569730025A8
:101510006964202569682025696D20256973002587
:10152000697920256964202569682025696D202551
:1015300069730023646566696E65204445464155BC
:101540004C545F00626564004B6420004B692000CE
:101550004B702000504944204175746F74756E655E
:101560002066696E69736865642120507574207403
:101570006865206C617374204B702C204B6920616E
:101580006E64204B6420636F6E7374616E7473209D
:1015900066726F6D2062656C6F7720696E746F2064
:1015A000436F6E66696775726174696F6E2E680A43
:1015B00000504944204175746F74756E65206661F2
:1015C000696C6564212074696D656F75740A0050DB
:1015D0004944204175746F74756E65206661696C4D
:1015E0006564212054656D70657261747572652043
:1015F000746F6F20686967680A00204B643A2000A6
:10160000204B693A2000204B703A200020436C6147
:101610007373696320504944200A00204E6F206F85
:1016200076657273686F6F740A002054753A2000F3
:10163000204B753A2000206D61783A2000206D69BA
:101640006E3A200020643A200020626961733A20DB
:1016500000504944204175746F74756E6520737431
:101660006172740A00504944204175746F74756E3C
:1016700065206661696C6564212054656D706572D2
:10168000617475726520746F6F20686967680A00FD
:10169000504944204175746F74756E65005049441B
:1016A000204175746F74756E65206661696C656440
:1016B0002120426164206865617465722069640A52
:1016C000004572723A207574663820666F6E742019
:1016D0006E6F7420696E697469616C697A65642ED5
:1016E000004572723A207574663820666F6E7420F9
:1016F0006E6F7420696E697469616C697A65642EB5
:10170000004572723A207574663820666F6E7420D8
:101710006E6F7420696E697469616C697A65642E94
:1017200000000C0F00FE07022503BB017FFE08FE30
:1017300008FE05080806000040F0C8888898781060
:10174000050808060000C0F88888888888F805051C
:10175000050600012030F8302005080806000020AA
:1017600070F820202020E00509090600FF2070A85D
:10177000A8B888887020070505070001D86C366C6A
:10178000D80509090600FFF8A88888888888A8F87D
:10179000050A0A0600FE205050505088A8A88870FC
:1017A00003030306000340A040FFFFFFFFFFFFFF0E
:1017B000FFFFFFFFFFFFFFFFFFFFFFFFFFFFFF0038
:1017C00000000605FF010707060200808080808078
:1017D0000080030303060105A0A0A005060606007D
:1017E0000050F85050F8500509090600FF2070A875
:1017F000A07028A87020050707060000C8C81020A0
:1018000040989805070706000040A0A040A89068EF
:101810000103030602058080800309090601FF20F9
:1018200040408080804040200309090601FF80403D
:101830004020202040408005070706000020A870B7
:101840002070A8200505050600012020F8202002B0
:1018500003030601FFC04080050101060003F802F2
:101860000202060100C0C0050707060000081010AC
:1018700020404080050707060000708898A8C888A7
:101880007003070706010040C040404040E00507E4
:1018900007060000708808102040F80507070600BA
:1018A00000F808103008887005070706000010309F
:1018B0005090F81010050707060000F880F008089F
:1018C0008870050707060000304080F088887005A2
:1018D0000707060000F8081010202020050707065B
:1018E00000007088887088887005070706000070FF
:1018F000888878081060020505060100C0C000C095
:10190000C00206060601FFC0C000C04080030505F6
:101910000601012040804020050303060002F80074
:10192000F8030505060101804020408005070706F1
:1019300000007088102020002005070706000070B6
:1019400088B8A8B88070050707060000708888F876
:10195000888888050707060000F04848704848F066
:1019600005070706000070888080808870050707DB
:10197000060000F04848484848F005070706000000
:10198000F88080F08080F8050707060000F8808066
:10199000F0808080050707060000708880809888A6
:1019A00070050707060000888888F888888803077C
:1019B00007060100E04040404040E0050707060000
:1019C000003810101010906005070706000088907E
:1019D000A0C0A09088050707060000808080808056
:1019E00080F805070706000088D8A8888888880539
:1019F00007070600008888C8A89888880507070692
:101A0000000070888888888870050707060000F045
:101A10008888F08080800507070600007088888825
:101A2000A89068050707060000F08888F0A0908855
:101A30000507070600007088807008887005070792
:101A4000060000F8202020202020050707060000BF
:101A50008888888888887005070706000088888835
:101A60008850502005070706000088888888A8A8A5
:101A70005005070706000088885020508888050711
:101A80000706000088885020202020050707060050
:101A900000F80810204080F80309090601FFE080E3
:101AA000808080808080E00507070600008040403D
:101AB000201010080309090601FFE0202020202043
:101AC0002020E005030306000520508805010106DB
:101AD00000FEF80303030601058040200505050606
:101AE000000070087888780507070600008080F0FD
:101AF000888888F0050505060000708080887005DC
:101B00000707060000080878888888780505050614
:101B100000007088F080700507070600003048401C
:101B2000E04040400507070600FE70888888780876
:101B3000700507070600008080F088888888030702
:101B4000070601004000C0404040E00409090601CA
:101B5000FE100030101010109060050707060000FE
:101B600080808890E09088030707060100C040400D
:101B7000404040E0050505060000D0A8A8A8A8053B
:101B80000505060000B0C888888805050506000020
:101B900070888888700507070600FEF0888888F03E
:101BA00080800507070600FE788888887808080581
:101BB0000505060000B0C880808005050506000008
:101BC00078807008F00507070600002020F8202024
:101BD0002018050505060000888888986805050511
:101BE00006000088888850200505050600008888C2
:101BF000A8A8500505050600008850205088050754
:101C0000070600FE888888502040800505050600EC
:101C100000F8102040F80309090601FF2040404069
:101C200080404040200109090602FF8080808080BA
:101C3000808080800309090601FF804040402040E9
:101C400040408005030306000248A890FF554E4C13
:101C50004F41442046494C414D454E54004C4F4164
:101C6000442046494C414D454E540046494C414D57
:101C7000454E54204348414E474500426564004567
:101C80006E636C6F73757265002568753A25303226
:101C900068750025303268753A2530326875002045
:101CA0002020202020200020202020001FE02010C5
:101CB000201020101020102020102010303008405C
:101CC000048003001FE03FF03FF03FF01FE01FE003
:101CD0003FF03FF03FF00FC0078003003FFFF038B8
:101CE000007030FC3020FC102078102030102C00C8
:101CF000D02E31D02F7BD02F7BD02E31D02C00D0C6
:101D000020301020781020FC1030FC303800703F5C
:101D1000FFF03FFFF03800703186302387102787AF
:101D2000902F87D02F03D0203010207810207810EB
:101D30002030102F03D02F87D02787902387103192
:101D400086303800703FFFF01FFFF81FFFF80410C7
:101D500040020820020820041040082080104100A2
:101D60001041000820800410400000001FFFF81FF1
:101D7000FFF8FFFFFF8000018E00E19F01F19381DA
:101D8000399F81F99F81F99FB9F98F28F180380136
:101D90008000019FFFF99174999B06A99B54A99B10
:101DA00056A99B54999FFFF9FFFFFF6E6F746966F8
:101DB00069636174696F6E200063616E63656C00B6
:101DC0005072696E742041626F7274656400446978
:101DD000736D6973730055492041626F7274656455
:101DE000004D323520500A4D323400526573756D06
:101DF00065005549205061757365005061757369C0
:101E00006E672E2E2E00726573756D65004D32342F
:101E10000052756E6F75742044697374206D6D0087
:101E20004C6F6164206D6D00556E6C6F6164206D48
:101E30006D0046696C2E204469612E004520696E54
:101E4000206D6D5E33004D333033205531204525F4
:101E5000692053256900504944204175746F747599
:101E60006E65202A005049442D44202A00504944E0
:101E70002D49202A005049442D50202A00200820B6
:101E800046616374002008204D6178002008204DD1
:101E9000696E004F6666004F6E004175746F746521
:101EA0006D70005654726176204D696E00566D69F2
:101EB0006E00566D6178204500566D6178205A009D
:101EC000566D6178205900566D6178205800416D3B
:101ED0006178204500416D6178205A00416D61783C
:101EE000205900416D6178205800412D547261766F
:101EF000656C00412D5265747261637400416363C7
:101F0000656C0056652D4A65726B00565A2D4A6500
:101F1000726B0056592D4A65726B0056582D4A65F2
:101F2000726B00452073746570732F6D6D005A20BD
:101F300053746570732F6D6D005920537465707301
:101F40002F6D6D00582053746570732F6D6D0041B7
:101F50006476616E6365642053657474696E67733B
:101F6000003F0043616E63656C00496E6974004D0B
:101F700034323800496E697469616C697A6520454C
:101F80004550524F4D0046696C616D656E7400544A
:101F9000656D7065726174757265005374657073F8
:101FA0002F6D6D004A65726B00416363656C6572ED
:101FB0006174696F6E0056656C6F63697479005364
:101FC000657420486F6D65204F6666736574730095
:101FD000436F6E66696775726174696F6E003F006A
:101FE0004E65787420506F696E7400446F6E6500A2
:101FF0004E657874004C6576656C696E6720446F39
:102000006E6521004D6F7665205A00473239533294
:10201000004E65787420506F696E74002569202F1A
:102020002025750047323953310047323953320089
:10203000436C69636B20746F20426567696E00486A
:102040006F6D696E672058595A005A2056616C7539
:102050006500496E646578205900496E6465782092
:10206000580053746F72652053657474696E67739A
:10207000004C6F61642053657474696E6773004C23
:102080006576656C20436F726E657273004265649D
:10209000205A004661646520486569676874004F8E
:1020A0006666004F6E00426564204C6576656C691B
:1020B0006E670045646974204D657368004C6576F1
:1020C000656C20426564004D6F74696F6E003F005F
:1020D00043616E63656C204F626A656374004E4FA6
:1020E000005945530043616E63656C204F626A6519
:1020F0006374203D004D61696E00426564004E6F5F
:102100007A7A6C650046616E2053706565640043A1
:102110006F6E66696775726174696F6E0052657380
:10212000746F72652044656661756C7473004C6FE2
:1021300061642053657474696E67730053746F72C1
:10214000652053657474696E6773005072656865C5
:102150006174202420436F6E6600506F7765722093
:102160004F7574616765004F6666004F6E0052756B
:102170006E6F75742053656E736F72004164766183
:102180006E6365642053657474696E6773004D6196
:10219000696E004D37303220542564004D363030A2
:1021A00020423020542564004D373032203B2564D6
:1021B000004D37303120542564004D373032004D0A
:1021C000373031004D363030204230004D61696E7D
:1021D00000436F6E74696E7565004F6666004F6EE2
:1021E0000052756E6F75742053656E736F72005078
:1021F00075726765206D6F726500524553554D4588
:10220000204F5054494F4E533A005052494E54209B
:102210005041555345440020204E6F7A7A6C653A00
:1022200020005061726B696E672E2E2E00000057E1
:1022300061697420666F720066696C616D656E74A9
:10224000206368616E676500746F207374617274D7
:10225000005761697420666F720066696C616D6514
:102260006E7420756E6C6F616400004E6F7A7A6CCC
:10227000652068656174696E6700506C656173659F
:1022800020776169742E2E2E0000507265737320C2
:10229000627574746F6E00746F2068656174206E6F
:1022A0006F7A7A6C650000496E7365727420666996
:1022B0006C616D656E7400616E642070726573731D
:1022C00020627574746F6E00746F20636F6E746932
:1022D0006E7565005761697420666F720066696C7F
:1022E000616D656E74206C6F61640000507265737F
:1022F0007320427574746F6E00746F20726573750D
:102300006D65207072696E74000057616974206693
:102310006F72207072696E7400746F2072657375CD
:102320006D652E2E2E00005761697420666F720055
:1023300066696C616D656E7420707572676500000A
:102340003E2000256C642E25696D004578747275F9
:1023500064656420546F74616C003E20004C6F6EA5
:1023600067657374204A6F622054696D65003E2072
:1023700000546F74616C205072696E742054696DE2
:102380006500436F6D706C65746564003A200050A1
:1023900072696E7420436F756E74003A2000313597
:1023A000300035004245443A204154432031303416
:1023B00047542D320052756E6177617920576174F0
:1023C00063683A204F4E004D61782054656D70006F
:1023D000333135004D696E2054656D700035004510
:1023E000313A204550434F53203130304B00505349
:1023F000550047656E657269630050726F746F6354
:102400006F6C00312E30004261756400323530301F
:10241000303000437265616C6974793344205241F5
:102420004D5053004D657368204C6576656C696E40
:102430006700457874727564657273003100777750
:10244000772E626F6E64746563682E736500444412
:10245000582043523130563200323032312D303430
:102460002D313800322E302E375F4457372E33004F
:102470004D61726C696E005072696E7465722053A2
:102480007461747300546865726D6973746F7273EC
:1024900000426F61726420496E666F005072696E0F
:1024A00074657220496E666F004D61696E004D3132
:1024B0003030300053746F70205072696E74005267
:1024C0006573756D65205072696E7400506F776525
:1024D00072204F7574616765003F004261636B0055
:1024E00053746F70005072696E742066726F6D2045
:1024F0004D65646961004368616E6765204D656480
:102500006961004D32310041626F7574205072690B
:102510006E746572004368616E67652046696C6120
:102520006D656E7400436F6E66696775726174697C
:102530006F6E0054656D7065726174757265004DE3
:102540006F74696F6E00486F737420537461727496
:1025500000526573756D65205072696E74004E6F20
:10256000204D656469610043616E63656C204F6254
:102570006A6563740054756E650053746F70205003
:1025800072696E74005061757365205072696E7463
:1025900000496E666F2053637265656E003F00539D
:1025A00074617274205072696E740043616E636569
:1025B0006C005072696E740043616E6E6F742065BA
:1025C0006E746572207375626469723A2000022E1F
:1025D0002E004D61696E002100486F74656E6420A5
:1025E000746F6F20636F6C64004261636B005072A4
:1025F0006F63656564004F6666004F6E00536F66DB
:102600007420456E6473746F7073004D6F74696FDE
:102610006E0044697361626C652053746570706507
:102620007273004D383400426564204C6576656CE9
:10263000696E6700486F6D65205A004732385A004E
:10264000486F6D652059004732385900486F6D65F5
:1026500020580047323858004175746F20486F6D1C
:102660006500473238004D61696E005072656865DB
:102670006174202420456E64005072656865617441
:102680002024204265640054656D70657261747524
:10269000726500436F6F6C646F776E00507265688F
:1026A00065617420240046616E2053706565642066
:1026B0007E00426564004E6F7A7A6C65004D6169F8
:1026C0006E004261627973746570205A00466C6FC7
:1026D000770046616E205370656564207E00426518
:1026E00064004E6F7A7A6C6500426564205A00532C
:1026F00070656564004D61696E00486F6D696E6755
:10270000204661696C6564006F70656E00545249C3
:10271000474745524544003A200066696C616D6543
:102720006E74007A5F6D696E00795F6D696E007816
:102730005F6D696E005265706F7274696E672065B7
:102740006E6473746F70207374617475730A002003
:10275000746F6F206C6F6E67206578747275736923
:102760006F6E2070726576656E7465640A00206312
:102770006F6C6420657874727573696F6E20707207
:102780006576656E7465640A000000000000000054
:1027900000000000005761726E696E673A20486F52
:1027A0006D696E672042756D702044697669736F3C
:1027B00072203C20310A0002020400809D43000088
:1027C0009B430000C843000000410000004100009E
:1027D000004000000001000000010000800055558D
:1027E00055000000400033333300AAAA2A00499262
:1027F000240000002000C7711C0099991900D145E0
:102800001700555515003BB1130024491200111152
:102810001100000010000F0F0F00E3380E00437985
:102820000D00CCCC0C00C3300C00E8A20B006421DE
:102830000B00AAAA0A00703D0A009DD80900427B3D
:10284000090092240900DCD308008888080010429F
:10285000080000000800F0C10700878707007550D6
:102860000700711C07003EEB0600A1BC0600699042
:10287000060066660600703E06006118060017F442
:10288000050074D105005BB00500B29005006272CE
:1028900005005555050078390500B81E05000505E9
:1028A00005004EEC040087D40400A1BD040090A7ED
:1028B000040049920400C17D0400EE690400C7567B
:1028C0000400444404005C32040008210400411068
:1028D0000400000004003FF00300F8E0030026D2EB
:1028E0000300C3C30300CCB503003AA803000A9B4E
:1028F0000300388E0300C08103009F750300D06978
:102900000300505E03001D53030034480300913D53
:1029100003003333030016290300381F0300971503
:102920000300300C0300030303000BFA020049F11B
:102930000200BAE802005CE002002DD802002DD0AF
:10294000020059C80200B0C0020031B90200DAB179
:102950000200AAAA0200A0A30200BC9C0200FA95F1
:1029600002005C8F0200DF88020082820200457C48
:1029700002002776020027700200436A02007C648E
:102980000200D05E02003F590200C8530200FFFD62
:10299000FCFAF8F6F4F2F0EEECEAE9E7E5E3E1E060
:1029A000DEDCDAD9D7D5D4D2D0CFCDCBCAC8C7C513
:1029B000C3C2C0BFBDBCBAB9B7B6B4B3B2B0AFAD95
:1029C000ACAAA9A8A6A5A4A2A1A09E9D9C9A9998EC
:1029D0009795949392908F8E8D8B8A898887868421
:1029E000838281807F7E7D7B7A7978777675747338
:1029F0007271706F6E6D6C6B6A696867666564632F
:102A00006261605F5E5D5C5B5A5958585756555419
:102A100053525150504F4E4D4C4B4A4A49484746ED
:102A200046454443424241403F3E3E3D3C3B3B3AAB
:102A300039383837363535343332323130302F2E5D
:102A40002E2D2C2B2B2A2929282727262525242300
:102A50002322212120201F1E1E1D1C1C1B1B1A1996
:102A60001918181716161515141313121211111020
:102A70000F0F0E0E0D0D0C0C0B0A0A0909080807A2
:102A80000706060505040403030202010000008096
:102A90009D4300009B430000C8430000000000006D
:102AA00000000000000053657474696E6773205362
:102AB000746F72656400454550524F4D20496E69F0
:102AC0007469616C697A65640A003B200020204DBE
:102AD000363033200020440020204D343132205342
:102AE0000046696C616D656E742072756E6F7574E9
:102AF0002073656E736F723A002055004C00466972
:102B00006C616D656E74206C6F61642F756E6C6F97
:102B10006164206C656E677468733A0020204D34E0
:102B20003133205300506F7765722D4C6F737320D3
:102B30005265636F766572793A002044002049003F
:102B400020204D3330342050002044002049002004
:102B5000204D333031205000504944207365747447
:102B6000696E67733A0020460020480020204D31EE
:102B700034352053004D6174657269616C2068655D
:102B80006174757020706172616D65746572733AFD
:102B9000002020473239205334205A00204A002098
:102BA0002047323920533320490020204D34323021
:102BB0002053004D65736820426564204C6576653E
:102BC0006C696E673A0020204D323036205800483C
:102BD0006F6D65206F66667365743A00205800203B
:102BE000530020204D323035204200416476616E22
:102BF0006365643A20423C6D696E5F7365676D651D
:102C00006E745F74696D655F75733E20533C6D69CA
:102C10006E5F66656564726174653E20543C6D69E3
:102C20006E5F74726176656C5F666565647261740F
:102C3000653E20583C6D61785F785F6A65726B3ED7
:102C400020593C6D61785F795F6A65726B3E205AEE
:102C50003C6D61785F7A5F6A65726B3E20453C6DC2
:102C600061785F655F6A65726B3E00205400205298
:102C70000020204D323034205000416363656C6584
:102C8000726174696F6E2028756E6974732F733268
:102C9000293A20503C7072696E745F616363656CA1
:102CA0003E20523C726574726163745F6163636558
:102CB0006C3E20543C74726176656C5F6163636541
:102CC0006C3E0020204D3230312058004D61786933
:102CD0006D756D20416363656C65726174696F6EBB
:102CE0002028756E6974732F7332293A0020204DA5
:102CF0003230332058004D6178696D756D206665FE
:102D0000656472617465732028756E6974732F73BE
:102D1000293A0053746570732070657220756E696E
:102D2000743A0020440020204D32303020530020DF
:102D300044697361626C65640A0046696C616D6523
:102D40006E742073657474696E67733A0020204D49
:102D50003134392043203B20556E69747320696EED
:102D60002043656C736975730A0020286D6D290016
:102D70002020473231202020203B20556E6974737B
:102D800020696E206D6D000000FA430000FA4300D8
:102D9000002041000096420000A0420000A0420036
:102DA00000C8430080CF43DC050000DC0500006460
:102DB0000000004B00000024F4D43050C38E20C229
:102DC000A24017828B7011127A910D816CD90AA8DA
:102DD00061E108C7586607615143061E4B5D05C196
:102DE00045A7041A411104093D9803713931034084
:102DF00036DB0265339102D4305402802E1D02630B
:102E00002CEE01752AC501B028A001102781018F81
:102E10002564012B244B01E0223401AC211F018DDC
:102E2000200D01801FFC00841EED00971DDF00B8FF
:102E30001CD200E61BC600201BBC00641AB200B204
:102E400019A8000A19A0006A189900D1179100402A
:102E5000178B00B516840031167E00B31579003A41
:102E6000157300C7146F0058146A00EE13660088CB
:102E700013630025135E00C7125B006C1257001528
:102E8000125400C111510070114F0021114B00D696
:102E90001049008D1047004610440002104200C047
:102EA0000F4000800F3E00420F3C00060F3B00CB5E
:102EB0000E3800930E37005C0E3500270E3400F3F9
:102EC0000D3200C10D3100900D3000600D2E00322A
:102ED0000D2D00050D2C00D90C2B00AE0C29008502
:102EE0000C29005C0C2700350C27000E0C2600E88E
:102EF0000B2400C40B2400A00B23007D0B23005ADD
:102F00000B2100390B2100180B2000F80A1F00D9F3
:102F10000A1E00BB0A1E009D0A1D00800A1D0063D8
:102F20000A1C00470A1B002C0A1B00110A1A00F792
:102F3000091A00DD091900C4091900AB091900922A
:102F40000917007B091800630917004C09160036A1
:102F5000091600200916000A091500F5081500E0F9
:102F6000081400CC081400B8081400A40814009039
:102F70000813007D0812006B081300580812004661
:102F80000812003408110023081100120811000172
:102F9000081100F0071000E0071000D0071000C073
:102FA000071000B0070F00A107100091070E008363
:102FB000070F0074070F0065070E0057070E004942
:102FC000070E003B070D002E070E0020070D001313
:102FD000070D0006070D00F9060C00ED060D00E0D8
:102FE000060C00D4060C00C8060C00BC060C00B091
:102FF000060C00A4060B0099060C008D060B00823F
:10300000060B0077060B006C060B0061060A0057E2
:10301000060B004C060A0042060A0038060A002E7B
:10302000060A0024060A001A060A0010060900070C
:10303000060A00FD050900F4050900EB050900E298
:10304000050900D9050900D0050900C7050900BE1A
:10305000050900B5050800AD050800A50509009C97
:10306000050800940508008C050800840508007C0C
:10307000050800740508006C050700650508005D7B
:10308000050700560508004E0507004705070040E4
:1030900005080038050700310507002A0507002349
:1030A0000507001C050600160507000F05070008A8
:1030B00005060002050700FB040600F5040700EE04
:1030C000040600E8040600E2040700DB040600D55D
:1030D000040600CF040600C9040600C3040600BDB0
:1030E000040600B7040600B1040500AC040600A6FF
:1030F000040600A00405009B04060095040500904A
:103100000406008A04050085040500800406007A90
:1031100004050075040500700405006B04050066D5
:10312000040500610405005C040500570405005215
:103130000405004D04050048040500430405003E55
:103140000404003A04050035040500300404002C92
:1031500004050027040400230405001E0404001ACB
:1031600004040016040500110404000D0404000901
:103170000405000404040000040400FC030400F837
:10318000030400F4030400F0030400EC030400E86B
:10319000030400E4030400E0030400DC030400D89B
:1031A000030400D4030400D0030400CC030400C8CB
:1031B000030300C503030024F404D9201BC40C5CE2
:1031C0000E9804C4095F0265077101F405F900FB5C
:1031D00004B30048048700C1036900580355000385
:1031E000034500BE023A008402310053022A00293E
:1031F00002250004022000E4011C00C8011900AFF0
:10320000011700980114008401130071011000617E
:1032100001100051010E0043010D0036010B002B7F
:10322000010B0020010B00150109000C010900032E
:10323000010800FB000800F3000800EB000700E4B1
:10324000000600DE000600D8000600D2000600CC12
:10325000000500C7000500C2000500BD000400B95C
:10326000000400B5000400B1000400AD000400A992
:10327000000400A5000300A20003009F0004009BBF
:1032800000030098000300950002009300030090E3
:103290000003008D0002008B0003008800020086FE
:1032A00000020084000300810002007F0002007D14
:1032B0000002007B00020079000200770001007626
:1032C0000002007400020072000100710002006F31
:1032D0000002006D0001006C0002006A000100693C
:1032E0000002006700010066000100650001006443
:1032F0000002006200010061000100600001005F47
:103300000002005D0001005C0001005B0001005A4A
:10331000000100590001005800010057000100564B
:10332000000100550001005400010053000000534B
:103330000001005200010051000100500001004F47
:103340000001004E0000004E0001004D0001004C45
:103350000001004B0000004B0001004A0001004941
:10336000000100480000004800010047000100463D
:103370000000004600010045000000450001004437
:103380000001004300000043000100420000004231
:103390000001004100000041000100400001003F29
:1033A0000000003F0001003E0000003E0001003D23
:1033B0000000003D0001003C0000003C0000003C1B
:1033C0000001003B0000003B0001003A0000003A11
:1033D0000001003900000039000100380000003809
:1033E00000000038000100370000003700010036FF
:1033F00000000036000000360001003500000035F6
:1034000000000035000100340000003400000034EA
:1034100000010033000000330000003300010032DF
:1034200000000032000000320001003100000031D5
:1034300000000031000100300000003000000030CA
:103440000001002F0000002F0000002F0000002FBF
:103450000001002E0000002E0000002E0001002DB3
:103460000000002D0000002D0000002D0001002CA8
:103470000000002C0000002C0000002C0001002B9C
:103480000000002B0000002B0000002B0001002A90
:103490000000002A0000002A0000002A0001002984
:1034A0000000002900000029000000290000002978
:1034B000000100280000002800000028000000286B
:1034C000000000280001002700000027000000275E
:1034D0000000002700000027000100260000002651
:1034E0000000002600000026000000260001002544
:1034F0000000002500000025000000250000002538
:103500000000002500010024000000240000002429
:10351000000000240000002400010023000000231C
:10352000000000230000002300000023000000230F
:103530000000002300010022000000220000002201
:1035400000000022000000220000002200010021F3
:1035500000000021000000210000002100000021E7
:1035600000000021000000210001002000000020D8
:1035700000000020000000200000002000000020CB
:1035800000000020000000200001001F0000001FBC
:103590000000001F0000001F0000001F0000001FAF
:1035A0000000001F0001001E0000001E0000001EA1
:1035B0000000001E000000393000003325000087A5
:1035C000190000B00F0000DB080000BD040000740B
:1035D0000200003F01000020436F756E7420583ACE
:1035E0000042656400453100626564002C207379F7
:1035F0007374656D2073746F707065642120486505
:10360000617465725F49443A200048656174696E6F
:1036100067204661696C65640048656174696E671E
:10362000206661696C6564004D31313220536875E4
:1036300074646F776E001000C90210012C01400104
:10364000220170011801B0010E01F00104015002C5
:10365000FA00B002F0003003E600D003DC00900472
:10366000D2007005C800A006BE000008B400B00972
:10367000AA00D00BA000600E960060118C0000150F
:10368000820020197800C01D6E00A0226400B027BF
:103690005A00902C500000314600E0343C001038B5
:1036A0003200903A2800603C1E00A03D1400803E8D
:1036B0000A00203F0000544845524D414C205255CD
:1036C0004E4157415900546865726D616C205275C6
:1036D0006E61776179004572723A204D41585445C8
:1036E0004D50004D415854454D50207472696767E4
:1036F00065726564004572723A204D494E54454DDD
:1037000050004D494E54454D5020747269676765AD
:1037100072656400202F002042403A0020403A00A9
:1037200020573A0020573A00496E76616C69642050
:1037300065787472756465720A007C3C3E5E2B3D50
:103740003F2F5B5D3B2C2A225C0043616E6E6F74E1
:10375000206F70656E20737562646972200041424B
:103760005300504C4100534420496E697420466117
:10377000696C0053442063617264206F6B0A006FB0
:1037800070656E526F6F74206661696C65640A00C3
:10379000766F6C756D652E696E6974206661696CF3
:1037A00065640A004E6F20534420636172640A000E
:1037B0000A4D3234004D3233202573002E0A006F3B
:1037C00070656E206661696C65642C2046696C6565
:1037D0003A200046696C652073656C6563746564A6
:1037E0000A002053697A653A200046696C65206FAB
:1037F00070656E65643A2000454E44205355425230
:103800004F5554494E450A002220706F7300222004
:10381000706172656E743A2200535542524F55548E
:10382000494E452043414C4C207461726765743A9F
:10383000220053756263616C6C204F766572666C12
:103840006F77004578636565646564206D617820F5
:10385000535542524F5554494E4520646570746823
:103860003A002E0A0044656C6574696F6E206661CB
:10387000696C65642C2046696C653A200046696C69
:10388000652064656C657465643A00534420707209
:10389000696E74696E67206279746520004E6F747A
:1038A000205344207072696E74696E670A002F613C
:1038B00075746F25632E670057726974696E67208F
:1038C000746F2066696C653A2000667265736800E3
:1038D000646F696E67002066696C653A20004E6F00
:1038E000772000020000000000000000000000003F
:1038F00000000000000000000000000000000000C8
:1039000000000000000000000000000000000000B7
:1039100000000000000000000000000000000000A7
:103920000000000000000000000000000000000097
:103930000000000000000000000000000000000087
:103940000000000000000000000000000000000077
:103950000000000000000000000000000000000067
:103960000000000000000000000000000000000057
:103970000000000000000000000000000000000047
:103980000000000000000000000000000000000037
:103990000000000000000000000000000000000027
:1039A000000000000003FFF0000000000000000025
:1039B00000000000001FFFE0000000000000000009
:1039C00000000000003FC07C00000000000000007C
:1039D00000000000007C0FFF8000000000000000DD
:1039E0000000000000F87FFFE00000000000000081
:1039F0000000000001F0FFFF780000000000000060
:103A00000000000001E1FFFFBC001FFF83FFE1F0A9
:103A10000E3FFF0001E3FFFFEE001FFFC7FFF1F8BD
:103A20000E3FFFC001C3FF8FF7001E03CF0071FCE4
:103A30000E3C03E001C3FE01FB801E03CE0079DED5
:103A40000E3C01E001C7FC007DC01FFF8E0079CF56
:103A50000E3C01E001C7FC003EE01FFFCE0079C72D
:103A6000CE3C01E001E7FC001F701E01CE0079C1D1
:103A7000EE3C01E001E7FC000FB81E01CF0079C069
:103A8000FE3C01E000E3FC0007F81FFFC7FFF1C0A8
:103A90007E3FFFC000F3FC0007DC1FFF87FFE1C093
:103AA0003E3FFF800073FE0003EC0FF800FF0000B4
:103AB0000C1FF0000071FE0003EE0000000000008B
:103AC000000000000039FF0003F6000000000000C5
:103AD000000000000618FF8003F70000000000004F
:103AE00000000000071CFFC003F71FFFDFFF1FFEE1
:103AF0001C01C000030E7FE007F31FFFDFFF3FFF45
:103B00001C01C00001863FF807FB00701C0038074D
:103B10009C01C00001C33FFFFFFB00701C00380385
:103B20009C01C00000F39FFFFFFB00701FFF3800E7
:103B30001FFFC00000798FFFFFF780701FFF380064
:103B40001FFFC000007CC7FFFFF780701C00380714
:103B50009C01C000003F01FFFFED80701C00380792
:103B60009C01C000001FE0FFFFED80701FFF3FFFC2
:103B70001C01C000001FF03FFFCD00701FFF1FFEA3
:103B80001C01C000000FFC0FFF1D00000000000022
:103B9000000000000007FE01FC1B00000000000008
:103BA000000000000003FF80003B00000000000058
:103BB000000000000001FFF000FB0000000000001A
:103BC000000000000000FFFFFFF000000000000008
:103BD0000000000000003FFFFFE0000000000000C8
:103BE0000000000000001FFFFFC0000000000000F8
:103BF00000000000000007FFFF8000000000000040
:103C000000000000000001FFFF00000000000000B5
:103C1000000000000000003FF8000000000000006D
:103C20000000000000000000000000000000000094
:103C30000000000000000000000000000000000084
:103C40000000000000000000000000000000000074
:103C50000000000000000000000000000000000064
:103C60000000000000000000000000000000000054
:103C70000000000000000000000000000000000044
:103C80000000000000000000000000000000000034
:103C90000000000000000000000000000000000024
:103CA0000000000000000000000000000000000014
:103CB0000000000000000000000000000000000004
:103CC00000000000000000000000000000000000F4
:103CD00000000000000000000000000000000000E4
:103CE000000000006D61726C696E66772E6F7267FE
:103CF00000322E302E375F4457372E33001FFFFF20
:103D0000FFFFFFFF600000000001FF400000000017
:103D100000FF8000000000007F83CF00000C303FD8
:103D200087FF80000C301F867980000C000F8C30DC
:103D3000C7838C30E78C30CFC7CC31F38C30DCECD0
:103D4000EC33B98C30D86C6C33198C30D06C0C33AC
:103D5000198C30D86C0C33198C30DC6C0E3B198C00
:103D600030CF7C079F198C30C77C038F194000002F
:103D700000000002600000000000061FFFFFFFFFC0
:103D8000FFF870012C0190012701B0012201C00150
:103D90001D01F00118011002130130020E01600232
:103DA000090190020401C002FF000003FA00400371
:103DB000F5008003F000D003EB002004E60070045F
:103DC000E100E004DC004005D700C005D200400659
:103DD000CD00D006C8008007C3003008BE00F00840
:103DE000B900C009B400B00AAF00B00BAA00D00CF3
:103DF000A500000EA000500F9B00C01096005012AE
:103E0000910000148C00C0158700B0178200B01913
:103E10007D00D01B7800001E730040206E009022B1
:103E20006900F024640040275F0090295A00E02BCD
:103E30005500102E500020304B0010324600E03369
:103E4000410090353C001037370070383200A039FF
:103E50002D00B03A2800A03B2300603C1E00103D1E
:103E60001900903D1400103E0F00703E0A00C03E45
:103E70000500003F0000403FFBFF803FF6FFC03FD2
:103E8000F1FF2020506C616E6E657242756666654A
:103E90007242797465733A20002046726565204D40
:103EA000656D6F72793A2000436F6D70696C65645F
:103EB0003A2041707220323520323032310A0020EF
:103EC0004C61737420557064617465643A203230BB
:103ED00032312D30342D3138207C20417574686F9B
:103EE000723A20426F6E6474656368202F20496EB9
:103EF00073616E6974794175746F6D6174696F6E09
:103F00000A00322E302E375F4457372E330A004DC9
:103F100061726C696E0020536F6674776172652000
:103F200052657365740A00205761746368646F6733
:103F30002052657365740A002042726F776E206F9D
:103F400075742052657365740A0020457874657233
:103F50006E616C2052657365740A00506F776572EC
:103F600055700A0073746172740A004732385859E8
:103F7000004D31303031006572726F722077726996
:103F800074696E6720746F2066696C650A00446FFF
:103F90006E6520736176696E672066696C652E0AAE
:103FA000004D323900456E6473746F707300255391
:103FB00020256320256320256320256300205A3AAD
:103FC0000020593A0020583A00656E6473746F708F
:103FD00073206869743A200000000A0B02090C0D76
:103FE0000E080703040100000000000000000000AC
:103FF00000000000000000000000000000000000C1
:10400000000000001211100000000000000000007D
:104010000000000000000000000000000000004D53
:104020006F76652025736D6D004D6F766520302E9F
:10403000316D6D004D6F766520316D6D004D6F7681
:10404000652031306D6D004D6F7665204178697364
:10405000004578747275646572004D6F7665205AFC
:10406000004D6F76652059004D6F766520580062CF
:10407000375E374368616E67652046696C616D65C0
:104080006E7400556E6C6F61642046696C616D657D
:104090006E74004C6F61642046696C616D656E746E
:1040A000005072656865617420437573746F6D00AC
:1040B000507265686561742024004261636B00FF83
:1040C000FFFF486F6D6520257325732573204669B2
:1040D0007273740073686F7700627574746F6E002A
:1040E000626567696E0044697361626C6552756EE2
:1040F0006F75740050757267654D6F726500506121
:104100007573656400436F6E74696E7565004C6FFE
:1041100061642046696C616D656E74205400496E5F
:10412000736572742066696C616D656E7420616E72
:10413000642073656E64204D3130380A00220A0015
:10414000556E6B6E6F776E20636F6D6D616E643A46
:104150002022002042002050006F6B004444582071
:104160004352313056322052656164792E005072CC
:10417000696E74696E672E2E2E005072696E7420FF
:1041800050617573656400204500205A0020590075
:10419000204D393220580020453A00205A3A00205C
:1041A000593A00583A0020746F6F206C6F6E672088
:1041B000657874727573696F6E2070726576656E5E
:1041C0007465640A0020636F6C642065787472758E
:1041D00073696F6E2070726576656E7465640A002F
:1041E000526573656E643A20006E6F746966696328
:1041F0006174696F6E200000002200250028002BEA
:10420000002E003100340002010000050108010BFE
:104210000100002100240027002A002D0030003377
:104220000001010000040107010A01050505050759
:104230000508080808020202020A0A080804040421
:10424000040101010101010101030303030303034D
:1042500003040707070C0C0C0C0C0C0C0C020202DC
:104260000206060606060606060B0B0B0B0B0B0BCF
:104270000B0102102020080810204010204080026E
:10428000010201080402010102040810204080809C
:104290004020100804020180040201804020100820
:1042A00004020108040201010204081020408001F8
:1042B00002040810204080009A01320111241FBE20
:1042C000CFEFD1E2DEBFCDBF00E00CBF13E0A0E036
:1042D000B2E0EEE6F5EB02E00BBF02C007900D92F4
:1042E000A836B107D9F728E1A8E6B3E001C01D92CE
:1042F000AC30B207E1F711E2CDE5D1E200E006C053
:1043000021970109802FFE010F940D57CC35D1075D
:1043100080E00807A9F70F94D2450D94A55A0C9494
:104320000000FC0184910895FC018081089511989A
:10433000000000009091020187FD9095917090938C
:104340000001119A00000000000000001198000018
:1043500000009091020186FD90959170909300016C
:10436000119A0000000000000000119800000000F9
:104370009091020185FD9095917090930001119AA2
:104380000000000000000000119800000000909163
:10439000020184FD9095917090930001119A0000A4
:1043A0000000000000001198000000009091020140
:1043B00083FD9095917090930001119A0000000088
:1043C000000000001198000000009091020182FDA1
:1043D0009095917090930001119A000000000000E8
:1043E00000001198000000009091020181FD90955D
:1043F000917090930001119A0000000000000000ED
:1044000011980000000080910201817080930001EA
:10441000119A0000000000000000089590E080E084
:104420000895CF93DF93DB01F9019C919130C1F0A6
:10443000943080F094509C938830D1F480819181A5
:10444000009771F0019791838083480F591FEA010B
:10445000188206C08C3539F49C5F9C93943041F4EB
:10446000DF91CF9108958B3339F781E08C93F8CFAA
:1044700020813181B9016F5F7F4F71836083420F6B
:10448000531FEA018883808191818F3591056CF7F4
:10449000E7CF0F931F9381E00091D5151091D615AA
:1044A0002091D7153091D8154091D1155091D21542
:1044B0006091D3157091D415041715072607370797
:1044C00008F480E01F910F91089590E080E0089536
:1044D000282F90916008833021F495FD0FC094FD42
:1044E0000FC0892F90E0B0E0A0E004C0B695A7957A
:1044F000979587952A95D2F78170089581E0089560
:1045000080E00895109247088091510290915202E4
:10451000A0915302B09154028093390690933A06C9
:10452000A0933B06B0933C060895129A0895269AEC
:104530002E9A0895AF92BF92CF92DF92EF92FF92A0
:104540000F931F93CF93DF936B01E9014A3009F476
:10455000C1C0453109F073C0DB011296ED91FC91A9
:10456000F280C681D781809102018095827080930C
:10457000000188E28A950000E9F7BF2CB29420EF91
:10458000B22230E1A32EAF0C48E2E42E88EF0E9465
:1045900097218E2D8A950000E9F7BFE1BF1508F439
:1045A00085C08F2D807780680E9497218B2D0E9477
:1045B00097218E2D8A950000E9F780E80E949721C7
:1045C00080E00E9497218E2D8A950000E9F78AEFFE
:1045D0000E9497218E2D8A950000E9F78E01005FD9
:1045E0001F4F8881807F0E94972189918295807FCB
:1045F0000E949721C017D107A1F78E2D8A95000040
:10460000E9F7F394E0E1BE0EFA10C0CF8091020109
:10461000827080930001D6011296CD91DC91CE017B
:104620000F94EA38811147C2DF91CF911F910F910A
:10463000FF90EF90DF90CF90BF90AF900895FB0177
:1046400002811381423309F4F1C108F4F5C1463403
:1046500009F4E2C1473409F4E5C14B3329F58981F6
:104660002B81D80112966C91129713964C912130A0
:1046700009F438C2233009F002C238EF380F582F3E
:1046800091E0431708F490E041E0531708F040E050
:1046900031E0561708F430E0592F542B352309F038
:1046A00016C2942309F013C281E0BECF80EE8F0DB5
:1046B0008068807F0E9497218F2D8295807F0E9445
:1046C00097218E2D8A950000E9F780E80E949721B6
:1046D00080E877CF80910101826080930101809111
:1046E00002018270809300018091010181608093BA
:1046F000010180910201817080930001099A119A51
:1047000080910201809582708093000188E28A95F1
:104710000000E9F788E790E0CEE9DFE0FE0131979D
:10472000F1F70197D9F788EF0E94972118E2812FBE
:104730008A950000E9F780E20E94972180E00E94BC
:104740009721812F8A950000E9F780E00E94972148
:1047500080E80E949721812F8A950000E9F780E088
:104760000E94972180E10E949721812F8A95000065
:10477000E9F7CE010197F1F7CE010197F1F7CE01EC
:104780000197F1F7CE010197F1F7CE010197F1F70B
:10479000CE010197F1F7CE010197F1F7CE01019714
:1047A000F1F7CE010197F1F7CE010197F1F7CE01B4
:1047B0000197F1F7CE010197F1F7CE010197F1F7DB
:1047C000CE010197F1F72197F1F780E20E9497213E
:1047D00080E40E949721812F8A950000E9F780E20A
:1047E0000E94972180E60E9497211A950000E9F720
:1047F00010E0D0E0C8E28D2F807780680E9497217A
:10480000812F0E9497218C2F8A950000E9F780E87C
:104810000E94972180E00E9497218C2F8A950000AA
:10482000E9F78AEF0E9497218C2F8A950000E9F71B
:1048300090E2119800000000809102018170809345
:104840000001119A00000000000000001198000013
:10485000000080910201817080930001119A000094
:10486000000000000000119800000000809102018B
:10487000817080930001119A000000000000000088
:104880001198000000008091020181708093000166
:10489000119A0000000000000000119800000000C4
:1048A00080910201817080930001119A0000000044
:1048B000000000001198000000008091020181704A
:1048C00080930001119A0000000000000000119880
:1048D0000000000080910201817080930001119A14
:1048E000000000000000000011980000000080910E
:1048F0000201817080930001119A00000000000005
:1049000000001198000000008091020181708093E6
:104910000001119A00000000000000001198000042
:10492000000080910201817080930001119A0000C3
:1049300000000000000011980000000080910201BA
:10494000817080930001119A0000000000000000B7
:104950001198000000008091020181708093000195
:10496000119A0000000000000000119800000000F3
:1049700080910201817080930001119A0000000073
:104980000000000011980000000080910201817079
:1049900080930001119A00000000000000001198AF
:1049A0000000000080910201817080930001119A43
:1049B000000000000000000011980000000080913D
:1049C0000201817080930001119A00000000000034
:1049D00000008C2F8A950000E9F7915009F029CF4B
:1049E00088EF0E9497218C2F8A950000E9F7DF5FFE
:1049F000105FD03209F0FFCE80E00E94972180EC5A
:104A00000E949721CA950000E9F780910201827007
:104A10008093000181E008CED80115968C9188839F
:104A200081E002CEF80181818883FACFB901C80103
:104A30000F94073981E0F8CD443171F0473109F026
:104A400033CE1882F80182818983858181508A83DF
:104A500083818B8381E0E8CDD80115964C91159721
:104A600050E0440F551F70E060E016968D919C91C8
:104A70000F94465AC8010F94003981E0D5CD4817EC
:104A800008F412CE861708F40FCEFA80E12CD12C50
:104A9000243070F41DC0BE01C8010F94073989810C
:104AA00098819D0D98838E0D8983FF0C09F4FCCDB0
:104AB000F7FEF6CFF0CF4D8150E0440F551F70E068
:104AC00060E08E819F810F94465A81E0ADCDFA80DF
:104AD00030E0F901ED55FD4FD08021563D4FF901F1
:104AE000E080E6CF58E0580F382FCACDEF92FF9202
:104AF0000F931F93CF93DF93EC018B017A018A858B
:104B00009B858617970731F0888199810F94E03A49
:104B10001B870A87B701888199810F94CF2C2E813A
:104B20003F81820F932F911D9F838E8390E080E0C1
:104B3000DF91CF911F910F91FF90EF9008959F9279
:104B4000AF92BF92CF92DF92EF92FF920F931F939B
:104B5000CF93DF93EC018B01942EA52E8A859B8544
:104B60008617970731F0888199810F94E03A1B8767
:104B70000A8788859985019649F5BC800A818E81CE
:104B8000080FC880D980D6015596ED91FC91C601D9
:104B90001995B80EE92CFA2C10E0F70121917F014C
:104BA000211127C08E819F81810F911D9F838E834C
:104BB00090E080E0DF91CF911F910F91FF90EF90F7
:104BC000DF90CF90BF90AF909F9008950E811F818E
:104BD000692D7A2D888199810F94CF2C800F912F88
:104BE000911D288539852817390738F681E090E02E
:104BF000E1CF4B2D602FC6010F94383B080F180FE3
:104C0000CCCFDF92EF92FF920F931F93CF93DF935E
:104C1000EC01D62E1CAD0BAD7C0184E0E80EF11C3E
:104C2000E98DFA8DC7011995412F480F2D2D602F61
:104C3000C7010F94383B9BAD890F8BAF81E090E0AB
:104C4000DF91CF911F910F91FF90EF90DF9008952A
:104C5000AB01BC014093D5155093D6156093D71581
:104C60007093D8158CE397E10C948DCF8093230239
:104C70008032B8F590910405891724F091E0980FDF
:104C80009093040540910005509101056091020543
:104C900070910305082E04C0769567955795479542
:104CA0000A94D2F741704093980F87FD1DC0282FBA
:104CB000082E000C330B3F938F9386E899E09F9367
:104CC0008F9386E999E09F938F931F920E94CCB3B4
:104CD0008DB79EB707960FB6F8949EBF0FBE8DBFD7
:104CE00008951092980FE1CF0D9458400F931F93A1
:104CF000CF93DF9300D01F92CDB7DEB79C010EE2B9
:104D000018E090E1E3EEFFE0D80101900D929A9552
:104D1000E1F7F9012081318142815381F8016085F9
:104D20007185828593850F941657F8016087718786
:104D30008287938780E090E0A0EAB0E489839A8339
:104D4000AB83BC83CE0101960E9411F80F900F90A7
:104D50000F900F90DF91CF911F910F9108952F9297
:104D60003F924F925F926F927F928F929F92AF92FB
:104D7000BF92CF92DF92EF92FF921F93CF93DF9378
:104D8000CDB7DEB72C970FB6F894DEBF0FBECDBF00
:104D90007A011901DC012D913D914D915C912D839A
:104DA0003E834F835887FB0140805180628073802F
:104DB0008090E30F9090E40FA090E50FB090E60F85
:104DC000A50194016D817E818F8198850F94245077
:104DD00081110EC011E0A30192016091E70F709163
:104DE000E80F8091E90F9091EA0F0F942450811100
:104DF00010E0D1012D913D914D915C9129873A8729
:104E00004B875C87F701C080D180E280F3802091DE
:104E1000090230910A0240910B0250910C02C70125
:104E2000B6010F942450882309F44EC0C0920902A1
:104E3000D0920A02E0920B02F0920C028091EF0FE6
:104E40009091F00FA091F10FB091F20F4091E70F08
:104E50005091E80F6091E90F7091EA0F80922E084F
:104E600090922F08A0923008B092310840933208F7
:104E7000509333086093340870933508C092360815
:104E8000D0923708E0923808F092390880933A08B7
:104E900090933B08A0933C08B0933D0820E030E09D
:104EA00040E05FE36091C60F7091C70F8091C80F1B
:104EB0009091C90F0F948A5069837A838B839C8366
:104EC000CE0101960E9411F82D813E814F815885B7
:104ED00020932E0830932F084093300850933108C8
:104EE000409232085092330860923408709235082C
:104EF000D1012D913D914D915C9160913A08709155
:104F00003B0880913C0890913D080F9416576093A0
:104F10003A0870933B0880933C0890933D08111128
:104F20002FC020E030E0A90169857A858B859C85BA
:104F30000F942450811133C060E070E088EC92E45B
:104F400069837A838B839C83CE0101960E9411F83A
:104F50002C960FB6F894DEBF0FBECDBFDF91CF9178
:104F60001F91FF90EF90DF90CF90BF90AF909F90F8
:104F70008F907F906F905F904F903F902F9008950B
:104F80002AEF3EE74AE25FE36091CA0F7091CB0FD0
:104F90008091CC0F9091CD0F0F948A50D1CF60E0CB
:104FA00070E080EA91E4CCCF8091BB049091BC0486
:104FB000009731F04AE050E070E060E00D943F4E21
:104FC00060E070E0CB0108958091590982FF0BC029
:104FD00063E682E79AE00E94E7B30F94F4320E94FE
:104FE000B2BA81E0089580E008958091BB04909169
:104FF000BC04009731F04AE050E070E060E00D94AE
:10500000114D60E070E0CB010895AF92BF92CF9256
:10501000DF92EF92FF920F931F93CF93DF93EC01F8
:105020005B018A01FB01199587FD16C0C82ED12CA2
:10503000F12CE12C2196F801C082D182E282F38228
:10504000CE01DF91CF911F910F91FF90EF90DF90F4
:10505000CF90BF90AF900895982F907E903CA9F488
:105060008F7190E0B0E0A0E06C017D0156E0CC0CC7
:10507000DD1CEE1CFF1C5A95D1F7CE010196F501FF
:1050800019958F73C82A2296D6CF982F907F903E7D
:1050900011F58F7090E0B0E0A0E06C017D0136E08A
:1050A000CC0CDD1CEE1CFF1C3A95D1F7CE0101960D
:1050B000F50119958F73C82A46E0CC0CDD1CEE1C57
:1050C000FF1C4A95D1F7CE010296F50119958F7311
:1050D000C82A2396B0CF982F987F903F79F5877094
:1050E00090E0B0E0A0E06C017D0186E0CC0CDD1C1E
:1050F000EE1CFF1C8A95D1F7CE010196F50119959A
:105100008F73C82A96E0CC0CDD1CEE1CFF1C9A9510
:10511000D1F7CE010296F50119958F73C82A26E0C2
:10512000CC0CDD1CEE1CFF1C2A95D1F7CE0103969A
:10513000F50119958F73C82A24967DCF982F907CFE
:10514000903841F4807C803869F42196CE01F501D5
:105150001995F8CF8E7F8D3F28F02196CE01F5016D
:105160001995F8CFC12CD12C760165CF9CE0899F91
:10517000802D112491E0980F909305052CE0280FC5
:105180002093280830E02E5F3F4F40919F15421733
:10519000130619F014F080E008952091A1159217DC
:1051A000D0F7662341F08E5F0F94FA39809128087A
:1051B0008E5F0F94FA398091280890919F15891776
:1051C00050F32091A11590910505291720F3109215
:1051D000A2158093A31581E00895CF938091F704E1
:1051E000811154C01092A2151092A3151092A4150B
:1051F0001092701510926F15109272151092711511
:105200001092741581E08093731582E28093751576
:1052100010927A1510927915EEE8F5E12CE935E156
:105220008FEF81932E173F07E1F7C1E0C0938B15F5
:1052300020E131E03093811520938015C0938215D1
:10524000109283151092841590E490938515109216
:1052500086152AE232E030939D1520939C1526E1B5
:1052600032E030936E1520936D1597E1909392156F
:1052700091E19093931590E19093901580938F1501
:1052800080938E150F942139C093F70481E08093A9
:10529000F80481E297E190930C1580930B1510921E
:1052A0000E1510920D15CF9108952091F604022E3F
:1052B000000C330B8217130641F08093F60461E271
:1052C00077E18BE695E10D94E03A0895CF92DF9275
:1052D000EF92FF920F931F93CF93DF93CDB7DEB77B
:1052E0002C970FB6F894DEBF0FBECDBF6F3F710590
:1052F0008105910509F0D0F487E695E10E94012629
:10530000E0916F15F09170153196849190E02C9694
:105310000FB6F894DEBF0FBECDBFDF91CF911F91C6
:105320000F91FF90EF90DF90CF900895F090A2152D
:10533000E090A3152091F80421110FC041E057E13E
:105340006E2D8F2D0F94A43B90E080E0F80EF0922C
:10535000A215E092A3159927DACFC0906F15D090CF
:1053600070152BE635E13A8329832F2D30E03C83FD
:105370002B832E2D30E03E832D8318861F822FEF46
:105380003FEF3A8729871C861B860FE915E29E01AD
:105390002F5F3F4FAB01BC01C6010F947224B601D1
:1053A0008BE695E10F94E03A8F819885CFCFCF932C
:1053B000DF93FC0125AD211104C021E025AF0F943E
:1053C0002139C0916D15D0916E15E0919C15F09129
:1053D0009D1582E01995E0919C15F0919D1581E055
:1053E000199530E020E044E1BE018BE695E10F9491
:1053F0001D392EE935E147E1BE018BE695E10F94B9
:105400001D39E0919C15F0919D1580E0DF91CF91C1
:105410001994CF92DF92EF92FF920F931F93CF9345
:10542000DF93CDB7DEB72C970FB6F894DEBF0FBE73
:10543000CDBFF090A215E090A3152091F8042111A2
:105440001DC041EE56E16E2D8F2D0F94A43B90E0D0
:1054500080E0F80EF092A215E092A31599272C9601
:105460000FB6F894DEBF0FBECDBFDF91CF911F9175
:105470000F91FF90EF90DF90CF900895C0906F153F
:10548000D09070152BE635E13A8329832F2D30E03B
:105490003C832B832E2D30E03E832D8318861F8284
:1054A0007A8769871C861B860FE915E29E012F5FAC
:1054B0003F4F41E951E2BC01C6010F943625B601C8
:1054C0008BE695E10F94E03A8F819885C2CF6FEF1C
:1054D0007FEF0C94092ACF92DF92EF92FF920F9305
:1054E0001F93CF93DF93CDB7DEB72C970FB6F89409
:1054F000DEBF0FBECDBFF090A215E090A3152091A6
:10550000F80421111DC041EC56E16E2D8F2D0F9432
:10551000A43B90E080E0F80EF092A215E092A31573
:1055200099272C960FB6F894DEBF0FBECDBFDF9142
:10553000CF911F910F91FF90EF90DF90CF90089542
:10554000C0906F15D09070152BE635E13A83298312
:105550002F2D30E03C832B832E2D30E03E832D8396
:1055600018861F827A8769871C861B860FE915E2D9
:105570009E012F5F3F4F44E951E2BC01C6010F94E9
:105580003625B6018BE695E10F94E03A8F81988538
:10559000C2CFBF92CF92DF92EF92FF920F931F93F1
:1055A000CF93DF938B01F42EE90141FB662760F96D
:1055B0000E94B628882309F45AC0B12C01151105A0
:1055C00021F0C8010E9483BBB82EE12C209721F066
:1055D000CE010E946EBDE82E80E8C82ED12CF0FED0
:1055E0001EC085E190E08B199109B7FC93958E1947
:1055F0009109E7FC939597FD019695958795F82E6F
:1056000030E8C32ED12CFA94F7FC09C060E270E0B8
:1056100080E090E00E946629C81AD90AF4CFBB2026
:1056200099F0C60166E070E00F94E556262F409190
:105630002A0850912B0860912908C8010E94C3BA1A
:1056400096E0899F60011124EE2031F0B601CE0171
:105650000E946B2AC81AD90A87E0C816D10438F00C
:1056600060E270E080E090E00E946629F3CFDF9175
:10567000CF911F910F91FF90EF90DF90CF90BF904F
:1056800008956FEF7FEF0C946B2AAF92BF92CF9289
:10569000DF92EF92FF920F931F93CF93DF935C0102
:1056A0006B010E9483BBE82EC6010E946EBDF12CE7
:1056B00003E110E0081B1109C5E20E151F050CF4EB
:1056C000CFE18C2F90E09C012E5F3F4F40919F15C2
:1056D0004217130609F0CCF509972091A115281758
:1056E00019069CF140912A0850912B0860912908D5
:1056F0001092A215C093A31525E1C5010E94C3BA5B
:10570000D1E0C114D104B1F06AE370E080E090E030
:105710000E9466290E151F05D4F4C45F80919F1561
:10572000C81740F02091A1154C2F4950550B241754
:1057300015067CF4DF91CF911F910F91FF90EF90B0
:10574000DF90CF90BF90AF900895D0E0DACFDD2307
:1057500089F3802F880F080F000F0093A215C093C4
:10576000A31560E270E080E090E00E946629C60127
:10577000DF91CF911F910F91FF90EF90DF90CF902D
:10578000BF90AF900C94412B8F929F92AF92BF929B
:10579000CF92DF92EF92FF920F931F93CF93DF93FD
:1057A000CDB7DEB72C970FB6F894DEBF0FBECDBFD6
:1057B000982F862F5A017901D02E692F0E94B62882
:1057C000882309F489C0C701002391F10E9483BB9B
:1057D000C82E80906F15909070158091F8048111FB
:1057E00045C01FEF23E12C1940912A0850912B0846
:1057F00060912908C5010E94C3BACC2009F46CC08D
:10580000B6E08B9F500111246AE370E080E090E0E5
:105810000E94662957E0A516B10408F444C060E26E
:1058200070E080E090E00E946629A81AB90AF2CFE1
:105830000E946EBDC82E80906F159090701580915B
:10584000F804882371F2FE0133968AE0DF011D928D
:105850008A95E9F78BE695E19A83898306E715E255
:105860009E012F5F3F4F44E951E212C0FE01339683
:105870008AE0DF011D928A95E9F78BE695E19A832C
:10588000898306E715E29E012F5F3F4F41E951E210
:10589000B701C4010F943625B4018BE695E10F944E
:1058A000E03A1F819FCF40912808212F30E0A6E0E9
:1058B000CA9EC00111242E5F3F4F281739070CF4F0
:1058C0009C0180E8821B8093A2154093A315C70119
:1058D000DD20A9F00E94672A2C960FB6F894DEBF4F
:1058E0000FBECDBFDF91CF911F910F91FF90EF9031
:1058F000DF90CF90BF90AF909F908F9008950E94BF
:10590000412BEACFE7E6F5E183AF64AFCA010C941F
:10591000412B2F923F924F925F926F927F928F9284
:105920009F92AF92BF92CF92DF92EF92FF920F932E
:105930001F93CF93DF93D62FC72FFC0180809180D8
:10594000A280B380C501B40120E831E541E050E018
:105950000F946856C9016DE671E00F94E5566B012E
:105960007C01C501B40120E13EE040E050E00F942D
:105970006856CA01B90128E130E040E050E00F94D8
:105980006856362E272E062F172F8CE3482E512CC3
:10599000612C712CC501B401A30192010F946856CA
:1059A000B62EA72ECA01B901A30192010F94685621
:1059B000CB01C114D10479F1AF92BF927F936F9361
:1059C0002F923F92FF92EF92DF92CF928FE195E17B
:1059D0009F938F93CF93DF930F94BB4F8DB79EB759
:1059E0000E960FB6F8949EBF0FBE8DBF8D2F9C2FC5
:1059F000DF91CF911F910F91FF90EF90DF90CF90AB
:105A0000BF90AF909F908F907F906F905F904F90DE
:105A10003F902F900895E114F104C9F0AF92BF9226
:105A20007F936F932F923F92FF92EF928FE095E1D9
:105A30009F938F93CF93DF930F94BB4FEDB7FEB738
:105A40003C960FB6F894FEBF0FBEEDBFCFCF012B33
:105A5000B9F0AF92BF927F936F932F923F9283E002
:105A600095E19F938F93CF93DF930F94BB4F8DB7A7
:105A70009EB70A960FB6F8949EBF0FBE8DBFB6CFE5
:105A8000892BA9F0AF92BF927F936F938BEF94E134
:105A90009F938F93CF93DF930F94BB4FEDB7FEB7D8
:105AA00038960FB6F894FEBF0FBEEDBF9FCFAF92F2
:105AB000BF9287EF94E19F938F93CF93DF930F94DF
:105AC000BB4F0F900F900F900F900F900F908ECFB5
:105AD0008F929F92AF92BF92CF92DF92EF92FF92FE
