:100000000C944E210C947F210C947F210C947F2121
:100010000C947F210C947F210C947F210C947F21E0
:100020000C947F210C947F210C947F210C947F21D0
:100030000C947F210D943B380C947F210C947F21EC
:100040000C947F210C948AD80C947F210C947F21EE
:100050000C947F210C947F210C9451D50D94F13791
:100060000C947F210C947E4C0C94744C0C947F2146
:100070000C947F210C947F210C947F210C947F2180
:100080000C947F210C947F210C947F210C947F2170
:100090000C947F210C947F210C947F210C947F2160
:1000A0000C947F210C947F210C947F210C947F2150
:1000B0000C947F210C947F210C947F210C947F2140
:1000C0000C947F210C947F210C947F210C947F2130
:1000D0000C947F210C947F210C947F210C947F2120
:1000E0000C947F21084AD73B3BCE016E84BCBFFDF8
:1000F000C12F3D6C74319ABD56833DDA3D00C77FF8
:1001000011BED9E4BB4C3E916BAAAABE0000008090
:100110003F05A84CCDB2D44EB93836A9020C50B91F
:10012000918688083CA6AAAA2ABE000000803F004B
:100130000C947C7F0C9444850C94F07A0C94EB4CDA
:100140000C9421B00C94424D0C94CEC80C94518662
:100150000C9474C30C9454860C9447A70D943232BB
:100160000C94D9830C944D850C947F780C946E7903
:100170000C940FB00C9457820C94EAC90D945D3125
:100180000C94017D0C9439B00D94E1310C940C7FEA
:100190000C9469BD0D9476310C94FD7C0C94DB7845
:1001A0000C94717D0D9469310C94E77A0C94F1AF45
:1001B0000C94C87A0C942DC90C94B4810C94284DDD
:1001C0000C94F79E0C94144D0C94094D0C948A22B7
:1001D0000D9414320D9469320D9461310C94ADC8B4
:1001E0000C94FF7C0C944EBC0C9481210C9484964E
:1001F0000C9412C90C9403B00D9410130C9489B391
:100200000D947C310C9425340C94FA4C0C94569D2E
:100210000C94C0810C941BB00C943FBD0D941E3205
:100220000D946F130C94A3820C94B1790C945B869B
:100230000C9445860C9489760C94A0810C9443B060
:100240000C943AB10C94B67E0C94AC810C94ABC96E
:100250000D9473320C9461860C94EE820C94D582CA
:100260000C948EA00D9471440C947FB30C94B4CA7A
:100270000C94F4780C949A790C944AC50C944B869F
:100280000C9433B00C9467820D944B310C94787AB3
:100290000C948F250D9492310C94938E0C9415B080
:1002A0000C94204D0D9455320C94DFBC0C94F7C384
:1002B0000C9484B30C9493380C9432990D9441327D
:1002C0000C947C830C94667B0C946DBC0C941A7912
:1002D0000D944B320C94FDAF0C94EB7A0C9484216A
:1002E0000C94FA970C94FE210C946F820C94517B21
:1002F0000C94F97C0D9472310C94087F0C945B760D
:100300000C9464970D940C320C94C4810C94288343
:100310000D941E440C9442860C9498780C94BA86E2
:100320000C9478A80C942DB00C94778D0C943A4DC5
:100330000C9409B00D948F440C9466250C944C7960
:100340000C94FF7A0C947B7B0C9459860C94078355
:100350000C94148C0D9446310C94244D0C94B47C64
:100360000C94D47A0C946A7C0C9472220C94DF79ED
:100370000C9449830C940F9A0C94E97A0C9418C845
:100380000C94F7AF0C94FB7C0C94104D0C94C0BCF7
:100390000C947E760C9436890C945E860D949C3178
:1003A0000C9435910C94F57C0C94637B0C94197C23
:1003B0000D94FA310C943C850C94B1780C9460A2A5
:1003C0000D94F0310D9498310C94C8790C94AB7C59
:1003D0000C94607B0D9404320C941BB40C9420BDDF
:1003E0000C94FA940C94047F0C9407790C94B081CB
:1003F0000D9466140D946C310C948EB30C9435C826
:100400000D945F320C9448860C9474B70D948E3121
:100410000C94A6B30C945B790C9499980C94F125E8
:100420000C941C4D0C94A4810C94847B0C949A84A1
:100430000C942F4D0C94807B0C94019F0C94BDC99F
:100440000D9480310C94FA7A0C94A8810C94D58682
:100450000C94F6C30D943D130C9412830C94C07845
:100460000C94BC810C94697B0C944E860C94377B65
:100470000C94F77C0D948A310C9499C70C9427B096
:100480000C94F57A0C94F8920C94809B0C94F67969
:100490000C94F37C0C94BF7A0C9458850C945FA553
:1004A0000D9465310D94E6310C94C8760C94098B4B
:1004B0000C94BC820C94FCAC0C9433790D942832CF
:1004C0000C94BC4C0C9434860C9481790D9484313A
:1004D0000C9493830C9436850C94B8810C9455B489
:1004E0000C94184D0C94E1760C94EF760C94AA7E43
:1004F0000D94D9310C94B7860C945B7C0C943F8698
:100500004E414E494E495459494E46CDCCCC3D0AF8
:10051000D7233C17B7D13877CC2B329595E6241FDB
:10052000B14F0A000020410000C84200401C462094
:10053000BCBE4CCA1B0E5AAEC59D7400407A10F367
:100540005A00A0724E18090010A5D4E80000E87601
:1005500048170000E40B54020000CA9A3B00000058
:10056000E1F505000080969800000040420F000071
:1005700000A08601000000102700000000E8030032
:100580000000006400000000000A000000000001FC
:1005900000000000002C76D888DC674F0823DFC1FC
:1005A000DFAE59E1B1B796E5E3E453C63AE65199B7
:1005B0007696E8E6C28426EB898C9B62ED407C6FE0
:1005C000FCEFBC9C9F40F2BAA56FA5F490055A2A97
:1005D000F75C936B6CF9676DC11BFCE0E40D47FEA3
:1005E000F520E6B500D0ED902E0300943577050098
:1005F00080841E080000204E0A000000C80C33331F
:1006000033330F986E12831141EF8D2114893BE62D
:100610005516CFFEE6DB18D1844B381BF77C1D90B6
:100620001DA4BBE424203284725E228100C9F1241F
:10063000ECA1E53D27434F4D4D554E4943415449AB
:100640004F4E0044525952554E004552524F52534C
:1006500000494E464F004543484F004572726F7245
:100660002077726974696E6720746F204545505217
:100670004F4D210A0053544F505045442E200050F6
:1006800072696E7465722073746F70706564206433
:10069000756520746F206572726F72732E204669C3
:1006A0007820746865206572726F7220616E6420B4
:1006B000757365204D39393920746F2072657374F4
:1006C0006172742E202854656D7065726174757244
:1006D000652069732072657365742E2053657420DC
:1006E00069742061667465722072657374617274D6
:1006F000696E67290A004E6F20436865636B7375E6
:100700006D2077697468206C696E65206E756D6206
:1007100065722C204C617374204C696E653A200020
:100720004E6F20436865636B73756D2077697468DD
:10073000206C696E65206E756D6265722C204C614F
:100740007374204C696E653A2000636865636B734F
:10075000756D206D69736D617463682C204C6173D5
:1007600074204C696E653A20004C696E65204E75A8
:100770006D626572206973206E6F74204C617374B2
:10078000204C696E65204E756D6265722B312C2090
:100790004C617374204C696E653A20004D313130E4
:1007A0000053657269616C20737461747573206D98
:1007B00069736D617463680A00776169740A005334
:1007C000442072656164206572726F720A00486F1E
:1007D00074656E642049646C652054696D656F753D
:1007E0007400486F74656E642049646C65205469B8
:1007F0006D656F75740A002121204B494C4C2063B4
:100800006175736564206279204B494C4C20627598
:1008100074746F6E2F70696E0A002121204B494C51
:100820004C2063617573656420627920746F6F205A
:100830006D75636820696E6163746976652074699B
:100840006D65202D2063757272656E7420636F6D07
:100850006D616E643A20007061757365004D3630CD
:1008600030002066696C616D656E745F72756E6FC5
:100870007574200066696C616D656E745F72756E6B
:100880006F757420540046696C616D656E745275A5
:100890006E6F75742054004D656469612052656DFA
:1008A0006F766564004D6564696120496E73657299
:1008B000746564004D313030305300627573793A9D
:1008C0002070617573656420666F7220696E707543
:1008D000740A00627573793A2070617573656420DB
:1008E000666F7220757365720A00627573793A20BB
:1008F00070726F63657373696E670A00506C65612F
:100900007365205265736574005052494E544552C8
:100910002048414C5445440025533A20255300704B
:100920006F7765726F6666004B494C4C45442E20CC
:10093000005072696E7465722068616C7465642E13
:10094000206B696C6C28292063616C6C6564210ADA
:10095000006563686F3A004572726F723A000A4D23
:100960006561737572656420706F696E74733A0A9D
:1009700000357835206D6573682E205A206F6666C5
:100980007365743A20005072696E74696E67204F07
:10099000626A656374002553202569002F2F616307
:1009A00074696F6E3A0073746172740070726F6D67
:1009B00070745F00656E6400486F74656E642074C7
:1009C0006F6F20636F6C640A0053656E64204D3155
:1009D000303820746F20726573756D650A00496E3A
:1009E000736572742066696C616D656E7420616EEA
:1009F000642073656E64204D3130380A005265689A
:100A000065617420446F6E65005265686561746944
:100A10006E672E2E2E005265686561740048656110
:100A20007465722054696D656F75740053656E64EA
:100A3000204D31303820746F2068656174206E6FEE
:100A40007A7A6C650A004E6F7A7A6C652050617212
:100A50006B656400706175736564005061757365E2
:100A600000726573756D656400526573756D696EAE
:100A700067004732362043616E63656C65640047EA
:100A800032362048656174696E67204E6F7A7A6CE1
:100A900065004732362048656174696E672042659B
:100AA000640057616974696E6720666F72206865BB
:100AB000617475702E0A004669786564204C656E15
:100AC000677468205072696D6500446F6E652050D0
:100AD00072696D696E67004D616E75616C20707230
:100AE000696D696E672E2E2E004C656176696E67A2
:100AF00020473236003F537065636966696564203C
:100B0000582C5920636F6F7264696E617465206F31
:100B10007574206F6620626F756E64732E0A003FD5
:100B200028522965706561742076616C7565206E48
:100B30006F7420706C61757369626C653B206D75B4
:100B40007374206265206174206C65617374203158
:100B50002E0A003F537065636966696564206E6F95
:100B60007A7A6C652074656D7065726174757265F2
:100B7000206E6F7420706C61757369626C652E0AEB
:100B8000003F5370656369666965642066696C61DE
:100B90006D656E742073697A65206E6F7420706C59
:100BA00061757369626C652E0A003F5370656369F5
:100BB00066696564207072696D65206C656E677426
:100BC00068206E6F7420706C61757369626C652E3D
:100BD0000A003F537065636966696564206E6F7AC9
:100BE0007A6C652073697A65206E6F7420706C6111
:100BF000757369626C652E0A003F52657472616399
:100C000074696F6E204D756C7469706C69657220C3
:100C10006D757374206265207370656369666965BC
:100C2000642E0A003F5370656369666965642052EB
:100C3000657472616374696F6E204D756C74697050
:100C40006C696572206E6F7420706C617573696277
:100C50006C652E0A003F53706563696669656420A0
:100C60006C6179657220686569676874206E6F745D
:100C700020706C61757369626C652E0A0043292EC1
:100C80000A003F5370656369666965642062656444
:100C90002074656D7065726174757265206E6F7415
:100CA00020706C61757369626C65202834302D008A
:100CB000473236207374617274696E672E2E2E0A65
:100CC000004F46460A0046616465204865696768CA
:100CD000742000426564204C6576656C696E6720FF
:100CE000004661696C656420746F20656E61626C9A
:100CF0006520426564204C6576656C696E670A0004
:100D00004D65736820426564204C6576656C20648F
:100D10006174613A0A00496E76616C6964206D65A0
:100D200073682E0A00206E6F7420656E746572659C
:100D3000642E0A0050726F62696E6720506F696E90
:100D4000740025532025692F256900206F66200037
:100D50004D424C2047323920706F696E7420002953
:100D60000A004A206F7574206F662072616E676595
:100D70002028302D00290A0049206F7574206F66E5
:100D80002072616E67652028302D004732384C3064
:100D9000004D6573682070726F62696E6720646FC2
:100DA0006E65004D6573682070726F62696E6720B2
:100DB000646F6E652E0A005374617274206D6573E2
:100DC000682070726F62696E67207769746820228C
:100DD000473239205331222066697273742E0A001B
:100DE0004732395332004732384C300A4732395390
:100DF0003200686173206E6F20646174612E0A0096
:100E00004D65736820426564204C6576656C696E3B
:100E100067200053206F7574206F662072616E67C3
:100E2000652028302D35292E0A004D657368207005
:100E30006F696E74206F7574206F662072616E67C3
:100E4000650A004D34323120696E636F72726563DA
:100E50007420706172616D6574657220757361676D
:100E6000650A004F4646004F4E0020204D61783AFB
:100E70002000200020204D696E3A2000536F6674D8
:100E800020656E6473746F70733A20004D323420A5
:100E900053256C642054256C64004739322E392068
:100EA00045257300473120462564004739322E39E5
:100EB000205A2573004731205A3020463230300006
:100EC0004731205825732059257320463330303060
:100ED000004D34323020532569205A2573004D319E
:100EE00030362050256920532569004D323030209E
:100EF0004425730047323852305859004739322E52
:100F000039204530205A300A47315A2573004D3177
:100F1000303920532569004D31393020532569007F
:100F20004D343230205330205A300020496E7661E3
:100F30006C6964206578747275646572200047324C
:100F40002F47332062616420706172616D65746542
:100F500072730A00536C6565702E2E2E004D6573FA
:100F60006820706F696E74206F7574206F662072D0
:100F7000616E67650A004D302053746F70004D310B
:100F80002053746F7000436C69636B20746F205240
:100F90006573756D652E2E2E004E6F204D6F766534
:100FA0002E00456E642066696C65206C6973740A56
:100FB00000426567696E2066696C65206C697374B0
:100FC0000A004E6F206D656469610A005265737591
:100FD0006D696E6720534400286E6F2066696C65EA
:100FE000290043757272656E742066696C653A20DB
:100FF000005072696E742074696D653A20000A535E
:10100000746174733A2046696C616D656E74207505
:101010007365643A20002C204C6F6E6765737420F2
:101020006A6F623A2000546F74616C2074696D6558
:101030003A200053746174733A20002C2046616991
:101040006C65643A20002C2046696E69736865649B
:101050003A20005072696E74733A200053746174C0
:10106000733A2000436F6F6C696E672E2E2E004816
:10107000656174696E672E2E2E0045202553006F22
:101080006B006F666600560651064A064306350633
:1010900044454255473A004D3131332053004265B3
:1010A0006420436F6F6C696E672E2E2E004265645C
:1010B0002048656174696E672E2E2E0044445820C6
:1010C000435231305632204F46462E002F2F004DCE
:1010D00031343520533C696E6465783E206F7574F9
:1010E000206F662072616E67652028302D31290AD5
:1010F00000205200416363656C65726174696F6EB4
:101100003A2050005741524E494E4721204C6F77AC
:10111000205A204A65726B206D6179206C6561648C
:1011200020746F20756E77616E74656420706175D0
:101130007365732E0A004D32303620580046523AFD
:101140000020466C6F773A20004D424C2041646A83
:10115000757374205A0020643A0020693A002070A8
:101160003A00496E76616C696420657874727564C2
:1011700065720A0020643A0020693A0020703A0043
:1011800064697300656E0043290A0061626C6564DE
:1011900020286D696E2074656D702000436F6C644B
:1011A00020657874727564657320617265200046ED
:1011B000696C616D656E742072756E6F75742064F4
:1011C000697374616E636520286D6D293A2000464D
:1011D000696C616D656E742072756E6F7574200038
:1011E0004F666673657473204170706C6965640046
:1011F0004572723A20546F6F206661722100546FFD
:101200006F206661722066726F6D2072656665720E
:10121000656E636520706F696E740A0045455052B3
:101220004F4D204F4B0A00506F7765722D6C6F73D6
:1012300073207265636F7665727920004D383400D3
:10124000446F6E65207072696E74696E672066699E
:101250006C650A004D3737004D3331004361703AF9
:10126000004D4541545041434B00434F4F4C455274
:101270005F54454D504552415455524500434841F5
:101280004D4245525F54454D50455241545552458B
:1012900000424142595354455050494E4700415233
:1012A0004353004D4F54494F4E5F4D4F44455300FB
:1012B000544845524D414C5F50524F544543544958
:1012C0004F4E004C4F4E475F46494C454E414D45B1
:1012D000004155544F5245504F52545F53445F5351
:1012E00054415455530053445F575249544500529A
:1012F0004550454154005344434152440050524FDD
:101300004D50545F535550504F525400454D455227
:1013100047454E43595F5041525345520043415354
:10132000455F4C494748545F4252494748544E45EF
:10133000535300544F47474C455F4C49474854531B
:1013400000534F4654574152455F504F5745520046
:101350004255494C445F50455243454E54004C451C
:1013600056454C494E475F44415441005A5F5052E4
:101370004F42450052554E4F5554004155544F4C25
:101380004556454C005052494E545F4A4F4200501A
:10139000524F4752455353004155544F5245504FB9
:1013A00052545F54454D5000564F4C554D45545284
:1013B000494300454550524F4D0042494E41525914
:1013C0005F46494C455F5452414E53464552005387
:1013D000455249414C5F584F4E5F584F4646004674
:1013E00049524D574152455F4E414D453A4D61720C
:1013F0006C696E20322E302E375F4457372E3320E3
:10140000426F6E64746563682053534D444E4E20A2
:101410002841707220323520323032312030303A5B
:1014200032393A33342920534F555243455F434FA5
:1014300044455F55524C3A68747470733A2F2F6765
:1014400069746875622E636F6D2F496E73616E6982
:1014500074794175746F6D6174696F6E2F4D61722F
:101460006C696E2F747265652F437265616C697467
:10147000794477696E5F322E302050524F544F437B
:101480004F4C5F56455253494F4E3A312E30204D06
:10149000414348494E455F545950453A44445820C9
:1014A0004352313056322045585452554445525FCC
:1014B000434F554E543A3120555549443A6365647B
:1014C00065326132662D343161322D343734382D36
:1014D000396231322D6335356336326633363766DD
:1014E000660A0043616E6E6F74206F70656E2073C4
:1014F000756264697220002569730025696D202575
:101500006973002569682025696D202569730025A8
:101510006964202569682025696D20256973002587
:10152000697920256964202569682025696D202551
:1015300069730023646566696E65204445464155BC
:101540004C545F00626564004B6420004B692000CE
:101550004B702000504944204175746F74756E655E
:101560002066696E69736865642120507574207403
:101570006865206C617374204B702C204B6920616E
:101580006E64204B6420636F6E7374616E7473209D
:1015900066726F6D2062656C6F7720696E746F2064
:1015A000436F6E66696775726174696F6E2E680A43
:1015B00000504944204175746F74756E65206661F2
:1015C000696C6564212074696D656F75740A0050DB
:1015D0004944204175746F74756E65206661696C4D
:1015E0006564212054656D70657261747572652043
:1015F000746F6F20686967680A00204B643A2000A6
:10160000204B693A2000204B703A200020436C6147
:101610007373696320504944200A00204E6F206F85
:1016200076657273686F6F740A002054753A2000F3
:10163000204B753A2000206D61783A2000206D69BA
:101640006E3A200020643A200020626961733A20DB
:1016500000504944204175746F74756E6520737431
:101660006172740A00504944204175746F74756E3C
:1016700065206661696C6564212054656D706572D2
:10168000617475726520746F6F20686967680A00FD
:10169000504944204175746F74756E65005049441B
:1016A000204175746F74756E65206661696C656440
:1016B0002120426164206865617465722069640A52
:1016C000004572723A207574663820666F6E742019
:1016D0006E6F7420696E697469616C697A65642ED5
:1016E000004572723A207574663820666F6E7420F9
:1016F0006E6F7420696E697469616C697A65642EB5
:10170000004572723A207574663820666F6E7420D8
:101710006E6F7420696E697469616C697A65642E94
:1017200000000C0F00FE07022503BB017FFE08FE30
:1017300008FE05080806000040F0C8888898781060
:10174000050808060000C0F88888888888F805051C
:10175000050600012030F8302005080806000020AA
:1017600070F820202020E00509090600FF2070A85D
:10177000A8B888887020070505070001D86C366C6A
:10178000D80509090600FFF8A88888888888A8F87D
:10179000050A0A0600FE205050505088A8A88870FC
:1017A00003030306000340A040FFFFFFFFFFFFFF0E
:1017B000FFFFFFFFFFFFFFFFFFFFFFFFFFFFFF0038
:1017C00000000605FF010707060200808080808078
:1017D0000080030303060105A0A0A005060606007D
:1017E0000050F85050F8500509090600FF2070A875
:1017F000A07028A87020050707060000C8C81020A0
:1018000040989805070706000040A0A040A89068EF
:101810000103030602058080800309090601FF20F9
:1018200040408080804040200309090601FF80403D
:101830004020202040408005070706000020A870B7
:101840002070A8200505050600012020F8202002B0
:1018500003030601FFC04080050101060003F802F2
:101860000202060100C0C0050707060000081010AC
:1018700020404080050707060000708898A8C888A7
:101880007003070706010040C040404040E00507E4
:1018900007060000708808102040F80507070600BA
:1018A00000F808103008887005070706000010309F
:1018B0005090F81010050707060000F880F008089F
:1018C0008870050707060000304080F088887005A2
:1018D0000707060000F8081010202020050707065B
:1018E00000007088887088887005070706000070FF
:1018F000888878081060020505060100C0C000C095
:10190000C00206060601FFC0C000C04080030505F6
:101910000601012040804020050303060002F80074
:10192000F8030505060101804020408005070706F1
:1019300000007088102020002005070706000070B6
:1019400088B8A8B88070050707060000708888F876
:10195000888888050707060000F04848704848F066
:1019600005070706000070888080808870050707DB
:10197000060000F04848484848F005070706000000
:10198000F88080F08080F8050707060000F8808066
:10199000F0808080050707060000708880809888A6
:1019A00070050707060000888888F888888803077C
:1019B00007060100E04040404040E0050707060000
:1019C000003810101010906005070706000088907E
:1019D000A0C0A09088050707060000808080808056
:1019E00080F805070706000088D8A8888888880539
:1019F00007070600008888C8A89888880507070692
:101A0000000070888888888870050707060000F045
:101A10008888F08080800507070600007088888825
:101A2000A89068050707060000F08888F0A0908855
:101A30000507070600007088807008887005070792
:101A4000060000F8202020202020050707060000BF
:101A50008888888888887005070706000088888835
:101A60008850502005070706000088888888A8A8A5
:101A70005005070706000088885020508888050711
:101A80000706000088885020202020050707060050
:101A900000F80810204080F80309090601FFE080E3
:101AA000808080808080E00507070600008040403D
:101AB000201010080309090601FFE0202020202043
:101AC0002020E005030306000520508805010106DB
:101AD00000FEF80303030601058040200505050606
:101AE000000070087888780507070600008080F0FD
:101AF000888888F0050505060000708080887005DC
:101B00000707060000080878888888780505050614
:101B100000007088F080700507070600003048401C
:101B2000E04040400507070600FE70888888780876
:101B3000700507070600008080F088888888030702
:101B4000070601004000C0404040E00409090601CA
:101B5000FE100030101010109060050707060000FE
:101B600080808890E09088030707060100C040400D
:101B7000404040E0050505060000D0A8A8A8A8053B
:101B80000505060000B0C888888805050506000020
:101B900070888888700507070600FEF0888888F03E
:101BA00080800507070600FE788888887808080581
:101BB0000505060000B0C880808005050506000008
:101BC00078807008F00507070600002020F8202024
:101BD0002018050505060000888888986805050511
:101BE00006000088888850200505050600008888C2
:101BF000A8A8500505050600008850205088050754
:101C0000070600FE888888502040800505050600EC
:101C100000F8102040F80309090601FF2040404069
:101C200080404040200109090602FF8080808080BA
:101C3000808080800309090601FF804040402040E9
:101C400040408005030306000248A890FF554E4C13
:101C50004F41442046494C414D454E54004C4F4164
:101C6000442046494C414D454E540046494C414D57
:101C7000454E54204348414E474500426564004567
:101C80006E636C6F73757265002568753A25303226
:101C900068750025303268753A2530326875002045
:101CA0002020202020200020202020001FE02010C5
:101CB000201020101020102020102010303008405C
:101CC000048003001FE03FF03FF03FF01FE01FE003
:101CD0003FF03FF03FF00FC0078003003FFFF038B8
:101CE000007030FC3020FC102078102030102C00C8
:101CF000D02E31D02F7BD02F7BD02E31D02C00D0C6
:101D000020301020781020FC1030FC303800703F5C
:101D1000FFF03FFFF03800703186302387102787AF
:101D2000902F87D02F03D0203010207810207810EB
:101D30002030102F03D02F87D02787902387103192
:101D400086303800703FFFF01FFFF81FFFF80410C7
:101D500040020820020820041040082080104100A2
:101D60001041000820800410400000001FFFF81FF1
:101D7000FFF8FFFFFF8000018E00E19F01F19381DA
:101D8000399F81F99F81F99FB9F98F28F180380136
:101D90008000019FFFF99174999B06A99B54A99B10
:101DA00056A99B54999FFFF9FFFFFF6E6F746966F8
:101DB00069636174696F6E200063616E63656C00B6
:101DC0005072696E742041626F7274656400446978
:101DD000736D6973730055492041626F7274656455
:101DE000004D323520500A4D323400526573756D06
:101DF00065005549205061757365005061757369C0
:101E00006E672E2E2E00726573756D65004D32342F
:101E10000052756E6F75742044697374206D6D0087
:101E20004C6F6164206D6D00556E6C6F6164206D48
:101E30006D0046696C2E204469612E004520696E54
:101E4000206D6D5E33004D333033205531204525F4
:101E5000692053256900504944204175746F747599
:101E60006E65202A005049442D44202A00504944E0
:101E70002D49202A005049442D50202A00200820B6
:101E800046616374002008204D6178002008204DD1
:101E9000696E004F6666004F6E004175746F746521
:101EA0006D70005654726176204D696E00566D69F2
:101EB0006E00566D6178204500566D6178205A009D
:101EC000566D6178205900566D6178205800416D3B
:101ED0006178204500416D6178205A00416D61783C
:101EE000205900416D6178205800412D547261766F
:101EF000656C00412D5265747261637400416363C7
:101F0000656C0056652D4A65726B00565A2D4A6500
:101F1000726B0056592D4A65726B0056582D4A65F2
:101F2000726B00452073746570732F6D6D005A20BD
:101F300053746570732F6D6D005920537465707301
:101F40002F6D6D00582053746570732F6D6D0041B7
:101F50006476616E6365642053657474696E67733B
:101F6000003F0043616E63656C00496E6974004D0B
:101F700034323800496E697469616C697A6520454C
:101F80004550524F4D0046696C616D656E7400544A
:101F9000656D7065726174757265005374657073F8
:101FA0002F6D6D004A65726B00416363656C6572ED
:101FB0006174696F6E0056656C6F63697479005364
:101FC000657420486F6D65204F6666736574730095
:101FD000436F6E66696775726174696F6E003F006A
:101FE0004E65787420506F696E7400446F6E6500A2
:101FF0004E657874004C6576656C696E6720446F39
:102000006E6521004D6F7665205A00473239533294
:10201000004E65787420506F696E74002569202F1A
:102020002025750047323953310047323953320089
:10203000436C69636B20746F20426567696E00486A
:102040006F6D696E672058595A005A2056616C7539
:102050006500496E646578205900496E6465782092
:10206000580053746F72652053657474696E67739A
:10207000004C6F61642053657474696E6773004C23
:102080006576656C20436F726E657273004265649D
:10209000205A004661646520486569676874004F8E
:1020A0006666004F6E00426564204C6576656C691B
:1020B0006E670045646974204D657368004C6576F1
:1020C000656C20426564004D6F74696F6E003F005F
:1020D00043616E63656C204F626A656374004E4FA6
:1020E000005945530043616E63656C204F626A6519
:1020F0006374203D004D61696E00426564004E6F5F
:102100007A7A6C650046616E2053706565640043A1
:102110006F6E66696775726174696F6E0052657380
:10212000746F72652044656661756C7473004C6FE2
:1021300061642053657474696E67730053746F72C1
:10214000652053657474696E6773005072656865C5
:102150006174202420436F6E6600506F7765722093
:102160004F7574616765004F6666004F6E0052756B
:102170006E6F75742053656E736F72004164766183
:102180006E6365642053657474696E6773004D6196
:10219000696E004D37303220542564004D363030A2
:1021A00020423020542564004D373032203B2564D6
:1021B000004D37303120542564004D373032004D0A
:1021C000373031004D363030204230004D61696E7D
:1021D00000436F6E74696E7565004F6666004F6EE2
:1021E0000052756E6F75742053656E736F72005078
:1021F00075726765206D6F726500524553554D4588
:10220000204F5054494F4E533A005052494E54209B
:102210005041555345440020204E6F7A7A6C653A00
:1022200020005061726B696E672E2E2E00000057E1
:1022300061697420666F720066696C616D656E74A9
:10224000206368616E676500746F207374617274D7
:10225000005761697420666F720066696C616D6514
:102260006E7420756E6C6F616400004E6F7A7A6CCC
:10227000652068656174696E6700506C656173659F
:1022800020776169742E2E2E0000507265737320C2
:10229000627574746F6E00746F2068656174206E6F
:1022A0006F7A7A6C650000496E7365727420666996
:1022B0006C616D656E7400616E642070726573731D
:1022C00020627574746F6E00746F20636F6E746932
:1022D0006E7565005761697420666F720066696C7F
:1022E000616D656E74206C6F61640000507265737F
:1022F0007320427574746F6E00746F20726573750D
:102300006D65207072696E74000057616974206693
:102310006F72207072696E7400746F2072657375CD
:102320006D652E2E2E00005761697420666F720055
:1023300066696C616D656E7420707572676500000A
:102340003E2000256C642E25696D004578747275F9
:1023500064656420546F74616C003E20004C6F6EA5
:1023600067657374204A6F622054696D65003E2072
:1023700000546F74616C205072696E742054696DE2
:102380006500436F6D706C65746564003A200050A1
:1023900072696E7420436F756E74003A2000313597
:1023A000300035004245443A204154432031303416
:1023B00047542D320052756E6177617920576174F0
:1023C00063683A204F4E004D61782054656D70006F
:1023D000343530004D696E2054656D700035004510
:1023E000313A20536C696365456E6720343530C2DD
:1023F000B043005053550047656E657269630050E5
:10240000726F746F636F6C00312E300042617564BF
:102410000032353030303000437265616C69747958
:1024200033442052414D5053004D657368204C6534
:1024300076656C696E670045787472756465727351
:102440000031007777772E626F6E64746563682E53
:1024500073650044445820435231305632003230C4
:1024600032312D30342D313800322E302E375F444A
:1024700057372E33004D61726C696E005072696E71
:1024800074657220537461747300546865726D6969
:1024900073746F727300426F61726420496E666F6D
:1024A000005072696E74657220496E666F004D61EE
:1024B000696E004D313030300053746F70205072AF
:1024C000696E7400526573756D65205072696E7423
:1024D00000506F776572204F7574616765003F002B
:1024E0004261636B0053746F70005072696E7420A8
:1024F00066726F6D204D65646961004368616E6747
:1025000065204D65646961004D32310041626F752F
:1025100074205072696E746572004368616E6765FD
:102520002046696C616D656E7400436F6E66696705
:1025300075726174696F6E0054656D706572617457
:10254000757265004D6F74696F6E00486F7374200B
:10255000537461727400526573756D6520507269B1
:102560006E74004E6F204D656469610043616E6357
:10257000656C204F626A6563740054756E65005324
:10258000746F70205072696E7400506175736520AD
:102590005072696E7400496E666F20536372656590
:1025A0006E003F005374617274205072696E740043
:1025B00043616E63656C005072696E740043616EB6
:1025C0006E6F7420656E74657220737562646972D3
:1025D0003A2000022E2E004D61696E002100486FE6
:1025E00074656E6420746F6F20636F6C6400426169
:1025F000636B0050726F63656564004F6666004FE1
:102600006E00536F667420456E6473746F70730050
:102610004D6F74696F6E0044697361626C6520531D
:1026200074657070657273004D38340042656420C3
:102630004C6576656C696E6700486F6D65205A0061
:102640004732385A00486F6D652059004732385973
:1026500000486F6D65205800473238580041757446
:102660006F20486F6D6500473238004D61696E001C
:1026700050726568656174202420456E6400507254
:1026800065686561742024204265640054656D703E
:102690006572617475726500436F6F6C646F776EFD
:1026A000005072656865617420240046616E205395
:1026B00070656564207E00426564004E6F7A7A6CB6
:1026C00065004D61696E00426162797374657020C6
:1026D0005A00466C6F770046616E205370656564E2
:1026E000207E00426564004E6F7A7A6C6500426518
:1026F00064205A005370656564004D61696E00483E
:102700006F6D696E67204661696C6564006F706506
:102710006E00545249474745524544003A200066EE
:10272000696C616D656E74007A5F6D696E00795FCA
:102730006D696E00785F6D696E005265706F7274BE
:10274000696E6720656E6473746F70207374617452
:1027500075730A0020746F6F206C6F6E6720657848
:1027600074727573696F6E2070726576656E7465CC
:10277000640A0020636F6C642065787472757369F5
:102780006F6E2070726576656E7465640A00000075
:10279000000000000000000000005761726E696ECA
:1027A000673A20486F6D696E672042756D702044EE
:1027B000697669736F72203C20310A0002020400BE
:1027C000809D4300009B430000C84300000041007F
:1027D0000000410000004000000001000000010076
:1027E000008000555555000000400033333300AAE7
:1027F000AA2A004992240000002000C7711C0099F9
:10280000991900D1451700555515003BB113002407
:1028100049120011111100000010000F0F0F00E30A
:10282000380E0043790D00CCCC0C00C3300C00E80E
:10283000A20B0064210B00AAAA0A00703D0A009DA9
:10284000D80900427B090092240900DCD3080088E3
:102850008808001042080000000800F0C107008747
:1028600087070075500700711C07003EEB0600A1AA
:10287000BC06006990060066660600703E060061B0
:1028800018060017F4050074D105005BB00500B20E
:10289000900500627205005555050078390500B8AD
:1028A0001E0500050505004EEC040087D40400A1B8
:1028B000BD040090A7040049920400C17D0400EE0D
:1028C000690400C7560400444404005C3204000854
:1028D00021040041100400000004003FF00300F850
:1028E000E0030026D20300C3C30300CCB503003AC3
:1028F000A803000A9B0300388E0300C08103009FD9
:10290000750300D0690300505E03001D53030034BB
:10291000480300913D0300333303001629030038B8
:102920001F030097150300300C0300030303000B83
:10293000FA020049F10200BAE802005CE002002D50
:10294000D802002DD0020059C80200B0C0020031E8
:10295000B90200DAB10200AAAA0200A0A30200BCD8
:102960009C0200FA9502005C8F0200DF8802008260
:10297000820200457C020027760200277002004395
:102980006A02007C640200D05E02003F590200C867
:10299000530200FFFDFCFAF8F6F4F2F0EEECEAE97F
:1029A000E7E5E3E1E0DEDCDAD9D7D5D4D2D0CFCD8C
:1029B000CBCAC8C7C5C3C2C0BFBDBCBAB9B7B6B41D
:1029C000B3B2B0AFADACAAA9A8A6A5A4A2A1A09E7F
:1029D0009D9C9A99989795949392908F8E8D8B8ABF
:1029E0008988878684838281807F7E7D7B7A7978DF
:1029F00077767574737271706F6E6D6C6B6A6968DF
:102A000067666564636261605F5E5D5C5B5A5958CE
:102A1000585756555453525150504F4E4D4C4B4AA7
:102A20004A4948474646454443424241403F3E3E6C
:102A30003D3C3B3B3A393838373635353433323222
:102A40003130302F2E2E2D2C2B2B2A2929282727C9
:102A500026252524232322212120201F1E1E1D1C64
:102A60001C1B1B1A191918181716161515141313F1
:102A700012121111100F0F0E0E0D0D0C0C0B0A0A75
:102A800009090808070706060505040403030202EE
:102A900001000000809D4300009B430000C84300EC
:102AA000000000000000000000000053657474691D
:102AB0006E67732053746F72656400454550524FC2
:102AC0004D20496E697469616C697A65640A003BDE
:102AD000200020204D363033200020440020204D9F
:102AE00034313220530046696C616D656E7420721A
:102AF000756E6F75742073656E736F723A00205532
:102B0000004C0046696C616D656E74206C6F616489
:102B10002F756E6C6F6164206C656E677468733AB4
:102B20000020204D343133205300506F7765722DD3
:102B30004C6F7373205265636F766572793A00202B
:102B4000440020490020204D3330342050002044E0
:102B50000020490020204D3330312050005049449E
:102B60002073657474696E67733A002046002048CC
:102B70000020204D3134352053004D617465726959
:102B8000616C2068656174757020706172616D653B
:102B9000746572733A002020473239205334205A2A
:102BA00000204A002020473239205333204900209A
:102BB000204D3432302053004D65736820426564E7
:102BC000204C6576656C696E673A0020204D323086
:102BD00036205800486F6D65206F66667365743ADD
:102BE0000020580020530020204D32303520420074
:102BF000416476616E6365643A20423C6D696E5F44
:102C00007365676D656E745F74696D655F75733E3E
:102C100020533C6D696E5F66656564726174653EE4
:102C200020543C6D696E5F74726176656C5F666599
:102C30006564726174653E20583C6D61785F785FB1
:102C40006A65726B3E20593C6D61785F795F6A6599
:102C5000726B3E205A3C6D61785F7A5F6A65726B79
:102C60003E20453C6D61785F655F6A65726B3E0032
:102C700020540020520020204D323034205000419A
:102C80006363656C65726174696F6E2028756E6927
:102C900074732F7332293A20503C7072696E745FDE
:102CA000616363656C3E20523C726574726163744B
:102CB0005F616363656C3E20543C74726176656C41
:102CC0005F616363656C3E0020204D3230312058D7
:102CD000004D6178696D756D20416363656C657247
:102CE0006174696F6E2028756E6974732F73322951
:102CF0003A0020204D3230332058004D6178696D04
:102D0000756D206665656472617465732028756EE3
:102D10006974732F73293A0053746570732070655A
:102D20007220756E69743A0020440020204D3230C4
:102D3000302053002044697361626C65640A004668
:102D4000696C616D656E742073657474696E677308
:102D50003A0020204D3134392043203B20556E6904
:102D6000747320696E2043656C736975730A002063
:102D7000286D6D29002020473231202020203B2063
:102D8000556E69747320696E206D6D000000FA4302
:102D90000000FA4300002041000096420000A042DB
:102DA0000000A0420000C8430080CF43DC050000C3
:102DB000DC050000640000004B00000024F4D43067
:102DC00050C38E20C2A24017828B7011127A910DCF
:102DD000816CD90AA861E108C758660761514306AA
:102DE0001E4B5D05C145A7041A411104093D980316
:102DF000713931034036DB0265339102D43054021D
:102E0000802E1D02632CEE01752AC501B028A00199
:102E1000102781018F2564012B244B01E02234010E
:102E2000AC211F018D200D01801FFC00841EED00D0
:102E3000971DDF00B81CD200E61BC600201BBC009B
:102E4000641AB200B219A8000A19A0006A18990001
:102E5000D117910040178B00B516840031167E0003
:102E6000B31579003A157300C7146F0058146A003F
:102E7000EE1366008813630025135E00C7125B0023
:102E80006C12570015125400C111510070114F00FF
:102E900021114B00D61049008D1047004610440008
:102EA00002104200C00F4000800F3E00420F3C0065
:102EB000060F3B00CB0E3800930E37005C0E35003A
:102EC000270E3400F30D3200C10D3100900D30009B
:102ED000600D2E00320D2D00050D2C00D90C2B009D
:102EE000AE0C2900850C29005C0C2700350C27004E
:102EF0000E0C2600E80B2400C40B2400A00B2300BA
:102F00007D0B23005A0B2100390B2100180B2000E8
:102F1000F80A1F00D90A1E00BB0A1E009D0A1D00E8
:102F2000800A1D00630A1C00470A1B002C0A1B00B4
:102F3000110A1A00F7091A00DD091900C40919005D
:102F4000AB091900920917007B09180063091700E3
:102F50004C09160036091600200916000A0915004A
:102F6000F5081500E0081400CC081400B808140097
:102F7000A4081400900813007D0812006B081300C9
:102F800058081200460812003408110023081100E6
:102F90001208110001081100F0071000E0071000EE
:102FA000D0071000C0071000B0070F00A1071000E5
:102FB00091070E0083070F0074070F0065070E00CE
:102FC00057070E0049070E003B070D002E070E00A5
:102FD00020070D0013070D0006070D00F9060C0071
:102FE000ED060D00E0060C00D4060C00C8060C002F
:102FF000BC060C00B0060C00A4060B0099060C00E1
:103000008D060B0082060B0077060B006C060B008A
:1030100061060A0057060B004C060A0042060A0029
:1030200038060A002E060A0024060A001A060A00BC
:103030001006090007060A00FD050900F40509004D
:10304000EB050900E2050900D9050900D0050900D2
:10305000C7050900BE050900B5050800AD05080053
:10306000A50509009C050800940508008C050800CA
:10307000840508007C050800740508006C0507003D
:10308000650508005D050700560508004E050700A8
:10309000470507004005080038050700310507000F
:1030A0002A050700230507001C0506001605070072
:1030B0000F0507000805060002050700FB040600CF
:1030C000F5040700EE040600E8040600E204070029
:1030D000DB040600D5040600CF040600C904060080
:1030E000C3040600BD040600B7040600B1040500D1
:1030F000AC040600A6040600A00405009B0406001C
:1031000095040500900406008A0405008504050066
:10311000800406007A0405007504050070040500AB
:103120006B04050066040500610405005C040500ED
:1031300057040500520405004D040500480405002D
:10314000430405003E0404003A040500350405006C
:10315000300404002C0405002704040023040500A7
:103160001E0404001A0404001604050011040400DF
:103170000D04040009040500040404000004040014
:10318000FC030400F8030400F4030400F00304004B
:10319000EC030400E8030400E4030400E00304007B
:1031A000DC030400D8030400D4030400D0030400AB
:1031B000CC030400C8030300C503030024F404D9AE
:1031C000201BC40C5C0E9804C4095F0265077101E2
:1031D000F405F900FB04B30048048700C10369004B
:1031E0005803550003034500BE023A008402310033
:1031F00053022A002902250004022000E4011C00D9
:10320000C8011900AF0117009801140084011300D0
:10321000710110006101100051010E0043010D0009
:1032200036010B002B010B0020010B0015010900DA
:103230000C01090003010800FB000800F30008006E
:10324000EB000700E4000600DE000600D8000600E0
:10325000D2000600CC000500C7000500C200050032
:10326000BD000400B9000400B5000400B100040072
:10327000AD000400A9000400A5000300A2000300A3
:103280009F0004009B0003009800030095000200CB
:1032900093000300900003008D0002008B000300E8
:1032A0008800020086000200840003008100020002
:1032B0007F0002007D0002007B0002007900020016
:1032C0007700010076000200740002007200010025
:1032D000710002006F0002006D0001006C0002002E
:1032E0006A00010069000200670001006600010039
:1032F000650001006400020062000100610001003D
:10330000600001005F0002005D0001005C00010040
:103310005B0001005A000100590001005800010043
:103320005700010056000100550001005400010043
:103330005300000053000100520001005100010041
:10334000500001004F0001004E0000004E0001003F
:103350004D0001004C0001004B0000004B0001003B
:103360004A00010049000100480000004800010037
:103370004700010046000000460001004500000033
:10338000450001004400010043000000430001002B
:103390004200000042000100410000004100010025
:1033A000400001003F0000003F0001003E0000001F
:1033B0003E0001003D0000003D0001003C00000017
:1033C0003C0000003C0001003B0000003B0001000D
:1033D0003A0000003A000100390000003900010005
:1033E00038000000380000003800010037000000FD
:1033F00037000100360000003600000036000100F2
:1034000035000000350000003500010034000000E8
:1034100034000000340001003300000033000000DD
:1034200033000100320000003200000032000100D1
:1034300031000000310000003100010030000000C8
:1034400030000000300001002F0000002F000000BD
:103450002F0000002F0001002E0000002E000000B1
:103460002E0001002D0000002D0000002D000000A6
:103470002D0001002C0000002C0000002C0000009A
:103480002C0001002B0000002B0000002B0000008E
:103490002B0001002A0000002A0000002A00000082
:1034A0002A00010029000000290000002900000076
:1034B0002900000029000100280000002800000069
:1034C000280000002800000028000100270000005C
:1034D000270000002700000027000000270001004F
:1034E0002600000026000000260000002600000044
:1034F0002600010025000000250000002500000036
:103500002500000025000000250001002400000027
:10351000240000002400000024000000240001001A
:10352000230000002300000023000000230000000F
:1035300023000000230000002300010022000000FF
:1035400022000000220000002200000022000000F3
:1035500022000100210000002100000021000000E5
:1035600021000000210000002100000021000100D6
:1035700020000000200000002000000020000000CB
:1035800020000000200000002000000020000100BA
:103590001F0000001F0000001F0000001F000000AF
:1035A0001F0000001F0000001F0001001E0000009F
:1035B0001E0000001E0000001E0000003930000048
:1035C0003325000087190000B00F0000DB08000061
:1035D000BD040000740200003F01000020436F752D
:1035E0006E7420583A00426564004531006265649B
:1035F000002C2073797374656D2073746F7070651F
:103600006421204865617465725F49443A2000482E
:10361000656174696E67204661696C656400486520
:103620006174696E67206661696C6564004D313153
:10363000322053687574646F776E001000C90210F1
:10364000012C014001220170011801B0010E01F0AE
:103650000104015002FA00B002F0003003E600D08D
:1036600003DC009004D2007005C800A006BE000074
:1036700008B400B009AA00D00BA000600E9600604C
:10368000118C000015820020197800C01D6E00A06A
:10369000226400B0275A00902C500000314600E010
:1036A000343C0010383200903A2800603C1E00A0E4
:1036B0003D1400803E0A00203F0000544845524D12
:1036C000414C2052554E4157415900546865726D26
:1036D000616C2052756E61776179004572723A2093
:1036E0004D415854454D50004D415854454D502082
:1036F000747269676765726564004572723A204D3D
:10370000494E54454D50004D494E54454D5020743E
:10371000726967676572656400202F002042403A35
:103720000020403A0020573A0020573A00496E7670
:10373000616C69642065787472756465720A007CD6
:103740003C3E5E2B3D3F2F5B5D3B2C2A225C0043C1
:10375000616E6E6F74206F70656E20737562646940
:1037600072200041425300504C4100534420496EA6
:103770006974204661696C0053442063617264205F
:103780006F6B0A006F70656E526F6F7420666169AF
:103790006C65640A00766F6C756D652E696E697470
:1037A000206661696C65640A004E6F205344206393
:1037B0006172640A000A4D3234004D3233202573A1
:1037C000002E0A006F70656E206661696C65642C5E
:1037D0002046696C653A200046696C652073656C0B
:1037E00065637465640A002053697A653A2000466F
:1037F000696C65206F70656E65643A2000454E44C3
:1038000020535542524F5554494E450A00222070CC
:103810006F73002220706172656E743A22005355F6
:1038200042524F5554494E452043414C4C207461FF
:10383000726765743A220053756263616C6C204F45
:10384000766572666C6F770045786365656465645C
:10385000206D617820535542524F5554494E4520B2
:1038600064657074683A002E0A0044656C6574697A
:103870006F6E206661696C65642C2046696C653AE0
:10388000200046696C652064656C657465643A0067
:103890005344207072696E74696E67206279746532
:1038A00020004E6F74205344207072696E74696EEC
:1038B000670A002F6175746F25632E670057726960
:1038C00074696E6720746F2066696C653A200066C3
:1038D0007265736800646F696E67002066696C6565
:1038E0003A20004E6F772000020000000000000028
:1038F00000000000000000000000000000000000C8
:1039000000000000000000000000000000000000B7
:1039100000000000000000000000000000000000A7
:103920000000000000000000000000000000000097
:103930000000000000000000000000000000000087
:103940000000000000000000000000000000000077
:103950000000000000000000000000000000000067
:103960000000000000000000000000000000000057
:103970000000000000000000000000000000000047
:103980000000000000000000000000000000000037
:103990000000000000000000000000000000000027
:1039A0000000000000000000000003FFF000000025
:1039B000000000000000000000001FFFE000000009
:1039C000000000000000000000003FC07C0000007C
:1039D000000000000000000000007C0FFF800000DD
:1039E00000000000000000000000F87FFFE0000081
:1039F00000000000000000000001F0FFFF78000060
:103A000000000000000000000001E1FFFFBC001FFB
:103A1000FF83FFE1F00E3FFF0001E3FFFFEE001F19
:103A2000FFC7FFF1F80E3FFFC001C3FF8FF7001E75
:103A300003CF0071FC0E3C03E001C3FE01FB801EBE
:103A400003CE0079DE0E3C01E001C7FC007DC01F03
:103A5000FF8E0079CF0E3C01E001C7FC003EE01F65
:103A6000FFCE0079C7CE3C01E001E7FC001F701ECD
:103A700001CE0079C1EE3C01E001E7FC000FB81E69
:103A800001CF0079C0FE3C01E000E3FC0007F81F15
:103A9000FFC7FFF1C07E3FFFC000F3FC0007DC1F43
:103AA000FF87FFE1C03E3FFF800073FE0003EC0F85
:103AB000F800FF00000C1FF0000071FE0003EE0094
:103AC0000000000000000000000039FF0003F600C5
:103AD0000000000000000000000618FF8003F7004F
:103AE000000000000000000000071CFFC003F71FDB
:103AF000FFDFFF1FFE1C01C000030E7FE007F31F66
:103B0000FFDFFF3FFF1C01C00001863FF807FB00FD
:103B1000701C0038079C01C00001C33FFFFFFB0081
:103B2000701C0038039C01C00000F39FFFFFFB00E6
:103B3000701FFF38001FFFC00000798FFFFFF78064
:103B4000701FFF38001FFFC000007CC7FFFFF78019
:103B5000701C0038079C01C000003F01FFFFED8092
:103B6000701C0038079C01C000001FE0FFFFED80C3
:103B7000701FFF3FFF1C01C000001FF03FFFCD0082
:103B8000701FFF1FFE1C01C000000FFC0FFF1D0077
:103B90000000000000000000000007FE01FC1B0008
:103BA0000000000000000000000003FF80003B0058
:103BB0000000000000000000000001FFF000FB001A
:103BC0000000000000000000000000FFFFFFF00008
:103BD00000000000000000000000003FFFFFE000C8
:103BE00000000000000000000000001FFFFFC000F8
:103BF000000000000000000000000007FFFF800040
:103C0000000000000000000000000001FFFF0000B5
:103C10000000000000000000000000003FF800006D
:103C20000000000000000000000000000000000094
:103C30000000000000000000000000000000000084
:103C40000000000000000000000000000000000074
:103C50000000000000000000000000000000000064
:103C60000000000000000000000000000000000054
:103C70000000000000000000000000000000000044
:103C80000000000000000000000000000000000034
:103C90000000000000000000000000000000000024
:103CA0000000000000000000000000000000000014
:103CB0000000000000000000000000000000000004
:103CC00000000000000000000000000000000000F4
:103CD00000000000000000000000000000000000E4
:103CE0000000000000000000006D61726C696E66EB
:103CF000772E6F726700322E302E375F4457372E83
:103D000033001FFFFFFFFFFFFF600000000001FF07
:103D1000400000000000FF8000000000007F83CF13
:103D200000000C303F87FF80000C301F8679800038
:103D30000C000F8C30C7838C30E78C30CFC7CC3170
:103D4000F38C30DCECEC33B98C30D86C6C33198CE0
:103D500030D06C0C33198C30D86C0C33198C30DCAF
:103D60006C0E3B198C30CF7C079F198C30C77C03BD
:103D70008F194000000000000260000000000006F3
:103D80001FFFFFFFFFFFF86001F4017001EA0190DF
:103D900001E001B001D601D001CC010002C2013026
:103DA00002B8016002AE019002A401D0029A012083
:103DB00003900170038601C0037C0130047201A0EE
:103DC00004680120055E01B005540160064A012027
:103DD000074001F0073601F0082C01100A220150BB
:103DE0000B1801C00C0E01500E04013010FA002017
:103DF00012F0005014E600C016DC007019D200501A
:103E00001CC800501FBE007022B400B025AA00F0EC
:103E100028A000202C9600302F8C0010328200A0A9
:103E2000347800F0366E00E0386400803A5A004082
:103E30003B5500E03B5000F03C4600C03D3C00607C
:103E40003E3200E03E2800303F1E00503F19007017
:103E50003F1400A03F0A00C03F0000D03FF6FFE043
:103E60003FECFF2020506C616E6E65724275666695
:103E7000657242797465733A200020467265652048
:103E80004D656D6F72793A2000436F6D70696C6596
:103E9000643A2041707220323520323032310A00CB
:103EA000204C61737420557064617465643A2032EB
:103EB0003032312D30342D3138207C2041757468FA
:103EC0006F723A20426F6E6474656368202F2049D8
:103ED0006E73616E6974794175746F6D6174696F29
:103EE0006E0A00322E302E375F4457372E330A00C9
:103EF0004D61726C696E0020536F667477617265F4
:103F00002052657365740A00205761746368646F9A
:103F1000672052657365740A002042726F776E20C5
:103F20006F75742052657365740A00204578746556
:103F3000726E616C2052657365740A00506F77650C
:103F40007255700A0073746172740A0047323858EF
:103F500059004D31303031006572726F72207772C6
:103F60006974696E6720746F2066696C650A004425
:103F70006F6E6520736176696E672066696C652E69
:103F80000A004D323900456E6473746F70730025FA
:103F90005320256320256320256320256300205AB4
:103FA0003A0020593A0020583A00656E6473746FE5
:103FB0007073206869743A200000000A0B02090C33
:103FC0000D0E0807030401000000000000000000BF
:103FD00000000000000000000000000000000000E1
:103FE000000000000012111000000000000000009E
:103FF00000000000000000000000000000000000C1
:104000004D6F76652025736D6D004D6F76652030A0
:104010002E316D6D004D6F766520316D6D004D6FE9
:1040200076652031306D6D004D6F76652041786981
:1040300073004578747275646572004D6F76652003
:104040005A004D6F76652059004D6F7665205800F7
:10405000673763374368616E67652046696C616DD9
:10406000656E7400556E6C6F61642046696C616D9D
:10407000656E74004C6F61642046696C616D656E9D
:1040800074005072656865617420437573746F6D58
:1040900000507265686561742024004261636B00A2
:1040A000FFFFFF486F6D652025732573257320463C
:1040B000697273740073686F7700627574746F6EE1
:1040C00000626567696E0044697361626C65527570
:1040D0006E6F75740050757267654D6F7265005034
:1040E000617573656400436F6E74696E7565004C2D
:1040F0006F61642046696C616D656E74205400497F
:104100006E736572742066696C616D656E74206192
:104110006E642073656E64204D3130380A00220AC7
:1041200000556E6B6E6F776E20636F6D6D616E64A0
:104130003A2022002042002050006F6B0044445877
:10414000204352313056322052656164792E00503E
:1041500072696E74696E672E2E2E005072696E74CD
:104160002050617573656400204500205A00205975
:1041700000204D393220580020453A00205A3A009C
:1041800020593A00583A0020746F6F206C6F6E67A8
:1041900020657874727573696F6E207072657665CC
:1041A0006E7465640A0020636F6C642065787472B5
:1041B0007573696F6E2070726576656E7465640ADA
:1041C00000526573656E643A20006E6F74696669AB
:1041D000636174696F6E20000000220025002800D2
:1041E0002B002E00310034000201000005010801FF
:1041F0000B0100002100240027002A002D003000C0
:10420000330001010000040107010A01050505054D
:10421000070508080808020202020A0A080804043E
:10422000040401010101010101010303030303036C
:104230000303040707070C0C0C0C0C0C0C0C0202FB
:10424000020206060606060606060B0B0B0B0B0BF8
:104250000B0B010210202008081020401020408085
:10426000020102010804020101020408102040803A
:1042700080402010080402018004020180402010C8
:104280000804020108040201010204081020408011
:1042900001020408102040809A01320111241FBE3F
:1042A000CFEFD1E2DEBFCDBF00E00CBF13E0A0E056
:1042B000B2E0EEE4F5EB02E00BBF02C007900D9216
:1042C000A836B107D9F728E1A8E6B3E001C01D92EE
:1042D000AC30B207E1F711E2CDE4D1E200E006C074
:1042E00021970109802FFE010F94FD56CC34D10790
:1042F00080E00807A9F70F94C2450D94955A0C94D5
:104300000000FC0184910895FC01808108951198BA
:10431000000000009091020187FD909591709093AC
:104320000001119A00000000000000001198000038
:1043300000009091020186FD90959170909300018C
:10434000119A000000000000000011980000000019
:104350009091020185FD9095917090930001119AC2
:104360000000000000000000119800000000909183
:10437000020184FD9095917090930001119A0000C4
:104380000000000000001198000000009091020160
:1043900083FD9095917090930001119A00000000A8
:1043A000000000001198000000009091020182FDC1
:1043B0009095917090930001119A00000000000008
:1043C00000001198000000009091020181FD90957D
:1043D000917090930001119A00000000000000000D
:1043E000119800000000809102018170809300010B
:1043F000119A0000000000000000089590E080E0A5
:104400000895CF93DF93DB01F9019C919130C1F0C6
:10441000943080F094509C938830D1F480819181C5
:10442000009771F0019791838083480F591FEA012B
:10443000188206C08C3539F49C5F9C93943041F40B
:10444000DF91CF9108958B3339F781E08C93F8CFCA
:1044500020813181B9016F5F7F4F71836083420F8B
:10446000531FEA018883808191818F3591056CF714
:10447000E7CF0F931F9381E00091D5151091D615CA
:104480002091D7153091D8154091D1155091D21562
:104490006091D3157091D4150417150726073707B7
:1044A00008F480E01F910F91089590E080E0089556
:1044B000282F90916008833021F495FD0FC094FD62
:1044C0000FC0892F90E0B0E0A0E004C0B695A7959A
:1044D000979587952A95D2F78170089581E0089580
:1044E00080E0089510924708809151029091520205
:1044F000A0915302B09154028093390690933A06EA
:10450000A0933B06B0933C060895129A0895269A0C
:104510002E9A0895AF92BF92CF92DF92EF92FF92C0
:104520000F931F93CF93DF936B01E9014A3009F496
:10453000C1C0453109F073C0DB011296ED91FC91C9
:10454000F280C681D781809102018095827080932C
:10455000000188E28A950000E9F7BF2CB29420EFB1
:10456000B22230E1A32EAF0C48E2E42E88EF0E9485
:1045700087218E2D8A950000E9F7BFE1BF1508F469
:1045800085C08F2D807780680E9487218B2D0E94A7
:1045900087218E2D8A950000E9F780E80E94872107
:1045A00080E00E9487218E2D8A950000E9F78AEF2E
:1045B0000E9487218E2D8A950000E9F78E01005F09
:1045C0001F4F8881807F0E94872189918295807FFB
:1045D0000E948721C017D107A1F78E2D8A95000070
:1045E000E9F7F394E0E1BE0EFA10C0CF809102012A
:1045F000827080930001D6011296CD91DC91CE019C
:104600000F94DA38811147C2DF91CF911F910F913A
:10461000FF90EF90DF90CF90BF90AF900895FB0197
:1046200002811381423309F4F1C108F4F5C1463423
:1046300009F4E2C1473409F4E5C14B3329F5898116
:104640002B81D80112966C91129713964C912130C0
:1046500009F438C2233009F002C238EF380F582F5E
:1046600091E0431708F490E041E0531708F040E070
:1046700031E0561708F430E0592F542B352309F058
:1046800016C2942309F013C281E0BECF80EE8F0DD5
:104690008068807F0E9487218F2D8295807F0E9475
:1046A00087218E2D8A950000E9F780E80E948721F6
:1046B00080E877CF80910101826080930101809131
:1046C00002018270809300018091010181608093DA
:1046D000010180910201817080930001099A119A71
:1046E00080910201809582708093000188E28A9512
:1046F0000000E9F788E790E0CEE9DFE0FE013197BE
:10470000F1F70197D9F788EF0E94872118E2812FEE
:104710008A950000E9F780E20E94872180E00E94EC
:104720008721812F8A950000E9F780E00E94872188
:1047300080E80E948721812F8A950000E9F780E0B8
:104740000E94872180E10E948721812F8A950000A5
:10475000E9F7CE010197F1F7CE010197F1F7CE010C
:104760000197F1F7CE010197F1F7CE010197F1F72B
:10477000CE010197F1F7CE010197F1F7CE01019734
:10478000F1F7CE010197F1F7CE010197F1F7CE01D4
:104790000197F1F7CE010197F1F7CE010197F1F7FB
:1047A000CE010197F1F72197F1F780E20E9487216E
:1047B00080E40E948721812F8A950000E9F780E23A
:1047C0000E94872180E60E9487211A950000E9F760
:1047D00010E0D0E0C8E28D2F807780680E948721AA
:1047E000812F0E9487218C2F8A950000E9F780E8AD
:1047F0000E94872180E00E9487218C2F8A950000EB
:10480000E9F78AEF0E9487218C2F8A950000E9F74B
:1048100090E2119800000000809102018170809365
:104820000001119A00000000000000001198000033
:10483000000080910201817080930001119A0000B4
:1048400000000000000011980000000080910201AB
:10485000817080930001119A0000000000000000A8
:104860001198000000008091020181708093000186
:10487000119A0000000000000000119800000000E4
:1048800080910201817080930001119A0000000064
:10489000000000001198000000008091020181706A
:1048A00080930001119A00000000000000001198A0
:1048B0000000000080910201817080930001119A34
:1048C000000000000000000011980000000080912E
:1048D0000201817080930001119A00000000000025
:1048E0000000119800000000809102018170809307
:1048F0000001119A00000000000000001198000063
:10490000000080910201817080930001119A0000E3
:1049100000000000000011980000000080910201DA
:10492000817080930001119A0000000000000000D7
:1049300011980000000080910201817080930001B5
:10494000119A000000000000000011980000000013
:1049500080910201817080930001119A0000000093
:104960000000000011980000000080910201817099
:1049700080930001119A00000000000000001198CF
:104980000000000080910201817080930001119A63
:10499000000000000000000011980000000080915D
:1049A0000201817080930001119A00000000000054
:1049B00000008C2F8A950000E9F7915009F029CF6B
:1049C00088EF0E9487218C2F8A950000E9F7DF5F2E
:1049D000105FD03209F0FFCE80E00E94872180EC8A
:1049E0000E948721CA950000E9F780910201827038
:1049F0008093000181E008CED80115968C918883C0
:104A000081E002CEF80181818883FACFB901C80123
:104A10000F94F73881E0F8CD443171F0473109F057
:104A200033CE1882F80182818983858181508A83FF
:104A300083818B8381E0E8CDD80115964C91159741
:104A400050E0440F551F70E060E016968D919C91E8
:104A50000F94365AC8010F94F03881E0D5CD48172D
:104A600008F412CE861708F40FCEFA80E12CD12C70
:104A7000243070F41DC0BE01C8010F94F73889813D
:104A800098819D0D98838E0D8983FF0C09F4FCCDD0
:104A9000F7FEF6CFF0CF4D8150E0440F551F70E088
:104AA00060E08E819F810F94365A81E0ADCDFA800F
:104AB00030E0F901ED55FD4FD08021563D4FF90111
:104AC000E080E6CF58E0580F382FCACDEF92FF9222
:104AD0000F931F93CF93DF93EC018B017A018A85AB
:104AE0009B858617970731F0888199810F94D03A7A
:104AF0001B870A87B701888199810F94BF2C2E816B
:104B00003F81820F932F911D9F838E8390E080E0E1
:104B1000DF91CF911F910F91FF90EF9008959F9299
:104B2000AF92BF92CF92DF92EF92FF920F931F93BB
:104B3000CF93DF93EC018B01942EA52E8A859B8564
:104B40008617970731F0888199810F94D03A1B8797
:104B50000A8788859985019649F5BC800A818E81EE
:104B6000080FC880D980D6015596ED91FC91C601F9
:104B70001995B80EE92CFA2C10E0F70121917F016C
:104B8000211127C08E819F81810F911D9F838E836C
:104B900090E080E0DF91CF911F910F91FF90EF9017
:104BA000DF90CF90BF90AF909F9008950E811F81AE
:104BB000692D7A2D888199810F94BF2C800F912FB8
:104BC000911D288539852817390738F681E090E04E
:104BD000E1CF4B2D602FC6010F94283B080F180F13
:104BE000CCCFDF92EF92FF920F931F93CF93DF937F
:104BF000EC01D62E1CAD0BAD7C0184E0E80EF11C5F
:104C0000E98DFA8DC7011995412F480F2D2D602F81
:104C1000C7010F94283B9BAD890F8BAF81E090E0DB
:104C2000DF91CF911F910F91FF90EF90DF9008954A
:104C3000AB01BC014093D5155093D6156093D715A1
:104C40007093D8158CE397E10C947DCF8093230269
:104C50008032B8F590910405891724F091E0980FFF
:104C60009093040540910005509101056091020563
:104C700070910305082E04C0769567955795479562
:104C80000A94D2F741704093980F87FD1DC0282FDA
:104C9000082E000C330B3F938F9386E899E09F9387
:104CA0008F9386E999E09F938F931F920E94BCB3E4
:104CB0008DB79EB707960FB6F8949EBF0FBE8DBFF7
:104CC00008951092980FE1CF0D9448400F931F93D1
:104CD000CF93DF9300D01F92CDB7DEB79C010EE2D9
:104CE00018E090E1E3EEFFE0D80101900D929A9573
:104CF000E1F7F9012081318142815381F80160851A
:104D00007185828593850F940657F80160877187B6
:104D10008287938780E090E0A0EAB0E489839A8359
:104D2000AB83BC83CE0101960E9401F80F900F90D7
:104D30000F900F90DF91CF911F910F9108952F92B7
:104D40003F924F925F926F927F928F929F92AF921B
:104D5000BF92CF92DF92EF92FF921F93CF93DF9398
:104D6000CDB7DEB72C970FB6F894DEBF0FBECDBF20
:104D70007A011901DC012D913D914D915C912D83BA
:104D80003E834F835887FB0140805180628073804F
:104D90008090E30F9090E40FA090E50FB090E60FA5
:104DA000A50194016D817E818F8198850F941450A7
:104DB00081110EC011E0A30192016091E70F709183
:104DC000E80F8091E90F9091EA0F0F941450811130
:104DD00010E0D1012D913D914D915C9129873A8749
:104DE0004B875C87F701C080D180E280F3802091FF
:104DF000090230910A0240910B0250910C02C70146
:104E0000B6010F941450882309F44EC0C0920902D1
:104E1000D0920A02E0920B02F0920C028091EF0F06
:104E20009091F00FA091F10FB091F20F4091E70F28
:104E30005091E80F6091E90F7091EA0F80922E086F
:104E400090922F08A0923008B09231084093320817
:104E5000509333086093340870933508C092360835
:104E6000D0923708E0923808F092390880933A08D7
:104E700090933B08A0933C08B0933D0820E030E0BD
:104E800040E05FE36091C60F7091C70F8091C80F3B
:104E90009091C90F0F947A5069837A838B839C8396
:104EA000CE0101960E9401F82D813E814F815885E7
:104EB00020932E0830932F084093300850933108E8
:104EC000409232085092330860923408709235084C
:104ED000D1012D913D914D915C9160913A08709175
:104EE0003B0880913C0890913D080F9406576093D1
:104EF0003A0870933B0880933C0890933D08111149
:104F00002FC020E030E0A90169857A858B859C85DA
:104F10000F941450811133C060E070E088EC92E48B
:104F200069837A838B839C83CE0101960E9401F86A
:104F30002C960FB6F894DEBF0FBECDBFDF91CF9198
:104F40001F91FF90EF90DF90CF90BF90AF909F9018
:104F50008F907F906F905F904F903F902F9008952B
:104F60002AEF3EE74AE25FE36091CA0F7091CB0FF0
:104F70008091CC0F9091CD0F0F947A50D1CF60E0FB
:104F800070E080EA91E4CCCF8091BB049091BC04A6
:104F9000009731F04AE050E070E060E00D942F4E51
:104FA00060E070E0CB0108958091590982FF0BC049
:104FB00063E682E79AE00E94D7B30F94E4320E943E
:104FC000A2BA81E0089580E008958091BB04909199
:104FD000BC04009731F04AE050E070E060E00D94CE
:104FE000014D60E070E0CB010895AF92BF92CF9287
:104FF000DF92EF92FF920F931F93CF93DF93EC0119
:105000005B018A01FB01199587FD16C0C82ED12CC2
:10501000F12CE12C2196F801C082D182E282F38248
:10502000CE01DF91CF911F910F91FF90EF90DF9014
:10503000CF90BF90AF900895982F907E903CA9F4A8
:105040008F7190E0B0E0A0E06C017D0156E0CC0CE7
:10505000DD1CEE1CFF1C5A95D1F7CE010196F5011F
:1050600019958F73C82A2296D6CF982F907F903E9D
:1050700011F58F7090E0B0E0A0E06C017D0136E0AA
:10508000CC0CDD1CEE1CFF1C3A95D1F7CE0101962D
:10509000F50119958F73C82A46E0CC0CDD1CEE1C77
:1050A000FF1C4A95D1F7CE010296F50119958F7331
:1050B000C82A2396B0CF982F987F903F79F58770B4
:1050C00090E0B0E0A0E06C017D0186E0CC0CDD1C3E
:1050D000EE1CFF1C8A95D1F7CE010196F5011995BA
:1050E0008F73C82A96E0CC0CDD1CEE1CFF1C9A9531
:1050F000D1F7CE010296F50119958F73C82A26E0E3
:10510000CC0CDD1CEE1CFF1C2A95D1F7CE010396BA
:10511000F50119958F73C82A24967DCF982F907C1E
:10512000903841F4807C803869F42196CE01F501F5
:105130001995F8CF8E7F8D3F28F02196CE01F5018D
:105140001995F8CFC12CD12C760165CF9CE0899FB1
:10515000802D112491E0980F909305052CE0280FE5
:105160002093280830E02E5F3F4F40919F15421753
:10517000130619F014F080E008952091A1159217FC
:10518000D0F7662341F08E5F0F94EA3980912808AA
:105190008E5F0F94EA398091280890919F158917A6
:1051A00050F32091A11590910505291720F3109235
:1051B000A2158093A31581E00895CF938091F70401
:1051C000811154C01092A2151092A3151092A4152B
:1051D0001092701510926F15109272151092711531
:1051E0001092741581E08093731582E28093751597
:1051F00010927A1510927915EEE8F5E12CE935E177
:105200008FEF81932E173F07E1F7C1E0C0938B1515
:1052100020E131E03093811520938015C0938215F1
:10522000109283151092841590E490938515109236
:1052300086152AE232E030939D1520939C1526E1D5
:1052400032E030936E1520936D1597E1909392158F
:1052500091E19093931590E19093901580938F1521
:1052600080938E150F941139C093F70481E08093D9
:10527000F80481E297E190930C1580930B1510923E
:105280000E1510920D15CF9108952091F604022E5F
:10529000000C330B8217130641F08093F60461E291
:1052A00077E18BE695E10D94D03A0895CF92DF92A5
:1052B000EF92FF920F931F93CF93DF93CDB7DEB79B
:1052C0002C970FB6F894DEBF0FBECDBF6F3F7105B0
:1052D0008105910509F0D0F487E695E10E94F1255A
:1052E000E0916F15F09170153196849190E02C96B5
:1052F0000FB6F894DEBF0FBECDBFDF91CF911F91E7
:105300000F91FF90EF90DF90CF900895F090A2154D
:10531000E090A3152091F80421110FC041E057E15E
:105320006E2D8F2D0F94943B90E080E0F80EF0925C
:10533000A215E092A3159927DACFC0906F15D090EF
:1053400070152BE635E13A8329832F2D30E03C831D
:105350002B832E2D30E03E832D8318861F822FEF66
:105360003FEF3A8729871C861B860FE815E29E01CE
:105370002F5F3F4FAB01BC01C6010F946224B60101
:105380008BE695E10F94D03A8F819885CFCFCF935C
:10539000DF93FC0125AD211104C021E025AF0F945E
:1053A0001139C0916D15D0916E15E0919C15F09159
:1053B0009D1582E01995E0919C15F0919D1581E075
:1053C000199530E020E044E1BE018BE695E10F94B1
:1053D0000D392EE935E147E1BE018BE695E10F94E9
:1053E0000D39E0919C15F0919D1580E0DF91CF91F2
:1053F0001994CF92DF92EF92FF920F931F93CF9366
:10540000DF93CDB7DEB72C970FB6F894DEBF0FBE93
:10541000CDBFF090A215E090A3152091F8042111C2
:105420001DC041EE56E16E2D8F2D0F94943B90E000
:1054300080E0F80EF092A215E092A31599272C9621
:105440000FB6F894DEBF0FBECDBFDF91CF911F9195
:105450000F91FF90EF90DF90CF900895C0906F155F
:10546000D09070152BE635E13A8329832F2D30E05B
:105470003C832B832E2D30E03E832D8318861F82A4
:105480007A8769871C861B860FE815E29E012F5FCD
:105490003F4F41E851E2BC01C6010F942625B601F9
:1054A0008BE695E10F94D03A8F819885C2CF6FEF4C
:1054B0007FEF0C94F929CF92DF92EF92FF920F9336
:1054C0001F93CF93DF93CDB7DEB72C970FB6F89429
:1054D000DEBF0FBECDBFF090A215E090A3152091C6
:1054E000F80421111DC041EC56E16E2D8F2D0F9453
:1054F000943B90E080E0F80EF092A215E092A315A4
:1055000099272C960FB6F894DEBF0FBECDBFDF9162
:10551000CF911F910F91FF90EF90DF90CF90089562
:10552000C0906F15D09070152BE635E13A83298332
:105530002F2D30E03C832B832E2D30E03E832D83B6
:1055400018861F827A8769871C861B860FE815E2FA
:105550009E012F5F3F4F44E851E2BC01C6010F940A
:105560002625B6018BE695E10F94D03A8F81988578
:10557000C2CFBF92CF92DF92EF92FF920F931F9311
:10558000CF93DF938B01F42EE90141FB662760F98D
:105590000E94A628882309F45AC0B12C01151105D0
:1055A00021F0C8010E9473BBB82EE12C209721F096
:1055B000CE010E945EBDE82E80E8C82ED12CF0FE00
:1055C0001EC085E190E08B199109B7FC93958E1967
:1055D0009109E7FC939597FD019695958795F82E8F
:1055E00030E8C32ED12CFA94F7FC09C060E270E0D9
:1055F00080E090E00E945629C81AD90AF4CFBB2057
:1056000099F0C60166E070E00F94D556262F4091C0
:105610002A0850912B0860912908C8010E94B3BA4A
:1056200096E0899F60011124EE2031F0B601CE0191
:105630000E945B2AC81AD90A87E0C816D10438F03C
:1056400060E270E080E090E00E945629F3CFDF91A5
:10565000CF911F910F91FF90EF90DF90CF90BF906F
:1056600008956FEF7FEF0C945B2AAF92BF92CF92B9
:10567000DF92EF92FF920F931F93CF93DF935C0122
:105680006B010E9473BBE82EC6010E945EBDF12C27
:1056900003E110E0081B1109C5E20E151F050CF40B
:1056A000CFE18C2F90E09C012E5F3F4F40919F15E2
:1056B0004217130609F0CCF509972091A115281778
:1056C00019069CF140912A0850912B0860912908F5
:1056D0001092A215C093A31525E1C5010E94B3BA8B
:1056E000D1E0C114D104B1F06AE370E080E090E051
:1056F0000E9456290E151F05D4F4C45F80919F1592
:10570000C81740F02091A1154C2F4950550B241774
:1057100015067CF4DF91CF911F910F91FF90EF90D0
:10572000DF90CF90BF90AF900895D0E0DACFDD2327
:1057300089F3802F880F080F000F0093A215C093E4
:10574000A31560E270E080E090E00E945629C60157
:10575000DF91CF911F910F91FF90EF90DF90CF904D
:10576000BF90AF900C94312B8F929F92AF92BF92CB
:10577000CF92DF92EF92FF920F931F93CF93DF931D
:10578000CDB7DEB72C970FB6F894DEBF0FBECDBFF6
:10579000982F862F5A017901D02E692F0E94A628B2
:1057A000882309F489C0C701002391F10E9473BBCB
:1057B000C82E80906F15909070158091F80481111B
:1057C00045C01FEF23E12C1940912A0850912B0866
:1057D00060912908C5010E94B3BACC2009F46CC0BD
:1057E000B6E08B9F500111246AE370E080E090E006
:1057F0000E94562957E0A516B10408F444C060E29F
:1058000070E080E090E00E945629A81AB90AF2CF11
:105810000E945EBDC82E80906F159090701580918B
:10582000F804882371F2FE0133968AE0DF011D92AD
:105830008A95E9F78BE695E19A83898306E615E276
:105840009E012F5F3F4F44E851E212C0FE013396A4
:105850008AE0DF011D928A95E9F78BE695E19A834C
:10586000898306E615E29E012F5F3F4F41E851E232
:10587000B701C4010F942625B4018BE695E10F947E
:10588000D03A1F819FCF40912808212F30E0A6E019
:10589000CA9EC00111242E5F3F4F281739070CF410
:1058A0009C0180E8821B8093A2154093A315C70139
:1058B000DD20A9F00E94572A2C960FB6F894DEBF7F
:1058C0000FBECDBFDF91CF911F910F91FF90EF9051
:1058D000DF90CF90BF90AF909F908F9008950E94DF
:1058E000312BEACFE7E6F5E183AF64AFCA010C9450
:1058F000312B2F923F924F925F926F927F928F92B5
:105900009F92AF92BF92CF92DF92EF92FF920F934E
:105910001F93CF93DF93D62FC72FFC0180809180F8
:10592000A280B380C501B40120E831E541E050E038
:105930000F945856C9016DE671E00F94D5566B016E
:105940007C01C501B40120E13EE040E050E00F944D
:105950005856CA01B90128E130E040E050E00F9408
:105960005856362E272E062F172F8CE3482E512CF3
:10597000612C712CC501B401A30192010F945856FA
:10598000B62EA72ECA01B901A30192010F94585651
:10599000CB01C114D10479F1AF92BF927F936F9381
:1059A0002F923F92FF92EF92DF92CF928FE195E19B
:1059B0009F938F93CF93DF930F94AB4F8DB79EB789
:1059C0000E960FB6F8949EBF0FBE8DBF8D2F9C2FE5
:1059D000DF91CF911F910F91FF90EF90DF90CF90CB
:1059E000BF90AF909F908F907F906F905F904F90FF
:1059F0003F902F900895E114F104C9F0AF92BF9247
:105A00007F936F932F923F92FF92EF928FE095E1F9
:105A10009F938F93CF93DF930F94AB4FEDB7FEB768
:105A20003C960FB6F894FEBF0FBEEDBFCFCF012B53
:105A3000B9F0AF92BF927F936F932F923F9283E022
:105A400095E19F938F93CF93DF930F94AB4F8DB7D7
:105A50009EB70A960FB6F8949EBF0FBE8DBFB6CF05
:105A6000892BA9F0AF92BF927F936F938BEF94E154
:105A70009F938F93CF93DF930F94AB4FEDB7FEB708
:105A800038960FB6F894FEBF0FBEEDBF9FCFAF9212
:105A9000BF9287EF94E19F938F93CF93DF930F94FF
:105AA000AB4F0F900F900F900F900F900F908ECFE5
:105AB0008F929F92AF92BF92CF92DF92EF92FF921E
:105AC0000F931F93CF93DF931092F5041092F40479
:105AD0002FE32093F3041092F2041092F104109239
