:100000000C9427240C9458240C9458240C945824B1
:100010000C9458240C9458240C9458240C94582470
:100020000C9458240C9458240C9458240C94582460
:100030000C9458240D9426540C9458240C94582451
:100040000C9458240C94B2EF0C9458240C9458241B
:100050000C9458240C9458240C9479EC0D94DC5393
:100060000C9458240C94895F0C947F5F0C94582452
:100070000C9458240C9458240C9458240C94582410
:100080000C9448430C9458240C9458240C945824F1
:100090000C9458240C9458240C9458240C945824F0
:1000A0000C9458240C9458240C941A430C945824FF
:1000B0000C9458240C9458240C9458240C945824D0
:1000C0000C9458240C9458240C9458240C945824C0
:1000D0000C9458240C9458240C9458240C945824B0
:1000E0000C945824084AD73B3BCE016E84BCBFFD1C
:1000F000C12F3D6C74319ABD56833DDA3D00C77FF8
:1001000011BED9E4BB4C3E916BAAAABE0000008090
:100110003F05A84CCDB2D44EB93836A9020C50B91F
:10012000918688083CA6AAAA2ABE000000803F004B
:100130000C94DB910C94FF420C940C3C0D945E4E9D
:100140000C941C270C9460CB0D94544D0C9451D4FA
:100150000D94794D0C943DAF0C94CE9C0D941D4E96
:100160000C94A4920C940E970C94BA9A0D94094E88
:100170000D94815E0C9404DE0C94FF940C94D79043
:100180000D94F15E0D94754D0C94C8B20C94E4423C
:100190000C945A240C94C4910C9405600D94D42DA5
:1001A0000C9418DF0C94FB920D94834D0C94F7BAC9
:1001B0000C9454CB0D94874D0C94DA9C0C94B4920F
:1001C0000C942A930D946B4D0C943A600C94969178
:1001D0000C94DD930C94C75F0C94E7A40C944893A3
:1001E0000C94DEBF0C9403910D94EF4D0C94079585
:1001F0000D94404E0D94364D0C9423600C94489110
:100200000C947ECB0C94F0900C9471C90C94859056
:100210000C9418C70C9425B90C9455E00C94A0923A
:100220000C9442D50C946CD50C94C2990C94BC904F
:100230000C94FB940C94BA940C940DB90D946F4DDE
:100240000C942E940D94674D0C94469D0C94C69975
:100250000C942F600C94AA990C94D7A70C9448CBBB
:100260000C9498DF0D94A72D0C94E79B0C94E6A7B3
:100270000C940A970C94E1A70C941DB00D94E54DD5
:100280000C9463C10C946F940C949B2A0C94D19C95
:100290000C94649D0C946CCB0C9403B90C94D79C77
:1002A0000C94F09C0C9457910C94F2910C944ECBBE
:1002B0000C94FD450C94B2990C94F6BD0C9481926B
:1002C0000C94E89C0C941E9B0C94D39B0C94B3B0A0
:1002D0000D94C44D0C94BC960C94E39C0C94B09675
:1002E0000C94C39C0C945D240C941F940C94F9946E
:1002F0000C94C9420C9484CB0C94AE990C94BE928D
:100300000C94B9920C947DDF0D94DB4D0C9428E095
:100310000D94484D0C94102A0D94CC4D0C942793B9
:100320000C9494900C94499D0C94EA9C0D94FD2E91
:100330000C945D9A0C941F600D94504D0C94E2D473
:100340000D94574D0C94E09C0C94299B0C94539065
:100350000C942B600C9462B70C9434270C94BE99C7
:100360000C942D8E0C942EB60C94459F0C94C3D4F3
:100370000C9415930D94062E0C9414600C94FD941B
:100380000C9427600D944A4E0C9482970D94D35E82
:100390000C944D600C9452B10C94ED9C0C94D49C34
:1003A0000C9472CB0C9419DC0C946CDD0C94CB9BEC
:1003B0000C9416910C94C59B0D947D4D0C946C90EF
:1003C0000C9494C20C9439DF0C94DCA70C94059B1C
:1003D0000D94544E0C94E38D0C94EE8D0C94CA99AC
:1003E0000C9442CB0C9433600C9405950C944560AE
:1003F0000D94F74D0C9478920C942F910D945D4DC3
:100400000C9423CC0D944C4D0C94AB940C94E9CBF0
:100410000C947E9A0D94FF4D0C9439B40C947D91FC
:100420000C94EC9A0D942C4E0C94392A0C948D92C9
:100430000C94A0DE0C94A2920C94EBB10C941FE1EE
:100440000C9473CF0C9423A20C94AD910C94249330
:100450000C943CCB0C94DD9C0C9416E00C94C08D59
:100460000C945ACB0C94AD900C94D7240C94AF926E
:100470000C9477950C941EAA0C9423D50C948EACF6
:100480000C94A6990C9412970C94B3AD0C946A91A9
:100490000C9401950C94F65F0C94AE420C94869AE1
:1004A0000D94364E0C9483DE0C941B600C94D39AFE
:1004B0000C9496DB0C9418A10C9466CB0C9470D41D
:1004C0000C94BA990C942D930D94614D0D94134E88
:1004D0000C9418DC0C94DC9B0C94B6990C9403954A
:1004E0000C9478CB0C945BA80D94D14D0D94314DA8
:1004F0000C94468E0C94C3924E414E494E49545929
:10050000494E46CDCCCC3D0AD7233C17B7D13877DE
:10051000CC2B329595E6241FB14F0A0000204100F4
:1005200000C84200401C4620BCBE4CCA1B0E5AAE3E
:10053000C59D7400407A10F35A00A0724E1809004D
:1005400010A5D4E80000E87648170000E40B540238
:100550000000CA9A3B000000E1F505000080969873
:1005600000000040420F000000A0860100000010C3
:100570002700000000E80300000000640000000005
:10058000000A00000000000100000000002C76D8E6
:1005900088DC674F0823DFC1DFAE59E1B1B796E5CC
:1005A000E3E453C63AE651997696E8E6C28426EB30
:1005B000898C9B62ED407C6FFCEFBC9C9F40F2BA43
:1005C000A56FA5F490055A2AF75C936B6CF9676DDB
:1005D000C11BFCE0E40D47FEF520E6B500D0ED9030
:1005E0002E0300943577050080841E080000204EFD
:1005F0000A000000C80C333333330F986E12831196
:1006000041EF8D2114893BE65516CFFEE6DB18D16C
:10061000844B381BF77C1D901DA4BBE4242032843E
:10062000725E228100C9F124ECA1E53D27434F4DC4
:100630004D554E49434154494F4E0044525952552D
:100640004E004552524F525300494E464F004543CB
:10065000484F004572726F722077726974696E67D5
:1006600020746F20454550524F4D210A0053544F7E
:10067000505045442E20005072696E74657220738C
:10068000746F707065642064756520746F20657286
:10069000726F72732E2046697820746865206572C7
:1006A000726F7220616E6420757365204D3939391F
:1006B00020746F20726573746172742E20285465E3
:1006C0006D706572617475726520697320726573EF
:1006D00065742E2053657420697420616674657298
:1006E0002072657374617274696E67290A004E6FB7
:1006F00020436865636B73756D2077697468206C3F
:10070000696E65206E756D6265722C204C61737424
:10071000204C696E653A20004E6F20436865636B1C
:1007200073756D2077697468206C696E65206E75CD
:100730006D6265722C204C617374204C696E653A51
:100740002000636865636B73756D206D69736D61FF
:100750007463682C204C617374204C696E653A2078
:10076000004C696E65204E756D626572206973205C
:100770006E6F74204C617374204C696E65204E75E9
:100780006D6265722B312C204C617374204C696E44
:10079000653A20004D3131300053657269616C203B
:1007A000737461747573206D69736D617463680A25
:1007B00000776169740A00534420726561642065A2
:1007C00072726F720A00486F74656E642049646CBF
:1007D000652054696D656F757400486F74656E644B
:1007E0002049646C652054696D656F75740A002139
:1007F00021204B494C4C20636175736564206279FC
:10080000204B494C4C20627574746F6E2F70696E6A
:100810000A002121204B494C4C20636175736564AB
:1008200020627920746F6F206D75636820696E6136
:1008300063746976652074696D65202D2063757217
:1008400072656E7420636F6D6D616E643A20007026
:1008500061757365004D363030002066696C616DDE
:10086000656E745F72756E6F7574200066696C6179
:100870006D656E745F72756E6F7574205400466995
:100880006C616D656E7452756E6F75742054004D99
:10089000656469612052656D6F766564004D6564BD
:1008A000696120496E736572746564004D31303042
:1008B000305300627573793A2070617573656420F6
:1008C000666F7220696E7075740A00627573793A8A
:1008D0002070617573656420666F72207573657230
:1008E0000A00627573793A2070726F636573736979
:1008F0006E670A00506C656173652052657365749C
:10090000005052494E5445522048414C54454400F1
:1009100025533A20255300706F7765726F66660025
:100920004B494C4C45442E20005072696E746572E0
:100930002068616C7465642E206B696C6C282920BA
:1009400063616C6C6564210A0053544F50504544F8
:100950002E20005072696E7465722073746F70700F
:1009600065642064756520746F206572726F7273A0
:100970002E2046697820746865206572726F722037
:10098000616E6420757365204D39393920746F208C
:10099000726573746172742E202854656D7065726F
:1009A00061747572652069732072657365742E2099
:1009B0005365742069742061667465722072657372
:1009C00074617274696E67290A006563686F3A0022
:1009D0004572726F723A0042696C696E656172208D
:1009E0004C6576656C696E6720477269643A0A00E7
:1009F00021212053544F502063616C6C6564206248
:100A0000656361757365206F6620424C546F756332
:100A100068206572726F72202D2072657374617226
:100A2000742077697468204D3939390A00212120F2
:100A300053544F502063616C6C6564206265636140
:100A4000757365206F6620424C546F75636820652E
:100A500072726F72202D20726573746172742077C8
:100A6000697468204D3939390A005072696E7469A9
:100A70006E67204F626A6563740025532025690004
:100A80002F2F616374696F6E3A0073746172740022
:100A900070726F6D70745F00656E6400486F74658E
:100AA0006E6420746F6F20636F6C640A0053656E10
:100AB00064204D31303820746F20726573756D6518
:100AC0000A00496E736572742066696C616D656EAB
:100AD0007420616E642073656E64204D3130380A75
:100AE0000052656865617420446F6E6500526568E8
:100AF000656174696E672E2E2E005265686561749B
:100B0000004865617465722054696D656F75740085
:100B100053656E64204D31303820746F20686561F4
:100B200074206E6F7A7A6C650A004E6F7A7A6C6503
:100B3000205061726B65640070617573656400506C
:100B40006175736500726573756D656400526573D8
:100B5000756D696E67004732362043616E63656C60
:100B60006564004732362048656174696E67204EBF
:100B70006F7A7A6C65004732362048656174696E19
:100B800067204265640057616974696E6720666F0B
:100B900072206865617475702E0A00466978656414
:100BA000204C656E677468205072696D6500446FF3
:100BB0006E65205072696D696E67004D616E75617A
:100BC0006C207072696D696E672E2E2E004C656107
:100BD00076696E6720473236003F537065636966F9
:100BE00069656420582C5920636F6F7264696E6167
:100BF0007465206F7574206F6620626F756E647304
:100C00002E0A003F28522965706561742076616C58
:100C10007565206E6F7420706C61757369626C65A8
:100C20003B206D757374206265206174206C656172
:100C3000737420312E0A003F5370656369666965DD
:100C400064206E6F7A7A6C652074656D7065726170
:100C500074757265206E6F7420706C617573696253
:100C60006C652E0A003F5370656369666965642090
:100C700066696C616D656E742073697A65206E6F4C
:100C80007420706C61757369626C652E0A003F5345
:100C90007065636966696564207072696D65206C52
:100CA000656E677468206E6F7420706C617573690F
:100CB000626C652E0A003F537065636966696564FE
:100CC000206E6F7A7A6C652073697A65206E6F7416
:100CD00020706C61757369626C652E0A003F526505
:100CE0007472616374696F6E204D756C7469706C99
:100CF000696572206D757374206265207370656319
:100D000069666965642E0A003F53706563696669A8
:100D100065642052657472616374696F6E204D75ED
:100D20006C7469706C696572206E6F7420706C6190
:100D3000757369626C652E0A003F5370656369665E
:100D4000696564206C61796572206865696768749B
:100D5000206E6F7420706C61757369626C652E0A09
:100D60000043292E0A003F53706563696669656414
:100D7000206265642074656D70657261747572655A
:100D8000206E6F7420706C61757369626C652028C9
:100D900034302D00473236207374617274696E6787
:100DA0002E2E2E0A004F46460A00466164652048F2
:100DB00065696768742000426564204C6576656CDF
:100DC000696E6720004661696C656420746F2065F8
:100DD0006E61626C6520426564204C6576656C6965
:100DE0006E670A00496E76616C6964206D65736890
:100DF0002E0A0050726F62696E6720506F696E74C0
:100E00000025532025692F2569002E0A002F005048
:100E1000726F62696E67206D65736820706F696EAE
:100E2000742000202844525952554E290047323927
:100E3000204175746F20426564204C6576656C694D
:100E40006E67003F20284C2C522C462C4229206FE4
:100E50007574206F6620626F756E64732E0A003F92
:100E60002856296572626F7365206C6576656C2003
:100E7000696D706C61757369626C652028302D3402
:100E8000292E0A00426164205A2076616C75650A39
:100E9000004E6F2062696C696E65617220677269CD
:100EA000640A00446576696174696F6E0025533A7F
:100EB0002025730046696E6973686564210A003AEB
:100EC000207A3A2000206F662000476F696E672005
:100ED000746F3A20580043570A00206469723A0040
:100EE00020616E676C653A005374617274207261A0
:100EF000646975733A004D343820506F696E740020
:100F000025533A2025642F256400506F7369746956
:100F10006F6E696E67207468652070726F62652EEF
:100F20002E2E0A003F4C656773206F66206D6F762A
:100F3000656D656E7420696D706C61757369626C46
:100F4000652028302D3135292E0A003F2028582CC5
:100F50005929206F7574206F6620626F756E6473F7
:100F60002E0A0050726F6265206F7574206F6620C4
:100F7000626F756E6473003F53616D706C652073B2
:100F8000697A65206E6F7420706C61757369626C2C
:100F9000652028342D3530292E0A004D3438205A4A
:100FA0002D50726F6265205265706561746162696F
:100FB0006C69747920546573740A003F285629655A
:100FC00072626F7365206C6576656C20696D706CFC
:100FD00061757369626C652028302D34292E0A00F2
:100FE0005374616E646172642044657669617469EA
:100FF0006F6E3A20002052616E67653A2000204DE6
:1010000061783A2000204D696E3A200020536967CC
:101010006D613A20004D65616E3A2000205200411A
:101020006363656C65726174696F6E3A2050005736
:1010300041524E494E4721204C6F77205A204A6535
:10104000726B206D6179206C65616420746F20750E
:101050006E77616E746564207061757365732E0AB6
:10106000004F4646004F4E0020204D61783A200048
:10107000200020204D696E3A2000536F6674206571
:101080006E6473746F70733A20004D3234205325B0
:101090006C642054256C64004739322E3920452574
:1010A0007300473120462564004739322E39205AD3
:1010B0002573004731205A30204632303000473106
:1010C0002058257320592573204633303030004D89
:1010D00034323020532569205A2573004D31303683
:1010E0002050256920532569004D32303020442599
:1010F000730047323852305859004739322E392060
:101100004530205A300A47315A2573004D31303965
:1011100020532569004D31393020532569004D3465
:101120003230205330205A300020496E76616C698D
:1011300064206578747275646572200047322F47A9
:10114000332062616420706172616D6574657273D1
:101150000A00536C6565702E2E2E005A2050726F57
:1011600062652050617374204265640A005A205001
:10117000726F62652050617374204265640047326B
:10118000384C30004D3131372050726F6265206627
:1011900061696C65642E0A4732380A0070726F62AA
:1011A000655F7265776970650047323920526574F2
:1011B0007279696E670050726F62696E672046616E
:1011C000696C6564004D31313720426564206C657F
:1011D00076656C696E67206661696C65642E0A4786
:1011E00030205A31300A4D333030205032352053C0
:1011F0003838300A4D333030205035302053300AE3
:101200004D3330302050323520533838300A4D338A
:101210003030205035302053300A4D33303020509C
:10122000323520533838300A4D3330302050353085
:101230002053300A47342053310070726F62655F6B
:101240006661696C6564004D313137204265642008
:101250006C6576656C696E6720646F6E652E002024
:101260005A3A200020593A200042656420583A201A
:10127000004D65736820706F696E74206F757420FF
:101280006F662072616E67650A004D302053746F7F
:1012900070004D312053746F7000436C69636B2094
:1012A000746F20526573756D652E2E2E004E6F2063
:1012B0004D6F76652E00456E642066696C65206C06
:1012C0006973740A00426567696E2066696C6520FF
:1012D0006C6973740A004E6F206D656469610A0061
:1012E000526573756D696E6720534400286E6F20D8
:1012F00066696C65290043757272656E7420666953
:101300006C653A20005072696E742074696D653A9C
:1013100020000A53746174733A2046696C616D65EC
:101320006E7420757365643A20002C204C6F6E67D4
:10133000657374206A6F623A2000546F74616C2088
:1013400074696D653A200053746174733A20002CFF
:10135000204661696C65643A20002C2046696E69FC
:10136000736865643A20005072696E74733A2000A5
:1013700053746174733A2000436F6F6C696E672E0B
:101380002E2E0048656174696E672E2E2E00452052
:101390002553006F6B006F6666004E0649064206D5
:1013A0003B062D0644454255473A004D3131332026
:1013B000530042656420436F6F6C696E672E2E2E5A
:1013C000004265642048656174696E672E2E2E00A8
:1013D00044445820435231305632204F46462E0066
:1013E0002F2F004D31343520533C696E6465783EB3
:1013F000206F7574206F662072616E6765202830DB
:101400002D31290A004D32303620580046523A001C
:1014100020466C6F773A20003A20002053657276A0
:101420006F2000206F7574206F662072616E676593
:101430000A00536572766F200020643A0020693AF2
:101440000020703A00496E76616C6964206578749A
:1014500072756465720A0020643A0020693A0020BF
:10146000703A0064697300656E0043290A00616286
:101470006C656420286D696E2074656D7020004372
:101480006F6C642065787472756465732061726531
:10149000200046696C616D656E742072756E6F75A3
:1014A000742064697374616E636520286D6D293AD8
:1014B000200046696C616D656E742072756E6F7583
:1014C0007420004D34323120696E636F727265632F
:1014D0007420706172616D657465722075736167E7
:1014E000650A004D65736820706F696E74206F75B2
:1014F00074206F662072616E67650A004F666673BE
:10150000657473204170706C696564004572723A4D
:1015100020546F6F206661722100546F6F206661E6
:10152000722066726F6D207265666572656E6365A6
:1015300020706F696E740A00454550524F4D204F20
:101540004B0A00506F7765722D6C6F737320726554
:10155000636F7665727920004D383400446F6E6594
:10156000207072696E74696E672066696C650A0026
:101570004D3737004D3331004361703A004D4541DE
:10158000545041434B00434F4F4C45525F54454DDF
:101590005045524154555245004348414D424552F1
:1015A0005F54454D504552415455524500424142C9
:1015B000595354455050494E470041524353004DF2
:1015C0004F54494F4E5F4D4F444553005448455288
:1015D0004D414C5F50524F54454354494F4E004C7F
:1015E0004F4E475F46494C454E414D45004155548D
:1015F0004F5245504F52545F53445F5354415455DA
:10160000530053445F575249544500524550454199
:1016100054005344434152440050524F4D50545F84
:10162000535550504F525400454D455247454E4337
:10163000595F50415253455200434153455F4C4915
:101640004748545F4252494748544E45535300540B
:101650004F47474C455F4C494748545300534F460A
:1016600054574152455F504F574552004255494CDF
:10167000445F50455243454E54004C4556454C49F5
:101680004E475F44415441005A5F50524F4245001B
:1016900052554E4F5554004155544F4C4556454CAC
:1016A000005052494E545F4A4F420050524F4752E9
:1016B000455353004155544F5245504F52545F5477
:1016C000454D5000564F4C554D45545249430045E9
:1016D0004550524F4D0042494E4152595F46494C88
:1016E000455F5452414E534645520053455249417D
:1016F0004C5F584F4E5F584F4646004649524D5733
:101700004152455F4E414D453A4D61726C696E20C4
:10171000322E302E375F4457372E3320426F6E649F
:10172000746563682053534D4442422028417072CF
:1017300020323520323032312030303A33333A32B1
:10174000312920534F555243455F434F44455F5520
:10175000524C3A68747470733A2F2F6769746875C5
:10176000622E636F6D2F496E73616E697479417576
:10177000746F6D6174696F6E2F4D61726C696E2F3D
:10178000747265652F437265616C69747944776919
:101790006E5F322E302050524F544F434F4C5F56A5
:1017A000455253494F4E3A312E30204D414348491E
:1017B0004E455F545950453A4444582043523130C5
:1017C00056322045585452554445525F434F554E6A
:1017D000543A3120555549443A6365646532613263
:1017E000662D343161322D343734382D396231323F
:1017F0002D6335356336326633363766660A0050F8
:10180000726F6265204F6666736574205A0050726D
:101810006F6265204F6666736574205A00290A005E
:1018200020746F20003F5A206F7574206F662072FD
:10183000616E6765202800290A0020746F20003F30
:1018400059206F7574206F662072616E676520285D
:101850002D00290A0020746F20003F58206F7574F6
:10186000206F662072616E676520282D0050726FB0
:101870006265204F666673657420580043616E6E22
:101880006F74206F70656E207375626469722000DA
:101890002569730025696D20256973002569682015
:1018A00025696D20256973002569642025696820F4
:1018B00025696D20256973002569792025696420D3
:1018C0002569682025696D20256973002364656694
:1018D000696E652044454641554C545F006265641D
:1018E000004B6420004B6920004B7020005049449D
:1018F000204175746F74756E652066696E697368D2
:101900006564212050757420746865206C6173745F
:10191000204B702C204B6920616E64204B64206347
:101920006F6E7374616E74732066726F6D20626582
:101930006C6F7720696E746F20436F6E6669677590
:10194000726174696F6E2E680A00504944204175B7
:10195000746F74756E65206661696C6564212074AE
:10196000696D656F75740A00504944204175746F44
:1019700074756E65206661696C6564212054656DBF
:10198000706572617475726520746F6F2068696725
:10199000680A00204B643A2000204B693A2000205E
:1019A0004B703A200020436C617373696320504987
:1019B00044200A00204E6F206F76657273686F6F47
:1019C000740A002054753A2000204B753A200020FC
:1019D0006D61783A2000206D696E3A200020643AEB
:1019E000200020626961733A20005049442041750B
:1019F000746F74756E652073746172740A00504957
:101A000044204175746F74756E65206661696C65FC
:101A100064212054656D70657261747572652074FF
:101A20006F6F20686967680A0050494420417574E7
:101A30006F74756E6500504944204175746F7475FC
:101A40006E65206661696C6564212042616420686E
:101A500065617465722069640A004572723A207586
:101A600074663820666F6E74206E6F7420696E69BC
:101A70007469616C697A65642E004572723A2075EA
:101A800074663820666F6E74206E6F7420696E699C
:101A90007469616C697A65642E004572723A2075CA
:101AA00074663820666F6E74206E6F7420696E697C
:101AB0007469616C697A65642E00000C0F00FE0782
:101AC000022503BB017FFE08FE08FE05080806008C
:101AD0000040F0C88888987810050808060000C003
:101AE000F88888888888F80505050600012030F800
:101AF00030200508080600002070F820202020E093
:101B00000509090600FF2070A8A8B888887020077A
:101B10000505070001D86C366CD80509090600FFD9
:101B2000F8A88888888888A8F8050A0A0600FE2090
:101B30005050505088A8A888700303030600034043
:101B4000A040FFFFFFFFFFFFFFFFFFFFFFFFFFFFC3
:101B5000FFFFFFFFFFFFFFFF0000000605FF01077B
:101B60000706020080808080800080030303060156
:101B700005A0A0A005060606000050F85050F85039
:101B80000509090600FF2070A8A07028A87020058C
:101B90000707060000C8C8102040989805070706E8
:101BA000000040A0A040A890680103030602058041
:101BB00080800309090601FF20404080808040406A
:101BC000200309090601FF8040402020204040807A
:101BD00005070706000020A8702070A8200505054D
:101BE0000600012020F820200203030601FFC04068
:101BF00080050101060003F8020202060100C0C0D0
:101C00000507070600000810102040408005070760
:101C1000060000708898A8C88870030707060100AE
:101C200040C040404040E0050707060000708808BB
:101C3000102040F8050707060000F8081030088853
:101C40007005070706000010305090F810100507C7
:101C500007060000F880F0080888700507070600EE
:101C600000304080F0888870050707060000F808FB
:101C70001010202020050707060000708888708853
:101C800088700507070600007088887808106002D1
:101C90000505060100C0C000C0C00206060601FF1F
:101CA000C0C000C0408003050506010120408040FF
:101CB00020050303060002F800F8030505060101EC
:101CC0008040204080050707060000708810202013
:101CD00000200507070600007088B8A8B8807005C6
:101CE0000707060000708888F888888805070706B7
:101CF0000000F04848704848F005070706000070EB
:101D0000888080808870050707060000F0484848F2
:101D10004848F0050707060000F88080F08080F84A
:101D2000050707060000F88080F08080800507071F
:101D300006000070888080988870050707060000FC
:101D4000888888F8888888030707060100E04040F3
:101D5000404040E0050707060000381010101090C2
:101D6000600507070600008890A0C0A090880507BE
:101D700007060000808080808080F8050707060045
:101D80000088D8A888888888050707060000888802
:101D9000C8A8988888050707060000708888888882
:101DA0008870050707060000F08888F080808005AD
:101DB000070706000070888888A89068050707064E
:101DC0000000F08888F0A0908805070706000070E2
:101DD000888070088870050707060000F82020201A
:101DE00020202005070706000088888888888870DA
:101DF00005070706000088888888505020050707D7
:101E000006000088888888A8A850050707060000F3
:101E10008888502050888805070706000088885069
:101E200020202020050707060000F8081020408029
:101E3000F80309090601FFE080808080808080E04F
:101E4000050707060000804040201010080309091C
:101E50000601FFE020202020202020E005030306CB
:101E600000052050880501010600FEF80303030663
:101E70000105804020050505060000700878887877
:101E80000507070600008080F0888888F0050505B2
:101E900006000070808088700507070600000808AB
:101EA00078888888780505050600007088F08070BD
:101EB000050707060000304840E04040400507079E
:101EC0000600FE70888888780870050707060000FD
:101ED0008080F0888888880307070601004000C0DA
:101EE000404040E00409090601FE100030101010C7
:101EF00010906005070706000080808890E09088B9
:101F0000030707060100C04040404040E0050505CA
:101F1000060000D0A8A8A8A8050505060000B0C8BE
:101F20008888880505050600007088888870050780
:101F3000070600FEF0888888F08080050707060005
:101F4000FE78888888780808050505060000B0C86E
:101F500080808005050506000078807008F0050780
:101F6000070600002020F82020201805050506009F
:101F700000888888986805050506000088888850CC
:101F8000200505050600008888A8A8500505050657
:101F9000000088502050880507070600FE888888C2
:101FA00050204080050505060000F8102040F80389
:101FB00009090601FF2040404080404040200109BF
:101FC000090602FF8080808080808080800309096C
:101FD0000601FF804040402040404080050303064A
:101FE000000248A890FF554E4C4F41442046494CB2
:101FF000414D454E54004C4F41442046494C414DC3
:10200000454E540046494C414D454E5420434841AD
:102010004E47450042656400456E636C6F73757290
:1020200065002568753A25303268750025303268BC
:10203000753A2530326875002020202020202000AD
:1020400020202020001FE020102010201010201041
:10205000202010201030300840048003001FE03F93
:10206000F03FF03FF01FE01FE03FF03FF03FF00F88
:10207000C0078003003FFFF038007030FC3020FCC8
:10208000102078102030102C00D02E31D02F7BD093
:102090002F7BD02E31D02C00D02030102078102073
:1020A000FC1030FC303800703FFFF03FFFF038008C
:1020B000703186302387102787902F87D02F03D049
:1020C0002030102078102078102030102F03D02FCF
:1020D00087D02787902387103186303800703FFFE4
:1020E000F01FFFF81FFFF80410400208200208202C
:1020F0000410400820801041001041000820800496
:1021000010400000001FFFF81FFFF8FFFFFF8000D6
:10211000018E00E19F01F19381399F81F99F81F93F
:102120009FB9F98F28F18038018000019FFFF99154
:1021300074999B06A99B54A99B56A99B54999FFFF0
:10214000F9FFFFFF6E6F74696669636174696F6E92
:10215000200063616E63656C005072696E7420418B
:10216000626F72746564004469736D6973730055BE
:10217000492041626F72746564004D323520500A07
:102180004D323400526573756D65005549205061BC
:102190007573650050617573696E672E2E2E00721F
:1021A0006573756D65004D32340000FE0003FF80DD
:1021B00007C7C00701E00000E00000F00000700465
:1021C00000700E00701F00703F80F00E00E00F01E5
:1021D000E007C7C003FF8000FE0000FE0003FF8091
:1021E00007C7C00F01E00E00E03F80F01F00700E37
:1021F00000700400700000700000F00000E00701B3
:10220000E007C7C003FF8000FE000E000E000E00B6
:102210000E000E000E000E000E007FC03F801F005B
:102220000E00040004000E001F003F807FC00E005F
:102230000E000E000E000E000E000E000E00FFFF3E
:10224000FF7F80FFC0FFC0FFC07F807F80FFC0FF97
:10225000C0FFC03F001E000C0050726F6265205A24
:10226000204F66667365740052756E6F75742044F6
:10227000697374206D6D004C6F6164206D6D005545
:102280006E6C6F6164206D6D0046696C2E20446930
:10229000612E004520696E206D6D5E33004D333038
:1022A0003320553120452569205325690050494484
:1022B000204175746F74756E65202A005049442D55
:1022C00044202A005049442D49202A005049442DD9
:1022D00050202A0020082046616374002008204D09
:1022E0006178002008204D696E004F6666004F6ED1
:1022F000004175746F74656D70005654726176207C
:102300004D696E00566D696E00566D61782045000E
:10231000566D6178205A00566D6178205900566DCF
:102320006178205800416D6178204500416D6178E9
:10233000205A00416D6178205900416D6178205824
:1023400000412D54726176656C00412D52657472A6
:1023500061637400416363656C0056652D4A657264
:102360006B00565A2D4A65726B0056592D4A65729C
:102370006B0056582D4A65726B0050726F62652073
:102380005A204F66667365740050726F62652059FB
:10239000204F66667365740050726F626520582026
:1023A0004F666673657400452073746570732F6D96
:1023B0006D005A2053746570732F6D6D0059205352
:1023C000746570732F6D6D00582053746570732F92
:1023D0006D6D00416476616E63656420536574744D
:1023E000696E6773003F0043616E63656C00496E00
:1023F0006974004D34323800496E697469616C69E2
:102400007A6520454550524F4D0046696C616D65B7
:102410006E740054656D70657261747572650053F9
:10242000746570732F6D6D0050726F6265204F661A
:102430006673657473004A65726B00416363656C13
:1024400065726174696F6E0056656C6F636974794B
:102450000053657420486F6D65204F666673657420
:102460007300436F6E66696775726174696F6E00A1
:102470003F004E65787420506F696E7400446F6E33
:1024800065004E65787400486F6D696E6720585915
:102490005A003F0043616E63656C204F626A65635A
:1024A00074004E4F005945530043616E63656C20C4
:1024B0004F626A656374203D004D61696E0053741C
:1024C0006F770053572D4D6F6465004465706C6FD6
:1024D000790053656C662D5465737400526573659D
:1024E0007400426564004E6F7A7A6C650046616ED6
:1024F00020537065656400436F6E6669677572612D
:1025000074696F6E00526573746F726520446566FE
:1025100061756C7473004C6F6164205365747469E9
:102520006E67730053746F72652053657474696EBF
:1025300067730050726568656174202420436F6E74
:102540006600506F776572204F7574616765004F44
:102550006666004F6E0052756E6F75742053656E1F
:10256000736F7200424C546F7563680050726F62F3
:1025700065205A204F666673657400416476616E0B
:102580006365642053657474696E6773004D616997
:102590006E004D37303220542564004D36303020E7
:1025A000423020542564004D373032203B256400F2
:1025B0004D37303120542564004D373032004D37CF
:1025C0003031004D363030204230004D61696E00B0
:1025D0004F6666004F6E0052756E6F7574205365BE
:1025E0006E736F72005075726765206D6F72650053
:1025F000436F6E74696E756500524553554D4520A5
:102600004F5054494F4E533A005052494E54205067
:1026100041555345440020204E6F7A7A6C653A202C
:10262000005061726B696E672E2E2E00000057619C
:10263000697420666F720066696C616D656E7420E6
:102640006368616E676500746F20737461727400F3
:102650005761697420666F720066696C616D656EA2
:102660007420756E6C6F616400004E6F7A7A6C65D1
:102670002068656174696E6700506C6561736520E0
:10268000776169742E2E2E0000507265737320627C
:102690007574746F6E00746F2068656174206E6F5E
:1026A0007A7A6C650000496E736572742066696C95
:1026B000616D656E7400616E642070726573732065
:1026C000627574746F6E00746F20636F6E74696EE0
:1026D0007565005761697420666F720066696C6188
:1026E0006D656E74206C6F61640000507265737369
:1026F00020427574746F6E00746F20726573756D0F
:1027000065207072696E7400005761697420666F8D
:1027100072207072696E7400746F20726573756DCB
:10272000652E2E2E00005761697420666F72006658
:10273000696C616D656E7420707572676500003E2E
:102740002000256C642E25696D00457874727564CF
:10275000656420546F74616C003E20004C6F6E679E
:10276000657374204A6F622054696D65003E2000D5
:10277000546F74616C205072696E742054696D6579
:1027800000436F6D706C65746564003A2000507290
:10279000696E7420436F756E74003A2000313530D5
:1027A0000035004245443A204154432031303447FB
:1027B000542D320052756E617761792057617463D0
:1027C000683A204F4E004D61782054656D7000339B
:1027D0003135004D696E2054656D7000350045310E
:1027E0003A204550434F53203130304B0050535521
:1027F0000047656E657269630050726F746F636F36
:102800006C00312E3000426175640032353030305A
:102810003000437265616C69747933442052414DD4
:1028200050530042696C696E656172204C65766533
:102830006C696E67004578747275646572730031F7
:10284000007777772E626F6E64746563682E7365A8
:102850000044445820435231305632003230323135
:102860002D30342D313800322E302E375F4457371B
:102870002E33004D61726C696E005072696E746522
:102880007220537461747300546865726D69737457
:102890006F727300426F61726420496E666F005000
:1028A00072696E74657220496E666F004D61696E63
:1028B000004D313030300053746F70205072696EAB
:1028C0007400526573756D65205072696E740050A6
:1028D0006F776572204F7574616765004D313930CF
:1028E0005335350A4732380A4732390A4D343030C9
:1028F0000A4D313034533231350A4732380A4D31BE
:102900003039533231350A4D34323053310A473180
:10291000583130305931303046353030300A473157
:102920005A300A4D3530300A4D31313720536574F5
:10293000205A204F6666736574004D31303653312E
:1029400032380A4D33303343385332313545305500
:102950000A4D3530300A4D3131372050494420542A
:10296000756E6520446F6E65004D313930533535D5
:102970000A4D313034533231350A4732380A473242
:10298000394C310A473120583130305931303046D6
:10299000353030300A47315A30004D3530300A4D2D
:1029A0003131372053657474696E67732053746FC7
:1029B000726564005072657020666F72205A204103
:1029C000646A757374005049442054756E650053F1
:1029D000746F72652053657474696E677300536514
:1029E000747570004D61696E003F004261636B0059
:1029F00053746F70005072696E742066726F6D2030
:102A00004D65646961004368616E6765204D65646A
:102A10006961004D32310041626F757420507269F6
:102A20006E746572004368616E67652046696C610B
:102A30006D656E74004C6576656C696E6720546FC9
:102A40006F6C7300436F6E66696775726174696F4E
:102A50006E0054656D7065726174757265004D6FBE
:102A600074696F6E00486F737420537461727400E0
:102A7000526573756D65205072696E74004E6F20DB
:102A80004D656469610043616E63656C204F626AE5
:102A90006563740054756E650053746F70205072D6
:102AA000696E74005061757365205072696E7400B0
:102AB000496E666F2053637265656E003F00537404
:102AC000617274205072696E740043616E63656C4C
:102AD000005072696E740043616E6E6F7420656E93
:102AE000746572207375626469723A2000022E2E3A
:102AF000004D61696E002100486F74656E6420743A
:102B00006F6F20636F6C64004261636B0050726F83
:102B10006365656400536F667420456E6473746FFB
:102B20007073004D6F74696F6E0044697361626CFD
:102B300065205374657070657273004D3834004DB4
:102B400034382050726F62652054657374004732C8
:102B5000384F0A4D343820503130004C6576656C62
:102B600020436F726E65727300466164652048652C
:102B700069676874004F6666004F6E0042656420A6
:102B80004C6576656C696E67004C6576656C2042B5
:102B90006564004732394E00486F6D65205A004722
:102BA00032385A00486F6D65205900473238590055
:102BB000486F6D6520580047323858004175746F72
:102BC00020486F6D6500473238004D61696E0050D6
:102BD000726568656174202420456E6400507265DA
:102BE000686561742024204265640054656D7065D9
:102BF00072617475726500436F6F6C646F776E00FD
:102C00005072656865617420240046616E205370BF
:102C1000656564207E00426564004E6F7A7A6C655B
:102C2000004D61696E0050726F6265205A204F66D8
:102C30006673657400466C6F770046616E20537052
:102C4000656564207E00426564004E6F7A7A6C652B
:102C5000005370656564004D61696E00486F6D6971
:102C60006E67204661696C6564006F70656E005424
:102C70005249474745524544003A200066696C6115
:102C80006D656E74007A5F6D696E00795F6D696E57
:102C900000785F6D696E005265706F7274696E675F
:102CA00020656E6473746F70207374617475730A39
:102CB0000020746F6F206C6F6E672065787472757A
:102CC00073696F6E2070726576656E7465640A0054
:102CD00020636F6C6420657874727573696F6E2001
:102CE00070726576656E7465640A00486F6D652064
:102CF00025732573257320466972737400576172BA
:102D00006E696E673A20486F6D696E672042756D17
:102D1000702044697669736F72203C20310A00028A
:102D2000020400000000000000000000000000801D
:102D30009D4300009B430000C84300000041000089
:102D4000004100000040FFFFFF0000000100000004
:102D5000010000800055555500000040003333331A
:102D600000AAAA2A004992240000002000C7711C72
:102D70000099991900D1451700555515003BB1131D
:102D8000002449120011111100000010000F0F0F54
:102D900000E3380E0043790D00CCCC0C00C3300C9E
:102DA00000E8A20B0064210B00AAAA0A00703D0AE9
:102DB000009DD80900427B090092240900DCD30859
:102DC00000888808001042080000000800F0C107D1
:102DD000008787070075500700711C07003EEB064F
:102DE00000A1BC06006990060066660600703E06FB
:102DF000006118060017F4050074D105005BB005EA
:102E000000B290050062720500555505007839053D
:102E100000B81E0500050505004EEC040087D4042B
:102E200000A1BD040090A7040049920400C17D04E4
:102E300000EE690400C7560400444404005C3204F8
:102E4000000821040041100400000004003FF003CA
:102E500000F8E0030026D20300C3C30300CCB5038F
:102E6000003AA803000A9B0300388E0300C08103C8
:102E7000009F750300D0690300505E03001D5303DB
:102E80000034480300913D03003333030016290347
:102E900000381F030097150300300C0300030303E1
:102EA000000BFA020049F10200BAE802005CE002FD
:102EB000002DD802002DD0020059C80200B0C00277
:102EC0000031B90200DAB10200AAAA0200A0A302EE
:102ED00000BC9C0200FA9502005C8F0200DF8802B1
:102EE0000082820200457C020027760200277002E1
:102EF00000436A02007C640200D05E02003F590277
:102F000000C8530200FFFDFCFAF8F6F4F2F0EEEC14
:102F1000EAE9E7E5E3E1E0DEDCDAD9D7D5D4D2D0DF
:102F2000CFCDCBCAC8C7C5C3C2C0BFBDBCBAB9B775
:102F3000B6B4B3B2B0AFADACAAA9A8A6A5A4A2A1DD
:102F4000A09E9D9C9A99989795949392908F8E8D20
:102F50008B8A8988878684838281807F7E7D7B7A45
:102F6000797877767574737271706F6E6D6C6B6A49
:102F7000696867666564636261605F5E5D5C5B5A39
:102F80005958585756555453525150504F4E4D4C16
:102F90004B4A4A4948474646454443424241403FDE
:102FA0003E3E3D3C3B3B3A39383837363535343395
:102FB00032323130302F2E2E2D2C2B2B2A2929283E
:102FC000272726252524232322212120201F1E1EDA
:102FD0001D1C1C1B1B1A1919181817161615151469
:102FE000131312121111100F0F0E0E0D0D0C0C0BEE
:102FF0000A0A090908080707060605050404030369
:10300000020201000000809D4300009B430000C8B5
:103010004300000000000000000000000053657441
:1030200074696E67732053746F7265640045455010
:10303000524F4D20496E697469616C697A65640A02
:10304000003B20003A0A0020204D3630332000207B
:10305000440020204D34313220530046696C616DAC
:10306000656E742072756E6F75742073656E736F04
:10307000723A002055004C0046696C616D656E74B3
:10308000206C6F61642F756E6C6F6164206C656E6F
:10309000677468733A0020204D3835312058005A43
:1030A0002D50726F6265204F666673657400202034
:1030B0004D343133205300506F7765722D4C6F7350
:1030C00073205265636F766572793A002044002060
:1030D000490020204D333034205000204400204946
:1030E0000020204D3330312050005049442073657A
:1030F0007474696E67733A002046002048002020EF
:103100004D3134352053004D6174657269616C2016
:1031100068656174757020706172616D6574657247
:10312000733A00204A0020204732392057204900B6
:1031300020204D3432302053004175746F20426599
:1031400064204C6576656C696E673A0020204D32CC
:103150003036205800486F6D65206F666673657461
:103160003A0020580020530020204D3230352042B4
:1031700000416476616E6365643A20423C6D696E1D
:103180005F7365676D656E745F74696D655F757398
:103190003E20533C6D696E5F66656564726174655F
:1031A0003E20543C6D696E5F74726176656C5F663B
:1031B000656564726174653E20583C6D61785F7826
:1031C0005F6A65726B3E20593C6D61785F795F6A1A
:1031D00065726B3E205A3C6D61785F7A5F6A6572FA
:1031E0006B3E20453C6D61785F655F6A65726B3E42
:1031F0000020540020520020204D32303420500056
:10320000416363656C65726174696F6E2028756EC9
:103210006974732F7332293A20503C7072696E744E
:103220005F616363656C3E20523C726574726163DA
:10323000745F616363656C3E20543C7472617665B3
:103240006C5F616363656C3E0020204D323031203D
:1032500058004D6178696D756D20416363656C65DB
:10326000726174696F6E2028756E6974732F733282
:10327000293A0020204D3230332058004D617869C2
:103280006D756D206665656472617465732028755F
:103290006E6974732F73293A0053746570732070CC
:1032A000657220756E69743A0020440020204D320A
:1032B00030302053002044697361626C65640A00F9
:1032C00046696C616D656E742073657474696E67B0
:1032D000733A0020204D3134392043203B20556E75
:1032E00069747320696E2043656C736975730A0095
:1032F00020286D6D29002020473231202020203BDE
:1033000020556E69747320696E206D6D000000FA9F
:10331000430000FA4300002041000096420000A054
:10332000420000A0420000C8430080CF43DC0500FB
:1033300000DC050000640000004B00000024F4D411
:103340003050C38E20C2A24017828B7011127A9126
:103350000D816CD90AA861E108C75866076151431D
:10336000061E4B5D05C145A7041A411104093D988D
:1033700003713931034036DB0265339102D4305496
:1033800002802E1D02632CEE01752AC501B028A013
:1033900001102781018F2564012B244B01E0223489
:1033A00001AC211F018D200D01801FFC00841EED4A
:1033B00000971DDF00B81CD200E61BC600201BBC16
:1033C00000641AB200B219A8000A19A0006A18997C
:1033D00000D117910040178B00B516840031167E7E
:1033E00000B31579003A157300C7146F0058146ABA
:1033F00000EE1366008813630025135E00C7125B9E
:10340000006C12570015125400C111510070114F79
:103410000021114B00D61049008D10470046104482
:103420000002104200C00F4000800F3E00420F3CDF
:1034300000060F3B00CB0E3800930E37005C0E35B4
:1034400000270E3400F30D3200C10D3100900D3015
:1034500000600D2E00320D2D00050D2C00D90C2B17
:1034600000AE0C2900850C29005C0C2700350C27C8
:10347000000E0C2600E80B2400C40B2400A00B2334
:10348000007D0B23005A0B2100390B2100180B2063
:1034900000F80A1F00D90A1E00BB0A1E009D0A1D63
:1034A00000800A1D00630A1C00470A1B002C0A1B2F
:1034B00000110A1A00F7091A00DD091900C40919D8
:1034C00000AB091900920917007B0918006309175E
:1034D000004C09160036091600200916000A0915C5
:1034E00000F5081500E0081400CC081400B8081412
:1034F00000A4081400900813007D0812006B081344
:103500000058081200460812003408110023081160
:10351000001208110001081100F0071000E0071068
:1035200000D0071000C0071000B0070F00A107105F
:103530000091070E0083070F0074070F0065070E48
:103540000057070E0049070E003B070D002E070E1F
:103550000020070D0013070D0006070D00F9060CEB
:1035600000ED060D00E0060C00D4060C00C8060CA9
:1035700000BC060C00B0060C00A4060B0099060C5B
:10358000008D060B0082060B0077060B006C060B05
:103590000061060A0057060B004C060A0042060AA4
:1035A0000038060A002E060A0024060A001A060A37
:1035B000001006090007060A00FD050900F40509C8
:1035C00000EB050900E2050900D9050900D005094D
:1035D00000C7050900BE050900B5050800AD0508CE
:1035E00000A50509009C050800940508008C050845
:1035F00000840508007C050800740508006C0507B8
:1036000000650508005D050700560508004E050722
:103610000047050700400508003805070031050789
:10362000002A050700230507001C050600160507EC
:10363000000F0507000805060002050700FB040649
:1036400000F5040700EE040600E8040600E20407A3
:1036500000DB040600D5040600CF040600C90406FA
:1036600000C3040600BD040600B7040600B104054B
:1036700000AC040600A6040600A00405009B040696
:103680000095040500900406008A040500850405E1
:1036900000800406007A0405007504050070040526
:1036A000006B04050066040500610405005C040568
:1036B0000057040500520405004D040500480405A8
:1036C00000430405003E0404003A040500350405E7
:1036D00000300404002C0405002704040023040522
:1036E000001E0404001A040400160405001104045A
:1036F000000D04040009040500040404000004048F
:1037000000FC030400F8030400F4030400F00304C5
:1037100000EC030400E8030400E4030400E00304F5
:1037200000DC030400D8030400D4030400D0030425
:1037300000CC030400C8030300C503030024F40401
:10374000D9201BC40C5C0E9804C4095F0265077184
:1037500001F405F900FB04B30048048700C10369C4
:10376000005803550003034500BE023A00840231AD
:103770000053022A002902250004022000E4011C53
:1037800000C8011900AF011700980114008401134B
:1037900000710110006101100051010E0043010D84
:1037A0000036010B002B010B0020010B0015010955
:1037B000000C01090003010800FB000800F30008E9
:1037C00000EB000700E4000600DE000600D800065B
:1037D00000D2000600CC000500C7000500C20005AD
:1037E00000BD000400B9000400B5000400B10004ED
:1037F00000AD000400A9000400A5000300A200031E
:10380000009F0004009B0003009800030095000245
:103810000093000300900003008D0002008B000362
:10382000008800020086000200840003008100027C
:10383000007F0002007D0002007B00020079000290
:10384000007700010076000200740002007200019F
:1038500000710002006F0002006D0001006C0002A8
:10386000006A0001006900020067000100660001B3
:1038700000650001006400020062000100610001B7
:1038800000600001005F0002005D0001005C0001BB
:10389000005B0001005A00010059000100580001BE
:1038A00000570001005600010055000100540001BE
:1038B00000530000005300010052000100510001BC
:1038C00000500001004F0001004E0000004E0001BA
:1038D000004D0001004C0001004B0000004B0001B6
:1038E000004A0001004900010048000000480001B2
:1038F00000470001004600000046000100450000AE
:1039000000450001004400010043000000430001A5
:10391000004200000042000100410000004100019F
:1039200000400001003F0000003F0001003E000099
:10393000003E0001003D0000003D0001003C000091
:10394000003C0000003C0001003B0000003B000187
:10395000003A0000003A000100390000003900017F
:103960000038000000380000003800010037000077
:10397000003700010036000000360000003600016C
:103980000035000000350000003500010034000063
:103990000034000000340001003300000033000058
:1039A000003300010032000000320000003200014C
:1039B0000031000000310000003100010030000043
:1039C0000030000000300001002F0000002F000038
:1039D000002F0000002F0001002E0000002E00002C
:1039E000002E0001002D0000002D0000002D000021
:1039F000002D0001002C0000002C0000002C000015
:103A0000002C0001002B0000002B0000002B000008
:103A1000002B0001002A0000002A0000002A0000FC
:103A2000002A0001002900000029000000290000F0
:103A300000290000002900010028000000280000E3
:103A400000280000002800000028000100270000D6
:103A500000270000002700000027000000270001C9
:103A600000260000002600000026000000260000BE
:103A700000260001002500000025000000250000B0
:103A800000250000002500000025000100240000A2
:103A90000024000000240000002400000024000195
:103AA000002300000023000000230000002300008A
:103AB000002300000023000000230001002200007A
:103AC000002200000022000000220000002200006E
:103AD0000022000100210000002100000021000060
:103AE0000021000000210000002100000021000151
:103AF0000020000000200000002000000020000046
:103B00000020000000200000002000000020000134
:103B1000001F0000001F0000001F0000001F000029
:103B2000001F0000001F0000001F0001001E000019
:103B3000001E0000001E0000001E000000393000C2
:103B4000003325000087190000B00F0000DB0800DB
:103B500000BD040000740200003F01000020436F1C
:103B6000756E7420583A0042656400453100626504
:103B700064002C2073797374656D2073746F70709A
:103B8000656421204865617465725F49443A20008C
:103B900048656174696E67204661696C65640048B8
:103BA000656174696E67206661696C6564004D319A
:103BB00031322053687574646F776E001000C9024B
:103BC00010012C014001220170011801B0010E0109
:103BD000F00104015002FA00B002F0003003E600E8
:103BE000D003DC009004D2007005C800A006BE001F
:103BF0000008B400B009AA00D00BA000600E960027
:103C000060118C000015820020197800C01D6E0024
:103C1000A0226400B0275A00902C500000314600CA
:103C2000E0343C0010383200903A2800603C1E001E
:103C3000A03D1400803E0A00203F00005448455239
:103C40004D414C2052554E415741590054686572C0
:103C50006D616C2052756E61776179004572723AC0
:103C6000204D415854454D50004D415854454D50FC
:103C700020747269676765726564004572723A20E4
:103C80004D494E54454D50004D494E54454D5020E0
:103C900074726967676572656400202F0020424076
:103CA0003A0020403A0020573A0020573A00496E27
:103CB00076616C69642065787472756465720A0057
:103CC0007C3C3E5E2B3D3F2F5B5D3B2C2A225C0003
:103CD00043616E6E6F74206F70656E2073756264E1
:103CE00069722000534420496E6974204661696CF2
:103CF0000053442063617264206F6B0A006F70652B
:103D00006E526F6F74206661696C65640A00766F2D
:103D10006C756D652E696E6974206661696C656489
:103D20000A004E6F20534420636172640A000A4DFA
:103D30003234004D32332025730041425300504C41
:103D400041002E0A006F70656E206661696C6564C3
:103D50002C2046696C653A200046696C65207365C5
:103D60006C65637465640A002053697A653A2000C3
:103D700046696C65206F70656E65643A2000454E3B
:103D80004420535542524F5554494E450A00222073
:103D9000706F73002220706172656E743A22005356
:103DA0005542524F5554494E452043414C4C207486
:103DB00061726765743A220053756263616C6C20AE
:103DC0004F766572666C6F770045786365656465EC
:103DD00064206D617820535542524F5554494E45E9
:103DE0002064657074683A002E0A0044656C65743E
:103DF000696F6E206661696C65642C2046696C652C
:103E00003A200046696C652064656C657465643AA7
:103E1000005344207072696E74696E672062797411
:103E20006520004E6F74205344207072696E74696F
:103E30006E670A002F6175746F25632E67005772D5
:103E40006974696E6720746F2066696C653A20003A
:103E5000667265736800646F696E67002066696CDE
:103E6000653A20004E6F772000020000000000003D
:103E70000000000000000000000000000000000042
:103E80000000000000000000000000000000000032
:103E90000000000000000000000000000000000022
:103EA0000000000000000000000000000000000012
:103EB0000000000000000000000000000000000002
:103EC00000000000000000000000000000000000F2
:103ED00000000000000000000000000000000000E2
:103EE00000000000000000000000000000000000D2
:103EF00000000000000000000000000000000000C2
:103F000000000000000000000000000000000000B1
:103F100000000000000000000000000000000000A1
:103F2000000000000000000000000003FFF000009F
:103F300000000000000000000000001FFFE0000083
:103F400000000000000000000000003FC07C0000F6
:103F500000000000000000000000007C0FFF800057
:103F60000000000000000000000000F87FFFE000FB
:103F70000000000000000000000001F0FFFF7800DA
:103F80000000000000000000000001E1FFFFBC0095
:103F90001FFF83FFE1F00E3FFF0001E3FFFFEE0094
:103FA0001FFFC7FFF1F80E3FFFC001C3FF8FF700EF
:103FB0001E03CF0071FC0E3C03E001C3FE01FB8039
:103FC0001E03CE0079DE0E3C01E001C7FC007DC07F
:103FD0001FFF8E0079CF0E3C01E001C7FC003EE0E0
:103FE0001FFFCE0079C7CE3C01E001E7FC001F7047
:103FF0001E01CE0079C1EE3C01E001E7FC000FB8E4
:104000001E01CF0079C0FE3C01E000E3FC0007F890
:104010001FFFC7FFF1C07E3FFFC000F3FC0007DCBD
:104020001FFF87FFE1C03E3FFF800073FE0003ECEF
:104030000FF800FF00000C1FF0000071FE0003EEFF
:10404000000000000000000000000039FF0003F63F
:10405000000000000000000000000618FF8003F7C9
:1040600000000000000000000000071CFFC003F774
:104070001FFFDFFF1FFE1C01C000030E7FE007F3E0
:104080001FFFDFFF3FFF1C01C00001863FF807FB59
:1040900000701C0038079C01C00001C33FFFFFFBFC
:1040A00000701C0038039C01C00000F39FFFFFFB61
:1040B00000701FFF38001FFFC00000798FFFFFF75F
:1040C00080701FFF38001FFFC000007CC7FFFFF794
:1040D00080701C0038079C01C000003F01FFFFED0D
:1040E00080701C0038079C01C000001FE0FFFFED3E
:1040F00080701FFF3FFF1C01C000001FF03FFFCD7D
:1041000000701FFF1FFE1C01C000000FFC0FFF1DF1
:10411000000000000000000000000007FE01FC1B82
:10412000000000000000000000000003FF80003BD2
:10413000000000000000000000000001FFF000FB94
:10414000000000000000000000000000FFFFFFF082
:104150000000000000000000000000003FFFFFE042
:104160000000000000000000000000001FFFFFC072
:1041700000000000000000000000000007FFFF80BA
:1041800000000000000000000000000001FFFF0030
:10419000000000000000000000000000003FF800E8
:1041A000000000000000000000000000000000000F
:1041B00000000000000000000000000000000000FF
:1041C00000000000000000000000000000000000EF
:1041D00000000000000000000000000000000000DF
:1041E00000000000000000000000000000000000CF
:1041F00000000000000000000000000000000000BF
:1042000000000000000000000000000000000000AE
:10421000000000000000000000000000000000009E
:10422000000000000000000000000000000000008E
:10423000000000000000000000000000000000007E
:10424000000000000000000000000000000000006E
:10425000000000000000000000000000000000005E
:10426000000000000000000000006D61726C696ECB
:1042700066772E6F726700322E302E375F445737C5
:104280002E33001FFFFFFFFFFFFF60000000000153
:10429000FF400000000000FF8000000000007F835E
:1042A000CF00000C303F87FF80000C301F867980E4
:1042B000000C000F8C30C7838C30E78C30CFC7CC1C
:1042C00031F38C30DCECEC33B98C30D86C6C3319B6
:1042D0008C30D06C0C33198C30D86C0C33198C307A
:1042E000DC6C0E3B198C30CF7C079F198C30C77C5F
:1042F000038F194000000000000260000000000071
:10430000061FFFFFFFFFFFF870012C01900127013E
:10431000B0012201C0011D01F001180110021301BA
:1043200030020E016002090190020401C002FF0088
:104330000003FA004003F5008003F000D003EB0017
:104340002004E6007004E100E004DC004005D70032
:10435000C005D2004006CD00D006C8008007C300CB
:104360003008BE00F008B900C009B400B00AAF00C0
:10437000B00BAA00D00CA500000EA000500F9B00AF
:10438000C01096005012910000148C00C0158700D8
:10439000B0178200B0197D00D01B7800001E73009A
:1043A00040206E0090226900F024640040275F00E6
:1043B00090295A00E02B5500102E500020304B0061
:1043C00010324600E033410090353C001037370092
:1043D00070383200A0392D00B03A2800A03B2300ED
:1043E000603C1E00103D1900903D1400103E0F006F
:1043F000703E0A00C03E0500003F0000403FFBFF4A
:10440000803FF6FFC03FF1FF2020506C616E6E656B
:104410007242756666657242797465733A2000204F
:1044200046726565204D656D6F72793A2000436F65
:104430006D70696C65643A204170722032352032AB
:104440003032310A00204C617374205570646174FD
:1044500065643A20323032312D30342D3138207CB1
:1044600020417574686F723A20426F6E64746563A0
:1044700068202F20496E73616E6974794175746F7D
:104480006D6174696F6E0A00322E302E375F4457AB
:10449000372E330A004D61726C696E0020536F66CF
:1044A00074776172652052657365740A00205761E4
:1044B000746368646F672052657365740A002042F4
:1044C000726F776E206F75742052657365740A0081
:1044D0002045787465726E616C2052657365740A4C
:1044E00000506F77657255700A0073746172740AB8
:1044F000004732385859004D313030310065727202
:104500006F722077726974696E6720746F206669B4
:104510006C650A00446F6E6520736176696E672072
:1045200066696C652E0A004D323900456E647374FD
:104530006F70730025532025632025632025632099
:10454000256300205A3A0020593A0020583A006565
:104550006E6473746F7073206869743A2000000091
:104560000A0B02090C0D0E080703040100000000ED
:10457000000000000000000000000000000000003B
:1045800000000000000000000000121110000000F8
:10459000000000000000000000000000000000001B
:1045A00000000000004D6F76652025736D6D004D95
:1045B0006F766520302E316D6D004D6F7665203140
:1045C0006D6D004D6F76652031306D6D004D6F76ED
:1045D000652041786973004578747275646572006E
:1045E0004D6F7665205A004D6F76652059004D6FEE
:1045F00076652058003E3D3A3D4368616E67652010
:1046000046696C616D656E7400556E6C6F616420F7
:1046100046696C616D656E74004C6F61642046691B
:104620006C616D656E7400507265686561742043DD
:104630007573746F6D005072656865617420240035
:104640004261636B0050726F62696E6720466169F8
:104650006C656400205A3A200020593A20004265D7
:104660006420583A200073686F7700627574746F25
:104670006E00626567696E0044697361626C6552C1
:10468000756E6F75740050757267654D6F72650059
:1046900050617573656400436F6E74696E75650073
:1046A0004C6F61642046696C616D656E74205400C6
:1046B000496E736572742066696C616D656E7420F5
:1046C000616E642073656E64204D3130380A0022BB
:1046D0000A00556E6B6E6F776E20636F6D6D616E45
:1046E000643A2022002042002050006F6B004444B6
:1046F00058204352313056322052656164792E0081
:104700005072696E74696E672E2E2E005072696E3B
:10471000742050617573656400204500205A0020A4
:104720005900204D393220580020453A00205A3A8D
:104730000020593A00583A0020746F6F206C6F6E59
:104740006720657874727573696F6E207072657614
:10475000656E7465640A0020636F6C64206578740C
:10476000727573696F6E2070726576656E746564BC
:104770000A00526573656E643A20006E6F74696654
:1047800069636174696F6E200000002200250028B3
:10479000002B002E0031003400020100000501084A
:1047A000010B0100002100240027002A002D003009
:1047B00000330001010000040107010A010505059D
:1047C00005070508080808020202020A0A08080488
:1047D00004040401010101010101010303030303B6
:1047E000030303040707070C0C0C0C0C0C0C0C0245
:1047F00002020206060606060606060B0B0B0B0B4C
:104800000B0B0B0102102020080810204010204044
:104810008002010201080402010102040810204084
:1048200080804020100804020180040201804020A2
:1048300010080402010804020101020408102040CB
:1048400080010204081020408000C000C60111242D
:104850001FBECFEFD1E2DEBFCDBF00E00CBF13E043
:10486000A0E0B2E0E2ECFAEE02E00BBF02C007907B
:104870000D92A839B107D9F728E1A8E9B3E001C042
:104880001D92AB3AB207E1F714E2C6E2D4E200E0CF
:1048900006C021970109802FFE010F94B771C53220
:1048A000D10780E00807A9F70F94F85F0D944F75C2
:1048B0000C940000FC0184910895FC01808108950E
:1048C0001198000000009091020187FD9095917071
:1048D00090930001119A0000000000000000119860
:1048E000000000009091020186FD909591709093D8
:1048F0000001119A00000000000000001198000063
:1049000000009091020185FD9095917090930001B7
:10491000119A000000000000000011980000000043
:104920009091020184FD9095917090930001119AED
:1049300000000000000000001198000000009091AD
:10494000020183FD9095917090930001119A0000EF
:10495000000000000000119800000000909102018A
:1049600082FD9095917090930001119A00000000D3
:10497000000000001198000000009091020181FDEC
:104980009095917090930001119A00000000000032
:104990000000119800000000809102018170809356
:1049A0000001119A0000000000000000089590E04E
:1049B00080E00895CF93DF93DB01F9019C91913062
:1049C000C1F0943080F094509C938830D1F4808171
:1049D0009181009771F0019791838083480F591F4F
:1049E000EA01188206C08C3539F49C5F9C939430A0
:1049F00041F4DF91CF9108958B3339F781E08C93A7
:104A0000F8CF20813181B9016F5F7F4F718360835F
:104A1000420F531FEA018883808191818F35910570
:104A20006CF7E7CF0F931F9381E000919C161091D4
:104A30009D1620919E1630919F1640919816509188
:104A4000991660919A1670919B1604171507260700
:104A5000370708F480E01F910F91089590E080E0FF
:104A60000895282F9091D708833021F495FD0FC029
:104A700094FD0FC0892F90E0B0E0A0E004C0B6958F
:104A8000A795979587952A95D2F78170089581E02B
:104A9000089580E00895CF92DF92EF92FF92CF9336
:104AA000DF93EC01CC80DD80EE80FF8027E137EBE7
:104AB00041ED58EBC701B6010F94207487FD23C068
:104AC00023E030E04BE953E4C701B6010F94CE6A0E
:104AD0001816CCF0C880D980EA80FB8027E137EB3C
:104AE00041ED58EBC701B6010F94207487FD0BC050
:104AF000C1E023E030E84DE953E4C701B6010F946B
:104B0000CE6A18160CF4C0E08C2FDF91CF91FF9085
:104B1000EF90DF90CF9008952F923F924F925F9247
:104B20006F927F928F929F92AF92BF92CF92DF92BD
:104B3000EF92FF920F931F93CF93DF93CDB7DEB722
:104B40002E970FB6F894DEBF0FBECDBFE82ED62E3F
:104B5000042F122F282F30E03C872B87462F50E060
:104B60005A87498765E0F62EF29EC001F39E900DAC
:104B700011249E878D87FA01E80FF91FEE0FFF1FA2
:104B8000EE0FFF1FE65EF94F608171818281938194
:104B90009B01AC010F94B274882309F434C1E00E78
:104BA000612F6D0DFE9CF0011124A985BA85AE0F11
:104BB000BF1FAA0FBB1FAA0FBB1FA65EB94FAC90A9
:104BC0001196BC9011971296CC9012971396DC9088
:104BD000E00EFE9CA0011124A985BA85A40FB51F83
:104BE000AA0FBB1FAA0FBB1FA65EB94FEC90119670
:104BF000FC90119712960C91129713969C90862F09
:104C000090E0AD85BE85A80FB91FAA0FBB1FAA0FE4
:104C1000BB1FA65EB94F8C9011967C90119712968F
:104C20006C90129713965C90610F70E0AD85BE8515
:104C3000A60FB71FAA0FBB1FAA0FBB1FA65EB94FB7
:104C40004C9011963C90119712961C9112971396C6
:104C50002C90E80FF91FEE0FFF1FEE0FFF1FE65E0F
:104C6000F94FB081B98321812A8332813B838381CB
:104C70008C83FA01E60FF71FEE0FFF1FEE0FFF1FE9
:104C8000E65EF94F90819D83A181AE83B281BF839F
:104C9000238128879701402F592DB701802F992D07
:104CA0000F94B274882321F0E12CF12C00E0912CB8
:104CB0009501A601B501C6010F94B274882319F0BD
:104CC0005701C02ED92C242D332D412F522D642D68
:104CD000732D812F922D0F94B274882321F0412CD3
:104CE000312C10E0212C282D372D462D552D682DE7
:104CF000772D862D952D0F94B274882321F0842C66
:104D0000732C612E522C2D813E814F8158856D81EF
:104D10007E818F8198850F94B274882321F01D8243
:104D20001E821F82188629813A814B815C816981AC
:104D30007A818B819C810F94B274882341F03D81EC
:104D400039834E814A835F815B8388858C8385E0CC
:104D5000EB85FC858E9FD0018F9FB00D1124298596
:104D60003A85A20FB31FAA0FBB1FAA0FBB1FA65ED7
:104D7000B94FBA87A9879501A601B501C6010F945D
:104D8000C0719701402F592D0F94BF716B017C01A9
:104D9000282D372D462D552D682D772D862D952DB7
:104DA0000F94C071242D332D412F522D0F94BF71BC
:104DB0009B01AC01C701B6010F94C0716B017C016E
:104DC00029813A814B815C8169817A818B819C81C7
:104DD0000F94C0712D813E814F8158850F94BF7112
:104DE0009B01AC01C701B6010F94C07120E030E017
:104DF00040E450E40F94BA72A985BA856D937D930F
:104E00008D939C9313972E960FB6F894DEBF0FBE2A
:104E1000CDBFDF91CF911F910F91FF90EF90DF9069
:104E2000CF90BF90AF909F908F907F906F905F904A
:104E30004F903F902F9008951092BA088091590298
:104E400090915A02A0915B02B0915C02809393060C
:104E500090939406A0939506B09396060895129A9F
:104E60000895269A2E9A0895AF92BF92CF92DF921C
:104E7000EF92FF920F931F93CF93DF936B01E901A2
:104E80004A3009F4C1C0453109F073C0DB01129604
:104E9000ED91FC91F280C681D781809102018095CD
:104EA00082708093000188E28A950000E9F7BF2CA8
:104EB000B29420EFB22230E1A32EAF0C48E2E42EF0
:104EC00088EF0E9460248E2D8A950000E9F7BFE1EB
:104ED000BF1508F485C08F2D807780680E946024FC
:104EE0008B2D0E9460248E2D8A950000E9F780E8C2
:104EF0000E94602480E00E9460248E2D8A9500002C
:104F0000E9F78AEF0E9460248E2D8A950000E9F768
:104F10008E01005F1F4F8881807F0E9460248991ED
:104F20008295807F0E946024C017D107A1F78E2D43
:104F30008A950000E9F7F394E0E1BE0EFA10C0CFC5
:104F400080910201827080930001D6011296CD916A
:104F5000DC91CE010F94C554811147C2DF91CF91EE
:104F60001F910F91FF90EF90DF90CF90BF90AF9087
:104F70000895FB0102811381423309F4F1C108F461
:104F8000F5C1463409F4E2C1473409F4E5C14B33B5
:104F900029F589812B81D80112966C91129713966D
:104FA0004C91213009F438C2233009F002C238EFA5
:104FB000380F582F91E0431708F490E041E0531761
:104FC00008F040E031E0561708F430E0592F542B38
:104FD000352309F016C2942309F013C281E0BECF35
:104FE00080EE8F0D8068807F0E9460248F2D8295D7
:104FF000807F0E9460248E2D8A950000E9F780E86A
:105000000E94602480E877CF8091010182608093C4
:105010000101809102018270809300018091010161
:105020008160809301018091020181708093000171
:10503000099A119A809102018095827080930001F3
:1050400088E28A950000E9F788E790E0CEE9DFE0A2
:10505000FE013197F1F70197D9F788EF0E9460249C
:1050600018E2812F8A950000E9F780E20E9460240F
:1050700080E00E946024812F8A950000E9F780E09B
:105080000E94602480E80E946024812F8A9500009D
:10509000E9F780E00E94602480E10E946024812F73
:1050A0008A950000E9F7CE010197F1F7CE0101974B
:1050B000F1F7CE010197F1F7CE010197F1F7CE019B
:1050C0000197F1F7CE010197F1F7CE010197F1F7C2
:1050D000CE010197F1F7CE010197F1F7CE010197CB
:1050E000F1F7CE010197F1F7CE010197F1F7CE016B
:1050F0000197F1F7CE010197F1F72197F1F780E2DF
:105100000E94602480E40E946024812F8A95000020
:10511000E9F780E20E94602480E60E9460241A95EC
:105120000000E9F710E0D0E0C8E28D2F80778068BA
:105130000E946024812F0E9460248C2F8A95000099
:10514000E9F780E80E94602480E00E9460248C2FB0
:105150008A950000E9F78AEF0E9460248C2F8A95D7
:105160000000E9F790E21198000000008091020130
:10517000817080930001119A00000000000000007F
:10518000119800000000809102018170809300015D
:10519000119A0000000000000000119800000000BB
:1051A00080910201817080930001119A000000003B
:1051B0000000000011980000000080910201817041
:1051C00080930001119A0000000000000000119877
:1051D0000000000080910201817080930001119A0B
:1051E0000000000000000000119800000000809105
:1051F0000201817080930001119A000000000000FC
:1052000000001198000000008091020181708093DD
:105210000001119A00000000000000001198000039
:10522000000080910201817080930001119A0000BA
:1052300000000000000011980000000080910201B1
:10524000817080930001119A0000000000000000AE
:10525000119800000000809102018170809300018C
:10526000119A0000000000000000119800000000EA
:1052700080910201817080930001119A000000006A
:105280000000000011980000000080910201817070
:1052900080930001119A00000000000000001198A6
:1052A0000000000080910201817080930001119A3A
:1052B0000000000000000000119800000000809134
:1052C0000201817080930001119A0000000000002B
:1052D000000011980000000080910201817080930D
:1052E0000001119A00000000000000001198000069
:1052F000000080910201817080930001119A0000EA
:105300000000000000008C2F8A950000E9F7915002
:1053100009F029CF88EF0E9460248C2F8A95000025
:10532000E9F7DF5F105FD03209F0FFCE80E00E9426
:10533000602480EC0E946024CA950000E9F7809107
:10534000020182708093000181E008CED801159699
:105350008C91888381E002CEF80181818883FACF25
:10536000B901C8010F94E25481E0F8CD443171F0E5
:10537000473109F033CE1882F80182818983858113
:1053800081508A8383818B8381E0E8CDD801159693
:105390004C91159750E0440F551F70E060E0169651
:1053A0008D919C910F94F074C8010F94DB5481E0AF
:1053B000D5CD481708F412CE861708F40FCEFA8020
:1053C000E12CD12C243070F41DC0BE01C8010F9413
:1053D000E254898198819D0D98838E0D8983FF0CFD
:1053E00009F4FCCDF7FEF6CFF0CF4D8150E0440F2D
:1053F000551F70E060E08E819F810F94F07481E012
:10540000ADCDFA8030E0F901E554FD4FD08029544C
:105410003D4FF901E080E6CF58E0580F382FCACD54
:10542000EF92FF920F931F93CF93DF93EC018B01C9
:105430007A018A859B858617970731F08881998143
:105440000F94BB561B870A87B701888199810F94F7
:105450000F482E813F81820F932F911D9F838E8352
:1054600090E080E0DF91CF911F910F91FF90EF903E
:1054700008959F92AF92BF92CF92DF92EF92FF92E8
:105480000F931F93CF93DF93EC018B01942EA52EE6
:105490008A859B858617970731F0888199810F94BB
:1054A000BB561B870A8788859985019649F5BC807C
:1054B0000A818E81080FC880D980D6015596ED915A
:1054C000FC91C6011995B80EE92CFA2C10E0F701F1
:1054D00021917F01211127C08E819F81810F911D14
:1054E0009F838E8390E080E0DF91CF911F910F9199
:1054F000FF90EF90DF90CF90BF90AF909F90089576
:105500000E811F81692D7A2D888199810F940F4812
:10551000800F912F911D288539852817390738F676
:1055200081E090E0E1CF4B2D602FC6010F9413571F
:10553000080F180FCCCFDF92EF92FF920F931F93BB
:10554000CF93DF93EC01D62E1CAD0BAD7C0184E034
:10555000E80EF11CE98DFA8DC7011995412F480F0E
:105560002D2D602FC7010F9413579BAD890F8BAF63
:1055700081E090E0DF91CF911F910F91FF90EF902C
:10558000DF900895AB01BC0140939C1650939D168B
:1055900060939E1670939F1685E098E10C946DE6DB
:1055A00080932F028032B8F590916005891724F01E
:1055B00091E0980F9093600540915C0550915D05D6
:1055C00060915E0570915F05082E04C07695679521
:1055D000579547950A94D2F741704093201087FD64
:1055E0001DC0282F082E000C330B3F938F938AE6A3
:1055F0009AE09F938F938AE79AE09F938F931F92ED
:105600000E948ACB8DB79EB707960FB6F8949EBFBF
:105610000FBE8DBF089510922010E1CF0D94D94395
:105620000F931F93CF93DF9300D01F92CDB7DEB7B8
:105630009C0101EA18E090E1EDECF9E0D80101905D
:105640000D929A95E1F7F9012081318142815381D0
:10565000F80160857185828593850F94C071F8018A
:10566000608771878287938780E090E0A0EAB0E44A
:1056700089839A83AB83BC83CE0101960F94581023
:105680000F900F900F900F90DF91CF911F910F917E
:1056900008952F923F924F925F926F927F928F92D6
:1056A0009F92AF92BF92CF92DF92EF92FF921F93A1
:1056B000CF93DF93CDB7DEB72C970FB6F894DEBF4C
:1056C0000FBECDBF7A011901DC012D913D914D91A5
:1056D0005C912D833E834F835887FB01408051802E
:1056E000628073808090CD099090CE09A090CF0900
:1056F000B090D009A50194016D817E818F8198853C
:105700000F94CE6A81110EC011E0A3019201609145
:10571000D1097091D2098091D3099091D4090F9445
:10572000CE6A811110E0D1012D913D914D915C9196
:1057300029873A874B875C87F701C080D180E28058
:10574000F380209113023091140240911502509180
:105750001602C701B6010F94CE6A882309F44EC021
:10576000C0921302D0921402E0921502F092160237
:105770008091D9099091DA09A091DB09B091DC09F7
:105780004091D1095091D2096091D3097091D40907
:105790008092A1089092A208A092A308B092A408B7
:1057A0004093A5085093A6086093A7087093A80893
:1057B000C092A908D092AA08E092AB08F092AC0877
:1057C0008093AD089093AE08A093AF08B093B00853
:1057D00020E030E040E05FE360914E1070914F10A8
:1057E00080915010909151100F94346B69837A839B
:1057F0008B839C83CE0101960F9458102D813E819E
:105800004F8158852093A1083093A2084093A308A4
:105810005093A4084092A5085092A6086092A70849
:105820007092A808D1012D913D914D915C916091AC
:10583000AD087091AE088091AF089091B0080F94B8
:10584000C0716093AD087093AE088093AF089093D9
:10585000B00811112FC020E030E0A90169857A85D8
:105860008B859C850F94CE6A811133C060E070E017
:1058700088EC92E469837A838B839C83CE010196C2
:105880000F9458102C960FB6F894DEBF0FBECDBF04
:10589000DF91CF911F91FF90EF90DF90CF90BF905D
:1058A000AF909F908F907F906F905F904F903F90C0
:1058B0002F9008952AEF3EE74AE25FE3609152108D
:1058C0007091531080915410909155100F94346B37
:1058D000D1CF60E070E080EA91E4CCCFCF93DF934A
:1058E00000D01F92CDB7DEB780E090E0A0EAB0E430
:1058F00089839A83AB83BC8361E0CE0101960F94C8
:105900005B080F900F900F900F90DF91CF9108954B
:1059100080911E0590911F05009731F04AE050E0FC
:1059200070E060E00D94E96860E070E0CB010895FC
:105930008091E10982FF0BC063E686E59BE00E944F
:10594000A5CB0F94CF4E0E94A5D281E0089580E0B0
:10595000089580911E0590911F05009731F04AE04F
:1059600050E070E060E00D94BB6760E070E0CB0158
:1059700008950E94A92C97FD0CC00E94A92C6F3F8E
:1059800071058105910509F034F40E94A92C862F38
:10599000089580E008958FEF089580911E059091FD
:1059A0001F05892B41F00E94B92C91E0811101C0A3
:1059B00090E0892F089591E0FCCFCF92DF92EF9293
:1059C000FF920F931F93CF93DF936B017A01EC014A
:1059D000C655DB4F28813CE0389F8001399F100D70
:1059E000112427FF24C0FB011182108288818F5F60
:1059F000888388819801280F311D87FD3A95C90158
:105A000020911916F6012817190629F024F088812B
:105A10008C300CF43CC080819181049680349C4988
:105A200008F475C0F60180819181049672C0888166
:105A30009801280F311D87FD3A95C901209119164B
:105A40002817190699F294F28881A801480F511D70
:105A500087FD5A95FA01EE0FFF1FE40FF51FEF5275
:105A6000FA4E808187FFC2CF8881F801E80FF11DCF
:105A700087FDFA95CF01EE0FFF1FE80FF91FEF52D8
:105A8000FA4E808160E08F770F94014DAFCF808117
:105A900091812881A801420F511D27FD5A959A0135
:105AA000FA01EE0FFF1FE20FF31FEF52FA4E2181B2
:105AB0003281820F931FF70191838083888198013F
:105AC000280F311D87FD3A95F901EE0FFF1FE20FF8
:105AD000F31FEF52FA4E808187FF20C08881080FA4
