:100000000C9474230C94A5230C94A5230C94A52381
:100010000C94A5230C94A5230C94A5230C94A52340
:100020000C94A5230C94A5230C94A5230C94A52330
:100030000C94A5230D944C4C0C94A5230C94A5234F
:100040000C94A5230C94B1E80C94A5230C94A5233F
:100050000C94A5230C94A5230C9478E50D94024CE4
:100060000C94A5230C94725B0C94685B0C94A523F0
:100070000C94A5230C94A5230C94A5230C94A523E0
:100080000C94A5230C94A5230C94A5230C94A523D0
:100090000C94A5230C94A5230C94A5230C94A523C0
:1000A0000C94A5230C94A5230C94A5230C94A523B0
:1000B0000C94A5230C94A5230C94A5230C94A523A0
:1000C0000C94A5230C94A5230C94A5230C94A52390
:1000D0000C94A5230C94A5230C94A5230C94A52380
:1000E0000C94A523084AD73B3BCE016E84BCBFFDD0
:1000F000C12F3D6C74319ABD56833DDA3D00C77FF8
:1001000011BED9E4BB4C3E916BAAAABE0000008090
:100110003F05A84CCDB2D44EB93836A9020C50B91F
:10012000918688083CA6AAAA2ABE000000803F004B
:100130000C94AA230C94105C0D9425460C942D8DE0
:100140000D947D450D94A0570C94D5C40C94128C3D
:100150000C94BC8D0D94A9450C94D6940C94688E87
:100160000C94A78B0C94FD970C94DC910D94825702
:100170000C940BC50C94DCD90C94DA950C948BD7A9
:100180000C94E6940D949F450C9419900C94EE5B9E
:100190000D94F7450C94235C0C94FC960D94EA4561
:1001A0000C94E9B00C942A920C940C5C0D947A4651
:1001B0000C94E1C40C94168D0C949FD80C94DD8D96
:1001C0000C94F98D0C94365C0C94EE970D940146CA
:1001D0000C94B05B0C94EB960C947BA30C9427903E
:1001E0000C9423900C94C08B0C94FFC40D941A258E
:1001F0000D9483450C94F9C40C94D18C0C949E9569
:100200000C942E920C94A2920C94D0910C941F906A
:100210000D945C460C9427D80D9495450D94844616
:100220000C94DE940C9469CE0C94EF8D0C940D9884
:100230000D942F570C943E960C94F8A90C9404D965
:100240000C9483AD0C9481260C94E88B0C94F8C22A
:100250000C942B8C0C94FD5B0C9401A30D946646BE
:100260000C9449960C9429890C9421900C94EA8D55
:100270000C9425960C94AACE0C94D2940C946A8C6F
:100280000C943EA50C947EB40C94508E0C94F48D7A
:100290000C94FAC80C94C6940C94045C0C948AB226
:1002A0000C940C960C945F8E0C94E88C0C945D2945
:1002B0000C943F8F0C9492420C940A980D94AD4587
:1002C0000C94A58C0C94E5960C949DD90C94A69551
:1002D0000C947DB70C9424240D9476450C940DACAD
:1002E0000C94FE8D0C941FD90C94628E0D948D4548
:1002F0000C94E7C40C94F3950C94C3C40D941D4660
:100300000D9452460C9497900C94CFC40D94434690
:100310000C94FD8E0C94FCA20D9487450C94C0D8CF
:100320000C946EAB0C94A6DA0C941BBC0C941DD5EB
:100330000C94CA940D9415460C941C5C0C94F4AE69
:100340000C94085C0C94AFD90C941E890D946E45E6
:100350000C94EDC40C94A03A0D9491450C94145C4B
:100360000C94F3CE0C949FD50C94CE940C9449A786
:100370000C94185C0D949B450C941D900C94368E37
:100380000C9403980D947A450C94DA8F0C94DA94BB
:100390000C94DF5B0C94659A0C9408980C9470C5CF
:1003A0000C9484980C940AD80C94F3D60C94A0D591
:1003B0000C94EABA0C94EA940C9481890C94F7CDCD
:1003C0000C94D8CD0C9407A00C94C9C40D9470263D
:1003D0000C9410980C94F7A20C94FA970C94928CAD
:1003E0000C94CB8F0D94F2450D945C450C9465B93B
:1003F0000C948E8B0C9425900C94518C0D94574535
:100400000C94DF8D0C944ACE0D942F460D947046BB
:100410000C94838C0C94DB8D0C94658E0D94472585
:100420000C94FB880C94439D0C942E5C0C9406A3B6
:100430000C94B38D0C94C88D0C949FC00C948F8F2A
:100440000C94E8290C94F1970C94C9CE0C941B9051
:100450000C9407970C94F78B0C944E8F0D94792580
:100460000C94A6AC0C9400980C94E2940D947245F4
:100470000C94E3970C94F3C40C94A7230C946EA8EB
:100480000C94AAC50C94CF8B0C9466980D94A3453C
:100490000C94FF8C0C9486290C9469980C94F49716
:1004A0000C9405C50D940B460C94F7970C94DBC483
:1004B0000C9432920C943E8C0C94D8AA0C9494B266
:1004C0000C94B88C0C947D950C94F3960C94ACB26F
:1004D0000D9439460C9468890C94389C0C946926C8
:1004E0004E414E494E495459494E46CDCCCC3D0A19
:1004F000D7233C17B7D13877CC2B329595E6241FFC
:10050000B14F0A000020410000C84200401C4620B4
:10051000BCBE4CCA1B0E5AAEC59D7400407A10F387
:100520005A00A0724E18090010A5D4E80000E87621
:1005300048170000E40B54020000CA9A3B00000078
:10054000E1F505000080969800000040420F000091
:1005500000A08601000000102700000000E8030052
:100560000000006400000000000A0000000000011C
:1005700000000000002C76D888DC674F0823DFC11C
:10058000DFAE59E1B1B796E5E3E453C63AE65199D7
:100590007696E8E6C28426EB898C9B62ED407C6F00
:1005A000FCEFBC9C9F40F2BAA56FA5F490055A2AB7
:1005B000F75C936B6CF9676DC11BFCE0E40D47FEC3
:1005C000F520E6B500D0ED902E03009435770500B8
:1005D00080841E080000204E0A000000C80C33333F
:1005E00033330F986E12831141EF8D2114893BE64E
:1005F0005516CFFEE6DB18D1844B381BF77C1D90D7
:100600001DA4BBE424203284725E228100C9F1243F
:10061000ECA1E53D27434F4D4D554E4943415449CB
:100620004F4E0044525952554E004552524F52536C
:1006300000494E464F004543484F004572726F7265
:100640002077726974696E6720746F204545505237
:100650004F4D210A0053544F505045442E20005016
:1006600072696E7465722073746F70706564206453
:10067000756520746F206572726F72732E204669E3
:100680007820746865206572726F7220616E6420D4
:10069000757365204D39393920746F207265737414
:1006A0006172742E202854656D7065726174757264
:1006B000652069732072657365742E2053657420FC
:1006C00069742061667465722072657374617274F6
:1006D000696E67290A004E6F20436865636B737506
:1006E0006D2077697468206C696E65206E756D6227
:1006F00065722C204C617374204C696E653A200041
:100700004E6F20436865636B73756D2077697468FD
:10071000206C696E65206E756D6265722C204C616F
:100720007374204C696E653A2000636865636B736F
:10073000756D206D69736D617463682C204C6173F5
:1007400074204C696E653A20004C696E65204E75C8
:100750006D626572206973206E6F74204C617374D2
:10076000204C696E65204E756D6265722B312C20B0
:100770004C617374204C696E653A20004D31313004
:100780000053657269616C20737461747573206DB8
:1007900069736D617463680A00776169740A005354
:1007A000442072656164206572726F720A00486F3E
:1007B00074656E642049646C652054696D656F755D
:1007C0007400486F74656E642049646C65205469D8
:1007D0006D656F75740A002121204B494C4C2063D4
:1007E0006175736564206279204B494C4C206275B9
:1007F00074746F6E2F70696E0A002121204B494C72
:100800004C2063617573656420627920746F6F207A
:100810006D75636820696E616374697665207469BB
:100820006D65202D2063757272656E7420636F6D27
:100830006D616E643A20007061757365004D3630ED
:1008400030002066696C616D656E745F72756E6FE5
:100850007574200066696C616D656E745F72756E8B
:100860006F757420540046696C616D656E745275C5
:100870006E6F75742054004D656469612052656D1A
:100880006F766564004D6564696120496E736572B9
:10089000746564004D313030305300627573793ABD
:1008A0002070617573656420666F7220696E707563
:1008B000740A00627573793A2070617573656420FB
:1008C000666F7220757365720A00627573793A20DB
:1008D00070726F63657373696E670A00506C65614F
:1008E0007365205265736574005052494E544552E9
:1008F0002048414C5445440025533A20255300706C
:100900006F7765726F6666004B494C4C45442E20EC
:10091000005072696E7465722068616C7465642E33
:10092000206B696C6C28292063616C6C6564210AFA
:10093000006563686F3A004572726F723A004269EF
:100940006C696E656172204C6576656C696E6720B6
:10095000477269643A0A005072696E74696E672062
:100960004F626A656374002553202569002F2F614B
:100970006374696F6E3A0073746172740070726FA1
:100980006D70745F00656E6400486F74656E6420FE
:10099000746F6F20636F6C640A0053656E64204D42
:1009A00031303820746F20726573756D650A0049A7
:1009B0006E736572742066696C616D656E7420611A
:1009C0006E642073656E64204D3130380A005265C4
:1009D0006865617420446F6E650052656865617476
:1009E000696E672E2E2E0052656865617400486539
:1009F000617465722054696D656F75740053656E1E
:100A000064204D31303820746F2068656174206E29
:100A10006F7A7A6C650A004E6F7A7A6C6520506145
:100A2000726B656400706175736564005061757305
:100A30006500726573756D656400526573756D69E7
:100A40006E67004732362043616E63656C656400F3
:100A50004732362048656174696E67204E6F7A7A36
:100A60006C65004732362048656174696E672042C4
:100A700065640057616974696E6720666F722068EB
:100A800065617475702E0A004669786564204C654E
:100A90006E677468205072696D6500446F6E6520E2
:100AA0005072696D696E67004D616E75616C207082
:100AB00072696D696E672E2E2E004C656176696EC7
:100AC0006720473236003F53706563696669656425
:100AD00020582C5920636F6F7264696E61746520B1
:100AE0006F7574206F6620626F756E64732E0A00D6
:100AF0003F28522965706561742076616C756520A8
:100B00006E6F7420706C61757369626C653B206DEB
:100B1000757374206265206174206C656173742044
:100B2000312E0A003F537065636966696564206E03
:100B30006F7A7A6C652074656D7065726174757218
:100B400065206E6F7420706C61757369626C652EC0
:100B50000A003F5370656369666965642066696C65
:100B6000616D656E742073697A65206E6F74207094
:100B70006C61757369626C652E0A003F5370656322
:100B80006966696564207072696D65206C656E6761
:100B90007468206E6F7420706C61757369626C6527
:100BA0002E0A003F537065636966696564206E6F45
:100BB0007A7A6C652073697A65206E6F7420706C28
:100BC00061757369626C652E0A003F5265747261CB
:100BD0006374696F6E204D756C7469706C696572B1
:100BE000206D757374206265207370656369666932
:100BF00065642E0A003F5370656369666965642009
:100C000052657472616374696F6E204D756C74699E
:100C1000706C696572206E6F7420706C6175736999
:100C2000626C652E0A003F5370656369666965648E
:100C3000206C6179657220686569676874206E6FE1
:100C40007420706C61757369626C652E0A004329AB
:100C50002E0A003F537065636966696564206265AA
:100C6000642074656D7065726174757265206E6F55
:100C70007420706C61757369626C65202834302D46
:100C800000473236207374617274696E672E2E2E9F
:100C90000A004F46460A0046616465204865696758
:100CA00068742000426564204C6576656C696E67E7
:100CB00020004661696C656420746F20656E616216
:100CC0006C6520426564204C6576656C696E670AC8
:100CD00000496E76616C6964206D6573682E0A0048
:100CE00050726F62696E6720506F696E7400255391
:100CF0002025692F2569002E0A002F0050726F628F
:100D0000696E67206D65736820706F696E7420006E
:100D1000202844525952554E2900473239204175F6
:100D2000746F20426564204C6576656C696E67005F
:100D30003F20284C2C522C462C4229206F757420C1
:100D40006F6620626F756E64732E0A003F28562905
:100D50006572626F7365206C6576656C20696D7075
:100D60006C61757369626C652028302D34292E0AF8
:100D700000426164205A2076616C75650A004E6FEE
:100D80002062696C696E65617220677269640A002D
:100D9000446576696174696F6E0025533A20257346
:100DA0000046696E6973686564210A003A207A3AE0
:100DB0002000206F662000476F696E6720746F3ACD
:100DC00020580043570A00206469723A0020616E7F
:100DD000676C653A0053746172742072616469755E
:100DE000733A004D343820506F696E740025533AC1
:100DF0002025642F256400506F736974696F6E69D4
:100E00006E67207468652070726F62652E2E2E0AE0
:100E1000003F4C656773206F66206D6F76656D656A
:100E20006E7420696D706C61757369626C652028E1
:100E3000302D3135292E0A003F2028582C592920E1
:100E40006F7574206F6620626F756E64732E0A0072
:100E500050726F6265206F7574206F6620626F75C7
:100E60006E6473003F53616D706C652073697A65C1
:100E7000206E6F7420706C61757369626C652028D8
:100E8000342D3530292E0A004D3438205A2D507219
:100E90006F6265205265706561746162696C697426
:100EA0007920546573740A003F2856296572626F71
:100EB0007365206C6576656C20696D706C61757307
:100EC00069626C652028302D34292E0A0053746124
:100ED0006E6461726420446576696174696F6E3A0C
:100EE00020002052616E67653A2000204D61783AFB
:100EF0002000204D696E3A2000205369676D613AE9
:100F000020004D65616E3A20002052004163636508
:100F10006C65726174696F6E3A2050005741524E91
:100F2000494E4721204C6F77205A204A65726B202A
:100F30006D6179206C65616420746F20756E7761D6
:100F40006E746564207061757365732E0A004F4678
:100F500046004F4E0020204D61783A2000200020AE
:100F6000204D696E3A2000536F667420656E64737D
:100F7000746F70733A20004D32342053256C642016
:100F800054256C64004739322E39204525730047BB
:100F90003120462564004739322E39205A25730006
:100FA0004731205A30204632303000473120582512
:100FB0007320592573204633303030004D343230A1
:100FC00020532569205A2573004D31303620502595
:100FD0006920532569004D32303020442573004785
:100FE000323852305859004739322E392045302096
:100FF0005A300A47315A2573004D31303920532574
:1010000069004D31393020532569004D343230208C
:101010005330205A300020496E76616C6964206537
:1010200078747275646572200047322F47332062EE
:10103000616420706172616D65746572730A00533A
:101040006C6565702E2E2E005A2050726F626520DE
:1010500050617374204265640A005A2050726F62B6
:1010600065205061737420426564004732384C300B
:10107000004D3131372050726F6265206661696CB6
:1010800065642E0A4732380A0070726F62655F72BB
:1010900065776970650047323920526574727969E5
:1010A0006E670050726F62696E67204661696C6599
:1010B00064004D31313720426564206C6576656C83
:1010C000696E67206661696C65642E0A4730205A34
:1010D00031300A4D333030205032352053383830DB
:1010E0000A4D333030205035302053300A4D3330E4
:1010F000302050323520533838300A4D33303020CC
:101100005035302053300A4D3330302050323520A6
:10111000533838300A4D333030205035302053307A
:101120000A47342053310070726F62655F666169EF
:101130006C6564004D31313720426564206C657602
:10114000656C696E6720646F6E652E00205A3A20C8
:101150000020593A200042656420583A20004D652D
:10116000736820706F696E74206F7574206F6620CD
:1011700072616E67650A004D302053746F70004DC8
:10118000312053746F7000436C69636B20746F205F
:10119000526573756D652E2E2E004E6F204D6F7645
:1011A000652E00456E642066696C65206C697374F9
:1011B0000A00426567696E2066696C65206C697318
:1011C000740A004E6F206D656469610A0052657390
:1011D000756D696E6720534400286E6F2066696CD8
:1011E00065290043757272656E742066696C653A94
:1011F00020005072696E742074696D653A20000A8F
:1012000053746174733A2046696C616D656E742025
:10121000757365643A20002C204C6F6E676573749B
:10122000206A6F623A2000546F74616C2074696D9B
:10123000653A200053746174733A20002C20466193
:10124000696C65643A20002C2046696E6973686594
:10125000643A20005072696E74733A2000537461CE
:1012600074733A2000436F6F6C696E672E2E2E00E8
:1012700048656174696E672E2E2E00452025530047
:101280006F6B006F666600360631062A0623061568
:101290000644454255473A004D3131332053004210
:1012A000656420436F6F6C696E672E2E2E00426559
:1012B000642048656174696E672E2E2E0044445880
:1012C00020435231305632204F46462E002F2F00F9
:1012D0004D31343520533C696E6465783E206F751E
:1012E00074206F662072616E67652028302D312969
:1012F0000A004D32303620580046523A0020466CE3
:101300006F773A200020643A0020693A0020703A52
:1013100000496E76616C69642065787472756465E5
:10132000720A0020643A0020693A0020703A006492
:10133000697300656E0043290A0061626C65642070
:10134000286D696E2074656D702000436F6C642099
:1013500065787472756465732061726520004669F2
:101360006C616D656E742072756E6F757420646942
:101370007374616E636520286D6D293A200046699B
:101380006C616D656E742072756E6F757420004DA2
:1013900034323120696E636F7272656374207061DC
:1013A00072616D657465722075736167650A004DC1
:1013B00065736820706F696E74206F7574206F6636
:1013C0002072616E67650A004F66667365747320EC
:1013D0004170706C696564004572723A20546F6F99
:1013E000206661722100546F6F2066617220667200
:1013F0006F6D207265666572656E636520706F69DA
:101400006E740A00454550524F4D204F4B0A005014
:101410006F7765722D6C6F7373207265636F76657D
:10142000727920004D383400446F6E652070726907
:101430006E74696E672066696C650A004D37370007
:101440004D3331004361703A004D454154504143A2
:101450004B00434F4F4C45525F54454D5045524110
:1014600054555245004348414D4245525F54454D05
:1014700050455241545552450042414259535445FA
:101480005050494E470041524353004D4F54494F2D
:101490004E5F4D4F44455300544845524D414C5FBB
:1014A00050524F54454354494F4E004C4F4E475FA6
:1014B00046494C454E414D45004155544F524550CB
:1014C0004F52545F53445F53544154555300534457
:1014D0005F575249544500524550454154005344CA
:1014E000434152440050524F4D50545F5355505059
:1014F0004F525400454D455247454E43595F504168
:101500005253455200434153455F4C494748545F4D
:101510004252494748544E45535300544F47474C55
:10152000455F4C494748545300534F465457415226
:10153000455F504F574552004255494C445F504516
:101540005243454E54004C4556454C494E475F4426
:10155000415441005A5F50524F42450052554E4F40
:101560005554004155544F4C4556454C0050524936
:101570004E545F4A4F420050524F4752455353001A
:101580004155544F5245504F52545F54454D5000B1
:10159000564F4C554D455452494300454550524FC6
:1015A0004D0042494E4152595F46494C455F5452A5
:1015B000414E534645520053455249414C5F584FA6
:1015C0004E5F584F4646004649524D574152455F7F
:1015D0004E414D453A4D61726C696E20322E302E6F
:1015E000375F4457372E3320426F6E6474656368EB
:1015F0002053534D444142202841707220323920FB
:10160000323032312031333A35383A3331292053B0
:101610004F555243455F434F44455F55524C3A68DE
:10162000747470733A2F2F6769746875622E636FD4
:101630006D2F496E73616E6974794175746F6D6158
:1016400074696F6E2F4D61726C696E2F747265656F
:101650002F437265616C6974794477696E5F322ECD
:10166000302050524F544F434F4C5F5645525349D0
:101670004F4E3A312E30204D414348494E455F543C
:101680005950453A4444582043523130563220454F
:10169000585452554445525F434F554E543A3120A9
:1016A000555549443A63656465326132662D34317B
:1016B00061322D343734382D396231322D6335356E
:1016C0006336326633363766660A0050726F62657B
:1016D000204F6666736574205A0050726F626520F1
:1016E0004F6666736574205A00290A0020746F20C3
:1016F000003F5A206F7574206F662072616E6765B7
:10170000202800290A0020746F20003F59206F759F
:1017100074206F662072616E676520282D00290A8B
:101720000020746F20003F58206F7574206F662072
:1017300072616E676520282D0050726F6265204FC0
:10174000666673657420580043616E6E6F74206F17
:1017500070656E207375626469722000256973007C
:1017600025696D20256973002569682025696D202C
:1017700025697300256964202569682025696D2025
:101780002569730025697920256964202569682009
:1017900025696D202569730023646566696E65207F
:1017A00044454641554C545F00626564004B6420DB
:1017B000004B6920004B7020005049442041757453
:1017C0006F74756E652066696E6973686564212043
:1017D00050757420746865206C617374204B702C94
:1017E000204B6920616E64204B6420636F6E7374BC
:1017F000616E74732066726F6D2062656C6F772006
:10180000696E746F20436F6E666967757261746983
:101810006F6E2E680A00504944204175746F7475CC
:101820006E65206661696C6564212074696D656F01
:1018300075740A00504944204175746F74756E6563
:10184000206661696C6564212054656D7065726104
:101850007475726520746F6F20686967680A00206C
:101860004B643A2000204B693A2000204B703A200C
:101870000020436C617373696320504944200A005F
:10188000204E6F206F76657273686F6F740A002048
:1018900054753A2000204B753A2000206D61783A4B
:1018A0002000206D696E3A200020643A20002062FA
:1018B0006961733A2000504944204175746F747512
:1018C0006E652073746172740A005049442041753A
:1018D000746F74756E65206661696C65642120544F
:1018E000656D706572617475726520746F6F2068C4
:1018F0006967680A00504944204175746F74756EB9
:101900006500504944204175746F74756E6520669A
:1019100061696C6564212042616420686561746559
:10192000722069640A004572723A20757466382024
:10193000666F6E74206E6F7420696E697469616C75
:10194000697A65642E004572723A20757466382093
:10195000666F6E74206E6F7420696E697469616C55
:10196000697A65642E004572723A20757466382073
:10197000666F6E74206E6F7420696E697469616C35
:10198000697A65642E00000C0F00FE07022503BB78
:10199000017FFE08FE08FE05080806000040F0C8AA
:1019A0008888987810050808060000C0F88888889C
:1019B0008888F80505050600012030F83020050864
:1019C000080600002070F820202020E00509090604
:1019D00000FF2070A8A8B8888870200705050700B8
:1019E00001D86C366CD80509090600FFF8A888886C
:1019F000888888A8F8050A0A0600FE205050505032
:101A000088A8A8887003030306000340A040FFFFD6
:101A1000FFFFFFFFFFFFFFFFFFFFFFFFFFFFFFFFD6
:101A2000FFFFFFFF0000000605FF01070706020099
:101A300080808080800080030303060105A0A0A0B1
:101A400005060606000050F85050F8500509090632
:101A500000FF2070A8A07028A870200507070600C6
:101A600000C8C8102040989805070706000040A04D
:101A7000A040A89068010303060205808080030946
:101A8000090601FF20404080808040402003090972
:101A90000601FF80404020202040408005070706C7
:101AA000000020A8702070A8200505050600012070
:101AB00020F820200203030601FFC0408005010139
:101AC000060003F8020202060100C0C0050707066F
:101AD0000000081010204040800507070600007035
:101AE0008898A8C8887003070706010040C04040D6
:101AF0004040E0050707060000708808102040F805
:101B0000050707060000F808103008887005070769
:101B100006000010305090F810100507070600006E
:101B2000F880F0080888700507070600003040803C
:101B3000F0888870050707060000F80810102020BC
:101B400020050707060000708888708888700507E0
:101B500007060000708888780810600205050601F5
:101B600000C0C000C0C00206060601FFC0C000C021
:101B70004080030505060101204080402005030345
:101B8000060002F800F80305050601018040204028
:101B90008005070706000070881020200020050738
:101BA000070600007088B8A8B8807005070706000F
:101BB00000708888F8888888050707060000F048C4
:101BC00048704848F005070706000070888080804C
:101BD0008870050707060000F04848484848F005A7
:101BE0000707060000F88080F08080F805070706E8
:101BF0000000F88080F080808005070706000070F4
:101C0000888080988870050707060000888888F813
:101C1000888888030707060100E04040404040E014
:101C20000507070600003810101010906005070720
:101C30000600008890A0C0A0908805070706000055
:101C4000808080808080F805070706000088D8A87B
:101C5000888888880507070600008888C8A89888AB
:101C6000880507070600007088888888887005073F
:101C700007060000F08888F08080800507070600CE
:101C80000070888888A89068050707060000F0881B
:101C900088F0A0908805070706000070888070080B
:101CA0008870050707060000F82020202020200566
:101CB0000707060000888888888888700507070657
:101CC0000000888888885050200507070600008893
:101CD000888888A8A8500507070600008888502033
:101CE000508888050707060000888850202020209B
:101CF000050707060000F80810204080F8030909CE
:101D00000601FFE080808080808080E00507070674
:101D10000000804040201010080309090601FFE080
:101D200020202020202020E005030306000520506D
:101D3000880501010600FEF8030303060105804043
:101D40002005050506000070087888780507070655
:101D500000008080F0888888F00505050600007086
:101D60008080887005070706000008087888888842
:101D7000780505050600007088F0807005070706E5
:101D80000000304840E04040400507070600FE7074
:101D90008888887808700507070600008080F0882A
:101DA0008888880307070601004000C0404040E0E3
:101DB0000409090601FE1000301010101090600593
:101DC000070706000080808890E0908803070706D8
:101DD0000100C04040404040E0050505060000D03D
:101DE000A8A8A8A8050505060000B0C88888880529
:101DF000050506000070888888700507070600FE44
:101E0000F0888888F080800507070600FE788888BB
:101E100088780808050505060000B0C880808005A0
:101E2000050506000078807008F005070706000029
:101E30002020F82020201805050506000088888845
:101E40009868050505060000888888502005050566
:101E50000600008888A8A8500505050600008850DF
:101E60002050880507070600FE888888502040809B
:101E7000050505060000F8102040F80309090601D1
:101E8000FF2040404080404040200109090602FFF9
:101E90008080808080808080800309090601FF8027
:101EA000404040204040408005030306000248A80F
:101EB00090FF554E4C4F41442046494C414D454EB4
:101EC00054004C4F41442046494C414D454E54002E
:101ED00046494C414D454E54204348414E474500EC
:101EE00042656400456E636C6F73757265002568AA
:101EF000753A25303268750025303268753A2530DC
:101F00003268750020202020202020002020202062
:101F1000001FE02010201020101020102020102082
:101F20001030300840048003001FE03FF03FF03FD6
:101F3000F01FE01FE03FF03FF03FF00FC0078003CD
:101F4000003FFFF038007030FC3020FC102078108B
:101F50002030102C00D02E31D02F7BD02F7BD02ED4
:101F600031D02C00D020301020781020FC1030FC14
:101F7000303800703FFFF03FFFF03800703186309E
:101F80002387102787902F87D02F03D02030102051
:101F900078102078102030102F03D02F87D027877B
:101FA000902387103186303800703FFFF01FFFF814
:101FB0001FFFF80410400208200208200410400807
:101FC00020801041001041000820800410400000D3
:101FD000001FFFF81FFFF8FFFFFF8000018E00E1E8
:101FE0009F01F19381399F81F99F81F99FB9F98F01
:101FF00028F18038018000019FFFF99174999B06B8
:10200000A99B54A99B56A99B54999FFFF9FFFFFFD9
:102010006E6F74696669636174696F6E20006361D5
:102020006E63656C005072696E742041626F7274E9
:102030006564004469736D6973730055492041629A
:102040006F72746564004D323520500A4D32340091
:10205000526573756D650055492050617573650053
:1020600050617573696E672E2E2E00726573756DE3
:1020700065004D32340000FE0003FF8007C7C00733
:1020800001E00000E00000F00000700400700E00AD
:10209000701F00703F80F00E00E00F01E007C7C026
:1020A00003FF8000FE0000FE0003FF8007C7C00F93
:1020B00001E00E00E03F80F01F00700E0070040091
:1020C000700000700000F00000E00701E007C7C0EA
:1020D00003FF8000FE000E000E000E000E000E003A
:1020E0000E000E000E007FC03F801F000E00040097
:1020F00004000E001F003F807FC00E000E000E0087
:102100000E000E000E000E000E00FFFFFF7F80FF8E
:10211000C0FFC0FFC07F807F80FFC0FFC0FFC03F07
:10212000001E000C0050726F6265205A204F6666D8
:102130007365740052756E6F7574204469737420F2
:102140006D6D004C6F6164206D6D00556E6C6F613C
:1021500064206D6D0046696C2E204469612E004537
:1021600020696E206D6D5E33004D33303320553164
:102170002045256920532569005049442041757444
:102180006F74756E65202A005049442D44202A0042
:102190005049442D49202A005049442D50202A00FE
:1021A00020082046616374002008204D61780020DB
:1021B00008204D696E004F6666004F6E00417574D1
:1021C0006F74656D70005654726176204D696E00B3
:1021D000566D696E00566D6178204500566D6178C8
:1021E000205A00566D6178205900566D617820584C
:1021F00000416D6178204500416D6178205A0041B1
:102200006D6178205900416D6178205800412D544E
:10221000726176656C00412D526574726163740061
:10222000416363656C0056652D4A65726B00565AB2
:102230002D4A65726B0056592D4A65726B005658CF
:102240002D4A65726B0050726F6265205A204F668E
:10225000667365740050726F62652059204F666620
:102260007365740050726F62652058204F66667304
:10227000657400452073746570732F6D6D005A206E
:1022800053746570732F6D6D0059205374657073AE
:102290002F6D6D00582053746570732F6D6D004164
:1022A0006476616E6365642053657474696E6773E8
:1022B000003F0043616E63656C00496E6974004DB8
:1022C00034323800496E697469616C697A652045F9
:1022D0004550524F4D0046696C616D656E740054F7
:1022E000656D7065726174757265005374657073A5
:1022F0002F6D6D0050726F6265204F666673657456
:1023000073004A65726B00416363656C657261744A
:10231000696F6E0056656C6F6369747900536574FC
:1023200020486F6D65204F66667365747300436F58
:102330006E66696775726174696F6E003F004E6505
:10234000787420506F696E7400446F6E65004E653E
:10235000787400486F6D696E672058595A003F00C5
:1023600043616E63656C204F626A656374004E4F13
:10237000005945530043616E63656C204F626A6586
:102380006374203D004D61696E00426564004E6FCC
:102390007A7A6C650046616E20537065656400430F
:1023A0006F6E66696775726174696F6E00526573EE
:1023B000746F72652044656661756C7473004C6F50
:1023C00061642053657474696E67730053746F722F
:1023D000652053657474696E677300507265686533
:1023E0006174202420436F6E6600506F7765722001
:1023F0004F7574616765004F6666004F6E005275D9
:102400006E6F75742053656E736F720050726F62D9
:1024100065205A204F666673657400416476616E6C
:102420006365642053657474696E6773004D6169F8
:102430006E004D37303220542564004D3630302048
:10244000423020542564004D373032203B25640053
:102450004D37303120542564004D373032004D3730
:102460003031004D363030204230004D61696E0011
:10247000436F6E74696E7565004F6666004F6E003F
:1024800052756E6F75742053656E736F7200507560
:10249000726765206D6F726500524553554D45203A
:1024A0004F5054494F4E533A005052494E542050C9
:1024B00041555345440020204E6F7A7A6C653A208E
:1024C000005061726B696E672E2E2E0000005761FE
:1024D000697420666F720066696C616D656E742048
:1024E0006368616E676500746F2073746172740055
:1024F0005761697420666F720066696C616D656E04
:102500007420756E6C6F616400004E6F7A7A6C6532
:102510002068656174696E6700506C656173652041
:10252000776169742E2E2E000050726573732062DD
:102530007574746F6E00746F2068656174206E6FBF
:102540007A7A6C650000496E736572742066696CF6
:10255000616D656E7400616E6420707265737320C6
:10256000627574746F6E00746F20636F6E74696E41
:102570007565005761697420666F720066696C61E9
:102580006D656E74206C6F616400005072657373CA
:1025900020427574746F6E00746F20726573756D70
:1025A00065207072696E7400005761697420666FEF
:1025B00072207072696E7400746F20726573756D2D
:1025C000652E2E2E00005761697420666F720066BA
:1025D000696C616D656E7420707572676500003E90
:1025E0002000256C642E25696D0045787472756431
:1025F000656420546F74616C003E20004C6F6E6700
:10260000657374204A6F622054696D65003E200036
:10261000546F74616C205072696E742054696D65DA
:1026200000436F6D706C65746564003A20005072F1
:10263000696E7420436F756E74003A200031353036
:102640000035004245443A2041544320313034475C
:10265000542D320052756E61776179205761746331
:10266000683A204F4E004D61782054656D700034FB
:102670003530004D696E2054656D70003500453170
:102680003A20536C696365456E6720343530C2B0BB
:1026900043005053550047656E6572696300507280
:1026A0006F746F636F6C00312E300042617564008F
:1026B00032353030303000437265616C6974793383
:1026C000442052414D50530042696C696E656172FD
:1026D000204C6576656C696E670045787472756428
:1026E0006572730031007777772E626F6E64746560
:1026F00063682E736500444458204352313056328B
:1027000000323032312D30342D313800322E302E1F
:10271000375F4457372E33004D61726C696E00503D
:1027200072696E74657220537461747300546865C5
:10273000726D6973746F727300426F6172642049C5
:102740006E666F005072696E74657220496E666FB6
:10275000004D61696E004D313030300053746F7040
:10276000205072696E7400526573756D65205072E9
:10277000696E7400506F776572204F75746167657C
:10278000004D3139305335350A4732380A4732392E
:102790000A4D3430300A4D313034533231350A4726
:1027A00032380A4D313039533231350A4D343230F6
:1027B00053310A4731583130305931303046353095
:1027C00030300A47315A300A4D3530300A4D3131F8
:1027D0003720536574205A204F6666736574004D28
:1027E000313036533132380A4D3330334338533277
:1027F00031354530550A4D3530300A4D31313720AD
:102800005049442054756E6520446F6E65004D310B
:1028100039305335350A4D313034533231350A476A
:1028200032380A4732394C310A473120583130307A
:102830005931303046353030300A47315A30004D4A
:102840003530300A4D3131372053657474696E6705
:10285000732053746F726564005072657020666FE8
:1028600072205A2041646A757374005049442054A0
:10287000756E650053657475700053746F726520D2
:1028800053657474696E6773004D61696E003F0033
:102890004261636B0053746F70005072696E7420F4
:1028A00066726F6D204D65646961004368616E6793
:1028B00065204D65646961004D32310041626F757C
:1028C00074205072696E746572004368616E67654A
:1028D0002046696C616D656E74004C6576656C6947
:1028E0006E6720546F6F6C7300436F6E6669677517
:1028F000726174696F6E0054656D70657261747594
:102900007265004D6F74696F6E00486F7374205369
:102910007461727400526573756D65205072696ED2
:10292000740043616E63656C204F626A6563740076
:1029300054756E650053746F70205072696E740028
:102940005061757365205072696E74004E6F204D32
:102950006564696100496E666F2053637265656ED8
:10296000003F005374617274205072696E740043AA
:10297000616E63656C005072696E740043616E6EC7
:102980006F7420656E746572207375626469723A43
:102990002000022E2E004D61696E002100486F74E8
:1029A000656E6420746F6F20636F6C6400426163B6
:1029B0006B0050726F6365656400536F66742045E9
:1029C0006E6473746F7073004D6F74696F6E004442
:1029D000697361626C652053746570706572730011
:1029E0004D3834004D34382050726F626520546584
:1029F0007374004732384F0A4D343820503130005C
:102A00004C6576656C20436F726E6572730046612B
:102A1000646520486569676874004F6666004F6E9C
:102A200000426564204C6576656C696E67004C6594
:102A300076656C20426564004732394E00486F6D00
:102A400065205A004732385A00486F6D652059009A
:102A50004732385900486F6D652058004732385862
:102A6000004175746F20486F6D6500473238004D26
:102A700061696E0050726568656174202420456E3E
:102A800064005072656865617420242042656400AA
:102A900054656D706572617475726500436F6F6C1B
:102AA000646F776E0050726568656174202400461B
:102AB000616E205370656564207E00426564004E3F
:102AC0006F7A7A6C65004D61696E0050726F626555
:102AD000205A204F666673657400466C6F77004617
:102AE000616E205370656564207E00426564004E0F
:102AF0006F7A7A6C65005370656564004D61696E2C
:102B000000486F6D696E67204661696C6564006F8F
:102B100070656E00545249474745524544003A207B
:102B20000066696C616D656E74007A5F6D696E0038
:102B3000795F6D696E00785F6D696E005265706FC8
:102B40007274696E6720656E6473746F702073743D
:102B5000617475730A0020746F6F206C6F6E67204C
:102B6000657874727573696F6E2070726576656EC4
:102B70007465640A0020636F6C64206578747275F4
:102B800073696F6E2070726576656E7465640A0095
:102B9000486F6D6520257325732573204669727310
:102BA00074005761726E696E673A20486F6D696E86
:102BB000672042756D702044697669736F72203C9E
:102BC00020310A00020204000000000000000000A2
:102BD00000000000809D4300009B430000C84300AC
:102BE0000000410000004100000040000000010022
:102BF00000000100008000555555000000400033E2
:102C0000333300AAAA2A004992240000002000C7FA
:102C1000711C0099991900D1451700555515003BB5
:102C2000B113002449120011111100000010000F0F
:102C30000F0F00E3380E0043790D00CCCC0C00C31D
:102C4000300C00E8A20B0064210B00AAAA0A007055
:102C50003D0A009DD80900427B090092240900DC4E
:102C6000D30800888808001042080000000800F01F
:102C7000C107008787070075500700711C07003ED9
:102C8000EB0600A1BC0600699006006666060070AF
:102C90003E06006118060017F4050074D105005BBC
:102CA000B00500B290050062720500555505007828
:102CB000390500B81E0500050505004EEC04008727
:102CC000D40400A1BD040090A7040049920400C1EF
:102CD0007D0400EE690400C7560400444404005C0F
:102CE0003204000821040041100400000004003FE9
:102CF000F00300F8E0030026D20300C3C30300CCB6
:102D0000B503003AA803000A9B0300388E0300C0F5
:102D10008103009F750300D0690300505E03001D0E
:102D200053030034480300913D030033330300167E
:102D3000290300381F030097150300300C0300031C
:102D40000303000BFA020049F10200BAE802005C3A
:102D5000E002002DD802002DD0020059C80200B0B8
:102D6000C0020031B90200DAB10200AAAA0200A032
:102D7000A30200BC9C0200FA9502005C8F0200DFF7
:102D800088020082820200457C020027760200272A
:102D9000700200436A02007C640200D05E02003FC1
:102DA000590200C8530200FFFDFCFAF8F6F4F2F0F5
:102DB000EEECEAE9E7E5E3E1E0DEDCDAD9D7D5D409
:102DC000D2D0CFCDCBCAC8C7C5C3C2C0BFBDBCBAA5
:102DD000B9B7B6B4B3B2B0AFADACAAA9A8A6A5A412
:102DE000A2A1A09E9D9C9A99989795949392908F5A
:102DF0008E8D8B8A8988878684838281807F7E7D81
:102E00007B7A797877767574737271706F6E6D6C8A
:102E10006B6A696867666564636261605F5E5D5C7A
:102E20005B5A5958585756555453525150504F4E5B
:102E30004D4C4B4A4A494847464645444342424125
:102E4000403F3E3E3D3C3B3B3A39383837363535DE
:102E5000343332323130302F2E2E2D2C2B2B2A2989
:102E60002928272726252524232322212120201F26
:102E70001E1E1D1C1C1B1B1A1919181817161615B7
:102E80001514131312121111100F0F0E0E0D0D0C3D
:102E90000C0B0A0A090908080707060605050404B9
:102EA0000303020201000000809D4300009B4300D9
:102EB00000C84300000000000000000000000053B4
:102EC000657474696E67732053746F72656400452E
:102ED0004550524F4D20496E697469616C697A653D
:102EE000640A003B20003A0A0020204D363033208F
:102EF0000020440020204D34313220530046696CBC
:102F0000616D656E742072756E6F75742073656E79
:102F1000736F723A002055004C0046696C616D6514
:102F20006E74206C6F61642F756E6C6F6164206CC1
:102F3000656E677468733A0020204D38353120582B
:102F4000005A2D50726F6265204F6666736574007B
:102F500020204D343133205300506F7765722D4C53
:102F60006F7373205265636F766572793A002044FF
:102F70000020490020204D333034205000204400F0
:102F800020490020204D333031205000504944204A
:102F900073657474696E67733A00204600204800B8
:102FA00020204D3134352053004D617465726961C4
:102FB0006C2068656174757020706172616D6574F4
:102FC0006572733A00204A0020204732392057208A
:102FD000490020204D3432302053004175746F2059
:102FE000426564204C6576656C696E673A00202006
:102FF0004D323036205800486F6D65206F6666731D
:1030000065743A0020580020530020204D3230359E
:10301000204200416476616E6365643A20423C6DF3
:10302000696E5F7365676D656E745F74696D655F0A
:1030300075733E20533C6D696E5F666565647261B1
:1030400074653E20543C6D696E5F74726176656C88
:103050005F66656564726174653E20583C6D617899
:103060005F785F6A65726B3E20593C6D61785F796D
:103070005F6A65726B3E205A3C6D61785F7A5F6A69
:1030800065726B3E20453C6D61785F655F6A657275
:103090006B3E0020540020520020204D323034205E
:1030A0005000416363656C65726174696F6E2028BE
:1030B000756E6974732F7332293A20503C707269AF
:1030C0006E745F616363656C3E20523C726574721E
:1030D0006163745F616363656C3E20543C7472612C
:1030E00076656C5F616363656C3E0020204D323015
:1030F000312058004D6178696D756D2041636365BD
:103100006C65726174696F6E2028756E6974732FB7
:103110007332293A0020204D3230332058004D615F
:1031200078696D756D20666565647261746573207C
:1031300028756E6974732F73293A00537465707320
:103140002070657220756E69743A0020440020205A
:103150004D3230302053002044697361626C6564E5
:103160000A0046696C616D656E74207365747469DC
:103170006E67733A0020204D3134392043203B20C4
:10318000556E69747320696E2043656C736975733D
:103190000A0020286D6D2900202047323120202090
:1031A000203B20556E69747320696E206D6D0000A0
:1031B00000FA430000FA430000204100009642005C
:1031C00000A0420000A0420000C8430080CF43DCC2
:1031D000050000DC050000640000004B0000002436
:1031E000F4D43050C38E20C2A24017828B701112CB
:1031F0007A910D816CD90AA861E108C75866076108
:103200005143061E4B5D05C145A7041A411104092F
:103210003D9803713931034036DB0265339102D4A6
:10322000305402802E1D02632CEE01752AC501B0B8
:1032300028A001102781018F2564012B244B01E078
:10324000223401AC211F018D200D01801FFC008460
:103250001EED00971DDF00B81CD200E61BC6002043
:103260001BBC00641AB200B219A8000A19A0006AB7
:10327000189900D117910040178B00B516840031C2
:10328000167E00B31579003A157300C7146F005805
:10329000146A00EE1366008813630025135E00C7EE
:1032A000125B006C12570015125400C111510070CE
:1032B000114F0021114B00D61049008D10470046D8
:1032C00010440002104200C00F4000800F3E004238
:1032D0000F3C00060F3B00CB0E3800930E37005C0E
:1032E0000E3500270E3400F30D3200C10D31009071
:1032F0000D3000600D2E00320D2D00050D2C00D973
:103300000C2B00AE0C2900850C29005C0C27003525
:103310000C27000E0C2600E80B2400C40B2400A090
:103320000B23007D0B23005A0B2100390B210018C1
:103330000B2000F80A1F00D90A1E00BB0A1E009DC0
:103340000A1D00800A1D00630A1C00470A1B002C8E
:103350000A1B00110A1A00F7091A00DD091900C436
:10336000091900AB091900920917007B09180063BD
:103370000917004C09160036091600200916000A24
:10338000091500F5081500E0081400CC081400B871
:10339000081400A4081400900813007D0812006BA4
:1033A00008130058081200460812003408110023C0
:1033B0000811001208110001081100F0071000E0C8
:1033C000071000D0071000C0071000B0070F00A1C1
:1033D00007100091070E0083070F0074070F0065A8
:1033E000070E0057070E0049070E003B070D002E81
:1033F000070E0020070D0013070D0006070D00F94A
:10340000060C00ED060D00E0060C00D4060C00C80A
:10341000060C00BC060C00B0060C00A4060B0099BC
:10342000060C008D060B0082060B0077060B006C65
:10343000060B0061060A0057060B004C060A004204
:10344000060A0038060A002E060A0024060A001A98
:10345000060A001006090007060A00FD050900F427
:10346000050900EB050900E2050900D9050900D0AE
:10347000050900C7050900BE050900B5050800AD2E
:10348000050800A50509009C050800940508008CA6
:10349000050800840508007C050800740508006C18
:1034A000050700650508005D050700560508004E84
:1034B00005070047050700400508003805070031EB
:1034C0000507002A050700230507001C050600164E
:1034D0000507000F0507000805060002050700FBA9
:1034E000040600F5040700EE040600E8040600E206
:1034F000040700DB040600D5040600CF040600C95B
:10350000040600C3040600BD040600B7040600B1AB
:10351000040500AC040600A6040600A00405009BF8
:1035200004060095040500900406008A0405008541
:10353000040500800406007A040500750405007087
:103540000405006B04050066040500610405005CC9
:1035500004050057040500520405004D0405004809
:10356000040500430405003E0404003A0405003548
:10357000040500300404002C040500270404002383
:103580000405001E0404001A0404001604050011BA
:103590000404000D040400090405000404040000F0
:1035A000040400FC030400F8030400F4030400F026
:1035B000030400EC030400E8030400E4030400E057
:1035C000030400DC030400D8030400D4030400D087
:1035D000030400CC030400C8030300C50303002454
:1035E000F404D9201BC40C5C0E9804C4095F026566
:1035F000077101F405F900FB04B30048048700C11A
:103600000369005803550003034500BE023A0084D5
:1036100002310053022A002902250004022000E49E
:10362000011C00C8011900AF0117009801140084A3
:10363000011300710110006101100051010E0043DF
:10364000010D0036010B002B010B0020010B0015B2
:103650000109000C01090003010800FB000800F348
:10366000000800EB000700E4000600DE000600D8BA
:10367000000600D2000600CC000500C7000500C20D
:10368000000500BD000400B9000400B5000400B14D
:10369000000400AD000400A9000400A5000300A27E
:1036A0000003009F0004009B0003009800030095A6
:1036B00000020093000300900003008D0002008BC5
:1036C00000030088000200860002008400030081DD
:1036D0000002007F0002007D0002007B00020079F2
:1036E0000002007700010076000200740002007200
:1036F000000100710002006F0002006D0001006C0B
:103700000002006A00010069000200670001006613
:103710000001006500010064000200620001006118
:10372000000100600001005F0002005D0001005C1C
:103730000001005B0001005A00010059000100581F
:10374000000100570001005600010055000100541F
:10375000000100530000005300010052000100511D
:10376000000100500001004F0001004E0000004E1B
:103770000001004D0001004C0001004B0000004B17
:103780000001004A00010049000100480000004813
:10379000000100470001004600000046000100450E
:1037A0000000004500010044000100430000004308
:1037B0000001004200000042000100410000004101
:1037C000000100400001003F0000003F0001003EFA
:1037D0000000003E0001003D0000003D0001003CF3
:1037E0000000003C0000003C0001003B0000003BEA
:1037F0000001003A0000003A0001003900000039E1
:1038000000010038000000380000003800010037D7
:1038100000000037000100360000003600000036CE
:1038200000010035000000350000003500010034C3
:1038300000000034000000340001003300000033B9
:1038400000000033000100320000003200000032AE
:1038500000010031000000310000003100010030A3
:1038600000000030000000300001002F0000002F99
:103870000000002F0000002F0001002E0000002E8D
:103880000000002E0001002D0000002D0000002D82
:103890000000002D0001002C0000002C0000002C76
:1038A0000000002C0001002B0000002B0000002B6A
:1038B0000000002B0001002A0000002A0000002A5E
:1038C0000000002A00010029000000290000002952
:1038D0000000002900000029000100280000002845
:1038E0000000002800000028000000280001002738
:1038F000000000270000002700000027000000272C
:10390000000100260000002600000026000000261E
:103910000000002600010025000000250000002511
:103920000000002500000025000000250001002403
:1039300000000024000000240000002400000024F7
:1039400000010023000000230000002300000023EA
:1039500000000023000000230000002300010022DB
:1039600000000022000000220000002200000022CF
:1039700000000022000100210000002100000021C1
:1039800000000021000000210000002100000021B3
:1039900000010020000000200000002000000020A6
:1039A0000000002000000020000000200000002097
:1039B0000001001F0000001F0000001F0000001F8A
:1039C0000000001F0000001F0000001F0001001E7B
:1039D0000000001E0000001E0000001E0000003954
:1039E0003000003325000087190000B00F0000DB15
:1039F000080000BD040000740200003F0100002028
:103A0000436F756E7420583A00426564004531007A
:103A1000626564002C2073797374656D2073746F14
:103A20007070656421204865617465725F49443A2D
:103A3000200048656174696E67204661696C656441
:103A40000048656174696E67206661696C65640031
:103A50004D3131322053687574646F776E001000F9
:103A6000C90210012C014001220170011801B001AE
:103A70000E01F00104015002FA00B002F000300320
:103A8000E600D003DC009004D2007005C800A00658
:103A9000BE000008B400B009AA00D00BA000600E60
:103AA000960060118C000015820020197800C01D5E
:103AB0006E00A0226400B0275A00902C5000003104
:103AC0004600E0343C0010383200903A2800603C58
:103AD0001E00A03D1400803E0A00203F0000544814
:103AE00045524D414C2052554E4157415900546862
:103AF00065726D616C2052756E61776179004572F7
:103B0000723A204D415854454D50004D415854454E
:103B10004D50207472696767657265640045727202
:103B20003A204D494E54454D50004D494E54454D57
:103B3000502074726967676572656400202F0020E9
:103B400042403A0020403A0020573A0020573A00BD
:103B5000496E76616C69642065787472756465720B
:103B60000A007C3C3E5E2B3D3F2F5B5D3B2C2A22B6
:103B70005C0043616E6E6F74206F70656E207375AC
:103B8000626469722000534420496E697420466162
:103B9000696C0053442063617264206F6B0A006F8C
:103BA00070656E526F6F74206661696C65640A009F
:103BB000766F6C756D652E696E6974206661696CCF
:103BC00065640A004E6F20534420636172640A00EA
:103BD00041425300504C41000A4D3234004D3233C3
:103BE000202573002E0A006F70656E206661696C77
:103BF00065642C2046696C653A200046696C652036
:103C000073656C65637465640A002053697A653A6C
:103C1000200046696C65206F70656E65643A20000F
:103C2000454E4420535542524F5554494E450A0083
:103C30002220706F73002220706172656E743A22C8
:103C400000535542524F5554494E452043414C4C28
:103C5000207461726765743A220053756263616C07
:103C60006C204F766572666C6F770045786365658A
:103C7000646564206D617820535542524F55544914
:103C80004E452064657074683A002E0A0044656CE5
:103C90006574696F6E206661696C65642C20466985
:103CA0006C653A200046696C652064656C657465D6
:103CB000643A005344207072696E74696E672062C2
:103CC00079746520004E6F74205344207072696EC1
:103CD00074696E670A002F6175746F25632E670023
:103CE00057726974696E6720746F2066696C653AF3
:103CF0002000667265736800646F696E67002066F5
:103D0000696C653A20004E6F7720000200000000C9
:103D100000000000000000000000000000000000A3
:103D20000000000000000000000000000000000093
:103D30000000000000000000000000000000000083
:103D40000000000000000000000000000000000073
:103D50000000000000000000000000000000000063
:103D60000000000000000000000000000000000053
:103D70000000000000000000000000000000000043
:103D80000000000000000000000000000000000033
:103D90000000000000000000000000000000000023
:103DA0000000000000000000000000000000000013
:103DB0000000000000000000000000000000000003
:103DC0000000000000000000000000000003FFF001
:103DD000000000000000000000000000001FFFE0E5
:103DE000000000000000000000000000003FC07C58
:103DF000000000000000000000000000007C0FFF39
:103E000080000000000000000000000000F87FFFBC
:103E1000E0000000000000000000000001F0FFFFD3
:103E200078000000000000000000000001E1FFFF3A
:103E3000BC001FFF83FFE1F00E3FFF0001E3FFFF27
:103E4000EE001FFFC7FFF1F80E3FFFC001C3FF8F59
:103E5000F7001E03CF0071FC0E3C03E001C3FE011E
:103E6000FB801E03CE0079DE0E3C01E001C7FC00A2
:103E70007DC01FFF8E0079CF0E3C01E001C7FC0022
:103E80003EE01FFFCE0079C7CE3C01E001E7FC0019
:103E90001F701E01CE0079C1EE3C01E001E7FC007D
:103EA0000FB81E01CF0079C0FE3C01E000E3FC002A
:103EB00007F81FFFC7FFF1C07E3FFFC000F3FC0003
:103EC00007DC1FFF87FFE1C03E3FFF800073FE005D
:103ED00003EC0FF800FF00000C1FF0000071FE0063
:103EE00003EE000000000000000000000039FF00A9
:103EF00003F6000000000000000000000618FF802C
:103F000003F700000000000000000000071CFFC0D5
:103F100003F71FFFDFFF1FFE1C01C000030E7FE041
:103F200007F31FFFDFFF3FFF1C01C00001863FF8C2
:103F300007FB00701C0038079C01C00001C33FFF55
:103F4000FFFB00701C0038039C01C00000F39FFFC2
:103F5000FFFB00701FFF38001FFFC00000798FFFBC
:103F6000FFF780701FFF38001FFFC000007CC7FFF5
:103F7000FFF780701C0038079C01C000003F01FF64
:103F8000FFED80701C0038079C01C000001FE0FF9F
:103F9000FFED80701FFF3FFF1C01C000001FF03FBE
:103FA000FFCD00701FFF1FFE1C01C000000FFC0FA3
:103FB000FF1D000000000000000000000007FE01DF
:103FC000FC1B000000000000000000000003FF8058
:103FD000003B000000000000000000000001FFF0B6
:103FE00000FB000000000000000000000000FFFFD8
:103FF000FFF00000000000000000000000003FFF94
:10400000FFE00000000000000000000000001FFFB3
:10401000FFC000000000000000000000000007FFDB
:10402000FF8000000000000000000000000001FF11
:10403000FF00000000000000000000000000003F42
:10404000F800000000000000000000000000000078
:104050000000000000000000000000000000000060
:104060000000000000000000000000000000000050
:104070000000000000000000000000000000000040
:104080000000000000000000000000000000000030
:104090000000000000000000000000000000000020
:1040A0000000000000000000000000000000000010
:1040B0000000000000000000000000000000000000
:1040C00000000000000000000000000000000000F0
:1040D00000000000000000000000000000000000E0
:1040E00000000000000000000000000000000000D0
:1040F00000000000000000000000000000000000C0
:104100000000000000000000000000006D61726C03
:10411000696E66772E6F726700322E302E375F44DD
:1041200057372E33001FFFFFFFFFFFFF6000000027
:104130000001FF400000000000FF800000000000C0
:104140007F83CF00000C303F87FF80000C301F863C
:104150007980000C000F8C30C7838C30E78C30CF17
:10416000C7CC31F38C30DCECEC33B98C30D86C6CD0
:1041700033198C30D06C0C33198C30D86C0C33194B
:104180008C30DC6C0E3B198C30CF7C079F198C3047
:10419000C77C038F1940000000000002600000008F
:1041A0000000061FFFFFFFFFFFF86001F401700130
:1041B000EA019001E001B001D601D001CC0100027A
:1041C000C2013002B8016002AE019002A401D00227
:1041D0009A012003900170038601C0037C01300422
:1041E0007201A004680120055E01B005540160065B
:1041F0004A0120074001F0073601F0082C01100A9F
:104200002201500B1801C00C0E01500E0401301099
:10421000FA002012F0005014E600C016DC007019FD
:10422000D200501CC800501FBE007022B400B02540
:10423000AA00F028A000202C9600302F8C0010320D
:104240008200A0347800F0366E00E0386400803AD6
:104250005A00403B5500E03B5000F03C4600C03D5A
:104260003C00603E3200E03E2800303F1E00503FE0
:104270001900703F1400A03F0A00C03F0000D03F6B
:10428000F6FFE03FECFF2020506C616E6E657242DD
:10429000756666657242797465733A2000204672CD
:1042A0006565204D656D6F72793A2000436F6D70C2
:1042B000696C65643A2041707220323920323032A4
:1042C000310A00204C617374205570646174656418
:1042D0003A20323032312D30342D3138207C20419B
:1042E0007574686F723A20426F6E647465636820FB
:1042F0002F20496E73616E6974794175746F6D61B9
:1043000074696F6E0A00322E302E375F4457372E95
:10431000330A004D61726C696E0020536F667477CA
:104320006172652052657365740A00205761746379
:1043300068646F672052657365740A002042726F6B
:10434000776E206F75742052657365740A0020457E
:10435000787465726E616C2052657365740A0050E2
:104360006F77657255700A0073746172740A004742
:1043700039310A47315A350A4739300A4D38340A3B
:104380004D31303453300A4D3134305330004D31DB
:10439000303031006572726F722077726974696EA5
:1043A0006720746F2066696C650A00446F6E652033
:1043B000736176696E672066696C652E0A004D32FE
:1043C0003900456E6473746F707300255320256344
:1043D00020256320256320256300205A3A002059B8
:1043E0003A0020583A00656E6473746F70732068E9
:1043F00069743A200000000A0B02090C0D0E080730
:1044000003040100000000000000000000000000A4
:10441000000000000000000000000000000000009C
:104420000012111000000000000000000000000059
:104430000000000000000000000000004D6F7665E5
:104440002025736D6D004D6F766520302E316D6DBA
:10445000004D6F766520316D6D004D6F76652031B2
:10446000306D6D004D6F7665204178697300457839
:10447000747275646572004D6F7665205A004D6FD9
:1044800076652059004D6F7665205800D43BD03BAF
:104490004368616E67652046696C616D656E740086
:1044A000556E6C6F61642046696C616D656E740059
:1044B0004C6F61642046696C616D656E740050726A
:1044C000656865617420437573746F6D0050726523
:1044D000686561742024004261636B00FFFFFF5038
:1044E000726F62696E67204661696C656400205A6C
:1044F0003A200020593A200042656420583A2000B2
:1045000073686F7700627574746F6E0062656769B7
:104510006E0044697361626C6552756E6F757400EC
:1045200050757267654D6F72650050617573656493
:1045300000436F6E74696E7565004C6F6164204650
:10454000696C616D656E74205400496E7365727498
:104550002066696C616D656E7420616E64207365A0
:104560006E64204D3130380A00220A00556E6B6EA1
:104570006F776E20636F6D6D616E643A202200204C
:1045800042002050006F6B004444582043523130A9
:1045900056322052656164792E005072696E7469DA
:1045A0006E672E2E2E005072696E742050617573E6
:1045B000656400204500205A00205900204D393202
:1045C00020580020453A00205A3A0020593A005815
:1045D0003A0020746F6F206C6F6E6720657874727C
:1045E0007573696F6E2070726576656E7465640AA6
:1045F0000020636F6C6420657874727573696F6EE8
:104600002070726576656E7465640A005265736524
:104610006E643A20006E6F74696669636174696FD5
:104620006E200000002200250028002B002E003103
:1046300000340002010000050108010B0100002107
:1046400000240027002A002D003000330001010063
:1046500000040107010A010505050507050808080A
:1046600008020202020A0A08080404040401010103
:10467000010101010103030303030303030407070B
:10468000070C0C0C0C0C0C0C0C02020202060606A9
:1046900006060606060B0B0B0B0B0B0B0B01021091
:1046A000202008081020401020408002010201084C
:1046B00004020101020408102040808040201008FC
:1046C0000402018004020180402010080402010855
:1046D00004020101020408102040800102040810B5
:1046E00020408000A200B60011241FBECFEFD1E20F
:1046F000DEBFCDBF00E00CBF13E0A0E0B2E0ECEE07
:10470000FAED02E00BBF02C007900D92A439B10789
:10471000D9F728E1A4E9B3E001C01D92A835B2079A
:10472000E1F713E2C3E7D3E200E006C021970109F5
:10473000802FFE010F94CC69C237D10780E00807B3
:10474000A9F70F948C580D94646D0C940000FC0133
:1047500084910895FC018081089511980000000063
:104760009091020187FD9095917090930001119AAC
:10477000000000000000000011980000000090916F
:10478000020186FD9095917090930001119A0000AE
:10479000000000000000119800000000909102014C
:1047A00085FD9095917090930001119A0000000092
:1047B000000000001198000000009091020184FDAB
:1047C0009095917090930001119A000000000000F4
:1047D00000001198000000009091020183FD909567
:1047E000917090930001119A0000000000000000F9
:1047F0001198000000009091020182FD9095917047
:1048000090930001119A0000000000000000119830
:10481000000000009091020181FD909591709093AD
:104820000001119A00000000000000001198000033
:10483000000080910201817080930001119A0000B4
:10484000000000000000089590E080E00895CF93FC
:10485000DF93DB01F9019C919130C1F0943080F03D
:1048600094509C938830D1F480819181009771F0AD
:10487000019791838083480F591FEA01188206C06F
:104880008C3539F49C5F9C93943041F4DF91CF9147
:1048900008958B3339F781E08C93F8CF20813181F3
:1048A000B9016F5F7F4F71836083420F531FEA012D
:1048B0008883808191818F3591056CF7E7CF0F93C5
:1048C0001F9381E00091491610914A1620914B16D2
:1048D00030914C16409145165091461660914716FE
:1048E00070914816041715072607370708F480E06B
:1048F0001F910F91089590E080E00895282F9091E6
:10490000D008833021F495FD0FC094FD0FC0892F8E
:1049100090E0B0E0A0E004C0B695A7959795879584
:104920002A95D2F78170089581E0089580E0089576
:10493000CF92DF92EF92FF92CF93DF93EC01CC8086
:10494000DD80EE80FF8027E137EB41ED58EBC701BA
:10495000B6010F94356C87FD23C023E030E04BE9AE
:1049600053E4C701B6010F94E3621816CCF0C88077
:10497000D980EA80FB8027E137EB41ED58EBC70196
:10498000B6010F94356C87FD0BC0C1E023E030E821
:104990004DE953E4C701B6010F94E36218160CF415
:1049A000C0E08C2FDF91CF91FF90EF90DF90CF9000
:1049B00008952F923F924F925F926F927F928F92C3
:1049C0009F92AF92BF92CF92DF92EF92FF920F939E
:1049D0001F93CF93DF93CDB7DEB72E970FB6F89422
:1049E000DEBF0FBECDBFE82ED62E042F122F282FEC
:1049F00030E03C872B87462F50E05A87498765E097
:104A0000F62EF29EC001F39E900D11249E878D8795
:104A1000FA01E80FF91FEE0FFF1FEE0FFF1FE95E0F
:104A2000F94F60817181828193819B01AC010F9468
:104A3000C76C882309F434C1E00E612F6D0DFE9C14
:104A4000F0011124A985BA85AE0FBF1FAA0FBB1FA5
:104A5000AA0FBB1FA95EB94FAC901196BC901197DD
:104A60001296CC9012971396DC90E00EFE9CA0015B
:104A70001124A985BA85A40FB51FAA0FBB1FAA0FC1
:104A8000BB1FA95EB94FEC901196FC90119712963E
:104A90000C91129713969C90862F90E0AD85BE8561
:104AA000A80FB91FAA0FBB1FAA0FBB1FA95EB94F42
:104AB0008C9011967C90119712966C901297139689
:104AC0005C90610F70E0AD85BE85A60FB71FAA0F81
:104AD000BB1FAA0FBB1FA95EB94F4C9011963C900B
:104AE000119712961C91129713962C90E80FF91FAC
:104AF000EE0FFF1FEE0FFF1FE95EF94FB081B98384
:104B000021812A8332813B8383818C83FA01E60FE2
:104B1000F71FEE0FFF1FEE0FFF1FE95EF94F9081A9
:104B20009D83A181AE83B281BF83238128879701B2
:104B3000402F592DB701802F992D0F94C76C8823D2
:104B400021F0E12CF12C00E0912C9501A601B5019A
:104B5000C6010F94C76C882319F05701C02ED92CB9
:104B6000242D332D412F522D642D732D812F922D05
:104B70000F94C76C882321F0412C312C10E0212C9C
:104B8000282D372D462D552D682D772D862D952DC9
:104B90000F94C76C882321F0842C732C612E522C27
:104BA0002D813E814F8158856D817E818F819885D1
:104BB0000F94C76C882321F01D821E821F821886E5
:104BC00029813A814B815C8169817A818B819C81C9
:104BD0000F94C76C882341F03D8139834E814A830D
:104BE0005F815B8388858C8385E0EB85FC858E9F68
:104BF000D0018F9FB00D112429853A85A20FB31FD4
:104C0000AA0FBB1FAA0FBB1FA95EB94FBA87A987FE
:104C10009501A601B501C6010F94D5699701402FF2
:104C2000592D0F94D4696B017C01282D372D462D09
:104C3000552D682D772D862D952D0F94D569242D12
:104C4000332D412F522D0F94D4699B01AC01C70124
:104C5000B6010F94D5696B017C0129813A814B81A2
:104C60005C8169817A818B819C810F94D5692D81CA
:104C70003E814F8158850F94D4699B01AC01C701D7
:104C8000B6010F94D56920E030E040E450E40F9481
:104C9000CF6AA985BA856D937D938D939C93139765
:104CA0002E960FB6F894DEBF0FBECDBFDF91CF9129
:104CB0001F910F91FF90EF90DF90CF90BF90AF903A
:104CC0009F908F907F906F905F904F903F902F902C
:104CD00008951092B7088091590290915A02A091BC
:104CE0005B02B0915C028093900690939106A09332
:104CF0009206B09393060895129A0895269A2E9AD2
:104D00000895AF92BF92CF92DF92EF92FF920F93EE
:104D10001F93CF93DF936B01E9014A3009F4C1C0BF
:104D2000453109F073C0DB011296ED91FC91F280E0
:104D3000C681D781809102018095827080930001A5
:104D400088E28A950000E9F7BF2CB29420EFB222E6
:104D500030E1A32EAF0C48E2E42E88EF0E94AD2391
:104D60008E2D8A950000E9F7BFE1BF1508F485C0D4
:104D70008F2D807780680E94AD238B2D0E94AD23FC
:104D80008E2D8A950000E9F780E80E94AD2380E02F
:104D90000E94AD238E2D8A950000E9F78AEF0E94CC
:104DA000AD238E2D8A950000E9F78E01005F1F4F1D
:104DB0008881807F0E94AD2389918295807F0E94A7
:104DC000AD23C017D107A1F78E2D8A950000E9F712
:104DD000F394E0E1BE0EFA10C0CF80910201827020
:104DE00080930001D6011296CD91DC91CE010F94F3
:104DF000EB4C811147C2DF91CF911F910F91FF9032
:104E0000EF90DF90CF90BF90AF900895FB010281AB
:104E10001381423309F4F1C108F4F5C1463409F4B1
:104E2000E2C1473409F4E5C14B3329F589812B816F
:104E3000D80112966C91129713964C91213009F477
:104E400038C2233009F002C238EF380F582F91E0F2
:104E5000431708F490E041E0531708F040E031E0D8
:104E6000561708F430E0592F542B352309F016C299
:104E7000942309F013C281E0BECF80EE8F0D8068CD
:104E8000807F0E94AD238F2D8295807F0E94AD236D
:104E90008E2D8A950000E9F780E80E94AD2380E816
:104EA00077CF80910101826080930101809102019E
:104EB00082708093000180910101816080930101E3
:104EC00080910201817080930001099A119A80916A
:104ED0000201809582708093000188E28A9500002B
:104EE000E9F788E790E0CEE9DFE0FE013197F1F7DE
:104EF0000197D9F788EF0E94AD2318E2812F8A9598
:104F00000000E9F780E20E94AD2380E00E94AD231B
:104F1000812F8A950000E9F780E00E94AD2380E8A8
:104F20000E94AD23812F8A950000E9F780E00E945E
:104F3000AD2380E10E94AD23812F8A950000E9F71F
:104F4000CE010197F1F7CE010197F1F7CE0101975C
:104F5000F1F7CE010197F1F7CE010197F1F7CE01FC
:104F60000197F1F7CE010197F1F7CE010197F1F723
:104F7000CE010197F1F7CE010197F1F7CE0101972C
:104F8000F1F7CE010197F1F7CE010197F1F7CE01CC
:104F90000197F1F72197F1F780E20E94AD2380E4B9
:104FA0000E94AD23812F8A950000E9F780E20E94DC
:104FB000AD2380E60E94AD231A950000E9F710E0CA
:104FC000D0E0C8E28D2F807780680E94AD23812FCA
:104FD0000E94AD238C2F8A950000E9F780E80E949B
:104FE000AD2380E00E94AD238C2F8A950000E9F765
:104FF0008AEF0E94AD238C2F8A950000E9F790E29A
:1050000011980000000080910201817080930001DE
:10501000119A00000000000000001198000000003C
:1050200080910201817080930001119A00000000BC
:1050300000000000119800000000809102018170C2
:1050400080930001119A00000000000000001198F8
:105050000000000080910201817080930001119A8C
:105060000000000000000000119800000000809186
:105070000201817080930001119A0000000000007D
:10508000000011980000000080910201817080935F
:105090000001119A000000000000000011980000BB
:1050A000000080910201817080930001119A00003C
:1050B0000000000000001198000000008091020133
:1050C000817080930001119A000000000000000030
:1050D000119800000000809102018170809300010E
:1050E000119A00000000000000001198000000006C
:1050F00080910201817080930001119A00000000EC
:1051000000000000119800000000809102018170F1
:1051100080930001119A0000000000000000119827
:105120000000000080910201817080930001119ABB
:1051300000000000000000001198000000008091B5
:105140000201817080930001119A000000000000AC
:10515000000011980000000080910201817080938E
:105160000001119A000000000000000011980000EA
:10517000000080910201817080930001119A00006B
:105180000000000000001198000000008091020162
:10519000817080930001119A00000000000000005F
:1051A0008C2F8A950000E9F7915009F029CF88EFFC
:1051B0000E94AD238C2F8A950000E9F7DF5F105F16
:1051C000D03209F0FFCE80E00E94AD2380EC0E9437
:1051D000AD23CA950000E9F78091020182708093A7
:1051E000000181E008CED80115968C91888381E07A
:1051F00002CEF80181818883FACFB901C8010F94EA
:10520000084D81E0F8CD443171F0473109F033CEDB
:105210001882F80182818983858181508A83838104
:105220008B8381E0E8CDD80115964C91159750E01D
:10523000440F551F70E060E016968D919C910F947D
:10524000056DC8010F94014D81E0D5CD481708F4D4
:1052500012CE861708F40FCEFA80E12CD12C243020
:1052600070F41DC0BE01C8010F94084D898198815A
:105270009D0D98838E0D8983FF0C09F4FCCDF7FEFC
:10528000F6CFF0CF4D8150E0440F551F70E060E045
:105290008E819F810F94056D81E0ADCDFA8030E065
:1052A000F901E554FD4FD08029543D4FF901E080CC
:1052B000E6CF58E0580F382FCACDEF92FF920F93E8
:1052C0001F93CF93DF93EC018B017A018A859B8535
:1052D0008617970731F0888199810F94E14E1B87DB
:1052E0000A87B701888199810F9435402E813F81CB
:1052F000820F932F911D9F838E8390E080E0DF913A
:10530000CF911F910F91FF90EF9008959F92AF92D0
:10531000BF92CF92DF92EF92FF920F931F93CF93A2
:10532000DF93EC018B01942EA52E8A859B85861731
:10533000970731F0888199810F94E14E1B870A8786
:1053400088859985019649F5BC800A818E81080F70
:10535000C880D980D6015596ED91FC91C60119956A
:10536000B80EE92CFA2C10E0F70121917F012111F0
:1053700027C08E819F81810F911D9F838E8390E036
:1053800080E0DF91CF911F910F91FF90EF90DF9020
:10539000CF90BF90AF909F9008950E811F81692D8F
:1053A0007A2D888199810F943540800F912F911D1E
:1053B000288539852817390738F681E090E0E1CF54
:1053C0004B2D602FC6010F94394F080F180FCCCF0B
:1053D000DF92EF92FF920F931F93CF93DF93EC0135
:1053E000D62E1CAD0BAD7C0184E0E80EF11CE98DDE
:1053F000FA8DC7011995412F480F2D2D602FC70138
:105400000F94394F9BAD890F8BAF81E090E0DF9116
:10541000CF911F910F91FF90EF90DF900895AB0116
:10542000BC014093491650934A1660934B167093F3
:105430004C1682EB97E10C948EDF80932F02803222
:10544000B8F590915D05891724F091E0980F90933D
:105450005D054091590550915A0560915B05709129
:105460005C05082E04C076956795579547950A9474
:10547000D2F741704093191087FD1DC0282F082EC8
:10548000000C330B3F938F9387E599E09F938F93A5
:1054900087E699E09F938F931F920E9411C58DB765
:1054A0009EB707960FB6F8949EBF0FBE8DBF0895A6
:1054B00010921910E1CF0D944C3B0F931F93CF9393
:1054C000DF9300D01F92CDB7DEB79C010DE918E045
:1054D00090E1E6ECF9E0D80101900D929A95E1F7A0
:1054E000F9012081318142815381F8016085718504
:1054F000828593850F94D569F801608771878287CB
:10550000938780E090E0A0EAB0E489839A83AB833C
:10551000BC83CE0101960F945B090F900F900F9002
:105520000F90DF91CF911F910F9108952F923F928D
:105530004F925F926F927F928F929F92AF92BF92A3
:10554000CF92DF92EF92FF921F93CF93DF93CDB76D
:10555000DEB72C970FB6F894DEBF0FBECDBF7A0131
:105560001901DC012D913D914D915C912D833E837C
:105570004F835887FB014080518062807380809008
:10558000C6099090C709A090C809B090C909A501A3
:1055900094016D817E818F8198850F94E3628111E2
:1055A0000EC011E0A30192016091CA097091CB096C
:1055B0008091CC099091CD090F94E362811110E0A4
:1055C000D1012D913D914D915C9129873A874B876F
:1055D0005C87F701C080D180E280F38020911302C4
:1055E000309114024091150250911602C701B60184
:1055F0000F94E362882309F44EC0C0921302D09244
:105600001402E0921502F09216028091D209909154
:10561000D309A091D409B091D5094091CA095091FC
:10562000CB096091CC097091CD0980929D08909230
:105630009E08A0929F08B092A0084093A1085093A2
:10564000A2086093A3087093A408C092A508D09202
:10565000A608E092A708F092A8088093A908909362
:10566000AA08A093AB08B093AC0820E030E040E07B
:105670005FE36091471070914810809149109091BC
:105680004A100F94496369837A838B839C83CE018C
:1056900001960F945B092D813E814F81588520939F
:1056A0009D0830939E0840939F085093A008409215
:1056B000A1085092A2086092A3087092A408D10198
:1056C0002D913D914D915C916091A9087091AA082E
:1056D0008091AB089091AC080F94D5696093A908AC
:1056E0007093AA088093AB089093AC0811112FC057
:1056F00020E030E0A90169857A858B859C850F942F
:10570000E362811133C060E070E088EC92E4698369
:105710007A838B839C83CE0101960F945B092C9630
:105720000FB6F894DEBF0FBECDBFDF91CF911F91B2
:10573000FF90EF90DF90CF90BF90AF909F908F90B1
:105740007F906F905F904F903F902F9008952AEF39
:105750003EE74AE25FE360914B1070914C108091FC
:105760004D1090914E100F944963D1CF60E070E0DE
:1057700080EA91E4CCCFCF93DF9300D01F92CDB7D6
:10578000DEB780E090E0A0EAB0E489839A83AB833F
:10579000BC8361E0CE0101960F945E010F900F90E3
:1057A0000F900F90DF91CF91089580911B059091FC
:1057B0001C05009731F04AE050E070E060E00D9485
:1057C000FE6060E070E0CB0108958091DA0982FF0D
:1057D0000BC063E683E49AE00E942CC50F94F54663
:1057E0000E942CCC81E0089580E0089580911B05F3
:1057F00090911C05009731F04AE050E070E060E0C5
:105800000D94D05F60E070E0CB0108950E94F62B0C
:1058100097FD0CC00E94F62B6F3F71058105910525
:1058200009F034F40E94F62B862F089580E0089545
:105830008FEF089580911B0590911C05892B41F0F5
:105840000E94062C91E0811101C090E0892F0895FB
:1058500091E0FCCFAF92BF92CF92DF92EF92FF9296
:105860000F931F93CF93DF93EC015B018A01FB0140
:10587000199587FD16C0C82ED12CF12CE12C21964C
:10588000F801C082D182E282F382CE01DF91CF9112
:105890001F910F91FF90EF90DF90CF90BF90AF904E
:1058A0000895982F907E903CA9F48F7190E0B0E01D
:1058B000A0E06C017D0156E0CC0CDD1CEE1CFF1C51
:1058C0005A95D1F7CE010196F50119958F73C82A23
:1058D0002296D6CF982F907F903E11F58F7090E052
:1058E000B0E0A0E06C017D0136E0CC0CDD1CEE1CCC
:1058F000FF1C3A95D1F7CE010196F50119958F73EA
:10590000C82A46E0CC0CDD1CEE1CFF1C4A95D1F7E2
:10591000CE010296F50119958F73C82A2396B0CF50
:10592000982F987F903F79F5877090E0B0E0A0E0E5
:105930006C017D0186E0CC0CDD1CEE1CFF1C8A9501
:10594000D1F7CE010196F50119958F73C82A96E01B
:10595000CC0CDD1CEE1CFF1C9A95D1F7CE010296F3
:10596000F50119958F73C82A26E0CC0CDD1CEE1CBE
:10597000FF1C2A95D1F7CE010396F50119958F7377
:10598000C82A24967DCF982F907C903841F4807C53
:10599000803869F42196CE01F5011995F8CF8E7FF4
:1059A0008D3F28F02196CE01F5011995F8CFC12C35
:1059B000D12C760165CF9CE0899F802D112491E048
:1059C000980F90935E052CE0280F2093970830E005
:1059D0002E5F3F4F40913B164217130619F014F00B
:1059E00080E0089520913D169217D0F7662341F08C
:1059F0008E5F0F94FB4D809197088E5F0F94FB4D47
:105A00008091970890913B16891750F320913D168D
:105A100090915E05291720F310923E1680933F1651
:105A200081E00895CF9380915105811154C0109267
:105A30003E1610923F161092401610920C161092BD
:105A40000B1610920E1610920D161092101681E081
:105A500080930F1682E28093111610921616109200
:105A60001516EAE2F6E128E336E18FEF81932E176F
:105A70003F07E1F7C1E0C09327162EE232E03093F2
:105A80001D1620931C16C0931E1610921F161092FE
:105A9000201690E490932116109222162EE032E008
:105AA000309339162093381622E232E030930A16EA
:105AB0002093091697E190932E1691E190932F165B
:105AC00090E190932C1680932B1680932A160F94B6
:105AD000224DC093510581E08093520586E899E1FB
