:100000000C94931B0C94C41B0C94C41B0C94C41B25
:100010000C94C41B0C94C41B0C94C41B0C94C41BE4
:100020000C94C41B0C94C41B0C94C41B0C94C41BD4
:100030000C94C41B0C94C41B0C94C41B0C94C41BC4
:100040000C94C41B0C94DAA20C94C41B0C94C41B17
:100050000C94C41B0C94C41B0C944E8B0C94EE7625
:100060000C94C41B0C946BED0C9461ED0C94C41BAC
:100070000C94C41B0C94C41B0C94C41B0C94C41B84
:100080000C94D2C30C94C41B0C94C41B0C94C41BBE
:100090000C94C41B0C94C41B0C94C41B0C94C41B64
:1000A0000C94C41B0C94C41B0C94A4C30C94C41BCC
:1000B0000C94C41B0C94C41B0C94C41B0C94C41B44
:1000C0000C94C41B0C94C41B0C94C41B0C9487C4C8
:1000D0000C9451C40C94C41B0C94C41B0C94C41BEE
:1000E0000C94C41B084AD73B3BCE016E84BCBFFDB9
:1000F000C12F3D6C74319ABD56833DDA3D00C77FF8
:1001000011BED9E4BB4C3E916BAAAABE0000008090
:100110003F05A84CCDB2D44EB93836A9020C50B91F
:10012000918688083CA6AAAA2ABE000000803F004B
:100130000D947E0F0D944C160C94F4C40C9488739B
:100140000C94D4750D94AE110C943E450C94B07380
:100150000D9480080C94A9ED0D9415070C94FDEDF9
:100160000D9423120D944F150C9484720D944E111E
:100170000C94A0720C9401760D941F150D941C150F
:100180000C949C720C9429C50C9425C50C948E7209
:100190000C941DC50C9443C50D944A0F0D94E512A3
:1001A0000D94AA100C9403C50C9415EE0C946A459A
:1001B0000D945C160D94120B0D94F6190D941A10F3
:1001C0000C9496720C9472430C9479730D94E01015
:1001D0000C9427EE0C940DEE0C944B730D948B1134
:1001E0000C941D700D94EA060C9469720C9411EE37
:1001F0000D9463150C944BC50C945B730C94927323
:100200000D9437150C9412C50C94E7ED0C942476DC
:100210000C9465730C9423430C9428730C9438C588
:100220000C943D740C942D730D94D6040C94D8ED5D
:100230000C9453730C94C5C40D9400060D9491094D
:100240000D94B50D0D9470150C9409EE0C9419C510
:100250000C9401EE0C9420730C9480720C94A67391
:100260000C949C740C9420740C94F6ED0C941CEE7D
:100270000C9470720C942DC50C94E3450C94377358
:100280000C9441730D9416150C9488720D941F17DD
:100290000C942FEE0D9445150C9421C50D946227F6
:1002A0000C947A720C9476430C9465720C9492724E
:1002B0000D94E1110D9436120C94E5740C9405EE36
:1002C0000C94BA730C944F720C9429750D94EF141E
:1002D0000D94FB0E0C946F730D9444270C944A728A
:1002E0000C941E700C94C2750C946D720C949C73DB
:1002F0000D942E0F0C9461720C949B6F0D947711DA
:100300000C9476720D94C2110C9431C50C94AB45CB
:100310000C9444754E414E494E495459494E46CD70
:10032000CCCC3D0AD7233C17B7D13877CC2B3295AC
:1003300095E6241FB14F0A000020410000C842008A
:10034000401C4620BCBE4CCA1B0E5AAEC59D740054
:10035000407A10F35A00A0724E18090010A5D4E894
:100360000000E87648170000E40B54020000CA9A27
:100370003B000000E1F50500008096980000004079
:10038000420F000000A086010000001027000000BE
:1003900000E803000000006400000000000A000004
:1003A0000000000100000000002C76D888DC674FB8
:1003B0000823DFC1DFAE59E1B1B796E5E3E453C6E8
:1003C0003AE651997696E8E6C28426EB898C9B62E0
:1003D000ED407C6FFCEFBC9C9F40F2BAA56FA5F48A
:1003E00090055A2AF75C936B6CF9676DC11BFCE0B2
:1003F000E40D47FEF520E6B500D0ED902E03009405
:100400003577050080841E080000204E0A00000099
:10041000C80C333333330F986E12831141EF8D21A3
:1004200014893BE65516CFFEE6DB18D1844B381B0A
:10043000F77C1D901DA4BBE424203284725E2281CF
:1004400000C9F124ECA1E53D27434F4D4D554E49E0
:10045000434154494F4E0044525952554E00455263
:10046000524F525300494E464F004543484F004FAC
:100470004646004F4E0020204D61783A2000200073
:1004800020204D696E3A2000536F667420656E64BB
:1004900073746F70733A20003D3D4F6E506F7765F7
:1004A000724C6F7373526573756D653D3D004D32CF
:1004B000342053256C642054256C64004739322E57
:1004C00039204525730047312046256400473932DD
:1004D0002E39205A2573004731205A3020463230B9
:1004E000300047312058257320592573204633307A
:1004F0003030004D34323020532569205A257300A6
:100500004D3130362050256920532569004D323059
:10051000302044257300473238523058590047394B
:10052000322E39204530205A300A47315A2573007F
:100530004D31303920532569004D31393020532554
:1005400069004D343230205330205A300020496E3B
:1005500076616C69642065787472756465722000D8
:1005600047322F47332062616420706172616D658C
:10057000746572730A00536C6565702E2E2E005AD6
:100580002050726F62652050617374204265640A66
:10059000005A2050726F626520506173742042656A
:1005A00064004732384C30004D3131372050726F83
:1005B0006265206661696C65642E0A4732380A00FC
:1005C00070726F62655F7265776970650047323976
:1005D000205265747279696E670050726F62696E3D
:1005E00067204661696C6564004D31313720426592
:1005F00064206C6576656C696E67206661696C6500
:10060000642E0A4730205A31300A4D3330302050A2
:10061000323520533838300A4D33303020503530A1
:100620002053300A4D333030205032352053383883
:10063000300A4D333030205035302053300A4D339E
:1006400030302050323520533838300A4D33303076
:10065000205035302053300A473420533100707217
:100660006F62655F6661696C6564004D313137208A
:10067000426564206C6576656C696E6720646F6E98
:10068000652E00205A3A200020593A200042656425
:1006900020583A20004D65736820706F696E742091
:1006A0006F7574206F662072616E67650A004D3049
:1006B0002053746F70004D312053746F7000436F7E
:1006C0006E74696E756500436C69636B20746F208E
:1006D000526573756D652E2E2E004E6F204D6F7610
:1006E000652E00456E642066696C65206C697374C4
:1006F0000A00426567696E2066696C65206C6973E3
:10070000740A004E6F206D656469610A005265735A
:10071000756D696E6720534400286E6F2066696CA2
:1007200065290043757272656E742066696C653A5E
:1007300020005072696E742074696D653A20000A59
:1007400053746174733A2046696C616D656E7420F0
:10075000757365643A20002C204C6F6E6765737466
:10076000206A6F623A2000546F74616C2074696D66
:10077000653A200053746174733A20002C2046615E
:10078000696C65643A20002C2046696E697368655F
:10079000643A20005072696E74733A200053746199
:1007A00074733A2000436F6F6C696E672E2E2E00B3
:1007B00048656174696E672E2E2E00452025530012
:1007C0006F6B006F6666006A0465045E0457044937
:1007D0000444454255473A004D31313320530042DD
:1007E000656420436F6F6C696E672E2E2E00426524
:1007F000642048656174696E672E2E2E004444584B
:1008000020453520506C7573204F46462E002F2F03
:1008100000205200416363656C65726174696F6E9C
:100820003A2050004D32303620580046523A0020CF
:10083000466C6F773A20003A200020536572766F3D
:100840002000206F7574206F662072616E67650AE4
:1008500000536572766F200020643A0020693A00E8
:1008600020703A00496E76616C6964206578747214
:10087000756465720A0020643A0020693A002070AD
:100880003A0064697300656E0043290A0061626C76
:10089000656420286D696E2074656D702000436F5B
:1008A0006C6420657874727564657320617265206C
:1008B00000504944204175746F74756E650050494D
:1008C00044204175746F74756E65206661696C654E
:1008D00064212042616420686561746572206964E6
:1008E0000A0046696C616D656E742072756E6F7575
:1008F000742064697374616E636520286D6D293A94
:10090000200046696C616D656E742072756E6F753E
:100910007420004D34323120696E636F72726563EA
:100920007420706172616D657465722075736167A2
:10093000650A004D65736820706F696E74206F756D
:1009400074206F662072616E67650A004F66667379
:10095000657473204170706C696564004572723A09
:1009600020546F6F206661722100546F6F206661A2
:10097000722066726F6D207265666572656E636562
:1009800020706F696E740A00454550524F4D204FDC
:100990004B0A00506F7765722D6C6F737320726510
:1009A000636F7665727920004D383400446F6E6550
:1009B000207072696E74696E672066696C650A00E2
:1009C0004D3737004D3331004361703A004D45419A
:1009D000545041434B00434F4F4C45525F54454D9B
:1009E0005045524154555245004348414D424552AD
:1009F0005F54454D50455241545552450042414285
:100A0000595354455050494E470041524353004DAD
:100A10004F54494F4E5F4D4F444553005448455243
:100A20004D414C5F50524F54454354494F4E004C3A
:100A30004F4E475F46494C454E414D450041555448
:100A40004F5245504F52545F53445F535441545595
:100A5000530053445F575249544500524550454155
:100A600054005344434152440050524F4D50545F40
:100A7000535550504F525400454D455247454E43F3
:100A8000595F50415253455200434153455F4C49D1
:100A90004748545F4252494748544E4553530054C7
:100AA0004F47474C455F4C494748545300534F46C6
:100AB00054574152455F504F574552004255494C9B
:100AC000445F50455243454E54004C4556454C49B1
:100AD0004E475F44415441005A5F50524F424500D7
:100AE00052554E4F5554004155544F4C4556454C68
:100AF000005052494E545F4A4F420050524F4752A5
:100B0000455353004155544F5245504F52545F5432
:100B1000454D5000564F4C554D45545249430045A4
:100B20004550524F4D0042494E4152595F46494C43
:100B3000455F5452414E5346455200534552494138
:100B40004C5F584F4E5F584F4646004649524D57EE
:100B50004152455F4E414D453A4D61726C696E2080
:100B6000322E302E375F4457372E3320426F6E645B
:100B70007465636820453550534D444242202841F6
:100B8000707220323920323032312031323A3434EE
:100B90003A33302920534F555243455F434F444524
:100BA0005F55524C3A68747470733A2F2F676974AA
:100BB0006875622E636F6D2F496E73616E6974790B
:100BC0004175746F6D6174696F6E2F4D61726C69E0
:100BD0006E2F747265652F437265616C6974794418
:100BE00077696E5F322E302050524F544F434F4C36
:100BF0005F56455253494F4E3A312E30204D4143B6
:100C000048494E455F545950453A4444582045356B
:100C100020506C75732045585452554445525F43DB
:100C20004F554E543A3120555549443A63656465F1
:100C3000326132662D343161322D343734382D39FA
:100C40006231322D63353563363266333637666648
:100C50000A0050726F6265204F6666736574205A91
:100C60000050726F6265204F6666736574205A008B
:100C7000290A0020746F20003F5A206F7574206F7E
:100C8000662072616E6765202800290A0020746F53
:100C900020003F59206F7574206F662072616E6767
:100CA0006520282D00290A0020746F20003F58205D
:100CB0006F7574206F662072616E676520282D0045
:100CC00050726F6265204F666673657420580043EA
:100CD000616E6E6F74206F70656E207375626469EB
:100CE0007220002569730025696D20256973002530
:100CF00069682025696D20256973002569642025B0
:100D000069682025696D202569730025697920258A
:100D10006964202569682025696D20256973003D77
:100D20003D4477696E20496E697420436F6D706C25
:100D30006574653D3D002A2A2A4E6F7A7A6C6554A7
:100D4000656D705374617475735B325D203D003D59
:100D50003D48656174696E6720446F6E6520436825
:100D6000616E67652046696C616D656E743D3D001E
:100D70002020737461727470726F67726573732070
:100D8000003D3D7761697477617920353D3D003DD7
:100D90003D7761697477617920343D3D003D3D7751
:100DA00061697477617920333D3D003D3D7761692C
:100DB0007477617920313D3D003D3D6F6E50726921
:100DC0006E7454696D657253746F707065643D3DE7
:100DD000003D3D6F6E466163746F72795265736555
:100DE000743D3D00270A0A00002720270020270025
:100DF0002D006E6F74696669636174696F6E20009F
:100E000063616E63656C005072696E742041626F3D
:100E100072746564004469736D6973730055492089
:100E200041626F7274656400726573756D65004D23
:100E30003234002A2A2A43506C617920546F6E653F
:100E40002A2A2A003D3D6F6E5072696E7454696D96
:100E500065725061757365643D3D00486F6D696EE4
:100E600067204661696C6564006F70656E0054525E
:100E700049474745524544003A200066696C616D18
:100E8000656E74007A5F6D696E00795F6D617800E0
:100E9000785F6D6178005265706F7274696E67205B
:100EA000656E6473746F70207374617475730A0077
:100EB00020746F6F206C6F6E672065787472757325
:100EC000696F6E2070726576656E7465640A0020C5
:100ED000636F6C6420657874727573696F6E2070CF
:100EE000726576656E7465640A00486F6D652025CD
:100EF0007325732573204669727374005761726E8F
:100F0000696E673A20486F6D696E672042756D7033
:100F10002044697669736F72203C20310A00020216
:100F2000040000B4430000B443000000000000B41B
:100F3000430000B4430000C843000000410000002B
:100F400041000000400101FF00000001000000011D
:100F50000000800055555500000040003333330039
:100F6000AAAA2A004992240000002000C7711C0090
:100F700099991900D1451700555515003BB113003B
:100F80002449120011111100000010000F0F0F0072
:100F9000E3380E0043790D00CCCC0C00C3300C00BC
:100FA000E8A20B0064210B00AAAA0A00703D0A0007
:100FB0009DD80900427B090092240900DCD3080077
:100FC000888808001042080000000800F0C10700EF
:100FD0008787070075500700711C07003EEB06006D
:100FE000A1BC06006990060066660600703E060019
:100FF0006118060017F4050074D105005BB0050008
:10100000B29005006272050055550500783905005B
:10101000B81E0500050505004EEC040087D4040049
:10102000A1BD040090A7040049920400C17D040002
:10103000EE690400C7560400444404005C32040016
:101040000821040041100400000004003FF00300E8
:10105000F8E0030026D20300C3C30300CCB50300AD
:101060003AA803000A9B0300388E0300C0810300E6
:101070009F750300D0690300505E03001D530300F9
:1010800034480300913D0300333303001629030065
:10109000381F030097150300300C030003030300FF
:1010A0000BFA020049F10200BAE802005CE002001B
:1010B0002DD802002DD0020059C80200B0C0020095
:1010C00031B90200DAB10200AAAA0200A0A302000C
:1010D000BC9C0200FA9502005C8F0200DF880200CF
:1010E00082820200457C02002776020027700200FF
:1010F000436A02007C640200D05E02003F59020095
:10110000C8530200FFFDFCFAF8F6F4F2F0EEECEA48
:10111000E9E7E5E3E1E0DEDCDAD9D7D5D4D2D0CF18
:10112000CDCBCAC8C7C5C3C2C0BFBDBCBAB9B7B6AC
:10113000B4B3B2B0AFADACAAA9A8A6A5A4A2A1A011
:101140009E9D9C9A99989795949392908F8E8D8B53
:101150008A8988878684838281807F7E7D7B7A7975
:101160007877767574737271706F6E6D6C6B6A6977
:101170006867666564636261605F5E5D5C5B5A5967
:1011800058585756555453525150504F4E4D4C4B42
:101190004A4A4948474646454443424241403F3E09
:1011A0003E3D3C3B3B3A39383837363535343332BF
:1011B000323130302F2E2E2D2C2B2B2A2929282767
:1011C0002726252524232322212120201F1E1E1D02
:1011D0001C1C1B1B1A191918181716161515141391
:1011E0001312121111100F0F0E0E0D0D0C0C0B0A15
:1011F0000A0909080807070606050504040303028F
:10120000020100003D3D6F6E5072696E7454696D4D
:101210006572537461727465643D3D000000B443AF
:101220000000B4430000C8430000000000000000BC
:10123000000000003D3D6F6E53746F72655365741E
:1012400074696E67733D3D003D3D6F6E436F6E6622
:10125000696775726174696F6E53746F72655772E6
:10126000697474656E3D3D0053657474696E67738F
:101270002053746F726564000A20696E6974207A65
:1012800070726F62655F7A6F6666736574203D2069
:10129000003D3D6F6E436F6E66696775726174697C
:1012A0006F6E53746F7265526561643D3D004545D4
:1012B00050524F4D20496E697469616C697A65645A
:1012C0000A003B20003A0A0020204D36303320002F
:1012D00020440020204D34313220530046696C6197
:1012E0006D656E742072756E6F75742073656E73A4
:1012F0006F723A002055004C0046696C616D656E56
:1013000074206C6F61642F756E6C6F6164206C6506
:101310006E677468733A0020204D383531205800CC
:101320005A2D50726F6265204F6666736574002097
:10133000204D343133205300506F7765722D4C6F40
:101340007373205265636F766572793A00204400AA
:1013500020490020204D333034205000204400200C
:10136000490020204D333031205000504944207333
:10137000657474696E67733A00204A002020473212
:1013800039205720490020204D343230205300416D
:1013900075746F20426564204C6576656C696E6774
:1013A0003A0020204D323036205800486F6D6520BD
:1013B0006F66667365743A00205800205300202041
:1013C0004D323035204200416476616E6365643A87
:1013D00020423C6D696E5F7365676D656E745F7406
:1013E000696D655F75733E20533C6D696E5F666520
:1013F0006564726174653E20543C6D696E5F747201
:101400006176656C5F66656564726174653E2058DF
:101410003C6D61785F785F6A65726B3E20593C6D08
:1014200061785F795F6A65726B3E205A3C6D6178C6
:101430005F7A5F6A65726B3E20453C6D61785F65DF
:101440005F6A65726B3E0020540020520020204DE0
:10145000323034205000416363656C657261746999
:101460006F6E2028756E6974732F7332293A20507D
:101470003C7072696E745F616363656C3E20523CC0
:10148000726574726163745F616363656C3E20545E
:101490003C74726176656C5F616363656C3E0020CD
:1014A000204D3230312058004D6178696D756D20C6
:1014B000416363656C65726174696F6E2028756E37
:1014C0006974732F7332293A0020204D3230332053
:1014D00058004D6178696D756D206665656472614F
:1014E0007465732028756E6974732F73293A0053DD
:1014F000746570732070657220756E69743A00208F
:10150000440020204D323030205300204469736164
:10151000626C65640A0046696C616D656E74207367
:10152000657474696E67733A0020286D6D29002018
:1015300020473231202020203B20556E69747320D3
:10154000696E206D6D003D3D6F6E4C6F616453653B
:101550007474696E67733D3D0000803B4400803BBE
:101560004400002041000096420000A0420000A07C
:1015700042000048440080CF43D0070000D007005D
:1015800000640000004B00000024F4D43050C38EEF
:1015900020C2A24017828B7011127A910D816CD9F2
:1015A0000AA861E108C7586607615143061E4B5DF2
:1015B00005C145A7041A411104093D980371393149
:1015C000034036DB0265339102D4305402802E1D75
:1015D00002632CEE01752AC501B028A001102781F5
:1015E000018F2564012B244B01E0223401AC211F23
:1015F000018D200D01801FFC00841EED00971DDF72
:1016000000B81CD200E61BC600201BBC00641AB246
:1016100000B219A8000A19A0006A189900D1179100
:101620000040178B00B516840031167E00B3157983
:10163000003A157300C7146F0058146A00EE136661
:10164000008813630025135E00C7125B006C1257FD
:101650000015125400C111510070114F0021114B9F
:1016600000D61049008D1047004610440002104279
:1016700000C00F4000800F3E00420F3C00060F3BB1
:1016800000CB0E3800930E37005C0E3500270E3469
:1016900000F30D3200C10D3100900D3000600D2EB1
:1016A00000320D2D00050D2C00D90C2B00AE0C299D
:1016B00000850C29005C0C2700350C27000E0C2639
:1016C00000E80B2400C40B2400A00B23007D0B2397
:1016D000005A0B2100390B2100180B2000F80A1FBB
:1016E00000D90A1E00BB0A1E009D0A1D00800A1DAB
:1016F00000630A1C00470A1B002C0A1B00110A1A6F
:1017000000F7091A00DD091900C4091900AB09190D
:1017100000920917007B091800630917004C09168D
:101720000036091600200916000A091500F50815EB
:1017300000E0081400CC081400B8081400A4081431
:1017400000900813007D0812006B0813005808125F
:101750000046081200340811002308110012081175
:101760000001081100F0071000E0071000D007107A
:1017700000C0071000B0070F00A107100091070E6E
:101780000083070F0074070F0065070E0057070E50
:101790000049070E003B070D002E070E0020070D25
:1017A0000013070D0006070D00F9060C00ED060DED
:1017B00000E0060C00D4060C00C8060C00BC060CA9
:1017C00000B0060C00A4060B0099060C008D060B59
:1017D0000082060B0077060B006C060B0061060A00
:1017E0000057060B004C060A0042060A0038060A9B
:1017F000002E060A0024060A001A060A001006092E
:101800000007060A00FD050900F4050900EB0509BB
:1018100000E2050900D9050900D0050900C705093E
:1018200000BE050900B5050800AD050800A50509BD
:10183000009C050800940508008C05080084050834
:10184000007C050800740508006C050700650508A4
:10185000005D050700560508004E0507004705070F
:10186000004005080038050700310507002A050774
:1018700000230507001C050600160507000F0507D5
:10188000000805060002050700FB040600F5040732
:1018900000EE040600E8040600E2040700DB04068C
:1018A00000D5040600CF040600C9040600C30406E0
:1018B00000BD040600B7040600B1040500AC040630
:1018C00000A6040600A00405009B0406009504057C
:1018D00000900406008A04050085040500800406C3
:1018E000007A04050075040500700405006B04050A
:1018F0000066040500610405005C0405005704054A
:1019000000520405004D0405004804050043040589
:10191000003E0404003A04050035040500300404C8
:10192000002C04050027040400230405001E040401
:10193000001A04040016040500110404000D040438
:1019400000090405000404040000040400FC03046E
:1019500000F8030400F4030400F0030400EC0304A3
:1019600000E8030400E4030400E0030400DC0304D3
:1019700000D8030400D4030400D0030400CC030403
:1019800000C8030300C503030024F404D9201BC4CA
:101990000C5C0E9804C4095F0265077101F405F937
:1019A00000FB04B30048048700C1036900580355D5
:1019B0000003034500BE023A008402310053022AAC
:1019C000002902250004022000E4011C00C80119BE
:1019D00000AF011700980114008401130071011079
:1019E000006101100051010E0043010D0036010B92
:1019F000002B010B0020010B00150109000C01094F
:101A00000003010800FB000800F3000800EB0007DA
:101A100000E4000600DE000600D8000600D2000642
:101A200000CC000500C7000500C2000500BD000491
:101A300000B9000400B5000400B1000400AD0004CA
:101A400000A9000400A5000300A20003009F0004F9
:101A5000009B000300980003009500020093000320
:101A600000900003008D0002008B0003008800023C
:101A7000008600020084000300810002007F000253
:101A8000007D0002007B0002007900020077000167
:101A90000076000200740002007200010071000272
:101AA000006F0002006D0001006C0002006A00017E
:101AB0000069000200670001006600010065000186
:101AC000006400020062000100610001006000018A
:101AD000005F0002005D0001005C0001005B00018E
:101AE000005A000100590001005800010057000190
:101AF0000056000100550001005400010053000091
:101B0000005300010052000100510001005000018B
:101B1000004F0001004E0000004E0001004D00018A
:101B2000004C0001004B0000004B0001004A000186
:101B30000049000100480000004800010047000182
:101B4000004600000046000100450000004500017D
:101B50000044000100430000004300010042000077
:101B6000004200010041000000410001004000016E
:101B7000003F0000003F0001003E0000003E000169
:101B8000003D0000003D0001003C0000003C000062
:101B9000003C0001003B0000003B0001003A000057
:101BA000003A00010039000000390001003800004F
:101BB0000038000000380001003700000037000145
:101BC000003600000036000000360001003500003D
:101BD0000035000000350001003400000034000032
:101BE0000034000100330000003300000033000126
:101BF000003200000032000000320001003100001D
:101C00000031000000310001003000000030000011
:101C100000300001002F0000002F0000002F000006
:101C2000002F0001002E0000002E0000002E0001F9
:101C3000002D0000002D0000002D0000002D0001EF
:101C4000002C0000002C0000002C0000002C0001E3
:101C5000002B0000002B0000002B0000002B0001D7
:101C6000002A0000002A0000002A0000002A0001CB
:101C700000290000002900000029000000290000C0
:101C800000290001002800000028000000280000B2
:101C900000280000002800010027000000270000A5
:101CA0000027000000270000002700010026000098
:101CB000002600000026000000260000002600018B
:101CC0000025000000250000002500000025000080
:101CD0000025000000250001002400000024000071
:101CE0000024000000240000002400010023000064
:101CF0000023000000230000002300000023000058
:101D00000023000000230001002200000022000048
:101D1000002200000022000000220000002200013A
:101D2000002100000021000000210000002100002F
:101D3000002100000021000000210001002000001F
:101D40000020000000200000002000000020000013
:101D5000002000000020000000200001001F000003
:101D6000001F0000001F0000001F0000001F0000F7
:101D7000001F0000001F0001001E0000001E0000E8
:101D8000001E0000001E0000003930000033250056
:101D90000087190000B00F0000DB080000BD040040
:101DA00000740200003F01000020436F756E742034
:101DB000583A0023646566696E652044454641557E
:101DC0004C545F0000626564004B6420004B692046
:101DD000004B702000504944204175746F74756E3B
:101DE000652066696E69736865642120507574208A
:101DF000746865206C617374204B702C204B6920D3
:101E0000616E64204B6420636F6E7374616E7473D3
:101E10002066726F6D2062656C6F7720696E746FDB
:101E200020436F6E66696775726174696F6E2E68A4
:101E30000A00504944204175746F74756E652066C0
:101E400061696C6564212074696D656F75740A0041
:101E5000504944204175746F74756E6520666169E0
:101E60006C6564212054656D70657261747572656E
:101E700020746F6F20686967680A00204B643A20FD
:101E800000204B693A2000204B703A200020436C20
:101E9000617373696320504944200A00204E6F200B
:101EA0006F76657273686F6F740A002054753A20FC
:101EB00000204B753A2000206D61783A2000206D9B
:101EC000696E3A200020643A200020626961733A0A
:101ED0002000504944204175746F74756E652073FD
:101EE000746172740A00504944204175746F7475AE
:101EF0006E65206661696C6564212054656D70654E
:101F000072617475726520746F6F20686967680A02
:101F10000042656400453100626564002C207379DD
:101F20007374656D2073746F7070656421204865EB
:101F3000617465725F49443A200048656174696E56
:101F400067204661696C65640048656174696E6705
:101F5000206661696C6564004D31313220536875CB
:101F600074646F776E001000C90210012C014001EB
:101F7000220170011801B0010E01F00104015002AC
:101F8000FA00B002F0003003E600D003DC00900459
:101F9000D2007005C800A006BE000008B400B00959
:101FA000AA00D00BA000600E960060118C000015F6
:101FB000820020197800C01D6E00A0226400B027A6
:101FC0005A00902C500000314600E0343C0010389C
:101FD0003200903A2800603C1E00A03D1400803E74
:101FE0000A00203F0000544845524D414C205255B4
:101FF0004E4157415900546865726D616C205275AD
:102000006E61776179004572723A204D41585445AE
:102010004D50004D415854454D50207472696767CA
:1020200065726564004572723A204D494E54454DC3
:1020300050004D494E54454D502074726967676594
:1020400072656400202F002042403A0020403A0090
:1020500020573A0020573A00496E76616C69642037
:1020600065787472756465720A007C3C3E5E2B3D37
:102070003F2F5B5D3B2C2A225C0043616E6E6F74C8
:10208000206F70656E20737562646972200053441E
:1020900020496E6974204661696C00534420636175
:1020A0007264206F6B0A006F70656E526F6F7420E0
:1020B0006661696C65640A00766F6C756D652E6982
:1020C0006E6974206661696C65640A004E6F205306
:1020D0004420636172640A000A4D3234004D323389
:1020E000202573002E0A006F70656E206661696C92
:1020F00065642C2046696C653A200046696C652051
:1021000073656C65637465640A002053697A653A87
:10211000200046696C65206F70656E65643A20002A
:10212000454E4420535542524F5554494E450A009E
:102130002220706F73002220706172656E743A22E3
:1021400000535542524F5554494E452043414C4C43
:10215000207461726765743A220053756263616C22
:102160006C204F766572666C6F77004578636565A5
:10217000646564206D617820535542524F5554492F
:102180004E452064657074683A002E0A0044656C00
:102190006574696F6E206661696C65642C204669A0
:1021A0006C653A200046696C652064656C657465F1
:1021B000643A005344207072696E74696E672062DD
:1021C00079746520004E6F74205344207072696EDC
:1021D00074696E670A0057726974696E6720746F5C
:1021E0002066696C653A2000667265736800646FEA
:1021F000696E67002066696C653A20004E6F772033
:10220000002F6175746F25632E67002020506C616C
:102210006E6E657242756666657242797465733A70
:1022200020002046726565204D656D6F72793A20F9
:1022300000436F6D70696C65643A204170722032A2
:102240003920323032310A00204C617374205570CD
:1022500064617465643A20323032312D30342D316E
:1022600038207C20417574686F723A20426F6E642A
:1022700074656368202F20496E73616E69747941BB
:1022800075746F6D6174696F6E0A00322E302E376F
:102290005F4457372E330A004D61726C696E00201F
:1022A000536F6674776172652052657365740A00B6
:1022B000205761746368646F672052657365740AA0
:1022C000002042726F776E206F75742052657365BF
:1022D000740A002045787465726E616C20526573D3
:1022E00065740A00506F77657255700A00737461E7
:1022F00072740A004739310A47315A350A47393072
:102300000A4D38340A4D31303453300A4D313430AF
:102310005330004D31303031006572726F7220776A
:10232000726974696E6720746F2066696C650A0053
:10233000446F6E6520736176696E672066696C65AF
:102340002E0A004D323900456E6473746F7073004D
:102350002553202563202563202563202563002045
:102360005A3A0020593A0020583A00656E64737456
:102370006F7073206869743A200000000A0B02092C
:102380000C0D0E080703040100000000000000000F
:10239000000000000000000000000000000000003D
:1023A00000000000000012111000000000000000FA
:1023B000000000000000000000000000000000001D
:1023C0004572726F722077726974696E6720746FDC
:1023D00020454550524F4D210A0053544F5050450F
:1023E000442E20005072696E7465722073746F7091
:1023F0007065642064756520746F206572726F72F9
:10240000732E2046697820746865206572726F7239
:1024100020616E6420757365204D39393920746FE1
:1024200020726573746172742E202854656D706516
:102430007261747572652069732072657365742E9C
:10244000205365742069742061667465722072651A
:102450007374617274696E67290A004E6F20436855
:1024600065636B73756D2077697468206C696E6540
:10247000206E756D6265722C204C617374204C69FE
:102480006E653A20004E6F20436865636B73756D0F
:102490002077697468206C696E65206E756D626561
:1024A000722C204C617374204C696E653A20006375
:1024B0006865636B73756D206D69736D61746368B6
:1024C0002C204C617374204C696E653A20004C6975
:1024D0006E65204E756D626572206973206E6F7433
:1024E000204C617374204C696E65204E756D626579
:1024F000722B312C204C617374204C696E653A202C
:10250000004D3131300053657269616C2073746124
:10251000747573206D69736D617463680A00776107
:1025200069740A0053442072656164206572726F99
:10253000720A002121204B494C4C20636175736560
:102540006420627920746F6F206D75636820696EF6
:102550006163746976652074696D65202D206375EB
:102560007272656E7420636F6D6D616E643A2000E7
:10257000486F74656E642049646C652054696D65AC
:102580006F757400486F74656E642049646C6520D3
:1025900054696D656F75740A003D3D6F6E46696CD8
:1025A000616D656E7452756E6F75743D3D0070613E
:1025B000757365004D363030002066696C616D655D
:1025C0006E745F72756E6F7574200066696C616DF4
:1025D000656E745F72756E6F757420540046696C19
:1025E000616D656E7452756E6F75742054002A2A81
:1025F0002A496E6974696E67206361726420697329
:10260000204F4B2A2A2A004D6564696120496E7368
:102610006572746564004D656469612052656D6F13
:10262000766564004D313030305300627573793A0D
:102630002070617573656420666F7220696E7075B5
:10264000740A00627573793A20706175736564204D
:10265000666F7220757365720A00627573793A202D
:1026600070726F63657373696E670A002A2A2A6B3A
:10267000696C6C2A2A2A00706F7765726F66660033
:102680004B494C4C45442E20005072696E74657263
:102690002068616C7465642E206B696C6C2829203D
:1026A00063616C6C6564210A0053544F505045447B
:1026B0002E20005072696E7465722073746F707092
:1026C00065642064756520746F206572726F727323
:1026D0002E2046697820746865206572726F7220BA
:1026E000616E6420757365204D39393920746F200F
:1026F000726573746172742E202854656D706572F2
:1027000061747572652069732072657365742E201B
:1027100053657420697420616674657220726573F4
:1027200074617274696E67290A006563686F3A00A4
:102730004572726F723A0042696C696E656172200F
:102740004C6576656C696E6720477269643A0A0069
:1027500021212053544F502063616C6C65642062CA
:10276000656361757365206F6620424C546F7563B5
:1027700068206572726F72202D20726573746172A9
:10278000742077697468204D3939390A0021212075
:1027900053544F502063616C6C65642062656361C3
:1027A000757365206F6620424C546F7563682065B1
:1027B00072726F72202D207265737461727420774B
:1027C000697468204D3939390A002F2F61637469A3
:1027D0006F6E3A0070726F6D70745F00656E6400AA
:1027E00053656E64204D31303820746F20726573EC
:1027F000756D650A00496E736572742066696C6157
:102800006D656E7420616E642073656E64204D3159
:1028100030380A005265686561742066696E6973B4
:102820006865642E0052656865617420446F6E654A
:1028300000526568656174696E672E2E2E005265C0
:1028400068656174004865617465722054696D65DE
:102850006F75740053656E64204D31303820746F8D
:102860002068656174206E6F7A7A6C650A004E6F1D
:102870007A7A6C65205061726B656400486F74658C
:102880006E6420746F6F20636F6C640A00706175F2
:102890007365640050617573650044697361626CAF
:1028A0006552756E6F75740050757267654D6F7205
:1028B00065005061757365640073686F77006275B9
:1028C00074746F6E00626567696E004C6F6164209E
:1028D00046696C616D656E74004C6F616420466979
:1028E0006C616D656E74205400496E73657274205E
:1028F00066696C616D656E7420616E642073656ECF
:1029000064204D3130380A00726573756D6564005E
:10291000526573756D696E670057616974696E679A
:1029200020666F72206865617475702E0A004C65B0
:102930006176696E6720473236003F537065636980
:102940006669656420582C5920636F6F7264696EE4
:10295000617465206F7574206F6620626F756E6498
:10296000732E0A003F2852296570656174207661D4
:102970006C7565206E6F7420706C61757369626C24
:10298000653B206D757374206265206174206C65F1
:1029900061737420312E0A003F28522965706561E9
:1029A00074206D7573742062652073706563696649
:1029B000696564207768656E206E6F742075736931
:1029C0006E6720616E204C43442E0A003F537065B1
:1029D000636966696564206E6F7A7A6C65207465D8
:1029E0006D7065726174757265206E6F7420706CA5
:1029F00061757369626C652E0A003F537065636987
:102A0000666965642066696C616D656E74207369C2
:102A10007A65206E6F7420706C61757369626C6585
:102A20002E0A003F537065636966696564207072A1
:102A3000696D65206C656E677468206E6F742070B8
:102A40006C61757369626C652E0A003F5072696D26
:102A500065206C656E677468206D7573742062659F
:102A600020737065636966696564207768656E20A8
:102A70006E6F74207573696E6720616E204C4344DD
:102A80002E0A003F537065636966696564206E6F46
:102A90007A7A6C652073697A65206E6F7420706C29
:102AA00061757369626C652E0A003F5265747261CC
:102AB0006374696F6E204D756C7469706C696572B2
:102AC000206D757374206265207370656369666933
:102AD00065642E0A003F537065636966696564200A
:102AE00052657472616374696F6E204D756C7469A0
:102AF000706C696572206E6F7420706C617573699B
:102B0000626C652E0A003F5370656369666965648F
:102B1000206C6179657220686569676874206E6FE2
:102B20007420706C61757369626C652E0A004329AC
:102B30002E0A003F537065636966696564206265AB
:102B4000642074656D7065726174757265206E6F56
:102B50007420706C61757369626C65202834302D47
:102B600000473236207374617274696E672E2E2EA0
:102B70000A004F46460A0046616465204865696759
:102B800068742000426564204C6576656C696E67E8
:102B900020004661696C656420746F20656E616217
:102BA0006C6520426564204C6576656C696E670AC9
:102BB00000496E76616C6964206D6573682E0A0049
:102BC00050726F62696E6720506F696E7400255392
:102BD0002025692F2569002E0A002F0050726F6290
:102BE000696E67206D65736820706F696E74200070
:102BF000202844525952554E2900473239204175F8
:102C0000746F20426564204C6576656C696E670060
:102C10003F20284C2C522C462C4229206F757420C2
:102C20006F6620626F756E64732E0A003F28562906
:102C30006572626F7365206C6576656C20696D7076
:102C40006C61757369626C652028302D34292E0AF9
:102C500000426164205A2076616C75650A004E6FEF
:102C60002062696C696E65617220677269640A002E
:102C70004163637572616379204465637265617352
:102C8000696E67210044656372656173696E6720D0
:102C9000416363757261637920446574656374652B
:102CA000642E0A00473238004732385A00416363C5
:102CB00075726163793A2000206F66200044696470
:102CC00020004733342061626F727465642E0A00FD
:102CD00041636375726163792041636869657665F4
:102CE0006400546172676574206163637572616327
:102CF000792061636869657665642E0A00446966B7
:102D00006673205A312D5A323D2573000A444946D4
:102D1000464552454E4345205A312D5A323D0050CA
:102D2000726F62696E67204661696C6564005072FB
:102D30006F62696E67206661696C65640A0047337B
:102D40003420497465726174696F6E3A2025690098
:102D50000A47333420497465726174696F6E3A2092
:102D6000003F2841296D706C696669636174696F01
:102D70006E206F7574206F6620626F756E647320AD
:102D800028302E352D322E30292E0A003F28542986
:102D90006172676574206163637572616379206F26
:102DA0007574206F6620626F756E64732028302EF4
:102DB00030312D312E30292E0A003F2849297465E3
:102DC000726174696F6E206F7574206F6620626F18
:102DD000756E64732028312D3330292E0A003F2868
:102DE0005929206F7574206F6620626F756E647349
:102DF0002E0A003F285829206F7574206F662062C4
:102E00006F756E64732E0A003F2853292050726F2D
:102E100062652D706F736974696F6E20696E646589
:102E20007820696E76616C69642E0A003F28532908
:102E30002069732072657175697265642E0A004D90
:102E4000343232205300446576696174696F6E00D4
:102E500025533A2025730046696E697368656421BD
:102E60000A003A207A3A2000206F662000476F69F6
:102E70006E6720746F3A20580043570A0020646937
:102E8000723A0020616E676C653A00537461727427
:102E9000207261646975733A004D343820506F694F
:102EA0006E740025533A2025642F256400506F73FB
:102EB0006974696F6E696E67207468652070726FDF
:102EC00062652E2E2E0A003F4C656773206F6620C8
:102ED0006D6F76656D656E7420696D706C6175736C
:102EE00069626C652028302D3135292E0A003F207B
:102EF00028582C5929206F7574206F6620626F75D1
:102F00006E64732E0A0050726F6265206F757420B4
:102F10006F6620626F756E6473003F53616D706CF5
:102F2000652073697A65206E6F7420706C617573AB
:102F300069626C652028342D3530292E0A004D3405
:102F400038205A2D50726F62652052657065617429
:102F50006162696C69747920546573740A003F2852
:102F600056296572626F7365206C6576656C2069A1
:102F70006D706C61757369626C652028302D342921
:102F80002E0A005374616E64617264204465766930
:102F90006174696F6E3A20002052616E67653A2055
:102FA00000204D61783A2000204D696E3A200020C3
:102FB0005369676D613A20004D65616E3A20005794
:102FC00041524E494E4721204C6F77205A204A6586
:102FD000726B206D6179206C65616420746F20755F
:102FE0006E77616E746564207061757365732E0A07
:102FF000006001F4017001EA019001E001B001D626
:1030000001D001CC010002C2013002B8016002AE61
:10301000019002A401D0029A01200390017003865E
:1030200001C0037C0130047201A004680120055E28
:1030300001B005540160064A0120074001F007363F
:1030400001F0082C01100A2201500B1801C00C0ECF
:1030500001500E04013010FA002012F0005014E666
:1030600000C016DC007019D200501CC800501FBEF2
:10307000007022B400B025AA00F028A000202C96F1
:1030800000302F8C0010328200A0347800F0366EB1
:1030900000E0386400803A5A00403B5500E03B5065
:1030A00000F03C4600C03D3C00603E3200E03E285F
:1030B00000303F1E00503F1900703F1400A03F0A2F
:1030C00000C03F0000D03FF6FFE03FECFF50726FC2
:1030D00062696E67204661696C656400205A3A2017
:1030E0000020593A200042656420583A20003D3DB6
:1030F0006F6E55736572436F6E6669726D5265715E
:1031000075697265643D3D00220A00556E6B6E6FF5
:10311000776E20636F6D6D616E643A2022002042ED
:10312000002050006F6B00204500205A00205900FD
:10313000204D393220580020453A00205A3A0020CC
:10314000593A00583A0020746F6F206C6F6E6720F8
:10315000657874727573696F6E2070726576656ECE
:103160007465640A0020636F6C64206578747275FE
:1031700073696F6E2070726576656E7465640A009F
:1031800043616E6E6F7420656E7465722073756234
:103190006469723A20004D323520500A4D323400B5
:1031A000526573756D6500554920506175736500F2
:1031B0004E6F204D61746368203A004D32320A4DE3
:1031C0003231005265667265736800506755700051
:1031D0005067446F776E0049732046696C65200024
:1031E0004973204469722000476F5570446972002A
:1031F000486173204D656469610046696C656E6164
:103200006D652053656C6563746564004D313030C5
:103210003043004D313030300046696C616D656E71
:103220007420537461742030202D20330046696C63
:10323000616D656E7420537461742030202D2032CE
:103240000046696C616D656E742053746174203042
:10325000202D2031002046696C616D656E7420520E
:103260006573706F6E7365204E6F00526573756D78
:10327000652059657320647572696E672070726984
:103280006E74000A204E6F2046696C616D656E7425
:1032900000496E76616C6964204F7074696F6E00CE
:1032A0004D3530300053746F726520536574746906
:1032B0006E67730042656420504944205374617204
:1032C000746564004D3939390A4D32383050305305
:1032D00031363000424C546F756368205265736517
:1032E00074004D3530320A4D35303000496E697406
:1032F00020454550524F4D00486F74656E64205014
:103300004944205374617274656400456E676C694A
:10331000736820416C726561647920536574004361
:1033200068696E657365204E6F7420537570706F99
:103330007274656400496E4C616E6743686F6963BF
:1033400065000A202A2A2A7265636461742E64610A
:1033500074615B305D203D004732380A47312046BA
:1033600031303030205A313000556E737570706FC7
:1033700072746564204F7074696F6E2053656C655C
:10338000637465640047323652323535004D313949
:10339000305335350A4732380A47333449380A47FB
:1033A00032390A4D3430300A4D31303453323135F0
:1033B0000A4732380A4D313039533231350A4D34EB
:1033C000323053310A47315831303059313030467C
:1033D000353030300A47315A300A4D3530300A4DD9
:1033E00031313720536574205A204F6666736574F7
:1033F000004731204631303030205A302E300047DF
:1034000032380A4731204631303030205A302E30A1
:10341000004D353030005A204F6666736574203A8F
:10342000202573004D353030005A204F6666736595
:1034300074203A202573004732380A473146313527
:1034400030305A302E30004732385A0A4731463130
:103450003530305A302E30004D3834004731463147
:103460003030305A302E30004732380A473146313A
:103470003030305A302E30004D616E75616C5365BE
:103480007454656D70005265717565737465642060
:103490004F6666736574204265796F6E64204C696F
:1034A0006D697473005A204F6666736574203A2004
:1034B000257300526F756E64696E6720746F207398
:1034C00074657000526571756573746564204F662C
:1034D00066736574200053746F7020547269676757
:1034E000657265640053746F70204E6F0053746F83
:1034F000705072696E740048616E646C652044613E
:1035000074612041646A7573742032205365747449
:10351000696E672053637265656E200048616E6452
:103520006C652044617461205072696E7446696CE8
:103530006520332053657474696E67205363726528
:10354000656E200048616E646C6520446174612082
:103550005072696E7446696C6520322053657474CC
:10356000696E672053637265656E20004D383400C4
:1035700048616E646C652044617461205072696EAC
:103580007446696C6520506F73740048616E646C9A
:10359000652044617461205072696E7446696C657F
:1035A0002050726500426567696E5377697463687D
:1035B000003D3D20436865636B6B65793D3D00725E
:1035C00065636461742E61646472203D3D007265C0
:1035D000636461742E646174615B305D203D3D0005
:1035E00077616974776179203D3D0020202A2A2A7D
:1035F0002A2A2A2A5254535F48616E646C654461DA
:1036000074612A2A2A2A2A2A2A2A200052657365E6
:103610006E643A200000002200250028002B002EB6
:10362000003100340002010000050108010B010017
:10363000002100240027002A002D00300033000163
:10364000010000040107010A010505050507050839
:10365000080808020202020A0A0808040404040115
:103660000101010101010103030303030303030437
:103670000707070C0C0C0C0C0C0C0C0202020206C7
:10368000060606060606060B0B0B0B0B0B0B0B01B7
:103690000210202008081020401020408002010263
:1036A000010804020101020408102040808040202B
:1036B0001008040201800402018040201008040266
:1036C00001080402010102040810204080010204E4
:1036D000081020408044445820453520506C7573B4
:1036E0002052656164792E005072696E74696E674C
:1036F0002E2E2E005072696E7420506175736564B1
:10370000006E6F74696669636174696F6E20005042
:1037100049442054756E652046696E697368656416
:1037200000004E016C0111241FBECFEFD1E2DEBFBD
:10373000CDBF00E00CBF14E0A0E0B2E0EAEAF0E7A1
:1037400002E00BBF02C007900D92AA31B107D9F772
:1037500026E1AAE1B4E001C01D92AD34B207E1F761
:103760001BE1C2E9DBE100E006C021970109802FDF
:10377000FE010F948234C139D10780E00807A9F710
:103780000F94F4210D9443380C9400009F92AF9253
:10379000BF92CF92DF92EF92FF920F931F93CF933E
:1037A000DF9300D01F921F92CDB7DEB7E4E0F1E1C6
:1037B0000027BB27462F572FA82FAA2341F4A52F58
:1037C000542FB85FAA2319F4A52F5527B85FA0314D
:1037D00038F45295A295452F4F70507FA42BBC5FB3
:1037E000A03428F4550FAA1F550FAA1FBE5FA0389A
:1037F00018F4550FAA1FB395550FAA1FEA0FF01F13
:10380000449151E0AA27B85081F1C8F0B0FF02C03E
:10381000440F551FB1FF04C0440F551F440F551FDF
:10382000B2FF06C052954295142F1F70407F512B56
:10383000B3FF1BC0A52F542F44270C94351CB19502
:10384000B0FF02C055954795B1FF04C05595479507
:1038500055954795B2FF05C05295407F4295452B3F
:103860005F70B3FF02C0452F5527DD24CC24BB2455
:10387000B2E0649FD018C108B00AB00B749FC018A2
:10388000B108B00B849FB018B109659FC018B1088A
:10389000B00B759FB018B109859FB0196A9FB01819
:1038A000B1097A9FB0194D9DA12C992433279927EE
:1038B00022275D9DA00C911C301F901F201FAD9DE5
:1038C000900C311D901F201F4C9DA00C911C301F8F
:1038D000901F201F5C9D900C311D901F201FAC9DE0
:1038E000300D911D201F4B9D900C311D901F201FEE
:1038F0005B9D300D911D201FAB9D900D211D4B9F99
:10390000300D911D201F5B9F900D211DAB9F200D41
:10391000B1E0BB24CC24DD24639FD018C108B00AD9
:10392000B00B739FC018B108B00B839FB018B109DA
:10393000699FC018B108B00B799FB018B109899F71
:10394000B019629FB018B109729FB019D61AC70A90
:10395000B80A20F0B1E03B0F901F201F1124792FEF
:10396000632F90E0822F0F900F900F900F900F9089
:10397000DF91CF911F910F91FF90EF90DF90CF904B
:10398000BF90AF909F900895AF92BF92CF92DF9279
:10399000EF92FF920F931F93CF93DF93C7E5DCE085
:1039A0000AE119E087E6A82E8CE0B82EC12CD12CB4
:1039B0007601C39469917991899199910F94C02D61
:1039C000288939894A895B890F94212E0F94FE3505
:1039D000F80161937193819391938F01C616D70675
:1039E000E806F90610F46B017C01AC16BD0611F770
:1039F0006FEF7FEFCB01A70196010F94FF33209368
:103A00002A0930932B0940932C0950932D09DF91FB
:103A1000CF911F910F91FF90EF90DF90CF90BF90CB
:103A2000AF900895CF93DF9324E0829FC0011124CB
:103A3000EC01C350D74FFC01ED5CF74F895D974F08
:103A4000DC012D913D914D915C916081718182816C
:103A500093810F948B34688379838A839B83DF916E
:103A6000CF9108958091A7129091A812891B877019
:103A700089F48091AF0D81110DC08091A30C9091BC
:103A8000A40C892B39F481E09091D005911103C0E9
:103A900080E0089581E0089590E080E00895282F67
:103AA00090912108833021F495FD0FC094FD0FC043
:103AB000892F90E0B0E0A0E004C0B695A795979557
:103AC00087952A95D2F78170089581E0089580E066
:103AD0000895CF93C82FCB010E9497C588E79EE039
:103AE0000E9497C589E69EE0CC2311F08EE69EE009
:103AF0000E9497C58AE0CF910C946FC50F931F93D6
:103B0000CF938C01C62F88EC99E00E9497C5C8011D
:103B10000E9497C58AE30E946FC580E38C0F0E94C4
:103B20006FC58AE0CF911F910F910C946FC58BE404
:103B30009BE00E9497C560E08BE39BE00E947E1DA6
:103B400060E086E29BE00E947E1D61E08FE19BE0E9
:103B50000E947E1D61E084E19BE00E947E1D61E089
:103B600084E09BE00E947E1D60E08BEF9AE00E9463
:103B70007E1D61E081EF9AE00E947E1D61E087EE8C
:103B80009AE00E947E1D61E080EE9AE00E947E1D18
:103B900061E088ED9AE00E947E1D61E08AEC9AE087
:103BA0000E947E1D61E08CEB9AE00E947E1D60E029
:103BB0008DEA9AE00E947E1D60E08FE99AE00E9403
:103BC0007E1D60E089E89AE00E947E1D61E088E742
:103BD0009AE00E947E1D61E089E69AE00E947E1DC7
:103BE00061E082E69AE00E947E1D60E08BE59AE04B
:103BF0000E947E1D61E082E59AE00E947E1D61E0E8
:103C00008DE39AE00E947E1D61E08FE29AE00E94BF
:103C10007E1D61E08CE19AE00E947E1D60E08FE0F5
:103C20009AE00E947E1D61E08AE09AE00E947E1D7B
:103C300061E08DEF99E00E947E1D60E089EE99E0E1
:103C40000E947E1D60E086ED99E00E947E1D60E08E
:103C500082E594E10E944C1D682F61708DEC99E023
:103C60000C947E1DCF93DF938091A7129091A812A0
:103C7000891B8095877019F40E9432DDF5CF809101
:103C8000A7128F5F8770A091A7129CE5A99FD00112
:103C90001124FD01ED5CF64FEF0119929A95E9F7B9
:103CA00098E09083A85BB64F90E1E9EAF2E10190D9
:103CB0000D929A95E1F72091A7129091A8122913DD
:103CC00003C094E69093A4128093A712DF91CF9142
:103CD0000C94AAC02F923F924F925F926F927F9264
:103CE0008F929F92AF92BF92CF92DF92EF92FF920C
:103CF0000F931F93CF93DF93D62FC72FFC018080A4
:103D00009180A280B380C501B40120E831E541E093
:103D100050E00F94FF33C9016DE671E00F946E34EB
:103D20006B017C01C501B40120E13EE040E050E0C0
:103D30000F94FF33CA01B90128E130E040E050E0C0
:103D40000F94FF33362E272E062F172F8CE3482E85
:103D5000512C612C712CC501B401A30192010F9467
:103D6000FF33B62EA72ECA01B901A30192010F9409
:103D7000FF33CB01C114D10479F1AF92BF927F938D
:103D80006F932F923F92FF92EF92DF92CF928BE050
:103D90009DE09F938F93CF93DF930F94522D8DB718
:103DA0009EB70E960FB6F8949EBF0FBE8DBF8D2F97
:103DB0009C2FDF91CF911F910F91FF90EF90DF909B
:103DC000CF90BF90AF909F908F907F906F905F90BB
:103DD0004F903F902F900895E114F104C9F0AF92F5
:103DE000BF927F936F932F923F92FF92EF928BEF50
:103DF0009CE09F938F93CF93DF930F94522DEDB759
:103E0000FEB73C960FB6F894FEBF0FBEEDBFCFCF06
:103E1000012BB9F0AF92BF927F936F932F923F9295
:103E20008FEE9CE09F938F93CF93DF930F94522D4F
:103E30008DB79EB70A960FB6F8949EBF0FBE8DBF82
:103E4000B6CF892BA9F0AF92BF927F936F9387EE85
:103E50009CE09F938F93CF93DF930F94522DEDB7F8
:103E6000FEB738960FB6F894FEBF0FBEEDBF9FCFDA
:103E7000AF92BF9283EE9CE09F938F93CF93DF939B
:103E80000F94522D0F900F900F900F900F900F9056
:103E90008ECFCF93DF9300D01F92CDB7DEB784EFE4
:103EA00091E0A0E0B0E089839A83AB83BC83BE013C
:103EB0006F5F7F4F8CE30E9433C386E99EE00E94D0
:103EC00097C58CB160E97EE085FB882780F90E9468
:103ED000691D809103016AE87EE0869581700E94E9
:103EE000691D89B164E87EE083FB882780F90E9420
:103EF000691D8CB16BE77EE0829581700E94691D1F
:103F00004B9909C00E946EC30F900F900F900F90B5
:103F1000DF91CF9108950E9453C30F900F900F909F
:103F20000F90DF91CF91089580911006882319F0AA
:103F300010921006089540E070E060E08BE59EE08E
:103F40000E9461DCCF93C091A104CF7739F50E9424
:103F5000C6C1882319F18091471490914814A0910B
:103F60004914B0914A140097A105B105B9F0BC01FC
:103F7000CD016D597F4F8F4F9F4F24E630E040E0D9
:103F800050E00F94FF3360914B1470914C1480916A
:103F90004D1490914E140F94FF33C22F8C2FCF915C
:103FA0000895CF93DF93EB010E9464BC882319F03E
:103FB0000E94B4BBEB01CE01DF91CF9108954F92E7
:103FC0005F926F927F928F929F92AF92BF92CF92A9
:103FD000DF92EF92FF921F93CF93DF9300D01F9257
:103FE000CDB7DEB719821A821B821C82CE010196E0
:103FF0004C0181EAC82E87E0D82E91E6E92E92E0A6
:10400000F92E2DEFA22E28E0B22E10E088E5810FC8
:104010000E9464BCF40181934F01882309F4E0C03D
:104020000E94ECBB2B013C01812F0E944F1D882375
:1040300009F4CCC0F7012081318142815381C30151
:10404000B2010F948B34F601608371838283938372
:104050001F5FF4E0CF0ED11C84E0E80EF11C94E069
:10406000A90EB11C133091F685E40E9464BC8C83C8
:10407000882309F4C0C00E94ECBB6B017C0183E083
:104080000E944F1D882371F020916D0230916E02C5
:1040900040916F0250917002C701B6010F948B34AA
:1040A0006B017C01C092AD07D092AE07E092AF07E2
:1040B000F092B0078091E204882359F180914F1467
:1040C00082FF27C08C81882321F18981811103C05F
:1040D0008A818823F1F02DEC3CEC4CE45DE36091A7
:1040E00048087091490880914A0890914B080F94B4
:1040F0008B349B01AC016091690270916A028091DE
:104100006B0290916C020F94EB36181614F40F9416
:104110004E1C40E050E0BA0186E40E94D1BC20E091
:1041200030E0A9010F94EB36181684F40E94ECBB22
:1041300020E030E040E752E40F948535609341027F
:104140007093420280934302909344028091130C37
:1041500083FD28C08091BB05882321F120916D0249
:1041600030916E0240916F02509170026091AD07E4
:104170007091AE078091AF079091B0070F948A3489
:104180002091C8053091C9054091CA055091CB05D1
:104190000F948B346093C8057093C9058093CA054A
:1041A0009093CB050F900F900F900F90DF91CF91D0
:1041B0001F91FF90EF90DF90CF90BF90AF909F90B6
:1041C0008F907F906F905F904F900895F5012081C0
:1041D000318142815381C301B2010F948A3433CFBC
:1041E000F70180819181A281B381F601808391835F
:1041F000A283B3832DCF80916D0290916E02A09126
:104200006F02B09170028093AD079093AE07A093B8
:10421000AF07B093B0074ECFCF9384E50E9464BC44
:10422000C0E08823D9F00E94C4BBC82F1816B4F48C
:104230000E9487D98DE40E946FC58091920490916D
:1042400093040E94CDEF6C2FCC0F770B8DE495E09B
:104250000E94EAC78AE00E946FC5CFEF8C2FCF91F2
:104260000895CF92DF92EF92FF920F931F93CF9317
:10427000DF93CDB7DEB7A0970FB6F894DEBF0FBEC1
:10428000CDBF0E940C2187FDCCC085E40E9416BCE6
:10429000882309F4D5C00E94ECBB6B017C0120E0AF
:1042A00030E0A9010F94EB3687FF04C0F7FAF094D1
:1042B000F7F8F094F7FAF094F7F8F094CD8EDE8EDC
:1042C000EF8EF8A28CE0EBE8F2E0DE0111960190AF
:1042D0000D928A95E1F78AE50E9464BC882351F02B
:1042E00040E050E0BA018AE50E94D1BC69877A8734
:1042F0008B879C8788E50E9464BC882351F040E04E
:1043000050E0BA0188E50E94D1BC69837A838B832F
:104310009C8389E50E9464BC882351F040E050E012
:10432000BA0189E50E94D1BC6D837E838F83988713
:1043300085E50E9416BC882309F489C00E94ECBB65
:104340006B017C0120E030E0A901C701B6010F94A8
:10435000EB3687FF04C0F7FAF094F7F8F094F7FA19
:10436000F094F7F8F094C98EDA8EEB8EFC8E1D8AED
:104370001E8A1F8A188E8CE40E9416BC882309F4BA
:104380006FC00E94ECBB6B017C0120E030E0A90112
:10439000C701B6010F94EB3687FF04C0F7FAF0941B
:1043A000F7F8F094C98ADA8AEB8AFC8A62E070E056
:1043B00082E40E94E8BCF82E80914111811131C045
:1043C00021E0AE01475E5F4FBE016F5F7F4FCE01C0
:1043D0004D960E94E7EB882321F16F2D81E00E942A
:1043E000B9EC82E50E9464BC882309F442C00E94B3
:1043F000E8BB40E050E060EA71E44D875E876F877C
:10440000788B20914111222361F08C012F2DAE0178
:10441000435F5F4FBE016F5E7F4FCE0145960E94A6
:10442000A4EAA0960FB6F894DEBF0FBECDBFDF9111
:10443000CF911F910F91FF90EF90DF90CF90089553
:10444000C12CD12C80E8E82E80E4F82E33CFC09028
:10445000DA04D090DB04E090DC04F090DD0472CF4D
:10446000C090DE04D090DF04E090E004F090E1041E
:104470008CCF90E080E0BDCFCF92DF92EF92FF92A1
:104480000F931F93CF93DF93CDB7DEB76C970FB623
:10449000F894DEBF0FBECDBF8CE40E9416BC88230B
:1044A00009F4B0C00E94ECBB6B017C0120E030E05D
:1044B000A9010F94EB3687FF04C0F7FAF094F7F8E0
:1044C000F094F7FAF094F7F8F094C98EDA8EEB8E48
:1044D000FC8E8CE0EBE8F2E0DE01119601900D928B
:1044E0008A95E1F788E50E9464BC8823A1F040E04A
:1044F00050E0BA0188E50E94D1BC2091FD083091BE
:10450000FE084091FF08509100090F948A34698396
:104510007A838B839C8389E50E9464BC8823A1F005
:1045200040E050E0BA0189E50E94D1BC2091FD082D
:104530003091FE084091FF08509100090F948A3491
:104540006D837E838F8398878AE50E9464BC88236D
:1045500051F040E050E0BA018AE50E94D1BC698781
:104560007A878B879C871D861E861F86188A809176
:104570004111811138C020E0AE01435F5F4FBE01A1
:104580006F5F7F4FCE0149960E94E7EB882359F178
:104590008091E20481110F944E1C60E080E00E9443
:1045A000B9EC898D9A8DAB8DBC8DB0588D8B9E8B5F
:1045B000AF8BB88F198A1A8A1B8A1C8A1D861E86A1
:1045C0001F86188A80914111882369F010E000E06D
:1045D00020E0AE014B5E5F4FBE016F5E7F4FCE01AC
:1045E0000D960E94A4EA6C960FB6F894DEBF0FBE3B
:1045F000CDBFDF91CF911F910F91FF90EF90DF9092
:10460000CF900895C12CD12C80E8E82E80E4F82EBC
:1046100058CF84E690E09093D9048093D804109208
:104620000905109208050C9412AD0F93AB0100918F
:10463000070521E0022728E035E0BC0188ED94E081
:104640000E94F0C10F910895CF93DF9300D01F9285
:10465000CDB7DEB78091BB058823C1F083E390E03E
:104660009C838B831A8219829E012F5F3F4F40E10A
:1046700050E06CEB75E0CE0103960E94F1DB88E41C
:1046800092E10E9497C58AE00E946FC50F900F903B
:104690000F900F90DF91CF910895CF93DF9300D0CB
:1046A0001F921F92CDB7DEB781E08093BB0580E1FA
:1046B000ECEBF5E0DF011D928A95E9F70E942423D7
:1046C00086E18D8382E390E09C838B831A8219823A
:1046D0009E012F5F3F4F41E050E0BE016B5F7F4F77
:1046E000CE0103960E94F1DB0F900F900F900F9078
:1046F0000F90DF91CF910895CF92DF92EF92FF92CA
:10470000CF93DF93EC0108960E94D4B76B017C0134
:1047100020E030E0A9010F94BB2D20E030E0A9019A
:10472000882359F0CE010E94BDBD9B01AC01C70199
:10473000B6010F94212E9B01AC01688579858A858D
:104740009B850F948A34688779878A879B87DF9156
:10475000CF91FF90EF90DF90CF900895833B21E0C1
:10476000920714F083EB91E090930C1280930B125C
:104770000C9486EE0F931F93CF93DF930BE61CE010
:10478000C4E8D1E1F80121913191419151918F011A
:1047900060E070E080E89FE30F948535699379933A
:1047A00089939993F1E1C439DF0761F70F948D1A6A
:1047B000DF91CF911F910F910C94C41C9091A7127F
:1047C0008091A812981306C0809131099091320906
:1047D000892B21F080E00E9432DDF0CF0895909186
:1047E000A7128091A812981308C080913109909166
:1047F0003209892B11F40C94ACC180E00E9432DDA7
:10480000EECFCF92DF92EF92FF92CF93DF93209182
:10481000560C222329F1EC0108960E94D4B76B01B3
:104820007C0120E030E0A9010F94BB2D20E030E0B6
:10483000A901882359F0CE010E94BDBD9B01AC01A6
:10484000C701B6010F94212E9B01AC0168857985C3
:104850008A859B850F948B34688779878A879B87A5
:10486000DF91CF91FF90EF90DF90CF900895CF929E
:10487000DF92EF92FF9280912608882309F457C0B7
:10488000C0902208D0902308E0902408F0902508DA
:1048900020E030E0A901C701B6010F94BB2D8823A9
:1048A00009F445C020E030E040E05FE3C701B60115
:1048B0000F94212E9B01AC010F94212E2BED3FE094
:1048C00049E450E40F94212E9B01AC0160E070E0BC
:1048D00080E89FE30F9485356B017C01C0929F0CAB
:1048E000D092A00CE092A10CF092A20C6091750203
:1048F00070917602072E000C880B990B0F94C22D35
:104900002AE037ED43E25CE30F94212EA7019601E4
:104910000F94212E60937102709372028093730240
:1049200090937402FF90EF90DF90CF900895C12C88
:10493000D12C80E8E82E8FE3F82ED0CF0F931F9371
:10494000CF93DF9350E0FC01E40FF51F8081440F0B
:10495000551F440F551F48545B4FEA01882329F126
:1049600088819981AA81BB81EB01088119812A8103
:104970003B810097A105B10569F40C591F4F2F4FDA
:104980003F4FDA010D931D932D933C9313978FEFB7
:10499000808306C0081B190B2A0B3B0B37FDF7CF92
:1049A000DF91CF911F910F910895188219821A8279
:1049B0001B82F6CF2F923F924F925F926F927F921F
:1049C0008F929F92AF92BF92CF92DF92EF92FF921F
:1049D0000F931F93CF93DF93CDB7DEB76C970FB6CE
:1049E000F894DEBF0FBECDBF8C015B015A834983B3
:1049F000FC01EA5BFF4F208131814281538129878D
:104A00003A874B875C87CA01B9010F94C02D6B01AF
:104A10007C01D5012D913D914D915C910F94212EFA
:104A20000F9469352B013C01E981FA8120813181A4
:104A300042815381C701B6010F94212E0F9469352D
:104A40004B015C01C301B2010F94FE35698B7A8B77
:104A50008B8B9C8B683771058105910540F428E7A5
:104A600030E040E050E0298B3A8B4B8B5C8BC501EA
:104A7000B4010F94FE356D877E878F87988B6837DA
:104A800071058105910540F448E750E060E070E071
:104A90004D875E876F87788BF801EE5AFF4F408015
:104AA000518062807380C301B2010F94C22D69836B
:104AB0007A838B839C8369897A898B899C890F94FB
:104AC000C02D6D8B7E8B8F8B988F20E030E0A901FD
:104AD00069817A818B819C810F94BB2D882309F495
:104AE000E1C1A7019601C701B6010F94212E4B0128
:104AF0005C012D893E894F89588DCA01B9010F94F7
:104B0000212E9B01AC01C501B4010F948A344B01E5
:104B10005C0129813A814B815C81CA01B9010F9402
:104B20008B349B01AC01C501B4010F9485350F9402
:104B300069350F94FE356D837E838F839887662752
:104B40007727CB0164197509860997090F94C22D3F
:104B50004B015C016D857E858F8598890F94C02DF2
:104B60002B013C0120E030E0A901C501B4010F9404
:104B7000BB2D882309F49AC1A3019201C301B2019C
:104B80000F94212E698F7A8F8B8F9C8FA7019601AE
:104B9000C701B6010F94212E9B01AC01698D7A8D5E
:104BA0008B8D9C8D0F948A346B017C01A50194013F
:104BB000C501B4010F948B349B01AC01C701B60150
:104BC0000F9485350F942D36D80195968D909D9034
:104BD000AD90BC909897750164012D813E814F8105
:104BE0005885C21AD30AE40AF50A0F94FE35C61A8C
:104BF000D70AE80AF90AF7FE8EC02D893E894F8947
:104C0000588DCA01B9010F94212E6B017C012981B5
:104C10003A814B815C81CA01B9010F948B34698759
:104C20007A878B879C8720E030E0A90169817A81AF
:104C30008B819C810F94BB2D882309F43BC1C50156
:104C4000B4010F94C02D29853A854B855C850F945E
:104C5000212EA70196010F948A346D837E838F8362
:104C60009887A3019201C301B2010F94212E9B01E9
:104C7000AC016D817E818F8198850F948B342B01DF
:104C80003C0120E030E040E850E469817A818B818A
:104C90009C810F94212E9B01AC01C301B2010F94A2
:104CA00085350F9469352B013C0120E030E0A901E6
:104CB0000F94EB3618161CF0412C512C3201C30115
:104CC000B2010F94FE356D837E838F83988786169D
:104CD0009706A806B90620F48D829E82AF82B88618
:104CE0006D817E818F8198850F94C02D29853A85AD
:104CF0004B855C850F94212EA70196010F948B3470
:104D00000F9439370F94FE3569877A878B879C8794
:104D1000C12CD12C760169857A858B859C85298962
:104D20003A894B895C89621B730B840B950B0F943A
:104D3000C02D29813A814B815C810F94853520E01B
:104D400034E244EF59E40F94212E0F94FE354B01C9
:104D50005C0169857A858B859C852D853E854F858F
:104D60005889621B730B840B950B0F94C02D2981FE
:104D70003A814B815C810F94853520E034E244EF29
:104D800059E40F94212E0F94FE352B013C013FE690
:104D900083169104A104B10408F090C0F401EE0F51
:104DA000FF1FEE0FFF1FE85BF04F85919591A591D6
:104DB000B4918983292E3A2EBD8B4FE644165104B7
:104DC0006104710408F083C0F201EE0FFF1FEE0FC3
:104DD000FF1FE85BF04F45915591659174919A01E1
:104DE000CB014D815E816F817885D80199964D9375
:104DF0005D936D937C939C974C0D5D1D6E1D7F1D87
:104E0000F80145A756A767A770ABE65BFF4F498936
:104E10005A896B897C894083518362837383D596D9
:104E20008D929D92AD92BC92D897F80141AE52AE50
:104E300063AE74AEFD9649814083218232825D89E2
:104E400053833496208331838283938369857A8563
:104E50008B859C85D1966D937D938D939C93D497F0
:104E60003D962D853E854F85588920833183428329
:104E700053836C960FB6F894DEBF0FBECDBFDF91A3
:104E8000CF911F910F91FF90EF90DF90CF90BF9047
:104E9000AF909F908F907F906F905F904F903F90DA
:104EA0002F90089560E070E0CB0141CE60E070E0AB
:104EB000CB0188CE60E070E0CB01F3CEC501B40138
:104EC0000E94C61B6983272E382E9D8B76CFC30187
:104ED000B2010E94C61B9B0184CF8091A7129091C2
:104EE000A812891B877019F490E080E008959091D2
:104EF000A412992351F0833030F48FEF890F19F009
:104F00008093A412F1CF1092A4128091A8122CE5E4
:104F1000829FC00111248D5C964FFC01208120FDF1
:104F2000E3CF2091A8122F5F27702093A512309114
:104F3000A8122091A612321304C02091A51220932A
:104F4000A612089590916F0081E091FD02C080E06B
:104F5000089590916F009D7F90936F000895FC01DC
:104F600020813181428153816091770C7091780C5E
:104F70008091790C90917A0C0F94212E0F94F83631
:104F80006093B5127093B6128093B7129093B812D3
:104F90009091A7128091A81298130C94321E0E942F
:104FA000DE230E94A2274091B5125091B612609163
:104FB000B7127091B8124093340550933505609341
:104FC00036057093370581110C94AAC008954F924D
:104FD0005F926F927F928F929F92AF92BF92CF9289
:104FE000DF92EF92FF920F931F93CF93DF93EC0129
:104FF0008B015A01F9012091770C3091780C409186
:10500000790C50917A0C60817181828193810F9427
:10501000212E0F94F8366B017C012091730C309196
:10502000740C4091750C5091760CF5016081718182
:10503000828193810F94212E0F94F8364B015C01ED
:1050400020916F0C3091700C4091710C5091720C4A
:10505000F80160817181828193810F94212E0F94D8
:10506000F8362B013C0120916B0C30916C0C409177
:105070006D0C50916E0C688179818A819B810F94AF
:10508000212E0F94F8366093A9127093AA12809380
:10509000AB129093AC124092AD125092AE1260924D
:1050A000AF127092B0128092B1129092B212A0928E
:1050B000B312B092B412C092B512D092B612E0926E
:1050C000B712F092B8129091A7128091A812981777
:1050D00091F0DF91CF911F910F91FF90EF90DF90B2
:1050E000CF90BF90AF909F908F907F906F905F9088
:1050F0004F900C94321E0E94DE230E94A227409102
:10510000B1125091B2126091B3127091B412009129
:10511000AD121091AE122091AF123091B012C0902A
:10512000A912D090AA12E090AB12F090AC12C092EB
:105130002805D0922905E0922A05F0922B050093CC
:105140002C0510932D0520932E0530932F054093A9
:1051500030055093310560933205709333054091CB
:10516000B5125091B6126091B7127091B812409377
:1051700034055093350560933605709337058823C1
:1051800091F0DF91CF911F910F91FF90EF90DF9001
:10519000CF90BF90AF909F908F907F906F905F90D7
:1051A0004F900C94AAC0DF91CF911F910F91FF9067
:1051B000EF90DF90CF90BF90AF909F908F907F90B7
:1051C0006F905F904F900895CF92DF92EF92FF9291
:1051D000CF93DF93C82F0E94A22794E0C99FE001DC
:1051E0001124FE01E85DFA4FC080D180E280F38097
:1051F00081110E94AAC0CC57DE4EC701B6010F94A0
:10520000C22D288139814A815B810F94212EDF9143
:10521000CF91FF90EF90DF90CF9008953F924F9203
:105220005F926F927F928F929F92AF92BF92CF9236
:10523000DF92EF92FF920F931F93CF93DF93CDB73F
:10524000DEB768970FB6F894DEBF0FBECDBFD82E7D
:105250002A013B01480159013E2C20E030E0A90120
:10526000C501B8010F94BB2D811110C081E08D15CF
:1052700008F0B6C060E070E080E793E420E030E042
:1052800040E752E40F9485354B015C018D8A9E8A7C
:10529000AF8AB88E0D2D10E0F801EB5BF04FE49172
:1052A000BB24B3941E160CF4B12CCC24C39420E080
:1052B00030E0A901C301B2010F94EB3618160CF0CF
:1052C000C12CBC1471F092E0D9120BC0332049F00C
:1052D00081E00F94151E69E170E080E090E00E948B
:1052E000C7C080E00E94E42869837A838B839C8313
:1052F00081E00E94E4286D837E838F83988782E01B
:105300000E94E42869877A878B879C8783E00E94C4
:10531000E4286D877E878F87988B000F111F000F01
:10532000111FE1E0F0E0EC0FFD1F0E0F1F1FF80151
:1053300010821182128213829E01235F3F4FAE01C1
:10534000475F5F4FBE016B5F7F4FCE0101960E94AA
:10535000E727F8014082518262827382198A1A8A91
:105360001B8A1C8A8091310990913209892B91F412
:10537000CE0141967C018E010B5E1F4F9E01235F83
:105380003F4FAE01475F5F4FBE016B5F7F4F40975E
:105390000E94E9F50E94DE23BC1451F092E0D9127C
:1053A00005C0332019F080E00F94151E0E94941F51
:1053B00068960FB6F894DEBF0FBECDBFDF91CF91D8
:1053C0001F910F91FF90EF90DF90CF90BF90AF9023
:1053D0009F908F907F906F905F904F903F90089537
:1053E00060E070E88BE395E449CFCF92DF92EF92D3
:1053F000FF92CF93DF93C82F0E94A22794E0C99F0A
:10540000E0011124FE01E45EFA4FC080D180E28009
:10541000F38081110E94AAC0CC57DE4EC701B601AD
:105420000F94C22D288139814A815B810F94212EEE
:10543000DF91CF91FF90EF90DF90CF9008950E9481
:10544000A2279091A8129093A7129093A6129093DE
:10545000A51294E69093A41220ED33E03093320924
:105460002093310981110E94AAC081E080931B051D
:10547000089580FF04C09091550C90FD8E7F81FFB0
:1054800005C09091550C969590FD8D7F82FF06C0CA
:105490009091550C9695969590FD8B7F08958F92DF
:1054A0009F92AF92BF92CF92DF92EF92FF92CF93F3
:1054B000DF9320914502222309F49EC0EC018091E4
:1054C0008C04C82ED12CF12CE12C80FF2CC08090B4
:1054D000470290904802A0904902B0904A02288169
:1054E00039814A815B81C501B4010F94EB361816EE
:1054F00024F488829982AA82BB8280905302909081
:105500005402A0905502B0905602288139814A81F8
:105510005B81C501B4010F94BB2D87FF04C0888255
:105520009982AA82BB82D701C601B695A7959795A5
:10553000879580FF2CC080904B0290904C02A090E9
:105540004D02B0904E022C813D814E815F81C5019C
:10555000B4010F94EB36181624F48C829D82AE822F
:10556000BF828090570290905802A0905902B0904C
:105570005A022C813D814E815F81C501B4010F9497
:10558000BB2D87FF04C08C829D82AE82BF8282E0E9
:10559000F694E794D794C7948A95D1F7C0FE2CC0AF
:1055A000C0904F02D0905002E0905102F090520211
:1055B000288539854A855B85C701B6010F94EB368E
:1055C000181624F4C886D986EA86FB86C0905B024A
:1055D000D0905C02E0905D02F0905E0228853985F3
:1055E0004A855B85C701B6010F94BB2D87FF04C0B8
:1055F000C886D986EA86FB86DF91CF91FF90EF902F
:10560000DF90CF90BF90AF909F908F9008952F9292
:105610003F924F925F926F927F928F929F92AF9242
:10562000BF92CF92DF92EF92FF920F931F93CF938F
:10563000DF93CDB7DEB7A6970FB6F894DEBF0FBEE7
:10564000CDBF81EA97E00E944F2A8091130C83FD21
:105650007EC020916D0230916E0240916F02509198
:1056600070026091AD077091AE078091AF07909185
:10567000B0070F94BB2D882309F469C0109130093D
:10568000111161C080915F02909160020197209199
:10569000091230910A12281739073CF40E9487D961
:1056A0008FEC9EE00E9497C511E020916D02309131
:1056B0006E0240916F02509170026091AD0770913F
:1056C000AE078091AF079091B0070F948A346B01B9
:1056D0007C0120E030E0A9010F94EB3687FF04C085
:1056E000F7FAF094F7F8F094209171023091720279
:1056F0004091730250917402C701B6010F94212E9C
:1057000020E030E84BE354E40F94EB361816ECF449
:105710000E9487D980EB9EE00E9497C58091AD07DB
:105720009091AE07A091AF07B091B00780936D0242
:1057300090936E02A0936F02B09370028DEA97E08F
:105740000E94AF2704C010E0B0CF1111E7CF2AE0CC
:1057500037ED43E25CE36091410270914202809137
:105760004302909144020F94212E6B017C016091C1
:10577000770270917802072E000C880B990B0F941A
:10578000C22D9B01AC01C701B6010F94212E698B7C
:105790007A8B8B8B9C8B8091560C882309F180909F
:1057A000F9089090FA08A090FB08B090FC08C0900F
:1057B000A907D090AA07E090AB07F090AC0720E0D3
:1057C00030E0A901C501B4010F94BB2D8823D1F1AC
:1057D000A7019601C501B4010F94EB36181694F198
:1057E000C12CD12C76018E010F5E1F4F2DEA37E0C0
:1057F00049EA57E065EA77E081EA97E00F94B3025F
:1058000080E1E1EAF7E0A1E6B2E001900D928A952D
:10581000E1F7A6960FB6F894DEBF0FBECDBFDF91BD
:10582000CF911F910F91FF90EF90DF90CF90BF909D
:10583000AF909F908F907F906F905F904F903F9030
:105840002F9008952091610230916202409163028D
:10585000509164026091A1077091A2078091A30703
:105860009091A4070F948A346D8B7E8B8F8B988FC9
:105870002091650230916602409167025091680262
:105880006091A5077091A6078091A7079091A8073E
:105890000F948A34698F7A8F8B8F9C8F2091690245
:1058A00030916A0240916B0250916C02C701B601BF
:1058B0000F948A346D8F7E8F8F8F98A320916D0205
:1058C00030916E0240916F02509170026091AD076D
:1058D0007091AE078091AF079091B0070F948A3412
:1058E0006B017C0120E030E0A9016D897E898F8900
:1058F000988D0F94BB2D81110CC020E030E0A901E0
:10590000698D7A8D8B8D9C8D0F94BB2D882309F426
:1059100067CF2D893E894F89588DCA01B9010F94EF
:10592000212E4B015C01298D3A8D4B8D5C8DCA0176
:10593000B9010F94212E9B01AC01C501B4010F9454
:105940008B344B015C012D8D3E8D4F8D58A1CA01CA
:10595000B9010F94212E9B01AC01C501B4010F9434
:105960008B344B015C01A7019601C701B6010F946E
:10597000212E9B01AC01C501B4010F948B340F940F
:1059800039374B015C012DEB37E346E855E30F94C3
:10599000BB2D87FF0FC020E030E0A901C701B60191
:1059A0000F94EB364601570187FF04C0B7FAB09455
:1059B000B7F8B0942DEB37E346E855E3C501B401E1
:1059C0000F94BB2D87FD1CCF20E030E040EA51E46E
:1059D000C501B4010F9485350F94FE351B01672B6B
:1059E00019F422242394312CB10190E080E00F942B
:1059F000C02D9B01AC0160E070E080E89FE30F9454
:105A000085352B013C01AC019B01C501B4010F940C
:105A1000212E4B015C01A30192016D897E898F8942
:105A2000988D0F94212E6D8B7E8B8F8B988FA30179
:105A30009201698D7A8D8B8D9C8D0F94212E698FAB
:105A40007A8F8B8F9C8FA30192016D8D7E8D8F8DB0
:105A500098A10F94212E6D8F7E8F8F8F98A3A30115
:105A60009201C701B6010F94212E69A37AA38BA3DB
:105A70009CA380E1E1E6F2E08E010F5F1F4FD801A9
:105A800001900D928A95E1F70E94F2732B013C017F
:105A900028EC420E511C611C711C0DA31EA381E059
:105AA000281A310809F460C00E94F2738B019C012E
:105AB000041915092609370937FD59C02B013C0186
:105AC00028EC420E511C611C711C80E00E9432DDEA
:105AD0002D893E894F89588D69817A818B819C817E
