:100000000C94B81A0C94E91A0C94E91A0C94E91A95
:100010000C94E91A0C94E91A0C94E91A0C94E91A54
:100020000C94E91A0C94E91A0C94E91A0C94E91A44
:100030000C94E91A0C94E91A0C94E91A0C94E91A34
:100040000C94E91A0C9448DB0C94E91A0C94E91A04
:100050000C94E91A0C94E91A0C9406C20C94A6ADFF
:100060000C94E91A0C9465540C945B540C94E91AA2
:100070000C94E91A0C94E91A0C94E91A0C94E91AF4
:100080000C94E91A0C94E91A0C94E91A0C94E91AE4
:100090000C94E91A0C94E91A0C94E91A0C94E91AD4
:1000A0000C94E91A0C94E91A0C94E91A0C94E91AC4
:1000B0000C94E91A0C94E91A0C94E91A0C94E91AB4
:1000C0000C94E91A0C94E91A0C94E91A0C9444352E
:1000D0000C940E350C94E91A0C94E91A0C94E91A54
:1000E0000C94E91A084AD73B3BCE016E84BCBFFD95
:1000F000C12F3D6C74319ABD56833DDA3D00C77FF8
:1001000011BED9E4BB4C3E916BAAAABE0000008090
:100110003F05A84CCDB2D44EB93836A9020C50B91F
:10012000918688083CA6AAAA2ABE000000803F004B
:100130000C946AA70D943D140D945E140D94CF1089
:100140000C94F7540C9413AA0C941DAA0C9456A664
:100150000C947AAC0C94CF350C94A3540C9427AA2D
:100160000C944AAA0C9454AB0C9440AA0D941C0E07
:100170000C9407550D9445260C9468AA0D94980F7D
:100180000D9411110C94E0A90C9448A60D94A30CA5
:100190000C9482350C9403AA0D940D140C946640B3
:1001A0000C946A400D94C4030C94F9A90C9429A6EC
:1001B0000C9434A60C94E1AB0C9408360C941655B0
:1001C0000D9424110C94F5AA0C94F0540D94E90D9F
:1001D0000D94D8050C94E6350C94F5350C94D8A9FB
:1001E0000D94000A0C9425A60D9465100C94B9ACDE
:1001F0000C945EAA0C9469A70D944A150D943314BF
:100200000C94DE350C94FCAB0D949C100C9431A630
:100210000C9421550C94D6350C940BAA0C94D7420F
:100220000C9413A60D94080F0C9403550D9463269B
:100230000D94CE0F0C94EFA90C943AA60C949F4207
:100240000C94E7A60C94C0350C945E420C94B13526
:100250000D94D3110C9444A60D94EE040C948CAC24
:100260000C9472AA0C940F550D94DD130C9460A697
:100270000C94E5A90C9464A60C94D8AA0C9431AA09
:100280000D94380E0C943EA60C9432420C940EA69B
:100290000D9451140C94DA350C94DCAC0C945AA6E1
:1002A0000C94FB540C940B550D94B0100D94251424
:1002B0000D946E070D940A140C9454AA0D94E4182E
:1002C0000D9403060C9429550D940D160C94E154CD
:1002D0000D946C0E0D947F080C9452A60C94EA3584
:1002E0000C9417400C94FF540C949DAB0C94E23585
:1002F0000C94D2540C944CA60D9479100D943C108F
:100300000C9400360D9404140D943A150C942DA6FB
:100310000C94EE354E414E494E495459494E46CD06
:10032000CCCC3D0AD7233C17B7D13877CC2B3295AC
:1003300095E6241FB14F0A000020410000C842008A
:10034000401C4620BCBE4CCA1B0E5AAEC59D740054
:10035000407A10F35A00A0724E18090010A5D4E894
:100360000000E87648170000E40B54020000CA9A27
:100370003B000000E1F50500008096980000004079
:10038000420F000000A086010000001027000000BE
:1003900000E803000000006400000000000A000004
:1003A0000000000100000000002C76D888DC674FB8
:1003B0000823DFC1DFAE59E1B1B796E5E3E453C6E8
:1003C0003AE651997696E8E6C28426EB898C9B62E0
:1003D000ED407C6FFCEFBC9C9F40F2BAA56FA5F48A
:1003E00090055A2AF75C936B6CF9676DC11BFCE0B2
:1003F000E40D47FEF520E6B500D0ED902E03009405
:100400003577050080841E080000204E0A00000099
:10041000C80C333333330F986E12831141EF8D21A3
:1004200014893BE65516CFFEE6DB18D1844B381B0A
:10043000F77C1D901DA4BBE424203284725E2281CF
:1004400000C9F124ECA1E53D27434F4D4D554E49E0
:10045000434154494F4E0044525952554E00455263
:10046000524F525300494E464F004543484F0045B6
:1004700072726F722077726974696E6720746F2070
:10048000454550524F4D210A0053544F505045445A
:100490002E20005072696E7465722073746F7070D4
:1004A00065642064756520746F206572726F727365
:1004B0002E2046697820746865206572726F7220FC
:1004C000616E6420757365204D39393920746F2051
:1004D000726573746172742E202854656D70657234
:1004E00061747572652069732072657365742E205E
:1004F0005365742069742061667465722072657337
:1005000074617274696E67290A004E6F20436865D2
:10051000636B73756D2077697468206C696E6520F4
:100520006E756D6265722C204C617374204C696E1F
:10053000653A20004E6F20436865636B73756D20CC
:1005400077697468206C696E65206E756D6265727E
:100550002C204C617374204C696E653A20006368EE
:1005600065636B73756D206D69736D617463682C61
:10057000204C617374204C696E653A20004C696EA2
:1005800065204E756D626572206973206E6F7420F0
:100590004C617374204C696E65204E756D62657296
:1005A0002B312C204C617374204C696E653A20000D
:1005B0004D3131300053657269616C207374617420
:1005C0007573206D69736D617463680A0077616982
:1005D000740A0053442072656164206572726F7200
:1005E0000A002121204B494C4C20636175736564DE
:1005F00020627920746F6F206D75636820696E6169
:1006000063746976652074696D65202D2063757249
:1006100072656E7420636F6D6D616E643A20004880
:100620006F74656E642049646C652054696D656FF4
:10063000757400486F74656E642049646C6520545D
:10064000696D656F75740A003D3D6F6E46696C613A
:100650006D656E7452756E6F75743D3D0070617599
:100660007365004D363030002066696C616D656ED3
:10067000745F72756E6F7574200066696C616D656C
:100680006E745F72756E6F757420540046696C618C
:100690006D656E7452756E6F75742054002A2A2A27
:1006A000496E6974696E67206361726420697320A2
:1006B0004F4B2A2A2A004D6564696120496E736593
:1006C00072746564004D656469612052656D6F7672
:1006D0006564004D313030305300627573793A20D3
:1006E00070617573656420666F7220696E707574D1
:1006F0000A00627573793A207061757365642066CB
:100700006F7220757365720A00627573793A207092
:10071000726F63657373696E670A002A2A2A6B69B0
:100720006C6C2A2A2A00706F7765726F6666004BC0
:10073000494C4C45442E20005072696E74657220FD
:1007400068616C7465642E206B696C6C2829206369
:10075000616C6C6564210A006563686F3A004572DC
:10076000726F723A0042696C696E656172204C6505
:1007700076656C696E6720477269643A0A002F2FAC
:10078000616374696F6E3A0070726F6D70745F00B0
:10079000656E640053656E64204D31303820746F8F
:1007A00020726573756D650A00496E7365727420F9
:1007B00066696C616D656E7420616E642073656E30
:1007C00064204D3130380A005265686561742066D6
:1007D000696E69736865642E00526568656174208E
:1007E000446F6E6500526568656174696E672E2E90
:1007F0002E005265686561740048656174657220F9
:1008000054696D656F75740053656E64204D3130A9
:100810003820746F2068656174206E6F7A7A6C6519
:100820000A004E6F7A7A6C65205061726B656400C5
:10083000486F74656E6420746F6F20636F6C640A18
:10084000007061757365640050617573650044697B
:100850007361626C6552756E6F7574005075726766
:10086000654D6F7265005061757365640073686FE4
:100870007700627574746F6E00626567696E004C14
:100880006F61642046696C616D656E74004C6F61C8
:10089000642046696C616D656E74205400496E7306
:1008A0006572742066696C616D656E7420616E643A
:1008B0002073656E64204D3130380A00726573759F
:1008C0006D656400526573756D696E670057616987
:1008D00074696E6720666F72206865617475702E2A
:1008E0000A004C656176696E6720473236003F53D7
:1008F000706563696669656420582C5920636F6F61
:100900007264696E617465206F7574206F66206211
:100910006F756E64732E0A003F28522965706561F9
:10092000742076616C7565206E6F7420706C6175D3
:100930007369626C653B206D75737420626520611C
:1009400074206C6561737420312E0A003F2852298F
:100950006570656174206D757374206265207370B5
:1009600065636966696564207768656E206E6F747B
:10097000207573696E6720616E204C43442E0A0017
:100980003F537065636966696564206E6F7A7A6C3F
:10099000652074656D7065726174757265206E6F27
:1009A0007420706C61757369626C652E0A003F5328
:1009B00070656369666965642066696C616D656E02
:1009C000742073697A65206E6F7420706C61757322
:1009D00069626C652E0A003F5370656369666965DC
:1009E00064207072696D65206C656E677468206E36
:1009F0006F7420706C61757369626C652E0A003FBC
:100A00005072696D65206C656E677468206D7573D2
:100A10007420626520737065636966696564207718
:100A200068656E206E6F74207573696E6720616EE5
:100A3000204C43442E0A003F537065636966696524
:100A400064206E6F7A7A6C652073697A65206E6FA8
:100A50007420706C61757369626C652E0A003F5278
:100A6000657472616374696F6E204D756C74697022
:100A70006C696572206D7573742062652073706592
:100A80006369666965642E0A003F53706563696631
:100A90006965642052657472616374696F6E204D7C
:100AA000756C7469706C696572206E6F7420706CFF
:100AB00061757369626C652E0A003F5370656369E6
:100AC00066696564206C617965722068656967682C
:100AD00074206E6F7420706C61757369626C652E22
:100AE0000A0043292E0A003F5370656369666965F1
:100AF00064206265642074656D70657261747572DE
:100B000065206E6F7420706C61757369626C65200E
:100B10002834302D00473236207374617274696E48
:100B2000672E2E2E0A004F46460A00466164652055
:100B30004865696768742000426564204C65766585
:100B40006C696E6720004661696C656420746F2073
:100B5000656E61626C6520426564204C6576656CEB
:100B6000696E670A00496E76616C6964206D657311
:100B7000682E0A0050726F62696E6720506F696E4E
:100B8000740025532025692F2569002E0A002F00A7
:100B900050726F62696E67206D65736820706F694F
:100BA0006E742000202844525952554E2900473275
:100BB00039204175746F20426564204C6576656C00
:100BC000696E67003F20284C2C522C462C4229206D
:100BD0006F7574206F6620626F756E64732E0A00E5
:100BE0003F2856296572626F7365206C6576656C67
:100BF00020696D706C61757369626C652028302D99
:100C000034292E0A00426164205A2076616C756591
:100C10000A004E6F2062696C696E656172206772AE
:100C200069640A0041636375726163792044656396
:100C300072656173696E67210044656372656173F3
:100C4000696E6720416363757261637920446574DE
:100C500065637465642E0A00473238004732385A9B
:100C60000041636375726163793A2000206F6620EA
:100C70000044696420004733342061626F727465F8
:100C8000642E0A0041636375726163792041636871
:100C90006965766564005461726765742061636399
:100CA00075726163792061636869657665642E0A8F
:100CB000004469666673205A312D5A323D2573000F
:100CC0000A444946464552454E4345205A312D5A1D
:100CD000323D0050726F62696E67204661696C65D3
:100CE000640050726F62696E67206661696C65644A
:100CF0000A0047333420497465726174696F6E3A33
:100D0000202569000A47333420497465726174698B
:100D10006F6E3A20003F2841296D706C69666963E7
:100D20006174696F6E206F7574206F6620626F75D5
:100D30006E64732028302E352D322E30292E0A0075
:100D40003F2854296172676574206163637572611D
:100D50006379206F7574206F6620626F756E64739F
:100D60002028302E30312D312E30292E0A003F28F8
:100D700049297465726174696F6E206F7574206F94
:100D80006620626F756E64732028312D3330292EF2
:100D90000A003F285929206F7574206F6620626F02
:100DA000756E64732E0A003F285829206F757420D1
:100DB0006F6620626F756E64732E0A003F28532998
:100DC0002050726F62652D706F736974696F6E2049
:100DD000696E64657820696E76616C69642E0A00BC
:100DE0003F285329206973207265717569726564A3
:100DF0002E0A004D34323220530044657669617406
:100E0000696F6E0025533A2025730046696E697339
:100E1000686564210A003A207A3A2000206F662033
:100E200000476F696E6720746F3A20580043570A75
:100E300000206469723A0020616E676C653A005365
:100E400074617274207261646975733A004D34384C
:100E500020506F696E740025533A2025642F256455
:100E600000506F736974696F6E696E67207468658E
:100E70002070726F62652E2E2E0A003F4C656773DC
:100E8000206F66206D6F76656D656E7420696D707C
:100E90006C61757369626C652028302D3135292E9F
:100EA0000A003F2028582C5929206F7574206F663E
:100EB00020626F756E64732E0A0050726F62652037
:100EC0006F7574206F6620626F756E6473003F5398
:100ED000616D706C652073697A65206E6F74207027
:100EE0006C61757369626C652028342D3530292E4C
:100EF0000A004D3438205A2D50726F6265205265B9
:100F0000706561746162696C697479205465737489
:100F10000A003F2856296572626F7365206C6576FA
:100F2000656C20696D706C61757369626C652028F1
:100F3000302D34292E0A005374616E64617264206E
:100F4000446576696174696F6E3A20002052616E63
:100F500067653A2000204D61783A2000204D696E87
:100F60003A2000205369676D613A20004D65616E3B
:100F70003A20005741524E494E4721204C6F77206E
:100F80005A204A65726B206D6179206C656164201E
:100F9000746F20756E77616E74656420706175730F
:100FA00065732E0A004F4646004F4E0020204D61CB
:100FB000783A2000200020204D696E3A2000536FBF
:100FC000667420656E6473746F70733A20003D3DE3
:100FD0004F6E506F7765724C6F7373526573756D9A
:100FE000653D3D004D32342053256C642054256C02
:100FF00064004739322E3920452573004731204699
:101000002564004739322E39205A25730047312094
:101010005A3020463230300047312058257320594D
:101020002573204633303030004D34323020532584
:1010300069205A2573004D313036205025692053E0
:101040002569004D32303020442573004732385234
:10105000305859004739322E39204530205A300A4D
:1010600047315A2573004D31303920532569004DE1
:1010700031393020532569004D343230205330202F
:101080005A300020496E76616C696420657874720C
:1010900075646572200047322F47332062616420F7
:1010A000706172616D65746572730A00536C656579
:1010B000702E2E2E005A2050726F62652050617380
:1010C00074204265640A005A2050726F6265205095
:1010D00061737420426564004732384C30004D31F2
:1010E00031372050726F6265206661696C65642ECD
:1010F0000A4732380A0070726F62655F72657769FD
:10110000706500473239205265747279696E6700E4
:1011100050726F62696E67204661696C6564004D4C
:1011200031313720426564206C6576656C696E6785
:10113000206661696C65642E0A4730205A31300A96
:101140004D3330302050323520533838300A4D334B
:101150003030205035302053300A4D33303020505D
:10116000323520533838300A4D3330302050353046
:101170002053300A4D333030205032352053383828
:10118000300A4D333030205035302053300A473448
:101190002053310070726F62655F6661696C6564CF
:1011A000004D31313720426564206C6576656C698D
:1011B0006E6720646F6E652E00205A3A2000205919
:1011C0003A200042656420583A20004D657368203B
:1011D000706F696E74206F7574206F662072616E17
:1011E00067650A004D302053746F70004D312053F5
:1011F000746F7000436F6E74696E756500436C693F
:10120000636B20746F20526573756D652E2E2E00F2
:101210004E6F204D6F76652E00456E642066696CBA
:1012200065206C6973740A00426567696E2066699F
:101230006C65206C6973740A004E6F206D6564697B
:10124000610A00526573756D696E6720534400280A
:101250006E6F2066696C65290043757272656E74E5
:101260002066696C653A20005072696E742074695A
:101270006D653A20000A53746174733A2046696CB4
:10128000616D656E7420757365643A20002C204C86
:101290006F6E67657374206A6F623A2000546F74D2
:1012A000616C2074696D653A200053746174733AFF
:1012B00020002C204661696C65643A20002C204691
:1012C000696E69736865643A20005072696E747360
:1012D0003A200053746174733A2000436F6F6C6955
:1012E0006E672E2E2E0048656174696E672E2E2E55
:1012F0000045202553006F6B006F6666006A046529
:10130000045E045704490444454255473A004D31B0
:10131000313320530042656420436F6F6C696E6700
:101320002E2E2E004265642048656174696E672E1A
:101330002E2E0044445820453520506C7573204FA4
:1013400046462E002F2F00205200416363656C65D6
:10135000726174696F6E3A2050004D3230362058F9
:101360000046523A0020466C6F773A200020643ADB
:101370000020693A0020703A00496E76616C696419
:101380002065787472756465720A0020643A0020E2
:10139000693A0020703A0064697300656E00432961
:1013A0000A0061626C656420286D696E2074656D49
:1013B000702000436F6C6420657874727564657387
:1013C000206172652000504944204175746F747526
:1013D0006E6500504944204175746F74756E6520C8
:1013E0006661696C6564212042616420686561748E
:1013F00065722069640A0046696C616D656E7420CF
:1014000072756E6F75742064697374616E636520A4
:10141000286D6D293A200046696C616D656E7420F7
:1014200072756E6F757420004D34323120696E63B1
:101430006F727265637420706172616D657465723C
:101440002075736167650A004D65736820706F6968
:101450006E74206F7574206F662072616E67650A06
:10146000004F666673657473204170706C696564C3
:10147000004572723A20546F6F20666172210054E9
:101480006F6F206661722066726F6D20726566658F
:1014900072656E636520706F696E740A0045455011
:1014A000524F4D204F4B0A002E0A002028302D317C
:1014B0003029002076616C7565206F7574206F6629
:1014C0002072616E676500416476616E6365204BD2
:1014D0003D00506F7765722D6C6F7373207265637A
:1014E0006F7665727920004D383400446F6E652048
:1014F0007072696E74696E672066696C650A004D6A
:101500003737004D3331004361703A004D45415447
:101510005041434B00434F4F4C45525F54454D5053
:1015200045524154555245004348414D4245525F52
:1015300054454D504552415455524500424142593F
:101540005354455050494E470041524353004D4F6C
:1015500054494F4E5F4D4F44455300544845524DFA
:10156000414C5F50524F54454354494F4E004C4FED
:101570004E475F46494C454E414D45004155544FFD
:101580005245504F52545F53445F53544154555346
:101590000053445F57524954450052455045415409
:1015A000005344434152440050524F4D50545F53F6
:1015B0005550504F525400454D455247454E4359A2
:1015C0005F50415253455200434153455F4C494798
:1015D00048545F4252494748544E45535300544F74
:1015E00047474C455F4C494748545300534F465476
:1015F000574152455F504F574552004255494C4460
:101600005F50455243454E54004C4556454C494E5B
:10161000475F44415441005A5F50524F4245005287
:10162000554E4F5554004155544F4C4556454C006E
:101630005052494E545F4A4F420050524F47524514
:101640005353004155544F5245504F52545F5445E7
:101650004D5000564F4C554D455452494300454559
:1016600050524F4D0042494E4152595F46494C45F8
:101670005F5452414E534645520053455249414CE6
:101680005F584F4E5F584F4646004649524D5741AE
:1016900052455F4E414D453A4D61726C696E203244
:1016A0002E302E375F4457372E3320426F6E6474CE
:1016B00065636820453550454D44414220284170BE
:1016C0007220323920323032312031323A32383AD7
:1016D00033372920534F555243455F434F44455FAD
:1016E00055524C3A68747470733A2F2F6769746856
:1016F00075622E636F6D2F496E73616E69747941E7
:1017000075746F6D6174696F6E2F4D61726C696E67
:101710002F747265652F437265616C6974794477C3
:10172000696E5F322E302050524F544F434F4C5F02
:1017300056455253494F4E3A312E30204D41434881
:10174000494E455F545950453A4444582045352048
:10175000506C75732045585452554445525F434F61
:10176000554E543A3120555549443A6365646532C3
:101770006132662D343161322D343734382D39627F
:1017800031322D6335356336326633363766660A55
:101790000050726F6265204F6666736574205A0050
:1017A00050726F6265204F6666736574205A002917
:1017B0000A0020746F20003F5A206F7574206F66F6
:1017C0002072616E6765202800290A0020746F204E
:1017D000003F59206F7574206F662072616E6765D7
:1017E00020282D00290A0020746F20003F58206F08
:1017F0007574206F662072616E676520282D005019
:10180000726F6265204F666673657420580043618D
:101810006E6E6F74206F70656E207375626469728E
:1018200020002569730025696D20256973002569ED
:10183000682025696D202569730025696420256964
:10184000682025696D20256973002569792025693F
:1018500064202569682025696D20256973003D3D58
:101860004477696E20496E697420436F6D706C65B2
:1018700074653D3D002A2A2A4E6F7A7A6C6554655C
:101880006D705374617475735B325D203D003D3D36
:1018900048656174696E6720446F6E6520436861B6
:1018A0006E67652046696C616D656E743D3D002014
:1018B00020737461727470726F6772657373200045
:1018C0003D3D7761697477617920353D3D003D3D4F
:1018D0007761697477617920343D3D003D3D7761E2
:1018E000697477617920333D3D003D3D77616974CE
:1018F00077617920313D3D003D3D6F6E5072696EDC
:101900007454696D657253746F707065643D3D0009
:101910003D3D6F6E466163746F7279526573657495
:101920003D3D00270A0A0000272027002027002D20
:10193000006E6F74696669636174696F6E2000631D
:10194000616E63656C005072696E742041626F72E3
:10195000746564004469736D69737300554920416F
:10196000626F7274656400726573756D65004D32E7
:1019700034002A2A2A43506C617920546F6E652AFC
:101980002A2A003D3D6F6E5072696E7454696D6510
:10199000725061757365643D3D00486F6D696E6797
:1019A000204661696C6564006F70656E0054524931
:1019B000474745524544003A200066696C616D65B1
:1019C0006E74007A5F6D696E00795F6D6178007882
:1019D0005F6D6178005265706F7274696E67206523
:1019E0006E6473746F70207374617475730A002071
:1019F000746F6F206C6F6E67206578747275736991
:101A00006F6E2070726576656E7465640A0020637F
:101A10006F6C6420657874727573696F6E20707274
:101A20006576656E7465640A00486F6D6520257380
:101A300025732573204669727374005761726E694D
:101A40006E673A20486F6D696E672042756D702031
:101A500044697669736F72203C20310A00020204E7
:101A60000000B4430000B443000000000000B44391
:101A70000000B4430000C8430000004100000041E2
:101A80000000004000000001000000010000800094
:101A9000555555000000400033333300AAAA2A00F0
:101AA0004992240000002000C7711C009999190078
:101AB000D1451700555515003BB1130024491200BC
:101AC00011111100000010000F0F0F00E3380E007D
:101AD00043790D00CCCC0C00C3300C00E8A20B0005
:101AE00064210B00AAAA0A00703D0A009DD80900D3
:101AF000427B090092240900DCD308008888080092
:101B00001042080000000800F0C1070087870700A6
:101B100075500700711C07003EEB0600A1BC0600D3
:101B20006990060066660600703E060061180600B1
:101B300017F4050074D105005BB00500B2900500F4
:101B4000627205005555050078390500B81E05007C
:101B5000050505004EEC040087D40400A1BD040077
:101B600090A7040049920400C17D0400EE690400BE
:101B7000C7560400444404005C32040008210400F9
:101B800041100400000004003FF00300F8E00300EF
:101B900026D20300C3C30300CCB503003AA8030058
:101BA0000A9B0300388E0300C08103009F75030069
:101BB000D0690300505E03001D5303003448030046
:101BC000913D03003333030016290300381F03003F
:101BD00097150300300C0300030303000BFA020007
:101BE00049F10200BAE802005CE002002DD80200D0
:101BF0002DD0020059C80200B0C0020031B9020065
:101C0000DAB10200AAAA0200A0A30200BC9C020052
:101C1000FA9502005C8F0200DF88020082820200D7
:101C2000457C02002776020027700200436A02000A
:101C30007C640200D05E02003F590200C8530200DB
:101C4000FFFDFCFAF8F6F4F2F0EEECEAE9E7E5E382
:101C5000E1E0DEDCDAD9D7D5D4D2D0CFCDCBCAC83B
:101C6000C7C5C3C2C0BFBDBCBAB9B7B6B4B3B2B0C2
:101C7000AFADACAAA9A8A6A5A4A2A1A09E9D9C9A1E
:101C800099989795949392908F8E8D8B8A89888757
:101C90008684838281807F7E7D7B7A797877767572
:101CA00074737271706F6E6D6C6B6A69686766656C
:101CB00064636261605F5E5D5C5B5A595858575659
:101CC000555453525150504F4E4D4C4B4A4A49482F
:101CD000474646454443424241403F3E3E3D3C3BF1
:101CE0003B3A3938383736353534333232313030A3
:101CF0002F2E2E2D2C2B2B2A292928272726252548
:101D000024232322212120201F1E1E1D1C1C1B1BDF
:101D10001A1919181817161615151413131212116B
:101D200011100F0F0E0E0D0D0C0C0B0A0A090908ED
:101D30000807070606050504040303020201000064
:101D40003D3D6F6E5072696E7454696D6572537467
:101D500061727465643D3D000000B4430000B4430B
:101D60000000C84300000000000000000000000068
:101D70003D3D6F6E53746F726553657474696E6721
:101D8000733D3D003D3D6F6E436F6E6669677572D2
:101D90006174696F6E53746F72655772697474659C
:101DA0006E3D3D0053657474696E67732053746FA4
:101DB000726564000A20696E6974207A70726F62BD
:101DC000655F7A6F6666736574203D20003D3D6FE8
:101DD0006E436F6E66696775726174696F6E537476
:101DE0006F7265526561643D3D00454550524F4DEF
:101DF00020496E697469616C697A65640A003B20E8
:101E0000003A0A0020204D363033200020440020C4
:101E1000204D34313220530046696C616D656E741B
:101E20002072756E6F75742073656E736F723A00F1
:101E30002055004C0046696C616D656E74206C6FB6
:101E400061642F756E6C6F6164206C656E67746879
:101E5000733A0020204D393030204B004C696E65BC
:101E6000617220416476616E63653A0020204D38CE
:101E700035312058005A2D50726F6265204F6666CA
:101E80007365740020204D343133205300506F7738
:101E900065722D4C6F7373205265636F766572792E
:101EA0003A0020440020490020204D333034205097
:101EB0000020440020490020204D333031205000C4
:101EC0005049442073657474696E67733A00204A00
:101ED000002020473239205720490020204D34323D
:101EE000302053004175746F20426564204C657644
:101EF000656C696E673A0020204D323036205800FC
:101F0000486F6D65206F66667365743A00205800EF
:101F100020530020204D323035204200416476614C
:101F20006E6365643A20423C6D696E5F7365676DF0
:101F3000656E745F74696D655F75733E20533C6DAB
:101F4000696E5F66656564726174653E20543C6DC0
:101F5000696E5F74726176656C5F666565647261F7
:101F600074653E20583C6D61785F785F6A65726B7E
:101F70003E20593C6D61785F795F6A65726B3E20E7
:101F80005A3C6D61785F7A5F6A65726B3E20453CB2
:101F90006D61785F655F6A65726B3E00205400205A
:101FA000520020204D323034205000416363656C74
:101FB00065726174696F6E2028756E6974732F7312
:101FC00032293A20503C7072696E745F61636365B8
:101FD0006C3E20523C726574726163745F6163632E
:101FE000656C3E20543C74726176656C5F6163631E
:101FF000656C3E0020204D3230312058004D617814
:10200000696D756D20416363656C65726174696F9C
:102010006E2028756E6974732F7332293A00202060
:102020004D3230332058004D6178696D756D2066F2
:1020300065656472617465732028756E6974732FA9
:1020400073293A0053746570732070657220756E41
:1020500069743A0020440020204D32303020530073
:102060002044697361626C65640A0046696C616D45
:10207000656E742073657474696E67733A00202806
:102080006D6D29002020473231202020203B205533
:102090006E69747320696E206D6D003D3D6F6E4CEE
:1020A0006F616453657474696E67733D3D000080B1
:1020B0003B4400803B440000204100009642000069
:1020C000A0420000A042000048440080CF43D00757
:1020D0000000D0070000640000004B00000024F462
:1020E000D43050C38E20C2A24017828B7011127A56
:1020F000910D816CD90AA861E108C7586607615142
:1021000043061E4B5D05C145A7041A411104093D54
:102110009803713931034036DB0265339102D430C4
:102120005402802E1D02632CEE01752AC501B028D1
:10213000A001102781018F2564012B244B01E0228F
:102140003401AC211F018D200D01801FFC00841E75
:10215000ED00971DDF00B81CD200E61BC600201B57
:10216000BC00641AB200B219A8000A19A0006A18CB
:102170009900D117910040178B00B51684003116D5
:102180007E00B31579003A157300C7146F00581418
:102190006A00EE1366008813630025135E00C71201
:1021A0005B006C12570015125400C11151007011E0
:1021B0004F0021114B00D61049008D1047004610EA
:1021C000440002104200C00F4000800F3E00420F4A
:1021D0003C00060F3B00CB0E3800930E37005C0E20
:1021E0003500270E3400F30D3200C10D3100900D83
:1021F0003000600D2E00320D2D00050D2C00D90C85
:102200002B00AE0C2900850C29005C0C2700350C36
:1022100027000E0C2600E80B2400C40B2400A00BA2
:1022200023007D0B23005A0B2100390B2100180BD2
:102230002000F80A1F00D90A1E00BB0A1E009D0AD2
:102240001D00800A1D00630A1C00470A1B002C0A9F
:102250001B00110A1A00F7091A00DD091900C40948
:102260001900AB091900920917007B0918006309CE
:1022700017004C09160036091600200916000A0935
:102280001500F5081500E0081400CC081400B80883
:102290001400A4081400900813007D0812006B08B5
:1022A00013005808120046081200340811002308D1
:1022B00011001208110001081100F0071000E007DA
:1022C0001000D0071000C0071000B0070F00A107D2
:1022D000100091070E0083070F0074070F006507B9
:1022E0000E0057070E0049070E003B070D002E0792
:1022F0000E0020070D0013070D0006070D00F9065C
:102300000C00ED060D00E0060C00D4060C00C8061B
:102310000C00BC060C00B0060C00A4060B009906CD
:102320000C008D060B0082060B0077060B006C0676
:102330000B0061060A0057060B004C060A00420615
:102340000A0038060A002E060A0024060A001A06A9
:102350000A001006090007060A00FD050900F40539
:102360000900EB050900E2050900D9050900D005BF
:102370000900C7050900BE050900B5050800AD053F
:102380000800A50509009C050800940508008C05B7
:102390000800840508007C050800740508006C0529
:1023A0000700650508005D050700560508004E0595
:1023B00007004705070040050800380507003105FC
:1023C00007002A050700230507001C05060016055F
:1023D00007000F0507000805060002050700FB04BB
:1023E0000600F5040700EE040600E8040600E20417
:1023F0000700DB040600D5040600CF040600C9046C
:102400000600C3040600BD040600B7040600B104BC
:102410000500AC040600A6040600A00405009B0409
:10242000060095040500900406008A040500850452
:102430000500800406007A04050075040500700498
:1024400005006B04050066040500610405005C04DA
:10245000050057040500520405004D04050048041A
:102460000500430405003E0404003A040500350459
:102470000500300404002C04050027040400230494
:1024800005001E0404001A040400160405001104CB
:1024900004000D0404000904050004040400000401
:1024A0000400FC030400F8030400F4030400F00338
:1024B0000400EC030400E8030400E4030400E00368
:1024C0000400DC030400D8030400D4030400D00398
:1024D0000400CC030400C8030300C503030024F474
:1024E00004D9201BC40C5C0E9804C4095F02650764
:1024F0007101F405F900FB04B30048048700C1032F
:1025000069005803550003034500BE023A008402E7
:10251000310053022A002902250004022000E401B0
:102520001C00C8011900AF011700980114008401B4
:102530001300710110006101100051010E004301F0
:102540000D0036010B002B010B0020010B001501C3
:1025500009000C01090003010800FB000800F3005A
:102560000800EB000700E4000600DE000600D800CB
:102570000600D2000600CC000500C7000500C2001E
:102580000500BD000400B9000400B5000400B1005E
:102590000400AD000400A9000400A5000300A2008F
:1025A00003009F0004009B000300980003009500B7
:1025B000020093000300900003008D0002008B00D6
:1025C00003008800020086000200840003008100EE
:1025D00002007F0002007D0002007B000200790003
:1025E0000200770001007600020074000200720011
:1025F0000100710002006F0002006D0001006C001C
:1026000002006A0001006900020067000100660024
:102610000100650001006400020062000100610029
:102620000100600001005F0002005D0001005C002D
:1026300001005B0001005A00010059000100580030
:102640000100570001005600010055000100540030
:10265000010053000000530001005200010051002E
:102660000100500001004F0001004E0000004E002C
:1026700001004D0001004C0001004B0000004B0028
:1026800001004A0001004900010048000000480024
:10269000010047000100460000004600010045001F
:1026A0000000450001004400010043000000430019
:1026B0000100420000004200010041000000410012
:1026C0000100400001003F0000003F0001003E000B
:1026D00000003E0001003D0000003D0001003C0004
:1026E00000003C0000003C0001003B0000003B00FB
:1026F00001003A0000003A000100390000003900F2
:1027000001003800000038000000380001003700E8
:1027100000003700010036000000360000003600DF
:1027200001003500000035000000350001003400D4
:1027300000003400000034000100330000003300CA
:1027400000003300010032000000320000003200BF
:1027500001003100000031000000310001003000B4
:10276000000030000000300001002F0000002F00AA
:1027700000002F0000002F0001002E0000002E009E
:1027800000002E0001002D0000002D0000002D0093
:1027900000002D0001002C0000002C0000002C0087
:1027A00000002C0001002B0000002B0000002B007B
:1027B00000002B0001002A0000002A0000002A006F
:1027C00000002A0001002900000029000000290063
:1027D0000000290000002900010028000000280056
:1027E0000000280000002800000028000100270049
:1027F000000027000000270000002700000027003D
:10280000010026000000260000002600000026002F
:102810000000260001002500000025000000250022
:102820000000250000002500000025000100240014
:102830000000240000002400000024000000240008
:1028400001002300000023000000230000002300FB
:1028500000002300000023000000230001002200EC
:1028600000002200000022000000220000002200E0
:1028700000002200010021000000210000002100D2
:1028800000002100000021000000210000002100C4
:1028900001002000000020000000200000002000B7
:1028A00000002000000020000000200000002000A8
:1028B00001001F0000001F0000001F0000001F009B
:1028C00000001F0000001F0000001F0001001E008C
:1028D00000001E0000001E0000001E000000232C4F
:1028E0000000B8220000561800003A0F0000B80897
:1028F0000000B1040000710200003E01000020430E
:102900006F756E7420583A0023646566696E6520A1
:1029100044454641554C545F0000626564004B6479
:1029200020004B6920004B70200050494420417525
:10293000746F74756E652066696E6973686564216D
:102940002050757420746865206C617374204B701E
:102950002C204B6920616E64204B6420636F6E7382
:1029600074616E74732066726F6D2062656C6F7730
:1029700020696E746F20436F6E666967757261744B
:10298000696F6E2E680A00504944204175746F7457
:10299000756E65206661696C6564212074696D657A
:1029A0006F75740A00504944204175746F74756ED8
:1029B00065206661696C6564212054656D7065727F
:1029C000617475726520746F6F20686967680A00AA
:1029D000204B643A2000204B693A2000204B703A8B
:1029E000200020436C617373696320504944200ABE
:1029F00000204E6F206F76657273686F6F740A00E7
:102A00002054753A2000204B753A2000206D6178E3
:102A10003A2000206D696E3A200020643A200020A0
:102A2000626961733A2000504944204175746F74A3
:102A3000756E652073746172740A005049442041B8
:102A400075746F74756E65206661696C65642120AC
:102A500054656D706572617475726520746F6F2056
:102A6000686967680A004265640045310062656410
:102A7000002C2073797374656D2073746F707065AA
:102A80006421204865617465725F49443A200048BA
:102A9000656174696E67204661696C6564004865AC
:102AA0006174696E67206661696C6564004D3131DF
:102AB000322053687574646F776E00544845524DE8
:102AC000414C2052554E4157415900546865726D32
:102AD000616C2052756E61776179004572723A209F
:102AE0004D415854454D50004D415854454D50208E
:102AF000747269676765726564004572723A204D49
:102B0000494E54454D50004D494E54454D5020744A
:102B1000726967676572656400202F002042403A41
:102B20000020403A0020573A0020573A00496E767C
:102B3000616C69642065787472756465720A007CE2
:102B40003C3E5E2B3D3F2F5B5D3B2C2A225C0043CD
:102B5000616E6E6F74206F70656E2073756264694C
:102B6000722000534420496E6974204661696C00EC
:102B700053442063617264206F6B0A006F70656E4E
:102B8000526F6F74206661696C65640A00766F6CC1
:102B9000756D652E696E6974206661696C65640A7D
:102BA000004E6F20534420636172640A000A4D3264
:102BB00034004D3233202573002E0A006F70656E8D
:102BC000206661696C65642C2046696C653A20005A
:102BD00046696C652073656C65637465640A0020E2
:102BE00053697A653A200046696C65206F70656E9E
:102BF00065643A2000454E4420535542524F555487
:102C0000494E450A002220706F73002220706172C5
:102C1000656E743A2200535542524F5554494E4501
:102C20002043414C4C207461726765743A22005312
:102C3000756263616C6C204F766572666C6F7700AD
:102C40004578636565646564206D617820535542FD
:102C5000524F5554494E452064657074683A002EB1
:102C60000A0044656C6574696F6E206661696C6505
:102C7000642C2046696C653A200046696C652064C6
:102C8000656C657465643A005344207072696E74B3
:102C9000696E67206279746520004E6F742053441A
:102CA000207072696E74696E670A00577269746980
:102CB0006E6720746F2066696C653A2000667265E5
:102CC000736800646F696E67002066696C653A20FE
:102CD000004E6F7720002F6175746F25632E67009B
:102CE0002020506C616E6E65724275666665724238
:102CF000797465733A20002046726565204D656DD4
:102D00006F72793A2000436F6D70696C65643A2088
:102D100041707220323920323032310A00204C6149
:102D2000737420557064617465643A2032303231B6
:102D30002D30342D3138207C20417574686F723A03
:102D400020426F6E6474656368202F20496E736142
:102D50006E6974794175746F6D6174696F6E0A0084
:102D6000322E302E375F4457372E330A004D6172B2
:102D70006C696E0020536F667477617265205265CE
:102D80007365740A00205761746368646F6720522A
:102D9000657365740A002042726F776E206F7574D8
:102DA0002052657365740A002045787465726E61FF
:102DB0006C2052657365740A00506F7765725570A8
:102DC0000A0073746172740A004739310A47315A34
:102DD000350A4739300A4D38340A4D3130345330D2
:102DE0000A4D3134305330004D313030310065728E
:102DF000726F722077726974696E6720746F2066D3
:102E0000696C650A00446F6E6520736176696E6750
:102E10002066696C652E0A004D323900456E647378
:102E2000746F70730025532025632025632025636C
:102E300020256300205A3A0020593A0020583A00D1
:102E4000656E6473746F7073206869743A20000053
:102E5000000A0B02090C0D0E080703040100000014
:102E60000000000000000000000000000000000062
:102E7000000000000000000000000012111000001F
:102E80000000000000000000000000000000000042
:102E900000000000001000C90210012C01400122B6
:102EA0000170011801B0010E01F00104015002FA95
:102EB00000B002F0003003E600D003DC009004D242
:102EC000007005C800A006BE000008B400B009AA42
:102ED00000D00BA000600E960060118C00001582DF
:102EE0000020197800C01D6E00A0226400B0275A8F
:102EF00000902C500000314600E0343C0010383285
:102F000000903A2800603C1E00A03D1400803E0A5C
:102F100000203F00000101FF50726F62696E672060
:102F20004661696C656400205A3A200020593A20B5
:102F30000042656420583A20003D3D6F6E55736530
:102F400072436F6E6669726D526571756972656400
:102F50003D3D00220A00556E6B6E6F776E20636FE9
:102F60006D6D616E643A2022002042002050006F97
:102F70006B00204500205A00205900204D39322096
:102F8000580020453A00205A3A0020593A00583A51
:102F90000020746F6F206C6F6E6720657874727597
:102FA00073696F6E2070726576656E7465640A0071
:102FB00020636F6C6420657874727573696F6E201E
:102FC00070726576656E7465640A0043616E6E6F3B
:102FD0007420656E746572207375626469723A203C
:102FE000004D323520500A4D323400526573756DF4
:102FF00065005549205061757365004E6F204D6125
:10300000746368203A004D32320A4D323100526505
:1030100066726573680050675570005067446F773B
:103020006E0049732046696C65200049732044692D
:10303000722000476F557044697200486173204DDB
:10304000656469610046696C656E616D65205365F4
:103050006C6563746564004D3130303043004D3130
:103060003030300046696C616D656E742053746158
:10307000742030202D20330046696C616D656E74BC
:1030800020537461742030202D20320046696C6119
:103090006D656E7420537461742030202D203100D2
:1030A0002046696C616D656E7420526573706F6E39
:1030B0007365204E6F00526573756D652059657399
:1030C00020647572696E67207072696E74000A20E0
:1030D0004E6F2046696C616D656E7400496E766155
:1030E0006C6964204F7074696F6E004D353030002C
:1030F00053746F72652053657474696E6773004210
:103100006564205049442053746172746564004DB5
:103110003939390A4D323830503053313630004267
:103120004C546F756368205265736574004D35307B
:10313000320A4D35303000496E6974204545505291
:103140004F4D00486F74656E64205049442053749D
:10315000617274656400456E676C69736820416CC8
:10316000726561647920536574004368696E6573A4
:1031700065204E6F7420537570706F7274656400B3
:10318000496E4C616E6743686F696365000A202A67
:103190002A2A7265636461742E646174615B305DB8
:1031A000203D004732380A47312046313030302048
:1031B0005A313000556E737570706F72746564208B
:1031C0004F7074696F6E2053656C6563746564003D
:1031D00047323652323535004D3139305335350AA4
:1031E0004732380A47333449380A4732390A4D34AE
:1031F00030300A4D313034533231350A4732380AD3
:103200004D313039533231350A4D34323053310A71
:103210004731583130305931303046353030300A4E
:1032200047315A300A4D3530300A4D31313720534D
:103230006574205A204F66667365740047312046D6
:1032400031303030205A302E30004732380A473182
:10325000204631303030205A302E30004D3530305D
:10326000005A204F6666736574203A202573004D1E
:10327000353030005A204F6666736574203A202539
:1032800073004732380A473146313530305A302ED4
:1032900030004732385A0A473146313530305A30DB
:1032A0002E30004D383400473146313030305A30FE
:1032B0002E30004732380A473146313030305A30EC
:1032C0002E30004D616E75616C53657454656D7080
:1032D00000526571756573746564204F6666736529
:1032E00074204265796F6E64204C696D6974730057
:1032F0005A204F6666736574203A20257300526F1A
:10330000756E64696E6720746F2073746570005207
:103310006571756573746564204F666673657420A6
:103320000053746F7020547269676765726564003A
:1033300053746F70204E6F0053746F705072696ECB
:10334000740048616E646C6520446174612041645E
:103350006A75737420322053657474696E672053E4
:10336000637265656E200048616E646C652044611F
:103370007461205072696E7446696C652033205305
:10338000657474696E672053637265656E200048CA
:10339000616E646C652044617461205072696E7462
:1033A00046696C6520322053657474696E672053DA
:1033B000637265656E20004D38340048616E646C40
:1033C000652044617461205072696E7446696C6551
:1033D00020506F73740048616E646C6520446174A2
:1033E00061205072696E7446696C65205072650088
:1033F000426567696E537769746368003D3D204399
:103400006865636B6B65793D3D00726563646174EB
:103410002E61646472203D3D007265636461742EA8
:10342000646174615B305D203D3D00776169747754
:103430006179203D3D0020202A2A2A2A2A2A2A5260
:1034400054535F48616E646C65446174612A2A2A32
:103450002A2A2A2A2A2000526573656E643A2000BF
:1034600000002200250028002B002E00310034002F
:1034700002010000050108010B01000021002400E9
:1034800027002A002D003000330001010000040154
:1034900007010A01050505050705080808080202D5
:1034A00002020A0A080804040404010101010101DE
:1034B00001010303030303030303040707070C0CC1
:1034C0000C0C0C0C0C0C0202020206060606060688
:1034D00006060B0B0B0B0B0B0B0B0102102020082D
:1034E000081020401020408002010201080402015F
:1034F00001020408102040808040201008040201CE
:103500008004020180402010080402010804020126
:1035100001020408102040800102040810204080AD
:1035200044445820453520506C75732052656164C1
:10353000792E005072696E74696E672E2E2E0050BF
:1035400072696E7420506175736564006E6F746982
:103550006669636174696F6E200050494420547538
:103560006E652046696E6973686564001601BA006D
:1035700011241FBECFEFD1E2DEBFCDBF00E00CBFF4
:1035800014E0A0E0B2E0ECE9FEE602E00BBF02C00E
:1035900007900D92AE31B107D9F726E1AEE1B4E064
:1035A00001C01D92A537B207E1F71AE1C7EBDAE1D6
:1035B00000E006C021970109802FFE010F947B33A4
:1035C000C63BD10780E00807A9F70F9474210D943A
:1035D0003C370C9400009F92AF92BF92CF92DF9243
:1035E000EF92FF920F931F93CF93DF9300D01F9220
:1035F0001F92CDB7DEB7E0E4FCE10027BB27462FE2
:10360000572FA82FAA2341F4A52F542FB85FAA2320
:1036100019F4A52F5527B85FA03138F45295A2951B
:10362000452F4F70507FA42BBC5FA03428F4550F5A
:10363000AA1F550FAA1FBE5FA03818F4550FAA1F66
:10364000B395550FAA1FEA0FF01F449151E0AA2726
:10365000B85081F1C8F0B0FF02C0440F551FB1FF50
:1036600004C0440F551F440F551FB2FF06C05295AA
:103670004295142F1F70407F512BB3FF1BC0A52F05
:10368000542F44270C945A1BB195B0FF02C0559596
:103690004795B1FF04C05595479555954795B2FF9D
:1036A00005C05295407F4295452B5F70B3FF02C025
:1036B000452F5527DD24CC24BB24B2E0649FD018CD
:1036C000C108B00AB00B749FC018B108B00B849F3A
:1036D000B018B109659FC018B108B00B759FB0183C
:1036E000B109859FB0196A9FB018B1097A9FB019C6
:1036F0004D9DA12C99243327992722275D9DA00C4D
:10370000911C301F901F201FAD9D900C311D901FEC
:10371000201F4C9DA00C911C301F901F201F5C9DF2
:10372000900C311D901F201FAC9D300D911D201F4E
:103730004B9D900C311D901F201F5B9D300D911DE6
:10374000201FAB9D900D211D4B9F300D911D201F03
:103750005B9F900D211DAB9F200DB1E0BB24CC24BD
:10376000DD24639FD018C108B00AB00B739FC01846
:10377000B108B00B839FB018B109699FC018B10898
:10378000B00B799FB018B109899FB019629FB0182A
:10379000B109729FB019D61AC70AB80A20F0B1E071
:1037A0003B0F901F201F1124792F632F90E0822F51
:1037B0000F900F900F900F900F90DF91CF911F916E
:1037C0000F91FF90EF90DF90CF90BF90AF909F90C0
:1037D0000895AF92BF92CF92DF92EF92FF920F9334
:1037E0001F93CF93DF93CBEBDCE002E119E08BEC8E
:1037F000A82E8CE0B82EC12CD12C7601C3946991EF
:103800007991899199910F94C52C288939894A8990
:103810005B890F94262D0F94F734F801619371930F
:10382000819391938F01C616D706E806F90610F426
:103830006B017C01AC16BD0611F76FEF7FEFCB017A
:10384000A70196010F940433209322093093230992
:103850004093240950932509DF91CF911F910F9137
:10386000FF90EF90DF90CF90BF90AF900895CF92F0
:10387000DF92EF92FF9280912E08882309F457C0BF
:10388000C0902A08D0902B08E0902C08F0902D08CA
:1038900020E030E0A901C701B6010F94C02C8823B5
:1038A00009F445C020E030E040E05FE3C701B60125
:1038B0000F94262D9B01AC010F94262D2BED3FE09C
:1038C00049E450E40F94262D9B01AC0160E070E0C8
:1038D00080E89FE30F947E346B017C01C092030D5E
:1038E000D092040DE092050DF092060D60917D02DC
:1038F00070917E02072E000C880B990B0F94C72C39
:103900002AE037ED43E25CE30F94262DA7019601F0
:103910000F94262D6093790270937A0280937B0234
:1039200090937C02FF90EF90DF90CF900895C12C90
:10393000D12C80E8E82E8FE3F82ED0CF0F931F9381
:10394000CF93DF9350E0FC01E40FF51F8081440F1B
:10395000551F440F551F43545A4FEA01882329F13C
:1039600088819981AA81BB81EB01088119812A8113
:103970003B810097A105B10569F40C591F4F2F4FEA
:103980003F4FDA010D931D932D933C9313978FEFC7
:10399000808306C0081B190B2A0B3B0B37FDF7CFA2
:1039A000DF91CF911F910F910895188219821A8289
:1039B0001B82F6CFCF93DF9324E0829FC0011124B6
:1039C000EC01CB5FD64FFC01E55CF74F815D974F73
:1039D000DC012D913D914D915C91608171818281DD
:1039E00093810F948433688379838A839B83DF91E7
:1039F000CF9108958091B8059091B905A091BA052D
:103A0000B091BB058093490290934A02A0934B0268
:103A1000B0934C028091B6059091B70590938002C7
:103A200080937F0208958091490290914A02A0916B
:103A30004B02B0914C028093B8059093B905A093C6
:103A4000BA05B093BB0580917F029091800290935C
:103A5000B7058093B60584E690E09093800280934A
:103A60007F0208958091BF129091C012891B8770C8
:103A700089F48091130E81110DC08091070D9091F2
:103A8000080D892B39F481E09091D906911103C07A
:103A900080E0089581E00895CF93DF93DB01F90181
:103AA0009C919130C1F0943080F094509C93883078
:103AB000D1F480819181009771F001979183808387
:103AC000480F591FEA01188206C08C3539F49C5FF3
:103AD0009C93943041F4DF91CF9108958B3339F763
:103AE00081E08C93F8CF20813181B9016F5F7F4FE6
:103AF00071836083420F531FEA0188838081918123
:103B00008F3591056CF7E7CF0F931F9381E00091FC
:103B1000731410917414209175143091761440919F
:103B20006F14509170146091711470917214041795
:103B300015072607370708F480E01F910F910895B5
:103B400090E080E00895282F90912908833021F497
:103B500095FD0FC094FD0FC0892F90E0B0E0A0E06C
:103B600004C0B695A795979587952A95D2F7817049
:103B7000089581E0089580E00895FC0165917591B4
:103B80008591949108958F929F92AF92BF92CF9218
:103B9000DF92EF92FF92CF93DF93EC0180900109C7
:103BA00090900209A0900309B090040920E030E051
:103BB000A901C501B4010F94C02C882309F454C095
:103BC000C880D980EA80FB80A7019601C501B401B5
:103BD0000F94C02C18160CF04CC02091F9083091AD
:103BE000FA084091FB085091FC08C701B6010F94F8
:103BF000C02C882331F1C092F908D092FA08E092E3
:103C0000FB08F092FC082091FD083091FE084091DD
:103C1000FF0850910009688179818A819B810F9406
:103C2000262D9B01AC0160E070E080E89FE30F94DB
:103C3000833360930F02709310028093110290936C
:103C4000120260910F027091100280911102909106
:103C50001202DF91CF91FF90EF90DF90CF90BF9055
:103C6000AF909F908F90089560E070E080E89FE3B0
:103C7000F0CF60E070E0CB01ECCFCF92DF92EF921B
:103C8000FF92CF93DF93EC01CC80DD80EE80FF804C
:103C900027E137EB41ED58EBC701B6010F94E4354E
:103CA00087FD23C023E030E044EB53E4C701B601B5
:103CB0000F94C02C1816CCF0C880D980EA80FB8005
:103CC00027E137EB41ED58EBC701B6010F94E4351E
:103CD00087FD0BC0C1E023E030E044EB53E4C701B3
:103CE000B6010F94C02C18160CF4C0E08C2FDF9195
:103CF000CF91FF90EF90DF90CF9008952FEB280F9A
:103D00002A3108F047C0E22FF0E0809152059091EF
:103D10005305A0915405B091550504C0B695A795DB
:103D2000979587952A95D2F780FD02C081700895F6
:103D3000EC5CFA4FE081EE2341F18091BF07909156
:103D4000C007E80FF92FF11D808190ED980F9A3090
:103D500030F08E3251F4818180538A3098F4F093A0
:103D60002305E093220581E008958D3211F08B3216
:103D700049F4818190ED980F9A3088F38E3211F4D6
:103D80008281EACFF0E0E0E0EACF109223051092C2
:103D90002205E9CF80E008950E947E1E882341F02D
:103DA00081E02091220530912305232B09F480E046
:103DB00008958F929F92AF92BF92CF92DF92EF922F
:103DC000FF92C0900406D0900506E0900606F090A1
:103DD000070620E030E0A901C701B6010F94C02C0E
:103DE0008823E1F1A701960160E070E080E89FE39D
:103DF0000F947E346B017C01809008069090090638
:103E0000A0900A06B0900B0620E030E0A901C501A1
:103E1000B4010F94C02C882329F1A501940160E01E
:103E200070E080E89FE30F947E34C092F804D09253
:103E3000F904E092FA04F092FB046093FC0470939E
:103E4000FD048093FE049093FF04FF90EF90DF90B9
:103E5000CF90BF90AF909F908F900895C12CD12CA0
:103E60007601CACF60E070E0CB01DFCF129A0895EF
:103E70005F9A8091B90C8E7F8093B90C8A9A809159
:103E8000B90C8D7F8093B90C809108018095817069
:103E900080930601479A8091B90C8B7F8093B90C6F
:103EA0000C94361F269A2E9A08958C3221E09207A0
:103EB00014F08CE291E09093701280936F120C9446
:103EC0003EFAE3E4F6E01082118212821382148239
:103ED0000C943EFA4F925F926F927F928F929F92D4
:103EE000AF92BF92CF92DF92EF92FF920F931F9308
:103EF000CF93DF93EC012091FC053091FD054091BB
:103F0000FE055091FF05688179818A819B810F941C
:103F100083336B017C0120910006309101064091B2
:103F20000206509103066C817D818E819F810F94E2
:103F300083334B015C01A7019601609103027091EC
:103F4000040280910502909106020F94C02C8823F0
:103F500009F450C0C0920302D0920402E09205021C
:103F6000F09206022091F8043091F9044091FA048D
:103F70005091FB04C701B6010F94262D2B013C0183
:103F80000F9426356B017C0120E030E0A9010F94ED
:103F9000C02C87FD70C020E030E040E450E4C70151
:103FA000B6010F94E43518162CF4C12CD12CC0E4C2
:103FB000EC2EFE2CA7019601C301B2010F948333AE
:103FC0006093F0047093F1048093F2049093F304EF
:103FD000C701B6010F94F0346093EE04062E000C76
:103FE000770B6F5F7F4F6430710514F064E070E011
:103FF0006093EC04D09101021091EE04A5019401AC
:1040000060910702709108028091090290910A0262
:104010000F94C02C811133C0D11381C02091D404DE
:104020003091D5044091D6045091D7046091F004AA
:104030007091F1048091F2049091F3040F94262D75
:104040002091D8043091D9044091DA045091DB04D6
:104050000F948433DF91CF911F910F91FF90EF90D8
:10406000DF90CF90BF90AF909F908F907F906F9098
:104070005F904F900895C12CD12C76019BCF8092F8
:10408000070290920802A0920902B0920A022091BF
:10409000FC043091FD044091FE045091FF04C501E1
:1040A000B4010F94262D4B015C010F9426356B0152
:1040B0007C0120E030E0A9010F94C02C87FDF3C003
:1040C00020E030E040E450E4C701B6010F94E4354D
:1040D00018162CF4C12CD12CB0E4EB2EFE2CA70129
:1040E0009601C501B4010F9483336093F404709377
:1040F000F5048093F6049093F704C701B6010F947A
:10410000F0346093EF04062E000C770B6F5F7F4F47
:104110006430710514F064E070E06093ED04C091C8
:10412000EF04D11305C0809102028C1709F470C00E
:104130008091EE049091EF0490930202809301022B
:104140000C2E000CDD0B25E01203C0011124FC0134
:10415000EC0FFD1FEE0FFF1FEE0FFF1FEB53F84F8D
:1041600020813181428153812093E8043093E90416
:104170004093EA045093EB040091ED04002E000CF0
:10418000110BFC01E00FF11FEE0FFF1FEE0FFF1FE1
:10419000EB53F84F60817181828193810F94833357
:1041A0006093E4047093E5048093E6049093E7043D
:1041B0002091EC0435E02303F0011124CE0FDF1F22
:1041C000CC0FDD1FCC0FDD1FCB53D84F2881398199
:1041D0004A815B812093E0043093E1044093E20440
:1041E0005093E304E00FF11FEE0FFF1FEE0FFF1FD0
:1041F000EB53F84F60817181828193810F948333F7
:104200006093DC047093DD048093DE049093DF04FC
:104210008090F4049090F504A090F604B090F70418
:104220002091E4043091E5044091E6045091E704C4
:10423000C501B4010F94262D2091E8043091E904C2
:104240004091EA045091EB040F9484336B017C019C
:10425000C092D804D092D904E092DA04F092DB0440
:104260002091DC043091DD044091DE045091DF04A4
:10427000C501B4010F94262D2091E0043091E10492
:104280004091E2045091E3040F948433A701960116
:104290000F9483336093D4047093D5048093D60431
:1042A0009093D704BBCEC12CD12C760118CFCF92DE
:1042B000DF92EF92FF92CF93DF93EC0108960E947A
:1042C000C31D6B017C0120E030E0A9010F94C02CDC
:1042D00020E030E0A901882359F0CE010E946A1F36
:1042E0009B01AC01C701B6010F94262D9B01AC01C7
:1042F000688579858A859B850F948333688779875C
:104300008A879B87DF91CF91FF90EF90DF90CF90CE
:1043100008952F923F924F925F926F927F928F9269
:104320009F92AF92BF92CF92DF92EF92FF920F9344
:104330001F93CF93DF93D62FC72FFC0180809180EE
:10434000A280B380C501B40120E831E541E050E02E
:104350000F940433C9016DE671E00F9467336B016C
:104360007C01C501B40120E13EE040E050E00F9443
:104370000433CA01B90128E130E040E050E00F9475
:104380000433362E272E062F172F8CE3482E512C60
:10439000612C712CC501B401A30192010F94043367
:1043A000B62EA72ECA01B901A30192010F940433BE
:1043B000CB01C114D10479F1AF92BF927F936F9377
:1043C0002F923F92FF92EF92DF92CF928AE498E190
:1043D0009F938F93CF93DF930F94572C8DB79EB7F6
:1043E0000E960FB6F8949EBF0FBE8DBF8D2F9C2FDB
:1043F000DF91CF911F910F91FF90EF90DF90CF90C1
:10440000BF90AF909F908F907F906F905F904F90F4
:104410003F902F900895E114F104C9F0AF92BF923C
:104420007F936F932F923F92FF92EF928AE398E1EE
:104430009F938F93CF93DF930F94572CEDB7FEB7D5
:104440003C960FB6F894FEBF0FBEEDBFCFCF012B49
:10445000B9F0AF92BF927F936F932F923F928EE20B
:1044600098E19F938F93CF93DF930F94572C8DB741
:104470009EB70A960FB6F8949EBF0FBE8DBFB6CFFB
:10448000892BA9F0AF92BF927F936F9386E298E158
:104490009F938F93CF93DF930F94572CEDB7FEB775
:1044A00038960FB6F894FEBF0FBEEDBF9FCFAF9208
:1044B000BF9282E298E19F938F93CF93DF930F9403
:1044C000572C0F900F900F900F900F900F908ECF52
:1044D000EF92FF920F931F93CF93DF93CDB7DEB789
:1044E0008C01EDB6FEB60F940D2C01962DB73EB79C
:1044F000281B390B0FB6F8943EBF0FBE2DBF8DB7EA
:104500009EB70196B8010F94062C0F94981D0FB614
:10451000F894FEBE0FBEEDBEDF91CF911F910F91BB
:10452000FF90EF9008958C38910514F08CE890E09E
:1045300090930512809304120C943EC2AB01BC010F
:10454000409373145093741460937514709376149D
:104550008BED95E10C94F6B22F923F924F925F92C1
:104560006F927F928F929F92AF92BF92CF92DF9283
:10457000EF92FF920F931F93CF93DF93CDB7DEB7E8
:1045800060970FB6F894DEBF0FBECDBF8B876C87E8
:10459000042F122F282F30E03E872D87462F50E022
:1045A0005A87498785E0982E929EC001939E900D70
:1045B0001124988B8F87FA01E80FF91FEE0FFF1F68
:1045C000EE0FFF1FEB53F84F608171818281938161
:1045D0009B01AC010F947636882309F445C14B85C5
:1045E000400F6C85610F949EC0011124E985FA8506
:1045F000E80FF91FEE0FFF1FEE0FFF1FEB53F84FF1
:10460000C080D180E280F380040F909EA00111242D
:10461000E985FA85E40FF51FEE0FFF1FEE0FFF1F70
:10462000EB53F84F0081918082807380262F30E019
:10463000EF85F889E20FF31FEE0FFF1FEE0FFF1F4C
:10464000EB53F84F20807181798372817A83738173
:104650007B83610F70E0EF85F889E60FF71FEE0F9F
:10466000FF1FEE0FFF1FEB53F84FF88BEF87F08122
:10467000FC83EF85F889F181FD83EF85F889F2816C
:10468000FE83EF85F889F381FF83FC01E20FF31FBE
:10469000EE0FFF1FEE0FFF1FEB53F84F208128870F
:1046A000A180B2806380FA01E60FF71FEE0FFF1FB3
:1046B000EE0FFF1FEB53F84F408051803280138183
:1046C000202F392D482D572D602F792D882D972D8E
:1046D0000F947636882321F000E0912C812C712CE8
:1046E0009601A701B601C7010F947636882321F001
:1046F000C02ED92CE82CF72C2C813D814E815F8176
:104700006C817D818E819F810F947636882321F084
:104710001C821D821E821F82222D39814A815B816B
:10472000622D79818A819B810F947636882339F0B6
:104730002C803D8139834E814A835F815B83920166
:10474000432D512FB201832D912F0F94763688235C
:1047500021F0412C512C312C10E028853A2D4B2D85
:10476000562D68857A2D8B2D962D0F9476368823BD
:1047700021F04886A52CB32C612E85E02D853E8541
:10478000829FF001839FF00D112449855A85E40F23
:10479000F51FEE0FFF1FEE0FFF1FEB53F84FFA87C9
:1047A000E9879601A701B601C7010F948433202F32
:1047B000392D482D572D0F9483336B017C01222D09
:1047C00039814A815B81622D79818A819B810F9435
:1047D00084332C813D814E815F810F9483339B0113
:1047E000AC01C701B6010F9484336B017C012885AD
:1047F0003A2D4B2D562D68857A2D8B2D962D0F94A5
:1048000084339201432D512F0F9483339B01AC01CC
:10481000C701B6010F94843320E030E040E450E457
:104820000F947E34E985FA85608371838283938354
:104830006C858B8560960FB6F894DEBF0FBECDBF3A
:10484000DF91CF911F910F91FF90EF90DF90CF906C
:10485000BF90AF909F908F907F906F905F904F90A0
:104860003F902F900D94F61B60960FB6F894DEBF24
:104870000FBECDBFDF91CF911F910F91FF90EF90B1
:10488000DF90CF90BF90AF909F908F907F906F9070
:104890005F904F903F902F900895809122059091C6
:1048A0002305009731F04AE050E070E060E00D949D
:1048B000DB2A60E070E0CB010895809122059091A1
:1048C0002305009731F04AE050E070E060E00D947D
:1048D000AD2960E070E0CB010895CF93DF93EB0149
:1048E0000E94CC1E882319F00E945D24EB01CE01AA
:1048F000DF91CF9108950E945D2497FD0CC00E9426
:104900005D246F3F71058105910509F034F40E9423
:104910005D24862F089580E008958FEF0895CF934A
:10492000C62F0E94CC1E882319F0CF910C947B24B3
:104930008C2FCF9108958091220590912305892B8A
:1049400041F00E947B2491E0811101C090E0892F09
:10495000089591E0FCCFCF93DF93C82FD62F0E940C
:10496000CC1E882321F0DF91CF910C949B248C2FB7
:104970000E947E1E811101C08D2FDF91CF9108957D
:104980000E945D24CB010895CF93DF93EB010E9439
:10499000CC1E882321F0DF91CF910C94C024CE014E
:1049A000DF91CF9108950F931F93CF9380912205AC
:1049B000909123050097E9F0FC018F01C1912C2F04
:1049C0002F7D81F0C53411F0C536B9F7F80110829A
:1049D00070E060E00F944F28F801C083CF911F91E1
:1049E0000F91089570E060E0CF911F910F910D94A9
:1049F0004F2860E070E0CB01F1CFCF92DF92EF92D1
:104A0000FF926A017B010E94CC1E882331F0FF9047
:104A1000EF90DF90CF900C94D324C701B601FF90A4
:104A2000EF90DF90CF9008954F925F926F927F92B8
:104A30008F929F92AF92BF92CF92DF92EF92FF92AE
:104A40001F93CF93DF9300D01F92CDB7DEB71982AB
:104A50001A821B821C82CE0101964C018CEAC82E60
:104A600087E0D82E99E6E92E92E0F92E25E0A22ED5
:104A700029E0B22E10E088E5810F0E94CC1EF401DF
:104A800081934F01882309F4E0C00E94D3242B01B5
:104A90003C01812F0E94A31D882309F4CCC0F7019B
:104AA0002081318142815381C301B2010F9484334B
:104AB000F60160837183828393831F5FF4E0CF0EDE
:104AC000D11C84E0E80EF11C94E0A90EB11C133057
:104AD00091F685E40E94CC1E8C83882309F4C0C023
:104AE0000E94D3246B017C0183E00E94A31D8823D4
:104AF00071F02091750230917602409177025091C9
:104B00007802C701B6010F9484336B017C01C09217
:104B1000B807D092B907E092BA07F092BB0780912C
:104B2000EB05882359F18091771482FF27C08C818F
:104B3000882321F18981811103C08A818823F1F0C2
:104B40002DEC3CEC4CE45DE3609150087091510811
:104B500080915208909153080F9484339B01AC01CB
:104B6000609171027091720280917302909174024F
:104B70000F94E435181614F40F943C1B40E050E0F9
:104B8000BA0186E40E94FD2420E030E0A9010F94E0
:104B9000E435181684F40E94D32420E030E040E786
:104BA00052E40F947E346093490270934A028093DA
:104BB0004B0290934C028091770C83FD28C080912A
:104BC000C406882321F1209175023091760240912C
:104BD0007702509178026091B8077091B90780917F
:104BE000BA079091BB070F9483332091D10630917F
:104BF000D2064091D3065091D4060F94843360932B
:104C0000D1067093D2068093D3069093D4060F906A
:104C10000F900F900F90DF91CF911F91FF90EF9029
:104C2000DF90CF90BF90AF909F908F907F906F90CC
:104C30005F904F900895F501208131814281538129
:104C4000C301B2010F94833333CFF7018081918187
:104C5000A281B381F60180839183A283B3832DCF98
:104C60008091750290917602A0917702B0917802BE
:104C70008093B8079093B907A093BA07B093BB0786
:104C80004ECFCF92DF92EF92FF926B017C0183E3D4
:104C9000C816D104E104F10470F082E3C81AD10807
:104CA000E108F10862E370E080E090E00E9477AAFA
:104CB0000E94B8C5ECCFC701B6010E9477AAFF9049
:104CC000EF90DF90CF900C94B8C50F931F93CF93C4
:104CD000DF930FEC1CE0C8EED1E1F8012191319196
:104CE000419151918F0160E070E080E89FE30F9463
:104CF0007E346993799389939993F1E1C83FDF07F3
:104D000061F70F947B19DF91CF911F910F910C9454
:104D1000E91BCF92DF92EF92FF92CF93DF93209126
:104D2000BA0C222329F1EC0108960E94C31D6B01E5
:104D30007C0120E030E0A9010F94C02C20E030E09D
:104D4000A901882359F0CE010E946A1F9B01AC0182
:104D5000C701B6010F94262D9B01AC0168857985AA
:104D60008A859B850F948433688779878A879B8798
:104D7000DF91CF91FF90EF90DF90CF9008952F9229
:104D80003F924F925F926F927F928F929F92AF92DB
:104D9000BF92CF92DF92EF92FF920F931F93CF9328
:104DA000DF93CDB7DEB76C970FB6F894DEBF0FBEBA
:104DB000CDBF8C015B015A834983FC01EF5AFF4F41
:104DC000208131814281538129873A874B875C87D3
:104DD000CA01B9010F94C52C6B017C01D5012D913D
:104DE0003D914D915C910F94262D0F9462342B01CF
:104DF0003C01E981FA812081318142815381C701DF
:104E0000B6010F94262D0F9462344B015C01C3014F
:104E1000B2010F94F734698B7A8B8B8B9C8B68373C
:104E200071058105910540F428E730E040E050E04D
:104E3000298B3A8B4B8B5C8BC501B4010F94F734F3
:104E40006D877E878F87988B6837710581059105FF
:104E500040F448E750E060E070E04D875E876F8780
:104E6000788BF801E35AFF4F408051806280738055
:104E7000C301B2010F94C72C69837A838B839C830F
:104E800069897A898B899C890F94C52C6D8B7E8B5F
:104E90008F8B988F20E030E0A90169817A818B8126
:104EA0009C810F94C02C882309F4E1C1A7019601CD
:104EB000C701B6010F94262D4B015C012D893E8957
:104EC0004F89588DCA01B9010F94262D9B01AC0161
:104ED000C501B4010F9483334B015C0129813A81F0
:104EE0004B815C81CA01B9010F9484339B01AC01F1
:104EF000C501B4010F947E340F9462340F94F734DB
:104F00006D837E838F83988766277727CB0164190B
:104F10007509860997090F94C72C4B015C016D85B3
:104F20007E858F8598890F94C52C2B013C0120E04C
:104F300030E0A901C501B4010F94C02C882309F405
:104F40009AC1A3019201C301B2010F94262D698F6A
:104F50007A8F8B8F9C8FA7019601C701B6010F94A2
:104F6000262D9B01AC01698D7A8D8B8D9C8D0F94C4
:104F700083336B017C01A5019401C501B4010F9439
:104F800084339B01AC01C701B6010F947E340F94AA
:104F90002635D80195968D909D90AD90BC909897B0
:104FA000750164012D813E814F815885C21AD30A53
:104FB000E40AF50A0F94F734C61AD70AE80AF90A80
:104FC000F7FE8EC02D893E894F89588DCA01B901DF
:104FD0000F94262D6B017C0129813A814B815C81E4
:104FE000CA01B9010F94843369877A878B879C87BC
:104FF00020E030E0A90169817A818B819C810F9446
:10500000C02C882309F43BC1C501B4010F94C52C01
:1050100029853A854B855C850F94262DA70196013D
:105020000F9483336D837E838F839887A3019201CE
:10503000C301B2010F94262D9B01AC016D817E81CD
:105040008F8198850F9484332B013C0120E030E060
:1050500040E850E469817A818B819C810F94262DF0
:105060009B01AC01C301B2010F947E340F946234F2
:105070002B013C0120E030E0A9010F94E435181623
:105080001CF0412C512C3201C301B2010F94F734B2
:105090006D837E838F83988786169706A806B90648
:1050A00020F48D829E82AF82B8866D817E818F8151
:1050B00098850F94C52C29853A854B855C850F947E
:1050C000262DA70196010F9484330F9432360F9446
:1050D000F73469877A878B879C87C12CD12C76011E
:1050E00069857A858B859C8529893A894B895C8974
:1050F000621B730B840B950B0F94C52C29813A818D
:105100004B815C810F947E3420E034E244EF59E41B
:105110000F94262D0F94F7344B015C0169857A8535
:105120008B859C852D853E854F855889621B730B29
:10513000840B950B0F94C52C29813A814B815C819E
:105140000F947E3420E034E244EF59E40F94262D8E
:105150000F94F7342B013C013FE683169104A10420
:10516000B10408F090C0F401EE0FFF1FEE0FFF1F17
:10517000EC57F54E85919591A591B4918983292E8F
:105180003A2EBD8B4FE6441651046104710408F0B9
:1051900083C0F201EE0FFF1FEE0FFF1FEC57F54E1D
:1051A00045915591659174919A01CB014D815E8134
:1051B0006F817885D80199964D935D936D937C931B
:1051C0009C974C0D5D1D6E1D7F1DF80145A756A7D0
:1051D00067A770ABEB5AFF4F49895A896B897C8965
:1051E0004083518362837383D5968D929D92AD9255
:1051F000BC92D897F80141AE52AE63AE74AEFD9644
:1052000049814083218232825D8953833496208391
:1052100031838283938369857A858B859C85D1963A
:105220006D937D938D939C93D49778962D853E8531
:105230004F85588920833183428353836C960FB600
:10524000F894DEBF0FBECDBFDF91CF911F910F91BC
:10525000FF90EF90DF90CF90BF90AF909F908F9096
:105260007F906F905F904F903F902F90089560E0F7
:1052700070E0CB0141CE60E070E0CB0188CE60E011
:1052800070E0CB01F3CEC501B4010E94EB1A698333
:10529000272E382E9D8B76CFC301B2010E94EB1AC8
:1052A0009B0184CF8091BF129091C012891B87709F
:1052B00019F490E080E008959091BC12992351F088
:1052C000833030F48FEF890F19F08093BC12F1CF47
:1052D0001092BC128091C01227E6829FC001112457
:1052E000815C964FFC01208120FDE3CF2091C0120C
:1052F0002F5F27702093BD123091C0122091BE12F3
:10530000321304C02091BD122093BE1208959091D3
:105310006F0081E091FD02C080E0089590916F00E0
:105320009D7F90936F00089580FF04C09091B90C09
:1053300090FD8E7F81FF05C09091B90C969590FDF0
:105340008D7F82FF06C09091B90C9695969590FD41
:105350008B7F08958F929F92AF92BF92CF92DF92F0
:10536000EF92FF92CF93DF9320914D02222309F415
:105370009EC0EC018091BC05C82ED12CF12CE12CF3
:1053800080FF2CC080904F0290905002A09051025C
:10539000B0905202288139814A815B81C501B401F4
:1053A0000F94E435181624F488829982AA82BB826D
:1053B00080905B0290905C02A0905D02B0905E02D3
:1053C000288139814A815B81C501B4010F94C02CC9
:1053D00087FF04C088829982AA82BB82D701C60156
:1053E000B695A7959795879580FF2CC0809053021E
:1053F00090905402A0905502B09056022C813D81AD
:105400004E815F81C501B4010F94E435181624F470
:105410008C829D82AE82BF8280905F0290906002FB
:10542000A0906102B09062022C813D814E815F812B
:10543000C501B4010F94C02C87FF04C08C829D82EB
:10544000AE82BF8282E0F694E794D794C7948A959F
:10545000D1F7C0FE2CC0C0905702D0905802E09007
:105460005902F0905A02288539854A855B85C70123
:10547000B6010F94E435181624F4C886D986EA8656
:10548000FB86C0906302D0906402E0906502F090C9
:105490006602288539854A855B85C701B6010F9468
:1054A000C02C87FF04C0C886D986EA86FB86DF91B8
:1054B000CF91FF90EF90DF90CF90BF90AF909F90F3
:1054C0008F900895CF92DF92EF92FF920F931F93E8
:1054D000C12CD12C76018C0125E732E041E752E066
:1054E0006DE672E089E692E00F94A1011F910F91A1
:1054F000FF90EF90DF90CF9008950D947B198091ED
:10550000A905659B6EC080618093A90590910301F8
:105510008091A90591FF67C080628093A905809161
:10552000A9054B9962C084608093A9058091A90563
:105530009091A805981709F45AC092E09093A70596
:105540008093A8058091D606811105C08091BD0782
:10555000882309F459C08091230680FF10C08091F0
:10556000D70680FD0CC08091A60584FF08C08091FD
:10557000BC0780618093BC0780E00E9442CE80918E
:105580002306869580FF11C08091D706869580FD01
:105590000CC08091A60585FF08C08091BC07806281
:1055A0008093BC0781E00E9442CE809123068695BD
:1055B000869580FF29C08091D7068695869580FFC5
:1055C00023C08091BD078823F9F08091A60582FF52
:1055D0001BC08091BC0784608093BC0782E00C9460
:1055E00042CE8F7E91CF8F7D98CF8B7F9DCF809144
:1055F000A705882309F4A6CF81508093A7058111C0
:10560000A1CF9093A6059ECF08958091D6068111D3
:1056100004C08091BD07882331F062E070E080E033
:1056200090E00C94412608950F931F938091A6114A
:10563000813019F50E94AAAA0091C5051091C605EE
:105640002091C7053091C805601B710B820B930B2D
:1056500028EE33E040E050E00F9404336091C90538
:105660007091CA058091CB059091CC05620F731F94
:10567000841F951F1F910F9108956091CD05709122
:10568000CE058091CF059091D005D6CF1092A6116E
:105690001092C5051092C6051092C7051092C80554
:1056A0001092CD051092CE051092CF051092D00524
:1056B0001092C9051092CA051092CB051092CC0524
:1056C0000895CF92DF92EF92FF92CF93DF93C62F90
:1056D000FC01C080D180E280F38020E030E0A901AD
:1056E000C701B6010F94C02C20E030E0A90187FD6E
:1056F00014C020E030E048EC52E4C701B6010F943A
:10570000E43524E630E040E050E0181634F0C701FC
:10571000B6010F94F0349B01AC01C230A0F4D0E08C
:10572000C65CD64FAFEFB0E00F94453324E630E0CF
:1057300040E050E00F9426332F3F310519F010F070
:105740002FEF30E02883DF91CF91FF90EF90DF9033
:10575000CF9008958091090180FD06C08091771453
:1057600083FB882780F9089580E00895CF92DF9227
:10577000EF92FF92FC01C080D180E280F38066301E
:1057800019F5109248061092490610924A06109296
:105790004B0610924C060E943EC220E030E0A90168
:1057A000C701B6010F94C02C87FF1DC0C12CD12C9E
:1057B0007601C701B6010F94F135CB01FF90EF9050
:1057C000DF90CF900C9493220E94611F20E030E084
:1057D000A901C701B6010F94C02C87FF15C0C12CC9
:1057E000D12C760121C020E030E04CE053E4C70129
:1057F000B6010F94E4351816E4F6C12CD12C9CE0C8
:10580000E92E93E4F92ED5CF20E030E046E953E4C9
:10581000C701B6010F94E435181634F4C12CD12C0D
:1058200086E9E82E83E4F82EC701B6010F94F1351E
:10583000CB01FF90EF90DF90CF900C94551F90918B
:10584000B90C977081E0973009F080E008952091BD
:10585000A40520FF14C020E83EE3629FA001639FDF
:10586000500D729F500D1124CA01969587959695FB
:105870008795009731F08A950000E9F708950C9418
:1058800041260895CF93DF931092780C1092090D62
:1058900010920B0D10920A0D1092A3051092A20502
:1058A000CFEFDFEF8091771485FD07C00E9457AEE0
:1058B000D093F612C093F512F5CF8FEF9FEF909330
:1058C000F6128093F512DF91CF9108958F929F92F7
:1058D000AF92BF92CF92DF92EF92FF920F931F93FE
:1058E000CF93DF9310925705109256052FE3209324
:1058F00051051092500510924F0510924E051092CE
:1059000052051092530510925405109255059C01B2
:10591000F90190812F5F3F4F9032D1F39E34C9F44B
:10592000818190ED980F9A3020F08D3211F08B32FA
:1059300081F432969F012F5F3F4F808180538A30E0
:1059400008F47BC09F012F5F3F4F8081803209F4B4
:1059500076C0F093C007E093BF078F010F5F1F4F22
:10596000C0816AE270E0C8010F94D236009731F02E
:10597000FC01319780818032E1F31182CD3429F02E
:10598000C43519F0C73409F04BC0F80180810F5FAE
:105990001F4F8032D1F380538A3008F041C0C0934A
:1059A000510530E020E04AE0DF011196429FC0013E
:1059B000439F900D11249C01205331098081280FB1
:1059C000311D87FD3A95818190ED980F9A30C8F18D
:1059D0003093500520934F058E3261F4329690E05B
:1059E0004AE0DF0131968C9150ED580F5A3058F152
:1059F00090934E05CD01DC0101964C914032D9F3D4
:105A0000CD3489F52E31310539F018F527313105BE
:105A100019F02C31310539F5B0935705A09356058F
:105A2000DF91CF911F910F91FF90EF90DF90CF907A
:105A3000BF90AF909F908F900895F9017BCFF901AF
:105A400081CFFD01B1CF949F800D112490ED980F6F
:105A5000C8CF2537310538F027373105E8F2203A2D
:105A600083E03807C9F2D091BF0740E050E0BA01A7
:105A700010E000E0C12CD12C7601C394FD013196D9
:105A80008C91882309F47FC08132E1F4CD34D1F4C4
:105A900020323105B9F44093520550935305609379
:105AA000540570935505F0935705E093560563E24E
:105AB00070E0CF010F94D236009709F4B1CFFC010A
:105AC0001082AECF81548A3108F058C0DF019D9119
:105AD000903291F0A0EDA90FAA30E8F09E3271F457
