:100000000C94031A0C94341A0C94341A0C94341A69
:100010000C94341A0C94341A0C94341A0C94341A28
:100020000C94341A0C94341A0C94341A0C94341A18
:100030000C94341A0C94341A0C94341A0C94341A08
:100040000C94341A0C941ED40C94341A0C94341A54
:100050000C94341A0C94341A0C943CBB0C94DCA60B
:100060000C94341A0C9457520C944D520C94341A2C
:100070000C94341A0C94341A0C94341A0C94341AC8
:100080000C94341A0C94341A0C94341A0C94341AB8
:100090000C94341A0C94341A0C94341A0C94341AA8
:1000A0000C94341A0C94341A0C94341A0C94341A98
:1000B0000C94341A0C94341A0C94341A0C94341A88
:1000C0000C94341A0C94341A0C94341A0C9425346D
:1000D0000C94EF330C94341A0C94341A0C94341A94
:1000E0000C94341A084AD73B3BCE016E84BCBFFD4A
:1000F000C12F3D6C74319ABD56833DDA3D00C77FF8
:1001000011BED9E4BB4C3E916BAAAABE0000008090
:100110003F05A84CCDB2D44EB93836A9020C50B91F
:10012000918688083CA6AAAA2ABE000000803F004B
:100130000D9403090C9453A30D9496090D94CF0CC0
:100140000D94D80C0C948AA40C94D3520C94804136
:100150000C94659F0D94D50C0C948A9F0D944009C6
:100160000C941B530D940C0E0C9492340C9476A3A7
:100170000C941BA30C9467A30D9433070C94469F17
:100180000C94E9340D94FF060C947C9F0D9452015D
:100190000C94C2A50D945F080D9463090C94809F84
:1001A0000C940EA40C94619F0C94E9520C94F95297
:1001B0000C94A1340C9408530C94ED520D94E00E61
:1001C0000C942BA40C9412A60C94EFFE0C9425A373
:1001D0000C94B8410C9441A30C94699F0D94911E0A
:1001E0000C942FA30C94F1520D94B0060C9449A3D7
:1001F0000C94EFA50D942C090C949C9F0D942B0D41
:100200000D94D8090D9481000C9439A30C9494A3F7
:100210000D94F10C0C94C7340D9477090D94EB09EF
:100220000D94A80C0C94BF340C9413410C94E2521E
:100230000D941D0E0D9495080C941FA00D94731E23
:100240000D941E0D0D94E3060C949EA30C94CB34D8
:100250000C94929F0C94F5520C94D3A40C945DA32F
:100260000D94CF070C94849F0C94B0340C9417A574
:100270000C943F410C9416A30C946C9F0C94E9FCD5
:100280000C94729F0D94D0020C94D6340C945D9F04
:100290000C944B9F0C940AFE0C940EA30C94FD52EC
:1002A0000C944B3F0C94B0A50D94C0110C94E13408
:1002B0000C948AA30C948E9F0C9495520C94989F46
:1002C0000C9401530C9419FF0C9463340C94CF34A8
:1002D0000C94473F0C94BB340C94C4520C94769FFE
:1002E0000C94F83E0C94C3340C9432A50C94A8A33F
:1002F0000C94B7340C94A2A00D94000D0C94A1A002
:100300000C9480A30D940A0D0C9413530D949B0A26
:100310000D946A054E414E494E495459494E46CDB9
:10032000CCCC3D0AD7233C17B7D13877CC2B3295AC
:1003300095E6241FB14F0A000020410000C842008A
:10034000401C4620BCBE4CCA1B0E5AAEC59D740054
:10035000407A10F35A00A0724E18090010A5D4E894
:100360000000E87648170000E40B54020000CA9A27
:100370003B000000E1F50500008096980000004079
:10038000420F000000A086010000001027000000BE
:1003900000E803000000006400000000000A000004
:1003A0000000000100000000002C76D888DC674FB8
:1003B0000823DFC1DFAE59E1B1B796E5E3E453C6E8
:1003C0003AE651997696E8E6C28426EB898C9B62E0
:1003D000ED407C6FFCEFBC9C9F40F2BAA56FA5F48A
:1003E00090055A2AF75C936B6CF9676DC11BFCE0B2
:1003F000E40D47FEF520E6B500D0ED902E03009405
:100400003577050080841E080000204E0A00000099
:10041000C80C333333330F986E12831141EF8D21A3
:1004200014893BE65516CFFEE6DB18D1844B381B0A
:10043000F77C1D901DA4BBE424203284725E2281CF
:1004400000C9F124ECA1E53D27434F4D4D554E49E0
:10045000434154494F4E0044525952554E00455263
:10046000524F525300494E464F004543484F0045B6
:1004700072726F722077726974696E6720746F2070
:10048000454550524F4D210A0053544F505045445A
:100490002E20005072696E7465722073746F7070D4
:1004A00065642064756520746F206572726F727365
:1004B0002E2046697820746865206572726F7220FC
:1004C000616E6420757365204D39393920746F2051
:1004D000726573746172742E202854656D70657234
:1004E00061747572652069732072657365742E205E
:1004F0005365742069742061667465722072657337
:1005000074617274696E67290A004E6F20436865D2
:10051000636B73756D2077697468206C696E6520F4
:100520006E756D6265722C204C617374204C696E1F
:10053000653A20004E6F20436865636B73756D20CC
:1005400077697468206C696E65206E756D6265727E
:100550002C204C617374204C696E653A20006368EE
:1005600065636B73756D206D69736D617463682C61
:10057000204C617374204C696E653A20004C696EA2
:1005800065204E756D626572206973206E6F7420F0
:100590004C617374204C696E65204E756D62657296
:1005A0002B312C204C617374204C696E653A20000D
:1005B0004D3131300053657269616C207374617420
:1005C0007573206D69736D617463680A0077616982
:1005D000740A0053442072656164206572726F7200
:1005E0000A002121204B494C4C20636175736564DE
:1005F00020627920746F6F206D75636820696E6169
:1006000063746976652074696D65202D2063757249
:1006100072656E7420636F6D6D616E643A20004880
:100620006F74656E642049646C652054696D656FF4
:10063000757400486F74656E642049646C6520545D
:10064000696D656F75740A003D3D6F6E46696C613A
:100650006D656E7452756E6F75743D3D0070617599
:100660007365004D363030002066696C616D656ED3
:10067000745F72756E6F7574200066696C616D656C
:100680006E745F72756E6F757420540046696C618C
:100690006D656E7452756E6F75742054002A2A2A27
:1006A000496E6974696E67206361726420697320A2
:1006B0004F4B2A2A2A004D6564696120496E736593
:1006C00072746564004D656469612052656D6F7672
:1006D0006564004D313030305300627573793A20D3
:1006E00070617573656420666F7220696E707574D1
:1006F0000A00627573793A207061757365642066CB
:100700006F7220757365720A00627573793A207092
:10071000726F63657373696E670A002A2A2A6B69B0
:100720006C6C2A2A2A00706F7765726F6666004BC0
:10073000494C4C45442E20005072696E74657220FD
:1007400068616C7465642E206B696C6C2829206369
:10075000616C6C6564210A006563686F3A004572DC
:10076000726F723A0042696C696E656172204C6505
:1007700076656C696E6720477269643A0A002F2FAC
:10078000616374696F6E3A0070726F6D70745F00B0
:10079000656E640053656E64204D31303820746F8F
:1007A00020726573756D650A00496E7365727420F9
:1007B00066696C616D656E7420616E642073656E30
:1007C00064204D3130380A005265686561742066D6
:1007D000696E69736865642E00526568656174208E
:1007E000446F6E6500526568656174696E672E2E90
:1007F0002E005265686561740048656174657220F9
:1008000054696D656F75740053656E64204D3130A9
:100810003820746F2068656174206E6F7A7A6C6519
:100820000A004E6F7A7A6C65205061726B656400C5
:10083000486F74656E6420746F6F20636F6C640A18
:10084000007061757365640050617573650044697B
:100850007361626C6552756E6F7574005075726766
:10086000654D6F7265005061757365640073686FE4
:100870007700627574746F6E00626567696E004C14
:100880006F61642046696C616D656E74004C6F61C8
:10089000642046696C616D656E74205400496E7306
:1008A0006572742066696C616D656E7420616E643A
:1008B0002073656E64204D3130380A00726573759F
:1008C0006D656400526573756D696E670057616987
:1008D00074696E6720666F72206865617475702E2A
:1008E0000A004C656176696E6720473236003F53D7
:1008F000706563696669656420582C5920636F6F61
:100900007264696E617465206F7574206F66206211
:100910006F756E64732E0A003F28522965706561F9
:10092000742076616C7565206E6F7420706C6175D3
:100930007369626C653B206D75737420626520611C
:1009400074206C6561737420312E0A003F2852298F
:100950006570656174206D757374206265207370B5
:1009600065636966696564207768656E206E6F747B
:10097000207573696E6720616E204C43442E0A0017
:100980003F537065636966696564206E6F7A7A6C3F
:10099000652074656D7065726174757265206E6F27
:1009A0007420706C61757369626C652E0A003F5328
:1009B00070656369666965642066696C616D656E02
:1009C000742073697A65206E6F7420706C61757322
:1009D00069626C652E0A003F5370656369666965DC
:1009E00064207072696D65206C656E677468206E36
:1009F0006F7420706C61757369626C652E0A003FBC
:100A00005072696D65206C656E677468206D7573D2
:100A10007420626520737065636966696564207718
:100A200068656E206E6F74207573696E6720616EE5
:100A3000204C43442E0A003F537065636966696524
:100A400064206E6F7A7A6C652073697A65206E6FA8
:100A50007420706C61757369626C652E0A003F5278
:100A6000657472616374696F6E204D756C74697022
:100A70006C696572206D7573742062652073706592
:100A80006369666965642E0A003F53706563696631
:100A90006965642052657472616374696F6E204D7C
:100AA000756C7469706C696572206E6F7420706CFF
:100AB00061757369626C652E0A003F5370656369E6
:100AC00066696564206C617965722068656967682C
:100AD00074206E6F7420706C61757369626C652E22
:100AE0000A0043292E0A003F5370656369666965F1
:100AF00064206265642074656D70657261747572DE
:100B000065206E6F7420706C61757369626C65200E
:100B10002834302D00473236207374617274696E48
:100B2000672E2E2E0A004F46460A00466164652055
:100B30004865696768742000426564204C65766585
:100B40006C696E6720004661696C656420746F2073
:100B5000656E61626C6520426564204C6576656CEB
:100B6000696E670A00496E76616C6964206D657311
:100B7000682E0A0050726F62696E6720506F696E4E
:100B8000740025532025692F2569002E0A002F00A7
:100B900050726F62696E67206D65736820706F694F
:100BA0006E742000202844525952554E2900473275
:100BB00039204175746F20426564204C6576656C00
:100BC000696E67003F20284C2C522C462C4229206D
:100BD0006F7574206F6620626F756E64732E0A00E5
:100BE0003F2856296572626F7365206C6576656C67
:100BF00020696D706C61757369626C652028302D99
:100C000034292E0A00426164205A2076616C756591
:100C10000A004E6F2062696C696E656172206772AE
:100C200069640A00446576696174696F6E002553D2
:100C30003A2025730046696E6973686564210A006D
:100C40003A207A3A2000206F662000476F696E676D
:100C500020746F3A20580043570A00206469723AA2
:100C60000020616E676C653A005374617274207283
:100C700061646975733A004D343820506F696E7441
:100C80000025533A2025642F256400506F73697442
:100C9000696F6E696E67207468652070726F626537
:100CA0002E2E2E0A003F4C656773206F66206D6FF5
:100CB00076656D656E7420696D706C6175736962BF
:100CC0006C652028302D3135292E0A003F20285808
:100CD0002C5929206F7574206F6620626F756E64C1
:100CE000732E0A0050726F6265206F7574206F66F4
:100CF00020626F756E6473003F53616D706C652088
:100D000073697A65206E6F7420706C6175736962A7
:100D10006C652028342D3530292E0A004D343820BA
:100D20005A2D50726F626520526570656174616200
:100D3000696C69747920546573740A003F285629D8
:100D40006572626F7365206C6576656C20696D7085
:100D50006C61757369626C652028302D34292E0A08
:100D6000005374616E6461726420446576696174D5
:100D7000696F6E3A20002052616E67653A2000204C
:100D80004D61783A2000204D696E3A200020536969
:100D9000676D613A20004D65616E3A2000574152FF
:100DA0004E494E4721204C6F77205A204A65726B7E
:100DB000206D6179206C65616420746F20756E7799
:100DC000616E746564207061757365732E0A004FDF
:100DD0004646004F4E0020204D61783A200020000A
:100DE00020204D696E3A2000536F667420656E6452
:100DF00073746F70733A20003D3D4F6E506F77658E
:100E0000724C6F7373526573756D653D3D004D3265
:100E1000342053256C642054256C64004739322EED
:100E20003920452573004731204625640047393273
:100E30002E39205A2573004731205A30204632304F
:100E40003000473120582573205925732046333010
:100E50003030004D34323020532569205A2573003C
:100E60004D3130362050256920532569004D3230F0
:100E700030204425730047323852305859004739E2
:100E8000322E39204530205A300A47315A25730016
:100E90004D31303920532569004D313930205325EB
:100EA00069004D343230205330205A300020496ED2
:100EB00076616C696420657874727564657220006F
:100EC00047322F47332062616420706172616D6523
:100ED000746572730A00536C6565702E2E2E005A6D
:100EE0002050726F62652050617374204265640AFD
:100EF000005A2050726F6265205061737420426501
:100F000064004732384C30004D3131372050726F19
:100F10006265206661696C65642E0A4732380A0092
:100F200070726F62655F726577697065004732390C
:100F3000205265747279696E670050726F62696ED3
:100F400067204661696C6564004D31313720426528
:100F500064206C6576656C696E67206661696C6596
:100F6000642E0A4730205A31300A4D333030205039
:100F7000323520533838300A4D3330302050353038
:100F80002053300A4D33303020503235205338381A
:100F9000300A4D333030205035302053300A4D3335
:100FA00030302050323520533838300A4D3330300D
:100FB000205035302053300A4734205331007072AE
:100FC0006F62655F6661696C6564004D3131372021
:100FD000426564206C6576656C696E6720646F6E2F
:100FE000652E00205A3A200020593A2000426564BC
:100FF00020583A20004D65736820706F696E742028
:101000006F7574206F662072616E67650A004D30DF
:101010002053746F70004D312053746F7000436F14
:101020006E74696E756500436C69636B20746F2024
:10103000526573756D652E2E2E004E6F204D6F76A6
:10104000652E00456E642066696C65206C6973745A
:101050000A00426567696E2066696C65206C697379
:10106000740A004E6F206D656469610A00526573F1
:10107000756D696E6720534400286E6F2066696C39
:1010800065290043757272656E742066696C653AF5
:1010900020005072696E742074696D653A20000AF0
:1010A00053746174733A2046696C616D656E742087
:1010B000757365643A20002C204C6F6E67657374FD
:1010C000206A6F623A2000546F74616C2074696DFD
:1010D000653A200053746174733A20002C204661F5
:1010E000696C65643A20002C2046696E69736865F6
:1010F000643A20005072696E74733A200053746130
:1011000074733A2000436F6F6C696E672E2E2E0049
:1011100048656174696E672E2E2E004520255300A8
:101120006F6B006F6666006A0465045E04570449CD
:101130000444454255473A004D3131332053004273
:10114000656420436F6F6C696E672E2E2E004265BA
:10115000642048656174696E672E2E2E00444458E1
:1011600020453520506C7573204F46462E002F2F9A
:1011700000205200416363656C65726174696F6E33
:101180003A2050004D32303620580046523A002066
:10119000466C6F773A200020643A0020693A0020BC
:1011A000703A00496E76616C696420657874727576
:1011B0006465720A0020643A0020693A0020703A9F
:1011C0000064697300656E0043290A0061626C6502
:1011D0006420286D696E2074656D702000436F6C0B
:1011E000642065787472756465732061726520008F
:1011F000504944204175746F74756E6500504944C0
:10120000204175746F74756E65206661696C6564E4
:101210002120426164206865617465722069640AF6
:101220000046696C616D656E742072756E6F7574C1
:101230002064697374616E636520286D6D293A209E
:101240000046696C616D656E742072756E6F7574A1
:1012500020004D34323120696E636F7272656374A1
:1012600020706172616D6574657220757361676568
:101270000A004D65736820706F696E74206F757415
:10128000206F662072616E67650A004F666673653F
:101290007473204170706C696564004572723A2005
:1012A000546F6F206661722100546F6F2066617207
:1012B0002066726F6D207265666572656E6365206B
:1012C000706F696E740A00454550524F4D204F4B68
:1012D0000A002E0A002028302D31302900207661A6
:1012E0006C7565206F7574206F662072616E67651E
:1012F00000416476616E6365204B3D00506F7765F9
:10130000722D6C6F7373207265636F7665727920CE
:10131000004361703A004D4541545041434B0043F6
:101320004F4F4C45525F54454D50455241545552D4
:1013300045004348414D4245525F54454D5045524A
:101340004154555245004241425953544550504929
:101350004E470041524353004D4F54494F4E5F4D4D
:101360004F44455300544845524D414C5F50524FF5
:1013700054454354494F4E004C4F4E475F46494CED
:10138000454E414D45004155544F5245504F5254E2
:101390005F53445F5354415455530053445F575275
:1013A000495445005245504541540053444341522D
:1013B000440050524F4D50545F535550504F52546B
:1013C00000454D455247454E43595F5041525345A4
:1013D0005200434153455F4C494748545F4252498C
:1013E0004748544E45535300544F47474C455F4C74
:1013F000494748545300534F4654574152455F5054
:101400004F574552004255494C445F504552434561
:101410004E54004C4556454C494E475F444154415B
:10142000005A5F50524F42450052554E4F5554009E
:101430004155544F4C4556454C005052494E545F0F
:101440004A4F420050524F47524553530041555462
:101450004F5245504F52545F54454D5000564F4CDB
:10146000554D455452494300454550524F4D004259
:10147000494E4152595F46494C455F5452414E5383
:101480004645520053455249414C5F584F4E5F58B4
:101490004F4646004649524D574152455F4E414DD9
:1014A000453A4D61726C696E20322E302E375F44A2
:1014B00057372E3320426F6E64746563682045355C
:1014C00050534D4441422028417072203235203221
:1014D0003032312030303A30333A30362920534FD1
:1014E000555243455F434F44455F55524C3A6874EB
:1014F0007470733A2F2F6769746875622E636F6D0D
:101500002F496E73616E6974794175746F6D617482
:10151000696F6E2F4D61726C696E2F747265652FE5
:10152000437265616C6974794477696E5F322E30FD
:101530002050524F544F434F4C5F56455253494FE2
:101540004E3A312E30204D414348494E455F545963
:1015500050453A44445820453520506C7573204519
:10156000585452554445525F434F554E543A3120DA
:10157000555549443A63656465326132662D3431AC
:1015800061322D343734382D396231322D6335359F
:101590006336326633363766660A0050726F6265AC
:1015A000204F6666736574205A0050726F62652022
:1015B0004F6666736574205A00290A0020746F20F4
:1015C000003F5A206F7574206F662072616E6765E8
:1015D000202800290A0020746F20003F59206F75D1
:1015E00074206F662072616E676520282D00290ABD
:1015F0000020746F20003F58206F7574206F6620A4
:1016000072616E676520282D0050726F6265204FF1
:1016100066667365742058004D383400446F6E65FB
:10162000207072696E74696E672066696C650A0065
:101630004D3737004D33310043616E6E6F74206F4C
:1016400070656E207375626469722000256973008D
:1016500025696D20256973002569682025696D203D
:1016600025697300256964202569682025696D2036
:10167000256973002569792025696420256968201A
:1016800025696D20256973003D3D4477696E2049C9
:101690006E697420436F6D706C6574653D3D002A02
:1016A0002A2A4E6F7A7A6C6554656D705374617432
:1016B00075735B325D203D003D3D48656174696E28
:1016C0006720446F6E65204368616E6765204669D8
:1016D0006C616D656E743D3D0020207374617274A1
:1016E00070726F677265737320003D3D7761697436
:1016F00077617920353D3D003D3D776169747761C3
:101700007920343D3D003D3D7761697477617920F2
:10171000333D3D003D3D7761697477617920313D0E
:101720003D003D3D6F6E5072696E7454696D657217
:1017300053746F707065643D3D003D3D6F6E466152
:1017400063746F727952657365743D3D00270A0AB0
:101750000000272027002027002D006E6F74696687
:1017600069636174696F6E200063616E63656C000C
:101770005072696E742041626F72746564004469CE
:10178000736D6973730055492041626F72746564AB
:1017900000726573756D65004D3234002A2A2A4344
:1017A000506C617920546F6E652A2A2A003D3D6F86
:1017B0006E5072696E7454696D65725061757365AF
:1017C000643D3D00486F6D696E67204661696C65D8
:1017D00064006F70656E0054524947474552454456
:1017E000003A200066696C616D656E74007A5F6D09
:1017F000696E00795F6D617800785F6D6178005285
:1018000065706F7274696E6720656E6473746F7053
:10181000207374617475730A0020746F6F206C6F8D
:101820006E6720657874727573696F6E207072656B
:1018300076656E7465640A0020636F6C6420657859
:1018400074727573696F6E2070726576656E7465FB
:10185000640A00486F6D6520257325732573204643
:1018600069727374005761726E696E673A20486FCF
:101870006D696E672042756D702044697669736F7B
:1018800072203C20310A000202040000B443000030
:10189000B443000000000000B4430000B443000063
:1018A000C84300000041000000410000004000006B
:1018B00000010000000100008000555555000000A7
:1018C000400033333300AAAA2A00499224000000C2
:1018D0002000C7711C0099991900D1451700555572
:1018E00015003BB113002449120011111100000032
:1018F00010000F0F0F00E3380E0043790D00CCCC21
:101900000C00C3300C00E8A20B0064210B00AAAA53
:101910000A00703D0A009DD80900427B090092240C
:101920000900DCD308008888080010420800000085
:101930000800F0C107008787070075500700711C79
:1019400007003EEB0600A1BC060069900600666633
:101950000600703E06006118060017F4050074D1F9
:1019600005005BB00500B290050062720500555598
:10197000050078390500B81E0500050505004EEC88
:10198000040087D40400A1BD040090A7040049927C
:101990000400C17D0400EE690400C75604004444FD
:1019A00004005C320400082104004110040000001F
:1019B00004003FF00300F8E0030026D20300C3C395
:1019C0000300CCB503003AA803000A9B0300388E3D
:1019D0000300C08103009F750300D0690300505EBF
:1019E00003001D53030034480300913D03003333CB
:1019F000030016290300381F030097150300300C5D
:101A00000300030303000BFA020049F10200BAE8E5
:101A100002005CE002002DD802002DD0020059C85F
:101A20000200B0C0020031B90200DAB10200AAAA75
:101A30000200A0A30200BC9C0200FA9502005C8F89
:101A40000200DF88020082820200457C02002776C5
:101A5000020027700200436A02007C640200D05E2C
:101A600002003F590200C8530200FFFDFCFAF8F6DD
:101A7000F4F2F0EEECEAE9E7E5E3E1E0DEDCDAD906
:101A8000D7D5D4D2D0CFCDCBCAC8C7C5C3C2C0BFAB
:101A9000BDBCBAB9B7B6B4B3B2B0AFADACAAA9A821
:101AA000A6A5A4A2A1A09E9D9C9A9998979594936F
:101AB00092908F8E8D8B8A8988878684838281809D
:101AC0007F7E7D7B7A797877767574737271706FAB
:101AD0006E6D6C6B6A696867666564636261605F9E
:101AE0005E5D5C5B5A595858575655545352515085
:101AF000504F4E4D4C4B4A4A494847464645444351
:101B0000424241403F3E3E3D3C3B3B3A393838370C
:101B1000363535343332323130302F2E2E2D2C2BBA
:101B20002B2A29292827272625252423232221215A
:101B300020201F1E1E1D1C1C1B1B1A1919181817EC
:101B40001616151514131312121111100F0F0E0E75
:101B50000D0D0C0C0B0A0A090908080707060605F3
:101B6000050404030302020100003D3D6F6E507244
:101B7000696E7454696D6572537461727465643D05
:101B80003D000000B4430000B4430000C84300001F
:101B9000000000000000000000003D3D6F6E537427
:101BA0006F726553657474696E67733D3D003D3DAA
:101BB0006F6E436F6E66696775726174696F6E539D
:101BC000746F72655772697474656E3D3D0053653C
:101BD0007474696E67732053746F726564000A20B1
:101BE000696E6974207A70726F62655F7A6F66667B
:101BF000736574203D20003D3D6F6E436F6E6669D6
:101C00006775726174696F6E53746F726552656146
:101C1000643D3D00454550524F4D20496E69746901
:101C2000616C697A65640A003B20003A0A00202052
:101C30004D363033200020440020204D34313220F6
:101C4000530046696C616D656E742072756E6F75B8
:101C5000742073656E736F723A002055004C004615
:101C6000696C616D656E74206C6F61642F756E6C4C
:101C70006F6164206C656E677468733A0020204D54
:101C8000393030204B004C696E65617220416476BA
:101C9000616E63653A0020204D3835312058005A76
:101CA0002D50726F6265204F666673657400202048
:101CB0004D343133205300506F7765722D4C6F7364
:101CC00073205265636F766572793A002044002074
:101CD000490020204D33303420500020440020495A
:101CE0000020204D3330312050005049442073658E
:101CF0007474696E67733A00204A002020473239B5
:101D0000205720490020204D3432302053004175A7
:101D1000746F20426564204C6576656C696E673A25
:101D20000020204D323036205800486F6D65206FFE
:101D300066667365743A0020580020530020204DD9
:101D4000323035204200416476616E6365643A202A
:101D5000423C6D696E5F7365676D656E745F746933
:101D60006D655F75733E20533C6D696E5F6665659A
:101D700064726174653E20543C6D696E5F7472617B
:101D800076656C5F66656564726174653E20583C7B
:101D90006D61785F785F6A65726B3E20593C6D615A
:101DA000785F795F6A65726B3E205A3C6D61785F3F
:101DB0007A5F6A65726B3E20453C6D61785F655F56
:101DC0006A65726B3E0020540020520020204D3284
:101DD0003034205000416363656C65726174696FD3
:101DE0006E2028756E6974732F7332293A20503C27
:101DF0007072696E745F616363656C3E20523C7201
:101E00006574726163745F616363656C3E20543C0A
:101E100074726176656C5F616363656C3E0020205F
:101E20004D3230312058004D6178696D756D20411B
:101E30006363656C65726174696F6E2028756E6985
:101E400074732F7332293A0020204D3230332058DA
:101E5000004D6178696D756D2066656564726174A9
:101E600065732028756E6974732F73293A00537453
:101E70006570732070657220756E69743A00204435
:101E80000020204D323030205300204469736162BD
:101E90006C65640A0046696C616D656E74207365DB
:101EA0007474696E67733A0020286D6D29002020D4
:101EB000473231202020203B20556E697473206901
:101EC0006E206D6D003D3D6F6E4C6F6164536574A7
:101ED00074696E67733D3D0000803B4400803B4465
:101EE00000002041000096420000A0420000A042F5
:101EF000000048440080CF43D0070000D007000016
:101F0000640000004B00000024F4D43050C38E2045
:101F1000C2A24017828B7011127A910D816CD90A7E
:101F2000A861E108C7586607615143061E4B5D056D
:101F3000C145A7041A411104093D980371393103C1
:101F40004036DB0265339102D4305402802E1D02EC
:101F5000632CEE01752AC501B028A001102781016C
:101F60008F2564012B244B01E0223401AC211F0199
:101F70008D200D01801FFC00841EED00971DDF00E9
:101F8000B81CD200E61BC600201BBC00641AB200BD
:101F9000B219A8000A19A0006A189900D117910077
:101FA00040178B00B516840031167E00B3157900FA
:101FB0003A157300C7146F0058146A00EE136600D8
:101FC0008813630025135E00C7125B006C12570074
:101FD00015125400C111510070114F0021114B0016
:101FE000D61049008D1047004610440002104200F0
:101FF000C00F4000800F3E00420F3C00060F3B0028
:10200000CB0E3800930E37005C0E3500270E3400DF
:10201000F30D3200C10D3100900D3000600D2E0027
:10202000320D2D00050D2C00D90C2B00AE0C290013
:10203000850C29005C0C2700350C27000E0C2600AF
:10204000E80B2400C40B2400A00B23007D0B23000D
:102050005A0B2100390B2100180B2000F80A1F0031
:10206000D90A1E00BB0A1E009D0A1D00800A1D0021
:10207000630A1C00470A1B002C0A1B00110A1A00E5
:10208000F7091A00DD091900C4091900AB09190084
:10209000920917007B091800630917004C09160004
:1020A00036091600200916000A091500F508150062
:1020B000E0081400CC081400B8081400A4081400A8
:1020C000900813007D0812006B08130058081200D6
:1020D00046081200340811002308110012081100EC
:1020E00001081100F0071000E0071000D0071000F1
:1020F000C0071000B0070F00A107100091070E00E5
:1021000083070F0074070F0065070E0057070E00C6
:1021100049070E003B070D002E070E0020070D009B
:1021200013070D0006070D00F9060C00ED060D0063
:10213000E0060C00D4060C00C8060C00BC060C001F
:10214000B0060C00A4060B0099060C008D060B00CF
:1021500082060B0077060B006C060B0061060A0076
:1021600057060B004C060A0042060A0038060A0011
:102170002E060A0024060A001A060A0010060900A4
:1021800007060A00FD050900F4050900EB05090032
:10219000E2050900D9050900D0050900C7050900B5
:1021A000BE050900B5050800AD050800A505090034
:1021B0009C050800940508008C05080084050800AB
:1021C0007C050800740508006C050700650508001B
:1021D0005D050700560508004E0507004705070086
:1021E0004005080038050700310507002A050700EB
:1021F000230507001C050600160507000F0507004C
:102200000805060002050700FB040600F5040700A8
:10221000EE040600E8040600E2040700DB04060002
:10222000D5040600CF040600C9040600C304060056
:10223000BD040600B7040600B1040500AC040600A6
:10224000A6040600A00405009B04060095040500F2
:10225000900406008A040500850405008004060039
:102260007A04050075040500700405006B04050080
:1022700066040500610405005C04050057040500C0
:10228000520405004D040500480405004304050000
:102290003E0404003A04050035040500300404003F
:1022A0002C04050027040400230405001E04040078
:1022B0001A04040016040500110404000D040400AF
:1022C000090405000404040000040400FC030400E5
:1022D000F8030400F4030400F0030400EC0304001A
:1022E000E8030400E4030400E0030400DC0304004A
:1022F000D8030400D4030400D0030400CC0304007A
:10230000C8030300C503030024F404D9201BC40C34
:102310005C0E9804C4095F0265077101F405F900B9
:10232000FB04B30048048700C1036900580355004B
:1023300003034500BE023A008402310053022A0022
:102340002902250004022000E4011C00C801190034
:10235000AF011700980114008401130071011000EF
:102360006101100051010E0043010D0036010B0008
:102370002B010B0020010B00150109000C010900C5
:1023800003010800FB000800F3000800EB00070051
:10239000E4000600DE000600D8000600D2000600B9
:1023A000CC000500C7000500C2000500BD00040008
:1023B000B9000400B5000400B1000400AD00040041
:1023C000A9000400A5000300A20003009F00040070
:1023D0009B00030098000300950002009300030097
:1023E000900003008D0002008B00030088000200B3
:1023F0008600020084000300810002007F000200CA
:102400007D0002007B0002007900020077000100DD
:1024100076000200740002007200010071000200E8
:102420006F0002006D0001006C0002006A000100F4
:1024300069000200670001006600010065000100FC
:102440006400020062000100610001006000010000
:102450005F0002005D0001005C0001005B00010004
:102460005A00010059000100580001005700010006
:102470005600010055000100540001005300000007
:102480005300010052000100510001005000010002
:102490004F0001004E0000004E0001004D00010001
:1024A0004C0001004B0000004B0001004A000100FD
:1024B00049000100480000004800010047000100F9
:1024C00046000000460001004500000045000100F4
:1024D00044000100430000004300010042000000EE
:1024E00042000100410000004100010040000100E5
:1024F0003F0000003F0001003E0000003E000100E0
:102500003D0000003D0001003C0000003C000000D8
:102510003C0001003B0000003B0001003A000000CD
:102520003A000100390000003900010038000000C5
:1025300038000000380001003700000037000100BB
:1025400036000000360000003600010035000000B3
:1025500035000000350001003400000034000000A8
:10256000340001003300000033000000330001009C
:102570003200000032000000320001003100000093
:102580003100000031000100300000003000000088
:10259000300001002F0000002F0000002F0000007D
:1025A0002F0001002E0000002E0000002E00010070
:1025B0002D0000002D0000002D0000002D00010066
:1025C0002C0000002C0000002C0000002C0001005A
:1025D0002B0000002B0000002B0000002B0001004E
:1025E0002A0000002A0000002A0000002A00010042
:1025F0002900000029000000290000002900000037
:102600002900010028000000280000002800000028
:10261000280000002800010027000000270000001B
:10262000270000002700000027000100260000000E
:102630002600000026000000260000002600010001
:1026400025000000250000002500000025000000F6
:1026500025000000250001002400000024000000E7
:1026600024000000240000002400010023000000DA
:1026700023000000230000002300000023000000CE
:1026800023000000230001002200000022000000BF
:1026900022000000220000002200000022000100B1
:1026A00021000000210000002100000021000000A6
:1026B0002100000021000000210001002000000096
:1026C000200000002000000020000000200000008A
:1026D0002000000020000000200001001F0000007A
:1026E0001F0000001F0000001F0000001F0000006E
:1026F0001F0000001F0001001E0000001E0000005F
:102700001E0000001E000000232C0000B822000064
:10271000561800003A0F0000B8080000B10400008D
:10272000710200003E01000020436F756E74205856
:102730003A0023646566696E652044454641554C00
:10274000545F0000626564004B6420004B69200008
:102750004B702000504944204175746F74756E654C
:102760002066696E697368656421205075742074F1
:102770006865206C617374204B702C204B6920615C
:102780006E64204B6420636F6E7374616E7473208B
:1027900066726F6D2062656C6F7720696E746F2052
:1027A000436F6E66696775726174696F6E2E680A31
:1027B00000504944204175746F74756E65206661E0
:1027C000696C6564212074696D656F75740A0050C9
:1027D0004944204175746F74756E65206661696C3B
:1027E0006564212054656D70657261747572652031
:1027F000746F6F20686967680A00204B643A200094
:10280000204B693A2000204B703A200020436C6135
:102810007373696320504944200A00204E6F206F73
:1028200076657273686F6F740A002054753A2000E1
:10283000204B753A2000206D61783A2000206D69A8
:102840006E3A200020643A200020626961733A20C9
:1028500000504944204175746F74756E652073741F
:102860006172740A00504944204175746F74756E2A
:1028700065206661696C6564212054656D706572C0
:10288000617475726520746F6F20686967680A00EB
:1028900042656400453100626564002C20737973E1
:1028A00074656D2073746F70706564212048656174
:1028B0007465725F49443A200048656174696E67C7
:1028C000204661696C65640048656174696E6720C3
:1028D0006661696C6564004D3131322053687574EE
:1028E000646F776E001000C90210012C01400122B4
:1028F0000170011801B0010E01F00104015002FA4B
:1029000000B002F0003003E600D003DC009004D2F7
:10291000007005C800A006BE000008B400B009AAF7
:1029200000D00BA000600E960060118C0000158294
:102930000020197800C01D6E00A0226400B0275A44
:1029400000902C500000314600E0343C001038323A
:1029500000903A2800603C1E00A03D1400803E0A12
:1029600000203F0000544845524D414C2052554EE6
:102970004157415900546865726D616C2052756E03
:1029800061776179004572723A204D415854454D46
:1029900050004D415854454D502074726967676529
:1029A000726564004572723A204D494E54454D504F
:1029B000004D494E54454D502074726967676572E9
:1029C000656400202F002042403A0020403A002059
:1029D000573A0020573A00496E76616C6964206569
:1029E000787472756465720A007C3C3E5E2B3D3FD4
:1029F0002F5B5D3B2C2A225C0043616E6E6F74205E
:102A00006F70656E20737562646972200053442094
:102A1000496E6974204661696C0053442063617299
:102A200064206F6B0A006F70656E526F6F74206662
:102A300061696C65640A00766F6C756D652E696EF0
:102A40006974206661696C65640A004E6F205344A6
:102A500020636172640A000A4D3234004D32332023
:102A60002573002E0A006F70656E206661696C65C3
:102A7000642C2046696C653A200046696C652073B9
:102A8000656C65637465640A002053697A653A2051
:102A90000046696C65206F70656E65643A2000457C
:102AA0004E4420535542524F5554494E450A002238
:102AB00020706F73002220706172656E743A22007C
:102AC000535542524F5554494E452043414C4C209A
:102AD0007461726765743A220053756263616C6C4D
:102AE000204F766572666C6F770045786365656424
:102AF0006564206D617820535542524F5554494EBC
:102B0000452064657074683A002E0A0044656C655F
:102B100074696F6E206661696C65642C2046696C0F
:102B2000653A200046696C652064656C657465646F
:102B30003A005344207072696E74696E672062793E
:102B4000746520004E6F74205344207072696E7457
:102B5000696E670A0057726974696E6720746F2026
:102B600066696C653A2000667265736800646F6917
:102B70006E67002066696C653A20004E6F77200012
:102B80002F6175746F25632E67002020506C616E75
:102B90006E657242756666657242797465733A2035
:102BA000002046726565204D656D6F72793A200090
:102BB000436F6D70696C65643A20417072203235E4
:102BC00020323032310A00204C6173742055706419
:102BD000617465643A20323032312D30342D313811
:102BE000207C20417574686F723A20426F6E647465
:102BF000656368202F20496E73616E697479417531
:102C0000746F6D6174696F6E0A00322E302E375FFB
:102C10004457372E330A004D61726C696E002053A1
:102C20006F6674776172652052657365740A00205F
:102C30005761746368646F672052657365740A0036
:102C40002042726F776E206F7574205265736574C1
:102C50000A002045787465726E616C205265736558
:102C6000740A00506F77657255700A007374617250
:102C7000740A004732385859004D31303031006500
:102C800072726F722077726974696E6720746F2038
:102C900066696C650A00446F6E6520736176696EC3
:102CA000672066696C652E0A004D323900456E64F6
:102CB00073746F70730025532025632025632025CE
:102CC0006320256300205A3A0020593A0020583AE0
:102CD00000656E6473746F7073206869743A2000C5
:102CE00000000A0B02090C0D0E0807030401000086
:102CF00000000000000000000000000000000000D4
:102D00000000000000000000000000001211100090
:102D100000000000000000000000000000000000B3
:102D20000000000000006001F4017001EA01900160
:102D3000E001B001D601D001CC010002C201300295
:102D4000B8016002AE019002A401D0029A012003F2
:102D5000900170038601C0037C0130047201A0045D
:102D6000680120055E01B005540160064A01200794
:102D70004001F0073601F0082C01100A2201500B27
:102D80001801C00C0E01500E04013010FA00201280
:102D9000F0005014E600C016DC007019D200501C80
:102DA000C800501FBE007022B400B025AA00F02851
:102DB000A000202C9600302F8C0010328200A0340E
:102DC0007800F0366E00E0386400803A5A00403BEC
:102DD0005500E03B5000F03C4600C03D3C00603EEA
:102DE0003200E03E2800303F1E00503F1900703F87
:102DF0001400A03F0A00C03F0000D03FF6FFE03FB4
:102E0000ECFF0101FF50726F62696E6720466169D5
:102E10006C656400205A3A200020593A200042652F
:102E20006420583A20003D3D6F6E55736572436FC4
:102E30006E6669726D52657175697265643D3D00BB
:102E4000220A00556E6B6E6F776E20636F6D6D6139
:102E50006E643A2022002042002050006F6B002058
:102E60004500205A00205900204D393220580020BA
:102E7000453A00205A3A0020593A00583A00207446
:102E80006F6F206C6F6E6720657874727573696FF1
:102E90006E2070726576656E7465640A0020636FDB
:102EA0006C6420657874727573696F6E20707265DA
:102EB00076656E7465640A0043616E6E6F7420659A
:102EC0006E746572207375626469723A20004D32C7
:102ED0003520500A4D323400526573756D650055CA
:102EE00049205061757365004E6F204D61746368B1
:102EF000203A0050675570005067446F776E004964
:102F0000732046696C652000497320446972200073
:102F1000476F557044697200486173204D6564695C
:102F2000610046696C656E616D652053656C656313
:102F3000746564004D3130303043004D31303030F5
:102F40000046696C616D656E742053746174203045
:102F5000202D20330046696C616D656E74205374BA
:102F600061742030202D20320046696C616D656EE1
:102F70007420537461742030202D20310020466964
:102F80006C616D656E7420526573706F6E73652031
:102F90004E6F00526573756D6520596573206475B9
:102FA00072696E67207072696E74000A204E6F201D
:102FB00046696C616D656E7400496E76616C69641A
:102FC000204F7074696F6E004D3530300053746F50
:102FD00072652053657474696E677300426564207E
:102FE0005049442053746172746564004D39393915
:102FF0000A4D32383050305331363000424C546F25
:10300000756368205265736574004D3530320A4D22
:1030100035303000496E697420454550524F4D009F
:10302000486F74656E642050494420537461727413
:10303000656400456E676C69736820416C726561F8
:10304000647920536574004368696E657365204E2A
:103050006F7420537570706F7274656400496E4CA4
:10306000616E6743686F696365000A202A2A2A72C5
:1030700065636461742E646174615B305D203D0042
:103080004732380A4731204631303030205A31300B
:1030900000556E737570706F72746564204F707434
:1030A000696F6E2053656C656374656400473236E2
:1030B00052323535004D3139305335350A473238C3
:1030C0000A4732390A4D3430300A4D3130345332E8
:1030D00031350A4732380A4D313039533231350AE9
:1030E0004D34323053310A47315831303059313054
:1030F0003046353030300A47315A300A4D3530309D
:103100000A4D31313720536574205A204F6666735B
:103110006574004731204631303030205A302E302F
:10312000004732380A4731204631303030205A309B
:103130002E30004D353030005A204F66667365746E
:10314000203A202573004D353030005A204F6666F6
:10315000736574203A202573004732380A47314698
:10316000313530305A302E30004732385A0A473124
:1031700046313530305A302E30004D38340047312A
:1031800046313030305A302E30004732380A47311D
:1031900046313030305A302E30004D616E75616CE2
:1031A00053657454656D70005A204F66667365747C
:1031B000203A2025730053746F702054726967673A
:1031C000657265640053746F70204E6F0053746FA6
:1031D000705072696E740048616E646C6520446161
:1031E00074612041646A757374203220536574746D
:1031F000696E672053637265656E200048616E6476
:103200006C652044617461205072696E7446696C0B
:103210006520332053657474696E6720536372654B
:10322000656E200048616E646C65204461746120A5
:103230005072696E7446696C6520322053657474EF
:10324000696E672053637265656E20004D383400E7
:1032500048616E646C652044617461205072696ECF
:103260007446696C6520506F73740048616E646CBD
:10327000652044617461205072696E7446696C65A2
:103280002050726500426567696E537769746368A0
:10329000003D3D20436865636B6B65793D3D007281
:1032A00065636461742E61646472203D3D007265E3
:1032B000636461742E646174615B305D203D3D0028
:1032C00077616974776179203D3D0020202A2A2AA0
:1032D0002A2A2A2A5254535F48616E646C654461FD
:1032E00074612A2A2A2A2A2A2A2A2000526573650A
:1032F0006E643A200000002200250028002B002EDA
:10330000003100340002010000050108010B01003A
:10331000002100240027002A002D00300033000186
:10332000010000040107010A01050505050705085C
:10333000080808020202020A0A0808040404040138
:10334000010101010101010303030303030303045A
:103350000707070C0C0C0C0C0C0C0C0202020206EA
:10336000060606060606060B0B0B0B0B0B0B0B01DA
:103370000210202008081020401020408002010286
:10338000010804020101020408102040808040204E
:103390001008040201800402018040201008040289
:1033A0000108040201010204081020408001020407
:1033B000081020408044445820453520506C7573D7
:1033C0002052656164792E005072696E74696E676F
:1033D0002E2E2E005072696E7420506175736564D4
:1033E000006E6F74696669636174696F6E20005066
:1033F00049442054756E652046696E69736865643A
:103400000000EE001E0111241FBECFEFD1E2DEBF8F
:10341000CDBF00E00CBF14E0A0E0B2E0E8EFFEE5B5
:1034200002E00BBF02C007900D92A831B107D9F797
:1034300026E1A8E1B4E001C01D92AC35B207E1F786
:103440001AE1C2E0DAE100E006C021970109802F0D
:10345000FE010F94A92BC130D10780E00807A9F71E
:103460000F94A8190D946A2F0C9400009F92AF92AC
:10347000BF92CF92DF92EF92FF920F931F93CF9361
:10348000DF9300D01F921F92CDB7DEB7EAE6FAE1D4
:103490000027BB27462F572FA82FAA2341F4A52F7B
:1034A000542FB85FAA2319F4A52F5527B85FA03170
:1034B00038F45295A295452F4F70507FA42BBC5FD6
:1034C000A03428F4550FAA1F550FAA1FBE5FA038BD
:1034D00018F4550FAA1FB395550FAA1FEA0FF01F36
:1034E000449151E0AA27B85081F1C8F0B0FF02C062
:1034F000440F551FB1FF04C0440F551F440F551F03
:10350000B2FF06C052954295142F1F70407F512B79
:10351000B3FF1BC0A52F542F44270C94A51AB195B7
:10352000B0FF02C055954795B1FF04C0559547952A
:1035300055954795B2FF05C05295407F4295452B62
:103540005F70B3FF02C0452F5527DD24CC24BB2478
:10355000B2E0649FD018C108B00AB00B749FC018C5
:10356000B108B00B849FB018B109659FC018B108AD
:10357000B00B759FB018B109859FB0196A9FB0183C
:10358000B1097A9FB0194D9DA12C99243327992711
:1035900022275D9DA00C911C301F901F201FAD9D08
:1035A000900C311D901F201F4C9DA00C911C301FB2
:1035B000901F201F5C9D900C311D901F201FAC9D03
:1035C000300D911D201F4B9D900C311D901F201F11
:1035D0005B9D300D911D201FAB9D900D211D4B9FBC
:1035E000300D911D201F5B9F900D211DAB9F200D65
:1035F000B1E0BB24CC24DD24639FD018C108B00AFD
:10360000B00B739FC018B108B00B839FB018B109FD
:10361000699FC018B108B00B799FB018B109899F94
:10362000B019629FB018B109729FB019D61AC70AB3
:10363000B80A20F0B1E03B0F901F201F1124792F12
:10364000632F90E0822F0F900F900F900F900F90AC
:10365000DF91CF911F910F91FF90EF90DF90CF906E
:10366000BF90AF909F900895AF92BF92CF92DF929C
:10367000EF92FF920F931F93CF93DF93C6EADCE0A4
:1036800009EF18E086EBA82E8CE0B82EC12CD12CC7
:103690007601C39469917991899199910F94F3245A
:1036A000288939894A895B890F9454250F94252DDF
:1036B000F80161937193819391938F01C616D70698
:1036C000E806F90610F46B017C01AC16BD0611F793
:1036D0006FEF7FEFCB01A70196010F94322B209360
:1036E000090930930A0940930B0950930C09DF91A3
:1036F000CF911F910F91FF90EF90DF90CF90BF90EF
:10370000AF900895CF92DF92EF92FF9280911508CB
:10371000882309F457C0C0901108D0901208E09097
:103720001308F090140820E030E0A901C701B601A9
:103730000F94EE24882309F445C020E030E040E0F7
:103740005FE3C701B6010F9454259B01AC010F94B0
:1037500054252BED3FE049E450E40F9454259B01A0
:10376000AC0160E070E080E89FE30F94AC2C6B014B
:103770007C01C092A20CD092A30CE092A40CF09217
:10378000A50C60917D0270917E02072E000C880BC3
:10379000990B0F94F5242AE037ED43E25CE30F9494
:1037A0005425A70196010F945425609379027093D4
:1037B0007A0280937B0290937C02FF90EF90DF90DF
:1037C000CF900895C12CD12C80E8E82E8FE3F82EFD
:1037D000D0CF0F931F93CF93DF9350E0FC01E40F02
:1037E000F51F8081440F551F440F551F49545A4FF0
:1037F000EA01882329F188819981AA81BB81EB01A3
:10380000088119812A813B810097A105B10569F4DE
:103810000C591F4F2F4F3F4FDA010D931D932D93DE
:103820003C9313978FEF808306C0081B190B2A0B5C
:103830003B0B37FDF7CFDF91CF911F910F9108958B
:10384000188219821A821B82F6CFCF93DF9324E06D
:10385000829FC0011124EC01C451D74FFC01EE5DE1
:10386000F74F8A5E974FDC012D913D914D915C9110
:1038700060817181828193810F94B22B68837983F7
:103880008A839B83DF91CF9108958091B2059091B7
:10389000B305A091B405B091B5058093490290930A
:1038A0004A02A0934B02B0934C028091B0059091D4
:1038B000B1059093800280937F0208958091490220
:1038C00090914A02A0914B02B0914C028093B205B4
:1038D0009093B305A093B405B093B50580917F0292
:1038E000909180029093B1058093B00584E690E0BA
:1038F0009093800280937F0208958091A512909109
:10390000A612891B877089F48091F90D81110DC071
:103910008091EE0C9091EF0C892B39F481E090911D
:10392000C006911103C080E0089581E00895CF930F
:10393000DF93DB01F9019C919130C1F0943080F06C
:1039400094509C938830D1F480819181009771F0DC
:10395000019791838083480F591FEA01188206C09E
:103960008C3539F49C5F9C93943041F4DF91CF9176
:1039700008958B3339F781E08C93F8CF2081318122
:10398000B9016F5F7F4F71836083420F531FEA015C
:103990008883808191818F3591056CF7E7CF0F93F4
:1039A0001F9381E00091591410915A1420915B14D7
:1039B00030915C14409155145091561460915714F5
:1039C00070915814041715072607370708F480E08C
:1039D0001F910F91089590E080E00895282F909115
:1039E0001008833021F495FD0FC094FD0FC0892F7E
:1039F00090E0B0E0A0E004C0B695A79597958795B4
:103A00002A95D2F78170089581E0089580E00895A5
:103A1000FC01659175918591949108958F929F9283
:103A2000AF92BF92CF92DF92EF92FF92CF93DF934C
:103A3000EC018090E8089090E908A090EA08B09026
:103A4000EB0820E030E0A901C501B4010F94EE2499
:103A5000882309F454C0C880D980EA80FB80A7017C
:103A60009601C501B4010F94EE2418160CF04CC059
:103A70002091E0083091E1084091E2085091E3087C
:103A8000C701B6010F94EE24882331F1C092E008FB
:103A9000D092E108E092E208F092E3082091E40875
:103AA0003091E5084091E6085091E70868817981F6
:103AB0008A819B810F9454259B01AC0160E070E0EA
:103AC00080E89FE30F94B12B60930F027093100274
:103AD000809311029093120260910F027091100274
:103AE0008091110290911202DF91CF91FF90EF909F
:103AF000DF90CF90BF90AF909F908F90089560E03F
:103B000070E080E89FE3F0CF60E070E0CB01ECCFA5
:103B1000CF92DF92EF92FF92CF93DF93EC01CC80B4
:103B2000DD80EE80FF8027E137EB41ED58EBC701E8
:103B3000B6010F94122E87FD23C023E030E044EB42
:103B400053E4C701B6010F94EE241816CCF0C880D8
:103B5000D980EA80FB8027E137EB41ED58EBC701C4
:103B6000B6010F94122E87FD0BC0C1E023E030E0B8
:103B700044EB53E4C701B6010F94EE2418160CF47D
:103B8000C0E08C2FDF91CF91FF90EF90DF90CF902E
:103B900008952FEB280F2A3108F047C0E22FF0E0FC
:103BA00080914C0590914D05A0914E05B0914F0527
:103BB00004C0B695A795979587952A95D2F780FD6D
:103BC00002C081700895E25DFA4FE081EE2341F179
:103BD0008091A6079091A707E80FF92FF11D80812A
:103BE00090ED980F9A3030F08E3251F481818053ED
:103BF0008A3098F4F0931D05E0931C0581E0089548
:103C00008D3211F08B3249F4818190ED980F9A300A
:103C100088F38E3211F48281EACFF0E0E0E0EACF5F
:103C200010921D0510921C05E9CF80E008950E94B6
:103C3000C91D882341F081E020911C0530911D05AC
:103C4000232B09F480E008958F929F92AF92BF9248
:103C5000CF92DF92EF92FF92C090EE05D090EF05E9
:103C6000E090F005F090F10520E030E0A901C701F7
:103C7000B6010F94EE248823E1F1A701960160E0DC
:103C800070E080E89FE30F94AC2C6B017C01809086
:103C9000F2059090F305A090F405B090F50520E0B2
:103CA00030E0A901C501B4010F94EE24882329F165
:103CB000A501940160E070E080E89FE30F94AC2CD4
:103CC000C092F204D092F304E092F404F092F5046E
:103CD0006093F6047093F7048093F8049093F904CA
:103CE000FF90EF90DF90CF90BF90AF909F908F901C
:103CF0000895C12CD12C7601CACF60E070E0CB01D1
:103D0000DFCF129A08955F9A8091A00C8E7F8093E6
:103D1000A00C8A9A8091A00C8D7F8093A00C80913A
:103D2000080180958170809306018091A00C8B7FA3
:103D30008093A00C0C94811E269A2E9A0895833BA2
:103D400021E0920714F083EB91E090935612809358
:103D500055120C9405F3EAE2F6E010821182128209
:103D6000138214820C9405F34F925F926F927F92AC
:103D70008F929F92AF92BF92CF92DF92EF92FF927B
:103D80000F931F93CF93DF93EC012091E6053091C1
:103D9000E7054091E8055091E905688179818A81BC
:103DA0009B810F94B12B6B017C012091EA0530912E
:103DB000EB054091EC055091ED056C817D818E8184
:103DC0009F810F94B12B4B015C01A701960160917B
:103DD00003027091040280910502909106020F94F3
:103DE000EE24882309F450C0C0920302D09204024A
:103DF000E0920502F09206022091F2043091F30461
:103E00004091F4045091F504C701B6010F94542574
:103E10002B013C010F94542D6B017C0120E030E01C
:103E2000A9010F94EE2487FD70C020E030E040E44B
:103E300050E4C701B6010F94122E18162CF4C12CB1
:103E4000D12CC0E4EC2EFE2CA7019601C301B201D7
:103E50000F94B12B6093EA047093EB048093EC040D
:103E60009093ED04C701B6010F941E2D6093E804F2
:103E7000062E000C770B6F5F7F4F6430710514F0D6
:103E800064E070E06093E604D09101021091E804D0
:103E9000A5019401609107027091080280910902C6
:103EA00090910A020F94EE24811133C0D11381C086
:103EB0002091CE043091CF044091D0045091D10490
:103EC0006091EA047091EB048091EC049091ED0410
:103ED0000F9454252091D2043091D3044091D404FE
:103EE0005091D5040F94B22BDF91CF911F910F9178
:103EF000FF90EF90DF90CF90BF90AF909F908F900A
:103F00007F906F905F904F900895C12CD12C7601D7
:103F10009BCF8092070290920802A0920902B09271
:103F20000A022091F6043091F7044091F804509170
:103F3000F904C501B4010F9454254B015C010F94A1
:103F4000542D6B017C0120E030E0A9010F94EE2498
:103F500087FDF3C020E030E040E450E4C701B60143
:103F60000F94122E18162CF4C12CD12CB0E4EB2E89
:103F7000FE2CA7019601C501B4010F94B12B6093EB
:103F8000EE047093EF048093F0049093F104C70162
:103F9000B6010F941E2D6093E904062E000C770BDA
:103FA0006F5F7F4F6430710514F064E070E06093E0
:103FB000E704C091E904D11305C0809102028C1777
:103FC00009F470C08091E8049091E9049093020292
:103FD000809301020C2E000CDD0B25E01203C001C2
:103FE0001124FC01EC0FFD1FEE0FFF1FEE0FFF1F52
:103FF000E455F84F20813181428153812093E204BE
:104000003093E3044093E4045093E5040091E70403
:10401000002E000C110BFC01E00FF11FEE0FFF1F33
:10402000EE0FFF1FE455F84F60817181828193810B
:104030000F94B12B6093DE047093DF048093E0044F
:104040009093E1042091E60435E02303F00111246C
:10405000CE0FDF1FCC0FDD1FCC0FDD1FC455D84F97
:10406000288139814A815B812093DA043093DB0413
:104070004093DC045093DD04E00FF11FEE0FFF1FAF
:10408000EE0FFF1FE455F84F6081718182819381AB
:104090000F94B12B6093D6047093D7048093D80407
:1040A0009093D9048090EE049090EF04A090F004D7
:1040B000B090F1042091DE043091DF044091E004DF
:1040C0005091E104C501B4010F9454252091E204FC
:1040D0003091E3044091E4045091E5040F94B22B35
:1040E0006B017C01C092D204D092D304E092D4043C
:1040F000F092D5042091D6043091D7044091D80491
:104100005091D904C501B4010F9454252091DA04CB
:104110003091DB044091DC045091DD040F94B22B0C
:10412000A70196010F94B12B6093CE047093CF0436
:104130008093D0049093D104BBCEC12CD12C7601B6
:1041400018CFCF92DF92EF92FF92CF93DF93EC01E3
:1041500008960E940E1D6B017C0120E030E0A90151
:104160000F94EE2420E030E0A901882359F0CE011D
:104170000E94B41E9B01AC01C701B6010F945425E7
:104180009B01AC01688579858A859B850F94B12B4D
:10419000688779878A879B87DF91CF91FF90EF901F
:1041A000DF90CF9008952F923F924F925F926F923F
:1041B0007F928F929F92AF92BF92CF92DF92EF92B7
:1041C000FF920F931F93CF93DF93D62FC72FFC013E
:1041D00080809180A280B380C501B40120E831E5E0
:1041E00041E050E00F94322BC9016DE671E00F946D
:1041F000952B6B017C01C501B40120E13EE040E05C
:1042000050E00F94322BCA01B90128E130E040E0C0
:1042100050E00F94322B362E272E062F172F8CE3CB
:10422000482E512C612C712CC501B401A3019201BF
:104230000F94322BB62EA72ECA01B901A301920109
:104240000F94322BCB01C114D10479F1AF92BF92FC
:104250007F936F932F923F92FF92EF92DF92CF92D4
:1042600084E796E19F938F93CF93DF930F948524F8
:104270008DB79EB70E960FB6F8949EBF0FBE8DBF3A
:104280008D2F9C2FDF91CF911F910F91FF90EF9079
:10429000DF90CF90BF90AF909F908F907F906F9066
:1042A0005F904F903F902F900895E114F104C9F072
:1042B000AF92BF927F936F932F923F92FF92EF92B4
:1042C00084E696E19F938F93CF93DF930F94852499
:1042D000EDB7FEB73C960FB6F894FEBF0FBEEDBF2C
:1042E000CFCF012BB9F0AF92BF927F936F932F92F4
:1042F0003F9288E596E19F938F93CF93DF930F943E
:1043000085248DB79EB70A960FB6F8949EBF0FBE50
:104310008DBFB6CF892BA9F0AF92BF927F936F93D9
:1043200080E596E19F938F93CF93DF930F9485243D
:10433000EDB7FEB738960FB6F894FEBF0FBEEDBFCF
:104340009FCFAF92BF928CE496E19F938F93CF93D0
:10435000DF930F9485240F900F900F900F900F9084
:104360000F908ECFEF92FF920F931F93CF93DF9317
:10437000CDB7DEB78C01EDB6FEB60F943B240196A7
:104380002DB73EB7281B390B0FB6F8943EBF0FBEB2
:104390002DBF8DB79EB70196B8010F9434240F94AA
:1043A000E0150FB6F894FEBE0FBEEDBEDF91CF91C3
:1043B0001F910F91FF90EF9008958C38910514F0A4
:1043C0008CE890E09093EB118093EA110C9474BB0D
:1043D000AB01BC014093591450935A1460935B1481
:1043E00070935C1481EC95E10C942CAC2F923F926D
:1043F0004F925F926F927F928F929F92AF92BF92F5
:10440000CF92DF92EF92FF920F931F93CF93DF93A0
:10441000CDB7DEB760970FB6F894DEBF0FBECDBF45
:104420008B876C87042F122F282F30E03E872D8733
:10443000462F50E05A87498785E0982E929EC0010A
:10444000939E900D1124988B8F87FA01E80FF91F26
:10445000EE0FFF1FEE0FFF1FE455F84F60817181D3
:10446000828193819B01AC010F94A42E882309F4CF
:1044700045C14B85400F6C85610F949EC00111248E
:10448000E985FA85E80FF91FEE0FFF1FEE0FFF1FFA
:10449000E455F84FC080D180E280F380040F909EF5
:1044A000A0011124E985FA85E40FF51FEE0FFF1F27
:1044B000EE0FFF1FE455F84F0081918082807380DA
:1044C000262F30E0EF85F889E20FF31FEE0FFF1F74
:1044D000EE0FFF1FE455F84F2080718179837281C0
:1044E0007A8373817B83610F70E0EF85F889E60F33
:1044F000F71FEE0FFF1FEE0FFF1FE455F84FF88B6D
:10450000EF87F081FC83EF85F889F181FD83EF85EA
:10451000F889F281FE83EF85F889F381FF83FC013E
:10452000E20FF31FEE0FFF1FEE0FFF1FE455F84FD2
:1045300020812887A180B2806380FA01E60FF71FEF
:10454000EE0FFF1FEE0FFF1FE455F84F4080518024
:1045500032801381202F392D482D572D602F792D32
:10456000882D972D0F94A42E882321F000E0912C04
:10457000812C712C9601A701B601C7010F94A42EBE
:10458000882321F0C02ED92CE82CF72C2C813D81DA
:104590004E815F816C817D818E819F810F94A42EDD
:1045A000882321F01C821D821E821F82222D3981C8
:1045B0004A815B81622D79818A819B810F94A42E2F
:1045C000882339F02C803D8139834E814A835F8175
:1045D0005B839201432D512FB201832D912F0F94B4
:1045E000A42E882321F0412C512C312C10E0288559
:1045F0003A2D4B2D562D68857A2D8B2D962D0F94A7
:10460000A42E882321F04886A52CB32C612E85E0AA
:104610002D853E85829FF001839FF00D11244985F1
:104620005A85E40FF51FEE0FFF1FEE0FFF1FE45535
:10463000F84FFA87E9879601A701B601C7010F94E1
:10464000B22B202F392D482D572D0F94B12B6B01F4
:104650007C01222D39814A815B81622D79818A8199
:104660009B810F94B22B2C813D814E815F810F94F1
:10467000B12B9B01AC01C701B6010F94B22B6B01AA
:104680007C0128853A2D4B2D562D68857A2D8B2D52
:10469000962D0F94B22B9201432D512F0F94B12BD5
:1046A0009B01AC01C701B6010F94B22B20E030E0B2
:1046B00040E450E40F94AC2CE985FA856083718363
:1046C000828393836C858B8560960FB6F894DEBFEA
:1046D0000FBECDBFDF91CF911F910F91FF90EF9053
:1046E000DF90CF90BF90AF909F908F907F906F9012
:1046F0005F904F903F902F900D943E1460960FB6B0
:10470000F894DEBF0FBECDBFDF91CF911F910F9107
:10471000FF90EF90DF90CF90BF90AF909F908F90E1
:104720007F906F905F904F903F902F900895809171
:104730001C0590911D05009731F04AE050E070E0B3
:1047400060E00D94092360E070E0CB010895809152
:104750001C0590911D05009731F04AE050E070E093
:1047600060E00D94DB2160E070E0CB010895CF9311
:10477000DF93EB010E94171E882319F00E94A723E4
:10478000EB01CE01DF91CF9108950E94A72397FD01
:104790000CC00E94A7236F3F71058105910509F0A8
:1047A00034F40E94A723862F089580E008958FEFA8
:1047B0000895CF93C62F0E94171E882319F0CF911A
:1047C0000C94C5238C2FCF91089580911C05909156
:1047D0001D05892B41F00E94C52391E0811101C084
:1047E00090E0892F089591E0FCCFCF93DF93C82FFD
:1047F000D62F0E94171E882321F0DF91CF910C94B1
:10480000E5238C2F0E94C91D811101C08D2FDF91DE
:10481000CF9108950E94A723CB010895CF93DF93F2
:10482000EB010E94171E882321F0DF91CF910C9499
:104830000A24CE01DF91CF9108950F931F93CF9358
:1048400080911C0590911D050097E9F0FC018F01F6
:10485000C1912C2F2F7D81F0C53411F0C536B9F7E9
:10486000F801108270E060E00F947D20F801C083B1
:10487000CF911F910F91089570E060E0CF911F914B
:104880000F910D947D2060E070E0CB01F1CFCF92CD
:10489000DF92EF92FF926A017B010E94171E88232C
:1048A00031F0FF90EF90DF90CF900C941D24C70162
:1048B000B601FF90EF90DF90CF9008954F925F92F6
:1048C0006F927F928F929F92AF92BF92CF92DF9220
:1048D000EF92FF921F93CF93DF9300D01F92CDB73B
:1048E000DEB719821A821B821C82CE0101964C010E
:1048F00083E9C82E87E0D82E99E6E92E92E0F92EBA
:104900002CEEA22E28E0B22E10E088E5810F0E9446
:10491000171EF40181934F01882309F4E0C00E941F
:104920001D242B013C01812F0E94EE1C882309F4D9
:10493000CCC0F7012081318142815381C301B20192
:104940000F94B22BF60160837183828393831F5F80
:10495000F4E0CF0ED11C84E0E80EF11C94E0A90E27
:10496000B11C133091F685E40E94171E8C838823B6
:1049700009F4C0C00E941D246B017C0183E00E94E9
:10498000EE1C882371F020917502309176024091DF
:10499000770250917802C701B6010F94B22B6B01D8
:1049A0007C01C0929F07D092A007E092A107F092ED
:1049B000A2078091E505882359F180915D1482FF5B
:1049C00027C08C81882321F18981811103C08A81CC
:1049D0008823F1F02DEC3CEC4CE45DE3609137086A
:1049E000709138088091390890913A080F94B22B51
:1049F0009B01AC016091710270917202809173020F
:104A0000909174020F94122E181614F40F948413BC
:104A100040E050E0BA0186E40E94472420E030E004
:104A2000A9010F94122E181684F40E941D2420E070
:104A300030E040E752E40F94AC2C6093490270934D
:104A40004A0280934B0290934C0280915E0C83FD4E
:104A500028C08091AB06882321F120917502309106
:104A60007602409177025091780260919F07709191
:104A7000A0078091A1079091A2070F94B12B2091DC
:104A8000B8063091B9064091BA065091BB060F9412
:104A9000B22B6093B8067093B9068093BA069093D0
:104AA000BB060F900F900F900F90DF91CF911F9149
:104AB000FF90EF90DF90CF90BF90AF909F908F903E
:104AC0007F906F905F904F900895F5012081318124
:104AD00042815381C301B2010F94B12B33CFF7014F
:104AE00080819181A281B381F60180839183A28329
:104AF000B3832DCF8091750290917602A0917702B9
:104B0000B091780280939F079093A007A093A1078C
:104B1000B093A2074ECFCF92DF92EF92FF926B013C
:104B20007C0183E3C816D104E104F10470F082E350
:104B3000C81AD108E108F10862E370E080E090E073
:104B40000E94ADA30E94EEBEECCFC701B6010E9449
:104B5000ADA3FF90EF90DF90CF900C94EEBE0F933B
:104B60001F93CF93DF930AEB1CE0CEECD1E1F80169
:104B700021913191419151918F0160E070E080E885
:104B80009FE30F94AC2C6993799389939993F1E106
:104B9000CE3DDF0761F70F94C311DF91CF911F91D5
:104BA0000F910C94341BCF92DF92EF92FF92CF9330
:104BB000DF932091A10C222329F1EC0108960E9499
:104BC0000E1D6B017C0120E030E0A9010F94EE2462
:104BD00020E030E0A901882359F0CE010E94B41EE4
:104BE0009B01AC01C701B6010F9454259B01AC0198
:104BF000688579858A859B850F94B22B688779872C
:104C00008A879B87DF91CF91FF90EF90DF90CF90C5
:104C100008952F923F924F925F926F927F928F9260
:104C20009F92AF92BF92CF92DF92EF92FF920F933B
:104C30001F93CF93DF93CDB7DEB76C970FB6F89481
:104C4000DEBF0FBECDBF8C015B015A834983FC01DF
:104C5000EF5AFF4F208131814281538129873A8762
:104C60004B875C87CA01B9010F94F3246B017C0167
:104C7000D5012D913D914D915C910F9454250F9448
:104C8000902C2B013C01E981FA8120813181428104
:104C90005381C701B6010F9454250F94902C4B01FA
:104CA0005C01C301B2010F94252D698B7A8B8B8B2C
:104CB0009C8B683771058105910540F428E730E049
:104CC00040E050E0298B3A8B4B8B5C8BC501B401E3
:104CD0000F94252D6D877E878F87988B6837710598
:104CE0008105910540F448E750E060E070E04D87B1
:104CF0005E876F87788BF801E35AFF4F40805180C1
:104D000062807380C301B2010F94F52469837A83B2
:104D10008B839C8369897A898B899C890F94F3247E
:104D20006D8B7E8B8F8B988F20E030E0A90169819D
:104D30007A818B819C810F94EE24882309F4E1C150
:104D4000A7019601C701B6010F9454254B015C01E0
:104D50002D893E894F89588DCA01B9010F94542578
:104D60009B01AC01C501B4010F94B12B4B015C0157
:104D700029813A814B815C81CA01B9010F94B22B20
:104D80009B01AC01C501B4010F94AC2C0F94902C85
:104D90000F94252D6D837E838F83988766277727D1
:104DA000CB0164197509860997090F94F5244B0105
:104DB0005C016D857E858F8598890F94F3242B0186
:104DC0003C0120E030E0A901C501B4010F94EE24BC
:104DD000882309F49AC1A3019201C301B2010F947F
:104DE0005425698F7A8F8B8F9C8FA7019601C701FD
:104DF000B6010F9454259B01AC01698D7A8D8B8D82
:104E00009C8D0F94B12B6B017C01A5019401C50110
:104E1000B4010F94B22B9B01AC01C701B6010F94F2
:104E2000AC2C0F94542DD80195968D909D90AD90FB
:104E3000BC909897750164012D813E814F81588502
:104E4000C21AD30AE40AF50A0F94252DC61AD70A06
:104E5000E80AF90AF7FE8EC02D893E894F89588DE0
:104E6000CA01B9010F9454256B017C0129813A8153
:104E70004B815C81CA01B9010F94B22B69877A8793
:104E80008B879C8720E030E0A90169817A818B8142
:104E90009C810F94EE24882309F43BC1C501B40121
:104EA0000F94F32429853A854B855C850F9454250E
:104EB000A70196010F94B12B6D837E838F83988712
:104EC000A3019201C301B2010F9454259B01AC01CF
:104ED0006D817E818F8198850F94B22B2B013C01CF
:104EE00020E030E040E850E469817A818B819C8148
:104EF0000F9454259B01AC01C301B2010F94AC2C5B
:104F00000F94902C2B013C0120E030E0A9010F947C
:104F1000122E18161CF0412C512C3201C301B20183
:104F20000F94252D6D837E838F8398878616970631
:104F3000A806B90620F48D829E82AF82B8866D8164
:104F40007E818F8198850F94F32429853A854B853E
:104F50005C850F945425A70196010F94B22B0F94F2
:104F6000602E0F94252D69877A878B879C87C12CAB
:104F7000D12C760169857A858B859C8529893A892A
:104F80004B895C89621B730B840B950B0F94F32484
:104F900029813A814B815C810F94AC2C20E034E272
:104FA00044EF59E40F9454250F94252D4B015C01D7
:104FB00069857A858B859C852D853E854F855889A9
:104FC000621B730B840B950B0F94F32429813A8198
:104FD0004B815C810F94AC2C20E034E244EF59E427
:104FE0000F9454250F94252D2B013C013FE6831689
:104FF0009104A104B10408F090C0F401EE0FFF1F6A
:10500000EE0FFF1FE255F74E85919591A591B49152
:105010008983292E3A2EBD8B4FE644165104610434
:10502000710408F083C0F201EE0FFF1FEE0FFF1FA7
:10503000E255F74E45915591659174919A01CB01D6
:105040004D815E816F817885D80199964D935D93EE
:105050006D937C939C974C0D5D1D6E1D7F1DF8011B
:1050600045A756A767A770ABEB5AFF4F49895A89E6
:105070006B897C894083518362837383D5968D923B
:105080009D92AD92BC92D897F80141AE52AE63AEFC
:1050900074AEFD9649814083218232825D895383BB
:1050A0003496208331838283938369857A858B85C7
:1050B0009C85D1966D937D938D939C93D497789690
:1050C0002D853E854F8558892083318342835383C4
:1050D0006C960FB6F894DEBF0FBECDBFDF91CF91B7
:1050E0001F910F91FF90EF90DF90CF90BF90AF9006
:1050F0009F908F907F906F905F904F903F902F90F8
:10510000089560E070E0CB0141CE60E070E0CB013B
:1051100088CE60E070E0CB01F3CEC501B4010E94FF
:10512000361A6983272E382E9D8B76CFC301B201A4
:105130000E94361A9B0184CF8091A5129091A612ED
:10514000891B877019F490E080E008959091A21275
:10515000992351F0833030F48FEF890F19F0809349
:10516000A212F1CF1092A2128091A61227E6829F7E
:10517000C00111248A5D964FFC01208120FDE3CF00
:105180002091A6122F5F27702093A3123091A612B0
:105190002091A412321304C02091A3122093A412D0
:1051A000089590916F0081E091FD02C080E0089524
:1051B00090916F009D7F90936F00089580FF04C0D1
:1051C0009091A00C90FD8E7F81FF05C09091A00C66
:1051D000969590FD8D7F82FF06C09091A00C9695CC
:1051E000969590FD8B7F08958F929F92AF92BF927C
:1051F000CF92DF92EF92FF92CF93DF9320914D02F7
:10520000222309F49EC0EC018091B605C82ED12C52
:10521000F12CE12C80FF2CC080904F029090500226
:10522000A0905102B0905202288139814A815B815D
:10523000C501B4010F94122E181624F488829982A5
:10524000AA82BB8280905B0290905C02A0905D027B
:10525000B0905E02288139814A815B81C501B40129
:105260000F94EE2487FF04C088829982AA82BB82B1
:10527000D701C601B695A7959795879580FF2CC055
:105280008090530290905402A0905502B090560224
:105290002C813D814E815F81C501B4010F94122E96
:1052A000181624F48C829D82AE82BF8280905F02A9
:1052B00090906002A0906102B09062022C813D81CA
:1052C0004E815F81C501B4010F94EE2487FF04C0B5
:1052D0008C829D82AE82BF8282E0F694E794D7945E
:1052E000C7948A95D1F7C0FE2CC0C0905702D090C9
:1052F0005802E0905902F0905A02288539854A8573
:105300005B85C701B6010F94122E181624F4C886C7
:10531000D986EA86FB86C0906302D0906402E09052
:105320006502F0906602288539854A855B85C7014C
:10533000B6010F94EE2487FF04C0C886D986EA869A
:10534000FB86DF91CF91FF90EF90DF90CF90BF90E1
:10535000AF909F908F900895CF92DF92EF92FF923F
:105360000F931F93C12CD12C76018C0125E732E0DD
:1053700041E752E06DE672E089E692E00E9464FA4D
:105380001F910F91FF90EF90DF90CF9008950D94B3
:10539000C3118091A305659B6EC080618093A305B6
:1053A000909103018091A30591FF67C08062809373
:1053B000A3058091A3054B9962C084608093A305E7
:1053C0008091A3059091A205981709F45AC092E024
:1053D0009093A1058093A2058091BD06811105C01F
:1053E0008091A407882309F459C080910A0680FFA0
:1053F00010C08091BE0680FD0CC08091A00584FF86
:1054000008C08091A30780618093A30780E00E9479
:1054100078C780910A06869580FF11C08091BE06EC
:10542000869580FD0CC08091A00585FF08C0809105
:10543000A30780628093A30781E00E9478C78091D0
:105440000A068695869580FF29C08091BE068695BE
:10545000869580FF23C08091A4078823F9F080916E
:10546000A00582FF1BC08091A30784608093A307DF
:1054700082E00C9478C78F7E91CF8F7D98CF8B7F01
:105480009DCF8091A105882309F4A6CF81508093F8
:10549000A1058111A1CF9093A0059ECF0895809181
:1054A000BD06811104C08091A407882331F062E019
:1054B00070E080E090E00C948B2508950F931F938B
:1054C00080918C11813019F50E94E0A30091BF05F5
:1054D0001091C0052091C1053091C205601B710B70
:1054E000820B930B28EE33E040E050E00F94322B18
:1054F0006091C3057091C4058091C5059091C60562
:10550000620F731F841F951F1F910F910895609163
:10551000C7057091C8058091C9059091CA05D6CF7D
:1055200010928C111092BF051092C0051092C10507
:105530001092C2051092C7051092C8051092C905B5
:105540001092CA051092C3051092C4051092C505A9
:105550001092C6050895CF92DF92EF92FF92CF93FB
:10556000DF93C62FFC01C080D180E280F38020E071
:1055700030E0A901C701B6010F94EE2420E030E02D
:10558000A90187FD14C020E030E048EC52E4C701D7
:10559000B6010F94122E24E630E040E050E01816D9
:1055A00034F0C701B6010F941E2D9B01AC01C2302F
:1055B000A0F4D0E0CF5DD64FAFEFB0E00F94732BE7
:1055C00024E630E040E050E00F94542B2F3F3105AB
:1055D00019F010F02FEF30E02883DF91CF91FF908A
:1055E000EF90DF90CF9008958091090180FD06C073
:1055F00080915D1483FB882780F9089580E00895E9
:10560000CF92DF92EF92FF92FC01C080D180E280C6
:10561000F380663019F510922F0610923006109222
:10562000310610923206109233060E9474BB20E0BD
:1056300030E0A901C701B6010F94EE2487FF1DC019
:10564000C12CD12C7601C701B6010F941F2ECB01BE
:10565000FF90EF90DF90CF900C94DD210E94AB1E65
:1056600020E030E0A901C701B6010F94EE2487FFC6
:1056700015C0C12CD12C760122C020E030E04CE0D6
:1056800053E4C701B6010F94122E1816E4F6C12C8C
:10569000D12C9CE0E92E93E4F92ED5CF20E030E820
:1056A00049ED53E4C701B6010F94122E18163CF4CD
:1056B000C12C80E8D82E89EDE82E83E4F82EC701AE
:1056C000B6010F941F2ECB01FF90EF90DF90CF908B
:1056D0000C949F1E9091A00C977081E0973009F078
:1056E00080E0089520919E0520FF14C020E83EE34D
:1056F000629FA001639F500D729F500D1124CA013B
:105700009695879596958795009731F08A95000034
:10571000E9F708950C948B250895CF93DF931092A9
:105720005F0C1092F20C1092F40C1092F30C109289
:105730009D0510929C05CFEFDFEF80915D1485FDF4
:1057400007C00E948DA7D093DC12C093DB12F5CF67
:105750008FEF9FEF9093DC128093DB12DF91CF915C
:1057600008958F929F92AF92BF92CF92DF92EF9265
:10577000FF920F931F93CF93DF93109251051092D6
:1057800050052FE320934B0510924A0510924905CE
:105790001092480510924C0510924D0510924E053E
:1057A00010924F059C01F90190812F5F3F4F90327D
:1057B000D1F39E34C9F4818190ED980F9A3020F096
:1057C0008D3211F08B3281F432969F012F5F3F4F63
:1057D000808180538A3008F47BC09F012F5F3F4F48
:1057E0008081803209F476C0F093A707E093A60782
:1057F0008F010F5F1F4FC0816AE270E0C8010F94F4
:10580000002F009731F0FC01319780818032E1F365
:105810001182CD3429F0C43519F0C73409F04BC0DA
:10582000F80180810F5F1F4F8032D1F380538A309F
:1058300008F041C0C0934B0530E020E04AE0DF01B2
:105840001196429FC001439F900D11249C0120534B
:1058500031098081280F311D87FD3A95818190EDB6
:10586000980F9A30C8F130934A05209349058E323B
:1058700061F4329690E04AE0DF0131968C9150ED70
:10588000580F5A3058F190934805CD01DC0101962C
:105890004C914032D9F3CD3489F52E31310539F0B0
:1058A00018F52731310519F02C31310539F5B09350
:1058B0005105A0935005DF91CF911F910F91FF905B
:1058C000EF90DF90CF90BF90AF909F908F90089512
:1058D000F9017BCFF90181CFFD01B1CF949F800DFC
:1058E000112490ED980FC8CF2537310538F02737B0
:1058F0003105E8F2203A83E03807C9F2D091A607D3
:1059000040E050E0BA0110E000E0C12CD12C76015B
:10591000C394FD0131968C91882309F47FC08132B4
:10592000E1F4CD34D1F420323105B9F440934C0583
:1059300050934D0560934E0570934F05F0935105BC
:10594000E093500563E270E0CF010F94002F0097C1
:1059500009F4B1CFFC011082AECF81548A3108F036
:1059600058C0DF019D91903291F0A0EDA90FAA30AF
:10597000E8F09E3271F4918190539A30B8F001159D
:10598000110519F48F010150110990E013C0FD01B8
:10599000E8CF9D3211F09B3291F79181A0EDA90FD4
:1059A000AA3020F09E3259F79281E6CF9E2F9D1BA0
:1059B000309759F3A82FB0E04601570104C0880C76
:1059C000991CAA1CBB1C8A95D2F7482959296A2917
:1059D0007B29A25DBA4F9C9380818154DF018A317B
:1059E00008F497CFDF018191882309F492CF90EDDD
:1059F000980F9A30B8F393ED980F923098F38B325A
:105A000089F3CD010196EC91E03209F082CFDC01FF
:105A1000F8CF0115110501F78D01DECF1093510567
:105A20000093500540934C0550934D0560934E05EF
:105A300070934F0540CF4F925F926F927F928F92FB
:105A40009F92AF92BF92CF92DF92EF92FF92CF934D
:105A5000DF9300D000D01F921F92CDB7DEB75C015C
:105A6000DB01CD90DD90ED90FC90E091A012F091E3
:105A7000A112FE83ED8384819581A681B7818983FC
:105A80009A83AB83BC839C01AD01C701B6010F941F
:105A9000B12B2B013C01F50180809180A280B38065
:105AA000AD81BE818D919D910D90BC91A02D8D8376
:105AB0009E83AF83B88727E137EB41ED58EBC301F5
:105AC000B2010F94122E87FDD2C023E030E044EBE8
:105AD00053E4C301B2010F94EE2418160CF4C7C0AE
