:100000000C94B1120C94DB120C94DB120C94DB12E6
:100010000C94DB120C94DB120C94DB120C94DB12AC
:100020000C94DB120C94DB120C94DB120C94DB129C
:100030000C94DB120C94E0220C94DB120C94DB1277
:100040000C94DB120C941A220C9495BA0C94DB12CB
:100050000C9473790C9469790C94DB120C94DB1278
:100060000C94DB120C94DB120C94DB120C94DB125C
:100070000C94DB120C94DB120C94DB120C94DB124C
:100080000C94BD740C94DB120C94DB124E414E495F
:100090004E495459494E46CDCCCC3D0AD7233C1746
:1000A000B7D13877CC2B329595E6241FB14F0A0093
:1000B0000020410000C84200401C4620BCBE4CCA83
:1000C0001B0E5AAEC59D7400407A10F35A00A07200
:1000D0004E18090010A5D4E80000E8764817000083
:1000E000E40B54020000CA9A3B000000E1F5050051
:1000F0000080969800000040420F000000A086019A
:10010000000000102700000000E803000000006469
:1001100000000000000A00000000000100000000D4
:10012000002C76D888DC674F0823DFC1DFAE59E1A9
:10013000B1B796E5E3E453C63AE651997696E8E618
:10014000C28426EB898C9B62ED407C6FFCEFBC9CEB
:100150009F40F2BAA56FA5F490055A2AF75C936BFD
:100160006CF9676DC11BFCE0E40D47FEF520E6B5B8
:1001700000D0ED902E0300943577050080841E0892
:100180000000204E0A000000C80C333333330F98B0
:100190006E12831141EF8D2114893BE65516CFFE77
:1001A000E6DB18D1844B381BF77C1D901DA4BBE403
:1001B00024203284725E228100C9F124ECA1E53D45
:1001C0002741425300504C410042656400456E6334
:1001D0006C6F73757265002568753A2530326875E5
:1001E0000025303268753A2530326875003FFFF0DF
:1001F00038007030FC3020FC102078102030102C9B
:1002000000D02E31D02F7BD02F7BD02E31D02C00A0
:10021000D020301020781020FC1030FC30380070D6
:100220003FFFF03FFFF03800703186302387102702
:1002300087902F87D02F03D020301020781020787F
:10024000102030102F03D02F87D0278790238710BE
:100250003186303800703FFFF063616E63656C007B
:100260005072696E742041626F72746564004D3221
:10027000350050617573696E672E2E2E007265739E
:10028000756D65004D32340050726F6265205A20E2
:100290004F66667365740046696C2E204469612E52
:1002A000004F6666004F6E004520696E206D6D5EE2
:1002B0003300452073746570732F6D6D005A2053A1
:1002C000746570732F6D6D00592053746570732FB2
:1002D0006D6D00582053746570732F6D6D0041640F
:1002E00076616E6365642053657474696E6773002C
:1002F00046696C616D656E740053746570732F6D23
:100300006D00436F6E66696775726174696F6E0028
:1003100053746F77004465706C6F790053572D4D9F
:100320006F64650053656C662D5465737400526587
:1003300073657400436F6E66696775726174696F87
:100340006E00526573746F72652044656661756CEA
:100350007473004C6F61642053657474696E6773C5
:100360000053746F72652053657474696E6773000F
:10037000424C546F7563680050726F6265205A205A
:100380004F666673657400416476616E63656420D0
:1003900053657474696E6773004D61696E004D3109
:1003A00039305337350A4732380A4732390A4D3423
:1003B00030300A4D313034533231350A4732380A41
:1003C0004D313039533231350A4D34323053310AE0
:1003D0004731583130305931303046353030300ABD
:1003E00047315A300A4D3530300A4D3131372053BC
:1003F0006574205A204F6666736574004D3130363F
:10040000533132380A4D3330334338533231354566
:1004100030550A4D3530300A4D313137205049447E
:100420002054756E6520446F6E65004D3139305330
:1004300037350A4D313034533231350A4732380AB4
:100440004732394C310A4731205831303059313038
:100450003046353030300A47315A30004D35303073
:100460000A4D3131372053657474696E67732053B8
:10047000746F726564005072657020666F72205AE6
:100480002041646A757374005049442054756E6548
:100490000053746F72652053657474696E677300DE
:1004A0005365747570004D61696E003F0042616371
:1004B0006B0053746F70004D3231005072696E746E
:1004C0002066726F6D204D656469610052656C65D0
:1004D000617365204D65646961004D3232004C6581
:1004E00076656C696E6720546F6F6C7300436F6E36
:1004F00066696775726174696F6E0054656D7065C9
:10050000726174757265004D6F74696F6E0052652B
:1005100073756D65205072696E740054756E650058
:1005200053746F70205072696E74005061757365FA
:10053000205072696E7400417474616368204D6567
:1005400064696100496E666F2053637265656E0071
:1005500043616E6E6F7420656E7465722073756290
:100560006469723A2000022E2E000152656672659F
:100570007368004D61696E002100486F74656E6498
:1005800020746F6F20636F6C64004261636B005076
:10059000726F63656564004D6F74696F6E004469C6
:1005A0007361626C65205374657070657273004D81
:1005B0003834004175746F20486F6D6500473238DC
:1005C000004D61696E00C501C101436F6F6C646FBE
:1005D000776E005072656865617420240046616E14
:1005E000205370656564004E6F7A7A6C65004D61CA
:1005F000696E0050726F6265205A204F666673659F
:100600007400466C6F770046616E205370656564B8
:10061000004E6F7A7A6C65005370656564004D61B9
:10062000696E00486F6D696E67204661696C65642C
:10063000006F70656E00545249474745524544006B
:100640003A20007A5F6D696E00795F6D617800789D
:100650005F6D6178005265706F7274696E672065B6
:100660006E6473746F70207374617475730A002004
:10067000746F6F206C6F6E67206578747275736924
:100680006F6E2070726576656E7465640A00206313
:100690006F6C6420657874727573696F6E20707208
:1006A0006576656E7465640A00486F6D6520257314
:1006B00025732573204669727374005761726E69E1
:1006C0006E673A20486F6D696E672042756D7020C5
:1006D00044697669736F72203C20310A000202047B
:1006E0000000664300006143000000000000664314
:1006F00000006143000096430000004100000041FB
:100700000000004000006643000061430000964383
:100710000000000000000000000000005365747439
:10072000696E67732053746F72656400454550525B
:100730004F4D20496E697469616C697A65640A007D
:1007400000803B4400803B44000020410000964272
:100750000000A0420000A0420000C8430080CF4338
:10076000D0070000D0070000640000004B0000002C
:1007700024F4D43050C38E20C2A24017828B701153
:10078000127A910D816CD90AA861E108C7586607F1
:10079000615143061E4B5D05C145A7041A41110472
:1007A000093D9803713931034036DB02653391020C
:1007B000D4305402802E1D02632CEE01752AC5012F
:1007C000B028A001102781018F2564012B244B0143
:1007D000E0223401AC211F018D200D01801FFC009F
:1007E000841EED00971DDF00B81CD200E61BC6007A
:1007F000201BBC00641AB200B219A8000A19A0009C
:100800006A189900D117910040178B00B516840023
:1008100031167E00B31579003A157300C7146F00C6
:1008200058146A00EE1366008813630025135E00F7
:10083000C7125B006C12570015125400C111510011
:1008400070114F0021114B00D61049008D10470048
:100850004610440002104200C00F4000800F3E00CE
:10086000420F3C00060F3B00CB0E3800930E3700C2
:100870005C0E3500270E3400F30D3200C10D31003F
:10088000900D3000600D2E00320D2D00050D2C0056
:10089000D90C2B00AE0C2900850C29005C0C27001C
:1008A000350C27000E0C2600E80B2400C40B240096
:1008B000A00B23007D0B23005A0B2100390B2100D4
:1008C000180B2000F80A1F00D90A1E00BB0A1E00E0
:1008D0009D0A1D00800A1D00630A1C00470A1B00B8
:1008E0002C0A1B00110A1A00F7091A00DD09190069
:1008F000C4091900AB091900920917007B091800F7
:10090000630917004C091600360916002009160065
:100910000A091500F5081500E0081400CC081400B9
:10092000B8081400A4081400900813007D081200F1
:100930006B08130058081200460812003408110012
:10094000230811001208110001081100F00710001F
:10095000E0071000D0071000C0071000B0070F001C
:10096000A107100091070E0083070F0074070F0006
:1009700065070E0057070E0049070E003B070D00E4
:100980002E070E0020070D0013070D0006070D00AF
:10099000F9060C00ED060D00E0060C00D4060C0074
:1009A000C8060C00BC060C00B0060C00A4060B0028
:1009B00099060C008D060B0082060B0077060B00D3
:1009C0006C060B0061060A0057060B004C060A0075
:1009D00042060A0038060A002E060A0024060A000B
:1009E0001A060A001006090007060A00FD0509009C
:1009F000F4050900EB050900E2050900D905090025
:100A0000D0050900C7050900BE050900B5050800A5
:100A1000AD050800A50509009C050800940508001F
:100A20008C050800840508007C0508007405080092
:100A30006C050700650508005D0507005605080000
:100A40004E05070047050700400508003805070068
:100A5000310507002A050700230507001C050600CD
:100A6000160507000F050700080506000205070028
:100A7000FB040600F5040700EE040600E804060087
:100A8000E2040700DB040600D5040600CF040600DC
:100A9000C9040600C3040600BD040600B70406002E
:100AA000B1040500AC040600A6040600A00405007D
:100AB0009B04060095040500900406008A040500C6
:100AC00085040500800406007A040500750405000D
:100AD000700405006B040500660405006104050050
:100AE0005C04050057040500520405004D04050090
:100AF00048040500430405003E0404003A040500D0
:100B000035040500300404002C040500270404000B
:100B1000230405001E0404001A0404001604050042
:100B2000110404000D040400090405000404040079
:100B300000040400FC030400F8030400F4030400B0
:100B4000F0030400EC030400E8030400E4030400E1
:100B5000E0030400DC030400D8030400D403040011
:100B6000D0030400CC030400C8030300C503030042
:100B700024F404D9201BC40C5C0E9804C4095F0241
:100B800065077101F405F900FB04B3004804870010
:100B9000C10369005803550003034500BE023A0033
:100BA0008402310053022A00290225000402200099
:100BB000E4011C00C8011900AF01170098011400DE
:100BC00084011300710110006101100051010E0039
:100BD00043010D0036010B002B010B0020010B001F
:100BE000150109000C01090003010800FB000800C1
:100BF000F3000800EB000700E4000600DE0006003A
:100C0000D8000600D2000600CC000500C700050091
:100C1000C2000500BD000400B9000400B5000400D6
:100C2000B1000400AD000400A9000400A500030009
:100C3000A20003009F0004009B0003009800030033
:100C40009500020093000300900003008D00020055
:100C50008B0003008800020086000200840003006D
:100C6000810002007F0002007D0002007B00020084
:100C70007900020077000100760002007400020093
:100C800072000100710002006F0002006D0001009F
:100C90006C0002006A0001006900020067000100A8
:100CA00066000100650001006400020062000100AE
:100CB00061000100600001005F0002005D000100B2
:100CC0005C0001005B0001005A00010059000100B6
:100CD00058000100570001005600010055000100B6
:100CE00054000100530000005300010052000100B5
:100CF00051000100500001004F0001004E000000B3
:100D00004E0001004D0001004C0001004B000000AE
:100D10004B0001004A0001004900010048000000AA
:100D200048000100470001004600000046000100A5
:100D300045000000450001004400010043000000A0
:100D40004300010042000000420001004100000099
:100D500041000100400001003F0000003F00010091
:100D60003E0000003E0001003D0000003D0001008B
:100D70003C0000003C0000003C0001003B00000083
:100D80003B0001003A0000003A0001003900000079
:100D90003900010038000000380000003800010070
:100DA0003700000037000100360000003600000068
:100DB000360001003500000035000000350001005C
:100DC0003400000034000000340001003300000053
:100DD0003300000033000100320000003200000048
:100DE000320001003100000031000000310001003C
:100DF0003000000030000000300001002F00000033
:100E00002F0000002F0000002F0001002E00000026
:100E10002E0000002E0001002D0000002D0000001B
:100E20002D0000002D0001002C0000002C0000000F
:100E30002C0000002C0001002B0000002B00000003
:100E40002B0000002B0001002A0000002A000000F7
:100E50002A0000002A0001002900000029000000EB
:100E600029000000290000002900010028000000DE
:100E700028000000280000002800000028000100D1
:100E800027000000270000002700000027000000C6
:100E900027000100260000002600000026000000B8
:100EA00026000000260001002500000025000000AB
:100EB000250000002500000025000000250001009D
:100EC0002400000024000000240000002400000092
:100ED0002400010023000000230000002300000084
:100EE0002300000023000000230000002300010075
:100EF000220000002200000022000000220000006A
:100F0000220000002200010021000000210000005A
:100F1000210000002100000021000000210000004D
:100F2000210001002000000020000000200000003F
:100F30002000000020000000200000002000000031
:100F4000200001001F0000001F0000001F00000023
:100F50001F0000001F0000001F0000001F00010014
:100F60001E0000001E0000001E0000001E00000009
:100F7000043700001E290000511B0000581000001B
:100F800010090000CC0400007802000041010000BC
:100F900020436F756E7420583A00453100626564D5
:100FA000002C2073797374656D2073746F70706595
:100FB0006421204865617465725F49443A20005499
:100FC0004845524D414C2052554E415741590054CD
:100FD0006865726D616C2052756E61776179004849
:100FE000656174696E67204661696C656400486577
:100FF0006174696E67206661696C6564004D3131AA
:10100000322053687574646F776E004572723A20AF
:101010004D415854454D50004D415854454D502078
:10102000747269676765726564004572723A204D33
:10103000494E54454D50004D494E54454D50207435
:10104000726967676572656400202F0020403A006E
:101050007C3C3E5E2B3D3F2F5B5D3B2C2A225C009F
:10106000434F4D4D554E49434154494F4E00445214
:101070005952554E004552524F525300494E464F19
:10108000004543484F00486F74656E642049646CA6
:10109000652054696D656F757400486F74656E6482
:1010A0002049646C652054696D656F75740A002170
:1010B00021204B494C4C2063617573656420627933
:1010C00020746F6F206D75636820696E6163746949
:1010D00076652074696D65202D2063757272656E6A
:1010E0007420636F6D6D616E643A200053544F50ED
:1010F0005045442E20005072696E746572207374DE
:101100006F707065642064756520746F20657272FD
:101110006F72732E2046697820746865206572723C
:101120006F7220616E6420757365204D39393920E6
:10113000746F20726573746172742E202854656D0B
:10114000706572617475726520697320726573656C
:10115000742E205365742069742061667465722052
:1011600072657374617274696E67290A004E6F202C
:10117000436865636B73756D2077697468206C696B
:101180006E65206E756D6265722C204C61737420E3
:101190004C696E653A20004E6F20436865636B733F
:1011A000756D2077697468206C696E65206E756D49
:1011B0006265722C204C617374204C696E653A2014
:1011C00000636865636B73756D206D69736D617421
:1011D00063682C204C617374204C696E653A200062
:1011E0004C696E65204E756D626572206973206E64
:1011F0006F74204C617374204C696E65204E756D60
:101200006265722B312C204C617374204C696E65C1
:101210003A20004D3131300053657269616C2073A2
:101220007461747573206D69736D617463680A000D
:1012300053442072656164206572726F720A004DBA
:101240006564696120496E73657274656400506CF1
:1012500065617365205265736574005052494E5440
:1012600045522048414C5445440025533A202553CB
:1012700000706F7765726F6666004B494C4C454451
:101280002E20005072696E7465722068616C7465FE
:10129000642E206B696C6C28292063616C6C65641A
:1012A000210A0053544F505045442E20005072697B
:1012B0006E7465722073746F7070656420647565F8
:1012C00020746F206572726F72732E2046697820C9
:1012D000746865206572726F7220616E6420757328
:1012E00065204D39393920746F20726573746172CD
:1012F000742E202854656D70657261747572652056
:1013000069732072657365742E2053657420697447
:101310002061667465722072657374617274696E9F
:1013200067290A006563686F3A004572726F723A06
:101330000042696C696E656172204C6576656C6906
:101340006E6720477269643A0A0021212053544F86
:10135000502063616C6C65642062656361757365C0
:10136000206F6620424C546F756368206572726FFF
:1013700072202D20726573746172742077697468AD
:10138000204D3939390A0021212053544F50206310
:10139000616C6C65642062656361757365206F665E
:1013A00020424C546F756368206572726F72202DF5
:1013B00020726573746172742077697468204D3986
:1013C00039390A00426564204C6576656C696E6740
:1013D00020004661696C656420746F20656E6162EF
:1013E0006C6520426564204C6576656C696E670AA1
:1013F00000496E76616C6964206D6573682E0A0021
:1014000050726F62696E6720506F696E7400255369
:101410002025692F2569002E0A002F0050726F6267
:10142000696E67206D65736820706F696E74200047
:10143000202844525952554E2900473239204175CF
:10144000746F20426564204C6576656C696E670038
:101450003F20284C2C522C462C4229206F7574209A
:101460006F6620626F756E64732E0A003F285629DE
:101470006572626F7365206C6576656C20696D704E
:101480006C61757369626C652028302D34292E0AD1
:1014900000426164205A2076616C75650A004E6FC7
:1014A0002062696C696E65617220677269640A0006
:1014B00020496E76616C6964206578747275646524
:1014C000722000536C6565702E2E2E005A205072CB
:1014D0006F62652050617374204265640A005A206F
:1014E00050726F62652050617374204265640047DA
:1014F00032384C3000205A3A200020593A2000421D
:10150000656420583A20004D65736820706F696EDD
:1015100074206F7574206F662072616E67650A00B3
:10152000436C69636B20746F20526573756D652E13
:101530002E2E004E6F204D6F76652E00456E642076
:1015400066696C65206C6973740A00426567696E30
:101550002066696C65206C6973740A004E6F206D9B
:10156000656469610A00706175736500286E6F209B
:1015700066696C65290043757272656E74206669D0
:101580006C653A20005344207072696E74696E670E
:10159000206279746520004E6F742053442070726D
:1015A000696E74696E670A002E0A0044656C657482
:1015B000696F6E206661696C65642C2046696C6594
:1015C0003A200046696C652064656C657465643A10
:1015D000002569730025696D2025697300256968F8
:1015E0002025696D202569730025696420256968B7
:1015F0002025696D20256973002569792025696496
:10160000202569682025696D20256973005072695D
:101610006E742074696D653A20006F6B006F6666AA
:101620000081107C1075106E1060104445425547C3
:101630003A0044445820456E64657235204F464652
:101640002E00204500204D39322058004649524D89
:10165000574152455F4E414D453A4D61726C696E3E
:1016600020322E302E375F4457372E3320426F6E94
:101670006474656368204535534D4E4242202841CD
:10168000707220323920323032312031363A3534DE
:101690003A32372920534F555243455F434F444513
:1016A0005F55524C3A68747470733A2F2F6769749F
:1016B0006875622E636F6D2F496E73616E69747900
:1016C0004175746F6D6174696F6E2F4D61726C69D5
:1016D0006E2F747265652F437265616C697479440D
:1016E00077696E5F322E302050524F544F434F4C2B
:1016F0005F56455253494F4E3A312E30204D4143AB
:1017000048494E455F545950453A44445820456E27
:10171000646572352045585452554445525F434FD5
:10172000554E543A3120555549443A636564653203
:101730006132662D343161322D343734382D3962BF
:1017400031322D6335356336326633363766660A95
:10175000002F2F004D31343520533C696E6465787D
:101760003E206F7574206F662072616E6765202859
:10177000302D31290A002054002052004163636556
:101780006C65726174696F6E3A2050005741524E19
:10179000494E4721204C6F77205A204A65726B20B2
:1017A0006D6179206C65616420746F20756E77615E
:1017B0006E746564207061757365732E0A004D3216
:1017C00030362058004F4646004F4E00205800202B
:1017D000204D61783A2000200020204D696E3A208B
:1017E00000536F667420656E6473746F70733A2073
:1017F0000046523A0020466C6F773A20003A2000AB
:1018000020536572766F2000206F7574206F6620FC
:1018100072616E67650A00536572766F20005072C0
:101820006F6265204F6666736574205A0050726F50
:101830006265204F6666736574205A0020643A0022
:1018400020693A0020703A00496E76616C69642024
:1018500065787472756465720A0064697300656EF8
:101860000043290A0061626C656420286D696E205E
:1018700074656D702000436F6C64206578747275B8
:101880006465732061726520004D34323120696EC9
:10189000636F727265637420706172616D657465E7
:1018A000722075736167650A004D65736820706FFB
:1018B000696E74206F7574206F662072616E676543
:1018C0000A004F666673657473204170706C6965B9
:1018D00064004572723A20546F6F20666172210075
:1018E000546F6F206661722066726F6D207265663C
:1018F0006572656E636520706F696E740A00454598
:1019000050524F4D204F4B0A00290A0020746F207F
:10191000003F5A206F7574206F662072616E676594
:10192000202800290A0020746F20003F59206F757D
:1019300074206F662072616E676520282D00290A69
:101940000020746F20003F58206F7574206F662050
:1019500072616E676520282D00205A0020590050C2
:10196000726F6265204F66667365742058004D384B
:101970003400446F6E65207072696E74696E672002
:1019800066696C650A004D3737004D333100496E8A
:1019900076616C69642065787472756465720A009A
:1019A00020573A00436F6F6C696E672E2E2E0048E9
:1019B000656174696E672E2E2E0045202553002325
:1019C000646566696E652044454641554C545F0028
:1019D0004B6420004B6920004B702000504944208C
:1019E0004175746F74756E652066696E697368659C
:1019F00064212050757420746865206C61737420B4
:101A00004B702C204B6920616E64204B6420636F07
:101A10006E7374616E74732066726F6D2062656C94
:101A20006F7720696E746F20436F6E666967757299
:101A30006174696F6E2E680A0050494420417574C4
:101A40006F74756E65206661696C656421207469C8
:101A50006D656F75740A00504944204175746F7448
:101A6000756E65206661696C6564212054656D70D2
:101A70006572617475726520746F6F20686967683C
:101A80000A00204B643A2000204B693A2000204B8A
:101A9000703A200020436C6173736963205049449D
:101AA000200A002054753A2000204B753A2000206F
:101AB0006D61783A2000206D696E3A200020643A0A
:101AC000200020626961733A20005049442041752A
:101AD000746F74756E652073746172740A00504976
:101AE00044204175746F74756E65206661696C651C
:101AF00064212054656D706572617475726520741F
:101B00006F6F20686967680A005049442041757406
:101B10006F74756E65206661696C65642120426131
:101B200064206865617465722069640A00504944E4
:101B3000204175746F74756E65004572723A207538
:101B400074663820666F6E74206E6F7420696E69DB
:101B50007469616C697A65642E004572723A207509
:101B600074663820666F6E74206E6F7420696E69BB
:101B70007469616C697A65642E004572723A2075E9
:101B800074663820666F6E74206E6F7420696E699B
:101B90007469616C697A65642E00000C0F00FE07A1
:101BA000022503BB017FFE08FE08FE0508080600AB
:101BB0000040F0C88888987810050808060000C022
:101BC000F88888888888F80505050600012030F81F
:101BD00030200508080600002070F820202020E0B2
:101BE0000509090600FF2070A8A8B888887020079A
:101BF0000505070001D86C366CD80509090600FFF9
:101C0000F8A88888888888A8F8050A0A0600FE20AF
:101C10005050505088A8A888700303030600034062
:101C2000A040FFFFFFFFFFFFFFFFFFFFFFFFFFFFE2
:101C3000FFFFFFFFFFFFFFFF0000000605FF01079A
:101C40000706020080808080800080030303060175
:101C500005A0A0A005060606000050F85050F85058
:101C60000509090600FF2070A8A07028A8702005AB
:101C70000707060000C8C810204098980507070607
:101C8000000040A0A040A890680103030602058060
:101C900080800309090601FF204040808080404089
:101CA000200309090601FF80404020202040408099
:101CB00005070706000020A8702070A8200505056C
:101CC0000600012020F820200203030601FFC04087
:101CD00080050101060003F8020202060100C0C0EF
:101CE0000507070600000810102040408005070780
:101CF000060000708898A8C88870030707060100CE
:101D000040C040404040E0050707060000708808DA
:101D1000102040F8050707060000F8081030088872
:101D20007005070706000010305090F810100507E6
:101D300007060000F880F00808887005070706000D
:101D400000304080F0888870050707060000F8081A
:101D50001010202020050707060000708888708872
:101D600088700507070600007088887808106002F0
:101D70000505060100C0C000C0C00206060601FF3E
:101D8000C0C000C04080030505060101204080401E
:101D900020050303060002F800F80305050601010B
:101DA0008040204080050707060000708810202032
:101DB00000200507070600007088B8A8B8807005E5
:101DC0000707060000708888F888888805070706D6
:101DD0000000F04848704848F0050707060000700A
:101DE000888080808870050707060000F048484812
:101DF0004848F0050707060000F88080F08080F86A
:101E0000050707060000F88080F08080800507073E
:101E1000060000708880809888700507070600001B
:101E2000888888F8888888030707060100E0404012
:101E3000404040E0050707060000381010101090E1
:101E4000600507070600008890A0C0A090880507DD
:101E500007060000808080808080F8050707060064
:101E60000088D8A888888888050707060000888821
:101E7000C8A89888880507070600007088888888A1
:101E80008870050707060000F08888F080808005CC
:101E9000070706000070888888A89068050707066D
:101EA0000000F08888F0A090880507070600007001
:101EB000888070088870050707060000F820202039
:101EC00020202005070706000088888888888870F9
:101ED00005070706000088888888505020050707F6
:101EE00006000088888888A8A85005070706000013
:101EF0008888502050888805070706000088885089
:101F000020202020050707060000F8081020408048
:101F1000F80309090601FFE080808080808080E06E
:101F2000050707060000804040201010080309093B
:101F30000601FFE020202020202020E005030306EA
:101F400000052050880501010600FEF80303030682
:101F50000105804020050505060000700878887896
:101F60000507070600008080F0888888F0050505D1
:101F700006000070808088700507070600000808CA
:101F800078888888780505050600007088F08070DC
:101F9000050707060000304840E0404040050707BD
:101FA0000600FE708888887808700507070600001C
:101FB0008080F0888888880307070601004000C0F9
:101FC000404040E00409090601FE100030101010E6
:101FD00010906005070706000080808890E09088D8
:101FE000030707060100C04040404040E0050505EA
:101FF000060000D0A8A8A8A8050505060000B0C8DE
:10200000888888050505060000708888887005079F
:10201000070600FEF0888888F08080050707060024
:10202000FE78888888780808050505060000B0C88D
:1020300080808005050506000078807008F005079F
:10204000070600002020F8202020180505050600BE
:1020500000888888986805050506000088888850EB
:10206000200505050600008888A8A8500505050676
:10207000000088502050880507070600FE888888E1
:1020800050204080050505060000F8102040F803A8
:1020900009090601FF2040404080404040200109DE
:1020A000090602FF8080808080808080800309098B
:1020B0000601FF8040404020404040800503030669
:1020C000000248A890FF43616E6E6F74206F7065C8
:1020D0006E207375626469722000534420636172DC
:1020E00064206F6B0A006F70656E526F6F742066AC
:1020F00061696C65640A00766F6C756D652E696E3A
:102100006974206661696C65640A004E6F205344EF
:1021100020636172640A000A4D3234004D3233206C
:102120002573002E0A006F70656E206661696C650C
:10213000642C2046696C653A200046696C65207302
:10214000656C65637465640A002053697A653A209A
:102150000046696C65206F70656E65643A200045C5
:102160004E4420535542524F5554494E450A002281
:1021700020706F73002220706172656E743A2200C5
:10218000535542524F5554494E452043414C4C20E3
:102190007461726765743A220053756263616C6C96
:1021A000204F766572666C6F77004578636565646D
:1021B0006564206D617820535542524F5554494E05
:1021C000452064657074683A0057726974696E6777
:1021D00020746F2066696C653A20006672657368CA
:1021E00000646F696E67002066696C653A20004E76
:1021F0006F7720002F6175746F25632E6700300B99
:102200000000F00C3200900E640000109600601187
:10221000C800B012FA00E0132C0100155E01001690
:1022200090010017C201F017F4012020506C616E7C
:102230006E657242756666657242797465733A209E
:10224000002046726565204D656D6F72793A2000F9
:10225000436F6D70696C65643A2041707220323949
:1022600020323032310A00204C6173742055706482
:10227000617465643A20323032312D30342D31387A
:10228000207C20417574686F723A20426F6E6474CE
:10229000656368202F20496E73616E69747941759A
:1022A000746F6D6174696F6E0A00322E302E375F65
:1022B0004457372E330A004D61726C696E0020530B
:1022C0006F6674776172652052657365740A0020C9
:1022D0005761746368646F672052657365740A00A0
:1022E0002042726F776E206F75742052657365742B
:1022F0000A002045787465726E616C2052657365C2
:10230000740A00506F77657255700A0073746172B9
:10231000740A004739310A47315A350A4739300AB9
:102320004D38340A4D31303453300A4D3134305346
:1023300030004D31303031006F6B006572726F725A
:102340002077726974696E6720746F2066696C65A6
:102350000A00446F6E6520736176696E6720666956
:102360006C652E0A004D323900456E6473746F70CF
:1023700073002553202563202563202563202563D2
:1023800000205A3A0020593A0020583A00656E64FD
:1023900073746F7073206869743A20000000000144
:1023A0000200090A00000000040308070000000002
:1023B000000000000000000000000000004D6F76EB
:1023C000652025736D6D004D6F766520302E316D63
:1023D0006D004D6F766520316D6D004D6F76652017
:1023E00031306D6D004D6F76652041786973004521
:1023F00078747275646572004D6F7665205A004D71
:102400006F76652059004D6F7665205800507269CF
:102410006E742066726F6D204D6564696100010104
:10242000FF50726F62696E67204661696C65640A6D
:102430000050726F62696E67204661696C65640066
:10244000205A3A200020593A200042656420583A28
:102450002000220A00556E6B6E6F776E20636F6DE1
:102460006D616E643A20220044445820456E6465D4
:1024700072352052656164792E005072696E7469FC
:102480006E672E2E2E005072696E74205061757327
:1024900065640020453A00205A3A0020593A005815
:1024A0003A004572726F722077726974696E6720A4
:1024B000746F20454550524F4D210A0020746F6FB4
:1024C000206C6F6E6720657874727573696F6E200B
:1024D00070726576656E7465640A0020636F6C6463
:1024E00020657874727573696F6E20707265766599
:1024F0006E7465640A00526573656E643A2000006C
:10250000002200250028002B0000002100240027C5
:10251000002A00020202020202020204040404046D
:102520000404040303030303030303010101010182
:10253000010101010204081020408001020408107A
:1025400020408001020408102040808040201008B4
:102550000402012F2F616374696F6E3A00000CCD85
:10256000EED311241FBECFEFD0E4DEBFCDBF12E00B
:10257000A0E0B1E0ECE3F4EC01E00BBF02C0079097
:102580000D92AE34B107D9F727E1AEE4B2E001C055
:102590001D92A13EB207E1F712E1C0EBD2E104C007
:1025A0002197FE010E947DDFCF3AD107C9F70E9433
:1025B000F1CD0C9411E20C9400000F931F93CF9374
:1025C000DF93CDB7DEB760970FB6F894DEBF0FBECE
:1025D000CDBF8C01DC01ED91FC910280F381E02DF7
:1025E000BE016F5F7F4F0995882309F464C089811C
:1025F000807CC9F56F81637070E0762F6627770F56
:10260000770F8885B4E08B9FC0011124682B792B4C
:1026100089858295869586958370682B6F5F7F4F3D
:1026200090E080E02A852370220F3B8537FB33271B
:1026300030F9232B3E813F70230F3327331F275060
:10264000310904C0660F771F881F991F2A95D2F79A
:1026500060960FB6F894DEBF0FBECDBFDF91CF916D
:102660001F910F910895803419F5688566956695D8
:1026700070E090E080E0CB01772766272A85622B07
:10268000098510E0102F0027012E000C220B330BC0
:10269000602B712B822B932B6F5F7F4F8F4F9F4F40
:1026A0004AE0660F771F881F991F4A95D1F7D0CF50
:1026B0008BE0F801848360E070E0CB01C9CF08951E
:1026C000FC0182810895CF92DF92EF92FF92809178
:1026D0007E02882309F457C0C0907A02D0907B0212
:1026E000E0907C02F0907D0220E030E0A901C7017B
:1026F000B6010E9490D8882309F445C020E030E05C
:1027000040E05FE3C701B6010E94F6D89B01AC012F
:102710000E94F6D82BED3FE049E450E40E94F6D841
:102720009B01AC0160E070E080E89FE30E940AE05A
:102730006B017C01C0927502D0927602E092770222
:10274000F092780260911C0170911D01072E000C1F
:10275000880B990B0E9497D82AE037ED43E25CE39F
:102760000E94F6D8A70196010E94F6D860937201E4
:10277000709373018093740190937501FF90EF90B3
:10278000DF90CF900895C12CD12C80E8E82E8FE304
:10279000F82ED0CF8F929F92AF92BF92CF92DF92BE
:1027A000EF92FF92FC01C080D180E280F38020E0B4
:1027B00030E040E251E4C701B6010E94F6D820E0C3
:1027C00030E040E251E40E94F6D84B015C0120E089
:1027D00030E0A901C701B6010E9490D820E030E0A6
:1027E00040EA50E487FF04C020E030E040EA50ECCB
:1027F000C501B4010E9487DF20E030E040E251E4EF
:102800000E940AE00E947CE09B018BE237FF05C03A
:1028100022273327261B370B8DE280932906C90117
:1028200068EE73E00E9469DFCB01EAE0F0E0BF01EF
:102830000E9469DF805D80932A06C90164E670E02A
:102840000E9469DFCB01BF010E9469DF805D809338
:102850002B06C901BF010E9469DF282FCB01BF01F0
:102860000E9469DF805D80932C068EE280932D06A6
:10287000205D20932E0689E296E0FF90EF90DF9096
:10288000CF90BF90AF909F908F9008959C0197FF3D
:1028900026C0EE27FF27E81BF90B2D398FEF3807ED
:1028A0000CF05DC08DE280932B06CF0164E670E0F2
:1028B0000E9469DFCB012AE030E0B9010E9469DFA4
:1028C000805D80932C06CF01B9010E9469DFCB01A6
:1028D000B9010E9469DF805D80932D062AC0283EE1
:1028E00083E03807B4F1C90168EE73E00E9469DF44
:1028F000CB01EAE0F0E0BF010E9469DF805D8093D8
:102900002B06C90164E670E00E9469DFCB01BF01BC
:102910000E9469DF805D80932C06C901BF010E947F
:1029200069DFCB01BF010E9469DF805D80932D06C6
:10293000F901CF016AE070E00E9469DF805D809359
:102940002E068BE296E008958DE237FDC5CF80E23A
:10295000C3CFF90180E2243631050CF0A4CF80E228
:1029600080932B0680932C06EA30F1056CF38DE200
:1029700037FF80E280932C06CF016AE070E00E946E
:1029800069DF605D60932D06D4CF9C0197FD2DC05B
:1029900080E2243631055CF0C90164E670E00E94F3
:1029A00069DFCB016AE070E00E9469DF805D80939F
:1029B0002C0680E22A3031055CF0EAE0F0E0C90143
:1029C000BF010E9469DFCB01BF010E9469DF805D0A
:1029D00080932D06C9016AE070E00E9469DF805D86
:1029E00080932E068CE296E0089531952195310969
:1029F0008DE2DDCF282F81E3243609F080E2809339
:102A00002B0690E22A3040F03AE0822F632F0E949A
:102A10003BDF0E943BDF905D90932C06822F6AE0A3
:102A20000E943BDF905D90932D0685E280932E06F9
:102A30008BE296E0089560911C0170911D01072EB4
:102A4000000C880B990B0E9497D82AE037ED43E2DF
:102A50005CE30E94F6D82091750230917602409195
:102A60007702509178020E94F6D8609372017093B9
:102A7000730180937401909375010895CF93DF9350
:102A8000EC01CB01BA010E9497D829EC38EC48EC54
:102A90005EE30E940AE020E030E040E05FE30E9455
:102AA00087DF0E9483E06883DF91CF9108950E94C1
:102AB00097D829EC38EC48EC5EE30E940AE020E06D
:102AC00030E040E05FE30E9487DF0E9483E024E67D
:102AD000629FC001112481589F4F6FEF70E00E94E8
:102AE00069DF862F0C94FA14CF93DF93EC01CB01AE
:102AF000BA010E9497D820E030E0A9010E9487DF48
:102B00000E947CE079836883DF91CF9108950E94D1
:102B100097D820E030E0A9010E9487DF0E947CE086
:102B2000CB010C94C51480913606811104C08091AC
:102B300003068093880608958091F4168823C1F0D7
:102B400081508093F416E6E3F5E1882351F081503B
:102B5000990B2BE1289FF001299FF00D1124EA51D8
:102B6000FA4E8BE1ABE1B5E101900D928A95E1F768
:102B70002091F416211105C08091FF168062809388
:102B8000FF1681E090E0A0E0B0E0211103C080E0FA
:102B900090E0DC018093240690932506A0932606FE
:102BA000B093270610921F0681E08093210683E0F0
:102BB0008093590108958F929F92AF92BF92CF92C6
:102BC000DF92EF92FF92CF936B017C0120E030E027
:102BD000A9010E9490D887FDAAC06DEB77E386E03B
:102BE00095E3A70196010E9487DF6B017C0120E03D
:102BF00030E0A9010E9490D887FF9EC0C701B601AE
:102C0000905820E030E040E251E40E94F6D820E005
:102C100030E040E251E40E94F6D820E030E040EAA3
:102C200050E40E9487DF20E030E040E251E40E945F
:102C30000AE00E947CE06B017C0180E28093280620
:102C400060E280E1C81687E2D806E104F1048CF066
:102C5000C701B60120E137E240E050E00E94FADE11
:102C6000CA01B9012AE030E040E050E00E94FADEFB
:102C7000605D6093290660E288EEC81683E0D8069E
:102C8000E104F1048CF0C701B60128EE33E040E026
:102C900050E00E94FADECA01B9012AE030E040E0CB
:102CA00050E00E94FADE605D60932A0660E284E6EE
:102CB000C816D104E104F1048CF0C701B60124E682
:102CC00030E040E050E00E94FADECA01B9012AE09B
:102CD00030E040E050E00E94FADE605D60932B0639
:102CE0008AE0882E912CA12CB12CC701B601A50138
:102CF00094010E94FADEC62FCA01B901A501940110
:102D00000E94FADE605D60932C068EE280932D06B1
:102D1000C05DC0932E0688E296E0CF91FF90EF90C1
:102D2000DF90CF90BF90AF909F908F9008956DEB04
:102D300077E386E095EB55CF20E030E040E251E4C8
:102D4000C701B60162CFCF93DF93EC01CB01BA018B
:102D50000E9497D820E030E040E251E40E940AE06F
:102D600020E030E0A9010E9487DF688379838A83AD
:102D70009B83DF91CF9108950E9497D820E030E0A7
:102D800040E251E40E940AE020E030E0A9010E9404
:102D900087DF0C94DB15CF93DF93EC01CB01BA01F5
:102DA0000E9497D820E030E04AE754E40E940AE00D
:102DB00020E030E0A9010E9487DF688379838A835D
:102DC0009B83DF91CF9108958091931590919415F5
:102DD000891B8F7051F480915106813031F08091C0
:102DE000FF1682FB882780F9089581E00895FC0191
:102DF00084910895FC01808108958F929F92AF92F3
:102E0000BF92EF92FF920F931F93CF93DF93EC014A
:102E10008B01E42EF22E8091A5159091A6158C17AA
:102E20009D0709F43EC02091540227FD10925402E0
:102E300027E5CD39D20709F03FC087589D4571F489
:102E40000E94F4B96E517B4F8F4F9F4F60937A046D
:102E500070937B0480937C0490937D04D093A6159B
:102E6000C093A51530E020E00093240610932506BA
:102E70002093260630932706E0921F06F092200644
:102E8000C758DD4521F410921E061092790482E0A5
:102E90008093590181E08093210610928004109262
:102EA0001D06DF91CF911F910F91FF90EF90BF9082
:102EB000AF909F908F9008952DE5C738D20771F697
:102EC0008D59974519F0C7E8DDE5C8CF0E94F4B9E0
:102ED00080907A0490907B04A0907C04B0907D0454
:102EE000681979098A099B0997FFEDCF8091390606
:102EF0008770873041F7CEE6D1E5B0CF20E040E0E3
:102F000070E060E085EB9CE10C94FD1680919906E1
:102F1000811114C0809176019091770101972091E1
:102F2000ED143091EE142817390744F420E040E006
:102F300070E060E08AEB9CE10C94FD160C947E1727
:102F400021E020931E06FC0180819181A281B38142
:102F50008093120190931301A0931401B093150173
:102F600020E040E070E060E080910B0690910C065C
:102F70000C94FD16CF93DF9300D000D0CDB7DEB711
:102F80008DEC9CECACECBCE389839A83AB83BC8373
:102F9000CE0101960E94A0170F900F900F900F90F6
:102FA000DF91CF910895CF93DF9300D000D0CDB7BC
:102FB000DEB78DEC9CECACECBDE389839A83AB83EC
:102FC000BC83CE0101960E94A0170F900F900F9026
:102FD0000F90DF91CF910895CF93DF9300D000D071
:102FE000CDB7DEB780E090E0A0E8BFE389839A83A5
:102FF000AB83BC83CE0101960E94A0170F900F9067
:103000000F900F90DF91CF910895CF93DF9300D071
:1030100000D0CDB7DEB780E090E0A0E2B1E48983D4
:103020009A83AB83BC83CE0101960E94A0170F90B8
:103030000F900F900F90DF91CF9108950F931F93F2
:103040000E94F4B900913D0410913E0420913F0488
:1030500030914004601B710B820B930B97FD0CC0E9
:1030600089B183FB882780F991E089274A9B826098
:10307000309B846080933C0480913C0481709091EB
:103080003C0491FD826090913B04981749F0813097
:1030900009F148F0823079F0833091F080933B045D
:1030A0001F910F910895913079F09230B9F7909176
:1030B0003A0491500CC0992339F09330C1F3EECF0C
:1030C0009130A9F3923051F790913A049F5F909319
:1030D0003A04E4CF992359F3933001F7F5CFCF9217
:1030E000DF92EF92FF92CF93C82F0E94F4B96B0149
:1030F0007C0124EA30E74DE75FE3609112017091B3
:10310000130180911401909115010E9490D887FDC0
:1031100018C08AEF90E0A0E0B0E08C0D9D1DAE1DC0
:10312000BF1D80932E0490932F04A0933004B0937E
:103130003104C0931001CF91FF90EF90DF90CF90BA
:10314000089580E090E0DC01E8CFCF93DF93EC01BD
:103150008D810E942A7A60E08B81DF91CF910C945F
:10316000FDB8DF92EF92FF920F931F93CF93DF93FF
:103170008C01C62FD22FF32EE42ED52E0E94A51837
:103180000E9473BA8C2F80640E941E7A8D2D0E943B
:103190001E7A8E2D0E941E7A8F2D0E941E7A8D2FF0
:1031A0000E941E7A87E8C11101C085E90E941E7A3B
:1031B000CC3011F40E94237AC0E00E94237AF801F7
:1031C000868387FF04C0CF3F11F0CF5FF6CFDF913A
:1031D000CF911F910F91FF90EF90DF90089561E0E4
:1031E000FC0183810E94FDB88FEF0C941E7A0F932F
:1031F0001F93CF938C010E94A5180E9473BAC82F09
:10320000882371F08DEF0E941E7A0E9473BAC82F36
:10321000C8010E94EF188C2FCF911F910F91089534
:1032200082E1F8018483F4CF8F929F92AF92BF9294
:10323000CF92DF92EF92FF920F931F93CF93DF9382
:10324000EC016A017B01590120E030E0A90167E34C
:103250000E94B118A501980167E1CE010E94B11842
:10326000811127C08F81833039F089E0CC0CDD1CBF
:10327000EE1CFF1C8A95D1F7A701960169E1CE01EA
:103280000E94B11811E0882319F010E087E08C83C8
:10329000CE010E94EF18812FDF91CF911F910F91E6
:1032A000FF90EF90DF90CF90BF90AF909F908F9066
:1032B000089589E08C8310E0EBCFCF93DF93EC018E
:1032C0006EBDFA01CA019E5F0DB407FEFDCF2081DD
:1032D0002EBD0DB407FEFDCF21812EBD3296E8171D
:1032E000F90791F70DB407FEFDCF8FEF0E941E7A0C
:1032F0008FEF0E941E7A0E94237A8E838F71853011
:1033000049F083E18C83CE010E94EF1880E0DF91C9
:10331000CF91089581E0FBCF0F931F93CF93DF935D
:10332000EC018B010E94A5180E9473BA81110CC098
:1033300085E18C8310E0CE010E94EF18812FDF9190
:10334000CF911F910F910895A8016CEFCE010E94BB
:103350005D19182F882361F3EECF0F931F93CF933E
:10336000DF93EC0189018F81833039F089E0440FCC
:10337000551F661F771F8A95D1F79A01AB0168E147
:10338000CE010E94B11881112AC0A8016EEFCE01B2
:103390000E945D19182F8823B1F00E9473BA182F6C
:1033A0008823D1F020E030E0A9016DE0CE010E9439
:1033B000B118882321F086E18C8310E004C00E94BC
:1033C000237A8111F8CFCE010E94EF18812FDF916F
:1033D000CF911F910F91089587E18C83F4CF86E000
:1033E000EBCF1F93CF93DF93EC010E94A51820E051
:1033F00030E0A9016CE0CE010E94B11811E08823F1
:1034000019F010E083E08C83CE010E94EF18812F29
:10341000DF91CF911F9108951F93CF93DF93EC011C
:103420008F81833039F089E0440F551F661F771F65
:103430008A95D1F79A01AB0162E1CE010E94B118E1
:1034400011E0882319F010E085E08C83CE010E9402
:10345000EF18812FDF91CF911F9108958F929F9246
:10346000AF92BF92EF92FF920F931F93CF93DF9390
:103470008C01EB017A010E94F4B94B015C012CE252
:10348000820E21E0921EA11CB11C0E94237AF80139
:1034900086838F3F69F40E94F4B9681979098A0913
:1034A0009B0997FDF2CF81E1F8018483C0E021C040
:1034B0008E3F71F5F1E0EF1AF1088FEF8EBDFE013E
:1034C0002FEF0DB407FEFDCF8EB581932EBDCF013A
:1034D0008C1B9D0B8E159F05A0F30DB407FEFDCF31
:1034E0008EB5CE0DDF1D88830E94237A0E94237A39
:1034F000C1E0C8010E94EF188C2FDF91CF911F917E
:103500000F91FF90EF90BF90AF909F908F90089594
:103510008FE0CACF0F931F93CF93DF93EC018B0102
:103520000E94A51840E052E0B801CE01DF91CF9192
:103530001F910F910C942E1A0F931F93CF93DF932B
:10354000EC0189018F81833039F089E0440F551FE8
:10355000661F771F8A95D1F79A01AB0161E1CE0111
:103560000E94B11881110AC040E052E0B801CE01BA
:10357000DF91CF911F910F910C942E1A84E08C83D0
:10358000CE010E94EF1880E0DF91CF911F910F9143
:1035900008958F929F92AF92BF92CF92DF92EF9257
:1035A000FF920F931F93CF93DF93EC01162F1F828F
:1035B0001C824B830E94F4B96B017C0120EDC20E8A
:1035C00027E0D21EE11CF11CA89561E08B810E94CE
:1035D000FDB88B810E94AEB0249A2C9A279A269827
:1035E000259A81E00E942A7A85E08D830E942A7ABA
:1035F0000AE08FEF0E941E7A0150D9F7A89520E0CB
:1036000030E0A90160E0CE010E94B1188E838130C4
:1036100081F00E94F4B96C197D098E099F0997FD0C
:10362000EECF81E08C83CE010E94EF181A8280E0F9
:103630006AC0A8952AEA31E040E050E068E0CE0197
:103640000E94B118853041F581E08F83A8958F8164
:10365000812C912C5401823029F4812C912CA12CA5
:1036600080E4B82E20E030E0A90167E3CE010E949B
:10367000B118A501940169E2CE010E94B1188E83B0
:103680008823F1F00E94F4B96C197D098E099F0915
:1036900097FDE8CF8AE0C6CF04E00E94237A8E83AC
:1036A0000150D9F78A3A11F482E0CFCF0E94F4B9E1
:1036B0006C197D098E099F0997FDBCCF82E0B2CFBE
:1036C0008F818230C1F420E030E0A9016AE3CE01AD
:1036D0000E94B118882311F088E0A4CF0E94237AB9
:1036E000807C803C11F483E08F830E94237A0E94C7
:1036F000237A0E94237ACE010E94EF1881E08A8308
:10370000173070F41D83DF91CF911F910F91FF90BF
:10371000EF90DF90CF90BF90AF909F908F900895E3
:1037200088E18C8384CF0F931F93CF93DF93EC01B9
:103730008B0120E030E0A90169E00E94B1188111FD
:103740000AC040E150E0B801CE01DF91CF911F9156
:103750000F910C942E1A80E18C83CE010E94EF18F9
:1037600080E0DF91CF911F910F910895CF93C82FE3
:10377000CB010E94947580E496E00E94947581E3E9
:1037800096E0CC2311F086E396E00E9494758AE0DF
:10379000CF910C947C750C9400BA0C9400BA4091B3
:1037A000FB0221E042276CE070E00C94F0B1409104
:1037B000FB0221E0422764E070E00C94F0B14091FC
:1037C000FB0221E0422761E070E00C94F0B14091EF
:1037D000FB0221E0422762E070E00C94F0B14091DE
:1037E000FB0221E0422761E070E00C94F0B14091CF
:1037F000FB0221E0422768E070E00C94F0B14091B8
:10380000FB0221E042276CE070E00C94F0B141E053
:1038100061E070E00C94F0B14091FB0221E042279E
:103820000C94F0B162E070E00C948CB96CE070E044
:103830000C948CB964E070E00C948CB961E070E099
:103840000C948CB961E070E00C948CB96CE070E081
:103850000C948CB9CF93DF9380919315909194152C
:10386000891B80958F7019F40E945F7EF5CF80913F
:1038700093158F5F8F70A09193159BE4A99FD00142
:103880001124FD01E456F94FEF0119929A95E9F7D9
:1038900098E09083AF54B94F90E1E5E9F5E10190EC
:1038A0000D929A95E1F72091931590919415291313
:1038B00003C094E69093901580939315DF91CF9178
:1038C0000C94BD72CF92DF92EF92FF920F931F93F1
:1038D000C12CD12C76018C012EE631E04AE651E074
:1038E00066E671E082E691E00E9448B11F910F9177
:1038F000FF90EF90DF90CF900895CF93DF9300D0AB
:1039000000D0CDB7DEB784EF91E0A0E0B0E08983CE
:103910009A83AB83BC83BE016F5F7F4F88E70E94B1
:1039200032740F900F900F900F90DF91CF91089508
:10393000CF93DF93CDB7DEB720E24F8158856E81FC
:103940008D810E94C1B5DF91CF91089569E879E436
:1039500082E00C94F3CA6EE879E481E00C94F3CA37
:1039600063E979E480E00C94F3CA68E979E483E0E0
:103970000C94F3CA0F931F9308E715E02AE735E08C
:103980004EE757E16AE875E08FE895E00E9478BD60
:103990001F910F9108950F931F930BEA14E020E2FB
:1039A00035E048E35AE56DEA74E082EB94E00E946A
:1039B00078BD1F910F910895CF92DF92EF92FF9201
:1039C000CF93DF9300D000D0CDB7DEB70E9497D859
:1039D00020E030E04AE754E40E940AE020E030E0D2
:1039E000A9010E9487DF6B017C0120E030E0A90182
:1039F0000E9490D82DEB37E346E055E387FF04C0E3
:103A00002DEB37E346E055EBC701B6010E9487DF97
:103A100069837A838B839C83CE0101960E947AB658
:103A20000F900F900F900F90DF91CF91FF90EF903C
:103A3000DF90CF90089580915901882341F06091E3
:103A40007E0470917F0441E081E00C9464B5089598
:103A5000CF93DF93EC010E9416C41B82DF91CF91BC
:103A60000895CF93DF93EC01462F41706C857D85DF
:103A70008E859F850E94E3C0882351F0888920E2CB
:103A8000829FC001112488529D4EDF91CF910895ED
:103A900090E080E0FACFCF93DF93EB01FC0123812C
:103AA000211104C080E0DF91CF910895225022308F
:103AB00028F48FE28883198281E0F5CF60E00E94CC
:103AC000311D009779F3DC0160E080E09EE22D91EA
:103AD000203299F0883031F49E01260F311DF90112
:103AE00090836F5F9E01260F311DAD01415051093A
:103AF000FA014081F90140836F5F8F5F8B3039F7A6
:103B0000FE01E60FF11D1082D7CF3F924F925F92D8
:103B10006F927F928F929F92AF92BF92CF92DF92DD
:103B2000EF92FF920F931F93CF93DF93CDB7DEB742
:103B30002C970FB6F894DEBF0FBECDBF5C01DC0141
:103B400059968D909C90F40181859285A385B485CA
:103B50009C01AD012F5F3F4F4F4F5F4F29873A8741
:103B60004B875C87D50114964D905D906D907C904D
:103B70001797411451046104710409F459C0BFEF4F
:103B80004B1A5B0A6B0A7B0A312C730162011D829E
:103B90001E821F821886F40181859285A385B485D3
:103BA0002D813E814F815885281739074A075B07C9
:103BB00008F056C089859A85AB85BC858C159D0516
:103BC000AE05BF0550F482E0C82ED12CE12CF12CBB
:103BD00092E0492E512C612C712C9E012F5F3F4F9A
:103BE000B701A601C4010E941DC38823C9F18981C0
:103BF0009A81AB81BC81892B8A2B8B2B01F1260109
:103C000037019FEF491A590A690A790A2D813E81C5
:103C10004F8158852F5F3F4F4F4F5F4F2D833E831E
:103C20004F8358873FEFC31AD30AE30AF30AB3CF8F
:103C3000408051806280738033243394A6CFC414B3
:103C4000D504E604F70411F70FEF1FEF2FEF3FE065
:103C5000B701A601C4010E948BC2782E81111AC03F
:103C6000712C872D2C960FB6F894DEBF0FBECDBFFA
:103C7000DF91CF911F910F91FF90EF90DF90CF9048
:103C8000BF90AF909F908F907F906F905F904F907C
:103C90003F900895F50144815581668177814115F2
:103CA00051056105710539F097018601C4010E9433
:103CB0008BC28823A9F2D5011496CD92DD92ED92A4
:103CC000FC921797332051F0D701C6010196A11D30
:103CD000B11DF40180839183A283B383F5018589AB
:103CE0009689A789B08D892B8A2B8B2B09F0B9CFA8
:103CF000C58AD68AE78AF08E818180688183B1CFB8
:103D000040E050E0BA010C9465C44F925F926F920C
:103D10007F92AF92BF92CF92DF92EF92FF920F937A
:103D20001F93CF93DF931F92CDB7DEB78C017B013A
:103D30005A01C22EDB0159968D919C91F801928F08
:103D4000818FCB010E94801E712CF70180859185A7
:103D5000A285B3854189528963897489841795073F
:103D6000A607B70708F052C055E0B695A7959795F6
:103D700087955A95D1F7F82FFF70DF2ED70113964C
:103D80008C91823010F480E0DBC041E050E0BE0155
:103D90006F5F7F4FC7010E948DC50197A1F7F701A3
:103DA00080859185A285B3854F96A11DB11D808721
:103DB0009187A287B387F0E2DF9EB0011124685299
:103DC0007D4E61157105F9F2DB018C91882341F07C
:103DD000853E09F04CC0772029F077247394B5CF45
:103DE00071100EC08091D8149091D914A091DA145A
:103DF000B091DB14F80184879587A687B787D08AAE
:103E0000DB018C918111E9CF772473948C2D82741E
:103E1000823409F0B8CF772009F4A2C0F801D08825
:103E200061E0C8010E94311D009709F4ACCF20E287
:103E3000DC011D922A95E9F72BE0F501DC010190E8
:103E40000D922A95E1F721E238E2FC01318B208BBB
:103E500040E058E057874687338B228B318F208F85
:103E6000578B468B0E949AC0811109C08CCF4BE0C2
:103E700050E0C5010E949CE1892B09F066CFF0E279
:103E8000DF9ED00111249D0128523D4EF90183850A
:103E9000817121F08C2D827109F001C1F801818DB1
:103EA000928D4091D8145091D9146091DA14709188
:103EB000DB144487558766877787D08AFD01E852EF
:103EC000FD4E44885588712C612C320155244424C0
:103ED000D80155964D925D926D927C925897428D85
:103EE000538D70E060E0442955296629772955965D
:103EF0004D935D936D937C935897D9011B962C91AC
:103F0000287109F0BEC0848D958DA68DB78DF801FE
:103F1000818B928BA38BB48B81E083838C2D8F70EC
:103F2000F801818314821582168217821086118609
:103F30001286138681E0C4FE03C0C8010E94F9C442
:103F40000F90DF91CF911F910F91FF90EF90DF9035
:103F5000CF90BF90AF907F906F905F904F900895FB
:103F6000D70113968C911397823009F40CCF519698
:103F70008D919D910D90BC91A02D803E9F4FAF41A2
:103F8000B10508F000CFC7010E94851D882309F400
:103F9000FACE0E949AC0882309F4F5CED70159962B
:103FA000ED91FC915A9714964D905D906D907C9098
:103FB0001797B2E04B1A510861087108858504C053
:103FC000440C551C661C771C8A95D2F7868597850C
:103FD000A089B189480E591E6A1E7B1E81E080931C
:103FE000DC144092D8145092D9146092DA14709272
:103FF000DB14E8EDF2E180E092E0DF019C011D922C
:1040000021503040E1F7DD24D394D7015996ED914A
:10401000FC918481D816C0F48091DD149091DE1457
:10402000DC01ED91FC910288F389E02D28ED32E16D
:10403000B301A2014D0D511D611D711D099588230C
:1040400009F4A1CED394E1CF258580E092E0A0E0F1
:10405000B0E004C0880F991FAA1FBB1F2A95D2F792
:10406000F7014189528963897489840F951FA61FBE
:10407000B71F818B928BA38BB48B88ED92E1D12CEF
:10408000D6CE203161F498012F5E3F4F0E94A0C32D
:10409000882329F084E0D80113968C933FCFD80170
:1040A00013961C9270CEFC01238121110C94281DC3
:1040B00008952F923F924F925F926F927F928F92CC
:1040C0009F92AF92BF92CF92DF92EF92FF920F93A7
:1040D0001F93CF93DF93CDB7DEB7C354D1090FB68B
:1040E000F894DEBF0FBECDBF4C015B016A01222EEA
:1040F00019821C821C8E1F8E6115710521F510E03E
:10410000CE014C960E945320CE0101960E9453206E
:10411000812FCD5BDF4F0FB6F894DEBF0FBECDBF52
:10412000DF91CF911F910F91FF90EF90DF90CF9093
:10413000BF90AF909F908F907F906F905F904F90C7
:104140003F902F900895FC0183818111D8CFFA010F
:1041500080818F32A1F18B01CE0101967C013C015F
:1041600080E2382E2E019CE1490E511C2396EFAEC1
:1041700023972496FFAE249722963FAE229721964E
:104180003FAE21973FAE3EAE3DAE3CAE3BAE3AAE0B
:1041900039AE38AE3FAA960190E047E0D9018D9143
:1041A000882309F447C08F3209F444C08E3209F5E0
:1041B0004A3009F4A4CF98E04AE09D01EFCFFB011B
:1041C000838182508B01823060F0618D728DCE01CF
:1041D0004C960E94D5C98E01045E1F4F882309F4B6
:1041E0008ECFC6016C010196F60120812F32D1F3EA
:1041F000B3CFE0E5F0E12491222321F03196821340
:10420000FACF7DCF491708F47ACF813208F477CFFF
:104210008F3709F474CF3FE9380F3A3108F420EEB4
:10422000E7E3F0E0EC0FFD1FE90FF11D820F808343
:104230009F5FC3CF8FA9803209F461CF6901F90173
:1042400080812F5F3F4F8F32C9F3882301F121E036
:10425000AE01495C5F4FB801C7010E94851E8823EB
:1042600009F44DCF0A151B0519F0C8010E94281D3D
:10427000942D852D6E147F0431F023969FAD2397E6
:1042800024968FAD24978701E92EF82E75CF222D25
:10429000AE01495C5F4FB801C4010E94851E182F12
:1042A0002FCF8F929F92AF92BF92CF92DF92EF92D9
:1042B000FF92CF936B017C01B42E20E030E0A90186
:1042C0000E9490D887FF07C08DE20E947C75F7FAA4
:1042D000F094F7F8F094C0E060E070E080E09FE3D5
:1042E000CB1541F02DEC3CEC4CEC5DE30E94F6D894
:1042F000CF5FF6CFA70196010E9487DF6B017C019B
:104300000E9483E04B015C014AE00E9480BFCC2305
:1043100079F1C501B4010E9495D89B01AC01C70198
:10432000B6010E9486DF6B017C018EE20E947C75E3
:10433000C150F0F020E030E040E251E4C701B601A6
:104340000E94F6D86B017C010E9483E04B015C0166
:104350004AE00E9480BFC501B4010E9495D89B012C
:10436000AC01C701B6010E9486DF6B017C01E0CF82
:10437000CF91FF90EF90DF90CF90BF90AF909F9044
:104380008F9008958F929F92AF92BF92CF92DF92BB
:10439000EF92FF920F931F93CF93C82F09EE14E172
:1043A000F80166817781072E000C880B990B0E941B
:1043B00097D86B017C01F80164817581072E000C90
:1043C000880B990B0E9497D84B015C0180E20E94F8
:1043D0007C7584E50E947C758AE30E947C7542E0CE
:1043E000C501B4010E94512189E490E10E949475B5
:1043F00042E0C701B6010E94512162E070E080E016
:1044000090E00E9459B985E1C802F0011124E751FA
:10441000FB4E608570E08CE490E1CF911F910F918D
:10442000FF90EF90DF90CF90BF90AF909F908F90D4
:104430000C943F760F930FB70F9300916E000B7F94
:1044400000936E0078940F930BB70F930CB70F92F5
:104450001F922F933F934F935F936F937F938F930D
:104460009F93AF93BF93EF93FF9311240E94A926CC
:10447000FF91EF91BF91AF919F918F917F916F913C
:104480005F914F913F912F911F900F900CBF0F9113
:104490000BBF0F910460F89400936E000F910FBF53
:1044A0000F911895CF93DF93C9EED4E11F821E823E
:1044B0000E9400BA18865D98DF91CF910895CF933E
:1044C000DF93C9EED4E18A819B810E940CAF9D836A
:1044D0008C83A8951092FE02DF91CF910895EF9200
:1044E000FF920F931F93CF93C82F7B018A01809176
:1044F0000206813099F40E944976C7010E949475A2
:1045000081EA9FE00E949475C7FD1BC08C2FCC0FE1
:10451000990B0E94A4AF8AE00E947C750E945222EF
:10452000A89580911505811111C081E08093150532
:1045300080E88093020640E06AE97FE0C8010E94BB
:10454000CB788DE99FE00E949475E5CFCF911F91C4
:104550000F91FF90EF900895CF93DF93EC01488186
:1045600059816A817B8180E99FE00E945C7A4C815D
:104570005D816E817F818BE994E20E945C7A48853F
:1045800059856A857B8587E994E20E945C7A8AE096
:10459000DF91CF910C947C75BC012091F604309191
:1045A000F7044091F6045091F7042417350731F4CD
:1045B00081E02617370709F080E008959A01F1CFCE
:1045C0000F930FB70F9300916E000F930B7F009323
:1045D0006E0000916F000D7F00936F000F930BB77B
:1045E0000F930CB70F921F922F933F934F935F93AC
:1045F0006F937F938F939F93AF93BF93EF93FF93AB
:1046000011240E94D427FF91EF91BF91AF919F9108
:104610008F917F916F915F914F913F912F911F905B
:104620000F900CBF0F910BBF0F910260F894009395
:104630006F000F9100936E000F910FBF0F911895AF
:1046400000000000000000008091F10580FF27C0FD
:10465000459A8FEF8093AC048091F105869580FF99
:1046600021C0479A8FEF8093AD048091F105869524
:10467000869580FF1AC02A9A8FEF8093AE048091AE
:10468000F10586958695869580FF12C0289A8FEF52
:104690008093AF04000000000000000008954598DA
:1046A00081E0D8CF479881E0DECF2A9881E0E5CF3E
:1046B000289881E0EDCFAF92BF92CF92DF92EF9238
:1046C000FF920F931F93CF93DF93CDE4DBE000E7DE
:1046D00016E08DE5A82E8BE0B82EC12CD12C7601EA
:1046E000C39469917991899199910E9495D828896B
:1046F00039894A895B890E94F6D80E9483E0F801D3
:1047000061937193819391938F01C616D706E80642
:10471000F90610F46B017C01AC16BD0611F76FEFC2
:104720007FEFCB01A70196010E94D8DE209380067F
:10473000309381064093820650938306DF91CF9198
:104740001F910F91FF90EF90DF90CF90BF90AF90AF
:1047500008950F931F93CF93DF9301E61BE0C9E801
:10476000D6E0F80121913191419151918F0160E0A2
:1047700070E080E89FE30E940AE06993799389934F
:104780009993F6E0C939DF0761F70E94AAB1DF917A
:10479000CF911F910F910C945B230C94A9230C943F
:1047A000A9230C94A9230C94A9239091931580918B
:1047B0009415981306C080919A0690919B06892BB8
:1047C00019F00E945F7EF1CF08959091931580912A
:1047D0009415981308C080919A0690919B06892B96
:1047E00011F40C94FE720E945F7EEFCFCF93DF93A3
:1047F00020917902222379F0EC010E94E16F9B0164
:10480000AC01688579858A859B850E9486DF6887EB
:1048100079878A879B87DF91CF910895CF93DF9324
:1048200020917902222379F0EC010E94E16F9B0133
:10483000AC01688579858A859B850E9487DF6887BA
:1048400079878A879B87DF91CF9108954F925F92F6
:104850006F927F928F929F92AF92BF92CF92DF9290
:10486000EF92FF920F931F93CF93DF93CDB7DEB7F5
:104870006A970FB6F894DEBF0FBECDBF9A8F898FAF
:104880005B018A01DC01D6966D917D918D919C91A1
:10489000D9970E9495D86B017C01F5012081318167
:1048A000428153810E94F6D80E94F3DF2B013C0124
:1048B000D8012D913D914D915C91C701B6010E94A7
:1048C000F6D80E94F3DF4B015C01C301B2010E94E4
:1048D00083E0698B7A8B8B8B9C8B683771058105A4
:1048E000910540F428E730E040E050E0298B3A8B16
:1048F0004B8B5C8BC501B4010E9483E06D877E8782
:104900008F87988B683771058105910540F488E79A
:1049100090E0A0E0B0E08D879E87AF87B88BE98DEF
:10492000FA8DEE5BFF4F20813181428153812983D3
:104930003A834B835C83CA01B9010E9497D82B014B
:104940003C0169897A898B899C890E9495D86987FD
:104950007A878B879C8720E030E0A901C301B201F0
:104960000E9490D8882309F43BC1A7019601C70192
:10497000B6010E94F6D84B015C0129853A854B852A
:104980005C85CA01B9010E94F6D89B01AC01C50142
:10499000B4010E9486DF4B015C01A3019201C301B7
:1049A000B2010E9487DF9B01AC01C501B4010E94E6
:1049B0000AE00E94F3DF0E9483E06D837E838F8391
:1049C000988769817A818B819C819095809570957B
:1049D00061957F4F8F4F9F4F0E9497D84B015C018D
:1049E0006D857E858F8598890E9495D869837A83A5
:1049F0008B839C8320E030E0A901C501B4010E94B3
:104A000090D8882309F4F0C029813A814B815C81D8
:104A1000CA01B9010E94F6D86D8B7E8B8F8B988F5F
:104A2000A7019601C701B6010E94F6D89B01AC010F
:104A30006D897E898F89988D0E9486DF6B017C014C
:104A4000A5019401C501B4010E9487DF9B01AC015F
:104A5000C701B6010E940AE00E94B2E0A98DBA8D9A
:104A600095968D909D90AD90BC909897750164013E
:104A70002D813E814F815885C21AD30AE40AF50A76
:104A80000E9483E0C61AD70AE80AF90AF7FE6EC048
:104A900020E030E0A901C301B2010E9490D8882330
:104AA00009F4A6C0C501B4010E9495D86B017C0130
:104AB000A3019201C301B2010E9487DF9B01AC01F7
:104AC000C701B6010E94F6D86B017C0129853A85A1
:104AD0004B855C85CA01B9010E94F6D89B01AC01E7
:104AE000C701B6010E9486DF6B017C0129813A81F2
:104AF0004B815C81CA01B9010E94F6D89B01AC01CF
:104B0000C701B6010E9487DF6B017C0120E030E025
:104B100040E850E4C301B2010E94F6D89B01AC0109
:104B2000C701B6010E940AE00E94F3DF6B017C011D
:104B300020E030E0A9010E940AE118161CF0C12C07
:104B4000D12C7601C701B6010E9483E06D837E837C
:104B50008F83988786169706A806B90620F48D825B
:104B60009E82AF82B886C12CD12C76018D819E8128
:104B7000AF81B885E98DFA8D81A792A7A3A7B4A7C5
:104B8000C80ED91EEA1EFB1EC5A6D6A6E7A6F0AA29
:104B900029893A894B895C8922AF33AF44AF55AF3D
:104BA000FE962D853E854F8558892083318342832B
:104BB00053836A960FB6F894DEBF0FBECDBFDF9168
:104BC000CF911F910F91FF90EF90DF90CF90BF900A
:104BD000AF909F908F907F906F905F904F900895CF
:104BE00060E070E0CB01E5CE60E070E0CB0134CF57
:104BF00060E070E0CB0198CF90916F0081E091FD73
:104C000002C080E0089590916F009D7F90936F00A7
:104C10000895CF93C82F0E94FC2594E0C99F90016E
:104C20001124F901E750FB4F2B5F3A4FD9014D9109
:104C30005D916D917C91408351836283738391E098
:104C40009093F804882319F0CF910C94BD72CF9102
:104C50000895CF92DF92EF92FF928091F00581113B
:104C600005C080913A06882309F46EC080918B04B8
:104C7000329B64C0806180938B0480918B04339B52
:104C80005FC0806280938B0480918B04349B5AC0F8
:104C9000846080938B04C090E904C0FE10C08091B2
:104CA000F10580FD0CC080918B0484FF08C08091C9
:104CB000010680618093010680E00E940926D12CC4
:104CC000F12CE12CD701C601B695A795979587954C
:104CD00080FF11C08091F105869580FD0CC0809108
:104CE0008B0485FF08C080910106806280930106D5
:104CF00081E00E94092682E0F694E794D794C79455
:104D00008A95D1F7C0FE20C08091F10586958695E1
:104D100080FF1AC080913A068823B1F080918B04FD
:104D200082FF12C08091010684608093010682E0B8
:104D3000FF90EF90DF90CF900C9409268F7E9BCF51
:104D40008F7DA0CF8B7FA5CFFF90EF90DF90CF908E
:104D500008950F931F93CF93DF9380913E018F3778
:104D6000A8F18F579091F11490932D05992391F10B
:104D70005D9A8F5F80933E0180912C0591E0892799
:104D800080932C0581110E941E1880913D01C1E085
:104D9000C80F83300CF0C0E0813009F481C0E4F426
:104DA000882379F1C0933D010E94292680919A06BB
:104DB00090919B06009729F0019790939B06809312
:104DC0009A06DF91CF911F910F91089590912D0533
:104DD000891778F25D98CDCF823009F46CC08330AA
:104DE00009F780912B05811103C087E080932B0583
:104DF00080912B05815080932B05882399F2C3E085
:104E0000D1CF80913C018F5F80311CF480933C01B5
:104E1000C9CF10923C018091FE0281110BC080919C
:104E2000E9149091EA149093EC148093EB1481E0D0
:104E30008093FE021092EA141092E9140091EB1490
:104E40001091EC148091EF149091F014D1E01816A9
:104E500019062CF08091F114811101C0D0E08091ED
:104E6000520190915301801791073CF44BE050E1BF
:104E700068E170E180E00E946F22DD2309F492CFA7
:104E80008091500190915101081719070CF08ACFB9
:104E90004AE250E167E370E180E00E946F2282CF36
:104EA00010927B0087E480937C0080917A0080647C
:104EB00080937A0077CF80917A0086FD0FC0209191
:104EC0007800309179008091E9149091EA14820F72
:104ED000931F9093EA148093E91464CFC2E062CFE9
:104EE0000E94FC2510928406109285061092860678
:104EF0001092870681110C94BD7208950F931F9331
:104F00008091931590919415891B8F7009F449C075
:104F100090919015992361F0833040F48FEF890FC1
:104F200029F08093901590E080E038C010929015A1
:104F3000809194152BE4829FC00111248456994FCF
:104F4000FC01208120FDEFCF409184065091850621
:104F50006091860670918706E95BFF4F00811181A1
:104F600022813381401B510B620B730B40938406EB
:104F7000509385066093860670938706209194155A
:104F80002F5F2F70209391153091941520919215D9
:104F9000321304C020919115209392151F910F9107
:104FA00008950E947027BFCF2F923F924F925F9239
:104FB0006F927F928F929F92AF92BF92CF92DF9229
:104FC000EF92FF920F931F93CF93DF9300D000D007
:104FD000CDB7DEB78FEF9FEF909389008093880065
:104FE0000AE00983312C212C78948091F20490916D
:104FF000F304A091F404B091F504892B8A2B8B2B38
:1050000009F0C4C18091F8048823E1F08091F6048E
:105010009091F7041092F804892B09F4B7C110920B
:10502000F7041092F6041092E90490919315809180
:105030009415981709F4AAC1809194158F5F8F7009
:10504000809394158091F6049091F704892B09F4CC
:105050009DC14091EE045091EF046091F004709175
:10506000F1048091EA049091EB04A091EC04B091DA
:10507000ED040091DC0410E030E020E0841B950B8F
:10508000A60BB70B081719072A073B0710F4D9011D
:10509000C8018A83840F951FA61FB71F8093EE0453
:1050A0009093EF04A093F004B093F104E1E0C0907A
:1050B000B404D090B504E090B604F090B7048091A9
:1050C000C4049091C504A091C604B091C704C80E51
:1050D000D91EEA1EFB1EC092C404D092C504E09201
:1050E000C604F092C704F7FC33C04091AC04042E10
:1050F000000C550B660B770B80910505909106050A
:10510000A0910705B0910805840F951FA61FB71F32
:105110008093050590930605A0930705B0930805B5
:105120008091B0049091B104A091B204B091B30405
:10513000A7019601281B390B4A0B5B0BDA01C90149
:105140008093C4049093C504A093C604B093C7048D
:105150000091B8041091B9042091BA043091BB04B5
:105160008091C8049091C904A091CA04B091CB0465
:10517000080F191F2A1F3B1F0093C8041093C9046E
:105180002093CA043093CB0437FD33C08091AD0423
:10519000082E000C990BAA0BBB0B409109055091EE
:1051A0000A0560910B0570910C05840F951FA61FD1
:1051B000B71F8093090590930A05A0930B05B09340
:1051C0000C058091B0049091B104A091B204B0910B
:1051D000B304B901A801481B590B6A0B7B0BDB0117
:1051E000CA018093C8049093C904A093CA04B093E1
:1051F000CB044091BC045091BD046091BE047091F9
:10520000BF048091CC049091CD04A091CE04B091C4
:10521000CF04480F591F6A1F7B1F4093CC04509343
:10522000CD046093CE047093CF0477FD33C080919A
:10523000AE04082E000C990BAA0BBB0B80900D0539
:1052400090900E05A0900F05B0901005880D991D47
:10525000AA1DBB1D80930D0590930E05A0930F050D
:10526000B09310058091B0049091B104A091B20464
:10527000B091B3042A013B01481A590A6A0A7B0A11
:10528000D301C2018093CC049093CD04A093CE04AB
:10529000B093CF048090C0049090C104A090C20449
:1052A000B090C3048091D0049091D104A091D20415
:1052B000B091D304880D991DAA1DBB1D8093D00405
:1052C0009093D104A093D204B093D304B7FD33C01C
:1052D0004090AF04042C000C5508660877088090B5
:1052E000110590901205A0901305B0901405840C40
:1052F000951CA61CB71C8092110590921205A092D5
:105300001305B09214058090B0049090B104A09061
:10531000B204B090B3042C013D01481859086A0842
:105320007B08530142018092D0049092D104A09254
:10533000D204B092D304E11104C0E0918400F09152
:105340008500F7FE5F9A37FF469A77FF2B9AB7FFE3
:10535000299AE0918400F0918500E0918400F09119
:105360008500F7FE5F9837FF469877FF2B98B7FFC9
:1053700029985A80552021F08091840090918500D1
:105380000A8101500A83E0E0011191CE80905E0114
:1053900090905F01A0906001B09061018114910430
:1053A000A104B10409F047C080913F0690914006E6
:1053B000009709F42FC023B1247015980000000055
:1053C00000000000181619060CF4D7C02A9A000035
:1053D0000000000000002B9A34E03A950000E9F745
:1053E0002B980000000000000000222309F4C7C031
:1053F0002A9A0000000000000000181619060CF0A0
:10540000C0C080913F06909140060197909340065E
:1054100080933F060E94C372882309F4B8C080EDD0
:1054200097E0A0E0B0E080935E0190935F01A093CD
:105430006001B09361018091F2049091F304A09116
:10544000F404B091F504892B8A2B8B2B09F050C4FE
:10545000E091F604F091F704309709F424C58091A7
:10546000EE049091EF04A091F004B091F10440910A
:10547000EA045091EB046091EC047091ED04841700
:105480009507A607B70708F486C01092F704109294
:10549000F6041092E9049091931580919415981751
:1054A00009F401C5809194158F5F8F7080939415D6
:1054B00080EDC82E87E0D82EE12CF12C8091F604E7
:1054C0009091F704892B09F00BC40E947E279093DA
:1054D000F7048093F604892B09F402C44090F60483
:1054E0005090F7045C824B82D2018C9183FFB3C24F
:1054F000F201858D968DA78DB0A1418D528D638D62
:10550000748D058916892789308D009305051093C0
:10551000060520930705309308054093090550932D
:105520000A0560930B0570930C0580930D0590930D
:105530000E05A0930F05B093100581A192A1A3A120
:10554000B4A18093110590931205A0931305B09315
:1055500014051092F7041092F6041092E904909149
:10556000931580919415981709F4AFCF80919415F5
:105570008F5F8F7080939415A8CF2A9828CF2A9890
:1055800038CF80913F069091400601963FCF8FEF34
:105590009FEFDC0148CF4091E5045091E604609113
:1055A000E7047091E804481759076A077B0708F475
:1055B000DEC08091E1049091E204A091E304B091F7
:1055C000E40441A952A963A974A91127859F412C1C
:1055D000969F9001A69F300DA59F200D311D869F9F
:1055E000400C211D311F959F400C211D311FA49F90
:1055F000400C211D311F949F410C211F311F4694E7
:10560000211F311F789F200D311D799F300D1124EE
:1056100042AD53AD64AD75AD420F531F611D711D99
:105620004093DD045093DE046093DF047093E00444
:1056300006A917A920AD31AD0417150726073707AE
:1056400040F40093DD041093DE042093DF043093D4
:10565000E0044090DD045090DE046090DF04709020
:10566000E00420E73FE001E00A83F901459155910C
:1056700065917491441555056605770570F4769427
:105680006794579447941A81110F1A832C5F3F4FE8
:105690004CE85FE04217530741F75A815093DC040E
:1056A00060E2461651046104710428F410E2412EB0
:1056B000512C612C712C70E2471A51086108710855
:1056C0004114E8E05E066104710408F42EC0F4E0C1
:1056D0005F9E900111242059344FF9013296459173
:1056E0005491042DEE27059FB001049F610D7E1F8C
:1056F00006946E1F7E1F1124AB0170E060E0F9017B
:10570000C590D490F12CE12CC41AD50AE60AF70A08
:105710008C0D9D1DAE1DBF1D8093E1049093E2048E
:10572000A093E304B093E404C9CEB301A20176953B
:105730006795579547959A012C7F2059384FF90165
:10574000C590D490F901329645915491142D17705B
:10575000149F9001159F300D1124F3E03695279585
:10576000FA95E1F7C21AD30AF12CE12CD1CF40917E
:10577000D8045091D9046091DA047091DB04481781
:1057800059076A077B0708F0D4C08091D404909130
:10579000D504A091D604B091D70441A952A963A918
:1057A00074A92227859F312D969F8001A69F100DF9
:1057B000A59F000D111D869F300D011D121F959F85
:1057C000300D011D121FA49F300D011D121F949F4B
:1057D000310D021F121F3695021F121F789F000DF8
:1057E000111D799F100D112430E020E04091DD045F
:1057F0005091DE046091DF047091E004FE964080D9
:10580000518062807380041715072607370758F404
:10581000401B510B620B730B441655066606770648
:1058200010F42A013B0120E73FE041E04A83F901FF
:105830004591559165917491441555056605770517
:1058400070F476946794579447945A81550F5A830D
:105850002C5F3F4F6CE87FE06217730741F77A8156
:105860007093DC04E0E24E1651046104710428F4E4
:1058700000E2402E512C612C712CF0E24F1A51089D
:1058800061087108411408E050066104710408F4CD
:105890002EC014E0519E900111242059344FF9017B
:1058A000329645915491F42DEE27F59FB001F49F67
:1058B000610D7E1F06946E1F7E1F1124AB0170E0E8
:1058C00060E0F901C590D490F12CE12CC41AD50AFE
:1058D000E60AF70A8C0D9D1DAE1DBF1D8093D404F2
:1058E0009093D504A093D604B093D704E7CDB30129
:1058F000A20176956795579547959A012C7F205977
:10590000384FF901C590D490F901329645915491E0
:10591000042D0770049F9001059F300D112413E0A2
:10592000369527951A95E1F7C21AD30AF12CE12C86
:10593000D1CF8091380190913901A0913A01B09175
:105940003B01B7FF5DC0C6A8D7A8E0ACF1AC80E7CB
:105950009FE021E0FC0145915591659174914C15B2
:105960005D056E057F0558F4F694E794D794C794C7
:10597000220F04964CE85FE04817590759F7209327
:10598000DC0450E2C516D104E104F10428F470E20D
:10599000C72ED12CE12CF12C60E2C61AD108E10807
:1059A000F108C11478E0D706E104F10408F431C02D
:1059B000A4E0DA9EC00111248059944FFC01329674
:1059C00025913491BC2D6627B39FA001B29F410D54
:1059D000561F0694461F561F112470E060E0FC011C
:1059E00085919491B0E0A0E0841B950BA60BB70BBA
:1059F0008093380190933901A0933A01B0933B0111
:105A0000C0903801D0903901E0903A01F0903B010C
:105A100055CDD701C601B695A795979587958C7FEB
:105A20008059984FFC0125913491FC0132964591A3
:105A30005491EC2DE770E49FC001E59F900D112477
:105A400063E0969587956A95E1F7281B390BC901A4
:105A5000B0E0A0E0CDCFAB81BC8155960D911D91FA
:105A60002D913C91589781E00115110521053105D3
:105A700009F480E0EB81FC81C18CD28CE38CF48C46
:105A8000C114D104E104F10409F08260AB81BC814E
:105A90005D964D915D916D917C9190974115510569
:105AA0006105710509F084608093E9041092D404C3
:105AB0001092D5041092D6041092D7041092E104EB
:105AC0001092E2041092E3041092E404EB81FC8152
:105AD00085A196A1A7A1B0A58093EA049093EB04B9
