:100000000C9430120C945A120C945A120C945A12EA
:100010000C945A120C945A120C945A120C945A12B0
:100020000C945A120C945A120C945A120C945A12A0
:100030000C945A120C940D230C945A120C945A12CC
:100040000C945A120C942A220C9466B30C945A12F3
:100050000C94C6720C94BC720C945A120C945A12E2
:100060000C945A120C945A120C945A120C945A1260
:100070000C945A120C945A120C945A120C945A1250
:100080000C945A120C945A120C945A124E414E4926
:100090004E495459494E46CDCCCC3D0AD7233C1746
:1000A000B7D13877CC2B329595E6241FB14F0A0093
:1000B0000020410000C84200401C4620BCBE4CCA83
:1000C0001B0E5AAEC59D7400407A10F35A00A07200
:1000D0004E18090010A5D4E80000E8764817000083
:1000E000E40B54020000CA9A3B000000E1F5050051
:1000F0000080969800000040420F000000A086019A
:10010000000000102700000000E803000000006469
:1001100000000000000A00000000000100000000D4
:10012000002C76D888DC674F0823DFC1DFAE59E1A9
:10013000B1B796E5E3E453C63AE651997696E8E618
:10014000C28426EB898C9B62ED407C6FFCEFBC9CEB
:100150009F40F2BAA56FA5F490055A2AF75C936BFD
:100160006CF9676DC11BFCE0E40D47FEF520E6B5B8
:1001700000D0ED902E0300943577050080841E0892
:100180000000204E0A000000C80C333333330F98B0
:100190006E12831141EF8D2114893BE65516CFFE77
:1001A000E6DB18D1844B381BF77C1D901DA4BBE403
:1001B00024203284725E228100C9F124ECA1E53D45
:1001C0002741425300504C410042656400456E6334
:1001D0006C6F73757265002568753A2530326875E5
:1001E0000025303268753A2530326875003FFFF0DF
:1001F00038007030FC3020FC102078102030102C9B
:1002000000D02E31D02F7BD02F7BD02E31D02C00A0
:10021000D020301020781020FC1030FC30380070D6
:100220003FFFF03FFFF03800703186302387102702
:1002300087902F87D02F03D020301020781020787F
:10024000102030102F03D02F87D0278790238710BE
:100250003186303800703FFFF063616E63656C007B
:100260005072696E742041626F72746564004D3221
:10027000350050617573696E672E2E2E007265739E
:10028000756D65004D32340050726F6265205A20E2
:100290004F66667365740046696C2E204469612E52
:1002A000004F6666004F6E004520696E206D6D5EE2
:1002B0003300452073746570732F6D6D005A2053A1
:1002C000746570732F6D6D00592053746570732FB2
:1002D0006D6D00582053746570732F6D6D0041640F
:1002E00076616E6365642053657474696E6773002C
:1002F00046696C616D656E740053746570732F6D23
:100300006D00436F6E66696775726174696F6E0028
:10031000526573746F72652044656661756C7473A1
:10032000004C6F61642053657474696E6773005389
:10033000746F72652053657474696E6773005072D0
:100340006F6265205A204F6666736574004164765B
:10035000616E6365642053657474696E6773004DE4
:1003600061696E004D3139305337350A4732380AEA
:100370004732390A4D3430300A4D3130345332313E
:10038000350A4732380A4D313039533231350A4D4A
:1003900034323053310A47315831303059313030EE
:1003A00046353030300A47315A300A4D3530300A40
:1003B0004D31313720536574205A204F666673657E
:1003C00074004D313036533132380A4D33303343B7
:1003D00038533231354530550A4D3530300A4D31BC
:1003E0003137205049442054756E6520446F6E6546
:1003F000004D3139305337350A4D313034533231B5
:10040000350A4732380A4732394C310A47312058C9
:100410003130305931303046353030300A47315A7A
:1004200030004D3530300A4D31313720536574740A
:10043000696E67732053746F7265640050726570E3
:1004400020666F72205A2041646A757374005049A7
:10045000442054756E650053746F72652053657443
:1004600074696E6773005365747570004D61696ED1
:10047000003F004261636B0053746F70004D323176
:10048000005072696E742066726F6D204D656469EC
:10049000610052656C65617365204D65646961003A
:1004A0004D3232004C6576656C696E6720546F6F13
:1004B0006C7300436F6E66696775726174696F6E05
:1004C0000054656D7065726174757265004D6F746E
:1004D000696F6E00526573756D65205072696E7438
:1004E00000417474616368204D65646961005475EE
:1004F0006E650053746F70205072696E74005061A5
:10050000757365205072696E7400496E666F205372
:10051000637265656E0043616E6E6F7420656E7404
:100520006572207375626469723A2000022E2E0093
:100530000152656672657368004D61696E00210045
:10054000486F74656E6420746F6F20636F6C640015
:100550004261636B0050726F63656564004D6F7438
:10056000696F6E0044697361626C652053746570D5
:1005700070657273004D3834004175746F20486F98
:100580006D6500473238004D61696E00C501C101DB
:10059000436F6F6C646F776E00507265686561744D
:1005A00020240046616E205370656564004E6F7AAA
:1005B0007A6C65004D61696E0050726F6265205AF9
:1005C000204F666673657400466C6F770046616EF7
:1005D000205370656564004E6F7A7A6C65005370C5
:1005E000656564004D61696E00486F6D696E6720D6
:1005F0004661696C6564006F70656E0054524947CE
:100600004745524544003A20007A5F6D696E007993
:100610005F6D617800785F6D6178005265706F7210
:1006200074696E6720656E6473746F702073746193
:100630007475730A0020746F6F206C6F6E6720658D
:100640007874727573696F6E2070726576656E74FA
:1006500065640A0020636F6C64206578747275733A
:10066000696F6E2070726576656E7465640A004805
:100670006F6D652025732573257320466972737429
:10068000005761726E696E673A20486F6D696E67D8
:100690002042756D702044697669736F72203C202A
:1006A000310A0002020400006643000061430000BA
:1006B0000000000066430000614300009643000014
:1006C00000410000004100000040000066430000BF
:1006D000614300009643000000000000000000009D
:1006E000000053657474696E67732053746F72658C
:1006F0006400454550524F4D20496E697469616CE4
:10070000697A65640A0000803B4400803B44000035
:100710002041000096420000A0420000A0420000DC
:10072000C8430080CF43D0070000D007000064001A
:1007300000004B00000024F4D43050C38E20C2A22D
:100740004017828B7011127A910D816CD90AA861C1
:10075000E108C7586607615143061E4B5D05C14558
:10076000A7041A411104093D980371393103403639
:10077000DB0265339102D4305402802E1D02632CBB
:10078000EE01752AC501B028A001102781018F252F
:1007900064012B244B01E0223401AC211F018D2088
:1007A0000D01801FFC00841EED00971DDF00B81CAA
:1007B000D200E61BC600201BBC00641AB200B219AE
:1007C000A8000A19A0006A189900D11791004017D3
:1007D0008B00B516840031167E00B31579003A15EA
:1007E0007300C7146F0058146A00EE136600881374
:1007F000630025135E00C7125B006C1257001512D0
:100800005400C111510070114F0021114B00D6103E
:1008100049008D1047004610440002104200C00FEE
:100820004000800F3E00420F3C00060F3B00CB0E05
:100830003800930E37005C0E3500270E3400F30DA0
:100840003200C10D3100900D3000600D2E00320DD0
:100850002D00050D2C00D90C2B00AE0C2900850CA9
:1008600029005C0C2700350C27000E0C2600E80B35
:100870002400C40B2400A00B23007D0B23005A0B83
:100880002100390B2100180B2000F80A1F00D90A9B
:100890001E00BB0A1E009D0A1D00800A1D00630A7F
:1008A0001C00470A1B002C0A1B00110A1A00F7093A
:1008B0001A00DD091900C4091900AB0919009209D1
:1008C00017007B091800630917004C091600360948
:1008D0001600200916000A091500F5081500E008A1
:1008E0001400CC081400B8081400A40814009008E0
:1008F00013007D0812006B08130058081200460808
:100900001200340811002308110012081100010818
:100910001100F0071000E0071000D0071000C0071A
:100920001000B0070F00A107100091070E00830709
:100930000F0074070F0065070E0057070E004907E8
:100940000E003B070D002E070E0020070D001307B9
:100950000D0006070D00F9060C00ED060D00E0067F
:100960000C00D4060C00C8060C00BC060C00B00637
:100970000C00A4060B0099060C008D060B008206E5
:100980000B0077060B006C060B0061060A00570689
:100990000B004C060A0042060A0038060A002E0622
:1009A0000A0024060A001A060A00100609000706B3
:1009B0000A00FD050900F4050900EB050900E20540
:1009C0000900D9050900D0050900C7050900BE05C1
:1009D0000900B5050800AD050800A50509009C053E
:1009E0000800940508008C050800840508007C05B3
:1009F0000800740508006C050700650508005D0522
:100A00000700560508004E0507004705070040058A
:100A1000080038050700310507002A0507002305EF
:100A200007001C050600160507000F05070008054E
:100A3000060002050700FB040600F5040700EE04AB
:100A40000600E8040600E2040700DB040600D50403
:100A50000600CF040600C9040600C3040600BD0456
:100A60000600B7040600B1040500AC040600A604A5
:100A70000600A00405009B040600950405009004F0
:100A800006008A04050085040500800406007A0437
:100A9000050075040500700405006B04050066047C
:100AA0000500610405005C040500570405005204BC
:100AB00005004D04050048040500430405003E04FC
:100AC00004003A04050035040500300404002C0439
:100AD000050027040400230405001E0404001A0472
:100AE000040016040500110404000D0404000904A8
:100AF00005000404040000040400FC030400F803DF
:100B00000400F4030400F0030400EC030400E80311
:100B10000400E4030400E0030400DC030400D80341
:100B20000400D4030400D0030400CC030400C80371
:100B30000300C503030024F404D9201BC40C5C0E7D
:100B40009804C4095F0265077101F405F900FB040C
:100B5000B30048048700C10369005803550003032C
:100B60004500BE023A008402310053022A002902E5
:100B7000250004022000E4011C00C8011900AF0197
:100B80001700980114008401130071011000610125
:100B9000100051010E0043010D0036010B002B0126
:100BA0000B0020010B00150109000C0109000301D5
:100BB0000800FB000800F3000800EB000700E40059
:100BC0000600DE000600D8000600D2000600CC00B9
:100BD0000500C7000500C2000500BD000400B90003
:100BE0000400B5000400B1000400AD000400A90039
:100BF0000400A5000300A20003009F0004009B0066
:100C00000300980003009500020093000300900089
:100C100003008D0002008B000300880002008600A4
:100C2000020084000300810002007F0002007D00BA
:100C300002007B00020079000200770001007600CC
:100C400002007400020072000100710002006F00D7
:100C500002006D0001006C0002006A0001006900E2
:100C600002006700010066000100650001006400E9
:100C700002006200010061000100600001005F00ED
:100C800002005D0001005C0001005B0001005A00F1
:100C900001005900010058000100570001005600F2
:100CA00001005500010054000100530000005300F2
:100CB00001005200010051000100500001004F00EE
:100CC00001004E0000004E0001004D0001004C00EC
:100CD00001004B0000004B0001004A0001004900E8
:100CE00001004800000048000100470001004600E4
:100CF00000004600010045000000450001004400DE
:100D000001004300000043000100420000004200D7
:100D100001004100000041000100400001003F00CF
:100D200000003F0001003E0000003E0001003D00C9
:100D300000003D0001003C0000003C0000003C00C1
:100D400001003B0000003B0001003A0000003A00B7
:100D500001003900000039000100380000003800AF
:100D600000003800010037000000370001003600A5
:100D7000000036000000360001003500000035009C
:100D80000000350001003400000034000000340091
:100D90000100330000003300000033000100320086
:100DA000000032000000320001003100000031007C
:100DB0000000310001003000000030000000300071
:100DC00001002F0000002F0000002F0000002F0066
:100DD00001002E0000002E0000002E0001002D005A
:100DE00000002D0000002D0000002D0001002C004F
:100DF00000002C0000002C0000002C0001002B0043
:100E000000002B0000002B0000002B0001002A0036
:100E100000002A0000002A0000002A00010029002A
:100E2000000029000000290000002900000029001E
:100E30000100280000002800000028000000280011
:100E40000000280001002700000027000000270004
:100E500000002700000027000100260000002600F7
:100E600000002600000026000000260001002500EA
:100E700000002500000025000000250000002500DE
:100E800000002500010024000000240000002400D0
:100E900000002400000024000100230000002300C3
:100EA00000002300000023000000230000002300B6
:100EB00000002300010022000000220000002200A8
:100EC000000022000000220000002200010021009A
:100ED000000021000000210000002100000021008E
:100EE000000021000000210001002000000020007F
:100EF0000000200000002000000020000000200072
:100F0000000020000000200001001F0000001F0062
:100F100000001F0000001F0000001F0000001F0055
:100F200000001F0001001E0000001E0000001E0047
:100F300000001E000000043700001E290000511BA5
:100F400000005810000010090000CC0400007802D6
:100F500000004101000020436F756E7420583A0074
:100F6000453100626564002C2073797374656D20CF
:100F700073746F7070656421204865617465725F79
:100F800049443A2000544845524D414C2052554E58
:100F90004157415900546865726D616C2052756EFD
:100FA000617761790048656174696E67204661699F
:100FB0006C65640048656174696E67206661696C80
:100FC0006564004D3131322053687574646F776EFB
:100FD000004572723A204D415854454D50004D41E4
:100FE0005854454D50207472696767657265640096
:100FF0004572723A204D494E54454D50004D494E70
:1010000054454D50207472696767657265640020AD
:101010002F0020403A007C3C3E5E2B3D3F2F5B5D25
:101020003B2C2A225C00434F4D4D554E49434154C1
:10103000494F4E0044525952554E004552524F525C
:101040005300494E464F004543484F00486F746572
:101050006E642049646C652054696D656F75740019
:10106000486F74656E642049646C652054696D65D1
:101070006F75740A002121204B494C4C2063617527
:1010800073656420627920746F6F206D75636820CA
:10109000696E6163746976652074696D65202D20C1
:1010A00063757272656E7420636F6D6D616E643A04
:1010B000200053544F505045442E20005072696E0A
:1010C0007465722073746F70706564206475652038
:1010D000746F206572726F72732E20466978207467
:1010E0006865206572726F7220616E642075736529
:1010F000204D39393920746F2072657374617274B0
:101100002E202854656D7065726174757265206952
:10111000732072657365742E205365742069742082
:1011200061667465722072657374617274696E674A
:10113000290A004E6F20436865636B73756D2077D5
:10114000697468206C696E65206E756D6265722CBD
:10115000204C617374204C696E653A20004E6F20FC
:10116000436865636B73756D2077697468206C697B
:101170006E65206E756D6265722C204C61737420F3
:101180004C696E653A2000636865636B73756D200A
:101190006D69736D617463682C204C617374204CAD
:1011A000696E653A20004C696E65204E756D62650A
:1011B00072206973206E6F74204C617374204C69C7
:1011C0006E65204E756D6265722B312C204C6173FB
:1011D00074204C696E653A20004D31313000536502
:1011E0007269616C20737461747573206D69736DBD
:1011F000617463680A0053442072656164206572FB
:10120000726F720A004D6564696120496E73657280
:1012100074656400506C6561736520526573657414
:10122000005052494E5445522048414C54454400C8
:1012300025533A20255300706F7765726F666600FC
:101240004B494C4C45442E20005072696E746572B7
:101250002068616C7465642E206B696C6C28292091
:1012600063616C6C6564210A006563686F3A0045D0
:1012700072726F723A0042696C696E656172204CDD
:101280006576656C696E6720477269643A0A004248
:101290006564204C6576656C696E672000466169FF
:1012A0006C656420746F20656E61626C65204265B8
:1012B00064204C6576656C696E670A00496E7661DC
:1012C0006C6964206D6573682E0A0050726F6269E4
:1012D0006E6720506F696E740025532025692F2595
:1012E00069002E0A002F0050726F62696E67206DD0
:1012F00065736820706F696E74200020284452590D
:1013000052554E2900473239204175746F2042658D
:1013100064204C6576656C696E67003F20284C2C14
:10132000522C462C4229206F7574206F6620626F04
:10133000756E64732E0A003F2856296572626F73BA
:1013400065206C6576656C20696D706C617573697C
:10135000626C652028302D34292E0A0042616420F9
:101360005A2076616C75650A004E6F2062696C695F
:101370006E65617220677269640A0020496E766149
:101380006C69642065787472756465722000536CB2
:101390006565702E2E2E005A2050726F62652050A7
:1013A000617374204265640A005A2050726F62654E
:1013B000205061737420426564004732384C30001D
:1013C000205A3A200020593A200042656420583AB9
:1013D00020004D65736820706F696E74206F75749E
:1013E000206F662072616E67650A00436C69636BEB
:1013F00020746F20526573756D652E2E2E004E6F12
:10140000204D6F76652E00456E642066696C652000
:101410006C6973740A00426567696E2066696C6561
:10142000206C6973740A004E6F206D656469610AEF
:1014300000706175736500286E6F2066696C6529A0
:101440000043757272656E742066696C653A20009F
:101450005344207072696E74696E67206279746596
:1014600020004E6F74205344207072696E74696E50
:10147000670A002E0A0044656C6574696F6E206609
:1014800061696C65642C2046696C653A2000466988
:101490006C652064656C657465643A002569730049
:1014A00025696D20256973002569682025696D20EF
:1014B00025697300256964202569682025696D20E8
:1014C00025697300256979202569642025696820CC
:1014D00025696D20256973005072696E74207469E6
:1014E0006D653A20006F6B006F6666004710421012
:1014F0003B103410261044454255473A00444458A6
:1015000020456E64657235204F46462E002045000A
:10151000204D39322058004649524D574152455FBF
:101520004E414D453A4D61726C696E20322E302E1F
:10153000375F4457372E3320426F6E64746563689B
:10154000204535454D4E41422028417072203239A8
:1015500020323032312031373A30353A3433292095
:10156000534F555243455F434F44455F55524C3AA4
:1015700068747470733A2F2F6769746875622E638C
:101580006F6D2F496E73616E6974794175746F6DFB
:101590006174696F6E2F4D61726C696E2F74726524
:1015A000652F437265616C6974794477696E5F3247
:1015B0002E302050524F544F434F4C5F564552539C
:1015C000494F4E3A312E30204D414348494E455FF8
:1015D000545950453A44445820456E64657235204C
:1015E00045585452554445525F434F554E543A3135
:1015F00020555549443A63656465326132662D343D
:101600003161322D343734382D396231322D633522
:10161000356336326633363766660A002F2F004D43
:1016200031343520533C696E6465783E206F7574A3
:10163000206F662072616E67652028302D31290A7F
:1016400000205400205200416363656C6572617430
:10165000696F6E3A2050005741524E494E47212043
:101660004C6F77205A204A65726B206D6179206C2F
:1016700065616420746F20756E77616E7465642097
:101680007061757365732E0A004D32303620580034
:101690004F4646004F4E0020580020204D61783ABA
:1016A0002000200020204D696E3A2000536F6674A0
:1016B00020656E6473746F70733A200046523A006E
:1016C00020466C6F773A200050726F6265204F663B
:1016D00066736574205A0050726F6265204F6666AB
:1016E000736574205A0020643A0020693A00207023
:1016F0003A00496E76616C6964206578747275642D
:1017000065720A0064697300656E0043290A00610E
:10171000626C656420286D696E2074656D702000B0
:10172000436F6C64206578747275646573206172B0
:101730006520004D34323120696E636F72726563CB
:101740007420706172616D65746572207573616774
:10175000650A004D65736820706F696E74206F753F
:1017600074206F662072616E67650A004F6666734B
:10177000657473204170706C696564004572723ADB
:1017800020546F6F206661722100546F6F20666174
:10179000722066726F6D207265666572656E636534
:1017A00020706F696E740A00454550524F4D204FAE
:1017B0004B0A00290A0020746F20003F5A206F75E1
:1017C00074206F662072616E6765202800290A0008
:1017D00020746F20003F59206F7574206F6620724F
:1017E000616E676520282D00290A0020746F200093
:1017F0003F58206F7574206F662072616E67652098
:10180000282D00205A0020590050726F6265204F29
:1018100066667365742058004D383400446F6E65F9
:10182000207072696E74696E672066696C650A0063
:101830004D3737004D333100496E76616C69642055
:1018400065787472756465720A0020573A00436FB8
:101850006F6C696E672E2E2E0048656174696E6725
:101860002E2E2E00452025530023646566696E6583
:101870002044454641554C545F004B6420004B6961
:1018800020004B702000504944204175746F7475DE
:101890006E652066696E6973686564212050757491
:1018A00020746865206C617374204B702C204B6928
:1018B00020616E64204B6420636F6E7374616E747C
:1018C000732066726F6D2062656C6F7720696E742D
:1018D0006F20436F6E66696775726174696F6E2EF3
:1018E000680A00504944204175746F74756E652014
:1018F0006661696C6564212074696D656F75740A31
:1019000000504944204175746F74756E652066619E
:10191000696C6564212054656D70657261747572BF
:101920006520746F6F20686967680A00204B643A0D
:101930002000204B693A2000204B703A20002043C1
:101940006C617373696320504944200A0020547508
:101950003A2000204B753A2000206D61783A200033
:10196000206D696E3A200020643A2000206269618F
:10197000733A2000504944204175746F74756E6548
:101980002073746172740A00504944204175746F69
:1019900074756E65206661696C6564212054656D9F
:1019A000706572617475726520746F6F2068696705
:1019B000680A00504944204175746F74756E652043
:1019C0006661696C656421204261642068656174A8
:1019D00065722069640A00504944204175746F742F
:1019E000756E65004572723A207574663820666FB0
:1019F0006E74206E6F7420696E697469616C697AA7
:101A000065642E004572723A207574663820666FE0
:101A10006E74206E6F7420696E697469616C697A86
:101A200065642E004572723A207574663820666FC0
:101A30006E74206E6F7420696E697469616C697A66
:101A400065642E00000C0F00FE07022503BB017F1A
:101A5000FE08FE08FE05080806000040F0C8888859
:101A6000987810050808060000C0F88888888888DB
:101A7000F80505050600012030F8302005080806A5
:101A800000002070F820202020E00509090600FF52
:101A90002070A8A8B888887020070505070001D81D
:101AA0006C366CD80509090600FFF8A88888888874
:101AB00088A8F8050A0A0600FE205050505088A851
:101AC000A8887003030306000340A040FFFFFFFF48
:101AD000FFFFFFFFFFFFFFFFFFFFFFFFFFFFFFFF16
:101AE000FFFF0000000605FF0107070602008080D7
:101AF0008080800080030303060105A0A0A00506E6
:101B00000606000050F85050F8500509090600FF7D
:101B10002070A8A07028A87020050707060000C83C
:101B2000C8102040989805070706000040A0A04074
:101B3000A890680103030602058080800309090656
:101B400001FF2040408080804040200309090601B9
:101B5000FF8040402020204040800507070600000D
:101B600020A8702070A8200505050600012020F897
:101B700020200203030601FFC0408005010106008A
:101B800003F8020202060100C0C0050707060000B4
:101B90000810102040408005070706000070889854
:101BA000A8C8887003070706010040C040404040B5
:101BB000E0050707060000708808102040F80507B8
:101BC00007060000F80810300888700507070600AF
:101BD0000010305090F81010050707060000F8803C
:101BE000F008088870050707060000304080F0887C
:101BF0008870050707060000F8081010202020054F
:101C00000707060000708888708888700507070637
:101C1000000070888878081060020505060100C081
:101C2000C000C0C00206060601FFC0C000C0408060
:101C3000030505060101204080402005030306003E
:101C400002F800F8030505060101804020408005E8
:101C500007070600007088102020002005070706EF
:101C600000007088B8A8B8807005070706000070EB
:101C70008888F8888888050707060000F0484870BB
:101C80004848F0050707060000708880808088704B
:101C9000050707060000F04848484848F0050707D0
:101CA000060000F88080F08080F805070706000035
:101CB000F88080F08080800507070600007088802B
:101CC00080988870050707060000888888F888884B
:101CD00088030707060100E04040404040E0050758
:101CE0000706000038101010109060050707060066
:101CF000008890A0C0A0908805070706000080809B
:101D000080808080F805070706000088D8A88888AA
:101D100088880507070600008888C8A8988888056D
:101D200007070600007088888888887005070706FE
:101D30000000F08888F080808005070706000070AA
:101D4000888888A89068050707060000F08888F052
:101D5000A0908805070706000070888070088870CA
:101D6000050707060000F82020202020200507078F
:101D700006000088888888888870050707060000A4
:101D800088888888505020050707060000888888C2
:101D900088A8A850050707060000888850205088AA
:101DA00088050707060000888850202020200507A6
:101DB00007060000F80810204080F8030909060112
:101DC000FFE080808080808080E0050707060000BB
:101DD000804040201010080309090601FFE0202080
:101DE0002020202020E00503030600052050880560
:101DF00001010600FEF803030306010580402005EB
:101E000005050600007008788878050707060000B9
:101E10008080F0888888F0050505060000708080C5
:101E20008870050707060000080878888888780504
:101E300005050600007088F08070050707060000A1
:101E4000304840E04040400507070600FE708888A3
:101E5000887808700507070600008080F088888869
:101E6000880307070601004000C0404040E0040925
:101E7000090601FE100030101010109060050707D1
:101E800006000080808890E0908803070706010024
:101E9000C04040404040E0050505060000D0A8A82D
:101EA000A8A8050505060000B0C8888888050505AE
:101EB00006000070888888700507070600FEF08815
:101EC0008888F080800507070600FE788888887873
:101ED0000808050505060000B0C8808080050505D6
:101EE00006000078807008F0050707060000202033
:101EF000F8202020180505050600008888889868C5
:101F0000050505060000888888502005050506009F
:101F1000008888A8A85005050506000088502050B4
:101F2000880507070600FE88888850204080050540
:101F300005060000F8102040F80309090601FF20FB
:101F400040404080404040200109090602FF808057
:101F5000808080808080800309090601FF804040E6
:101F600040204040408005030306000248A890FF3F
:101F700043616E6E6F74206F70656E20737562645E
:101F80006972200053442063617264206F6B0A0001
:101F90006F70656E526F6F74206661696C65640A5C
:101FA00000766F6C756D652E696E69742066616967
:101FB0006C65640A004E6F20534420636172640AAA
:101FC000000A4D3234004D3233202573002E0A00B2
:101FD0006F70656E206661696C65642C2046696C63
:101FE000653A200046696C652073656C65637465AD
:101FF000640A002053697A653A200046696C6520BE
:102000006F70656E65643A2000454E44205355421A
:10201000524F5554494E450A002220706F730022DA
:1020200020706172656E743A2200535542524F55CA
:1020300054494E452043414C4C207461726765748D
:102040003A220053756263616C6C204F766572664C
:102050006C6F77004578636565646564206D6178B1
:1020600020535542524F5554494E45206465707473
:10207000683A0057726974696E6720746F206669E8
:102080006C653A2000667265736800646F696E67FC
:10209000002066696C653A20004E6F7720002F6142
:1020A00075746F25632E67001000C90210012C01A2
:1020B0004001220170011801B0010E01F00104017C
:1020C0005002FA00B002F0003003E600D003DC005A
:1020D0009004D2007005C800A006BE000008B4003D
:1020E000B009AA00D00BA000600E960060118C0011
:1020F0000015820020197800C01D6E00A022640027
:10210000B0275A00902C500000314600E0343C00CB
:1021100010383200903A2800603C1E00A03D1400A8
:10212000803E0A00203F00002020506C616E6E65EA
:102130007242756666657242797465733A20002052
:1021400046726565204D656D6F72793A2000436F68
:102150006D70696C65643A204170722032392032AA
:102160003032310A00204C61737420557064617400
:1021700065643A20323032312D30342D3138207CB4
:1021800020417574686F723A20426F6E64746563A3
:1021900068202F20496E73616E6974794175746F80
:1021A0006D6174696F6E0A00322E302E375F4457AE
:1021B000372E330A004D61726C696E0020536F66D2
:1021C00074776172652052657365740A00205761E7
:1021D000746368646F672052657365740A002042F7
:1021E000726F776E206F75742052657365740A0084
:1021F0002045787465726E616C2052657365740A4F
:1022000000506F77657255700A0073746172740ABA
:10221000004739310A47315A350A4739300A4D38B3
:10222000340A4D31303453300A4D3134305330009C
:102230004D31303031006F6B006572726F722077F4
:10224000726974696E6720746F2066696C650A0034
:10225000446F6E6520736176696E672066696C6590
:102260002E0A004D323900456E6473746F7073002E
:102270002553202563202563202563202563002026
:102280005A3A0020593A0020583A00656E64737437
:102290006F7073206869743A20000000000102002A
:1022A000090A000000000403080700000000000005
:1022B00000000000000000000000004D6F76652067
:1022C00025736D6D004D6F766520302E316D6D007C
:1022D0004D6F766520316D6D004D6F766520313024
:1022E0006D6D004D6F766520417869730045787497
:1022F0007275646572004D6F7665205A004D6F7679
:10230000652059004D6F76652058005072696E74D3
:102310002066726F6D204D65646961000101FF5098
:10232000726F62696E67204661696C65640A00506D
:10233000726F62696E67204661696C656400205A3D
:102340003A200020593A200042656420583A200083
:10235000220A00556E6B6E6F776E20636F6D6D6134
:102360006E643A20220044445820456E64657235FC
:102370002052656164792E005072696E74696E67CF
:102380002E2E2E005072696E742050617573656434
:102390000020453A00205A3A0020593A00583A00A5
:1023A0004572726F722077726974696E6720746FFC
:1023B00020454550524F4D210A0020746F6F206C0C
:1023C0006F6E6720657874727573696F6E207072B6
:1023D0006576656E7465640A0020636F6C642065C1
:1023E0007874727573696F6E2070726576656E743D
:1023F00065640A00526573656E643A20000000222D
:1024000000250028002B0000002100240027002ABE
:102410000002020202020202020404040404040490
:102420000403030303030303030101010101010189
:10243000010102040810204080010204081020401D
:10244000800102040810204080804020100804020F
:10245000012F2F616374696F6E3A0000ABC707CE1E
:1024600011241FBECFEFD0E4DEBFCDBF12E0A0E04D
:10247000B1E0EEE6F8EB01E00BBF02C007900D9271
:10248000A834B107D9F727E1A8E4B2E001C01D9252
:10249000AD3CB207E1F712E1CFE2D2E104C02197EF
:1024A000FE010E948ED9CE32D107C9F70E947FC8A3
:1024B0000C942ADC0C9400000F931F93CF93DF93AE
:1024C000CDB7DEB760970FB6F894DEBF0FBECDBFB5
:1024D0008C01DC01ED91FC910280F381E02DBE01C5
:1024E0006F5F7F4F0995882309F464C08981807CE0
:1024F000C9F56F81637070E0762F6627770F770FCD
:102500008885B4E08B9FC0011124682B792B8985C5
:102510008295869586958370682B6F5F7F4F90E0DC
:1025200080E02A852370220F3B8537FB332730F963
:10253000232B3E813F70230F3327331F2750310950
:1025400004C0660F771F881F991F2A95D2F76096DF
:102550000FB6F894DEBF0FBECDBFDF91CF911F91B4
:102560000F910895803419F568856695669570E039
:1025700090E080E0CB01772766272A85622B0985CA
:1025800010E0102F0027012E000C220B330B602BC4
:10259000712B822B932B6F5F7F4F8F4F9F4F4AE0A2
:1025A000660F771F881F991F4A95D1F7D0CF8BE010
:1025B000F801848360E070E0CB01C9CF0895FC018D
:1025C00082810895CF92DF92EF92FF9280917802FC
:1025D000882309F457C0C0907402D0907502E0902F
:1025E0007602F090770220E030E0A901C701B60141
:1025F0000E94A9D2882309F445C020E030E040E0E1
:102600005FE3C701B6010E940FD39B01AC010E949A
:102610000FD32BED3FE049E450E40E940FD39B0120
:10262000AC0160E070E080E89FE30E9423DA6B0178
:102630007C01C0926F02D0927002E0927102F0921F
:10264000720260911C0170911D01072E000C880B15
:10265000990B0E94B0D22AE037ED43E25CE30E947E
:102660000FD3A70196010E940FD36093720170935C
:1026700073018093740190937501FF90EF90DF9048
:10268000CF900895C12CD12C80E8E82E8FE3F82E4E
:10269000D0CF8F929F92AF92BF92CF92DF92EF9264
:1026A000FF92FC01C080D180E280F38020E030E026
:1026B00040E251E4C701B6010E940FD320E030E0B0
:1026C00040E251E40E940FD34B015C0120E030E076
:1026D000A901C701B6010E94A9D220E030E040EA7A
:1026E00050E487FF04C020E030E040EA50ECC50130
:1026F000B4010E94A0D920E030E040E251E40E9401
:1027000023DA0E9495DA9B018BE237FF05C022276E
:102710003327261B370B8DE280932806C90168EE0C
:1027200073E00E945BD9CB01EAE0F0E0BF010E94B8
:102730005BD9805D80932906C90164E670E00E9440
:102740005BD9CB01BF010E945BD9805D80932A06D3
:10275000C901BF010E945BD9282FCB01BF010E9494
:102760005BD9805D80932B068EE280932C06205DE2
:1027700020932D0688E296E0FF90EF90DF90CF90B7
:10278000BF90AF909F908F9008959C0197FF26C0B7
:10279000EE27FF27E81BF90B2D398FEF38070CF0D8
:1027A0005DC08DE280932A06CF0164E670E00E944E
:1027B0005BD9CB012AE030E0B9010E945BD9805D92
:1027C00080932B06CF01B9010E945BD9CB01B901DF
:1027D0000E945BD9805D80932C062AC0283E83E04E
:1027E0003807B4F1C90168EE73E00E945BD9CB01F0
:1027F000EAE0F0E0BF010E945BD9805D80932A0689
:10280000C90164E670E00E945BD9CB01BF010E9460
:102810005BD9805D80932B06C901BF010E945BD903
:10282000CB01BF010E945BD9805D80932C06F9012A
:10283000CF016AE070E00E945BD9805D80932D0635
:102840008AE296E008958DE237FDC5CF80E2C3CFDE
:10285000F90180E2243631050CF0A4CF80E28093A8
:102860002A0680932B06EA30F1056CF38DE237FFE0
:1028700080E280932B06CF016AE070E00E945BD972
:10288000605D60932C06D4CF9C0197FD2DC080E243
:10289000243631055CF0C90164E670E00E945BD922
:1028A000CB016AE070E00E945BD9805D80932B06CB
:1028B00080E22A3031055CF0EAE0F0E0C901BF01B6
:1028C0000E945BD9CB01BF010E945BD9805D8093E0
:1028D0002C06C9016AE070E00E945BD9805D80939C
:1028E0002D068BE296E008953195219531098DE210
:1028F000DDCF282F81E3243609F080E280932A0679
:1029000090E22A3040F03AE0822F632F0E942DD9C6
:102910000E942DD9905D90932B06822F6AE00E9431
:102920002DD9905D90932C0685E280932D068AE246
:1029300096E0089560911C0170911D01072E000C16
:10294000880B990B0E94B0D22AE037ED43E25CE39A
:102950000E940FD320916F0230917002409171025A
:10296000509172020E940FD36093720170937301B1
:1029700080937401909375010895CF93DF93EC01D8
:10298000CB01BA010E94B0D229EC38EC48EC5EE3EE
:102990000E9423DA20E030E040E05FE30E94A0D90B
:1029A0000E949CDA6883DF91CF9108950E94B0D293
:1029B00029EC38EC48EC5EE30E9423DA20E030E0BA
:1029C00040E05FE30E94A0D90E949CDA24E6629F67
:1029D000C001112481589F4F6FEF70E00E945BD9B6
:1029E000862F0C947914CF93DF93EC01CB01BA01BD
:1029F0000E94B0D220E030E0A9010E94A0D90E943C
:102A000095DA79836883DF91CF9108950E94B0D2DF
:102A100020E030E0A9010E94A0D90E9495DACB0104
:102A20000C94441480913506811104C080910206F3
:102A30008093880608958091D9168823C1F081502B
:102A40008093D916EFE2F5E1882351F08150990B7C
:102A50002BE1289FF001299FF00D1124E553FA4E38
:102A60008BE1A4E1B5E101900D928A95E1F7209107
:102A7000D916211105C08091E41680628093E41676
:102A800081E090E0A0E0B0E0211103C080E090E0A0
:102A9000DC018093230690932406A0932506B0932F
:102AA000260610921E0681E08093200683E0809324
:102AB000590108958F929F92AF92BF92CF92DF9269
:102AC000EF92FF92CF936B017C0120E030E0A901EF
:102AD0000E94A9D287FDAAC06DEB77E386E095E35B
:102AE000A70196010E94A0D96B017C0120E030E093
:102AF000A9010E94A9D287FF9EC0C701B6019058C4
:102B000020E030E040E251E40E940FD320E030E0CA
:102B100040E251E40E940FD320E030E040EA50E46C
:102B20000E94A0D920E030E040E251E40E9423DA84
:102B30000E9495DA6B017C0180E28093270660E2B7
:102B400080E1C81687E2D806E104F1048CF0C701E1
:102B5000B60120E137E240E050E00E946FD9CA019F
:102B6000B9012AE030E040E050E00E946FD9605D9A
:102B70006093280660E288EEC81683E0D806E10478
:102B8000F1048CF0C701B60128EE33E040E050E0DC
:102B90000E946FD9CA01B9012AE030E040E050E05C
:102BA0000E946FD9605D6093290660E284E6C816D2
:102BB000D104E104F1048CF0C701B60124E630E051
:102BC00040E050E00E946FD9CA01B9012AE030E02C
:102BD00040E050E00E946FD9605D60932A068AE071
:102BE000882E912CA12CB12CC701B601A50194010E
:102BF0000E946FD9C62FCA01B901A50194010E9494
:102C00006FD9605D60932B068EE280932C06C05DC9
:102C1000C0932D0687E296E0CF91FF90EF90DF9072
:102C2000CF90BF90AF909F908F9008956DEB77E31A
:102C300086E095EB55CF20E030E040E251E4C7015B
:102C4000B60162CFCF93DF93EC01CB01BA010E94B2
:102C5000B0D220E030E040E251E40E9423DA20E0EC
:102C600030E0A9010E94A0D9688379838A839B837D
:102C7000DF91CF9108950E94B0D220E030E040E291
:102C800051E40E9423DA20E030E0A9010E94A0D99B
:102C90000C945A15CF93DF93EC01CB01BA010E943B
:102CA000B0D220E030E04AE754E40E9423DA20E08A
:102CB00030E0A9010E94A0D9688379838A839B832D
:102CC000DF91CF9108958091641590916515891BCE
:102CD0008F7051F480915106813031F08091E4166B
:102CE00082FB882780F9089581E00895FC01849192
:102CF0000895FC01808108958F929F92AF92BF92B8
:102D0000EF92FF920F931F93CF93DF93EC018B0110
:102D1000E42EF22E80918A1590918B158C179D07C9
:102D200009F43EC020914E0227FD10924E0226E586
:102D3000C234D20709F03FC08D539C4571F40E9404
:102D4000C5B26E517B4F8F4F9F4F60937404709349
:102D500075048093760490937704D0938B15C09379
:102D60008A1530E020E00093230610932406209378
:102D7000250630932606E0921E06F0921F06CD53DC
:102D8000DC4521F410921D061092730482E08093BA
:102D9000590181E08093200610927A0410921C065B
:102DA000DF91CF911F910F91FF90EF90BF90AF9067
:102DB0009F908F9008952CE5CD33D20771F6825401
:102DC000964519F0CDE3DCE5C8CF0E94C5B28090EE
:102DD000740490907504A0907604B09077046819FC
:102DE00079098A099B0997FFEDCF80913906877091
:102DF000873041F7CEE5D0E5B0CF20E040E070E08D
:102E000060E089E19CE10C947C1680919906811127
:102E100014C0809176019091770101972091E6147A
:102E20003091E7142817390744F420E040E070E0BF
:102E300060E08EE19CE10C947C160C94FD1621E080
:102E400020931D06FC0180819181A281B381809332
:102E5000120190931301A0931401B093150120E087
:102E600040E070E060E080910A0690910B060C94BF
:102E70007C16CF93DF9300D000D0CDB7DEB78DECBA
:102E80009CECACECBCE389839A83AB83BC83CE011E
:102E900001960E941F170F900F900F900F90DF91D7
:102EA000CF910895CF93DF9300D000D0CDB7DEB798
:102EB0008DEC9CECACECBDE389839A83AB83BC8343
:102EC000CE0101960E941F170F900F900F900F9048
:102ED000DF91CF910895CF93DF9300D000D0CDB78D
:102EE000DEB780E090E0A0E8BFE389839A83AB83FC
:102EF000BC83CE0101960E941F170F900F900F9078
:102F00000F90DF91CF910895CF93DF9300D000D041
:102F1000CDB7DEB780E090E0A0E2B1E489839A8388
:102F2000AB83BC83CE0101960E941F170F900F90B8
:102F30000F900F90DF91CF9108950F931F930E94F0
:102F4000C5B20091370410913804209139043091B2
:102F50003A04601B710B820B930B97FD0CC089B177
:102F600083FB882780F991E089274A9B8260309B08
:102F70008460809336048091360481709091360489
:102F800091FD826090913504981749F0813009F1E4
:102F900048F0823079F0833091F0809335041F91AE
:102FA0000F910895913079F09230B9F790913404EF
:102FB00091500CC0992339F09330C1F3EECF91308A
:102FC000A9F3923051F7909134049F5F90933404A9
:102FD000E4CF992359F3933001F7F5CFCF92DF92E5
:102FE000EF92FF92CF93C82F0E94C5B26B017C0174
:102FF00024EA30E74DE75FE360911201709113011D
:1030000080911401909115010E94A9D287FD18C0EA
:103010008AEF90E0A0E0B0E08C0D9D1DAE1DBF1DBD
:103020008093280490932904A0932A04B0932B043E
:10303000C0931001CF91FF90EF90DF90CF90089553
:1030400080E090E0DC01E8CFCF93DF93EC018D814D
:103050000E947D7360E08B81DF91CF910C94CEB1A3
:10306000DF92EF92FF920F931F93CF93DF938C0128
:10307000C62FD22FF32EE42ED52E0E9424180E94A4
:1030800044B38C2F80640E9471738D2D0E947173E4
:103090008E2D0E9471738F2D0E9471738D2F0E944F
:1030A000717387E8C11101C085E90E947173CC304A
:1030B00011F40E947673C0E00E947673F801868353
:1030C00087FF04C0CF3F11F0CF5FF6CFDF91CF91E4
:1030D0001F910F91FF90EF90DF90089561E0FC0148
:1030E00083810E94CEB18FEF0C9471730F931F9365
:1030F000CF938C010E9424180E9444B3C82F8823C8
:1031000071F08DEF0E9471730E9444B3C82FC80103
:103110000E946E188C2FCF911F910F91089582E11C
:10312000F8018483F4CF8F929F92AF92BF92CF9297
:10313000DF92EF92FF920F931F93CF93DF93EC01F7
:103140006A017B01590120E030E0A90167E30E9498
:103150003018A501980167E1CE010E943018811155
:1031600027C08F81833039F089E0CC0CDD1CEE1C48
:10317000FF1C8A95D1F7A701960169E1CE010E9453
:10318000301811E0882319F010E087E08C83CE011D
:103190000E946E18812FDF91CF911F910F91FF90A8
:1031A000EF90DF90CF90BF90AF909F908F90089559
:1031B00089E08C8310E0EBCFCF93DF93EC016EBD01
:1031C000FA01CA019E5F0DB407FEFDCF20812EBD1E
:1031D0000DB407FEFDCF21812EBD3296E817F90709
:1031E00091F70DB407FEFDCF8FEF0E9471738FEF43
:1031F0000E9471730E9476738E838F71853049F0BF
:1032000083E18C83CE010E946E1880E0DF91CF9124
:10321000089581E0FBCF0F931F93CF93DF93EC01D1
:103220008B010E9424180E9444B381110CC085E1D7
:103230008C8310E0CE010E946E18812FDF91CF9118
:103240001F910F910895A8016CEFCE010E94DC1828
:10325000182F882361F3EECF0F931F93CF93DF9343
:10326000EC0189018F81833039F089E0440F551FCB
:10327000661F771F8A95D1F79A01AB0168E1CE01ED
:103280000E94301881112AC0A8016EEFCE010E9461
:10329000DC18182F8823B1F00E9444B3182F88231C
:1032A000D1F020E030E0A9016DE0CE010E9430189D
:1032B000882321F086E18C8310E004C00E9476739D
:1032C0008111F8CFCE010E946E18812FDF91CF912E
:1032D0001F910F91089587E18C83F4CF86E0EBCFA7
:1032E0001F93CF93DF93EC010E94241820E030E07D
:1032F000A9016CE0CE010E94301811E0882319F07A
:1033000010E083E08C83CE010E946E18812FDF9144
:10331000CF911F9108951F93CF93DF93EC018F817D
:10332000833039F089E0440F551F661F771F8A9557
:10333000D1F79A01AB0162E1CE010E94301811E091
:10334000882319F010E085E08C83CE010E946E186E
:10335000812FDF91CF911F9108958F929F92AF920D
:10336000BF92EF92FF920F931F93CF93DF938C0145
:10337000EB017A010E94C5B24B015C012CE2820E86
:1033800021E0921EA11CB11C0E947673F801868375
:103390008F3F69F40E94C5B2681979098A099B09AF
:1033A00097FDF2CF81E1F8018483C0E021C08E3F18
:1033B00071F5F1E0EF1AF1088FEF8EBDFE012FEFEE
:1033C0000DB407FEFDCF8EB581932EBDCF018C1BB2
:1033D0009D0B8E159F05A0F30DB407FEFDCF8EB596
:1033E000CE0DDF1D88830E9476730E947673C1E044
:1033F000C8010E946E188C2FDF91CF911F910F9101
:10340000FF90EF90BF90AF909F908F9008958FE0C6
:10341000CACF0F931F93CF93DF93EC018B010E94D0
:10342000241840E052E0B801CE01DF91CF911F9106
:103430000F910C94AD190F931F93CF93DF93EC0171
:1034400089018F81833039F089E0440F551F661F51
:10345000771F8A95D1F79A01AB0161E1CE010E94F5
:10346000301881110AC040E052E0B801CE01DF916E
:10347000CF911F910F910C94AD1984E08C83CE01F4
:103480000E946E1880E0DF91CF911F910F910895F7
:103490008F929F92AF92BF92CF92DF92EF92FF9264
:1034A0000F931F93CF93DF93EC01162F1F821C8283
:1034B0004B830E94C5B26B017C0120EDC20E27E058
:1034C000D21EE11CF11CA89561E08B810E94CEB157
:1034D0008B810E9477A9249A2C9A279A2698259A5C
:1034E00081E00E947D7385E08D830E947D730AE0F8
:1034F0008FEF0E9471730150D9F7A89520E030E05A
:10350000A90160E0CE010E9430188E83813081F0E5
:103510000E94C5B26C197D098E099F0997FDEECFF7
:1035200081E08C83CE010E946E181A8280E06AC00E
:10353000A8952AEA31E040E050E068E0CE010E9420
:103540003018853041F581E08F83A8958F81812CDB
:10355000912C5401823029F4812C912CA12C80E4EF
:10356000B82E20E030E0A90167E3CE010E943018B8
:10357000A501940169E2CE010E9430188E83882350
:10358000F1F00E94C5B26C197D098E099F0997FD63
:10359000E8CF8AE0C6CF04E00E9476738E830150A4
:1035A000D9F78A3A11F482E0CFCF0E94C5B26C19E4
:1035B0007D098E099F0997FDBCCF82E0B2CF8F8134
:1035C0008230C1F420E030E0A9016AE3CE010E941C
:1035D0003018882311F088E0A4CF0E947673807C95
:1035E000803C11F483E08F830E9476730E9476738F
:1035F0000E947673CE010E946E1881E08A83173094
:1036000070F41D83DF91CF911F910F91FF90EF9088
:10361000DF90CF90BF90AF909F908F90089588E1FA
:103620008C8384CF0F931F93CF93DF93EC018B0197
:1036300020E030E0A90169E00E94301881110AC041
:1036400040E150E0B801CE01DF91CF911F910F9181
:103650000C94AD1980E18C83CE010E946E1880E03D
:10366000DF91CF911F910F910895CF93C82FCB0178
:103670000E94906F86E096E00E94906F87EF95E041
:10368000CC2311F08CEF95E00E94906F8AE0CF91EF
:103690000C94786F0C94D1B20C94D1B24091F50295
:1036A00021E042276CE070E00C94B9AA4091F50249
:1036B00021E0422764E070E00C94B9AA4091F50241
:1036C00021E0422761E070E00C94B9AA4091F50234
:1036D00021E0422762E070E00C94B9AA4091F50223
:1036E00021E0422761E070E00C94B9AA4091F50214
:1036F00021E0422768E070E00C94B9AA4091F502FD
:1037000021E042276CE070E00C94B9AA41E061E04E
:1037100070E00C94B9AA4091F50221E042270C9484
:10372000B9AA62E070E00C945DB26CE070E00C94B9
:103730005DB264E070E00C945DB261E070E00C9406
:103740005DB261E070E00C945DB26CE070E00C94EE
:103750005DB2CF93DF938091641590916515891BBD
:1037600080958F7019F40E94B277F5CF809164151F
:103770008F5F8F70A09164159BE4A99FD0011124E5
:10378000FD01E456F94FEF0119929A95E9F798E097
:103790009083AF54B94F90E1E6E6F5E101900D92C8
:1037A0009A95E1F72091641590916515291303C04E
:1037B00094E69093611580936415DF91CF910C94FA
:1037C000076FCF92DF92EF92FF920F931F93C12C5E
:1037D000D12C76018C012EE631E04AE651E066E616
:1037E00071E082E691E00E9411AA1F910F91FF9073
:1037F000EF90DF90CF900895CF93DF93CDB7DEB7F2
:1038000020E24F8158856E818D810E9492AEDF91BA
:10381000CF91089563EA79E482E00C9492C568EA56
:1038200079E481E00C9492C56DEA79E480E00C942F
:1038300092C562EB79E483E00C9492C50F931F93D9
:103840000EE315E020E435E04DEF56E160E575E06C
:1038500085E595E00E9449B61F910F9108950F9359
:103860001F9301E714E023EF34E04DED58E563E7E3
:1038700074E088E794E00E9449B61F910F91089583
:10388000CF92DF92EF92FF92CF93DF9300D000D0E0
:10389000CDB7DEB70E94B0D220E030E04AE754E472
:1038A0000E9423DA20E030E0A9010E94A0D96B0138
:1038B0007C0120E030E0A9010E94A9D22DEB37E382
:1038C00046E055E387FF04C02DEB37E346E055EBB8
:1038D000C701B6010E94A0D969837A838B839C8338
:1038E000CE0101960E944BAF0F900F900F900F905A
:1038F000DF91CF91FF90EF90DF90CF90089580916E
:103900005901882341F0609178047091790441E075
:1039100081E00C9435AE0895AF92BF92CF92DF92C2
:10392000EF92FF920F931F93CF93DF936B01E90107
:103930004A3009F4B8C0453109F06AC0DB0112967B
:10394000ED91FC91F280C681D781139A88E28A9525
:103950000000E9F7BF2CB29420EFB22230E1A32E91
:10396000AF0C48E2E42E88EF0E94C5668E2D8A9542
:103970000000E9F7BFE1BF1508F481C08F2D807703
:1039800080680E94C5668B2D0E94C5668E2D8A9523
:103990000000E9F780E80E94C56680E00E94C566E5
:1039A0008E2D8A950000E9F78AEF0E94C5668E2D5C
:1039B0008A950000E9F78E01005F1F4F8881807FA4
:1039C0000E94C56689918295807F0E94C566C01756
:1039D000D107A1F78E2D8A950000E9F7F394E0E175
:1039E000BE0EFA10C0CF1398D6011296CD91DC917D
:1039F000CE010E94B0B38111EEC1DF91CF911F9132
:103A00000F91FF90EF90DF90CF90BF90AF9008950F
:103A1000FB0102811381423309F498C108F49CC16F
:103A2000463409F489C1473409F48CC14B3329F574
:103A300089812B81D80112966C91129713964C9123
:103A4000213009F4DFC1233009F0A9C138EF380F64
:103A5000582F91E0431708F490E041E0531708F025
:103A600040E031E0561708F430E0592F542B35234D
:103A700009F0BDC1942309F0BAC181E0BECF80EE48
:103A80008F0D8068807F0E94C5668F2D8295807F14
:103A90000E94C5668E2D8A950000E9F780E80E9495
:103AA000C56680E87BCF0B9A1398399A4198099A9A
:103AB000119A139A88E28A950000E9F788E790E066
:103AC000CEE9DFE0FE013197F1F70197D9F788EFF2
:103AD0000E94C56618E2812F8A950000E9F780E20E
:103AE0000E94C56680E00E94C566812F8A9500000D
:103AF000E9F780E00E94C56680E80E94C566812FD4
:103B00008A950000E9F780E00E94C56680E10E9486
:103B1000C566812F8A950000E9F7CE010197F1F77C
:103B2000CE010197F1F7CE010197F1F7CE01019790
:103B3000F1F7CE010197F1F7CE010197F1F7CE0130
:103B40000197F1F7CE010197F1F7CE010197F1F757
:103B5000CE010197F1F7CE010197F1F7CE01019760
:103B6000F1F7CE010197F1F7CE010197F1F7219717
:103B7000F1F780E20E94C56680E40E94C566812F4D
:103B80008A950000E9F780E20E94C56680E60E94FF
:103B9000C5661A950000E9F710E0D0E0C8E28D2F65
:103BA000807780680E94C566812F0E94C5668C2F31
:103BB0008A950000E9F780E80E94C56680E00E94CF
:103BC000C5668C2F8A950000E9F78AEF0E94C566CA
:103BD0008C2F8A950000E9F780E211980000000020
:103BE000419800000000119A0000000011980000A8
:103BF0000000419800000000119A00000000119898
:103C000000000000419800000000119A0000000030
:103C1000119800000000419800000000119A000077
:103C20000000119800000000419800000000119A67
:103C30000000000011980000000041980000000002
:103C4000119A000000001198000000004198000047
:103C50000000119A00000000119800000000419837
:103C600000000000119A0000000011980000000000
:103C7000419800000000119A000000001198000017
:103C80000000419800000000119A00000000119807
:103C900000000000419800000000119A00000000A0
:103CA000119800000000419800000000119A0000E7
:103CB0000000119800000000419800000000119AD7
:103CC0000000000011980000000041980000000072
:103CD000119A0000000011980000000041980000B7
:103CE0000000119A000000001198000000004198A7
:103CF00000000000119A000000009C2F9A9500001F
:103D0000E9F7815009F069CF88EF0E94C5668C2FD2
:103D10008A950000E9F7DF5F105FD03209F03FCFEE
:103D200080E00E94C56680EC0E94C566CA950000CE
:103D3000E9F7139881E061CED80115968C918883BC
:103D400081E05BCEF80181818883FACFB901C80197
:103D50000E94CDB381E051CE443171F0473109F07A
:103D60008CCE1882F80182818983858181508A8373
:103D700083818B8381E041CED80115964C911597B4
:103D800050E0440F551F70E060E016968D919C91B5
:103D90000E94CBDBC8010E94C6B381E02ECE48173B
:103DA00008F46BCE861708F468CEFA80E12CD12C8B
:103DB000243070F41DC0BE01C8010E94CDB38981BA
:103DC00098819D0D98838E0D8983FF0C09F455CE43
:103DD000F7FEF6CFF0CF4D8150E0440F551F70E055
:103DE00060E08E819F810E94CBDB81E006CEFA806D
:103DF00030E0F901EB53FE4FD0802F533E4FF901D5
:103E0000E080E6CF58E0580F382F23CECF93DF93D2
:103E1000EC010E94E7BC1B82DF91CF910895CF9304
:103E2000DF93EC01462F41706C857D858E859F85E3
:103E30000E94B4B9882351F0888920E2829FC00192
:103E4000112488529D4EDF91CF91089590E080E03B
:103E5000FACFCF93DF93EB01FC012381211104C042
:103E600080E0DF91CF9108952250223028F48FE234
:103E70008883198281E0F5CF60E00E940F1F0097D0
:103E800079F3DC0160E080E09EE22D91203299F030
:103E9000883031F49E01260F311DF90190836F5F48
:103EA0009E01260F311DAD0141505109FA0140819B
:103EB000F90140836F5F8F5F8B3039F7FE01E60FAA
:103EC000F11D1082D7CF3F924F925F926F927F92F7
:103ED0008F929F92AF92BF92CF92DF92EF92FF921A
:103EE0000F931F93CF93DF93CDB7DEB72C970FB609
:103EF000F894DEBF0FBECDBF5C01DC0159968D90FA
:103F00009C90F40181859285A385B4859C01AD01C7
:103F10002F5F3F4F4F4F5F4F29873A874B875C8713
:103F2000D50114964D905D906D907C90179741143B
:103F300051046104710409F459C0BFEF4B1A5B0AC4
:103F40006B0A7B0A312C730162011D821E821F8263
:103F50001886F40181859285A385B4852D813E81E3
:103F60004F815885281739074A075B0708F056C064
:103F700089859A85AB85BC858C159D05AE05BF05E9
:103F800050F482E0C82ED12CE12CF12C92E0492E85
:103F9000512C612C712C9E012F5F3F4FB701A60160
:103FA000C4010E94EEBB8823C9F189819A81AB814B
:103FB000BC81892B8A2B8B2B01F1260137019FEFC6
:103FC000491A590A690A790A2D813E814F8158851B
:103FD0002F5F3F4F4F4F5F4F2D833E834F83588757
:103FE0003FEFC31AD30AE30AF30AB3CF40805180EC
:103FF0006280738033243394A6CFC414D504E604BE
:10400000F70411F70FEF1FEF2FEF3FE0B701A60105
:10401000C4010E945CBB782E81111AC0712C872DBF
:104020002C960FB6F894DEBF0FBECDBFDF91CF91B7
:104030001F910F91FF90EF90DF90CF90BF90AF90C6
:104040009F908F907F906F905F904F903F900895DA
:10405000F5014481558166817781411551056105DE
:10406000710539F097018601C4010E945CBB882369
:10407000A9F2D5011496CD92DD92ED92FC9217979C
:10408000332051F0D701C6010196A11DB11DF401E5
:1040900080839183A283B383F50185899689A7895B
:1040A000B08D892B8A2B8B2B09F0B9CFC58AD68A84
:1040B000E78AF08E818180688183B1CF40E050E053
:1040C000BA010C9436BDFC01238121110C94061F0A
:1040D00008952F923F924F925F926F927F928F92AC
:1040E0009F92AF92BF92CF92DF92EF92FF920F9387
:1040F0001F93CF93DF93CDB7DEB7C354D1090FB66B
:10410000F894DEBF0FBECDBF4C015B016A01222EC9
:1041100019821C821C8E1F8E6115710521F510E01D
:10412000CE014C960E946320CE0101960E9463202E
:10413000812FCD5BDF4F0FB6F894DEBF0FBECDBF32
:10414000DF91CF911F910F91FF90EF90DF90CF9073
:10415000BF90AF909F908F907F906F905F904F90A7
:104160003F902F900895FC0183818111D8CFFA01EF
:1041700080818F32A1F18B01CE0101967C013C013F
:1041800080E2382E2E019CE1490E511C2396EFAEA1
:1041900023972496FFAE249722963FAE229721962E
:1041A0003FAE21973FAE3EAE3DAE3CAE3BAE3AAEEB
:1041B00039AE38AE3FAA960190E047E0D9018D9123
:1041C000882309F447C08F3209F444C08E3209F5C0
:1041D0004A3009F4A4CF98E04AE09D01EFCFFB01FB
:1041E000838182508B01823060F0618D728DCE01AF
:1041F0004C960E94A6C28E01045E1F4F882309F4CC
:104200008ECFC6016C010196F60120812F32D1F3C9
:10421000B3CFE6E1F0E12491222321F0319682131D
:10422000FACF7DCF491708F47ACF813208F477CFDF
:104230008F3709F474CF3FE9380F3A3108F420EE94
:10424000E7E3F0E0EC0FFD1FE90FF11D820F808323
:104250009F5FC3CF8FA9803209F461CF6901F90153
:1042600080812F5F3F4F8F32C9F3882301F121E016
:10427000AE01495C5F4FB801C7010E94C4C38823E7
:1042800009F44DCF0A151B0519F0C8010E94061F3D
:10429000942D852D6E147F0431F023969FAD2397C6
:1042A00024968FAD24978701E92EF82E75CF222D05
:1042B000AE01495C5F4FB801C4010E94C4C3182F0E
:1042C0002FCF8F929F92AF92BF92CF92DF92EF92B9
:1042D000FF92CF936B017C01B42E20E030E0A90166
:1042E0000E94A9D287FF07C08DE20E94786FF7FA7B
:1042F000F094F7F8F094C0E060E070E080E09FE3B5
:10430000CB1541F02DEC3CEC4CEC5DE30E940FD35F
:10431000CF5FF6CFA70196010E94A0D96B017C0167
:104320000E949CDA4B015C014AE00E9451B8CC2308
:1043300079F1C501B4010E94AED29B01AC01C70165
:10434000B6010E949FD96B017C018EE20E94786FBA
:10435000C150F0F020E030E040E251E4C701B60186
:104360000E940FD36B017C010E949CDA4B015C011F
:104370004AE00E9451B8C501B4010E94AED29B012F
:10438000AC01C701B6010E949FD96B017C01E0CF4F
:10439000CF91FF90EF90DF90CF90BF90AF909F9024
:1043A0008F9008958F929F92AF92BF92CF92DF929B
:1043B000EF92FF920F931F93CF93C82F02EE14E159
:1043C000F80166817781072E000C880B990B0E94FB
:1043D000B0D26B017C01F80164817581072E000C5D
:1043E000880B990B0E94B0D24B015C0180E20E94C5
:1043F000786F84E50E94786F8AE30E94786F42E0CC
:10440000C501B4010E9461218FE090E10E94906F8C
:1044100042E0C701B6010E94612162E070E080E0E5
:1044200090E00E942AB285E1C802F0011124EE5109
:10443000FB4E608570E082E190E1CF911F910F917A
:10444000FF90EF90DF90CF90BF90AF909F908F90B4
:104450000C943B700F930FB70F9300916E000B7F7E
:1044600000936E0078940F930BB70F930CB70F92D5
:104470001F922F933F934F935F936F937F938F93ED
:104480009F93AF93BF93EF93FF9311240E94D6267F
:10449000FF91EF91BF91AF919F918F917F916F911C
:1044A0005F914F913F912F911F900F900CBF0F91F3
:1044B0000BBF0F910460F89400936E000F910FBF33
:1044C0000F911895CF93DF93C2EED4E11F821E8225
:1044D0000E94D1B218865D98DF91CF910895CF9355
:1044E000DF93C2EED4E18A819B810E94D5A79D8390
:1044F0008C83A8951092F802DF91CF910895EF92E6
:10450000FF920F931F93CF93C82F7B018A01809155
:104510000106813099F40E944570C7010E94906F96
:1045200087E69FE00E94906FC7FD32C08C2FCC0FB2
:10453000990B0E946DA88AE00E94786F0E94622207
:10454000A89580910F0581112EC081E080930F0501
:1045500080E8809301060E946222C5E1C150149A4E
:10456000E1F069E170E080E090E00E942AB2A89555
:10457000149868E270E080E090E00E942AB2A8956A
:1045800068E270E080E090E00E942AB2A895E6CF51
:1045900083E69FE00E94906FCECF40E060E67FE030
:1045A000C8010E941E72CF911F910F91FF90EF9052
:1045B0000895CF93DF93EC01488159816A817B8113
:1045C00086E59FE00E94AF734C815D816E817F81A3
:1045D00089E993E20E94AF73488559856A857B8596
:1045E00085E993E20E94AF738AE0DF91CF910C944A
:1045F000786FBC012091F0043091F1044091F004F7
:104600005091F1042417350731F481E0261737075C
:1046100009F080E008959A01F1CF0F930FB70F933F
:1046200000916E000F930B7F00936E0000916F005E
:104630000D7F00936F000F930BB70F930CB70F9282
:104640001F922F933F934F935F936F937F938F931B
:104650009F93AF93BF93EF93FF9311240E94012880
:10466000FF91EF91BF91AF919F918F917F916F914A
:104670005F914F913F912F911F900F900CBF0F9121
:104680000BBF0F910260F89400936F000F9100939D
:104690006E000F910FBF0F911895000000000000F1
:1046A00000008091F20580FF27C0459A8FEF80932C
:1046B000A6048091F205869580FF21C0479A8FEF6E
:1046C0008093A7048091F2058695869580FF1AC095
:1046D0002A9A8FEF8093A8048091F205869586959B
:1046E000869580FF12C0289A8FEF8093A90400005E
:1046F0000000000000000895459881E0D8CF479859
:1047000081E0DECF2A9881E0E5CF289881E0EDCFE7
:10471000AF92BF92CF92DF92EF92FF920F931F93CF
:10472000CF93DF93CDE4DBE000E716E08DE5A82E24
:104730008BE0B82EC12CD12C7601C394699179916C
:10474000899199910E94AED2288939894A895B89D9
:104750000E940FD30E949CDAF801619371938193B8
:1047600091938F01C616D706E806F90610F46B017F
:104770007C01AC16BD0611F76FEF7FEFCB01A701EF
:1047800096010E94F1D820938006309381064093D1
:10479000820650938306DF91CF911F910F91FF9076
:1047A000EF90DF90CF90BF90AF9008950F931F933D
:1047B000CF93DF9301E61BE0C9E8D6E0F801219131
:1047C0003191419151918F0160E070E080E89FE369
:1047D0000E9423DA6993799389939993F6E0C93912
:1047E000DF0761F70E9473AADF91CF911F910F91AC
:1047F0000C9488230C94D6230C94D6230C94D623A3
:104800000C94D6239091641580916515981306C079
:1048100080919A0690919B06892B19F00E94B2779D
:10482000F1CF08959091641580916515981308C093
:1048300080919A0690919B06892B11F40C94486FF5
:104840000E94B277EFCFCF93DF93209173022223A0
:1048500079F0EC010E942B6C9B01AC016885798595
:104860008A859B850E949FD9688779878A879B87DD
:10487000DF91CF910895CF93DF932091730222238C
:1048800079F0EC010E942B6C9B01AC016885798565
:104890008A859B850E94A0D9688779878A879B87AC
:1048A000DF91CF9108954F925F926F927F928F9296
:1048B0009F92AF92BF92CF92DF92EF92FF920F93AF
:1048C0001F93CF93DF93CDB7DEB76A970FB6F894F7
:1048D000DEBF0FBECDBF9A8F898F5B018A01DC01DD
:1048E000D6966D917D918D919C91D9970E94AED273
:1048F0006B017C01F50120813181428153810E944D
:104900000FD30E940CDA2B013C01D8012D913D916F
:104910004D915C91C701B6010E940FD30E940CDA41
:104920004B015C01C301B2010E949CDA698B7A8B56
:104930008B8B9C8B683771058105910540F428E7C6
:1049400030E040E050E0298B3A8B4B8B5C8BC5010B
:10495000B4010E949CDA6D877E878F87988B6837B9
:1049600071058105910540F488E790E0A0E0B0E092
:104970008D879E87AF87B88BE98DFA8DEE5BFF4FF1
:10498000208131814281538129833A834B835C8327
:10499000CA01B9010E94B0D22B013C0169897A8910
:1049A0008B899C890E94AED269877A878B879C8786
:1049B00020E030E0A901C301B2010E94A9D28823FE
:1049C00009F43BC1A7019601C701B6010E940FD3AC
:1049D0004B015C0129853A854B855C85CA01B9018B
:1049E0000E940FD39B01AC01C501B4010E949FD965
:1049F0004B015C01A3019201C301B2010E94A0D945
:104A00009B01AC01C501B4010E9423DA0E940CDABB
:104A10000E949CDA6D837E838F83988769817A8177
:104A20008B819C8190958095709561957F4F8F4F7C
:104A30009F4F0E94B0D24B015C016D857E858F85B2
:104A400098890E94AED269837A838B839C8320E00D
:104A500030E0A901C501B4010E94A9D2882309F45C
:104A6000F0C029813A814B815C81CA01B9010E9461
:104A70000FD36D8B7E8B8F8B988FA7019601C7010B
:104A8000B6010E940FD39B01AC016D897E898F898D
:104A9000988D0E949FD96B017C01A5019401C501ED
:104AA000B4010E94A0D99B01AC01C701B6010E94CC
:104AB00023DA0E94CBDAA98DBA8D95968D909D90C0
:104AC000AD90BC909897750164012D813E814F8116
:104AD0005885C21AD30AE40AF50A0E949CDAC61A5B
:104AE000D70AE80AF90AF7FE6EC020E030E0A90113
:104AF000C301B2010E94A9D2882309F4A6C0C5014E
:104B0000B4010E94AED26B017C01A3019201C301EA
:104B1000B2010E94A0D99B01AC01C701B6010E945D
:104B20000FD36B017C0129853A854B855C85CA01D1
:104B3000B9010E940FD39B01AC01C701B6010E94CD
:104B40009FD96B017C0129813A814B815C81CA012B
:104B5000B9010E940FD39B01AC01C701B6010E94AD
:104B6000A0D96B017C0120E030E040E850E4C301B3
:104B7000B2010E940FD39B01AC01C701B6010E9494
:104B800023DA0E940CDA6B017C0120E030E0A901FD
:104B90000E9423DB18161CF0C12CD12C7601C70112
:104BA000B6010E949CDA6D837E838F839887861678
:104BB0009706A806B90620F48D829E82AF82B88639
:104BC000C12CD12C76018D819E81AF81B885E98D74
:104BD000FA8D81A792A7A3A7B4A7C80ED91EEA1E73
:104BE000FB1EC5A6D6A6E7A6F0AA29893A894B8955
:104BF0005C8922AF33AF44AF55AFFE962D853E851D
:104C00004F85588920833183428353836A960FB638
:104C1000F894DEBF0FBECDBFDF91CF911F910F91F2
:104C2000FF90EF90DF90CF90BF90AF909F908F90CC
:104C30007F906F905F904F90089560E070E0CB019F
:104C4000E5CE60E070E0CB0134CF60E070E0CB01F6
:104C500098CF90916F0081E091FD02C080E00895AF
:104C600090916F009D7F90936F000895CF93C82F10
:104C70000E94292694E0C99F90011124F901ED506A
:104C8000FB4F21503B4FD9014D915D916D917C912E
:104C9000408351836283738391E09093F20488236D
:104CA00019F0CF910C94076FCF910895CF92DF92B6
:104CB000EF92FF928091F105811105C080913A0633
:104CC000882309F46EC080918504329B64C08061A2
:104CD0008093850480918504339B5FC080628093BC
:104CE00085048091850434995AC08460809385043A
:104CF000C090E304C0FE10C08091F20580FD0CC09E
:104D00008091850484FF08C080913806806180937B
:104D1000380680E00E943626D12CF12CE12CD701F8
:104D2000C601B695A7959795879580FF11C080918C
:104D3000F205869580FD0CC08091850485FF08C032
:104D40008091380680628093380681E00E94362682
:104D500082E0F694E794D794C7948A95D1F7C0FE81
:104D600020C08091F2058695869580FF1AC08091BB
:104D70003A068823B1F08091850482FF12C08091A9
:104D8000380684608093380682E0FF90EF90DF90D1
:104D9000CF900C9436268F7E9BCF8F7DA0CF8B7FBC
:104DA000A5CFFF90EF90DF90CF9008950F931F93C2
:104DB000CF93DF9380913E018F37A8F18F57909169
:104DC000EA1490932705992391F15D9A8F5F809360
:104DD0003E018091260591E0892780932605811167
:104DE0000E949D1780913D01C1E0C80F83300CF0F7
:104DF000C0E0813009F481C0E4F4882379F1C093E4
:104E00003D010E94562680919A0690919B0600973C
:104E100029F0019790939B0680939A06DF91CF919A
:104E20001F910F91089590912705891778F25D9849
:104E3000CDCF823009F46CC0833009F7809125050D
:104E4000811103C087E0809325058091250581505D
:104E500080932505882399F2C3E0D1CF80913C014E
:104E60008F5F80311CF480933C01C9CF10923C01CC
:104E70008091F80281110BC08091E2149091E314AB
:104E80009093E5148093E41481E08093F8021092EB
:104E9000E3141092E2140091E4141091E51480914F
:104EA000E8149091E914D1E0181619062CF08091BD
:104EB000EA14811101C0D0E0809152019091530118
:104EC000081719073CF441ED5FE06EED7FE080E0EC
:104ED0000E947F22DD2309F492CF809150019091AE
:104EE0005101801791070CF08ACF40EF5FE06DEF22
:104EF0007FE080E00E947F2282CF10927B0087E4D7
:104F000080937C0080917A00806480937A0077CFD0
:104F100080917A0086FD0FC0209178003091790051
:104F20008091E2149091E314820F931F9093E31405
:104F30008093E21464CFC2E062CF0E9429261092CF
:104F400084061092850610928606109287068111BB
:104F50000C94076F08950F931F938091641590919F
:104F60006515891B8F7009F449C0909161159923CB
:104F700061F0833040F48FEF890F29F08093611541
:104F800090E080E038C010926115809165152BE4A7
:104F9000829FC00111248456994FFC01208120FD7D
:104FA000EFCF4091840650918506609186067091FE
:104FB0008706E95BFF4F0081118122813381401B0D
:104FC000510B620B730B40938406509385066093DC
:104FD000860670938706209165152F5F2F702093AA
:104FE00062153091651520916315321304C020912C
:104FF0006215209363151F910F9108950E949D27BC
:10500000BFCF2F923F924F925F926F927F928F927B
:105010009F92AF92BF92CF92DF92EF92FF920F9347
:105020001F93CF93DF9300D000D0CDB7DEB78FEFC3
:105030009FEF90938900809388000AE00983312CC8
:10504000212C78948091EC049091ED04A091EE04D1
:10505000B091EF04892B8A2B8B2B09F0C4C180916E
:10506000F2048823E1F08091F0049091F104109211
:10507000F204892B09F4B7C11092F1041092F004E4
:105080001092E3049091641580916515981709F4C6
:10509000AAC1809165158F5F8F708093651580918F
:1050A000F0049091F104892B09F49DC14091E8042A
:1050B0005091E9046091EA047091EB048091E4045A
:1050C0009091E504A091E604B091E7040091D60424
:1050D00010E030E020E0841B950BA60BB70B0817FF
:1050E00019072A073B0710F4D901C8018A83840FE6
:1050F000951FA61FB71F8093E8049093E904A0931F
:10510000EA04B093EB04E1E0C090AE04D090AF04A9
:10511000E090B004F090B1048091BE049091BF047F
:10512000A091C004B091C104C80ED91EEA1EFB1E96
:10513000C092BE04D092BF04E092C004F092C104B9
:10514000F7FC33C04091A604042E000C550B660BEF
:10515000770B8091FF0490910005A0910105B0911B
:105160000205840F951FA61FB71F8093FF0490931D
:105170000005A0930105B09302058091AA049091C7
:10518000AB04A091AC04B091AD04A7019601281B1B
:10519000390B4A0B5B0BDA01C9018093BE04909373
:1051A000BF04A093C004B093C1040091B204109155
:1051B000B3042091B4043091B5048091C20490915D
:1051C000C304A091C404B091C504080F191F2A1F7D
:1051D0003B1F0093C2041093C3042093C404309374
:1051E000C50437FD33C08091A704082E000C990B2D
:1051F000AA0BBB0B40910305509104056091050576
:1052000070910605840F951FA61FB71F8093030595
:1052100090930405A0930505B09306058091AA0418
:105220009091AB04A091AC04B091AD04B901A80178
:10523000481B590B6A0B7B0BDB01CA018093C2042C
:105240009093C304A093C404B093C5044091B604E2
:105250005091B7046091B8047091B9048091C6046C
:105260009091C704A091C804B091C904480F591F78
:105270006A1F7B1F4093C6045093C7046093C80401
:105280007093C90477FD33C08091A804082E000CE8
:10529000990BAA0BBB0B8090070590900805A09076
:1052A0000905B0900A05880D991DAA1DBB1D8093A4
:1052B000070590930805A0930905B0930A0580910E
:1052C000AA049091AB04A091AC04B091AD042A0162
:1052D0003B01481A590A6A0A7B0AD301C20180932A
:1052E000C6049093C704A093C804B093C9048090E7
:1052F000BA049090BB04A090BC04B090BD0480910F
:10530000CA049091CB04A091CC04B091CD04880D37
:10531000991DAA1DBB1D8093CA049093CB04A09332
:10532000CC04B093CD04B7FD33C04090A904042C45
:10533000000C55086608770880900B0590900C05C6
:10534000A0900D05B0900E05840C951CA61CB71CF2
:1053500080920B0590920C05A0920D05B0920E055F
:105360008090AA049090AB04A090AC04B090AD04DF
:105370002C013D01481859086A087B085301420175
:105380008092CA049092CB04A092CC04B092CD0437
:10539000E11104C0E0918400F0918500F7FE5F9A6E
:1053A00037FF469A77FF2B9AB7FF299AE09184003E
:1053B000F0918500E0918400F0918500F7FE5F9800
:1053C00037FF469877FF2B98B7FF29985A805520CA
:1053D00021F080918400909185000A8101500A8318
:1053E000E0E0011191CE80905E0190905F01A0906D
:1053F0006001B090610181149104A104B10409F02D
:1054000047C080913F0690914006009709F42FC055
:1054100023B1247015980000000000000000181649
:1054200019060CF4D7C02A9A000000000000000002
:105430002B9A34E03A950000E9F72B980000000021
:1054400000000000222309F4C7C02A9A00000000CF
:1054500000000000181619060CF0C0C080913F062D
:105460009091400601979093400680933F060E94DA
:105470000D6F882309F4B8C080ED97E0A0E0B0E09C
:1054800080935E0190935F01A0936001B0936101EE
:105490008091EC049091ED04A091EE04B091EF04A2
:1054A000892B8A2B8B2B09F050C4E091F004F091EA
:1054B000F104309709F424C58091E8049091E9043F
:1054C000A091EA04B091EB044091E4045091E5040A
:1054D0006091E6047091E70484179507A607B70763
:1054E00008F486C01092F1041092F0041092E304C4
:1054F0009091641580916515981709F401C5809104
:1055000065158F5F8F708093651580EDC82E87E0DD
:10551000D82EE12CF12C8091F0049091F104892B8C
:1055200009F00BC40E94AB279093F1048093F00420
:10553000892B09F402C44090F0045090F1045C827D
:105540004B82D2018C9183FFB3C2F201858D968D7F
:10555000A78DB0A1418D528D638D748D05891689FB
:105560002789308D0093FF041093000520930105D7
:10557000309302054093030550930405609305059D
:10558000709306058093070590930805A09309057D
:10559000B0930A0581A192A1A3A1B4A180930B05A8
:1055A00090930C05A0930D05B0930E051092F10495
:1055B0001092F0041092E3049091641580916515A7
:1055C000981709F4AFCF809165158F5F8F70809326
:1055D0006515A8CF2A9828CF2A9838CF80913F0602
:1055E0009091400601963FCF8FEF9FEFDC0148CFAF
:1055F0004091DF045091E0046091E1047091E20475
:10560000481759076A077B0708F4DEC08091DB045E
:105610009091DC04A091DD04B091DE0441A952A96F
:1056200063A974A91127859F412C969F9001A69F7D
:10563000300DA59F200D311D869F400C211D311F6F
:10564000959F400C211D311FA49F400C211D311F2F
:10565000949F410C211F311F4694211F311F789FB9
:10566000200D311D799F300D112442AD53AD64AD35
:1056700075AD420F531F611D711D4093D7045093A8
:10568000D8046093D9047093DA0406A917A920AD51
:1056900031AD041715072607370740F40093D704E8
:1056A0001093D8042093D9043093DA044090D7049F
:1056B0005090D8046090D9047090DA0426E33FE05B
:1056C00001E00A83F9014591559165917491441562
:1056D00055056605770570F476946794579447945A
:1056E0001A81110F1A832C5F3F4F42E55FE042178A
:1056F000530741F75A815093D60460E2461651048D
:105700006104710428F410E2412E512C612C712C9B
:1057100070E2471A5108610871084114E8E05E061A
:105720006104710408F42EC0F4E05F9E900111241E
:105730002A5C344FF901329645915491042DEE279D
:10574000059FB001049F610D7E1F06946E1F7E1F92
:105750001124AB0170E060E0F901C590D490F12C08
:10576000E12CC41AD50AE60AF70A8C0D9D1DAE1D60
:10577000BF1D8093DB049093DC04A093DD04B09301
:10578000DE04C9CEB301A20176956795579547957A
:105790009A012C7F2A5C384FF901C590D490F90109
:1057A000329645915491142D1770149F9001159FB6
:1057B000300D1124F3E036952795FA95E1F7C21ADA
:1057C000D30AF12CE12CD1CF4091D2045091D304D3
:1057D0006091D4047091D504481759076A077B0774
:1057E00008F0D4C08091CE049091CF04A091D00451
:1057F000B091D10441A952A963A974A92227859F18
:10580000312D969F8001A69F100DA59F000D111DA3
:10581000869F300D011D121F959F300D011D121F17
:10582000A49F300D011D121F949F310D021F121FE6
:105830003695021F121F789F000D111D799F100DC4
:10584000112430E020E04091D7045091D8046091B9
:10585000D9047091DA04FE96408051806280738092
:10586000041715072607370758F4401B510B620B26
:10587000730B441655066606770610F42A013B01A1
:1058800026E33FE041E04A83F90145915591659156
:105890007491441555056605770570F47694679400
:1058A000579447945A81550F5A832C5F3F4F62E5B6
:1058B0007FE06217730741F77A817093D604E0E2C4
:1058C0004E1651046104710428F400E2402E512C5C
:1058D000612C712CF0E24F1A5108610871084114D3
:1058E00008E050066104710408F42EC014E0519ED3
:1058F000900111242A5C344FF9013296459154915C
:10590000F42DEE27F59FB001F49F610D7E1F0694E4
:105910006E1F7E1F1124AB0170E060E0F901C5909D
:10592000D490F12CE12CC41AD50AE60AF70A8C0DA2
:105930009D1DAE1DBF1D8093CE049093CF04A093F8
:10594000D004B093D104E7CDB301A2017695679559
:10595000579547959A012C7F2A5C384FF901C590DD
:10596000D490F901329645915491042D0770049F0B
:105970009001059F300D112413E0369527951A9557
:10598000E1F7C21AD30AF12CE12CD1CF8091380172
:1059900090913901A0913A01B0913B01B7FF5DC0F0
:1059A000C6A8D7A8E0ACF1AC86E39FE021E0FC01FB
:1059B00045915591659174914C155D056E057F0576
:1059C00058F4F694E794D794C794220F049642E5CE
:1059D0005FE04817590759F72093D60450E2C516DF
:1059E000D104E104F10428F470E2C72ED12CE12C9B
:1059F000F12C60E2C61AD108E108F108C11478E080
:105A0000D706E104F10408F431C0A4E0DA9EC00135
:105A100011248A5C944FFC01329625913491BC2D5F
:105A20006627B39FA001B29F410D561F0694461FE3
:105A3000561F112470E060E0FC0185919491B0E064
:105A4000A0E0841B950BA60BB70B809338019093B5
:105A50003901A0933A01B0933B01C0903801D09036
:105A60003901E0903A01F0903B0155CDD701C601D4
:105A7000B695A795979587958C7F8A5C984FFC0182
:105A800025913491FC01329645915491EC2DE770AB
:105A9000E49FC001E59F900D112463E096958795E2
:105AA0006A95E1F7281B390BC901B0E0A0E0CDCF22
:105AB000AB81BC8155960D911D912D913C915897CC
:105AC00081E0011511052105310509F480E0EB8124
:105AD000FC81C18CD28CE38CF48CC114D104E10420
