:100000000C94AB120C94D5120C94D5120C94D512FE
:100010000C94D5120C94D5120C94D5120C94D512C4
:100020000C94D5120C94D5120C94D5120C94D512B4
:100030000C94D5120C94DA220C94D5120C94D5128F
:100040000C94D5120C9414220C94B1BA0C94D512C1
:100050000C9488790C947E790C94D5120C94D5125A
:100060000C94D5120C94D5120C94D5120C94D51274
:100070000C94D5120C94D5120C94D5120C94D51264
:100080000C94D6740C94D5120C94D5124E414E4952
:100090004E495459494E46CDCCCC3D0AD7233C1746
:1000A000B7D13877CC2B329595E6241FB14F0A0093
:1000B0000020410000C84200401C4620BCBE4CCA83
:1000C0001B0E5AAEC59D7400407A10F35A00A07200
:1000D0004E18090010A5D4E80000E8764817000083
:1000E000E40B54020000CA9A3B000000E1F5050051
:1000F0000080969800000040420F000000A086019A
:10010000000000102700000000E803000000006469
:1001100000000000000A00000000000100000000D4
:10012000002C76D888DC674F0823DFC1DFAE59E1A9
:10013000B1B796E5E3E453C63AE651997696E8E618
:10014000C28426EB898C9B62ED407C6FFCEFBC9CEB
:100150009F40F2BAA56FA5F490055A2AF75C936BFD
:100160006CF9676DC11BFCE0E40D47FEF520E6B5B8
:1001700000D0ED902E0300943577050080841E0892
:100180000000204E0A000000C80C333333330F98B0
:100190006E12831141EF8D2114893BE65516CFFE77
:1001A000E6DB18D1844B381BF77C1D901DA4BBE403
:1001B00024203284725E228100C9F124ECA1E53D45
:1001C0002741425300504C410042656400456E6334
:1001D0006C6F73757265002568753A2530326875E5
:1001E0000025303268753A253032687500202020AD
:1001F000202020200020202020003FFFF038007029
:1002000030FC3020FC102078102030102C00D02E34
:1002100031D02F7BD02F7BD02E31D02C00D020306E
:100220001020781020FC1030FC303800703FFFF0B8
:100230003FFFF03800703186302387102787902FDA
:1002400087D02F03D0203010207810207810203055
:10025000102F03D02F87D027879023871031863027
:100260003800703FFFF063616E63656C0050726927
:100270006E742041626F72746564004D32350050B7
:10028000617573696E672E2E2E00726573756D65CC
:10029000004D32340050726F6265205A204F6666FE
:1002A0007365740046696C2E204469612E004F66A8
:1002B00066004F6E004520696E206D6D5E3300450F
:1002C0002073746570732F6D6D005A2053746570C0
:1002D000732F6D6D00592053746570732F6D6D0011
:1002E000582053746570732F6D6D00416476616E94
:1002F0006365642053657474696E67730046696C46
:10030000616D656E740053746570732F6D6D00437D
:100310006F6E66696775726174696F6E0053746F92
:1003200077004465706C6F790053572D4D6F64658D
:100330000053656C662D5465737400526573657463
:1003400000436F6E66696775726174696F6E005203
:100350006573746F72652044656661756C747300B3
:100360004C6F61642053657474696E6773005374D5
:100370006F72652053657474696E677300424C54E4
:100380006F7563680050726F6265205A204F666611
:1003900073657400416476616E63656420536574AF
:1003A00074696E6773004D61696E004D3139305369
:1003B00037350A4732380A4732390A4D3430300A65
:1003C0004D313034533231350A4732380A4D3130ED
:1003D00039533231350A4D34323053310A473158AE
:1003E0003130305931303046353030300A47315AAB
:1003F000300A4D3530300A4D313137205365742085
:100400005A204F6666736574004D31303653313271
:10041000380A4D3330334338533231354530550A7D
:100420004D3530300A4D3131372050494420547514
:100430006E6520446F6E65004D3139305337350A93
:100440004D313034533231350A4732380A47323968
:100450004C310A473120583130305931303046352F
:100460003030300A47315A30004D3530300A4D3186
:1004700031372053657474696E67732053746F72DB
:100480006564005072657020666F72205A20416466
:100490006A757374005049442054756E6500537436
:1004A0006F72652053657474696E67730053657469
:1004B0007570004D61696E003F004261636B0053CF
:1004C000746F70004D3231005072696E7420667224
:1004D0006F6D204D656469610052656C656173657F
:1004E000204D65646961004D3232004C6576656C63
:1004F000696E6720546F6F6C7300436F6E66696737
:1005000075726174696F6E0054656D7065726174A7
:10051000757265004D6F74696F6E00526573756D0D
:1005200065205072696E740054756E650053746F67
:1005300070205072696E740050617573652050723E
:10054000696E7400417474616368204D656469610B
:1005500000496E666F2053637265656E0043616E7D
:100560006E6F7420656E7465722073756264697253
:100570003A2000022E2E00015265667265736800F3
:100580004D61696E002100486F74656E6420746F60
:100590006F20636F6C64004261636B0050726F6325
:1005A000656564004D6F74696F6E004469736162C4
:1005B0006C65205374657070657273004D3834003B
:1005C0004175746F20486F6D6500473238004D618A
:1005D000696E00C501C101436F6F6C646F776E0077
:1005E0005072656865617420240046616E20537006
:1005F000656564004E6F7A7A6C65004D61696E00C6
:1006000050726F6265205A204F66667365740046AB
:100610006C6F770046616E205370656564004E6FA5
:100620007A7A6C65005370656564004D61696E008F
:10063000486F6D696E67204661696C6564006F7014
:10064000656E00545249474745524544003A2000E0
:100650007A5F6D696E00795F6D696E00785F6D69B4
:100660006E005265706F7274696E6720656E647398
:10067000746F70207374617475730A0020746F6FE7
:10068000206C6F6E6720657874727573696F6E2069
:1006900070726576656E7465640A0020636F6C64C1
:1006A00020657874727573696F6E207072657665F7
:1006B0006E7465640A00486F6D6520257325732587
:1006C00073204669727374005761726E696E673A7F
:1006D00020486F6D696E672042756D7020446976A1
:1006E00069736F72203C20310A000202040000008E
:1006F00000000000000000000000007A4300007AC3
:100700004300007A43000000410000004100000067
:100710004000007A4300007A4300007A4300000062
:1007200000000000000000000053657474696E67EB
:10073000732053746F72656400454550524F4D20CD
:10074000496E697469616C697A65640A0000803B6E
:100750004400803B4400002041000096420000A07D
:10076000420000A0420000C8430080CF43D00700F1
:1007700000D0070000640000004B00000024F4D407
:100780003050C38E20C2A24017828B7011127A9112
:100790000D816CD90AA861E108C758660761514309
:1007A000061E4B5D05C145A7041A411104093D9879
:1007B00003713931034036DB0265339102D4305482
:1007C00002802E1D02632CEE01752AC501B028A0FF
:1007D00001102781018F2564012B244B01E0223475
:1007E00001AC211F018D200D01801FFC00841EED36
:1007F00000971DDF00B81CD200E61BC600201BBC02
:1008000000641AB200B219A8000A19A0006A189967
:1008100000D117910040178B00B516840031167E69
:1008200000B31579003A157300C7146F0058146AA5
:1008300000EE1366008813630025135E00C7125B89
:10084000006C12570015125400C111510070114F65
:100850000021114B00D61049008D1047004610446E
:100860000002104200C00F4000800F3E00420F3CCB
:1008700000060F3B00CB0E3800930E37005C0E35A0
:1008800000270E3400F30D3200C10D3100900D3001
:1008900000600D2E00320D2D00050D2C00D90C2B03
:1008A00000AE0C2900850C29005C0C2700350C27B4
:1008B000000E0C2600E80B2400C40B2400A00B2320
:1008C000007D0B23005A0B2100390B2100180B204F
:1008D00000F80A1F00D90A1E00BB0A1E009D0A1D4F
:1008E00000800A1D00630A1C00470A1B002C0A1B1B
:1008F00000110A1A00F7091A00DD091900C40919C4
:1009000000AB091900920917007B09180063091749
:10091000004C09160036091600200916000A0915B0
:1009200000F5081500E0081400CC081400B80814FD
:1009300000A4081400900813007D0812006B08132F
:10094000005808120046081200340811002308114C
:10095000001208110001081100F0071000E0071054
:1009600000D0071000C0071000B0070F00A107104B
:100970000091070E0083070F0074070F0065070E34
:100980000057070E0049070E003B070D002E070E0B
:100990000020070D0013070D0006070D00F9060CD7
:1009A00000ED060D00E0060C00D4060C00C8060C95
:1009B00000BC060C00B0060C00A4060B0099060C47
:1009C000008D060B0082060B0077060B006C060BF1
:1009D0000061060A0057060B004C060A0042060A90
:1009E0000038060A002E060A0024060A001A060A23
:1009F000001006090007060A00FD050900F40509B4
:100A000000EB050900E2050900D9050900D0050938
:100A100000C7050900BE050900B5050800AD0508B9
:100A200000A50509009C050800940508008C050830
:100A300000840508007C050800740508006C0507A3
:100A400000650508005D050700560508004E05070E
:100A50000047050700400508003805070031050775
:100A6000002A050700230507001C050600160507D8
:100A7000000F0507000805060002050700FB040635
:100A800000F5040700EE040600E8040600E204078F
:100A900000DB040600D5040600CF040600C90406E6
:100AA00000C3040600BD040600B7040600B1040537
:100AB00000AC040600A6040600A00405009B040682
:100AC0000095040500900406008A040500850405CD
:100AD00000800406007A0405007504050070040512
:100AE000006B04050066040500610405005C040554
:100AF0000057040500520405004D04050048040594
:100B000000430405003E0404003A040500350405D2
:100B100000300404002C040500270404002304050D
:100B2000001E0404001A0404001604050011040445
:100B3000000D04040009040500040404000004047A
:100B400000FC030400F8030400F4030400F00304B1
:100B500000EC030400E8030400E4030400E00304E1
:100B600000DC030400D8030400D4030400D0030411
:100B700000CC030400C8030300C503030024F404ED
:100B8000D9201BC40C5C0E9804C4095F0265077170
:100B900001F405F900FB04B30048048700C10369B0
:100BA000005803550003034500BE023A0084023199
:100BB0000053022A002902250004022000E4011C3F
:100BC00000C8011900AF0117009801140084011337
:100BD00000710110006101100051010E0043010D70
:100BE0000036010B002B010B0020010B0015010941
:100BF000000C01090003010800FB000800F30008D5
:100C000000EB000700E4000600DE000600D8000646
:100C100000D2000600CC000500C7000500C2000598
:100C200000BD000400B9000400B5000400B10004D8
:100C300000AD000400A9000400A5000300A2000309
:100C4000009F0004009B0003009800030095000231
:100C50000093000300900003008D0002008B00034E
:100C60000088000200860002008400030081000268
:100C7000007F0002007D0002007B0002007900027C
:100C8000007700010076000200740002007200018B
:100C900000710002006F0002006D0001006C000294
:100CA000006A00010069000200670001006600019F
:100CB00000650001006400020062000100610001A3
:100CC00000600001005F0002005D0001005C0001A7
:100CD000005B0001005A00010059000100580001AA
:100CE00000570001005600010055000100540001AA
:100CF00000530000005300010052000100510001A8
:100D000000500001004F0001004E0000004E0001A5
:100D1000004D0001004C0001004B0000004B0001A1
:100D2000004A00010049000100480000004800019D
:100D30000047000100460000004600010045000099
:100D40000045000100440001004300000043000191
:100D5000004200000042000100410000004100018B
:100D600000400001003F0000003F0001003E000085
:100D7000003E0001003D0000003D0001003C00007D
:100D8000003C0000003C0001003B0000003B000173
:100D9000003A0000003A000100390000003900016B
:100DA0000038000000380000003800010037000063
:100DB0000037000100360000003600000036000158
:100DC000003500000035000000350001003400004F
:100DD0000034000000340001003300000033000044
:100DE0000033000100320000003200000032000138
:100DF000003100000031000000310001003000002F
:100E00000030000000300001002F0000002F000023
:100E1000002F0000002F0001002E0000002E000017
:100E2000002E0001002D0000002D0000002D00000C
:100E3000002D0001002C0000002C0000002C000000
:100E4000002C0001002B0000002B0000002B0000F4
:100E5000002B0001002A0000002A0000002A0000E8
:100E6000002A0001002900000029000000290000DC
:100E700000290000002900010028000000280000CF
:100E800000280000002800000028000100270000C2
:100E900000270000002700000027000000270001B5
:100EA00000260000002600000026000000260000AA
:100EB000002600010025000000250000002500009C
:100EC000002500000025000000250001002400008E
:100ED0000024000000240000002400000024000181
:100EE0000023000000230000002300000023000076
:100EF0000023000000230000002300010022000066
:100F00000022000000220000002200000022000059
:100F1000002200010021000000210000002100004B
:100F2000002100000021000000210000002100013C
:100F30000020000000200000002000000020000031
:100F40000020000000200000002000000020000120
:100F5000001F0000001F0000001F0000001F000015
:100F6000001F0000001F0000001F0001001E000005
:100F7000001E0000001E0000001E000000043700DC
:100F8000001E290000511B0000581000001009002D
:100F900000CC040000780200004101000020436FF3
:100FA000756E7420583A00453100626564002C204B
:100FB00073797374656D2073746F7070656421202C
:100FC0004865617465725F49443A2000544845524F
:100FD0004D414C2052554E4157415900546865725D
:100FE0006D616C2052756E6177617900486561743E
:100FF000696E67204661696C656400486561746963
:101000006E67206661696C6564004D313132205332
:10101000687574646F776E004572723A204D41585E
:1010200054454D50004D415854454D5020747269FF
:10103000676765726564004572723A204D494E5487
:10104000454D50004D494E54454D502074726967CE
:10105000676572656400202F0020403A007C3C3EAA
:101060005E2B3D3F2F5B5D3B2C2A225C00434F4DA6
:101070004D554E49434154494F4E004452595255E3
:101080004E004552524F525300494E464F00454381
:10109000484F00486F74656E642049646C65205445
:1010A000696D656F757400486F74656E642049647E
:1010B0006C652054696D656F75740A002121204BA1
:1010C000494C4C2063617573656420627920746FAC
:1010D0006F206D75636820696E6163746976652041
:1010E00074696D65202D2063757272656E7420635E
:1010F0006F6D6D616E643A200053544F50504544FB
:101100002E20005072696E7465722073746F707057
:1011100065642064756520746F206572726F7273E8
:101120002E2046697820746865206572726F72207F
:10113000616E6420757365204D39393920746F20D4
:10114000726573746172742E202854656D706572B7
:1011500061747572652069732072657365742E20E1
:1011600053657420697420616674657220726573BA
:1011700074617274696E67290A004E6F2043686556
:10118000636B73756D2077697468206C696E652078
:101190006E756D6265722C204C617374204C696EA3
:1011A000653A20004E6F20436865636B73756D2050
:1011B00077697468206C696E65206E756D62657202
:1011C0002C204C617374204C696E653A2000636872
:1011D00065636B73756D206D69736D617463682CE5
:1011E000204C617374204C696E653A20004C696E26
:1011F00065204E756D626572206973206E6F742074
:101200004C617374204C696E65204E756D62657219
:101210002B312C204C617374204C696E653A200090
:101220004D3131300053657269616C2073746174A3
:101230007573206D69736D617463680A005344208F
:1012400072656164206572726F720A004D6564692F
:101250006120496E73657274656400506C656173DA
:1012600065205265736574005052494E54455220B2
:1012700048414C5445440025533A20255300706F93
:101280007765726F6666004B494C4C45442E2000D2
:101290005072696E7465722068616C7465642E208A
:1012A0006B696C6C28292063616C6C6564210A0091
:1012B00053544F505045442E20005072696E74654F
:1012C000722073746F707065642064756520746F2C
:1012D000206572726F72732E20466978207468657B
:1012E000206572726F7220616E6420757365204D87
:1012F00039393920746F20726573746172742E20CD
:101300002854656D7065726174757265206973200B
:1013100072657365742E205365742069742061664C
:101320007465722072657374617274696E67290ADC
:10133000006563686F3A004572726F723A004269E5
:101340006C696E656172204C6576656C696E6720AC
:10135000477269643A0A0021212053544F50206398
:10136000616C6C65642062656361757365206F668E
:1013700020424C546F756368206572726F72202D25
:1013800020726573746172742077697468204D39B6
:1013900039390A0021212053544F502063616C6C6D
:1013A00065642062656361757365206F6620424CD9
:1013B000546F756368206572726F72202D2072659C
:1013C00073746172742077697468204D3939390AF1
:1013D00000426564204C6576656C696E6720004646
:1013E00061696C656420746F20656E61626C652054
:1013F000426564204C6576656C696E670A00496ECB
:1014000076616C6964206D6573682E0A0050726F96
:1014100062696E6720506F696E74002553202569DC
:101420002F2569002E0A002F0050726F62696E67C7
:10143000206D65736820706F696E742000202844E9
:10144000525952554E2900473239204175746F2048
:10145000426564204C6576656C696E67003F2028A4
:101460004C2C522C462C4229206F7574206F66201C
:10147000626F756E64732E0A003F2856296572628A
:101480006F7365206C6576656C20696D706C617535
:101490007369626C652028302D34292E0A00426160
:1014A00064205A2076616C75650A004E6F2062696F
:1014B0006C696E65617220677269640A0020496E0A
:1014C00076616C6964206578747275646572200059
:1014D000536C6565702E2E2E005A2050726F626517
:1014E0002050617374204265640A005A2050726F64
:1014F0006265205061737420426564004732384C45
:101500003000205A3A200020593A200042656420D9
:10151000583A20004D65736820706F696E74206FB3
:101520007574206F662072616E67650A00436C698E
:10153000636B20746F20526573756D652E2E2E00BF
:101540004E6F204D6F76652E00456E642066696C87
:1015500065206C6973740A00426567696E2066696C
:101560006C65206C6973740A004E6F206D65646948
:10157000610A00706175736500286E6F2066696C82
:1015800065290043757272656E742066696C653AF0
:1015900020005344207072696E74696E672062790E
:1015A000746520004E6F74205344207072696E740D
:1015B000696E670A002E0A0044656C6574696F6E77
:1015C000206661696C65642C2046696C653A200070
:1015D00046696C652064656C657465643A002569CC
:1015E000730025696D2025697300256968202569C8
:1015F0006D202569730025696420256968202569A7
:101600006D20256973002569792025696420256985
:10161000682025696D20256973005072696E7420F9
:1016200074696D653A20006F6B006F6666008E10FE
:10163000891082107B106D1044454255473A004492
:10164000445820456E64657233204F46462E002074
:101650004500204D39322058004649524D574152DD
:10166000455F4E414D453A4D61726C696E20322E98
:10167000302E375F4457372E3320426F6E647465C7
:101680006368204533534D4E4242202841707220FA
:10169000323520323032312030303A35323A35313D
:1016A0002920534F555243455F434F44455F5552A0
:1016B0004C3A68747470733A2F2F67697468756256
:1016C0002E636F6D2F496E73616E69747941757405
:1016D0006F6D6174696F6E2F4D61726C696E2F74DE
:1016E0007265652F437265616C6974794477696EC0
:1016F0005F322E302050524F544F434F4C5F56456F
:101700005253494F4E3A312E30204D414348494EB5
:10171000455F545950453A44445820456E646572BB
:10172000332045585452554445525F434F554E540B
:101730003A3120555549443A6365646532613266F1
:101740002D343161322D343734382D396231322D18
:101750006335356336326633363766660A002F2FB7
:10176000004D31343520533C696E6465783E206FFE
:101770007574206F662072616E67652028302D3188
:10178000290A00205400205200416363656C657291
:101790006174696F6E3A2050005741524E494E476E
:1017A00021204C6F77205A204A65726B206D617939
:1017B000206C65616420746F20756E77616E74654E
:1017C00064207061757365732E0A004D32303620C7
:1017D00058004F4646004F4E0020580020204D61D3
:1017E000783A2000200020204D696E3A2000536F87
:1017F000667420656E6473746F70733A200046528D
:101800003A0020466C6F773A20003A20002053655A
:1018100072766F2000206F7574206F662072616E83
:1018200067650A00536572766F200050726F6265BB
:10183000204F6666736574205A0050726F6265208F
:101840004F6666736574205A0020643A0020693A36
:101850000020703A00496E76616C69642065787486
:1018600072756465720A0064697300656E004329CD
:101870000A0061626C656420286D696E2074656D74
:10188000702000436F6C64206578747275646573B2
:101890002061726520004D34323120696E636F72B1
:1018A0007265637420706172616D65746572207514
:1018B000736167650A004D65736820706F696E74A7
:1018C000206F7574206F662072616E67650A004F25
:1018D000666673657473204170706C696564004559
:1018E00072723A20546F6F206661722100546F6FDC
:1018F000206661722066726F6D2072656665726522
:101900006E636520706F696E740A00454550524FD2
:101910004D204F4B0A00290A0020746F20003F5AC7
:10192000206F7574206F662072616E6765202800D5
:10193000290A0020746F20003F59206F7574206FB2
:10194000662072616E676520282D00290A002074C8
:101950006F20003F58206F7574206F662072616E93
:10196000676520282D00205A0020590050726F62B0
:1019700065204F66667365742058004D3834004406
:101980006F6E65207072696E74696E672066696C2F
:10199000650A004D3737004D333100496E76616C72
:1019A00069642065787472756465720A0020573A1C
:1019B00000436F6F6C696E672E2E2E004865617450
:1019C000696E672E2E2E0045202553002364656620
:1019D000696E652044454641554C545F004B642078
:1019E000004B6920004B7020005049442041757421
:1019F0006F74756E652066696E6973686564212011
:101A000050757420746865206C617374204B702C61
:101A1000204B6920616E64204B6420636F6E737489
:101A2000616E74732066726F6D2062656C6F7720D3
:101A3000696E746F20436F6E666967757261746951
:101A40006F6E2E680A00504944204175746F74759A
:101A50006E65206661696C6564212074696D656FCF
:101A600075740A00504944204175746F74756E6531
:101A7000206661696C6564212054656D70657261D2
:101A80007475726520746F6F20686967680A00203A
:101A90004B643A2000204B693A2000204B703A20DA
:101AA0000020436C617373696320504944200A002D
:101AB0002054753A2000204B753A2000206D617843
:101AC0003A2000206D696E3A200020643A20002000
:101AD000626961733A2000504944204175746F7403
:101AE000756E652073746172740A00504944204118
:101AF00075746F74756E65206661696C656421200C
:101B000054656D706572617475726520746F6F20B5
:101B1000686967680A00504944204175746F74759C
:101B20006E65206661696C6564212042616420688D
:101B300065617465722069640A00504944204175EA
:101B4000746F74756E65004572723A2075746638EC
:101B500020666F6E74206E6F7420696E697469619F
:101B60006C697A65642E004572723A207574663825
:101B700020666F6E74206E6F7420696E697469617F
:101B80006C697A65642E004572723A207574663805
:101B900020666F6E74206E6F7420696E697469615F
:101BA0006C697A65642E00000C0F00FE07022503A5
:101BB000BB017FFE08FE08FE05080806000040F095
:101BC000C88888987810050808060000C0F888883A
:101BD000888888F80505050600012030F8302005C2
:101BE00008080600002070F820202020E0050909E0
:101BF0000600FF2070A8A8B8888870200705050790
:101C00000001D86C366CD80509090600FFF8A888D1
:101C100088888888A8F8050A0A0600FE20505050D7
:101C20005088A8A8887003030306000340A040FF63
:101C3000FFFFFFFFFFFFFFFFFFFFFFFFFFFFFFFFB4
:101C4000FFFFFFFFFF0000000605FF010707060278
:101C50000080808080800080030303060105A0A02F
:101C6000A005060606000050F85050F85005090976
:101C70000600FF2070A8A07028A87020050707069E
:101C80000000C8C8102040989805070706000040CB
:101C9000A0A040A89068010303060205808080038D
:101CA00009090601FF204040808080404020030950
:101CB000090601FF804040202020404080050707A2
:101CC00006000020A8702070A82005050506000168
:101CD0002020F820200203030601FFC040800501F8
:101CE00001060003F8020202060100C0C005070752
:101CF000060000081010204040800507070600007D
:101D0000708898A8C8887003070706010040C04083
:101D1000404040E00507070600007088081020409A
:101D2000F8050707060000F8081030088870050756
:101D30000706000010305090F81010050707060045
:101D400000F880F00808887005070706000030409A
:101D500080F0888870050707060000F8081010203A
:101D600020200507070600007088887088887005A5
:101D700007070600007088887808106002050506CD
:101D80000100C0C000C0C00206060601FFC0C000BE
:101D9000C040800305050601012040804020050366
:101DA00003060002F800F803050506010180402043
:101DB00040800507070600007088102020002005DD
:101DC00007070600007088B8A8B8807005070706E6
:101DD0000000708888F8888888050707060000F0EA
:101DE0004848704848F00507070600007088808062
:101DF000808870050707060000F04848484848F00A
:101E0000050707060000F88080F08080F8050707C6
:101E1000060000F88080F08080800507070600003B
:101E20007088808098887005070706000088888879
:101E3000F8888888030707060100E04040404040DA
:101E4000E005070706000038101010109060050725
:101E5000070600008890A0C0A0908805070706002C
:101E600000808080808080F805070706000088D801
:101E7000A8888888880507070600008888C8A89869
:101E8000888805070706000070888888888870059C
:101E90000707060000F08888F080808005070706A5
:101EA000000070888888A89068050707060000F081
:101EB0008888F0A090880507070600007088807069
:101EC000088870050707060000F820202020202041
:101ED0000507070600008888888888887005070736
:101EE00006000088888888505020050707060000F3
:101EF00088888888A8A850050707060000888850A9
:101F00002050888805070706000088885020202078
:101F100020050707060000F80810204080F8030994
:101F2000090601FFE080808080808080E00507074F
:101F3000060000804040201010080309090601FF38
:101F4000E020202020202020E005030306000520BB
:101F500050880501010600FEF80303030601058011
:101F600040200505050600007008788878050707F9
:101F70000600008080F0888888F0050505060000CE
:101F80007080808870050707060000080878888838
:101F900088780505050600007088F0807005070741
:101FA000060000304840E04040400507070600FEBC
:101FB000708888887808700507070600008080F020
:101FC000888888880307070601004000C040404019
:101FD000E00409090601FE10003010101010906096
:101FE00005070706000080808890E09088030707B7
:101FF000060100C04040404040E0050505060000E5
:10200000D0A8A8A8A8050505060000B0C88888883B
:10201000050505060000708888887005070706001A
:10202000FEF0888888F080800507070600FE788823
:102030008888780808050505060000B0C8808080FB
:1020400005050506000078807008F0050707060002
:10205000002020F8202020180505050600008888AB
:1020600088986805050506000088888850200505C1
:10207000050600008888A8A8500505050600008808
:10208000502050880507070600FE888888502040A9
:1020900080050505060000F8102040F80309090630
:1020A00001FF2040404080404040200109090602D5
:1020B000FF8080808080808080800309090601FF86
:1020C0008040404020404040800503030600024815
:1020D000A890FF43616E6E6F74206F70656E207301
:1020E0007562646972200053442063617264206FDA
:1020F0006B0A006F70656E526F6F74206661696C59
:1021000065640A00766F6C756D652E696E69742062
:102110006661696C65640A004E6F205344206361F8
:1021200072640A000A4D3234004D323320257300A8
:102130002E0A006F70656E206661696C65642C20E4
:1021400046696C653A200046696C652073656C656C
:10215000637465640A002053697A653A2000466911
:102160006C65206F70656E65643A2000454E4420B2
:10217000535542524F5554494E450A002220706F24
:1021800073002220706172656E743A2200535542CA
:10219000524F5554494E452043414C4C2074617276
:1021A0006765743A220053756263616C6C204F76E8
:1021B0006572666C6F770045786365656465642059
:1021C0006D617820535542524F5554494E45206415
:1021D000657074683A0057726974696E6720746F2D
:1021E0002066696C653A2000667265736800646FEA
:1021F000696E67002066696C653A20004E6F772033
:10220000002F6175746F25632E6700300B0000F09E
:102210000C3200900E6400001096006011C800B0EF
:1022200012FA00E0132C0100155E01001690010067
:1022300017C201F017F4012020506C616E6E6572B8
:1022400042756666657242797465733A200020466D
:10225000726565204D656D6F72793A2000436F6D30
:1022600070696C65643A20417072203235203230DA
:1022700032310A00204C61737420557064617465BA
:10228000643A20323032312D30342D3138207C20E8
:10229000417574686F723A20426F6E64746563684A
:1022A000202F20496E73616E6974794175746F6D6A
:1022B0006174696F6E0A00322E302E375F445737D3
:1022C0002E330A004D61726C696E0020536F667484
:1022D000776172652052657365740A0020576174D6
:1022E0006368646F672052657365740A00204272E8
:1022F0006F776E206F75742052657365740A0020C5
:1023000045787465726E616C2052657365740A005D
:10231000506F77657255700A0073746172740A00A9
:102320004732385859004D31303031006F6B0065FD
:1023300072726F722077726974696E6720746F2091
:1023400066696C650A00446F6E6520736176696E1C
:10235000672066696C652E0A004D323900456E644F
:1023600073746F7073002553202563202563202527
:102370006320256300205A3A0020593A0020583A39
:1023800000656E6473746F7073206869743A20001E
:10239000000000010200090A000000000403080711
:1023A000000000000000000000000000000000002D
:1023B000004D6F76652025736D6D004D6F7665203D
:1023C000302E316D6D004D6F766520316D6D004D95
:1023D0006F76652031306D6D004D6F7665204178E8
:1023E0006973004578747275646572004D6F766527
:1023F000205A004D6F76652059004D6F7665205844
:10240000005072696E742066726F6D204D6564694C
:102410006100FFFFFF50726F62696E67204661695D
:102420006C65640A0050726F62696E67204661696C
:102430006C656400205A3A200020593A2000426519
:102440006420583A2000220A00556E6B6E6F776E3A
:1024500020636F6D6D616E643A2022004444582001
:10246000456E646572332052656164792E00507246
:10247000696E74696E672E2E2E005072696E74201C
:102480005061757365640020453A00205A3A002077
:10249000593A00583A004572726F72207772697427
:1024A000696E6720746F20454550524F4D210A00D8
:1024B00020746F6F206C6F6E67206578747275730F
:1024C000696F6E2070726576656E7465640A0020AF
:1024D000636F6C6420657874727573696F6E2070B9
:1024E000726576656E7465640A00526573656E6424
:1024F0003A200000002200250028002B00000021C7
:1025000000240027002A0002020202020202020442
:102510000404040404040403030303030303030186
:1025200001010101010101010204081020408001A4
:10253000020408102040800102040810204080801E
:10254000402010080402012F2F616374696F6E3AF6
:10255000000026CD08D411241FBECFEFD0E4DEBF8B
:10256000CDBF12E0A0E0B1E0E0E7F4EC01E00BBF8A
:1025700002C007900D92AE33B107D9F727E1AEE361
:10258000B2E001C01D92A13EB207E1F712E1CAEA32
:10259000D2E104C02197FE010E9497DFC93AD1071A
:1025A000C9F70E940BCE0C942BE20C9400000F9301
:1025B0001F93CF93DF93CDB7DEB760970FB6F89434
:1025C000DEBF0FBECDBF8C01DC01ED91FC9102801E
:1025D000F381E02DBE016F5F7F4F0995882309F4D9
:1025E00064C08981807CC9F56F81637070E0762F4B
:1025F0006627770F770F8885B4E08B9FC001112481
:10260000682B792B89858295869586958370682BB2
:102610006F5F7F4F90E080E02A852370220F3B851B
:1026200037FB332730F9232B3E813F70230F3327AD
:10263000331F2750310904C0660F771F881F991F69
:102640002A95D2F760960FB6F894DEBF0FBECDBFC5
:10265000DF91CF911F910F910895803419F568850E
:102660006695669570E090E080E0CB01772766275D
:102670002A85622B098510E0102F0027012E000CFF
:10268000220B330B602B712B822B932B6F5F7F4FB1
:102690008F4F9F4F4AE0660F771F881F991F4A95FB
:1026A000D1F7D0CF8BE0F801848360E070E0CB01FC
:1026B000C9CF0895FC0182810895CF92DF92EF92F5
:1026C000FF9280916E02882309F457C0C0906A027D
:1026D000D0906B02E0906C02F0906D0220E030E050
:1026E000A901C701B6010E94AAD8882309F445C0F0
:1026F00020E030E040E05FE3C701B6010E9410D95E
:102700009B01AC010E9410D92BED3FE049E450E45D
:102710000E9410D99B01AC0160E070E080E89FE36B
:102720000E9424E06B017C01C0926502D092660297
:10273000E0926702F092680260911C0170911D01A5
:10274000072E000C880B990B0E94B1D82AE037EDB8
:1027500043E25CE30E9410D9A70196010E9410D9C0
:1027600060936201709363018093640190936501AB
:10277000FF90EF90DF90CF900895C12CD12C80E88E
:10278000E82E8FE3F82ED0CF8F929F92AF92BF9218
:10279000CF92DF92EF92FF92FC01C080D180E28065
:1027A000F38020E030E040E251E4C701B6010E942E
:1027B00010D920E030E040E251E40E9410D94B01F2
:1027C0005C0120E030E0A901C701B6010E94AAD84F
:1027D00020E030E040EA50E487FF04C020E030E031
:1027E00040EA50ECC501B4010E94A1DF20E030E0D6
:1027F00040E251E40E9424E00E9496E09B018BE2BB
:1028000037FF05C022273327261B370B8DE2809325
:102810001906C90168EE73E00E9483DFCB01EAE08C
:10282000F0E0BF010E9483DF805D80931A06C9013A
:1028300064E670E00E9483DFCB01BF010E9483DF6A
:10284000805D80931B06C901BF010E9483DF282F92
:10285000CB01BF010E9483DF805D80931C068EE266
:1028600080931D06205D20931E0689E196E0FF906F
:10287000EF90DF90CF90BF90AF909F908F90089592
:102880009C0197FF26C0EE27FF27E81BF90B2D3987
:102890008FEF38070CF05DC08DE280931B06CF01EF
:1028A00064E670E00E9483DFCB012AE030E0B901EA
:1028B0000E9483DF805D80931C06CF01B9010E94D6
:1028C00083DFCB01B9010E9483DF805D80931D0609
:1028D0002AC0283E83E03807B4F1C90168EE73E0EE
:1028E0000E9483DFCB01EAE0F0E0BF010E9483DFBA
:1028F000805D80931B06C90164E670E00E9483DF5F
:10290000CB01BF010E9483DF805D80931C06C9015B
:10291000BF010E9483DFCB01BF010E9483DF805D86
:1029200080931D06F901CF016AE070E00E9483DF09
:10293000805D80931E068BE196E008958DE237FD61
:10294000C5CF80E2C3CFF90180E2243631050CF017
:10295000A4CF80E280931B0680931C06EA30F10529
:102960006CF38DE237FF80E280931C06CF016AE0B2
:1029700070E00E9483DF605D60931D06D4CF9C01F0
:1029800097FD2DC080E2243631055CF0C90164E674
:1029900070E00E9483DFCB016AE070E00E9483DF79
:1029A000805D80931C0680E22A3031055CF0EAE00D
:1029B000F0E0C901BF010E9483DFCB01BF010E948B
:1029C00083DF805D80931D06C9016AE070E00E948C
:1029D00083DF805D80931E068CE196E0089531953B
:1029E000219531098DE2DDCF282F81E3243609F0CE
:1029F00080E280931B0690E22A3040F03AE0822F7A
:102A0000632F0E9455DF0E9455DF905D90931C0656
:102A1000822F6AE00E9455DF905D90931D0685E24B
:102A200080931E068BE196E0089560911C017091E1
:102A30001D01072E000C880B990B0E94B1D82AE0CB
:102A400037ED43E25CE30E9410D92091650230919A
:102A5000660240916702509168020E9410D960930B
:102A600062017093630180936401909365010895FE
:102A7000CF93DF93EC01CB01BA010E94B1D829ECCE
:102A800038EC48EC5EE30E9424E020E030E040E0D7
:102A90005FE30E94A1DF0E949DE06883DF91CF91F8
:102AA00008950E94B1D829EC38EC48EC5EE30E940E
:102AB00024E020E030E040E05FE30E94A1DF0E94DC
:102AC0009DE024E6629FC001112481589F4F6FEF63
:102AD00070E00E9483DF862F0C94F414CF93DF9371
:102AE000EC01CB01BA010E94B1D820E030E0A9018D
:102AF0000E94A1DF0E9496E079836883DF91CF91E5
:102B000008950E94B1D820E030E0A9010E94A1DF21
:102B10000E9496E0CB010C94BF148091260681118F
:102B200004C08091F3058093880608958091F4167F
:102B30008823C1F081508093F416E6E3F5E1882301
:102B400051F08150990B2BE1289FF001299FF00D46
:102B50001124EA51FA4E8BE1ABE1B5E101900D92FF
:102B60008A95E1F72091F416211105C08091FF1696
:102B700080628093FF1681E090E0A0E0B0E0211138
:102B800003C080E090E0DC0180931406909315066A
:102B9000A0931606B093170610920F0681E080935B
:102BA000110683E08093590108958F929F92AF920E
:102BB000BF92CF92DF92EF92FF92CF936B017C0195
:102BC00020E030E0A9010E94AAD887FDAAC06DEBE1
:102BD00077E386E095E3A70196010E94A1DF6B01F0
:102BE0007C0120E030E0A9010E94AAD887FF9EC0A6
:102BF000C701B601905820E030E040E251E40E9465
:102C000010D920E030E040E251E40E9410D920E0E9
:102C100030E040EA50E40E94A1DF20E030E040E2F2
:102C200051E40E9424E00E9496E06B017C0180E266
:102C30008093180660E280E1C81687E2D806E104B6
:102C4000F1048CF0C701B60120E137E240E050E02A
:102C50000E9414DFCA01B9012AE030E040E050E0F0
:102C60000E9414DF605D6093190660E288EEC8166A
:102C700083E0D806E104F1048CF0C701B60128EE28
:102C800033E040E050E00E9414DFCA01B9012AE0BD
:102C900030E040E050E00E9414DF605D60931A066F
:102CA00060E284E6C816D104E104F1048CF0C701A7
:102CB000B60124E630E040E050E00E9414DFCA0193
:102CC000B9012AE030E040E050E00E9414DF605D8E
:102CD00060931B068AE0882E912CA12CB12CC70191
:102CE000B601A50194010E9414DFC62FCA01B901E3
:102CF000A50194010E9414DF605D60931C068EE2C2
:102D000080931D06C05DC0931E0688E196E0CF91BA
:102D1000FF90EF90DF90CF90BF90AF909F908F90FB
:102D200008956DEB77E386E095EB55CF20E030E03A
:102D300040E251E4C701B60162CFCF93DF93EC01CB
:102D4000CB01BA010E94B1D820E030E040E251E46A
:102D50000E9424E020E030E0A9010E94A1DF688306
:102D600079838A839B83DF91CF9108950E94B1D8A4
:102D700020E030E040E251E40E9424E020E030E036
:102D8000A9010E94A1DF0C94D515CF93DF93EC012C
:102D9000CB01BA010E94B1D820E030E04AE754E408
:102DA0000E9424E020E030E0A9010E94A1DF6883B6
:102DB00079838A839B83DF91CF91089580919315C6
:102DC00090919415891B8F7051F480914106813048
:102DD00031F08091FF1682FB882780F9089581E009
:102DE0000895FC0184910895FC01808108958F92DB
:102DF0009F92AF92BF92EF92FF920F931F93CF9348
:102E0000DF93EC018B01E42EF22E8091A5159091B9
:102E1000A6158C179D0709F43EC02091440227FD9A
:102E20001092440227E5C739D20709F03FC0815804
:102E30009D4571F40E9410BA6E517B4F8F4F9F4F8A
:102E400060936A0470936B0480936C0490936D0498
:102E5000D093A615C093A51530E020E0009314068A
:102E6000109315062093160630931706E0920F066E
:102E7000F0921006C158DD4521F410920E06109212
:102E8000690482E08093590181E0809311061092D9
:102E9000700410920D06DF91CF911F910F91FF905A
:102EA000EF90BF90AF909F908F9008952DE5C1381F
:102EB000D20771F68759974519F0C1E8DDE5C8CF0B
:102EC0000E9410BA80906A0490906B04A0906C04E9
:102ED000B0906D04681979098A099B0997FFEDCFB5
:102EE000809129068770873041F7C8E6D1E5B0CFD9
:102EF00020E040E070E060E08FEA9CE10C94F7167F
:102F000080919906811114C08091660190916701AA
:102F100001972091ED143091EE142817390744F4ED
:102F200020E040E070E060E084EB9CE10C94F71658
:102F30000C94781721E020930E06FC01808191818A
:102F4000A281B3818093120190931301A093140185
:102F5000B093150120E040E070E060E08091FB0557
:102F60009091FC050C94F716CF93DF9300D000D01E
:102F7000CDB7DEB78DEC9CECACECBCE389839A83D7
:102F8000AB83BC83CE0101960E949A170F900F90DD
:102F90000F900F90DF91CF910895CF93DF9300D0E2
:102FA00000D0CDB7DEB78DEC9CECACECBDE38983F3
:102FB0009A83AB83BC83CE0101960E949A170F902F
:102FC0000F900F900F90DF91CF910895CF93DF93E3
:102FD00000D000D0CDB7DEB780E090E0A0E8BFE33E
:102FE00089839A83AB83BC83CE0101960E949A1792
:102FF0000F900F900F900F90DF91CF910895CF9386
:10300000DF9300D000D0CDB7DEB780E090E0A0E243
:10301000B1E489839A83AB83BC83CE0101960E947D
:103020009A170F900F900F900F90DF91CF91089506
:103030000F931F930E9410BA00912D0410912E043B
:1030400020912F0430913004601B710B820B930B85
:1030500097FD0CC089B183FB882780F991E089270F
:103060004A9B8260309B846080932C0480912C0466
:10307000817090912C0491FD826090912B0498179F
:1030800049F0813009F148F0823079F0833091F0D5
:1030900080932B041F910F910895913079F0923015
:1030A000B9F790912A0491500CC0992339F09330CC
:1030B000C1F3EECF9130A9F3923051F790912A04E9
:1030C0009F5F90932A04E4CF992359F3933001F73B
:1030D000F5CFCF92DF92EF92FF92CF93C82F0E944D
:1030E00010BA6B017C0124EA30E74DE75FE36091A1
:1030F00012017091130180911401909115010E94A9
:10310000AAD887FD18C08AEF90E0A0E0B0E08C0D4F
:103110009D1DAE1DBF1D80931E0490931F04A093A0
:103120002004B0932104C0931001CF91FF90EF9041
:10313000DF90CF90089580E090E0DC01E8CFCF935E
:10314000DF93EC018D810E943F7A60E08B81DF91FB
:10315000CF910C9419B9DF92EF92FF920F931F93C6
:10316000CF93DF938C01C62FD22FF32EE42ED52ED2
:103170000E949F180E948FBA8C2F80640E94337A1D
:103180008D2D0E94337A8E2D0E94337A8F2D0E94CE
:10319000337A8D2F0E94337A87E8C11101C085E907
:1031A0000E94337ACC3011F40E94387AC0E00E9439
:1031B000387AF801868387FF04C0CF3F11F0CF5FD4
:1031C000F6CFDF91CF911F910F91FF90EF90DF909D
:1031D000089561E0FC0183810E9419B98FEF0C947E
:1031E000337A0F931F93CF938C010E949F180E94F4
:1031F0008FBAC82F882371F08DEF0E94337A0E9416
:103200008FBAC82FC8010E94E9188C2FCF911F9147
:103210000F91089582E1F8018483F4CF8F929F92F9
:10322000AF92BF92CF92DF92EF92FF920F931F93D4
:10323000CF93DF93EC016A017B01590120E030E07C
:10324000A90167E30E94AB18A501980167E1CE01CF
:103250000E94AB18811127C08F81833039F089E03B
:10326000CC0CDD1CEE1CFF1C8A95D1F7A701960142
:1032700069E1CE010E94AB1811E0882319F010E03B
:1032800087E08C83CE010E94E918812FDF91CF91D6
:103290001F910F91FF90EF90DF90CF90BF90AF9074
:1032A0009F908F90089589E08C8310E0EBCFCF93AF
:1032B000DF93EC016EBDFA01CA019E5F0DB407FEFB
:1032C000FDCF20812EBD0DB407FEFDCF21812EBD87
:1032D0003296E817F90791F70DB407FEFDCF8FEF8F
:1032E0000E94337A8FEF0E94337A0E94387A8E835D
:1032F0008F71853049F083E18C83CE010E94E918FB
:1033000080E0DF91CF91089581E0FBCF0F931F9371
:10331000CF93DF93EC018B010E949F180E948FBA1C
:1033200081110CC085E18C8310E0CE010E94E91868
:10333000812FDF91CF911F910F910895A8016CEF1C
:10334000CE010E945719182F882361F3EECF0F93F7
:103350001F93CF93DF93EC0189018F81833039F084
:1033600089E0440F551F661F771F8A95D1F79A0190
:10337000AB0168E1CE010E94AB1881112AC0A801FF
:103380006EEFCE010E945719182F8823B1F00E94CA
:103390008FBA182F8823D1F020E030E0A9016DE02A
:1033A000CE010E94AB18882321F086E18C8310E0C7
:1033B00004C00E94387A8111F8CFCE010E94E9182A
:1033C000812FDF91CF911F910F91089587E18C8319
:1033D000F4CF86E0EBCF1F93CF93DF93EC010E94F5
:1033E0009F1820E030E0A9016CE0CE010E94AB18EC
:1033F00011E0882319F010E083E08C83CE010E9455
:10340000E918812FDF91CF911F9108951F93CF93DA
:10341000DF93EC018F81833039F089E0440F551F31
:10342000661F771F8A95D1F79A01AB0162E1CE0141
:103430000E94AB1811E0882319F010E085E08C831E
:10344000CE010E94E918812FDF91CF911F9108953D
:103450008F929F92AF92BF92EF92FF920F931F9322
:10346000CF93DF938C01EB017A010E9410BA4B01DC
:103470005C012CE2820E21E0921EA11CB11C0E9474
:10348000387AF80186838F3F69F40E9410BA681970
:1034900079098A099B0997FDF2CF81E1F8018483BC
:1034A000C0E021C08E3F71F5F1E0EF1AF1088FEF17
:1034B0008EBDFE012FEF0DB407FEFDCF8EB58193BB
:1034C0002EBDCF018C1B9D0B8E159F05A0F30DB457
:1034D00007FEFDCF8EB5CE0DDF1D88830E94387AA2
:1034E0000E94387AC1E0C8010E94E9188C2FDF9150
:1034F000CF911F910F91FF90EF90BF90AF909F9051
:103500008F9008958FE0CACF0F931F93CF93DF93CF
:10351000EC018B010E949F1840E052E0B801CE01FF
:10352000DF91CF911F910F910C94281A0F931F9345
:10353000CF93DF93EC0189018F81833039F089E0EB
:10354000440F551F661F771F8A95D1F79A01AB016B
:1035500061E1CE010E94AB1881110AC040E052E047
:10356000B801CE01DF91CF911F910F910C94281AD1
:1035700084E08C83CE010E94E91880E0DF91CF9136
:103580001F910F9108958F929F92AF92BF92CF9209
:10359000DF92EF92FF920F931F93CF93DF93EC0193
:1035A000162F1F821C824B830E9410BA6B017C0174
:1035B00020EDC20E27E0D21EE11CF11CA89561E0AF
:1035C0008B810E9419B98B810E94CAB0249A2C9ACF
:1035D000279A2698259A81E00E943F7A85E08D837C
:1035E0000E943F7A0AE08FEF0E94337A0150D9F7A8
:1035F000A89520E030E0A90160E0CE010E94AB1860
:103600008E83813081F00E9410BA6C197D098E0979
:103610009F0997FDEECF81E08C83CE010E94E918CF
:103620001A8280E06AC0A8952AEA31E040E050E0C2
:1036300068E0CE010E94AB18853041F581E08F83B0
:10364000A8958F81812C912C5401823029F4812CF2
:10365000912CA12C80E4B82E20E030E0A90167E392
:10366000CE010E94AB18A501940169E2CE010E942F
:10367000AB188E838823F1F00E9410BA6C197D0973
:103680008E099F0997FDE8CF8AE0C6CF04E00E942B
:10369000387A8E830150D9F78A3A11F482E0CFCF7D
:1036A0000E9410BA6C197D098E099F0997FDBCCF45
:1036B00082E0B2CF8F818230C1F420E030E0A901F6
:1036C0006AE3CE010E94AB18882311F088E0A4CFF2
:1036D0000E94387A807C803C11F483E08F830E94C2
:1036E000387A0E94387A0E94387ACE010E94E9180E
:1036F00081E08A83173070F41D83DF91CF911F9191
:103700000F91FF90EF90DF90CF90BF90AF909F9080
:103710008F90089588E18C8384CF0F931F93CF936C
:10372000DF93EC018B0120E030E0A90169E00E9409
:10373000AB1881110AC040E150E0B801CE01DF9121
:10374000CF911F910F910C94281A80E18C83CE01A8
:103750000E94E91880E0DF91CF911F910F910895A9
:10376000CF93C82FCB010E94AD758DE496E00E94E7
:10377000AD758EE396E0CC2311F083E496E00E94D1
:10378000AD758AE0CF910C9495750C941CBA0C948D
:103790001CBA4091EB0221E042276CE070E00C94EF
:1037A0000CB24091EB0221E0422764E070E00C94FF
:1037B0000CB24091EB0221E0422761E070E00C94F2
:1037C0000CB24091EB0221E0422762E070E00C94E1
:1037D0000CB24091EB0221E0422761E070E00C94D2
:1037E0000CB24091EB0221E0422768E070E00C94BB
:1037F0000CB24091EB0221E042276CE070E00C94A7
:103800000CB241E061E070E00C940CB24091EB022C
:1038100021E042270C940CB262E070E00C94A8B94D
:103820006CE070E00C94A8B964E070E00C94A8B966
:1038300061E070E00C94A8B961E070E00C94A8B964
:103840006CE070E00C94A8B9CF93DF93809193154E
:1038500090919415891B80958F7019F40E94747E45
:10386000F5CF809193158F5F8F70A09193159BE496
:10387000A99FD0011124FD01E456F94FEF011992DF
:103880009A95E9F798E09083AF54B94F90E1E5E954
:10389000F5E101900D929A95E1F7209193159091A1
:1038A0009415291303C094E6909390158093931573
:1038B000DF91CF910C94D672CF92DF92EF92FF926C
:1038C0000F931F93C12CD12C76018C012CE536E08F
:1038D00048E556E064E576E080E596E00E9464B154
:1038E0001F910F91FF90EF90DF90CF900895CF93AD
:1038F000DF9300D000D0CDB7DEB784EF91E0A0E039
:10390000B0E089839A83AB83BC83BE016F5F7F4F36
:1039100088E70E944B740F900F900F900F90DF91EB
:10392000CF910895CF93DF93CDB7DEB720E24F81DB
:1039300058856E818D810E94DDB5DF91CF9108950C
:1039400063E879E482E00C940DCB68E879E481E0E7
:103950000C940DCB6DE879E480E00C940DCB62E91A
:1039600079E483E00C940DCB0F931F9305E815E0E9
:1039700027E835E048E757E167E975E08CE995E02D
:103980000E9492BD1F910F9108950F931F9308EB12
:1039900014E02DE235E042E35AE56AEB74E08FEB88
:1039A00094E00E9492BD1F910F910895CF92DF92F3
:1039B000EF92FF92CF93DF9300D000D0CDB7DEB768
:1039C0000E94B1D820E030E04AE754E40E9424E0AD
:1039D00020E030E0A9010E94A1DF6B017C0120E022
:1039E00030E0A9010E94AAD82DEB37E346E055E369
:1039F00087FF04C02DEB37E346E055EBC701B60166
:103A00000E94A1DF69837A838B839C83CE01019618
:103A10000E9496B60F900F900F900F90DF91CF916C
:103A2000FF90EF90DF90CF90089580915901882307
:103A300041F060916E0470916F0441E081E00C945C
:103A400080B50895CF93DF93EC010E9430C41B82B0
:103A5000DF91CF910895CF93DF93EC01462F417012
:103A60006C857D858E859F850E94FDC0882351F0E1
:103A7000888920E2829FC001112488529D4EDF91E7
:103A8000CF91089590E080E0FACFCF93DF93EB01E0
:103A9000FC012381211104C080E0DF91CF910895C2
:103AA0002250223028F48FE28883198281E0F5CFFA
:103AB00060E00E942B1D009779F3DC0160E080E05C
:103AC0009EE22D91203299F0883031F49E01260F2C
:103AD000311DF90190836F5F9E01260F311DAD01ED
:103AE00041505109FA014081F90140836F5F8F5FB6
:103AF0008B3039F7FE01E60FF11D1082D7CF3F92D0
:103B00004F925F926F927F928F929F92AF92BF92ED
:103B1000CF92DF92EF92FF920F931F93CF93DF9399
:103B2000CDB7DEB72C970FB6F894DEBF0FBECDBF72
:103B30005C01DC0159968D909C90F4018185928501
:103B4000A385B4859C01AD012F5F3F4F4F4F5F4F61
:103B500029873A874B875C87D50114964D905D90F5
:103B60006D907C901797411451046104710409F41D
:103B700059C0BFEF4B1A5B0A6B0A7B0A312C7301E9
:103B800062011D821E821F821886F4018185928542
:103B9000A385B4852D813E814F815885281739072B
:103BA0004A075B0708F056C089859A85AB85BC85B6
:103BB0008C159D05AE05BF0550F482E0C82ED12CB2
:103BC000E12CF12C92E0492E512C612C712C9E019C
:103BD0002F5F3F4FB701A601C4010E9437C388235E
:103BE000C9F189819A81AB81BC81892B8A2B8B2B6E
:103BF00001F1260137019FEF491A590A690A790A2A
:103C00002D813E814F8158852F5F3F4F4F4F5F4F32
:103C10002D833E834F8358873FEFC31AD30AE30AAD
:103C2000F30AB3CF40805180628073803324339491
:103C3000A6CFC414D504E604F70411F70FEF1FEF65
:103C40002FEF3FE0B701A601C4010E94A5C2782E64
:103C500081111AC0712C872D2C960FB6F894DEBFF7
:103C60000FBECDBFDF91CF911F910F91FF90EF90CD
:103C7000DF90CF90BF90AF909F908F907F906F908C
:103C80005F904F903F900895F50144815581668182
:103C90007781411551056105710539F0970186015C
:103CA000C4010E94A5C28823A9F2D5011496CD9221
:103CB000DD92ED92FC921797332051F0D701C601A7
:103CC0000196A11DB11DF40180839183A283B3836A
:103CD000F50185899689A789B08D892B8A2B8B2B35
:103CE00009F0B9CFC58AD68AE78AF08E81818068CB
:103CF0008183B1CF40E050E0BA010C947FC44F9271
:103D00005F926F927F92AF92BF92CF92DF92EF92CB
:103D1000FF920F931F93CF93DF931F92CDB7DEB720
:103D20008C017B015A01C22EDB0159968D919C9129
:103D3000F801928F818FCB010E947A1E712CF701BE
:103D400080859185A285B38541895289638974896B
:103D500084179507A607B70708F052C055E0B69537
:103D6000A795979587955A95D1F7F82FFF70DF2E75
:103D7000D70113968C91823010F480E0DBC041E0D3
:103D800050E0BE016F5F7F4FC7010E94A7C501973A
:103D9000A1F7F70180859185A285B3854F96A11D76
:103DA000B11D80879187A287B387F0E2DF9EB001C3
:103DB000112468527D4E61157105F9F2DB018C9179
:103DC000882341F0853E09F04CC0772029F0772404
:103DD0007394B5CF71100EC08091D8149091D914FE
:103DE000A091DA14B091DB14F80184879587A68737
:103DF000B787D08ADB018C918111E9CF7724739446
:103E00008C2D8274823409F0B8CF772009F4A2C0D7
:103E1000F801D08861E0C8010E942B1D009709F4C9
:103E2000ACCF20E2DC011D922A95E9F72BE0F501E9
:103E3000DC0101900D922A95E1F721E238E2FC01C4
:103E4000318B208B40E058E057874687338B228B9D
:103E5000318F208F578B468B0E94B4C0811109C0CF
:103E60008CCF4BE050E0C5010E94B6E1892B09F0F0
:103E700066CFF0E2DF9ED00111249D0128523D4E15
:103E8000F9018385817121F08C2D827109F001C1C6
:103E9000F801818D928D4091D8145091D914609180
:103EA000DA147091DB144487558766877787D08A48
:103EB000FD01E852FD4E44885588712C612C320179
:103EC00055244424D80155964D925D926D927C9272
:103ED0005897428D538D70E060E04429552966293A
:103EE000772955964D935D936D937C935897D9019F
:103EF0001B962C91287109F0BEC0848D958DA68DDE
:103F0000B78DF801818B928BA38BB48B81E0838377
:103F10008C2D8F70F801818314821582168217828E
:103F2000108611861286138681E0C4FE03C0C80184
:103F30000E9413C50F90DF91CF911F910F91FF90B9
:103F4000EF90DF90CF90BF90AF907F906F905F9099
:103F50004F900895D70113968C911397823009F4EE
:103F60000CCF51968D919D910D90BC91A02D803ECE
:103F70009F4FAF41B10508F000CFC7010E947F1DE0
:103F8000882309F4FACE0E94B4C0882309F4F5CE40
:103F9000D7015996ED91FC915A9714964D905D90EA
:103FA0006D907C901797B2E04B1A51086108710828
:103FB000858504C0440C551C661C771C8A95D2F775
:103FC00086859785A089B189480E591E6A1E7B1E79
:103FD00081E08093DC144092D8145092D9146092FE
:103FE000DA147092DB14E8EDF2E180E092E0DF0198
:103FF0009C011D9221503040E1F7DD24D394D7017C
:104000005996ED91FC918481D816C0F48091DD140D
:104010009091DE14DC01ED91FC910288F389E02D92
:1040200028ED32E1B301A2014D0D511D611D711D3D
:104030000995882309F4A1CED394E1CF258580E0AA
:1040400092E0A0E0B0E004C0880F991FAA1FBB1F38
:104050002A95D2F7F7014189528963897489840FBF
:10406000951FA61FB71F818B928BA38BB48B88EDF6
:1040700092E1D12CD6CE203161F498012F5E3F4FD2
:104080000E94BAC3882329F084E0D80113968C9348
:104090003FCFD80113961C9270CEFC0123812111D1
:1040A0000C94221D08952F923F924F925F926F922F
:1040B0007F928F929F92AF92BF92CF92DF92EF92B8
:1040C000FF920F931F93CF93DF93CDB7DEB7C35407
:1040D000D1090FB6F894DEBF0FBECDBF4C015B0116
:1040E0006A01222E19821C821C8E1F8E6115710599
:1040F00021F510E0CE014C960E944D20CE01019694
:104100000E944D20812FCD5BDF4F0FB6F894DEBFAC
:104110000FBECDBFDF91CF911F910F91FF90EF9018
:10412000DF90CF90BF90AF909F908F907F906F90D7
:104130005F904F903F902F900895FC0183818111F3
:10414000D8CFFA0180818F32A1F18B01CE01019687
:104150007C013C0180E2382E2E019CE1490E511C6D
:104160002396EFAE23972496FFAE249722963FAE78
:10417000229721963FAE21973FAE3EAE3DAE3CAE7C
:104180003BAE3AAE39AE38AE3FAA960190E047E07A
:10419000D9018D91882309F447C08F3209F444C0B6
:1041A0008E3209F54A3009F4A4CF98E04AE09D0127
:1041B000EFCFFB01838182508B01823060F0618DF3
:1041C000728DCE014C960E94EFC98E01045E1F4F86
:1041D000882309F48ECFC6016C010196F601208177
:1041E0002F32D1F3B3CFEDE5F0E12491222321F07A
:1041F00031968213FACF7DCF491708F47ACF8132F6
:1042000008F477CF8F3709F474CF3FE9380F3A318C
:1042100008F420EEE7E3F0E0EC0FFD1FE90FF11DDD
:10422000820F80839F5FC3CF8FA9803209F461CF53
:104230006901F90180812F5F3F4F8F32C9F38823D5
:1042400001F121E0AE01495C5F4FB801C7010E9456
:104250007F1E882309F44DCF0A151B0519F0C801EC
:104260000E94221D942D852D6E147F0431F023961B
:104270009FAD239724968FAD24978701E92EF82EC2
:1042800075CF222DAE01495C5F4FB801C4010E9479
:104290007F1E182F2FCF8F929F92AF92BF92CF92F7
:1042A000DF92EF92FF92CF936B017C01B42E20E05E
:1042B00030E0A9010E94AAD887FF07C08DE20E94C2
:1042C0009575F7FAF094F7F8F094C0E060E070E0CC
:1042D00080E09FE3CB1541F02DEC3CEC4CEC5DE332
:1042E0000E9410D9CF5FF6CFA70196010E94A1DFEF
:1042F0006B017C010E949DE04B015C014AE00E9441
:104300009ABFCC2379F1C501B4010E94AFD89B01BB
:10431000AC01C701B6010E94A0DF6B017C018EE2F7
:104320000E949575C150F0F020E030E040E251E489
:10433000C701B6010E9410D96B017C010E949DE06B
:104340004B015C014AE00E949ABFC501B4010E9482
:10435000AFD89B01AC01C701B6010E94A0DF6B0181
:104360007C01E0CFCF91FF90EF90DF90CF90BF9096
:10437000AF909F908F9008958F929F92AF92BF922F
:10438000CF92DF92EF92FF920F931F93CF93C82F9C
:1043900009EE14E1F80166817781072E000C880B85
:1043A000990B0E94B1D86B017C01F8016481758181
:1043B000072E000C880B990B0E94B1D84B015C01B1
:1043C00080E20E94957584E50E9495758AE30E94BB
:1043D000957542E0C501B4010E944B2186E590E14C
:1043E0000E94AD7542E0C701B6010E944B2162E018
:1043F00070E080E090E00E9475B985E1C802F001AC
:104400001124E751FB4E608570E089E590E1CF9182
:104410001F910F91FF90EF90DF90CF90BF90AF90E2
:104420009F908F900C9458760F930FB70F93009135
:104430006E000B7F00936E0078940F930BB70F9371
:104440000CB70F921F922F933F934F935F936F93ED
:104450007F938F939F93AF93BF93EF93FF93112419
:104460000E94A326FF91EF91BF91AF919F918F91F1
:104470007F916F915F914F913F912F911F900F907E
:104480000CBF0F910BBF0F910460F89400936E0066
:104490000F910FBF0F911895CF93DF93C9EED4E121
:1044A0001F821E820E941CBA18865D98DF91CF91F0
:1044B0000895CF93DF93C9EED4E18A819B810E9456
:1044C00028AF9D838C83A8951092EE02DF91CF9147
:1044D0000895EF92FF920F931F93CF93C82F7B0104
:1044E0008A018091F205813099F40E946276C701B9
:1044F0000E94AD758EEA9FE00E94AD75C7FD1BC09E
:104500008C2FCC0F990B0E94C0AF8AE00E9495754A
:104510000E944C22A89580910505811111C081E06F
:104520008093050580E88093F20540E067EA7FE02C
:10453000C8010E94E4788AEA9FE00E94AD75E5CF49
:10454000CF911F910F91FF90EF900895CF93DF933C
:10455000EC01488159816A817B818DE99FE00E944D
:10456000717A4C815D816E817F818FE894E20E9437
:10457000717A488559856A857B858BE894E20E942B
:10458000717A8AE0DF91CF910C949575BC012091EE
:10459000E6043091E7044091E6045091E7042417C3
:1045A000350731F481E02617370709F080E00895D8
:1045B0009A01F1CF0F930FB70F9300916E000F93F5
:1045C0000B7F00936E0000916F000D7F00936F00D2
:1045D0000F930BB70F930CB70F921F922F933F932C
:1045E0004F935F936F937F938F939F93AF93BF93FB
:1045F000EF93FF9311240E94CE27FF91EF91BF917B
:10460000AF919F918F917F916F915F914F913F916A
:104610002F911F900F900CBF0F910BBF0F91026055
:10462000F89400936F000F9100936E000F910FBFED
:104630000F91189500000000000000008091E10536
:1046400080FF27C0459A8FEF80939C048091E105FD
:10465000869580FF21C0479A8FEF80939D048091BB
:10466000E1058695869580FF1AC02A988FEF809382
:104670009E048091E10586958695869580FF12C0FF
:10468000289A8FEF80939F04000000000000000034
:104690000895459881E0D8CF479881E0DECF2A9AE7
:1046A00081E0E5CF289881E0EDCFAF92BF92CF9225
:1046B000DF92EF92FF920F931F93CF93DF93CDE49E
:1046C000DBE000E716E08DE5A82E8BE0B82EC12CCC
:1046D000D12C7601C39469917991899199910E9425
:1046E000AFD8288939894A895B890E9410D90E94EC
:1046F0009DE0F80161937193819391938F01C616A8
:10470000D706E806F90610F46B017C01AC16BD066D
:1047100011F76FEF7FEFCB01A70196010E94F2DE48
:10472000209380063093810640938206509383063F
:10473000DF91CF911F910F91FF90EF90DF90CF907D
:10474000BF90AF9008950F931F93CF93DF9301E62F
:104750001BE0C9E8D6E0F8012191319141915191D6
:104760008F0160E070E080E89FE30E9424E069939D
:10477000799389939993F6E0C939DF0761F70E942D
:10478000C6B1DF91CF911F910F910C9455230C94DA
:10479000A3230C94A3230C94A3230C94A323909100
:1047A000931580919415981306C080919A06909164
:1047B0009B06892B19F00E94747EF1CF0895909189
:1047C000931580919415981308C080919A06909142
:1047D0009B06892B11F40C9417730E94747EEFCF03
:1047E000CF93DF9320916902222379F0EC010E949C
:1047F000FA6F9B01AC01688579858A859B850E944B
:10480000A0DF688779878A879B87DF91CF9108959A
:10481000CF93DF9320916902222379F0EC010E946B
:10482000FA6F9B01AC01688579858A859B850E941A
:10483000A1DF688779878A879B87DF91CF91089569
:104840004F925F926F927F928F929F92AF92BF92A0
:10485000CF92DF92EF92FF920F931F93CF93DF934C
:10486000CDB7DEB76A970FB6F894DEBF0FBECDBFE7
:104870009A8F898F5B018A01DC01D6966D917D91BB
:104880008D919C91D9970E94AFD86B017C01F50165
:1048900020813181428153810E9410D90E940DE014
:1048A0002B013C01D8012D913D914D915C91C701A7
:1048B000B6010E9410D90E940DE04B015C01C301BA
:1048C000B2010E949DE0698B7A8B8B8B9C8B683741
:1048D00071058105910540F428E730E040E050E0A3
:1048E000298B3A8B4B8B5C8BC501B4010E949DE0F8
:1048F0006D877E878F87988B683771058105910555
:1049000040F488E790E0A0E0B0E08D879E87AF8715
:10491000B88BE98DFA8DEE5BFF4F208131814281AA
:10492000538129833A834B835C83CA01B9010E9476
:10493000B1D82B013C0169897A898B899C890E94B5
:10494000AFD869877A878B879C8720E030E0A90100
:10495000C301B2010E94AAD8882309F43BC1A70170
:104960009601C701B6010E9410D94B015C0129854F
:104970003A854B855C85CA01B9010E9410D99B011B
:10498000AC01C501B4010E94A0DF4B015C01A30191
:104990009201C301B2010E94A1DF9B01AC01C501DC
:1049A000B4010E9424E00E940DE00E949DE06D830E
:1049B0007E838F83988769817A818B819C81909592
:1049C0008095709561957F4F8F4F9F4F0E94B1D812
:1049D0004B015C016D857E858F8598890E94AFD8DB
:1049E00069837A838B839C8320E030E0A901C50131
:1049F000B4010E94AAD8882309F4F0C029813A8121
:104A00004B815C81CA01B9010E9410D96D8B7E8BEC
:104A10008F8B988FA7019601C701B6010E9410D90C
:104A20009B01AC016D897E898F89988D0E94A0DFE2
:104A30006B017C01A5019401C501B4010E94A1DFB5
:104A40009B01AC01C701B6010E9424E00E94CCE0AA
:104A5000A98DBA8D95968D909D90AD90BC909897AC
:104A6000750164012D813E814F815885C21AD30A98
:104A7000E40AF50A0E949DE0C61AD70AE80AF90A74
:104A8000F7FE6EC020E030E0A901C301B2010E9430
:104A9000AAD8882309F4A6C0C501B4010E94AFD8E2
:104AA0006B017C01A3019201C301B2010E94A1DF4D
:104AB0009B01AC01C701B6010E9410D96B017C01BA
:104AC00029853A854B855C85CA01B9010E9410D9B8
:104AD0009B01AC01C701B6010E94A0DF6B017C0104
:104AE00029813A814B815C81CA01B9010E9410D9A8
:104AF0009B01AC01C701B6010E94A1DF6B017C01E3
:104B000020E030E040E850E4C301B2010E9410D937
:104B10009B01AC01C701B6010E9424E00E940DE098
:104B20006B017C0120E030E0A9010E9424E118160D
:104B30001CF0C12CD12C7601C701B6010E949DE06A
:104B40006D837E838F83988786169706A806B9069D
:104B500020F48D829E82AF82B886C12CD12C760142
:104B60008D819E81AF81B885E98DFA8D81A792A74D
:104B7000A3A7B4A7C80ED91EEA1EFB1EC5A6D6A6BB
:104B8000E7A6F0AA29893A894B895C8922AF33AF1D
:104B900044AF55AFFE962D853E854F8558892083BD
:104BA0003183428353836A960FB6F894DEBF0FBEFB
:104BB000CDBFDF91CF911F910F91FF90EF90DF90CC
:104BC000CF90BF90AF909F908F907F906F905F90AD
:104BD0004F90089560E070E0CB01E5CE60E070E0BA
:104BE000CB0134CF60E070E0CB0198CF90916F00A3
:104BF00081E091FD02C080E0089590916F009D7F5B
:104C000090936F000895CF93C82F0E94F62594E0EB
:104C1000C99F90011124F901E751FB4F2B503B4FE5
:104C2000D9014D915D916D917C9140835183628357
:104C3000738391E09093E804882319F0CF910C944A
:104C4000D672CF910895CF92DF92EF92FF9280912A
:104C5000E005811105C080912A06882309F46EC001
:104C600080917B04329B64C0816080937B0480913F
:104C70007B04339B5FC0826080937B0480917B04C4
:104C8000349B5AC0846080937B04C090D904C0FEDA
:104C900010C08091E10580FF0CC080917B0480FFF3
:104CA00008C08091F10581608093F10580E00E9449
:104CB0000326D12CF12CE12CD701C601B695A7957E
:104CC0009795879580FF11C08091E105869580FFBB
:104CD0000CC080917B0481FF08C08091F105826047
:104CE0008093F10581E00E94032682E0F694E79428
:104CF000D794C7948A95D1F7C0FE20C08091E10572
:104D00008695869580FF1AC080912A068823B1F087
:104D100080917B0482FF12C08091F10584608093B2
:104D2000F10582E0FF90EF90DF90CF900C94032686
:104D30008E7F9BCF8D7FA0CF8B7FA5CFFF90EF90F5
:104D4000DF90CF9008950F931F93CF93DF938091BF
:104D50003E018F37A8F18F579091F11490931D0564
:104D6000992391F15D9A8F5F80933E0180911C059C
:104D700091E0892780931C0581110E941818809169
:104D80003D01C1E0C80F83300CF0C0E0813009F470
:104D900081C0E4F4882379F1C0933D010E94232669
:104DA00080919A0690919B06009729F00197909325
:104DB0009B0680939A06DF91CF911F910F910895E2
:104DC00090911D05891778F25D98CDCF823009F456
:104DD0006CC0833009F780911B05811103C087E007
:104DE00080931B0580911B05815080931B058823B0
:104DF00099F2C3E0D1CF80913C018F5F80311CF4E8
:104E000080933C01C9CF10923C018091EE02811148
:104E10000BC08091E9149091EA149093EC14809364
:104E2000EB1481E08093EE021092EA141092E914E0
:104E30000091EB141091EC148091EF149091F01408
:104E4000D1E0181619062CF08091F114811101C0DF
:104E5000D0E08091520190915301801791073CF46A
:104E600048E150E165E270E180E00E946922DD23C3
:104E700009F492CF809150019091510108171907C0
:104E80000CF08ACF47E350E164E470E180E00E94D7
:104E9000692282CF10927B0087E480937C0080910E
:104EA0007A00806480937A0077CF80917A0086FDC3
:104EB0000FC020917800309179008091E914909191
:104EC000EA14820F931F9093EA148093E91464CF3D
:104ED000C2E062CF0E94F6251092840610928506E9
:104EE000109286061092870681110C94D67208954E
:104EF0000F931F938091931590919415891B8F7038
:104F000009F449C090919015992361F0833040F4E1
:104F10008FEF890F29F08093901590E080E038C0E2
:104F200010929015809194152BE4829FC00111245A
:104F30008456994FFC01208120FDEFCF40918406DB
:104F4000509185066091860670918706E95BFF4F58
:104F50000081118122813381401B510B620B730B45
:104F60004093840650938506609386067093870667
:104F7000209194152F5F2F702093911530919415E7
:104F800020919215321304C020919115209392150F
:104F90001F910F9108950E946A27BFCF2F923F92D1
:104FA0004F925F926F927F928F929F92AF92BF9239
:104FB000CF92DF92EF92FF920F931F93CF93DF93E5
:104FC00000D000D0CDB7DEB78FEF9FEF9093890070
:104FD000809388000AE00983312C212C78948091F9
:104FE000E2049091E304A091E404B091E504892BDC
:104FF0008A2B8B2B09F0C4C18091E8048823E1F04F
:105000008091E6049091E7041092E804892B09F45A
:10501000B7C11092E7041092E6041092D90490915F
:10502000931580919415981709F4AAC1809194154D
:105030008F5F8F70809394158091E6049091E704C0
:10504000892B09F49DC14091DE045091DF046091E9
:10505000E0047091E1048091DA049091DB04A09166
:10506000DC04B091DD040091CC0410E030E020E0DD
:10507000841B950BA60BB70B081719072A073B07CC
:1050800010F4D901C8018A83840F951FA61FB71F8A
:105090008093DE049093DF04A093E004B093E104D6
:1050A000E1E0C090A404D090A504E090A604F090A4
:1050B000A7048091B4049091B504A091B604B09176
:1050C000B704C80ED91EEA1EFB1EC092B404D092CB
:1050D000B504E092B604F092B704F7FC33C04091F7
:1050E0009C04042E000C550B660B770B8091F50485
:1050F0009091F604A091F704B091F804840F951FE5
:10510000A61FB71F8093F5049093F604A093F704AD
:10511000B093F8048091A0049091A104A091A204FE
:10512000B091A304A7019601281B390B4A0B5B0B16
:10513000DA01C9018093B4049093B504A093B60436
:10514000B093B7040091A8041091A9042091AA0477
:105150003091AB048091B8049091B904A091BA0445
:10516000B091BB04080F191F2A1F3B1F0093B804FE
:105170001093B9042093BA043093BB0437FD33C0B5
:1051800080919D04082E000C990BAA0BBB0B40913B
:10519000F9045091FA046091FB047091FC04840FAF
:1051A000951FA61FB71F8093F9049093FA04A0934C
:1051B000FB04B093FC048091A0049091A104A09101
:1051C000A204B091A304B901A801481B590B6A0BB2
:1051D0007B0BDB01CA018093B8049093B904A093C0
:1051E000BA04B093BB044091AC045091AD046091FB
:1051F000AE047091AF048091BC049091BD04A09165
:10520000BE04B091BF04480F591F6A1F7B1F409313
:10521000BC045093BD046093BE047093BF0477FD3B
:1052200033C080919E04082E000C990BAA0BBB0B77
:105230008090FD049090FE04A090FF04B0900005C3
:10524000880D991DAA1DBB1D8093FD049093FE043B
:10525000A093FF04B09300058091A0049091A10455
:10526000A091A204B091A3042A013B01481A590A53
:105270006A0A7B0AD301C2018093BC049093BD04E7
:10528000A093BE04B093BF048090B0049090B1048A
:10529000A090B204B090B3048091C0049091C10476
:1052A000A091C204B091C304880D991DAA1DBB1D15
:1052B0008093C0049093C104A093C204B093C3042C
:1052C000B7FD33C040909F04042C000C55086608BD
:1052D00077088090010590900205A0900305B0909A
:1052E0000405840C951CA61CB71C809201059092A5
:1052F0000205A0920305B09204058090A00490904E
:10530000A104A090A204B090A3042C013D01481870
:1053100059086A087B08530142018092C0049092A8
:10532000C104A092C204B092C304E11104C0E09190
:105330008400F0918500F7FE5F9A37FF469A77FF69
:105340002B9AB7FF299AE0918400F0918500E091B3
:105350008400F0918500F7FE5F9837FF469877FF4D
:105360002B98B7FF29985A80552021F0809184000E
:10537000909185000A8101500A83E0E0011191CEED
:1053800080905E0190905F01A0906001B0906101FB
:1053900081149104A104B10409F047C080912F0643
:1053A00090913006009709F42FC023B1247015980E
:1053B0000000000000000000181619060CF0D7C00D
:1053C0002A9A00000000000000002B9A34E03A9571
:1053D0000000E9F72B9800000000000000002223E5
:1053E00009F4C7C02A9A0000000000000000181647
:1053F00019060CF0C0C080912F06909130060197DD
:105400009093300680932F060E94DC72882309F463
:10541000B8C080ED97E0A0E0B0E080935E0190938B
:105420005F01A0936001B09361018091E2049091CB
:10543000E304A091E404B091E504892B8A2B8B2B23
:1054400009F050C4E091E604F091E704309709F4C4
:1054500024C58091DE049091DF04A091E004B09116
:10546000E1044091DA045091DB046091DC04709116
:10547000DD0484179507A607B70708F486C01092C5
:10548000E7041092E6041092D9049091931580914C
:105490009415981709F401C5809194158F5F8F704A
:1054A0008093941580EDC82E87E0D82EE12CF12C46
:1054B0008091E6049091E704892B09F00BC40E94C7
:1054C00078279093E7048093E604892B09F402C4BB
:1054D0004090E6045090E7045C824B82D2018C91AC
:1054E00083FFB3C2F201858D968DA78DB0A1418D4A
:1054F000528D638D748D058916892789308D0093AF
:10550000F5041093F6042093F7043093F8044093C5
:10551000F9045093FA046093FB047093FC048093A5
:10552000FD049093FE04A093FF04B093000581A1B5
:1055300092A1A3A1B4A18093010590930205A09329
:105540000305B09304051092E7041092E60410924C
:10555000D9049091931580919415981709F4AFCFC1
:10556000809194158F5F8F7080939415A8CF2A989F
:1055700028CF2A9838CF80912F0690913006019637
:105580003FCF8FEF9FEFDC0148CF4091D504509182
:10559000D6046091D7047091D804481759076A0758
:1055A0007B0708F4DEC08091D1049091D204A091D1
:1055B000D304B091D40441A952A963A974A91127B5
:1055C000859F412C969F9001A69F300DA59F200D91
:1055D000311D869F400C211D311F959F400C211DC0
:1055E000311FA49F400C211D311F949F410C211F8E
:1055F000311F4694211F311F789F200D311D799F47
:10560000300D112442AD53AD64AD75AD420F531F43
:10561000611D711D4093CD045093CE046093CF045F
:105620007093D00406A917A920AD31AD0417150752
:105630002607370740F40093CD041093CE0420933F
:10564000CF043093D0044090CD045090CE046090AD
:10565000CF047090D0042DE73FE001E00A83F90108
:1056600045915591659174914415550566057705E9
:1056700070F476946794579447941A81110F1A83A3
:105680002C5F3F4F49E95FE04217530741F75A81CA
:105690005093CC0460E2461651046104710428F46E
:1056A00010E2412E512C612C712C70E2471A5108E6
:1056B000610871084114E8E05E066104710408F4B1
:1056C0002EC0F4E05F9E900111242358344FF9015D
:1056D000329645915491042DEE27059FB001049F09
:1056E000610D7E1F06946E1F7E1F1124AB0170E0BA
:1056F00060E0F901C590D490F12CE12CC41AD50AD0
:10570000E60AF70A8C0D9D1DAE1DBF1D8093D104C6
:105710009093D204A093D304B093D404C9CEB30120
:10572000A20176956795579547959A012C7F235846
:10573000384FF901C590D490F901329645915491B2
:10574000142D1770149F9001159F300D1124F3E054
:1057500036952795FA95E1F7C21AD30AF12CE12C78
:10576000D1CF4091C8045091C9046091CA0470918E
:10577000CB04481759076A077B0708F0D4C080910B
:10578000C4049091C504A091C604B091C70441A976
:1057900052A963A974A92227859F312D969F800164
:1057A000A69F100DA59F000D111D869F300D011D98
:1057B000121F959F300D011D121FA49F300D011D5A
:1057C000121F949F310D021F121F3695021F121FC8
:1057D000789F000D111D799F100D112430E020E0FD
:1057E0004091CD045091CE046091CF047091D004CB
:1057F000FE9640805180628073800417150726074B
:10580000370758F4401B510B620B730B44165506B7
:105810006606770610F42A013B012DE73FE041E0E0
:105820004A83F90145915591659174914415550547
:105830006605770570F476946794579447945A8177
:10584000550F5A832C5F3F4F69E97FE0621773075A
:1058500041F77A817093CC04E0E24E165104610462
:10586000710428F400E2402E512C612C712CF0E2DE
:105870004F1A510861087108411408E0500661048C
:10588000710408F42EC014E0519E90011124235895
:10589000344FF901329645915491F42DEE27F59F3E
:1058A000B001F49F610D7E1F06946E1F7E1F1124B0
:1058B000AB0170E060E0F901C590D490F12CE12CCF
:1058C000C41AD50AE60AF70A8C0D9D1DAE1DBF1D30
:1058D0008093C4049093C504A093C604B093C704F6
:1058E000E7CDB301A20176956795579547959A0143
:1058F0002C7F2358384FF901C590D490F901329686
:1059000045915491042D0770049F9001059F300D1F
:10591000112413E0369527951A95E1F7C21AD30A98
:10592000F12CE12CD1CF8091380190913901A091D7
:105930003A01B0913B01B7FF5DC0C6A8D7A8E0AC63
:10594000F1AC8DE79FE021E0FC0145915591659117
:1059500074914C155D056E057F0558F4F694E79437
:10596000D794C794220F049649E95FE04817590776
:1059700059F72093CC0450E2C516D104E104F10498
:1059800028F470E2C72ED12CE12CF12C60E2C61A6B
:10599000D108E108F108C11478E0D706E104F10468
:1059A00008F431C0A4E0DA9EC00111248358944F5A
:1059B000FC01329625913491BC2D6627B39FA0013E
:1059C000B29F410D561F0694461F561F112470E0CA
:1059D00060E0FC0185919491B0E0A0E0841B950B00
:1059E000A60BB70B8093380190933901A0933A012D
:1059F000B0933B01C0903801D0903901E0903A015A
:105A0000F0903B0155CDD701C601B695A795979566
:105A100087958C7F8358984FFC0125913491FC0128
:105A2000329645915491EC2DE770E49FC001E59FBB
:105A3000900D112463E0969587956A95E1F7281BF0
:105A4000390BC901B0E0A0E0CDCFAB81BC81559648
:105A50000D911D912D913C91589781E001151105F3
:105A60002105310509F480E0EB81FC81C18CD28CE9
:105A7000E38CF48CC114D104E104F10409F08260D8
:105A8000AB81BC815D964D915D916D917C919097BC
:105A9000411551056105710509F084608093D904B1
:105AA0001092C4041092C5041092C6041092C70448
:105AB0001092D1041092D2041092D3041092D40404
:105AC000EB81FC8185A196A1A7A1B0A58093DA0402
:105AD0009093DB04A093DC04B093DD0444245524AC
